:10000000020064FFFFFFFFFFFFFFFFFFFFFFFFFF97
:10001000FFFFFFFFFFFFFFFFFFFFFFFFFFFFFFFFF0
:10002000FFFFFFFFFFFFFFFFFFFFFFFFFFFFFFFFE0
:10003000FFFFFFFFFFFFFFFFFFFFFFFFFFFFFFFFD0
:10004000FFFFFFFFFFFFFFFFFFFFFFFFFFFFFFFFC0
:10005000FFFFFFFFFFFFFFFFFFFFFFFFFFFFFFFFB0
:10006000FFFFFFFF78007400F6D8FD7581290200BC
:10007000D1E5247004A822E622852282852383E428
:100080009322A822E526F622E524700AA822E6F5A6
:10009000F008E6C5F022852282852383E493F5F0FB
:1000A000740193C5F022A822E526F608E527F6227A
:1000B00022227522FAE52270030200D01522752350
:1000C000FAE52370030200CD15230200C10200B53A
:1000D00022752400E5243392941200B27524FFE5C2
:1000E000243392941200B20200D122C2D530E70428
:1000F000F404D2D5C5F030E704F404B2D5C5F084D9
:1001000030D502F40422E6F5F018E6F463F0FF04BB
:10011000700205F022E7F5F019E7F463F0FF0470D0
:100120000205F02219E6F5F0E7A4FA0918E6F5F061
:10013000E7A42AFA19E6F5F0E7A4C5F02AC5F022EB
:10014000E6FF18E6FEE7FD19E7FC7B007A00791070
:10015000C3EE33FEEF33FFEA33FAEB33FBEAC39C23
:10016000F8EB9D40050EFB850002D9E4EE8FF022EE
:10017000120140EA8BF022C2D5E630E70A120106EE
:100180007807FEAFF0D2D5E730E70A1201157905FE
:10019000FCADF0B2D512014030D509F463F0FF0494
:1001A000700205F022E6F5F0E7B5F00C0809E6F577
:1001B000F0E7B5F00374FF22E422E6F5F0E7B5F0CE
:1001C0001E0809E6F5F0E7B5F0150809E6F5F0E7D1
:1001D000B5F00C0809E6F5F0E7B5F00374FF22E48A
:1001E00022E7C3960809E7961322E7C3960809E7B2
:1001F000960809E7960809E7961322E7C3960809C7
:10020000E79622E7C3960809E7960809E7960809E2
:10021000E79622C3C5F013C5F013D8F722C333C540
:07022000F033C5F0D8F7220E
:00000001FF
