:10000000020064FFFFFFFFFFFFFFFFFFFFFFFFFF97
:10001000FFFFFFFFFFFFFFFFFFFFFFFFFFFFFFFFF0
:10002000FFFFFFFFFFFFFFFFFFFFFFFFFFFFFFFFE0
:10003000FFFFFFFFFFFFFFFFFFFFFFFFFFFFFFFFD0
:10004000FFFFFFFFFFFFFFFFFFFFFFFFFFFFFFFFC0
:10005000FFFFFFFFFFFFFFFFFFFFFFFFFFFFFFFFB0
:10006000FFFFFFFF78007400F6D8FD7581290201BB
:100070004EE5247004A822E622852282852383E4AB
:100080009322A822E526F622E524700AA822E6F5A6
:10009000F008E6C5F022852282852383E493F5F0FB
:1000A000740193C5F022A822E526F608E527F6227A
:1000B0002222752202E52270030200DF1522752339
:1000C000FAE52370030200DC15237524FAE5247099
:1000D000030200D915240200CD0200C10200B5229E
:1000E000752200E5223392B1752200E5223392B2E7
:1000F000752200E5223392B022752308E5237003B0
:1001000002013D1523E522A2E713F524E5243392ED
:10011000B0752401A824B80006852224020127E531
:1001200022C333D8FCF5248524227524FFE524332B
:1001300092B2752400E5243392B20200FC7523FFCD
:10014000E5233392B1752300E5233392B1221200E7
:10015000E07525008525221200F975250F852522D9
:100160001200F91200B27525F08525221200F9124D
:1001700000B202015A22C2D530E704F404D2D5C538
:10018000F030E704F404B2D5C5F08430D502F404AD
:1001900022E6F5F018E6F463F0FF04700205F022A1
:1001A000E7F5F019E7F463F0FF04700205F0221997
:1001B000E6F5F0E7A4FA0918E6F5F0E7A42AFA193B
:1001C000E6F5F0E7A4C5F02AC5F022E6FF18E6FE42
:1001D000E7FD19E7FC7B007A007910C3EE33FEEFF0
:1001E00033FFEA33FAEB33FBEAC39CF8EB9D40059F
:1001F0000EFB850002D9E4EE8FF0221201CBEA8BD0
:10020000F022C2D5E630E70A1201917807FEAFF07E
:10021000D2D5E730E70A1201A07905FCADF0B2D5DE
:100220001201CB30D509F463F0FF04700205F0220F
:10023000E6F5F0E7B5F00C0809E6F5F0E7B5F003F0
:1002400074FF22E422E6F5F0E7B5F01E0809E6F5B2
:10025000F0E7B5F0150809E6F5F0E7B5F00C080988
:10026000E6F5F0E7B5F00374FF22E422E7C3960851
:1002700009E7961322E7C3960809E7960809E79667
:100280000809E7961322E7C3960809E79622E7C311
:10029000960809E7960809E7960809E79622C3C574
:1002A000F013C5F013D8F722C333C5F033C5F0D827
:0202B000F72233
:00000001FF
