:020000040000FA
:10000000004000204D4600008D4600008F46000055
:1000100000000000000000000000000000000000E0
:1000200000000000000000000000000091460000F9
:10003000000000000000000093460000954600000C
:100040009746000097460000754B00009746000059
:100050009746000000000000974600009746000009
:100060009746000097460000953D00009746000027
:10007000974600009746000097460000974600000C
:100080009746000029470000974600009746000069
:1000900097460000974600009746000097460000EC
:1000A0009746000097460000000000000000000096
:1000B0000000000000000000000000000000000040
:1000C000054B0648033310B51B1A062B03D9044B06
:1000D000002B00D0984710BDC8000020C8000020A9
:1000E000000000000648074910B5091A8910CB0F17
:1000F0005918491003D0044B002B00D0984710BD6D
:10010000C8000020C80000200000000010B5074C07
:100110002378002B09D1FFF7D3FF054B002B02D02A
:10012000044800E000BF0123237010BDC800002078
:10013000000000009CB80000094B10B5002B03D054
:100140000849094800E000BF08480368002B02D1B5
:10015000FFF7C8FF10BD064B002BF9D09847F7E713
:1001600000000000CC0000209CB80000C40000206B
:1001700000000000164B002B00D1144B9D4640227E
:1001800092029A1A924600218B460F461348144A4F
:10019000121A05F0C5F80F4B002B00D098470E4BF4
:1001A000002B00D098470020002104000D000D48CE
:1001B000002802D00C4800E000BF05F08BF82000BA
:1001C000290004F0EFFC05F05FF8C04600000800CD
:1001D000004000200000000000000000C8000020D7
:1001E000A80B0020000000000000000000230F4AC0
:1001F00013800F4A13800F4A13700F4A13800F4A5F
:1002000013800F4A13700F4A13800F4A13800F4A4E
:1002100013700F4A13800F4A13800F4A13700F4A4E
:1002200013800F4A13800F4A13707047BC020020DE
:1002300098010020C6020020600100201C0A002056
:10024000A80300207002002064010020C1020020E9
:10025000CA01002014020020A00100205E0100203D
:100260003E0A0020400A0020002808D104480180EE
:1002700004490A80044A13800122044B1A70704713
:100280007E010020600100201C0A0020A80300203D
:1002900010B5002901D1023100E0012104F054FA27
:1002A00010BD10B5002900D0012104F06BFA10BD7B
:1002B00070B5094D0121287804F064FA074C01213A
:1002C000207804F05FFA2878002104F05BFA2078A7
:1002D000002104F057FA70BD1F0A002040030020DF
:1002E00010B5074C0021207804F04CFA054B012191
:1002F000187804F047FA2078012104F043FA10BD81
:100300001F0A00204003002070B50B4D0121287802
:1003100004F01AFA094C0121207804F015FA287823
:10032000012104F02FFA2078012104F02BFAFFF7C5
:10033000BFFFFFF7D5FF70BD400300201F0A00205C
:1003400070B5114C0221207804F0FEF90F4E012106
:10035000307804F017FA00230D4D20782B6004F05C
:1003600027FAC0B2012805D12B680A4A934201D866
:100370000133F2E73078002104F004FA20780121FB
:1003800004F0E2F970BDC0461F0A002040030020BF
:10039000140300209F860100F8B5050008247F277C
:1003A00029000B4BB9431878FFF77BFF094E012159
:1003B0003078013C04F0E6F96D0030780021E4B2B9
:1003C000EDB204F0DFF9002CEAD1FFF7B9FFF8BD78
:1003D0001F0A00204003002070B5104B05000021CB
:1003E000187804F0CFF908240D4A6BB21078002178
:1003F000002B00DA012104F0C5F90A4E0021307803
:10040000013C04F0BFF96D0030780121E4B2EDB297
:1004100004F0B8F9002CE7D170BDC0464C030020B1
:10042000340100209001002070B5104B050001211F
:10043000187804F0A7F908240D4A6BB2107800214F
:10044000002B00DA012104F09DF90A4E00213078DA
:10045000013C04F097F96D0030780121E4B2EDB26F
:1004600004F090F9002CE7D170BDC0464C03002089
:10047000340100209001002010B50400FFF718FFA0
:100480007820FFF789FF0020FFF786FF2000FFF7A5
:1004900083FFFFF725FF10BD10B5FFF735FFAE2036
:1004A000FFF7EAFF0020FFF7E7FF1020FFF7E4FF68
:1004B0004020FFF7E1FF8120FFF7DEFFCF20FFF7AD
:1004C000DBFFA120FFF7D8FFC820FFF7D5FFA6204C
:1004D000FFF7D2FFA820FFF7CFFF3F20FFF7CCFFA9
:1004E000D320FFF7C9FF0020FFF7C6FFD520FFF795
:1004F000C3FF8020FFF7C0FFD920FFF7BDFFF12029
:10050000FFF7BAFFDA20FFF7B7FF1220FFF7B4FFBB
:10051000DB20FFF7B1FF4020FFF7AEFF2020FFF701
:10052000ABFF0220FFF7A8FF8D20FFF7A5FF1420E7
:10053000FFF7A2FFA420FFF79FFFA620FFF79CFF75
:10054000AF20FFF799FF10BD10B50400FFF7B0FE14
:100550007820FFF721FF4020FFF71EFF2000FFF764
:100560001BFFFFF7BDFE10BDF8B5050008247F276F
:100570000A4E0021307804F005F92900084BB943F0
:100580001878013CFFF78DFE6D0030780121E4B250
:1005900004F0F8F8EDB2002CEAD1F8BDDD0200203D
:1005A0002D01002010B50400044B0121187804F03F
:1005B000E9F82000FFF7D8FF10BDC046A9030020CE
:1005C00010B50400054B0121187804F0DBF8200A6F
:1005D000FFF7CAFFE0B2FFF7C7FF10BDA903002075
:1005E00010B50400044B0021187804F0CBF820006B
:1005F000FFF7BAFF10BDC046A9030020F8B50700F9
:1006000016000D001C002A20FFF7EAFF3800FFF754
:10061000D7FF3000FFF7D4FF2B20FFF7E1FF2800C2
:10062000FFF7CEFF2000FFF7CBFF2C20FFF7D8FF0E
:10063000F8BD0000F7B500210E4E0F4F33683A6841
:10064000013B013A01909BB292B20800FFF7D6FF3E
:1006500000243B689C420CDA002533689D4205DA91
:1006600001980135FFF7ACFFADB2F6E70134A4B253
:10067000EFE7F7BD100200202002002010B50D4B5F
:100680001B78002B15D1002813DB0B4B1B689842FD
:100690000FDA00290DDB094B1B68994209DA80B299
:1006A00089B20B000200FFF7A9FF054B1888FFF77E
:1006B00087FF10BDF0020020200200201002002061
:1006C0000A03002010B50D4B1B78002B15D1002814
:1006D00013DB0B4B1B6898420FDA00290DDB094B2B
:1006E0001B68994209DA80B289B20B000200FFF759
:1006F00085FF054B1888FFF763FF10BDDC02002063
:100700002002002010020020F202002070B50E4EE0
:100710000121307804F018F80C4D0121287804F0FC
:1007200013F80B4C0121207804F00EF830780121E9
:1007300004F028F82878012104F024F8207800211A
:1007400004F020F870BDC046B6020020E60100208B
:10075000C3020020F8B5304E00210500307804F0C7
:1007600011F82E4C0121207804F00CF8207800219B
:1007700004F008F804277F23290030789943FFF715
:1007800090FD013F2078012103F0FCFF6D002078EF
:100790000021FFB2EDB203F0F5FF002FEBD13900DD
:1007A000307803F0EFFF043720780121013F03F098
:1007B000E9FFFFB22078002103F0E4FF002FF3D11E
:1007C00004377F23290030789943FFF76AFD013F02
:1007D0002078012103F0D6FF6D0020780021FFB2C0
:1007E000EDB203F0CFFF002FEBD13078390003F0EA
:1007F000C9FF042520780121013D03F0C3FFEDB2BC
:100800002078002103F0BEFF002DF3D130780121C4
:1008100003F0B8FFF8BDC046E6010020C302002087
:10082000F8B5184E07000121307803F0ABFF05241E
:10083000154D01212878013C03F0A4FFE4B228788B
:10084000002103F09FFF002CF2D13078210003F04B
:1008500099FF2878012103F095FF2878210003F003
:1008600091FF3078210003F08DFF2878012103F0FB
:1008700089FF2878210003F085FF3800FFF76AFF21
:10088000F8BDC046E6010020C3020020F8B5184EAE
:1008900007000121307803F075FF0524154D012173
:1008A0002878013C03F06EFFE4B22878002103F0C1
:1008B00069FF002CF2D13078210003F063FF287823
:1008C000012103F05FFF2878210003F05BFF3078FF
:1008D000012103F057FF2878012103F053FF287806
:1008E000210003F04FFF3800FFF734FFF8BDC0468A
:1008F000E6010020C302002070B504AC25780E4C40
:100900001426207001200D4C20700D4C26700D4CCB
:100910002836267000240C4E34700C4E30700C4E6D
:1009200034700C4C20700C4801700C490A700C4A51
:1009300013700C4B1D7070BDCC0100201001002005
:100940003E0100203F01002024020020250200205B
:10095000BF020020C00200206602002067020020C3
:10096000C502002031030020FF22074B1A705A7085
:100970009A70DA701A715A719A71DA710023034A07
:100980001360034A13707047DE010020AC0300209F
:100990003D01002000230121064A1370064A13700E
:1009A000064A1370064A1170064AFE311170064A53
:1009B0001370704728030020C80100207C0100202C
:1009C000340A0020DB0200200401002030B50A4C6C
:1009D0000A4D227853B2E85400250948C154094908
:1009E00098004550012108485218C1540748227008
:1009F000C154180030BDC04644030020D40100207B
:100A00005002002028020020A8010020050100203B
:100A100030B503AC0025645F084D288008480160AC
:100A200008490A60084A1360084B094A1C60094BD0
:100A30001A60094A094B1A6030BDC0463A010020CD
:100A40001C0200202003002074020020B8020020B5
:100A5000610B00004C0A0020810B00009401002073
:100A6000114B4AB230B5134004D50822013B524223
:100A7000134301330D4A89B21268C90851430C4A25
:100A8000081811680B4A80B21578012241180A48EB
:100A90005BB2445C9A40002D02D02243D2B201E006
:100AA00094432200425430BD07000080B802002069
:100AB0001C0200202C0A0020B0030020F7B506001D
:100AC0000D0000283FDB204B1A6890423BDA0029DA
:100AD00039DB1E4B1B68994235DA1D49097800291C
:100AE00001D0013A161A1B4A1278002A01D0013BA4
:100AF0005D1B194B1B78002B02D033002E001D000C
:100B0000164B1F68012F04D129003000FFF7A8FF02
:100B100001E0002F17DDFC0FE41964106442361960
:100B20002C19E3190093009B9C420CD03500F3195B
:100B3000019328002100FFF793FF019B01359D429F
:100B4000F7D10134EFE7F7BD200300207402002045
:100B500091010020C4020020480A002080010020EA
:100B6000054B10B51B68002B05DB044A00D00123A0
:100B70001370FFF7A3FF10BD480300202C0A0020CC
:100B8000054B10B51B68002B05DB044A00D0012380
:100B90001370FFF793FF10BD240A00202C0A0020D9
:100BA00003000120002B22DB114A126893421EDA57
:100BB00000291CDB0F4A1268914218DA0E4A88B2EB
:100BC0001268C00850430D4AC3180D489BB2126802
:100BD000C318985C0B4B49B2194004D5082301395E
:100BE0005B421943013149B2084101231840704763
:100BF0002003002074020020B80200201C02002004
:100C0000B003002007000080084B70B51C6800236B
:100C1000074A084D0026965F1AB2B24204DA291933
:100C2000013388549BB2F7E770BDC0461C02002018
:100C30003A010020B0030020F0B58DB00B93FF23E4
:100C40001B040B4006938BB20193069B04900A92FF
:100C5000002B07D04A4B019A1B689B181A79D208BF
:100C6000089207E0019A474B9B181B79DB08089311
:100C7000444B9B189B780993002303936B460A9A75
:100C80009B8902939B189BB207936B46099A1B7B27
:100C90009A4270D96B469C8D00230593059A089B58
:100CA000934265D0069B002B02D0354B1B6800E0B9
:100CB000344B029A9B18019A9B185D7A049B002B77
:100CC00013D11F006B461C20185E0123A6B2F11938
:100CD00009B21D4201D02C4B00E02C4B1B680137A0
:100CE00098476D08082FEDD114E0049B012B15D116
:100CF00000270123A6B2F11989B21D4206D06B4626
:100D00001C20185E214B09B21B68984701376D08FB
:100D1000082FEED134000834A4B217E0049B022B54
:100D200014D16B4626001C27DF5F083636B201233C
:100D30001D4205D021B23800FFF732FF00281CD138
:100D40000134A4B223B26D089E42F0D1069B002B61
:100D500002D00B4B1B6800E00A4B019A9B189B7852
:100D6000029AD3189BB20293059B01339BB294E77E
:100D7000039B013381E7002000E001200DB0F0BDAE
:100D800038030020B00300204C0A0020940100200A
:100D9000F0B58BB0049310AB099200229B5E0890D3
:100DA00005938BB203932C4B039A1B689B18DA783C
:100DB000997812028A181F7992B20692FB087A0774
:100DC00003D1002F01D0DBB200E00133049D029378
:100DD000049B089AEB1ADBB293423ADA0026099A8E
:100DE000059CD3189BB20093029B9E422ED01A4BB7
:100DF000009A1B689B18039A9B185B7A0193230047
:100E000008339BB207930122019B134201D0134B7D
:100E100000E0134B1B68210028009847019B013418
:100E20005B080193059B24B2DB19A34208DC069AF8
:100E3000009B944663449BB201360093F6B2D3E71D
:100E40006B461C229B5E9C42DDD1F0E701352DB242
:100E5000BEE70BB0F0BDC046380300204C0A0020AE
:100E6000940100200023034A1370034A1370034ABD
:100E7000137070479102002090020020E4000020CF
:100E8000F7B5134F01933D78124B6EB2B400E050AA
:100E90001148019B2150114976006250104A0135DA
:100EA000A350089A0F4B3D70E250099A0E4BE25046
:100EB0000A9A0E4BE2500B9A0D4BE2500C9A0D4BD6
:100EC000E25000220C4BF2520C4B01321A70F7BD6B
:100ED00091020020F4020020F0000020F40900201C
:100EE0006801002018010020080A002044010020A9
:100EF000B40100207C020020D002002090020020DB
:100F00000023024A1370024A136070475C020020FB
:100F1000F009002010B50024094B1C70094B1C700F
:100F2000094B1C70FFF720FD084B1C70FFF732FDCA
:100F3000074B1C70FFF796FFFFF7E2FF10BDC0469E
:100F40005B0100202E010020100100201B02002068
:100F5000440300200023034A1360034A1360034A3A
:100F60001360704734030020380A0020440A002030
:100F7000FA239B005843034B1860034B1A68101860
:100F80001860704734030020380A0020064B10B563
:100F90001C6803F0A1FB054B241A24021868240ADC
:100FA000A0428041404210BD380A00203403002096
:100FB00010B503F091FB014B186010BD440A0020EE
:100FC00010B503F089FB024B1B68C01A10BDC04668
:100FD000440A002010B50400FFF7EAFFFFF7F0FF16
:100FE000A042FBD310BD0000F8B506000825002480
:100FF0000121164B31401878002900D0012103F05F
:10100000C1FB0520FFF7E6FF114F0021387803F000
:10101000B9FB0520FFF7DEFF0E4B7608187803F0CA
:10102000C7FBC0B26408002803D080235B421C4386
:10103000E4B238780121013D03F0A4FBEDB20520B4
:10104000FFF7C8FF002DD3D12000F8BD2C030020EE
:101050002C0100206201002010B50400002C07DDE7
:10106000FFF7A6FFFFF7ACFF0928FBD9013CF5E726
:1010700010BD002310B51AB28A4202DA03339BB2C4
:10108000F9E70A20FFF7E8FF10BD10B504000021C2
:1010900003F078FB1820FFF7DFFF1820FFF7DCFFD5
:1010A0001820FFF7D9FF0121200003F06BFB04207B
:1010B000FFF7D2FF0221200003F046FB1920FFF7C3
:1010C000CBFF0121200003F03FFB10BDF8B5050068
:1010D0000E00082401270021280003F053FB3100F3
:1010E00028003940FFF7DDF8013C0920FFF7B4FF85
:1010F000E4B201212800760803F044FB002CEAD179
:10110000F8BDF8B580270600082500247F4200219D
:10111000300003F037FB0121300003F033FB0221E4
:10112000300003F011FB0120FFF796FF300003F0C1
:101130003FFBC0B26408012801D13C43E4B2052062
:10114000FFF78AFF013D0121300003F0FDFAEDB207
:101150000120FFF781FF002DD9D12000F8BD70B527
:101160000600082500246400E4B2300003F020FBF0
:10117000C0B20028F9D00520FFF76EFF300003F061
:1011800017FBC0B2012806D10443300003F010FB66
:10119000C0B20128F9D0013DEDB2002DE3D120000D
:1011A00070BD000070B504000D00012103F0EAFAE3
:1011B0000120FFF751FF2000002103F0E3FA104C5B
:1011C000280003F0F5FAC0B200280FD0FFF7F0FEB8
:1011D0000024280003F0ECFAC0B201280AD1FFF77E
:1011E000EFFE084B041E9C42F3D903E0013C002CA7
:1011F000ECD0E5E72220C821604303F025FD70BD57
:1012000050C30000204E000010B50400002C08DD83
:10121000FFF7CEFEFFF7D4FE024B9842FAD9013C0D
:10122000F4E710BDE703000070B5504E012130789F
:1012300003F08AFA4E4D0121287803F085FA4D4BD0
:101240000121187803F080FA4B4C0121207803F03B
:101250007BFA3078012103F095FA2878002103F019
:1012600091FA2078002103F08DFA0A20FFF7CCFFD5
:10127000424B1D781C00002D53D1AE20FFF7ACF877
:101280002800FFF7A9F81020FFF7A6F84020FFF785
:10129000A3F88120FFF7A0F8CF20FFF79DF8A12049
:1012A000FFF79AF8C820FFF797F8A620FFF794F801
:1012B000A820FFF791F83F20FFF78EF8D320FFF723
:1012C0008BF82800FFF788F8D520FFF785F88020F5
:1012D000FFF782F8D920FFF77FF8F120FFF77CF8BD
:1012E000DA20FFF779F81220FFF776F8DB20FFF716
:1012F00073F84020FFF770F82020FFF76DF8022008
:10130000FFF76AF88D20FFF767F81420FFF764F8FD
:10131000A420FFF761F8A620FFF75EF8AF20FFF7E3
:101320005BF82378012B20D1AF20FFF755F8402040
:10133000FFF752F8A020FFF74FF8A620FFF74CF870
:10134000A420FFF749F8A220FFF746F8C820FFF7CE
:1013500043F82F20FFF740F82520FFF73DF88120C4
:10136000FFF73AF82520FFF737F870BD900100200D
:1013700034010020320300204C0300200803002029
:10138000614A624B10B51A60614A624B1A60624B47
:101390001860624B36201960FFF722F90020FFF732
:1013A00001F93A20FFF71CF90520FFF7FBF8B220FE
:1013B000FFF716F90C20FFF7F5F80C20FFF7F2F80D
:1013C0000020FFF7EFF83320FFF7ECF83320FFF7AA
:1013D000E9F8B720FFF704F93520FFF7E3F8BB2061
:1013E000FFF7FEF81920FFF7DDF8C020FFF7F8F847
:1013F0002C20FFF7D7F8C220FFF7F2F80120FFF703
:10140000D1F8C320FFF7ECF81220FFF7CBF8C42087
:10141000FFF7E6F82020FFF7C5F8C620FFF7E0F851
:101420000F20FFF7BFF8D020FFF7DAF8A420FFF76E
:10143000B9F8A120FFF7B6F8E020FFF7D1F8D020E7
:10144000FFF7B0F80420FFF7ADF80D20FFF7AAF87A
:101450001120FFF7A7F81320FFF7A4F82B20FFF7C0
:10146000A1F83F20FFF79EF85420FFF79BF84C208F
:10147000FFF798F81820FFF795F80D20FFF792F87E
:101480000B20FFF78FF81F20FFF78CF82320FFF7C2
:1014900089F8E120FFF7A4F8D020FFF783F80420B3
:1014A000FFF780F80C20FFF77DF81120FFF77AF89E
:1014B0001320FFF777F82C20FFF774F83F20FFF791
:1014C00071F84420FFF76EF85120FFF76BF82F20DA
:1014D000FFF768F81F20FFF765F81F20FFF762F895
:1014E0002020FFF75FF82320FFF75CF82120FFF7AB
:1014F00077F81120FFF774F80A20FFF785FE2920FE
:10150000FFF76EF810BDC0467D0600004C0A0020B3
:10151000C5060000940100202002002010020020D7
:1015200010B5FFF7F3F80A20FFF76EFE3020FFF743
:1015300077F90A20FFF768FE3020FFF771F90A20DB
:10154000FFF762FE0C20FFF76BF90A20FFF75CFE45
:101550000120FFF765F90A20FFF756FE0620FFF786
:101560005FF96420FFF750FE3420FFF759F90A2095
:10157000FFF74AFE3620FFF753F90A20FFF744FE33
:1015800010BD00000A4B10B51870C0234900DB00E5
:101590001943084B084A198000231370074A052095
:1015A00013600122064B1A70FFF72EFE10BDC046D5
:1015B0005C01002012010020CB020020CC020020A0
:1015C0001B02002070B50500002103F0DBF812209B
:1015D000FFF71AFE0121280003F0D4F80320FFF7DB
:1015E0003BFD0221280003F0AFF8280003F0E0F8EB
:1015F000C0B20128F9D0280003F0DAF8C0B2002800
:10160000F9D0280003F0D4F8C0B20128F9D028009E
:10161000FFF7A5FD04022800FFF7A1FD041928002B
:10162000FFF79DFD240204192800FFF798FD24020E
:1016300004192800FFF793FD2800012103F084F826
:10164000200070BD064B07491A7888541A78013279
:10165000D2B21A701A78142A01D100221A70704777
:10166000E802002094030020034A1368190602D5FB
:1016700002490B43136070479C01002000FFFFFFED
:10168000034A1368190402D502490B4313607047DB
:101690009C0100200000FFFFF0B5134B134A19789E
:1016A000127891421FD0124D124C2A882168124E96
:1016B000501E0F0A80B2B1543754901E80B2090CEC
:1016C00031540021033A2A800C4A0D4811701A78CF
:1016D000825C920022601A780132D2B21A701A78B3
:1016E000142A00D11970F0BD1E0A0020E802002063
:1016F000C8020020EC020020B0030020410A0020B4
:10170000940300200023C82218000349D200585433
:1017100001339342FBD17047B003002010B5002481
:10172000214B224A1C60224B1C80224B1C80224BE6
:101730001C80224B1C80224B1C80224B1C80224B85
:101740001C60224B1C60224B1A80224B1C70224BC7
:101750001C70224B1C80224B1C80224B1C60224B95
:101760001C60224B1C70224B1C70224B1C80224B95
:101770001C80224B1C60224B1C60224B1C60224BA5
:101780001C60224B1C60224B1C60224B1C70224BA5
:101790001C60224B1C70FFF7B5FF214B1C70214BC6
:1017A0001C70214B1C7010BDEC0200203F06000095
:1017B000580100203C0A0020B40200202A03002027
:1017C000E60000202E030020680200206C020020AA
:1017D000C8020020300300200F0100204203002037
:1017E00064020020300100201C030020F1020020D0
:1017F000780200205A020020360100201803002041
:10180000D00100209C0100201401002024030020AE
:1018100090030020410A00203C030020C202002067
:1018200063010020E80200201E0A00200300044A91
:10183000126811184878D35C0002C01880B2704753
:101840003803002010B5074B19680A18D37894782C
:101850001B02E31852781B02D318085C1B02C01845
:1018600010BDC04638030020024B19541818091245
:1018700041707047B0030020044B0A0A195418182D
:101880000B0C090E42708370C1707047B0030020CA
:101890000300044A11184878D35C0002C01880B2D3
:1018A0007047C046B0030020044A11188B7849786D
:1018B0001B02CB18105C1B02C0187047B00300203D
:1018C00010B506490A18D37894781B02E3185278A9
:1018D0001B02D318085C1B02C01810BDB003002007
:1018E000024B19541818090A41707047B0030020C0
:1018F000044B0A0A195418180B0C090E4270837015
:10190000C1707047B0030020034B185CC30901D0BD
:10191000024B18437047C046B003002000FFFFFF92
:10192000054A13185B78105C1B02C018030401D52C
:10193000024B18437047C046B00300200000FFFF71
:1019400010B506490A18D37894781B02E318527828
:101950001B02D318085C1B02C01810BDB003002086
:1019600003001B0ADBB210B5C0B2002B05D0012B5F
:1019700006D1C9B2FEF795FC02E0C9B2FEF788FCB9
:1019800010BD000010B5FF24030A2340022B04D031
:10199000042B09D0012B0AD106E0204002F008FFF9
:1019A000034B04401C6002E00022014B1A6010BD92
:1019B0009C01002070B5032803D803F031F9061705
:1019C0001B1B00220C4B1A7014E00C4B1C882000CF
:1019D000FFF7B6FF0A4B05001860201D80B2FFF725
:1019E000AFFF084B01001860280001E001210D2025
:1019F00002F0C8FE70BDC046EC0100205801002076
:101A0000200A00200C0300200300013870B50D28C7
:101A10006CD803F005F9076B191F326B6B6B6B3BCE
:101A2000476B506F344B1C882000FFF789FF334B06
:101A300004341860324BA4B21B5D324A1360112883
:101A400058D1314A137055E02B4B1888FFF738FFF7
:101A50002A4B49E0284B1C882000FFF731FF2B4B15
:101A600005001860201D80B2FFF72AFF254B0100FA
:101A700018602800FFF774FF3CE01F4B1888FFF741
:101A80001FFF224B1860FFF77DFF33E01A4B1C4A03
:101A90001B88D25C1D4B1A6000239A422AD901335D
:101AA000DBB2FAE7144B164A1B88D05C174B186060
:101AB000FFF7D2FA1EE0104B1C882000FFF700FF52
:101AC000124B1860201D80B2FFF7FAFE0D4B186014
:101AD0002000083080B2FFF7DBFE0D4B0A3418609F
:101AE000A0B2FFF7EDFE0B4B186003E0373BD8B216
:101AF000FFF760FF70BDC04658010020200A00209B
:101B0000B003002098020020C202002094020020AE
:101B10009C020020A0020020F8B5032800D980E034
:101B2000404B03F07DF8022630523F4A1B883F4964
:101B3000D45C3F4E0C60591C89B2505C3D49086032
:101B4000991C89B2555C3C490D60D91C043389B29B
:101B50009BB2515CD35C394A31601360384A1470CF
:101B6000384A1070384A1570384A1170384A137064
:101B700057E01888FFF7C8FE364B1860364B1870D0
:101B8000FFF752FB4DE01888FFF79AFEB025274B70
:101B900084B218602800FEF71FFC2F4B260018782F
:101BA000FEF71AFC1020FEF717FC8036B6B2B442DE
:101BB00006D01D4B185D0134FEF736FCA4B2F6E7E3
:101BC0000135EDB2B82DE5D12BE01C882000FFF7E0
:101BD000A7FE204B05001860A01C80B2FFF7A0FEF6
:101BE0001D4B1E4E1B7804345BB218183060280061
:101BF0000D4BA4B21B5D0F240C4F5038C0B23B609C
:101C0000FEF7EAFB30682040FEF7E6FB3068001183
:101C1000044010202043FEF7DFFB3868C0B2FEF717
:101C200003FCF8BD58010020B003002094020020FE
:101C3000A0020020980200209C020020A4020020A4
:101C4000080300209001002034010020320300200E
:101C50004C030020200A0020400100200C0300203B
:101C600070B501281CD000280AD002283DD11F4B96
:101C7000B0251888FFF724FE1D4B84B218601EE0C3
:101C80001A4B1C491B881A48CA5C01339BB2CB5CB7
:101C9000194902600B6019490A70194A137024E04F
:101CA000124B1888FFF730FE164B1860164B187051
:101CB000FEF7F2FB19E00135EDB2B82D15D0280082
:101CC000FEF7DAFB104B26001878FEF7D5FB102044
:101CD000FEF7D2FB8036B6B2B442ECD0054B185DAD
:101CE0000134FEF731FCA4B2F6E770BD58010020C4
:101CF00094020020B003002098020020400300203E
:101D00001F0A0020200A0020BE020020F7B501288B
:101D100023D000280AD002285AD12E4BF02418884C
:101D2000FFF7CEFD2C4EA400306043E0294B2B4A38
:101D30001B882949D05C2A4C0860591C023389B29F
:101D40009BB2515CD35C274A21601360264A107015
:101D5000264A1170264A13703AE01E4B1888FFF786
:101D6000D3FD244B1860244B1870FFF7D9FB2FE0EC
:101D70001A4F32687B19985CFEF788FD403D019B45
:101D8000ADB29D42F4D125001C4B2035E3189BB227
:101D9000ADB2019332687B19985CFEF777FD403D48
:101DA000019BADB2AB42F5D1F8230134A4B29B0044
:101DB0009C420DD020004038C0B2FEF731FD80209B
:101DC000FEF72EFD0E4B2500E3189BB20193CFE7E3
:101DD000F7BDC0465801002094020020B003002047
:101DE000980200209C020020B6020020E60100209C
:101DF000C3020020200A00203C01002020FCFFFF3D
:101E000000FCFFFF70B5062800D981E0414B02F0CD
:101E100007FF04213345575F6F003F4A1B883F4946
:101E2000D05C3F4D0860591C89B2545C3D490C6040
:101E3000991C033389B29BB2515CD35C3A4A296046
:101E400013603A4A10703A4A14703A4A11703A4A8A
:101E500013705DE01C882000FFF772FD374B050012
:101E60001860201D80B2FFF76BFD354B0100186034
:101E70002800FFF785FA4BE01C882000FFF760FD83
:101E80002E4B05001860201D80B2FFF759FD2C4B2A
:101E9000010018602800FEF7F1FB39E01C882000E3
:101EA000FFF74EFD254B05001860201D80B2FFF79F
:101EB00047FD234B010018602800FEF703FC27E0D4
:101EC0001888FFF7E5FC154B1860FEF7B3FB1FE021
:101ED0001C882000FFF7DCFC104B023418600E4B0E
:101EE000A4B21B5D0F4A1360164A1370164B0EE026
:101EF0001C882000FFF7CCFC084B02341860064B0E
:101F0000A4B21B5D074A1360104A1370104B18806F
:101F100070BDC04658010020B0030020940200208C
:101F20009C02002098020020A00200202D01002029
:101F3000DD020020E8000020A9030020200A002084
:101F40000C030020F00200200A030020DC02002025
:101F5000F202002010B5041E012C12D0002805D07A
:101F6000022818D100220C4B1A7014E00B4B0C4ABB
:101F70001B88D35C0B4A1360074A10700A4A13701F
:101F800009E0064B1888FFF7DBFC084B1860084B8C
:101F90001860014B1C7010BDCA02002058010020BF
:101FA000B00300209402002038010020200A002005
:101FB00060020020F7B500282DD001284AD1264B19
:101FC000264A1B882649D65C264F0E60591C89B2CA
:101FD000555C25490D60991C89B2545C23490C60FD
:101FE000D91C89B2505C22490860191D053389B299
:101FF0009BB2515CD35C1F4A396013601E4A167055
:102000001E4A15701E4A14701E4A10701E4A117026
:102010001E4A13701EE0104B1C882000FFF790FC36
:102020001B4B0E4D1860231D9BB2E95C0C4B0F4EF1
:102030001960631D9BB2EA5C0B4B1A60A31D073449
:102040009BB2A4B2EB5C2C5D094D33602C60009414
:10205000FEF752FCF7BDC04658010020B003002037
:1020600094020020A4020020980200209C0200207C
:10207000A0020020A80200203E0100203F01002015
:102080002402002025020020BF020020C002002000
:10209000200A002010B5002811D001281FD1104BB4
:1020A0001888104B1C5C104B013080B21C60FFF78D
:1020B00047FC0E4BA40018600D4BE0500FE0084B9E
:1020C00008491B880848CA5C0133026001209BB2A2
:1020D000CB5C08490B600849087008498B5410BD57
:1020E00058010020B003002094020020200A0020A4
:1020F000F0010020980200203D010020DE010020B8
:1021000070B5002813D10A4B0A4E1C880A4B355D66
:10211000601C80B21D60FFF713FC0534074BA4B2AE
:102120001860315D064B28001960FFF72BFA70BD6F
:1021300058010020B003002094020020200A002053
:102140009802002010B5002817D10C4B0C4A1B88B0
:102150000C49D05C0860591C89B2505C0A4908607F
:10216000991C89B20333505C9BB20849D25C084B7E
:1021700008600A201A60FEF76FFF10BD58010020AA
:10218000B003002094020020980200209C0200204E
:10219000A002002070B5002817D10C4B1C880C4BF6
:1021A000601C1D5D0B4B80B21D60FFF771FB0A4B7D
:1021B000033418600600A0B2FFF782FB074B020051
:1021C000186031002800FEF754FF70BD5801002050
:1021D000B003002094020020980200209C020020FE
:1021E00010B5012818D000280DD0022821D1114B9C
:1021F0001888FFF789FB104B1860C0B2FEF781FF0B
:102200000E4B186015E00B4B0D4A1B88D05C0A4B37
:102210001860FEF73AFF0CE0064B094A1B88064996
:10222000D05C01339BB20860D15C064B1960FEF7AD
:102230004DFF10BD58010020940200209C01002099
:10224000B00300209802002010B5002809D1054BEA
:10225000054A1B88D05C054B1860FFF7B3F9044BA7
:10226000186010BD58010020B00300209402002027
:102270009C010020002806D001280FD1084B1A78B5
:10228000084B1A600AE00121074B084A1B88D35CFF
:10229000074A1360074A1170074A13707047C04617
:1022A000DB0200209C01002058010020B003002028
:1022B00094020020280300205A01002010B50028B5
:1022C0000ED1084B084A1B880849D05C01339BB2E9
:1022D0000860D15C064B1960FEF764FF054B18607F
:1022E00010BDC04658010020B00300209402002019
:1022F000980200209C01002010B500280ED0012873
:102300001BD10E4B1888FFF7FFFA0D4B18600D4BD1
:1023100040B28000C2580C4B1A600EE0074B0B4ACB
:102320001B880B49D05C01339BB20860D15C094B20
:102330001960FEF74BFB044B186010BD58010020DC
:10234000200A0020280200209C010020B003002069
:102350009402002098020020F0B585B0082800D92A
:10236000A3E0534B02F05CFC05324D545C6375876F
:102370009A001C882000FFF7D3FA4E4B0500186026
:10238000A01C80B2FFF79CFA4B4B03901860A01D75
:1023900080B2FFF7D5FA494B0600186020000A30DA
:1023A00080B2FFF7CDFA464B0E3407001860A0B29A
:1023B000FFF7B6FA434B2DB2186000B200903B0015
:1023C000320003992800FEF723FB6EE01C882000F2
:1023D000FFF7A6FA3C4B06001860601C80B2FFF7BE
:1023E0006FFA354B023418600500A0B2FFF7A8FA67
:1023F000364B1860364B1E70364B1D70364B1870BE
:1024000053E01888FFF79CFA2A4B1860334B05E01D
:102410001888FFF795FA274B1860314B186044E095
:102420001888FFF78DFA234B18602E4BF6E71C88AF
:102430002000FFF785FA1F4B05001860201D80B2B1
:10244000FFF77EFA284B010018602800FEF788FB92
:102450002BE01C882000FFF773FA164B050018606C
:10246000201D80B2FFF76CFA1F4B01001860280096
:10247000FEF786FB19E01C882000FFF761FA0D4B80
:1024800005001860201D80B2FFF75AFA164B0100B4
:1024900018602800FEF784FB144BBFE71B88144A22
:1024A000D05C094B1860FEF7AFFB05B0F0BDC0462D
:1024B00058010020200A002098020020280A00204D
:1024C00010030020300A0020940200209C0200200B
:1024D000480A002091010020C40200208001002051
:1024E00048030020240A00200C0300209C01002047
:1024F000B0030020F8B5012821D1114B1C88114BE5
:10250000601C1D5D104B80B21D60FFF7D9F90F4BA9
:1025100006001860601D80B2FFF712FA0C4B0934F8
:1025200018600700A0B2FFF70BFA0A4A0300106018
:1025300031003A002800FEF77FFB074B1860F8BD1A
:1025400058010020B00300209402002098020020CF
:10255000200A00200C0300209C010020F0B585B06B
:1025600001282BD1164B1C882000FFF7CDF9154B05
:1025700005001860601C80B2FFF7A2F9124B0390AF
:102580001860601D80B2FFF783F9104B07001860D8
:10259000E01D80B2FFF7C4F90D4B09341860060046
:1025A000A0B2FFF7BDF90B4B6DB2186000B20090FE
:1025B00033B23A0003992800FEF7EAFB05B0F0BDFC
:1025C00058010020200A00209402002098020020D8
:1025D0000C030020280A0020F8B5012834D0002878
:1025E0000FD002283DD11F4B1C882000FFF78CF92B
:1025F0001D4B013418601D4BA4B21A5D1C4B1A60B0
:102600002FE0184B1C882000FFF77EF9164B0500C1
:102610001860601C80B2FFF753F9154B0700186073
:10262000601D80B2FFF77CF9124B0734060018607A
:10263000A0B2FFF785F9104A03001060390032B2EA
:1026400068B2FDF711FE0CE0064B1C882000FFF776
:102650005BF9054B01341860A0B2FFF771F9074B25
:102660001860F8BD58010020200A0020B0030020A7
:1026700098020020280A0020100300200C030020EC
:10268000F0B58DB001281FD000280AD002286ED1E5
:10269000384B394A1B88D35C384A1360384A137068
:1026A00065E0344B344A1B883448D15C01339BB21B
:1026B000D25C344B01601A60334B34481B785BB2F8
:1026C000C1543349CA5452E02A4B1C882000FFF7FA
:1026D0001BF92A4B05001860201D80B2FFF7F0F8A7
:1026E000284B079018602000083080B2FFF7E8F808
:1026F000284B0890186020000C3080B2FFF7E0F8FB
:10270000254B099018602000103080B2FFF7D8F8F0
:10271000224B0A9018602000143080B2FFF7D0F8E6
:102720001F4B0B9018602000183080B2FFF7C8F8DC
:102730001C4B0600186020001C3080B2FFF7C0F868
:10274000194B070018602000203080B2FFF7B8F85E
:10275000164B089A18600B9B049001930A9B0799EB
:1027600000932800099B03970296FEF789FB0DB0A2
:10277000F0BDC04658010020B003002094020020A4
:10278000E40000209802002091020020E7010020D0
:10279000160200209C020020A0020020A4020020BB
:1027A000A8020020AC020020B0020020A4010020FA
:1027B00010B500280CD0012820D1114B114A1B88DC
:1027C000D05C114B1860FEF70FFC104B186015E041
:1027D0000B4B0C4A1B880C49D05C0D4C0860591CF3
:1027E000023389B29BB2515CD35C0A4A2160136008
:1027F000094A1070094A1170094A137010BDC04689
:1028000058010020B0030020940200209C01002009
:10281000980200209C0200202C0300202C010020A4
:102820006201002010B5002814D0012818D10D4BEA
:102830001C880D4B601C1A5D0C4B80B21A60FFF7B0
:102840007FF80B4B05341860A0B2FFF779F8094BFD
:10285000186005E0034B044A1B88D25C034B1A60E6
:1028600010BDC04658010020B00300209402002093
:102870000C030020280A002010B500280FD00128E2
:1028800018D10D4B1C882000FFF75AF80B4B18602D
:10289000201D80B2FFF754F8094B18600AE0064B80
:1028A000084A1B88D35C084A1360084A1370012247
:1028B000074B1A7010BDC04658010020200A0020A6
:1028C0000C030020B003002094020020350A0020F1
:1028D0005C02002010B5FEF71DFBFDF787FCFEF73C
:1028E0001DFF0023074A1370074A1370074B1B682C
:1028F0001B68DBB2032B04D1023B0A201370FEF7E6
:1029000037FB10BDDA020020EC0100203803002064
:1029100010B5044B044A08331360FEF71BFBFFF7A6
:10292000D9FF10BD706200003803002010B5FFF71A
:10293000EFFF024801F0D0F910BDC046500300205F
:1029400010B5054C200001F04FF9044A044920005D
:1029500002F064FC10BDC0465003002000000020BF
:10296000113C0000FA23F7B55B0098421FD1002408
:1029700001270F4B0F4A1B880F4ED15C01339BB2CE
:102980000E4DD35C296033600196019B22B21B6817
:102990000B48E3403B4003D00023E95E012301E004
:1029A0000026A95F013401F0DDF8052CEDD1F7BD5B
:1029B00058010020B003002098020020940200205B
:1029C00050030020431E10B5162B6AD8180002F0E1
:1029D00027F90C1014181C2024282C3034383C40C3
:1029E00044484C5054585C6064000800FFF794F869
:1029F00059E00800FFF734F955E00800FFF786F9C1
:102A000051E00800FFF7FEF94DE00800FFF7A2FAD9
:102A100049E00800FFF7CEFA45E00800FFF73AFB6F
:102A200041E00800FFF76CFB3DE00800FFF78AFB80
:102A300039E00800FFF7AEFB35E00800FFF7D0FBF8
:102A400031E00800FFF700FC2DE00800FFF712FC62
:102A500029E00800FFF732FC25E00800FFF74CFCF6
:102A600021E00800FFF778FC1DE00800FFF742FDB9
:102A700019E00800FFF772FD15E00800FFF7ACFD54
:102A800011E00800FFF7FCFD0DE00800FFF790FEE5
:102A900009E00800FFF7C6FE05E00800FFF7ECFEBE
:102AA00001E0FFF75FFF10BD10B5030A03D1C0B20C
:102AB000FEF7AAFF03E0C1B21800FFF783FF10BDC5
:102AC0000423F7B5854C864D2360864B29681A6828
:102AD0005358505C1B0AEB2801D900F0CAFF02F0E2
:102AE000A9F8CB07EC00F80007011C013A013701F7
:102AF0000C011601C807CB07CB07CB0750016001BB
:102B00007E01060211021A024004480455045E04C4
:102B10006D04C807A104D50425057A05BC05D305B5
:102B2000EB0502061A062306620677067F06C8072B
:102B300087068E069906A406BB06C706C807D306F5
:102B4000AF0651065A06BE07DF06E606ED06F40696
:102B5000FA06000706071A072E073E076007500708
:102B600070027402C807CB077007790782078B07CA
:102B7000C8079607A007A907C807B407C807C8076A
:102B8000C807C80720023102C807430255025D0288
:102B9000C8076702A603AC03B203B803C807BF03A4
:102BA000C603CD03C807D403DB03E103E703EC034B
:102BB000C807F203F803FE03C80704047003760392
:102BC0007C038203C8078A0391039703C8079F0306
:102BD000C602CF02D802F102C807FB0205030F03A9
:102BE000C807190323032C0335033E03C807480312
:102BF00052035C03C8076603780281028A029302CB
:102C0000C8079E02A802B102C807BC02E601F00193
:102C1000FE01FA016304C807680475047D04C8074F
:102C200085048C049304C8079A04B104C807B90446
:102C3000C004C704C807CE04E504C807F204FD04B5
:102C40000405C8070B053605C80744055005580597
:102C5000C80760058A05C8079805A405AC05C8071C
:102C6000B405220426042A042E0434043A0414046D
:102C70001704C807CB07CB07CB07CB078701900109
:102C80009801A101AA01C905E105F80510061A0677
:102C900023061A041E04C807CB076E0173010A0439
:102CA000120568057801B201BB01C401CC01D50150
:102CB000DE01C8070F042C0645060B4B5218188876
:102CC0000A4B18805068FFF7EFFE0823236000F0DE
:102CD000D3FE064A138000F0CFFEC0463C0300201E
:102CE000EC02002038030020B4020020580100202C
:102CF0002B600023236000F0BFFEEA4A1088C01852
:102D0000E94B80B21880E94B188000F0B5FEE54A27
:102D10001088C01A108000F0AFFEE34A2B601088C4
:102D2000E04A002310800A1DE149160A0888E1499B
:102D300023608C4667460A54411E89B27E54861E23
:102D4000110CB6B2B955DA49C21E0A8000F094FEE1
:102D50000122D94B1A70D648D6490288531C961CBA
:102D60009BB2CB5CB6B28E5D033292B21B02F318FB
:102D700002808A5C1B02D3182B600023236000F0C2
:102D80007BFECB48CB4A0388591C89B202339BB2E5
:102D9000515CD25C090203808B18C24A138000F098
:102DA0006BFEC348BF4A03881288C24E591EF254B4
:102DB00089B2120A023B7254038000F05DFE0022C9
:102DC000BD4B1A7000F058FE0122BB4B1A7000F088
:102DD00053FEBA4B1A68BA4B1A6000F04DFE5218F7
:102DE0005368B64ADBB213600823236000F044FE48
:102DF00052185368B14A9BB213600823236000F055
:102E00003BFE52185268AD4B1A600823236000F055
:102E100033FE52181279A94B52B21A60082323606C
:102E200000F02AFE52180423D25EA44B1A60082335
:102E3000236000F021FE52185268A04B1A6008234C
:102E4000236000F019FE521853689D4ADBB21360EC
:102E50000823236000F010FE52185368984A9BB272
:102E600013600823236000F007FE52185268944B49
:102E70001A600823236000F0FFFD52181279904B6E
:102E800052B21A600823236000F0F6FD52180423A2
:102E9000D25E8B4B1A600823236000F0EDFD5218C0
:102EA0005268874B1A600823236000F0E5FD7D4AD5
:102EB0001088C01880B2FEF7EBFC7D4B188000F044
:102EC000DBFD7B4A1188774A1088C01880B2FEF774
:102ED000CBFC00F0D1FD794A136000F0CDFD98B233
:102EE000FEF7E2FC00232860236000F0C5FD6D4B77
:102EF000521852681B88D318704A13600823236045
:102F000000F0BAFD6E496D4A086858431368C0184E
:102F1000106000F0B1FD694A1168C818106000F037
:102F2000ABFDFF20664B00041B686449034204D1DB
:102F3000604AD35C0B6000F09FFD9BB2D35C0B60DA
:102F400000F09AFDFF225E4B12041B685B4E98B2A4
:102F5000134204D1FEF79CFC306000F08DFDFEF7BB
:102F600065FC306000F088FDFF22554B12041B68A1
:102F7000524E98B2134204D1FEF7A2FC306000F02A
:102F80007BFDFEF75FFC306000F076FD4B4A4C4B5A
:102F900011681B68474AD15400F06EFD474B196811
:102FA000474B89B2186880B2FEF75EFC00F064FD02
:102FB000434B1868414B80B21968FEF75DFC00F086
:102FC0005BFDFEF751FB00F057FDFEF759FB00F0EB
:102FD00053FD3848334AC018384B12881B68835455
:102FE00000F04AFD33482F4AC018344B12881B6842
:102FF000835400F041FD2F482A4AC0182F4B1288F5
:103000001B68835400F038FD2C4A1168254A89B2A8
:103010001088C01880B2FEF727FC00F02DFD214A71
:103020001088C018254B80B21968FEF725FC00F007
:1030300023FD20481B4AC018204B12881B6883546C
:1030400000F01AFD1D4A0021515E164A1088C01872
:1030500080B2FEF745FC00F00FFD124A1088C01840
:10306000164B80B21968FEF743FC00F005FD0D4ACF
:1030700010481288C018825C104B1A6000F0FCFCEB
:10308000084A0C481288C018825C0C4B1A6000F089
:10309000F3FC044A07481288C018825C074B1A6088
:1030A00000F0EAFC58010020B40200203C0A002095
:1030B000C8020020B0030020410A00209C0100202B
:1030C00014010020DB4A1088C01880B2FEF7E0FB34
:1030D000D94B186000F0D0FCD64A1088C01880B2D6
:1030E000FEF7EEFBD44B186000F0C6FCD14A108806
:1030F000C01880B2FEF708FCCF4B186000F0BCFC93
:10310000CC4A1088C01880B2FEF70AFCCA4B18607F
:1031100000F0B2FCC74A1088C01880B2FEF710FC5D
:10312000C54B186000F0A8FCC24AC4481288C018F9
:10313000825CC34B1A6000F09FFCBE4ABF481288F5
:10314000C018825CBE4B1A6000F096FCB94ABB48BE
:103150001288C018825CBA4B1A6000F08DFCB54A28
:103160001088C01880B2FEF793FBB54B186000F0D2
:1031700083FCB04A1088C01880B2FEF7A1FBB04BA8
:10318000186000F079FCAB4A1088C01880B2FEF7D6
:10319000BBFBAB4B186000F06FFCA64A1088C01850
:1031A00080B2FEF7BDFBA64B186000F065FCA14A9B
:1031B0001088C01880B2FEF7C3FBA14B186000F066
:1031C0005BFC9D4A11689D4AD15400F055FC9A4A17
:1031D00011689A4AD15400F04FFC974A1168974AF7
:1031E000D15400F049FC944A98B2116889B2FEF7B4
:1031F0003BFB00F041FC98B28F4B1968FEF73CFB9B
:1032000000F03AFC8C4A11688C4AD15400F034FC2E
:10321000894A98B20021515EFEF762FB00F02CFC57
:1032200098B2854B1968FEF763FB00F025FC834AD2
:10323000D25C814B1A6000F01FFC804AD25C7E4B4E
:103240001A6000F019FC7D4AD25C7B4B1A6000F0DA
:1032500013FC98B2FEF71CFB774B186000F00CFCD7
:1032600098B2FEF72DFB744B186000F005FC98B285
:10327000FEF74AFB704B186000F0FEFB98B2FEF7B9
:103280004FFB6D4B186000F0F7FB98B2FEF758FB50
:10329000694B186000F0F0FB684AD25C684B1A601A
:1032A00000F0EAFB654AD25C654B1A6000F0E4FB73
:1032B000624AD25C624B1A60DEE398B2FEF7E8FA2B
:1032C0005F4B1860D8E398B2FEF7FAFA5C4B1860CF
:1032D000D2E398B2FEF718FB594B1860CCE398B2D2
:1032E000FEF71EFB564B1860C6E398B2FEF728FBAC
:1032F000534B1860C0E3504A13689B021360BBE352
:103300004D4A13689B121360B6E3FEF7ADF9B3E3C1
:10331000FEF7B6F9B0E3484A13781360ACE3464AC7
:1033200013881360A8E3444A13781360A4E3424A65
:1033300013781360A0E3404A138813609CE33E4A6D
:1033400013781360FEF790F996E33B4A1378136005
:10335000FEF78AF990E3384A13881360FEF790F974
:103360008AE3354B1B68002B07D10122324B1A60D0
:1033700082E3314B1B68002B03D100222E4B1A60D5
:103380007AE32F4B1B68002BEFD1F6E72A4B1B6823
:10339000002BEAD12A4B1B68002BE6D16CE3264AAE
:1033A00013685B42136067E3234A13685B42136050
:1033B00062E3214A13685B4213605DE31E4A1368AF
:1033C000002B00DB58E35B42136055E31A4A1C4BA9
:1033D00011681B68CB18DBB213604DE3164A184B1B
:1033E00011681B68CB189BB2136045E3124A144B5B
:1033F00011681B68CB1813603EE30F4A104B11682D
:103400001B68CB18136037E30B4A0D4B11681B6820
:10341000CB18136030E3084A094B11681B68CB18BE
:10342000136029E3044A064B11681B68CB1ADBB210
:10343000136021E3580100209C010020B00300200C
:1034400014010020DC4ADD4B11681B68CB1A9BB2CB
:10345000136011E3D84AD94B11681B68CB1A13606B
:103460000AE3D54AD54B11681B68CB1A136003E3F6
:10347000D14AD24B11681B68CB1A1360FCE2CE4ACA
:10348000CE4B11681B68CB1A1360F5E2FF21CA48C6
:10349000CA4A036812680B400A405343C84E326060
:1034A000C84A13605BB20B400360E5E2C34BC248FD
:1034B0001A68018893B2C24A13604B43C14A136031
:1034C0009BB20360D8E2BD4BBB4A1B68BC490B6092
:1034D00011684B43BB4913600B60CDE2B64AB74B52
:1034E00011681B684B431360C6E2B34AB34B1168C3
:1034F0001B684B431360BFE2AF4AB04B11681B68B7
:103500004B431360B8E2AC4EAF483368D917AB4BAE
:103510001A68D3170CC0306801F030FD8B05800AA3
:103520001843AA4B891203C33060A5E2FF27A34BBF
:10353000A14E19683068A24B39401960384001F03B
:1035400083FBA04B186040B23840306094E29B4B44
:10355000994E19689A4B89B23088196001F074FB52
:10356000984B186080B2306086E2944B924E196896
:10357000934B3068196001F067FB924B3060186024
:103580007AE28D4E8D4B3068196801F0E7FB3060B0
:1035900072E2894E894B3068196801F0DFFB3060B8
:1035A0006AE2854E854B3068196801F0D7FB3060C0
:1035B00062E2814E814B30681A68834FD317C1177E
:1035C0000CC78902870D3943800201F0B3FC7F4BA1
:1035D000306003C350E2FF23774E784A30681168A9
:1035E00018401940764B196001F0B4FB754B196017
:1035F00049B2316040E2714B6F4E1968704B89B22D
:103600003088196001F0A6FB6E4B196009B2316079
:1036100032E26A4B684E1968694B3068196001F0F4
:1036200099FB684B3160196026E2634E634B30684A
:10363000196801F079FC31601EE25F4E5F4B306823
:10364000196801F071FC316016E25B4E5B4B30682B
:10365000196801F069FC31600EE2584B564A1B684C
:1036600057490B6011688B429B4156495B420B6086
:10367000136001E2504B51491868096801228842E1
:1036800000DC00221A60F7E14C4B4B4A19684C4BA6
:1036900010681960002388425B414A49DBB20B6025
:1036A0001360E9E1444A454B10681968C617CB0F0F
:1036B000884273411360DFE1404B3F4A1B68404939
:1036C0000B60116899429B413E495B420B6013605D
:1036D000D2E1394B3949186809680122884200DB78
:1036E00000221A60C8E1354B334A1968344B106820
:1036F0001960002381425B413249DBB20B601360E9
:10370000BAE12D4A2D4B11681868CE0FC3178842B5
:1037100073411360B0E1284A284B11681B68CB1A2B
:10372000584258411060A7E1234A244B11681B6896
:10373000CB1A591E8B4113609EE1511849681F4EE8
:103740000091082121601C493768088801960860AB
:1037500000218B4200D894E11618765CBE4202D15B
:10376000019B196088E1013189B2F2E7134B1248DD
:103770001B6801889B00CB180360D3582B60002383
:10378000236079E10C4A1268012A00D074E12B60B1
:103790000023236070E1084A1268002A00D06BE120
:1037A0002B60226068E10123034A11684B40054900
:1037B00013600B6060E1C0469C01002014010020F2
:1037C000900300202403002088010020E002002054
:1037D000FF23AE4A11684B40AD4913600B604BE1CB
:1037E000AA4AAC4B11684B40A94913600B6043E1F6
:1037F000A64AA7491368DB430B6013603CE1A64B64
:10380000A24A1B68A5490B6011680B40A0491360D0
:103810000B6031E1A04B9D4A1B68A0490B60116809
:103820000B439B4913600B6026E19B4B974A1B6837
:103830009A490B6011684B40954913600B601BE17E
:10384000954B924A1B6895490B601168D9400B0053
:103850008F4913600B600FE18F4B8C4A1B688F49B7
:103860000B6011689940CBB2894913600B6003E18A
:10387000894B864A1B6889490B60116899408BB255
:10388000834913600B60F7E0834B804A1B688349D0
:103890000B60116899400B007D4913600B60EBE0F1
:1038A0007A490A681A41012313400B60E4E0774922
:1038B0000A681A41012313400B60DDE073490A686E
:1038C0001A41012313400B60D6E0704A1168194178
:1038D000CBB21360D0E06D4A11681941CBB21360CE
:1038E000CAE06A4A116819418BB21360C4E0012230
:1038F0009A40FF2113006848644A07680B40166825
:103900006348002F02D14B40334000E03343036053
:1039100003681360B0E0802252029A40130C5E4AA2
:103920005A4912680E685A48002A03D1594A53402E
:10393000334000E03343036003680B609CE00121E7
:103940005548524A0668994051481368002E01D1E3
:103950008B4300E00B430360036813608CE04E4A26
:103960004E4912684B480A60FF2199404140474840
:103970009A40066831400B001343454A03601360C8
:103980007AE0454A4549126840480A60414906685C
:1039900099408E439A40330013433D4A03601360BD
:1039A0006AE03D4A3D49126838480A60FF21994063
:1039B00006689A408E4333001343354A0360136010
:1039C0005AE0374A3149138808683649C8540133E8
:1039D000138051E0324A2D49138808683149C85490
:1039E0000133138048E02E4A2849138808682D497E
:1039F000C854013313803FE0244B294E19683088A6
:103A000089B2FDF731FF33880233338034E0244E2E
:103A10001E4B30881968FDF72FFF3388043333803D
:103A20002AE01F4A1949138808681E49C8540133FF
:103A3000138021E01A4E154B30880021595EFDF7A6
:103A40004FFF33880233338016E0154E0F4B30881A
:103A50001968FDF74DFF3388043333800CE00B49C0
:103A60000A68002A02D12B60226005E0013A0A6050
:103A700002E000220C4B1A702A682368D3182B60CE
:103A8000F7BD009B2B6000232360F5E79C0100201D
:103A900024030020FFFF00001401002090030020F9
:103AA0003C0A0020B0030020EC01002010B5104BB0
:103AB0001B78002B13D00F4B1B78002B0FD00E4A16
:103AC000002113680133632B01D8136000E01160FB
:103AD0000A4B11201970FDF7B5FDFDF7DDFDFEF76E
:103AE000EFFF074B1A79002AF9D000221A7110BD96
:103AF000C2020020410A0020EC00002063010020E7
:103B0000B003002010B50C4B1B78002B12D00B4BD0
:103B10001B78002B0CD0FDF739FA00280AD00020C2
:103B2000FDF70EFF002800D1643080B2FDF720FAC7
:103B3000FFF7BCFF10BDC046EC010020C202002010
:103B400010B5FFF7DFFF10BD020010B51B320023D8
:103B50001C00013324340155092BF9D1093082426C
:103B6000F5D110BD30B5002939DB002A37DB0C2533
:103B7000445F8C4233DD0E25445F94422FDD847E0A
:103B8000022C09D0032C10D0012C13D10489013C44
:103B9000A41A0A0021B20DE00489013C611A44898B
:103BA00009B2013CA21A12B204E04489013C641A31
:103BB000110022B2052462435118094AC9B2525C6D
:103BC000013AD4B2074A525C013AD1B209224A43BF
:103BD000821812190532002B00D00123D37730BD93
:103BE0002900002007000020052210B50400110064
:103BF00000F060FA2000054B1B22083323600021EF
:103C0000243001F08DFB200010BDC0469CB00000A8
:103C100070470000F7B50025194C1A4F23780600AD
:103C20000021F85C00F0AEFD0097174F0121E85D20
:103C3000013500F0A7FD0197092DF6D12378013356
:103C4000DBB22370022B01D9002323700025092742
:103C500023787B43F3185B190533DB7F002B04D0FB
:103C6000019B0021585D00F08DFD0135092DEFD13C
:103C70002378009A0121D05C00F084FDF7BDC04696
:103C8000540A0020040000202000002000220E4BD7
:103C90000E49A22010B55A5004240121C000D96059
:103CA0001C50FA2408381A50A40038301C50084818
:103CB0001A508020C1224002920098508020054A6C
:103CC000C0001060196010BD00A000400405000095
:103CD0004405000000E100E070B505000024194B28
:103CE0001860194E0121A05D00F02EFDA05D01219C
:103CF000013400F047FD092CF3D10024134E0121BB
:103D0000A05D00F021FDA05D0021013400F03AFD2E
:103D1000032CF3D128002B0000241B3000221100BB
:103D20002431591801320C70092AF8D1093398420C
:103D3000F4D10022064B28001A70FFF7A7FF0120DC
:103D400070BDC046500A0020200000200400002062
:103D5000540A00200C4B10B55A6C0C4C002A11D0A0
:103D6000C1229200A258D2030CD500225A64084BFB
:103D70001868FFF74FFFA822FA21D200A358890044
:103D80005B18A35010BDC046FCA0004000A000403E
:103D9000500A002010B5FFF7DDFF10BDF0B515008B
:103DA0000C001E0089B00EAB00229B5E0FAA128889
:103DB000019006925A1BD11752184A400292321BA8
:103DC000D11752184A4003920399029A8A4205DD9C
:103DD00032001E00130022002C001500B44205DD45
:103DE0002A001D001300220034001600321B92B27C
:103DF00005925A1BD11752184A4007926A4614215D
:103E0000525ED10F8A18521092B20092012204928F
:103E10009D4201DB154B0493B44224DC019B029AC2
:103E20001B6803991B691F00069B8A4202DD220062
:103E3000290001E02A0021000198B847009A079B59
:103E4000D31A9BB29AB200926A46128812B2002A22
:103E500006DA049AAD18059A2DB2D3189BB20093D6
:103E6000013424B2D8E709B0F0BDC046FFFF00001E
:103E700010B50468A468A04710BD37B506AC258806
:103E800004680095246BA04737BD37B506AC25887C
:103E900004680095646BA04737BD73B506AC002578
:103EA000655F07AC2688046801960095A46BA0475F
:103EB00073BD7047F0B5160004000D0085B0039384
:103EC0000AAB1F880368DB689847039B2268013BA5
:103ED0009B191BB200930197176A2B00320029002F
:103EE0002000B847236820005B6A984705B0F0BD02
:103EF000F0B505001C000E00170085B00AAB1B884A
:103F0000013C03930368A419DB68984703992A6866
:103F10000191009723B23100146A28003A00A047AB
:103F20002B6828005B6A984705B0F0BDF0B50E001D
:103F300087B003930CAB029200229B5E05000493B2
:103F40000DAB1B88340005930368DB689847039B1F
:103F50002A68F3189C420ADA059B210000939769AE
:103F6000049B029A28000134B84724B2EFE7536A51
:103F70002800984707B0F0BD13B501910E24015FEA
:103F80000C22835E02680091946B00221100A0470E
:103F900013BDF0B585B002930AAB00241C5F0BABD8
:103FA0001B8817000393029B05000E1E02689E42A9
:103FB0000BD1A74202DD3B0027001C00039901340E
:103FC000E31B00911BB2146B0DE0A74210D1029BC2
:103FD000994201DD029E0291029B039901330091F7
:103FE0009B1B546B1BB23A0031002800A0470FE026
:103FF000D3689847039A2B68019200941C6A2800A2
:10400000029B3A003100A0472B6828005B6A984762
:1040100005B0F0BDF0B5040016000D0087B00493A4
:104020000CAB00229B5E05930DAB1B8803930368CA
:10403000DB689847039A23680092DF693200049B8B
:1040400029002000B847059B03995A1E2368009158
:104050009219DF692900049B200012B2B847039A25
:10406000236800929F693200059B29002000B84711
:104070000499039A2368013900924D1929B29F6966
:104080003200059B2000B847236820005B6A9847F0
:1040900007B0F0BD70470323194081760389428938
:1040A000012904D0032902D08381C28101E08281E9
:1040B000C381704701818181012100234281C28136
:1040C000012210B5074C49420834436004608376EE
:1040D0000382438242760276C1828182C27603776E
:1040E000036210BDECB00000F0B595B01E001AAB35
:1040F0001B88040004931BAB1D881CAB1F781DABF1
:104100001B7806910293036A0392002B00D0D1E042
:104110000C22835E8B4200DC77E10E22835E039AE1
:10412000934200DC71E106237B435B18002B00DC2B
:104130006BE1029B039ADB009B18002B00DC64E11F
:10414000037F002B03D1AF2E01D90136F6B22368CD
:104150002000DB68984705235E430B9300230E96EF
:104160000A9328226B469B181B78A94A0E995BB2CA
:104170005218D25C9BB20893BBB20F936B461B8B59
:1041800009920593089BBAB25343059AD3189BB280
:104190000D9308230C93002307930122099B1342DC
:1041A00020D06B461C229A56012F0DD1029B012B69
:1041B0000AD1039B0599D218089B12B2591823689B
:1041C00009B21E69049B22E00299049E4A430399A6
:1041D0003BB2521869463420095E206812B2109032
:1041E000019623E0049BAB4228D06B461C229A56D2
:1041F000012F0FD1029B012B0CD1039B0599D218E3
:10420000089B12B25918236809B21E692B002000BE
:10421000B04713E002993BB24A43039952186946EA
:104220003420095E206812B2109001956846082675
:10423000865F1098009646692000B047079B0133BF
:10424000DBB20793099B5B0809930C9B013BDBB234
:104250000C93002BA1D10A9B0133DBB20A930B9B79
:10426000013BDBB20B93002B00D07AE7049BAB42FF
:1042700000D1C6E02268012F0CD1029B012B09D18D
:10428000059F00950537956939B20733039A2000D9
:10429000A847B6E005210F983BB241430598019528
:1042A0004718029839B2C000009055692000039A5F
:1042B000A847A6E01A7AB61AF6B25A68F6001B6842
:1042C0009619139333880893B3780C93F37810936B
:1042D00073790D93B3790E93012F02D8029B012BB2
:1042E0000ED934226B469B181B7804325BB29BB20A
:1042F0000A936B469B181B785BB29BB20B9302E050
:1043000000230B930A93002523682000DB6898475D
:1043100009950795109AEBB2934272D26B469B892E
:10432000029A0F930B9BEB1853430F9AD31800225A
:104330009BB21293099B05920C9A0599914257D210
:104340005A1CD2B211920722134207D1089B089936
:10435000139A0133525C9BB2079208936B461B7F02
:104360005BB2002B3ADA012F1ED1029B012B1BD12D
:104370006B4638229B1800229A560F9B34219A18BC
:10438000FF232B40D2186B465B1800215956069B21
:1043900012B2C918059B2000C918236809B21B690D
:1043A0001E00049BB04719E048216A4652180021BC
:1043B000525E69462820095E05983BB20918794388
:1043C00006980918049809B2019068460826805F8B
:1043D00000902068406906002000B047079B059EBA
:1043E0005B00DBB201360793F3B20593119BA3E7A1
:1043F0000C9A099B94466344DBB201350993ADB234
:1044000088E7236820005B6A984715B0F0BDC04676
:104410003CB10000F0B5026A85B004000B00002A30
:104420002AD10A2903D1437E0282DB002BE00D2929
:104430006BD0C17E457E007E00290DD00621414310
:104440001027E65F89190C27E65FB14204DD618A17
:104450002282EA00521862820290E08A1221625E91
:104460000190A08A1026A15F009003952000FFF71D
:104470003BFE237E062244E00A2908D10023038262
:10448000127B437E5343628A9B1863823DE00D2971
:104490003BD0157AA94238D3917A994235D35D1B26
:1044A0005168EDB2ED004D19A978002927D0E878C0
:1044B000002824D0E77E667E207E002F12D00527BC
:1044C000EF57791841438C461021675EBC440C219C
:1044D000675EBC4506DD00212182127B618A724342
:1044E000521862820290E08A1221625E0190A08AD4
:1044F0001027E15F009003962000FFF7F5FD2B7970
:10450000227E5343228A9B182382012005B0F0BDEE
:10451000F8B505000E0017000024BC4208D02B6837
:10452000315D1B6828009847002801D00134F4E76A
:104530002000F8BD704710B51C3000F087F910BDA1
:1045400010B51C3000F074F910BD70B5437E0D003D
:10455000002B05D06430040000F087F9002801D05A
:10456000002004E02000290000F053F9012070BD74
:1045700010B51C3000F070F910BD0000F7B50193C4
:10458000FA23002504009B0083600B4B4560083331
:1045900003601C300F00160000F030F9200064307A
:1045A00000F02CF96B461B79276166756576A57658
:1045B0002000A375FEBDC0463CB6000010B5132315
:1045C000142202490248FFF7D9FF10BD0040004005
:1045D000580A002070B5002504AC24780573A94260
:1045E00005D10A4B0A4A25210A4800F01FFE016046
:1045F0000949920052589B0002715B588371A300D5
:104600005B58856043710223C37170BD99B6000089
:104610005CB60000A7B6000010B7000007B5802206
:10462000074BD2051A6000229A6002321A710F23DA
:104630000C3200930349023B0348FFF7CBFF07BD51
:10464000100B0020003000401C0B002003210A4802
:1046500002680A430260094802680A430260084986
:10466000084A094B9B1A03DD043BC858D050FBDCB9
:1046700000F012F8FBF77EFD2405004054050040D1
:10468000A8B8000000000020C8000020FEE7FEE7F8
:10469000FEE7FEE7FEE7FEE7014A024B1A607047BD
:1046A0000024F40044000020084A0949094B10B5D1
:1046B0001B688858FA22190A1B0618439200002327
:1046C00000F05CFC4904C00B084310BD0405000069
:1046D00000100140300B0020084B094A09491B68B3
:1046E0008858190A1B0610B51843074A002300F022
:1046F00045FC4904C00B084310BDC046300B0020E8
:10470000040500000010014040420F0070B5041E77
:1047100009D0FFF7C9FF050000F014F8FFF7C4FF48
:10472000401B8442F8D870BD0022044B9A60044AB2
:1047300013680133DBB213607047C046FC100140C0
:10474000300B00207047000000B5202816D80C4A16
:1047500083009B58032911D8A0220800C133FF33DE
:10476000D2059B0000F05CFA02080406002104E078
:104770000C2102E0042100E00321D15000BDC0461D
:1047800010B7000020280DD8074B8000C258012325
:104790009340A022D205002901D1044901E0A121C2
:1047A000C90053507047C04610B700000C05000008
:1047B00003000020202B0AD8A222A021D200C90584
:1047C0008858034A9B009B58D840012318407047E3
:1047D00010B70000F7B506000D000C008B18019310
:1047E000019B671B9C4207D0336821781B6830000F
:1047F000984701340028F3D13800FEBD10B540229F
:104800000021040000F08CFD002320002364636479
:1048100010BD3F23026C10B5541C2340446C9C42D5
:1048200001D08154036410BD0023036443647047C6
:10483000436C026C934206D03F21C25C01330B40B3
:104840004364100001E0012040427047036C406C5B
:10485000181A00D540307047436C026C934201D067
:10486000C05C01E0012040427047036C406C5A1C60
:104870003F231340181A42424241D0B270470120F0
:10488000704710B503681322DB69984710BD704765
:104890000369054A9950FC331A6A002AFCD00022A9
:1048A00001201A627047C0461C050000030010B5C5
:1048B0005C331A781F2313400122110099400D4BDD
:1048C0000424D967C221036989005C505A60DA6008
:1048D000A0220021D20099500122074952425A5089
:1048E000064914305A500C395A5008315A50FFF7C3
:1048F0009BFF10BD04E100E00C0500001405000062
:1049000010B51430FFF7A2FF10BD10B51430FFF73B
:10491000A3FF10BD10B51430FFF78AFF10BD0000D3
:10492000030070B55E331C780269604BD4500300FD
:104930005D331C785E4BD450030061331C785D4BB3
:10494000012C0CD105005F352E78A225ED005651C3
:10495000050060352E78A125ED00565100E00024B9
:10496000D4509623DB00994238D996231B019942F3
:1049700037D996235B01994236D996239B019942F8
:1049800034D9E1239B01994232D99623DB01994224
:1049900031D9E123DB0199422FD996231B02994299
:1049A0002DD9E1231B0299422BD996235B02994210
:1049B00029D9E1235B02994227D9E1239B0299423D
:1049C00025D93D4B994224D9E123DB02994223D9D1
:1049D000E1231B03994221D8384B21E09E23DB02BF
:1049E0001EE09D231B031BE0354B19E0354B17E000
:1049F000EC239B0314E0344B12E0344B10E0344BB7
:104A00000EE0344B0CE0344B0AE0344B08E0344BFE
:104A100006E08023DB0403E0324B01E080235B05EA
:104A20003149002453500423243953501100FC31E0
:104A3000CC600C62C1210134890014605C30946048
:104A4000535003781F202200D9B20840824080349E
:104A50002648FF345BB20251002B13DA0F230B40C0
:104A6000083B234C9B089B001B1903242140A140B9
:104A7000FC348C40DD69A543C0248C4021002943CF
:104A8000D96111E0194C9B089B001B19032421409C
:104A9000A140C025FC348C40AD005E59A643C02423
:104AA0008C40210031435951026070BD0C0500005B
:104AB000140500006C05000090D0030000D0BE0E6D
:104AC00000B013000050270000A04E0000F0750059
:104AD00000509D0000F0EB0000903A0100E0D7018B
:104AE00000B0AF0300705F072405000000E100E0A4
:104AF00000ED00E0F7B5009308AB1B7800250193AB
:104B0000FA2304009B0083600E4B4560083303606A
:104B100014300F001600FFF771FE23005C3327618D
:104B20001E70009B084A9B00995823005D33197042
:104B3000019B20009B009A5823005E33DD701A70A1
:104B4000FEBDC04694B7000010B70000036910B561
:104B50001A00FC32D2680400002A0AD0A322D20034
:104B600099581430C9B2FFF754FE00222369FC3370
:104B7000DA6010BD10B50248FFF7E8FF10BDC0466F
:104B8000340B0020162307B5022200930249013B93
:104B90000248FFF7AFFF07BD00200040340B0020A4
:104BA000FEE7704710B500F011F8FFF7FAFF01209B
:104BB000FFF7ACFDFDF7BAFEFEF7C2FF024B002B7C
:104BC000FAD000E000BFF7E700000000C421114A5E
:104BD00089005058104B0340C0200002034353503B
:104BE000802391399B02FF39535013608023A32205
:104BF0000021DB05D20099500122A1209A60074BC9
:104C0000C0001950C12002318000195040301950A5
:104C10001A60704700E100E0FF00FFFF0010014054
:104C200002B4714649084900095C49008E4402BC3F
:104C30007047C04603B47146490840004900095A0C
:104C400049008E4403BC7047002243088B4274D352
:104C500003098B425FD3030A8B4244D3030B8B427D
:104C600028D3030C8B420DD3FF22090212BA030C86
:104C70008B4202D31212090265D0030B8B4219D367
:104C800000E0090AC30B8B4201D3CB03C01A524187
:104C9000830B8B4201D38B03C01A5241430B8B42CF
:104CA00001D34B03C01A5241030B8B4201D30B03B8
:104CB000C01A5241C30A8B4201D3CB02C01A5241DF
:104CC000830A8B4201D38B02C01A5241430A8B42A2
:104CD00001D34B02C01A5241030A8B4201D30B028B
:104CE000C01A5241CDD2C3098B4201D3CB01C01AA5
:104CF000524183098B4201D38B01C01A52414309AF
:104D00008B4201D34B01C01A524103098B4201D39C
:104D10000B01C01A5241C3088B4201D3CB00C01A09
:104D2000524183088B4201D38B00C01A5241430881
:104D30008B4201D34B00C01A5241411A00D20146A6
:104D4000524110467047FFE701B5002000F0F0F82F
:104D500002BDC0460029F7D076E7704703460B43F3
:104D60007FD4002243088B4274D303098B425FD364
:104D7000030A8B4244D3030B8B4228D3030C8B4290
:104D80000DD3FF22090212BA030C8B4202D3121276
:104D9000090265D0030B8B4219D300E0090AC30B4B
:104DA0008B4201D3CB03C01A5241830B8B4201D3F8
:104DB0008B03C01A5241430B8B4201D34B03C01AE1
:104DC0005241030B8B4201D30B03C01A5241C30A59
:104DD0008B4201D3CB02C01A5241830A8B4201D3CA
:104DE0008B02C01A5241430A8B4201D34B02C01AB4
:104DF0005241030A8B4201D30B02C01A5241CDD259
:104E0000C3098B4201D3CB01C01A524183098B42A3
:104E100001D38B01C01A524143098B4201D34B018C
:104E2000C01A524103098B4201D30B01C01A5241EF
:104E3000C3088B4201D3CB00C01A524183088B4276
:104E400001D38B00C01A524143088B4201D34B005F
:104E5000C01A5241411A00D20146524110467047D1
:104E60005DE0CA0F00D04942031000D340425340D6
:104E700000229C4603098B422DD3030A8B4212D396
:104E8000FC22890112BA030A8B420CD389019211C8
:104E90008B4208D3890192118B4204D389013AD005
:104EA000921100E08909C3098B4201D3CB01C01ADA
:104EB000524183098B4201D38B01C01A52414309ED
:104EC0008B4201D34B01C01A524103098B4201D3DB
:104ED0000B01C01A5241C3088B4201D3CB00C01A48
:104EE000524183088B4201D38B00C01A5241D9D260
:104EF00043088B4201D34B00C01A5241411A00D2E1
:104F00000146634652415B10104601D34042002BDC
:104F100000D54942704763465B1000D3404201B55B
:104F2000002000F005F802BD0029F8D016E7704710
:104F30007047C046002B15D1002A13D1002906DB8B
:104F400001DC002806D00020C043410802E0802197
:104F50000906002007B4024801A14018029003BDD1
:104F6000D1FFFFFF03B4684601B5029800F032F8A4
:104F7000019B9E4602B00CBC7047C046F0B54F4640
:104F80004646C0B41604360C9946330005042C0C72
:104F9000070C150C63437E436F4365431C0CAD192E
:104FA00064199C46A64203D980235B029846474475
:104FB0006346250CEF191D044B464A4343432D0C11
:104FC000240464199918C91920000CBC904699460C
:104FD000F0BDC046F0B583B016001F0000900191EF
:104FE00000F032F804000D0002000B003000390020
:104FF000FFF7C4FF009A019B121A8B410899200009
:105000000A604B60290003B0F0BDC0461C2101239B
:105010001B04984201D3000C10391B0A984201D39B
:10502000000A08391B09984201D30009043902A279
:10503000105C40187047C0460403020201010101E0
:105040000000000000000000F0B544465F465646F0
:105050004D46F0B41C0083B0002900DA92E00F0046
:10506000002106008A4610001900002C00DA80E0BA
:1050700034003D0081468846B94269D866D0414631
:10508000484600F0BFF883463900300000F0BAF817
:105090005B461B1A9C46203B9B4600D586E0494652
:1050A000584681400B004946604681400A00BB4299
:1050B00000D971E06DD034003D005946A41A9D41DD
:1050C000002900DA89E000210020012600900191EA
:1050D00059468E400196614601268E4061460096F3
:1050E000002960D0D90756080E435F0861460122A7
:1050F00000230CE0AF4201D1A6420AD8A41BBD4157
:1051000024196D410139A4185D41002906D0AF4230
:10511000F0D9013924196D410029F8D15B46009876
:10512000019900196941002B4CDB2E00DE406346DB
:105130002C00DC405B46002B5ADB34009C402300F3
:105140006446A6403200801A994103E0B04296D9E5
:10515000002000215346002B04D003000C00002146
:105160005842A14103B03CBC90469946A246AB468A
:10517000F0BD5346DB430C009A4613000021584211
:10518000A14175E7002746428F41012149428A46E5
:1051900069E7B14200D88EE700210020009001911C
:1051A000614600299ED100980199D3E762464046A6
:1051B0002023494690409B1AD94003000091009952
:1051C0000B4370E7624620239B1A2A009A40260070
:1051D00013006246D6401E43A9E7614620260127F8
:1051E000761A00200021F74000900191019772E7A4
:1051F00062462023350094409B1ADD4023002B4358
:105200009EE7C04610B5002903D1FFF7FFFE20300E
:1052100002E0081CFFF7FAFE10BDC0460B0010B5F7
:105220000100180000F022F810BD00007FB51D003D
:105230000A4B06001B68D868002A02D1084C2300DC
:1052400001E01300074C0293009133002A00064945
:10525000019400F02FF800F0B9FCC046A80000202F
:10526000FFB70000C4B70000D1B7000070B5054C0F
:1052700005001300201E04D00A000220290000E0CF
:1052800000BF70BD00000000084B10B50400002BEB
:1052900002D0002100E000BF054B1868836A002B94
:1052A00000D09847200000F0D5FFC0460000000065
:1052B00004B800000EB403B5010003AB044804CBEE
:1052C0000068019300F0F8F802B008BC03B018477A
:1052D000A80000200E4B70B500251E000D4CE41AEE
:1052E000A410A54204D0AB00F35898470135F8E765
:1052F00000F0B2FF084B00251E00084CE41AA41071
:10530000A54204D0AB00F35898470135F8E770BDCB
:10531000AC000020AC000020AC000020C000002049
:1053200003008218934202D019700133FAE77047E4
:1053300030B500293ED004390B68002B00DAC918BB
:105340001D4A13681400002B02D14B60116031E03C
:105350008B420DD90A688818834203D118685B68AC
:1053600082180A604B60216024E08A4203D813004F
:105370005A68002AF9D11D685C198C420BD1096862
:10538000691858181960824214D11068526841187F
:1053900019605A600EE08C4202D90C23036009E0C8
:1053A00008680C18A24203D11468526820180860DB
:1053B0004A60596030BDC0469C0B0020032370B585
:1053C000CD1C9D43083506000C2D01D20C2505E0AF
:1053D000002D03DA0C230020336040E0A942F9D805
:1053E0001F4B1C681A002100002913D00B685B1B9F
:1053F0000DD40B2B02D90B60CC181EE08C4202D1CD
:10540000636813601AE04B6863600C0016E00C00E0
:105410004968E9E7134C2368002B03D1300000F002
:10542000F7FA20602900300000F0F2FA431CD1D0D6
:105430000323C41C9C43A0420AD1256020000722FC
:105440000B30231D9043C31A09D05A42E25006E0A4
:10545000211A300000F0DCFA431CEED1BAE770BD2F
:105460009C0B0020980B0020936810B5013B9360C3
:10547000002B05DA9469A34208DBCBB20A2B05D0D6
:105480001368581C10601970C8B201E000F0D2FA1D
:1054900010BDF8B506000F001400D518AC4208D0B6
:1054A00021783A003000FFF7DFFF0134431CF5D1CB
:1054B00000E00020F8BD0000F0B59FB006000F002E
:1054C00002920593002804D08369002B01D100F0DB
:1054D00079FC7F4B9F4201D1776808E07D4B9F426A
:1054E00001D1B76803E07C4B9F4200D1F768BB89CC
:1054F0001B070AD53B69002B07D0002306AD6B6163
:1055000020336B761033AB763DE03900300000F08D
:10551000E9FA0028F1D001204042D6E0059A111D99
:1055200012680591002A00DA7FE00992013423789D
:105530002E2B00D18DE021780322684800F028FD51
:10554000002807D0654B2A68C01A402383401343C4
:105550002B6001342178631C06226148029329766E
:1055600000F016FD002800D19DE05E4B002B00D01E
:1055700090E00722059B07339343083305936B693B
:10558000039A9B186B61029C2378002B04D1029B29
:10559000E31A049312D003E0252BF8D00134F3E78B
:1055A000049B029A39003000FFF773FF431C00D1BF
:1055B00086E06A69049B944663446B612378002B00
:1055C0007ED00122002352426A6002A9543252184E
:1055D00001342B60EB60AB601370AB652178052262
:1055E000414800F0D5FC002808D03F4B2A68C01A7B
:1055F0000123834013432B600134EFE72B68DA0665
:1056000004D55322202102A8121811701A0704D5BC
:1056100053222B2102A81218117022782A2A00D1B5
:105620007CE7099B00200A2105E05242EA60022241
:1056300013432B607AE72278303A092A04D84B4387
:1056400001349B180120F6E7002800D16FE7099389
:105650006DE763782A2B0AD1059B02341A1D1B685B
:105660000592002B01DA01235B42079363E70023D5
:105670000A201A0001346B6021783039092904D8D6
:105680004243013452180123F6E7002B00D152E7C0
:10569000079250E705AB00933A00144B2900300005
:1056A00000E000BF07E005AB00933A000F4B290074
:1056B000300000F08BF80390039B013300D05EE7CD
:1056C000BB895B0600D526E70B981FB0F0BDC0462E
:1056D0003CB800005CB800007CB800000EB80000C8
:1056E00012B800000000000008B800009354000049
:1056F000F7B5170001938A680B6900900C0093427C
:1057000000DA130022003B6043321278002A01D0F5
:1057100001333B6023689B0602D53B6802333B6044
:10572000062523681D401ED0230043331B785A1ED4
:105730009341226892061CD53020E118433108704D
:1057400021005A1C45310978A218433202331170E6
:105750000FE022000123193201990098089EB047FA
:10576000431C0ED00135E3683A689B1A9D42F0DB7A
:10577000DAE72200019943320098089DA847431CAC
:1057800002D10120404220E006232068E1683A6807
:1057900003400025042B03D18D1AEB43DB171D407A
:1057A000A3682269934201DD9B1AED180027BD42D0
:1057B0000AD0220001231A3201990098089EB047AE
:1057C000431CDED00137F2E70020FEBDF0B58BB000
:1057D00006920A0043320793059004920A7E0C0059
:1057E000109B6E2A00D1ABE011D8632A22D009D8D1
:1057F000002A00D1B5E0582A00D0C5E045310A7032
:10580000814A4FE0642A1DD0692A1BD0BCE0732A6C
:1058100000D1AAE009D86F2A29D0702A00D0B3E0BD
:10582000202209680A43226037E0752A1FD0782AAF
:1058300033D0A9E00E001A684236111D19601368B2
:105840003370A4E021681A68080606D4490604D516
:10585000111D19600023D55E02E0111D1960156845
:10586000002D3BDA2D23049A6D42137036E0216837
:105870001A68080606D4490604D51568111D196072
:10588000ADB202E0111D196015685F4B227E0393D3
:1058900008276F2A1DD00A271BE0220078214532F5
:1058A00011705A4A19680392081D226818600D6821
:1058B000100602D4500600D5ADB2D30702D520237E
:1058C0001A4322601027002D03D1202322689A4317
:1058D00022602300002243331A7002E00A274A4B59
:1058E00003936368A360002B09DB042221689143C2
:1058F0002160002D05D1049E002B11D07BE0002DEE
:1059000079D0049E28003900FFF724FA039B013E5A
:105910005B5C280033703900FFF796F9051EF1D162
:10592000082F09D12368DB0706D5636822699342F3
:1059300002DC3023013E3370049B9B1B23612BE070
:1059400009681A68080607D4490605D5111D1960AB
:105950001368A28A1A8004E0111D19601368626935
:105960001A600023049E236116E01A68111D196055
:10597000166800216268300000F00AFB002801D0A0
:10598000801B6060636803E02600423632700123AA
:1059900023610023049A1370079B09AA0093210036
:1059A000069B0598FFF7A4FE431C02D1012040424C
:1059B00027E02369320006990598079DA847431CF4
:1059C000F4D0236800259B070FD4099BE068984218
:1059D00017DA180015E022000123193206990598FC
:1059E000079EB047431CE1D00135E368099A9B1A32
:1059F0009D42F0DBE9E72600039B42361B783370BB
:105A00008EE70BB0F0BDC04619B800002AB8000000
:105A1000002370B5064C05000800236000F004FC6C
:105A2000431C03D12368002B00D02B6070BDC046FF
:105A3000A40B0020F8B505000F001400002804D0C6
:105A40008369002B01D100F0BDF9234B9C4201D1A9
:105A50006C6808E0214B9C4201D1AC6803E0204B0C
:105A60009C4200D1EC68A369A360A3891B070AD5F7
:105A70002369002B07D023682269FEB2981A636954
:105A800098420FDB08E02100280000F02BF80028E6
:105A9000F1D0012040421DE02100280000F024F94F
:105AA0000028F6D1A3680130013BA36023685A1C8B
:105AB00022601F706369984205D0A3893000DB071C
:105AC00008D50A2E06D12100280000F00DF9002883
:105AD000DFD13000F8BDC0463CB800005CB8000023
:105AE0007CB80000354B70B51D6806000C00002D19
:105AF00005D0AB69002B02D1280000F063F9304BD0
:105B00009C4201D16C6808E02E4B9C4201D1AC68EC
:105B100003E02D4B9C4200D1EC68A3899AB2110797
:105B200023D4D10607D4092201203260373213432F
:105B3000A381404240E0530713D5616B002908D090
:105B400023004433994202D03000FFF7F1FB0023D9
:105B500063632422A3899343A381002363602369A1
:105B600023600822A3891343A3812369002B0BD14F
:105B7000A023A2899B00134080229200934203D06D
:105B80002100300000F0B2F90123A289134005D0B2
:105B90000023A36063695B42A36103E0910700D423
:105BA0006369A36000202369834205D1130603D5EE
:105BB00040231A43A281013870BDC046A8000020CE
:105BC0003CB800005CB800007CB8000010B50620AE
:105BD00000F014FA012000F03DFB0000F7B58A89BF
:105BE00005000C0013075AD44B68002B02DC0B6C29
:105BF000002B19DDE76A002F16D000232E682B60DA
:105C000080235B011A4001D0606D14E00123216AFA
:105C10002800B847431C0ED12B68002B0BD01D2B3E
:105C200001D0162B02D12E6000205AE04022A38919
:105C30001343A38155E0A3895B0706D56368C01AA7
:105C4000636B002B01D0236CC01A00230200216A71
:105C50002800E76AB847A389421C06D129681D2994
:105C60003AD8204ACA40D20736D50022626022695B
:105C70002260DB0405D5431C02D12B68002B00D128
:105C80006065616B2E600029CED0230044339942B9
:105C900002D02800FFF74CFB0020606321E00F6971
:105CA000002FC1D00B680F60DB1B0193002392070C
:105CB00000D14B69A36003E0019B3F181B1A0193BD
:105CC000019B002BB0DD019B3A00216A2800A66AE7
:105CD000B0470028F0DCA389402201201343A381B0
:105CE0004042FEBD010040200B6970B505000C006C
:105CF000002B01D100201CE0002804D08369002B78
:105D000001D100F05FF80B4B9C4201D16C6808E0B8
:105D1000094B9C4201D1AC6803E0084B9C4200D186
:105D2000EC680C22A35E002BE4D021002800FFF7D2
:105D300055FF70BD3CB800005CB800007CB80000A6
:105D400010B5024900F0B0F810BDC046E95C000093
:105D5000002310B5040003604360836081814366C3
:105D6000C281036143618361190008225C30FFF73F
:105D7000D7FA054B24626362044BA362044BE362CF
:105D8000044B236310BDC0463D6000006560000009
:105D90009D600000C960000070B568254B1E5D4322
:105DA0000E0029007431FFF709FB041E08D0002102
:105DB0002A00016046600C30A0606832FFF7B0FA3C
:105DC000200070BD836913B50400002B28D18364C3
:105DD000C3640365134B144A1B68826201939842A3
:105DE00001D101238361200000F020F860602000D1
:105DF00000F01CF8A060200000F018F80022E0601D
:105E000004216068FFF7A4FF01220921A068FFF7C1
:105E10009FFF02221221E068FFF79AFF0123A3618E
:105E200013BDC04604B80000415D0000F8B51D4B2D
:105E300006001D68AB69002B02D12800FFF7C2FFE6
:105E40004835AC686B68013B05D40C22A75E002F77
:105E500010D06834F7E72B68002B01D02D68F0E7ED
:105E600004213000FFF798FF28600028F6D10C23AA
:105E7000336016E0012320005B42E3810233A381FB
:105E800067662760A760676027616761A7615C300C
:105E900008223900FFF744FA20006763A763A7646C
:105EA000E764F8BD04B80000F7B504000700002659
:105EB00001914834002C16D06368A5680093009BBC
:105EC000013B00930DD4AB89012B08D90E22AB5EA8
:105ED000013304D029003800019B984706436835F8
:105EE000EDE72468E6E73000FEBD0000F0B58B89E1
:105EF00091B006000C009B0726D40E23C95E002932
:105F000004DA8023A5891D4010D10CE001AA00F01D
:105F100007F90028F5DBF023029D1B021D401A4BF8
:105F2000ED186B425D418027FF0001E0002540270E
:105F300039003000FFF742FA00280CD1A3899A05F6
:105F40001FD402221343A38123004733236023611C
:105F50000123636115E080220C4BB362A3892060AA
:105F60001343A38120616761002D0AD00E23E15EF7
:105F7000300000F0E7F8002803D00122A389134382
:105F8000A38111B0F0BDC04600E0FFFF415D0000FD
:105F9000C9B28218904204D003788B4202D00130FB
:105FA000F8E70020704770B504000D1E1F2D04D9BE
:105FB00016230360012040421EE0426C002A04D0F8
:105FC0008B00D2181368002B08D1200000F032F8A3
:105FD0002A000100200000F01BF80DE00020012B3A
:105FE0000AD0591C03D117332360013004E0002488
:105FF000280014609847200070BD000010B5034BC6
:1060000001001868FFF7CFFF10BDC046A8000020B0
:10601000002370B5064C050008001100236000F055
:10602000EBF8431C03D12368002B00D02B6070BD1C
:10603000A40B002010B500F0CFF810BD70B50C0017
:106040000E25495F00F0A4F8002803DB636D1B18E0
:10605000636503E0A289024B1340A38170BDC04673
:10606000FFEFFFFFF8B51F008B8905000C0016003D
:10607000DB0505D50E23C95E0022022300F074F86B
:10608000A289054B28001340A38132000E23E15E54
:106090003B0000F01FF8F8BDFFEFFFFF70B50C00EC
:1060A0000E25495F00F060F8A389421C03D1054A20
:1060B0001340A38104E0802252011343A381606551
:1060C00070BDC046FFEFFFFF10B50E23C95E00F0A4
:1060D00015F810BD70B50500080011000022064C2F
:1060E00022601A0000F0AEF8431C03D12368002B95
:1060F00000D02B6070BDC046A40B0020002370B5FB
:10610000064C05000800236000F056F8431C03D13C
:106110002368002B00D02B6070BDC046A40B00206C
:10612000002370B5064C050008001100236000F044
:106130004BF8431C03D12368002B00D02B6070BDAB
:10614000A40B0020002370B5064C05000800236056
:1061500000F04AF8431C03D12368002B00D02B60C9
:1061600070BDC046A40B002070B5050008001100EA
:106170000022064C22601A0000F046F8431C03D1AE
:106180002368002B00D02B6070BDC046A40B0020FC
:1061900070B50500080011000022064C22601A00AC
:1061A00000F03AF8431C03D12368002B00D02B6089
:1061B00070BDC046A40B002058220120014B404274
:1061C0001A607047A40B002058220120014B404266
:1061D0001A607047A40B002058220120014B404256
:1061E0001A607047A40B00205822024B00201A604E
:1061F0007047C046A40B002058220120014B4042AA
:106200001A607047A40B002058220120014B404225
:106210001A607047A40B002058220120014B404215
:106220001A607047A40B0020044A1368002B03D0A7
:106230001818106018007047014BF9E7A00B0020F8
:10624000A80B002058220120014B40421A607047E1
:10625000A40B0020FEE7C046F8B5C046F8BC08BC59
:106260009E467047F8B5C046F8BC08BC9E467047CD
:106270006C696E6B626F793A03D400000000000015
:10628000000000000000000000000000000000000E
:1062900000000000000000000000000000000000FE
:1062A00000000000000000000000000000000000EE
:1062B0000000000000000000000000000390320019
:1062C00000000000000000000000000000000000CE
:1062D00000000000000000000000000000000000BE
:1062E00000000000000000000000000000000000AE
:1062F0000000000000000000C80400007C05000051
:10630000AC050000A0020000DC0500008C0C0000C1
:106310009C0C0000E40C00006C0D0000800E0000DE
:1063200058150000301C0000181F00008C3A0000B7
:10633000C83A0000DC00000000000800080000006F
:1063400000060912090600000000000002A3010077
:1063500003F837000500000086000000510000002F
:10636000050000000F000000000000000500000014
:10637000860000007C0400005500000005000000BD
:10638000860000005400000005000000CE00000060
:106390000000000005000000860000007C040000F2
:1063A00058000000050000000F0000000000000081
:1063B0006F090000E200000001000000DC000000A6
:1063C0005B090000390000006F090000DD000000DB
:1063D00005000000E200000001000000DC000000F9
:1063E0005B090000390100006F090000DD000000BA
:1063F000050000000F000000000000008300000006
:106400009C000000C6000000CB00000094030000C8
:1064100079010000C6000000CB00000094070000D6
:10642000070C0000800300004C0000008007000003
:106430004C0000000100000004000000080C0000F7
:1064400005000000CD000000000100008E020000E9
:1064500079000000E10000007A0200009D000000C9
:10646000C7000000CC000000940400007901000087
:10647000C6000000CB00000094080000070C0000DC
:10648000800400004C000000800800004C00000068
:106490000100000004000000080C000005000000DE
:1064A000CD000000000200008E0100007900000015
:1064B000E10000007A0100009D000000C70000001C
:1064C000CC00000094030000070C000080030000D3
:1064D0004C0000000100000005000000080C000056
:1064E000420000009405000080050000DB00000071
:1064F000C2000000C0000000050000000500000010
:106500000500000005000000050000000500000077
:106510000500000005000000050000000500000067
:106520007C000000C9000000760A00000708000097
:10653000620A00004C000000010000000210000090
:1065400008080000050000007C000000C9000000F1
:10655000760E000007080000620E00004C000000EC
:106560000100000003100000080800000500000002
:1065700062120000DB000000050000007C0000004B
:10658000C900000076120000070800006212000037
:106590004C0000000100000004100000080800008A
:1065A000050000000F000000000000003170030033
:1065B000D000000008000000CC000000761A0000A7
:1065C000D00000000100000092000000E600000082
:1065D000080000007E000000AF000000CC000000BA
:1065E0007616000003A40300D0000000080000009D
:1065F000CC00000076160000D00000000100000072
:1066000092000000E6000000080000007E0000008C
:10661000AF000000CC000000761A0000D00000009F
:106620000800000092000000CE0000001F000000E3
:1066300090020000D0000000080000009206000058
:10664000070800007E0000004A0000007C020000F5
:1066500048000000621600004C000000621A0000B2
:106660004C0000007E0600004A000000010000000F
:1066700000100000080800000F00000000000000EB
:106680008B0000000F000000000000008B010000E4
:106690000F000000000000008B020000070800004F
:1066A0007700000044000000770100004400000073
:1066B000770200004400000001000000011000000B
:1066C00008080000D1000000010000009400000054
:1066D00007080000800000004C00000004A8020031
:1066E00008080000D1000000010000009400000034
:1066F00007080000800000004C00000004D00200E9
:1067000008080000D1000000000000009400000014
:1067100007080000800000004C0000000404030093
:10672000080800000F000000000000006D1E0000BF
:106730000708000004C80400080800000500000065
:106740000F000000000000008D010000D1000000DB
:106750000000000094020000070C000004F8020092
:10676000080C0000420000008A020000D400000073
:106770003100050005000000D1000000000000000D
:1067800094020000070C000004F80200080C00004E
:10679000420000008A020000D600000031380500E7
:1067A0000F000000000000008D0100000344050000
:1067B0000F000000FF0000008D010000070C00002A
:1067C00079010000450000000100000008100000F1
:1067D000080C00000F000000010000006D1E00000A
:1067E000050000000F000000010000006D1E000009
:1067F00005000000070C0000800000004C000000B5
:10680000800400004C0000000100000005100000A2
:10681000080C00000F000000010000006D1E0000C9
:1068200005000000070C0000800000004C00000084
:10683000800400004C000000010000000610000071
:10684000080C00000F000000010000006D1E000099
:106850000500000080040000DB000000C200000012
:10686000C00000008D090000E200000008000000E8
:10687000790900001C0000008D080000E200000003
:1068800008000000790900001B0000008D090000CD
:1068900080000000DB000000C2000000C00000001B
:1068A0008D0B00000F000000040000008D0C0000A4
:1068B000E20000005C000000790C00001F000000F6
:1068C000313808000F000000000000008D0D0000AE
:1068D0000F000000000000008D0A0000790A00008F
:1068E000830900002000000031200800790A000020
:1068F0008E100000D000000008000000D900000049
:10690000E10000007A100000AB0000008E0E0000D5
:10691000790C0000E10000007A0E00009D000000EC
:106920008E100000CE0000001F000000901200003A
:106930007A100000E10000007C120000110100004C
:10694000901A0000072000007C1A00004800000098
:1069500004E00000082000008E0E0000790A00000C
:10696000830900002100000031700700E2000000F0
:10697000000000007908000021000000310C070031
:10698000032008000F000000FF0000008308000043
:106990002B0000008D1200007A0E0000370000006E
:1069A000830B00002B000000E1000000790D0000C7
:1069B000290000008D0D0000791200002400000065
:1069C000E1000000790D0000280000008D0D00009E
:1069D00079120000E10000007A0E0000280000009B
:1069E0008E0E0000038007007A0E0000830B00006B
:1069F0002C0000008E0E00007A0E00003700000010
:106A0000830D000029000000E1000000DC00000010
:106A10007A0E00003C0000008E0E0000DD00000039
:106A2000CE0000001F000000901200007A1000004D
:106A3000E10000007C12000011010000901A00002B
:106A40007A0E0000370000008D12000007200000C1
:106A50007C1A000048000000791200004500000088
:106A600004F80000082000007A0E00003700000043
:106A7000901700007A0E0000370800008D0D00000E
:106A8000E200000001000000790A00009C00000004
:106A90008D0A000003640600E2000000010000000F
:106AA000790C00009C0000008D0C000003380600EB
:106AB0000F000000010000006D1E00000500000036
:106AC00007000000048C0800080000000700000018
:106AD000042C03000800000005000000591E0000FF
:106AE000318408000F000000000000006D1E00004F
:106AF00007040000049008000804000005000000DE
:106B000005000000050000000F000000000000006C
:106B10008D010000E2000000080000007901000083
:106B20001F00000031200900CE0000001F000000FF
:106B30009002000079010000E10000007C020000EA
:106B400011010000900A0000071000007C0A0000FC
:106B50004800000004E00000081000008D02000062
:106B600007100000790100004500000079020000D4
:106B7000450000000100000000F4010008100000C2
:106B8000E200000001000000790100009C0000000C
:106B90008D010000039C0800050000000F000000AC
:106BA000050000008D0000000F0000000000000044
:106BB0008C0100000704000079000000450000007F
:106BC0007801000043000000047C0100080400007C
:106BD0000F000000050000008D0000000F00000005
:106BE000010000008C010000070400007900000093
:106BF00045000000780100004300000004CC0100C3
:106C0000080400000F000000320000006F2A00009E
:106C10000F000000000000006F2700000F000000C0
:106C2000010000006E2B00000F00000000000000BB
:106C30006D2800000F000000010000006D29000019
:106C4000050000000F000000050000008D0000009E
:106C50000708000079000000450000000428020039
:106C6000080800008C0100007801000023000000EB
:106C7000642B0000280000008C0000005A2B00004C
:106C800023000000E100000078010000280000005F
:106C90008C020000E200000001000000780000000B
:106CA00021000000314C0A00E20000000100000059
:106CB000DC0000005B270000390000006F270000A7
:106CC000DD000000E200000001000000780200008A
:106CD00021000000317C0A00E200000001000000F9
:106CE000DC0000005B270000390100006F27000076
:106CF000DD000000780100006E2B0000E2000000C3
:106D000000000000780100002100000031B40A00FA
:106D10000F000000010000006D2800000F000000BF
:106D2000000000006D29000003CC0A000F000000E5
:106D3000000000006D2800000F00000001000000AE
:106D40006D290000050000000F0000000B0000008E
:106D50008D0000000F000000000000008C0100000A
:106D600007040000790000004500000078010000E1
:106D700043000000047C0100080400000F00000034
:106D80000B0000008D0000000F000000010000005B
:106D90008C0100000704000079000000450000009D
:106DA000780100004300000004CC0100080400004A
:106DB0000F000000320000006F2F00000F000000E5
:106DC000000000006F2C00000F0000000100000018
:106DD0006E3000000F000000000000006D2D00006C
:106DE0000F000000010000006D2E000005000000F3
:106DF0000F0000000B0000008D00000007080000DD
:106E00007900000045000000042802000808000086
:106E10008C010000780100002300000064300000B5
:106E2000280000008C0000005A3000002300000001
:106E3000E100000078010000280000008C02000042
:106E4000E2000000010000007800000021000000C6
:106E500031F80B00E200000001000000DC0000003F
:106E60005B2C0000390000006F2C0000DD000000EA
:106E7000E200000001000000780200002100000094
:106E800031280C00E200000001000000DC000000DE
:106E90005B2C0000390100006F2C0000DD000000B9
:106EA000780100006E300000E200000000000000E9
:106EB000780100002100000031600C000F0000008C
:106EC000010000006D2D00000F0000000000000018
:106ED0006D2E000003780C000F0000000000000081
:106EE0006D2D00000F000000010000006D2E00005D
:106EF00005000000CD00000000000000703100001F
:106F0000050000000700000004C80400080000009D
:106F1000050000000F000000000000008D0C0000C4
:106F200007100000790C0000450000007C00000004
:106F300048000000800400004C00000080080000B1
:106F40004C00000004340D00081000000710000081
:106F5000046C050008100000050000000F00000090
:106F6000000000006D3300000F0000000200000070
:106F70008D0C000007100000790C00004500000097
:106F80007C00000048000000800400004C0000006D
:106F9000800800004C00000004340D0008100000C0
:106FA0005933000005000000050000000710000034
:106FB00079000000450000007C010000480000004E
:106FC000800500004C000000800900004C0000001B
:106FD0000100000001110000081000006D330000E6
:106FE000050000007C000000120200009008000074
:106FF000072000007C0800004800000004E00000BA
:10700000082000008E0B00007C000000120400002D
:10701000900D00000F000000080000008D08000027
:10702000072000007C0D00004800000004E0000084
:1070300008200000830800001B000000E1000000A1
:107040007A0B0000AB0000008E0B0000CD000000AA
:10705000000000008E0D00007A0D0000840B00007F
:107060001F000000317C0E007C04000012090000AB
:10707000900F00007A0D0000E10000007C0F00007E
:1070800011010000901700007C00000012090000B0
:10709000900F00007A0D0000E10000007C0F00005E
:1070A00011010000901B0000072000007C1B000065
:1070B0004800000004E00000082000008D080000E7
:1070C000072000007C17000048000000790800003D
:1070D0004500000004F8000008200000E300000064
:1070E000010000007A0D00009D0000008E0D0000E0
:1070F00003E00D00050000007C000000120200000B
:10710000900800000F000000080000008D0C000037
:10711000073400007C0800004800000004E0000084
:1071200008340000830C00001B0000008E080000E3
:107130007C00000012040000900A00000F00000014
:10714000080000008D0E0000073400007C0A0000DB
:107150004800000004E0000008340000830E000036
:107160001B0000008E0A0000CD000000000000009F
:107170008E0E00007A0E0000840A00001F0000003E
:1071800031541500CD000000000000008E100000FA
:107190007A100000840800001F000000313C150038
:1071A0007A1000008E0C00007A0A0000840E0000A5
:1071B000A40000008E120000E300000001000000A7
:1071C0007A120000A40000008E12000010000000DF
:1071D00018000000901400007C000000120900005C
:1071E000901C00007C0000001202000090200000B3
:1071F000073400007C2000004800000004E000008C
:1072000008340000E10000007A0E0000AB0000002E
:107210008E230000E3000000080000007A10000048
:10722000AB000000E10000007A2300009D00000098
:10723000E10000007C1C000011010000902600000D
:10724000073400007C140000480000007C26000089
:107250004800000004200100083400001000000075
:107260001C000000901400007C04000012090000C3
:10727000902000007C040000120200009024000016
:10728000073400007C2400004800000004E00000F7
:1072900008340000E10000007A0C0000AB000000A0
:1072A0008E270000E3000000080000007A120000B2
:1072B000AB000000E10000007A2700009D00000004
:1072C000E10000007C20000011010000902A000075
:1072D000073400007C140000480000007C2A0000F5
:1072E00048000000042001000834000010000000E5
:1072F0001800000090140000CE0000000000000004
:1073000090200000073400007C14000048000000BA
:10731000040801000834000086200000110100006C
:1073200090240000073400007C2400004800000086
:1073300004E00000083400008D150000100000007B
:107340001800000090200000CE00000001000000A6
:1073500090240000073400007C200000480000005A
:107360000408010008340000862400001101000018
:1073700090280000073400007C280000480000002E
:1073800004E00000083400008D160000100000002A
:107390001800000090200000CE0000000200000055
:1073A00090240000073400007C200000480000000A
:1073B00004080100083400008624000011010000C8
:1073C00090280000073400007C28000048000000DE
:1073D00004E00000083400008D17000010000000D9
:1073E0001800000090200000CE0000000300000004
:1073F00090240000073400007C20000048000000BA
:107400000408010008340000862400001101000077
:1074100090280000073400007C280000480000008D
:1074200004E00000083400008D200000100000007F
:107430001800000090210000CE00000004000000B1
:1074400090250000073400007C2100004800000067
:107450000408010008340000862500001101000026
:1074600090290000073400007C290000480000003B
:1074700004E00000083400008D210000100000002E
:107480001800000090220000CE000000050000005F
:1074900090260000073400007C2200004800000015
:1074A00004080100083400008626000011010000D5
:1074B000902A0000073400007C2A000048000000E9
:1074C00004E00000083400008D22000010000000DD
:1074D0001800000090230000CE000000060000000D
:1074E00090270000073400007C23000048000000C3
:1074F0000408010008340000862700001101000084
:10750000902B0000073400007C2B00004800000096
:1075100004E00000083400008D230000100000008B
:107520001800000090240000CE00000007000000BA
:1075300090280000073400007C2400004800000070
:107540000408010008340000862800001101000032
:10755000902C0000073400007C2C00004800000044
:1075600004E00000083400008D240000CF0000007B
:107570000000000091250000E50000000800000068
:107580007D250000D400000031241500791500008D
:1075900033070000E1000000DC0000007914000067
:1075A000390000008D140000DD000000E200000042
:1075B00001000000791500002B0000008D1500006F
:1075C0007916000033070000E1000000DC00000035
:1075D00079140000390100008D140000DD00000066
:1075E000E200000001000000791600002B000000FE
:1075F0008D1600007917000033070000E10000003D
:10760000DC00000079140000390200008D14000035
:10761000DD000000E200000001000000791700001A
:107620002B0000008D1700007920000033070000B8
:10763000E1000000DC0000007914000039030000C4
:107640008D140000DD000000E200000001000000D9
:10765000792000002B0000008D200000792100001F
:1076600033070000E1000000DC0000007914000096
:10767000390400008D140000DD000000E20000006D
:1076800001000000792100002B0000008D21000086
:107690007922000033070000E1000000DC00000058
:1076A00079140000390500008D140000DD00000091
:1076B000E200000001000000792200002B00000021
:1076C0008D2200007923000033070000E100000054
:1076D000DC00000079140000390600008D14000061
:1076E000DD000000E200000001000000792300003E
:1076F0002B0000008D2300007924000033070000D8
:10770000E1000000DC0000007914000039070000EF
:107710008D140000DD000000E20000000100000008
:10772000792400002B0000008D24000010000000D0
:107730001C00000090260000073400007C2600009A
:1077400048000000040801000834000090260000F2
:107750007D250000D8000000E10000007C2600002C
:1077600011010000902F0000073400007C2F000062
:1077700048000000791400004500000004F80000F3
:1077800008340000E5000000010000007D25000035
:10779000A00000009125000003001300E30000009A
:1077A000010000007A1000009D0000008E10000013
:1077B00003180F00E3000000010000007A0E000033
:1077C0009D0000008E0E000003FC0E00050000006E
:1077D0007C00000012020000900800000F00000072
:1077E000080000008D0C0000073400007C08000039
:1077F0004800000004E0000008340000830C000092
:107800001B0000008E0800007C0000001204000035
:10781000900A00000F000000080000008D0E00001C
:10782000073400007C0A00004800000004E000006B
:1078300008340000830E00001B0000008E0A0000C8
:10784000CD000000000000008E0E00007A0E000047
:10785000840A00001F000000312C1C00CD00000035
:10786000000000008E1000007A1000008408000064
:107870001F00000031141C007A0E00008E0C000066
:107880007A08000084100000A40000008E1200009E
:10789000E3000000010000007A120000A4000000D4
:1078A0008E1200001000000018000000901400006C
:1078B0007C00000012090000901C00007C00000009
:1078C0001202000090200000073400007C2000001D
:1078D0004800000004E0000008340000E10000005F
:1078E0007A0E0000AB0000008E230000E3000000D1
:1078F000080000007A100000AB000000E10000006A
:107900007A2300009D000000E10000007C1C0000C4
:107910001101000090260000073400007C140000D4
:10792000480000007C260000480000000420010000
:1079300008340000100000001C000000901400003B
:107940007C04000012090000902000007C0400006C
:107950001202000090240000073400007C24000084
:107960004800000004E0000008340000E1000000CE
:107970007A120000AB0000008E270000E300000038
:10798000080000007A0C0000AB000000E1000000DD
:107990007A2700009D000000E10000007C2000002C
:1079A00011010000902A0000073400007C14000040
:1079B000480000007C2A000048000000042001006C
:1079C00008340000100000001800000090140000AF
:1079D000CE000000000000009020000007340000EE
:1079E0007C14000048000000040801000834000076
:1079F00086200000110100009024000007340000E0
:107A00007C2400004800000004E00000083400006E
:107A10008D150000100000001800000090200000EC
:107A2000CE00000001000000902400000734000098
:107A30007C20000048000000040801000834000019
:107A40008624000011010000902800000734000087
:107A50007C2800004800000004E00000083400001A
:107A60008D1600001000000018000000902000009B
:107A7000CE00000002000000902400000734000047
:107A80007C200000480000000408010008340000C9
:107A90008624000011010000902800000734000037
:107AA0007C2800004800000004E0000008340000CA
:107AB0008D1700001000000018000000902000004A
:107AC000CE000000030000009024000007340000F6
:107AD0007C20000048000000040801000834000079
:107AE00086240000110100009028000007340000E7
:107AF0007C2800004800000004E00000083400007A
:107B00008D200000100000001800000090210000EF
:107B1000CE000000040000009025000007340000A3
:107B20007C21000048000000040801000834000027
:107B30008625000011010000902900000734000094
:107B40007C2900004800000004E000000834000028
:107B50008D2100001000000018000000902200009D
:107B6000CE00000005000000902600000734000051
:107B70007C220000480000000408010008340000D6
:107B80008626000011010000902A00000734000042
:107B90007C2A00004800000004E0000008340000D7
:107BA0008D2200001000000018000000902300004B
:107BB000CE000000060000009027000007340000FF
:107BC0007C23000048000000040801000834000085
:107BD0008627000011010000902B000007340000F0
:107BE0007C2B00004800000004E000000834000086
:107BF0008D230000100000001800000090240000F9
:107C0000CE000000070000009028000007340000AC
:107C10007C24000048000000040801000834000033
:107C20008628000011010000902C0000073400009D
:107C30007C2C00004800000004E000000834000034
:107C40008D240000CF0000000700000091250000F7
:107C5000E5000000000000007D250000D3000000CA
:107C600031FC1B007915000033070000E100000023
:107C7000DC00000079140000390700008D140000BA
:107C8000DD000000E20000000100000079150000A6
:107C90002B0000008D15000079160000330700004E
:107CA000E1000000DC00000079140000390600004B
:107CB0008D140000DD000000E20000000100000063
:107CC000791600002B0000008D16000079170000C7
:107CD00033070000E1000000DC0000007914000020
:107CE000390500008D140000DD000000E2000000F6
:107CF00001000000791700002B0000008D17000024
:107D00007920000033070000E1000000DC000000E3
:107D100079140000390400008D140000DD0000001B
:107D2000E200000001000000792000002B000000AC
:107D30008D2000007921000033070000E1000000E1
:107D4000DC00000079140000390300008D140000ED
:107D5000DD000000E20000000100000079210000C9
:107D60002B0000008D210000792200003307000065
:107D7000E1000000DC00000079140000390200007E
:107D80008D140000DD000000E20000000100000092
:107D9000792200002B0000008D22000079230000D2
:107DA00033070000E1000000DC000000791400004F
:107DB000390100008D140000DD000000E200000029
:107DC00001000000792300002B0000008D2300003B
:107DD0007924000033070000E1000000DC0000000F
:107DE00079140000390000008D140000DD0000004F
:107DF000E200000001000000792400002B000000D8
:107E00008D240000100000001C00000090260000DF
:107E1000073400007C260000480000000408010030
:107E200008340000902600007D250000D8000000E6
:107E3000E10000007C26000011010000902F0000EE
:107E4000073400007C2F0000480000007914000077
:107E50004500000004F8000008340000E5000000C0
:107E6000010000007D250000A70000009125000012
:107E700003D81900E3000000010000007A100000A0
:107E80009D0000008E10000003F01500E3000000CC
:107E9000010000007A0E00009D0000008E0E000020
:107EA00003D41500050000007C000000120400004F
:107EB000900800000F000000080000008D0C00007A
:107EC000071C00007C0800004800000004E00000DF
:107ED000081C0000830C00001B0000008E0800003E
:107EE000CD000000000000008E0C00007A0C0000A5
:107EF000840800001F00000031141F00CF000000A4
:107F000000000000910B00007D0B0000D800000075
:107F10008D0A00007C00000012020000900E00009C
:107F2000071C00007C0E00004800000004E0000078
:107F3000081C0000E1000000790A00001F0000009A
:107F400031FC1E007C00000012090000900E0000B1
:107F50007C0000001202000090120000071C0000CC
:107F60007C1200004800000004E00000081C000033
:107F7000E10000007A0C0000AB0000008E1400004D
:107F80007D0B0000D8000000E10000007A14000022
:107F90009D000000E10000007C0E000011010000C7
:107FA00090160000071C00007C160000480000002E
:107FB00004E00000081C00008D0E0000790E000097
:107FC00033070000E1000000DC000000790A000037
:107FD000390000008D0A0000DD000000790E00006D
:107FE00033060000E1000000DC000000790A000018
:107FF000390100008D0A0000DD000000790E00004C
:1080000033050000E1000000DC000000790A0000F8
:10801000390200008D0A0000DD000000790E00002A
:1080200033040000E1000000DC000000790A0000D9
:10803000390300008D0A0000DD000000790E000009
:1080400033030000E1000000DC000000790A0000BA
:10805000390400008D0A0000DD000000790E0000E8
:1080600033020000E1000000DC000000790A00009B
:10807000390500008D0A0000DD000000790E0000C7
:1080800033010000E1000000DC000000790A00007C
:10809000390600008D0A0000DD000000790E0000A6
:1080A00033000000E1000000DC000000790A00005D
:1080B000390700008D0A0000DD0000007C0400008C
:1080C00012090000900F00007A080000840C0000E4
:1080D000A40000008E130000E30000000100000077
:1080E0007A130000A40000008E1700007C0000003E
:1080F0001202000090130000071C00007C13000017
:108100004800000004E00000081C0000E10000003E
:108110007A170000AB0000008E1900007D0B0000F4
:10812000D8000000E10000007A1900009D00000066
:10813000E10000007C0F000011010000901300001E
:10814000071C00007C13000048000000790A0000B2
:108150004500000004F80000081C0000E5000000D5
:10816000010000007D0B0000A0000000910B00004A
:1081700003901C00E3000000010000007A0C0000E6
:108180009D0000008E0C000003741C000500000020
:108190007C00000012040000900800000F000000A6
:1081A000080000008D0C0000072000007C08000083
:1081B0004800000004E0000008200000830C0000DC
:1081C0001B0000008E080000CD0000000000000031
:1081D0008E0C00007A0C0000840800001F000000D4
:1081E00031182100CF00000000000000910B0000BA
:1081F0007D0B0000D80000008D0A00007C0000000C
:1082000012020000900E0000072000007C0E00000B
:108210004800000004E0000008200000E100000029
:10822000790A00001F000000310021007C000000DE
:1082300012090000900E00007C00000012020000F5
:1082400090120000072000007C120000480000008F
:1082500004E0000008200000E10000007A0C0000AB
:10826000AB0000008E1400007D0B0000D800000061
:10827000E10000007A1400009D000000E100000011
:108280007C0E000011010000901600000720000085
:108290007C1600004800000004E0000008200000F8
:1082A0008D0E00007C04000012090000900F0000F9
:1082B0007C00000012020000901300000720000064
:1082C0007C1300004800000004E0000008200000CB
:1082D000E10000007A0C0000AB0000008E150000E9
:1082E0007C00000012020000901700007D0B0000CF
:1082F000D80000008D0A0000072000007C17000055
:108300004800000004E0000008200000830A00008C
:10831000190000008D140000E200000001000000C0
:108320007914000019000000E10000007A15000037
:108330009D000000E10000007C0F00001101000022
:1083400090190000072000007C1900004800000080
:10835000790E00004500000004F80000082000002D
:10836000E5000000010000007D0B0000A0000000FF
:10837000910B000003781F00E300000001000000E3
:108380007A0C00009D0000008E0C0000035C1F00B2
:1083900005000000050000000500000005000000C9
:1083A000CF0000009D00000091000000CF00000001
:1083B0006300000016000000E10000007D000000E6
:1083C000D700000031602100CF0000009D000000B8
:1083D000736D0000036C2100CF000000000000005E
:1083E000736D0000CE00000034000000900000001B
:1083F000D00000003200000092040000CE00000017
:108400006600000090060000070C00005F6D000091
:10841000490000007C000000480000007E040000CD
:108420004A0000007C060000480000000100000037
:1084300000130000080C0000050000000704000005
:108440005F6D000049000000800000004C0000004B
:1084500001000000011300000804000005000000F6
:108460007D000000D80000008D010000070400001E
:108470005F6D000049000000790100004500000028
:1084800001000000021300000804000005000000C5
:10849000050000000F000000000000006F6A0000EF
:1084A000070400000428210008040000D100000097
:1084B00000C20100940000000704000080000000DA
:1084C0004C00000004C42100080400000704000060
:1084D000046422000804000005000000D000000031
:1084E0000000000074660000D000000000000000E2
:1084F00074680000D000000000000000746B0000F1
:108500000500000007040000041822000804000011
:108510000704000004F023000804000031C4220016
:10852000E200000001000000DC0000005B6A0000C7
:10853000390000006F6A0000DD0000000500000047
:108540000718000004F0230008180000315423002D
:108550006068000092040000E600000001000000D6
:1085600060680000A100000074680000E6000000E0
:108570003200000060680000BD0000007468000068
:10858000CE00000034000000900600007E040000D1
:10859000D9000000E10000007C060000110100008D
:1085A00090100000071800007C1000004800000038
:1085B00004E0000008180000900000007C000000AB
:1085C000C90000000500000003E42300E6000000ED
:1085D0000100000060680000A80000009206000092
:1085E000E6000000000000007E060000D40000004D
:1085F000319C2300D00000003200000092080000EF
:10860000E6000000010000007E080000A800000055
:1086100092060000CE000000340000009008000028
:108620007E060000D9000000E10000007C08000088
:108630001101000090120000071800007C120000D9
:108640004800000004E0000008180000900000004E
:108650007C000000C900000005000000D1000000FF
:108660000000000005000000DC0000006066000063
:1086700092000000DD00000060680000880000003B
:10868000D70000000500000060680000746B000067
:108690000500000080000000C5000000E1000000AF
:1086A000606B0000A100000092040000E6000000E2
:1086B000320000007E040000BD00000092040000B3
:1086C000CE00000034000000900600007E04000090
:1086D000D9000000E10000007C060000110100004C
:1086E00090100000071400007C10000048000000FB
:1086F00004E0000008140000900B00007C0B000058
:10870000C900000005000000050000009779000086
:1087100005000000767D0000050000000704000051
:10872000041C220008040000D0000000000000002B
:10873000748500000F000000000000006D8700003D
:108740000F000000000000006D8800000500000020
:1087500007280000049024000828000007280000D3
:10876000048C2200082800000728000004F02300E1
:1087700008280000130000003108250003DC2E004B
:10878000E60000000000000060850000D600000048
:1087900031282500072800000410240008280000C4
:1087A0000728000004C8220008280000420000003A
:1087B000DB000000C2000000C00000008D000000CF
:1087C000E60000000100000060850000A10000003C
:1087D00074850000E60000000100000060850000D4
:1087E000D60000008B030000E20000005A000000E9
:1087F0007900000022000000E10000007703000083
:108800001400000031A02500D0000000000000008E
:108810007485000003D82E00E6000000020000006E
:1088200060850000D60000008B030000E20000001D
:10883000550000007900000022000000E100000067
:10884000770300001400000031E42500D000000090
:10885000000000007485000003D82E00E600000030
:108860001D00000060850000D400000031FC2500E0
:1088700003D82E00D0000000000000007485000026
:10888000D100000000000000940100000728000053
:10889000800100004C000000041C24000828000097
:1088A00042000000DB000000C2000000C000000029
:1088B0008D010000D10000000100000094020000C2
:1088C00007280000800200004C000000041C240067
:1088D0000828000042000000DB000000C200000089
:1088E000C00000008D020000D10000000200000066
:1088F0009403000007280000800300004C000000E3
:10890000041C240008280000420000009407000016
:10891000D1000000030000009403000007280000BD
:10892000800300004C000000041C24000828000004
:1089300042000000940B0000D10000000400000081
:108940009403000007280000800300004C00000092
:10895000041C24000828000042000000940F0000BE
:10896000D10000000500000094030000072800006B
:10897000800300004C000000041C240008280000B4
:1089800042000000DB000000C2000000C000000048
:1089900072890000D100000006000000940300006E
:1089A00007280000800300004C000000041C240085
:1089B0000828000042000000DB000000C2000000A8
:1089C000C0000000E1000000DC0000005E89000043
:1089D0003D08000072890000DD000000D1000000A9
:1089E0000700000094030000072800008003000037
:1089F0004C000000041C2400082800004200000075
:108A0000DB000000C2000000C0000000E100000028
:108A1000DC0000005E8900003D100000728900004B
:108A2000DD000000D10000000800000094030000F9
:108A300007280000800300004C000000041C2400F4
:108A40000828000042000000DB000000C200000017
:108A5000C0000000E1000000DC0000005E890000B2
:108A60003D18000072890000DD000000D100000008
:108A700009000000940300000728000080030000A4
:108A80004C000000041C24000828000042000000E4
:108A9000DB000000C2000000C0000000728D00007A
:108AA000D10000000A000000940300000728000025
:108AB000800300004C000000041C24000828000073
:108AC00042000000DB000000C2000000C000000007
:108AD000E1000000DC0000005E8D00003D080000A9
:108AE000728D0000DD000000D10000000B000000CE
:108AF0009403000007280000800300004C000000E1
:108B0000041C24000828000042000000DB000000D4
:108B1000C2000000C0000000E1000000DC00000016
:108B20005E8D00003D100000728D0000DD00000031
:108B3000D10000000C000000940300000728000092
:108B4000800300004C000000041C240008280000E2
:108B500042000000DB000000C2000000C000000076
:108B6000E1000000DC0000005E8D00003D18000008
:108B7000728D0000DD000000D10000000D0000003B
:108B80009403000007280000800300004C00000050
:108B9000041C24000828000042000000DB00000044
:108BA000C2000000C000000072910000D10000006F
:108BB0000E0000009403000007280000800300005E
:108BC0004C000000041C24000828000042000000A3
:108BD000DB000000C2000000C0000000E100000057
:108BE000DC0000005E9100003D0800007291000072
:108BF000DD000000D10000000F0000009403000021
:108C000007280000800300004C000000041C240022
:108C10000828000042000000DB000000C200000045
:108C2000C0000000E1000000DC0000005E910000D8
:108C30003D10000072910000DD000000D100000036
:108C400010000000940300000728000080030000CB
:108C50004C000000041C2400082800004200000012
:108C6000DB000000C2000000C0000000E1000000C6
:108C7000DC0000005E9100003D18000072910000D1
:108C8000DD000000D100000011000000940300008E
:108C900007280000800300004C000000041C240092
:108CA0000828000042000000DB000000C2000000B5
:108CB000C000000072950000D1000000120000000A
:108CC0009403000007280000800300004C0000000F
:108CD000041C24000828000042000000DB00000003
:108CE000C2000000C0000000E1000000DC00000045
:108CF0005E9500003D08000072950000DD00000058
:108D0000D1000000130000009403000007280000B9
:108D1000800300004C000000041C24000828000010
:108D200042000000DB000000C2000000C0000000A4
:108D3000E1000000DC0000005E9500003D10000036
:108D400072950000DD000000D1000000140000005A
:108D50009403000007280000800300004C0000007E
:108D6000041C24000828000042000000DB00000072
:108D7000C2000000C0000000E1000000DC000000B4
:108D80005E9500003D18000072950000DD000000B7
:108D9000D100000015000000940300000728000027
:108DA000800300004C000000041C24000828000080
:108DB00042000000DB000000C2000000C000000014
:108DC00072990000D100000016000000940300001A
:108DD00007280000800300004C000000041C240051
:108DE0000828000042000000DB000000C200000074
:108DF000C0000000E1000000DC0000005E990000FF
:108E00003D08000072990000DD000000D100000064
:108E100017000000940300000728000080030000F2
:108E20004C000000041C2400082800004200000040
:108E3000DB000000C2000000C0000000E1000000F4
:108E4000DC0000005E9900003D10000072990000F7
:108E5000DD000000D10000001800000094030000B5
:108E600007280000800300004C000000041C2400C0
:108E70000828000042000000DB000000C2000000E3
:108E8000C0000000E1000000DC0000005E9900006E
:108E90003D18000072990000DD000000D1000000C4
:108EA0001900000094030000072800008003000060
:108EB0004C000000041C24000828000042000000B0
:108EC000DB000000C2000000C0000000729D000036
:108ED000D10000001A0000009403000007280000E1
:108EE000800300004C000000041C2400082800003F
:108EF00042000000DB000000C2000000C0000000D3
:108F0000E1000000DC0000005E9D00003D08000064
:108F1000729D0000DD000000D10000001B00000079
:108F20009403000007280000800300004C000000AC
:108F3000041C24000828000042000000DB000000A0
:108F4000C2000000C0000000E1000000DC000000E2
:108F50005E9D00003D100000729D0000DD000000DD
:108F6000D10000001C00000094030000072800004E
:108F7000800300004C000000041C240008280000AE
:108F800042000000DB000000C2000000C000000042
:108F9000E1000000DC0000005E9D00003D180000C4
:108FA000729D0000DD000000E700000000000000EE
:108FB00080070000D600000031A82E00E700000066
:108FC00000000000800B0000D6000000316C2D0076
:108FD000E700000000000000800F0000D700000044
:108FE0006D870000E700000001000000800B00001A
:108FF000D600000031742E00CE0000008000010079
:1090000090030000800F0000DB000000E100000082
:109010007C030000110400009017000007280000E6
:109020007C17000048000000040801000828000028
:10903000727900005E890000C900000094030000FE
:109040005E8D0000C9000000941300005E910000D6
:10905000C9000000941700005E950000C9000000E0
:10906000941B00005E990000C9000000941F0000DE
:109070005E9D0000C9000000942300000728000046
:10908000800300004C000000801300004C00000032
:10909000801700004C000000801B00004C00000006
:1090A000801F00004C000000802300004C000000E6
:1090B000049424000828000007280000049C2400D1
:1090C00008280000CD000000FFFF00008E03000014
:1090D000072800007A03000046000000627D0000BF
:1090E0004C00000004E02E0008280000E70000000B
:1090F00002000000800B0000D600000031A42E000A
:10910000E700000000000000800F0000D700000012
:109110006D880000598800006DBA000003D82E0049
:10912000E70000000100000080070000D6000000FA
:1091300031C02E0003D82E00E7000000020000001E
:1091400080070000D600000031D82E0003D82E0082
:1091500003F02400050000000F000000AA0000003A
:109160008D060000070C0000790600004500000095
:1091700004943000080C0000E3000000000100002F
:109180007A000000B9000000C00000008D06000059
:10919000070C000079060000450000000494300030
:1091A000080C0000E3000000000100007A0000004D
:1091B000B2000000C00000008D060000070C000097
:1091C000790600004500000004943000080C0000FF
:1091D000070C0000800200004C0000000404300076
:1091E000080C00007A000000370800008D0600001F
:1091F0007A00000037000000830600009C00000099
:109200008D0800005E81000036000000E1000000D3
:10921000790800009C0000008D0700005E810000BE
:1092200036080000E1000000790700009C00000003
:109230008D0800005E81000036100000E100000093
:10924000790800009C0000008D0700005E8100008E
:1092500036180000E1000000790700009C000000C3
:109260008D060000070C0000790600004500000094
:1092700004943000080C000005000000800000008D
:10928000DB000000728100005E81000036000000FB
:109290008D0400000708000079040000450000006C
:1092A00004943000080800005E81000036080000C9
:1092B0008D0400000708000079040000450000004C
:1092C00004943000080800005E81000036100000A1
:1092D0008D0400000708000079040000450000002C
:1092E00004943000080800005E8100003618000079
:1092F0008D0400000708000079040000450000000C
:109300000494300008080000050000007900000007
:10931000C600000091010000070400007D0100006C
:109320004900000004E821000804000005000000D6
:109330000500000005000000050000000F0000000F
:10934000010000006DB900000F00000000000000E7
:109350006DBA00000500000059BA000031EC300081
:10936000050000000F000000000000008D0100005B
:10937000E200000002000000790100001F00000070
:1093800031543200CE000000B50000009002000011
:1093900079010000E10000007C02000011010000E2
:1093A000900A0000071000007C0A0000480000003E
:1093B00004E0000008100000313C3200CE00000044
:1093C000AD0000009002000079010000E100000003
:1093D0007C02000011040000900A00000710000049
:1093E0007C0A00004800000004080100081000008A
:1093F000420000006C000000AA000000940600007B
:10940000071000007C0A00004800000080060000F1
:109410004C0000000420010008100000CE000000F5
:10942000AD0000009002000079010000E1000000A2
:109430007C02000011040000900A0000D10000002E
:109440000000000094020000071000007C0A0000E9
:10945000480000000408010008100000420000005D
:109460008A020000D5000000313C3200CE0000002E
:10947000B50000009002000079010000E10000004A
:109480007C02000011010000900A00000F000000A3
:10949000000000008B000000071000007C0A0000A4
:1094A00048000000770000004400000004F80000BD
:1094B00008100000E2000000010000007901000037
:1094C0009C0000008D01000003F830000500000042
:1094D00062000000DB000000C200000070D000004D
:1094E0000F000000000000006FBF00000708000030
:1094F00004283300080800000708000004C43000F6
:1095000008080000050000000A00000002DB00005F
:1095100007080000042437000808000007080000BE
:1095200004103500080800005CCE000066D0000082
:109530009D00000070CE0000E30000000A00000063
:109540005CCE00001E00000031F43200E300000099
:109550000A0000005CCE0000A400000070CE0000F5
:109560000708000004403B00080800005CD0000031
:10957000E10000005EBB00009F00000072BB000025
:109580005CD00000C0000000E10000005BD20000E1
:109590009C0000006FD200000B00000006000000DD
:1095A0000F000000000000006FCC00000F00000062
:1095B000000000008D010000E20000000200000039
:1095C000790100001F00000031443400CE0000008B
:1095D000C00000009002000079010000E1000000DE
:1095E0007C02000011010000900A00000F00000042
:1095F000000000008D000000071000007C0A000041
:1096000048000000790000004500000004F8000058
:1096100008100000CE000000C20000009002000010
:1096200079010000E10000007C020000110100004F
:10963000900A00000F000000000000008D000000F4
:10964000071000007C0A00004800000079000000BC
:109650004500000004F8000008100000CE000000E3
:10966000C40000009002000079010000E100000049
:109670007C02000011040000900A0000CE000000EF
:109680000000000090020000071000007C0A0000AB
:10969000480000007C020000480000000420010097
:1096A00008100000E2000000010000007901000045
:1096B0009C0000008D010000034033000F000000FB
:1096C000000000006FCD00000500000062000000F7
:1096D000DB000000C2000000C00000008D0600009A
:1096E00079040000830600001F0000003180340070
:1096F000790600008D040000CE000000C4000000C8
:10970000900700005BCC0000E10000007C07000037
:1097100011040000900F0000071400007C0F0000EF
:10972000480000007C000000480000000420010008
:1097300008140000CE000000C200000090070000E6
:109740005BCC0000E10000007C070000110100007C
:10975000900F0000071400007C0F0000480000007C
:10976000790400004500000004F80000081400001F
:10977000E2000000010000005BCC00009C00000043
:109780006FCC00000500000062000000DB0000005C
:10979000C2000000C00000008D0100000F000000AA
:1097A000000000008D0200007902000065CC00007E
:1097B0001F00000031143700CE000000C000000080
:1097C0009003000079020000E10000007C0300002B
:1097D00011010000900B0000071400007C0B00003A
:1097E0004800000004E000000814000083010000AD
:1097F0009C0000008D030000071400007C0B00009B
:1098000048000000790300004500000004F8000053
:1098100008140000CE000000C0000000900300000B
:1098200079020000E10000007C030000110100004B
:10983000900B0000CE000000C2000000900300006A
:1098400079020000E10000007C030000110100002B
:10985000900F0000071400007C0B0000480000007F
:1098600004E00000081400008D0000000714000050
:109870007C0F00004800000004E000000814000015
:10988000E1000000790000001E00000031FC3600FD
:10989000CE000000C000000090030000790200002C
:1098A000E10000007C03000011010000900B0000AB
:1098B000CE000000C200000090030000790200000A
:1098C000E10000007C03000011010000900F000087
:1098D000071400007C0B00004800000004E00000BA
:1098E000081400008D000000071400007C0F000029
:1098F0004800000004E0000008140000E10000003F
:1099000079000000190000008D0400000714000019
:109910007C0B0000480000007904000045000000B6
:1099200004F8000008140000CE000000C40000008D
:109930009003000079020000E10000007C030000B9
:1099400011040000900B0000071400007C0B0000C5
:109950004800000004080100081400009003000003
:10996000071400007C0300004800000004A8370032
:1099700008140000E200000001000000790200006D
:109980009C0000008D020000033035000714000029
:1099900004E0300008140000050000000F00000083
:1099A000000000008D0100007901000065CD00007D
:1099B0001F00000031A43700CE00000000000000AE
:1099C0009002000079010000E10000007C0200002C
:1099D00011040000900A0000071000007C0A00003B
:1099E0004800000004080100081000009002000078
:1099F000071000007C0200004800000004A83700A7
:109A000008100000E20000000100000079010000E1
:109A10009C0000008D0100000330370005000000AD
:109A20007C00000072D3000097D300000500000006
:109A3000D100000011000000940000000F000000A1
:109A4000010000008B0400000708000080000000F7
:109A50004C000000770400004400000001000000FA
:109A600001000000080800000600000005000000DA
:109A70000704000004243800080400000F00000060
:109A800001000000312038000704000004DC380029
:109A9000080400000304380005000000070400006B
:109AA00004443B000804000007040000045832008E
:109AB000080400000704000004300100080400004E
:109AC0000704000004480800080400000704000020
:109AD00004240900080400000704000004D00A0060
:109AE0000804000007040000047C0C0008040000C7
:109AF00098CC090090000000070400007C000000E2
:109B0000480000005B2A00004500000004543400B7
:109B10000804000098780B00900000000704000083
:109B20007C000000480000005B2F000045000000A2
:109B300004543400080400000704000004A42400B6
:109B4000080400000704000004B8370008040000FF
:109B5000050000000F000000010000008C00000064
:109B60005B2700003300000082000000210000009D
:109B700031643900E200000000000000DC00000059
:109B80005B270000390000006F270000DD000000A7
:109B9000598800001300000063D900001400000081
:109BA0008B010000E2000000000000005BDA000012
:109BB00021000000E1000000770100001400000017
:109BC000316439000F000000010000006FDA00006E
:109BD0000704000004C83A00080400000F00000059
:109BE000010000008C0000005B2C0000330000002E
:109BF000820000002100000031EC3900E20000008A
:109C000000000000DC0000005B2C000039000000B8
:109C10006F2C0000DD0000005988000013000000D8
:109C200063D70000140000008B010000E200000078
:109C3000000000005BD8000021000000E1000000EF
:109C4000770100001400000031EC39000F00000023
:109C5000010000006FD8000007040000048C3A00E7
:109C60000804000007040000045C01000804000070
:109C70000704000004640800080400000704000052
:109C800004D8240008040000E20000006400000082
:109C90005BD200001D000000E100000059870000B9
:109CA00014000000313C3A000F00000000000000EA
:109CB0006FD20000E2000000000000005BD800004E
:109CC00022000000315C3A0007040000048C3A00D6
:109CD00008040000E2000000000000005BDA000061
:109CE00022000000317C3A000704000004C83A005A
:109CF000080400000F000000010000006F040000D5
:109D00000500000003AC3A0007040000048C0C00BE
:109D1000080400000F000000000000006FD80000E1
:109D200005000000E2000000010000005BD8000018
:109D30002100000031C43A0003903A000500000001
:109D400003243B00CE000000C00001009000000092
:109D5000D10000000000000094040000D1000000C9
:109D60000000000094080000070C00007C000000C8
:109D700048000000800400004C0000008008000043
:109D80004C000000049C0C00080C00000F000000B8
:109D9000000000006FDA000005000000E200000093
:109DA000010000005BDA000021000000313C3B00B4
:109DB00003CC3A0005000000050000000F00000081
:109DC000000000006FD800000F000000010000003C
:109DD0006DD700000F000000000000006FDA0000E7
:109DE0000F000000010000006DD90000D10000004C
:109DF0000A00000076000000D100000000200000F2
:109E00007605000005000000903B0000943B000038
:109E1000983B00009C3B0000A03B0000A43B0000DE
:109E2000A83B0000AC3B0000B03B0000B43B00008E
:109E3000B83B0000BC3B0000C03B0000C43B00003E
:109E4000C83B0000CC3B0000D03B0000D43B0000EE
:109E5000D83B0000DC3B0000E03B0000E43B00009E
:109E6000E83B0000EC3B0000F03B0000F43B00004E
:109E7000F83B0000FC3B0000003C0000043C0000FC
:109E8000083C00000C3C0000103C0000143C0000AA
:109E9000183C00001C3C0000203C0000243C00005A
:109EA000283C00002C3C0000303C0000343C00000A
:109EB000383C00003C3C0000403C0000443C0000BA
:109EC000483C00004C3C0000503C0000543C00006A
:109ED000583C00005C3C0000603C0000643C00001A
:109EE000683C00006C3C0000703C0000743C0000CA
:109EF000783C00007C3C0000803C0000843C00007A
:109F0000883C00008C3C0000903C0000943C000029
:109F1000983C00009C3C0000A03C0000A43C0000D9
:109F2000A83C0000AC3C0000B03C0000B43C000089
:109F3000B83C0000BC3C0000C03C0000C43C000039
:109F4000C83C0000CC3C0000D03C0000D43C0000E9
:109F5000D83C0000DC3C0000E03C0000E43C000099
:109F6000E83C0000EC3C0000F03C0000F43C000049
:109F7000F83C0000FC3C0000003D0000043D0000F7
:109F8000083D00000C3D0000103D0000143D0000A5
:109F9000183D00001C3D0000203D0000243D000055
:109FA000283D00002C3D0000303D0000343D000005
:109FB000383D00003C3D0000403D0000443D0000B5
:109FC000483D00004C3D0000503D0000543D000065
:109FD000583D00005C3D0000603D0000643D000015
:109FE000683D00006C3D0000703D0000743D0000C5
:109FF000783D00007C3D0000803D0000843D000075
:10A00000883D00008C3D0000903D0000943D000024
:10A01000983D00009C3D0000A03D0000A43D0000D4
:10A02000A83D0000AC3D0000B03D0000B43D000084
:10A03000B83D0000BC3D0000C03D0000C43D000034
:10A04000C83D0000CC3D0000D03D0000D43D0000E4
:10A05000D83D0000DC3D0000E03D0000E43D000094
:10A06000E83D0000EC3D0000F03D0000F43D000044
:10A07000F83D0000FC3D0000003E0000043E0000F2
:10A08000083E00000C3E0000103E0000143E0000A0
:10A09000183E00001C3E0000203E0000243E000050
:10A0A000283E00002C3E0000303E0000343E000000
:10A0B000383E00003C3E0000403E0000443E0000B0
:10A0C000483E00004C3E0000503E0000543E000060
:10A0D000583E00005C3E0000603E0000643E000010
:10A0E000683E00006C3E0000703E0000743E0000C0
:10A0F000783E00007C3E0000803E0000843E000070
:10A10000883E00008C3E0000903E0000943E00001F
:10A11000983E00009C3E0000A03E0000A43E0000CF
:10A12000A83E0000AC3E0000B03E0000B43E00007F
:10A13000B83E0000BC3E0000C03E0000C43E00002F
:10A14000C83E0000CC3E0000D03E0000D43E0000DF
:10A15000D83E0000DC3E0000E03E0000E43E00008F
:10A16000E83E0000EC3E0000F03E0000F43E00003F
:10A17000F83E0000FC3E0000003F0000043F0000ED
:10A18000083F00000C3F0000103F0000143F00009B
:10A19000183F00001C3F0000203F0000243F00004B
:10A1A000283F00002C3F0000303F0000343F0000FB
:10A1B000383F00003C3F0000403F0000443F0000AB
:10A1C000483F00004C3F0000503F0000543F00005B
:10A1D000583F00005C3F0000603F0000643F00000B
:10A1E000683F00006C3F0000703F0000743F0000BB
:10A1F000783F00007C3F0000803F0000843F00006B
:10A20000883F00008C3F0000903F0000943F00001A
:10A21000983F00009C3F0000A03F0000A43F0000CA
:10A22000A83F0000AC3F0000B03F0000B43F00007A
:10A23000B83F0000BC3F0000C03F0000C43F00002A
:10A24000C83F0000CC3F0000D03F0000D43F0000DA
:10A25000D83F0000DC3F0000E03F0000E43F00008A
:10A26000E83F0000EC3F0000F03F0000F43F00003A
:10A27000F83F0000FC3F00000040000004400000E8
:10A28000084000000C400000104000001440000096
:10A29000184000001C400000204000002440000046
:10A2A000284000002C4000003040000034400000F6
:10A2B000384000003C4000004040000044400000A6
:10A2C000484000004C400000504000005440000056
:10A2D000584000005C400000604000006440000006
:10A2E000684000006C4000007040000074400000B6
:10A2F000784000007C400000804000008440000066
:10A30000884000008C400000904000009440000015
:10A31000984000009C400000A0400000A4400000C5
:10A32000A8400000AC400000B0400000B440000075
:10A33000B8400000BC400000C0400000C440000025
:10A34000C8400000CC400000D0400000D4400000D5
:10A35000D8400000DC400000E0400000E440000085
:10A36000E8400000EC400000F0400000F440000035
:10A37000F8400000FC4000000041000004410000E3
:10A38000084100000C410000104100001441000091
:10A39000184100001C410000204100002441000041
:10A3A000284100002C4100003041000034410000F1
:10A3B000384100003C4100004041000044410000A1
:10A3C000484100004C410000504100005441000051
:10A3D000584100005C410000604100006441000001
:10A3E000684100006C4100007041000074410000B1
:10A3F000784100007C410000804100008441000061
:10A40000884100008C410000904100009441000010
:10A41000984100009C410000A0410000A4410000C0
:10A42000A8410000AC410000B0410000B441000070
:10A43000B8410000BC410000C0410000C441000020
:10A44000C8410000CC410000D0410000D4410000D0
:10A45000D8410000DC410000E0410000E441000080
:10A46000E8410000EC410000F0410000F441000030
:10A47000F8410000FC4100000042000004420000DE
:10A48000084200000C42000010420000144200008C
:10A49000184200001C42000020420000244200003C
:10A4A000284200002C4200003042000034420000EC
:10A4B000384200003C42000040420000444200009C
:10A4C000484200004C42000050420000544200004C
:10A4D000584200005C4200006042000064420000FC
:10A4E000684200006C4200007042000074420000AC
:10A4F000784200007C42000080420000844200005C
:10A50000884200008C42000090420000944200000B
:10A51000984200009C420000A0420000A4420000BB
:10A52000A8420000AC420000B0420000B44200006B
:10A53000B8420000BC420000C0420000C44200001B
:10A54000C8420000CC420000D0420000D4420000CB
:10A55000D8420000DC420000E0420000E44200007B
:10A56000E8420000EC420000F0420000F44200002B
:10A57000F8420000FC4200000043000004430000D9
:10A58000084300000C430000104300001443000087
:10A59000184300001C430000204300002443000037
:10A5A000284300002C4300003043000034430000E7
:10A5B000384300003C430000404300004443000097
:10A5C000484300004C430000504300005443000047
:10A5D000584300005C4300006043000064430000F7
:10A5E000684300006C4300007043000074430000A7
:10A5F000784300007C430000804300008443000057
:10A60000884300008C430000904300009443000006
:10A61000984300009C430000A0430000A4430000B6
:10A62000A8430000AC430000B0430000B443000066
:10A63000B8430000BC430000C0430000C443000016
:10A64000C8430000CC430000D0430000D4430000C6
:10A65000D8430000DC430000E0430000E443000076
:10A66000E8430000EC430000F0430000F443000026
:10A67000F8430000FC4300000044000004440000D4
:10A68000084400000C440000104400001444000082
:10A69000184400001C440000204400002444000032
:10A6A000284400002C4400003044000034440000E2
:10A6B000384400003C440000404400004444000092
:10A6C000484400004C440000504400005444000042
:10A6D000584400005C4400006044000064440000F2
:10A6E000684400006C4400007044000074440000A2
:10A6F000784400007C440000804400008444000052
:10A70000884400008C440000904400009444000001
:10A71000984400009C440000A0440000A4440000B1
:10A72000A8440000AC440000B0440000B444000061
:10A73000B8440000BC440000C0440000C444000011
:10A74000C8440000CC440000D0440000D4440000C1
:10A75000D8440000DC440000E0440000E444000071
:10A76000E8440000EC440000F0440000F444000021
:10A77000F8440000FC4400000045000004450000CF
:10A78000084500000C45000010450000144500007D
:10A79000184500001C45000020450000244500002D
:10A7A000284500002C4500003045000034450000DD
:10A7B000384500003C45000040450000444500008D
:10A7C000484500004C45000050450000544500003D
:10A7D000584500005C4500006045000064450000ED
:10A7E000684500006C45000070450000744500009D
:10A7F000784500007C45000080450000844500004D
:10A80000884500008C4500009045000094450000FC
:10A81000984500009C450000A0450000A4450000AC
:10A82000A8450000AC450000B0450000B44500005C
:10A83000B8450000BC450000C0450000C44500000C
:10A84000C8450000CC450000D0450000D4450000BC
:10A85000D8450000DC450000E0450000E44500006C
:10A86000E8450000EC450000F0450000F44500001C
:10A87000F8450000FC4500000046000004460000CA
:10A88000084600000C460000104600001446000078
:10A89000184600001C460000204600002446000028
:10A8A000284600002C4600003046000034460000D8
:10A8B000384600003C460000404600004446000088
:10A8C000484600004C460000504600005446000038
:10A8D000584600005C4600006046000064460000E8
:10A8E000684600006C460000704600007446000098
:10A8F000784600007C460000804600008446000048
:10A90000884600008C4600009046000094460000F7
:10A91000984600009C460000A0460000A4460000A7
:10A92000A8460000AC460000B0460000B446000057
:10A93000B8460000BC460000C0460000C446000007
:10A94000C8460000CC460000D0460000D4460000B7
:10A95000D8460000DC460000E0460000E446000067
:10A96000E8460000EC460000F0460000F446000017
:10A97000F8460000FC4600000047000004470000C5
:10A98000084700000C470000104700001447000073
:10A99000184700001C470000204700002447000023
:10A9A000284700002C4700003047000034470000D3
:10A9B000384700003C470000404700004447000083
:10A9C000484700004C470000504700005447000033
:10A9D000584700005C4700006047000064470000E3
:10A9E000684700006C470000704700007447000093
:10A9F000784700007C470000804700008447000043
:10AA0000884700008C4700009047000094470000F2
:10AA1000984700009C470000A0470000A4470000A2
:10AA2000A8470000AC470000B0470000B447000052
:10AA3000B8470000BC470000C0470000C447000002
:10AA4000C8470000CC470000D0470000D4470000B2
:10AA5000D8470000DC470000E0470000E447000062
:10AA6000E8470000EC470000F0470000F447000012
:10AA7000F8470000FC4700000048000004480000C0
:10AA8000084800000C48000010480000144800006E
:10AA9000184800001C48000020480000244800001E
:10AAA000284800002C4800003048000034480000CE
:10AAB000384800003C48000040480000444800007E
:10AAC000484800004C48000050480000544800002E
:10AAD000584800005C4800006048000064480000DE
:10AAE000684800006C48000070480000744800008E
:10AAF000784800007C48000080480000844800003E
:10AB0000884800008C4800009048000094480000ED
:10AB1000984800009C480000A0480000A44800009D
:10AB2000A8480000AC480000B0480000B44800004D
:10AB3000B8480000BC480000C0480000C4480000FD
:10AB4000C8480000CC480000D0480000D4480000AD
:10AB5000D8480000DC480000E0480000E44800005D
:10AB6000E8480000EC480000F0480000F44800000D
:10AB7000F8480000FC4800000049000004490000BB
:10AB8000084900000C490000104900001449000069
:10AB9000184900001C490000204900002449000019
:10ABA000284900002C4900003049000034490000C9
:10ABB000384900003C490000404900004449000079
:10ABC000484900004C490000504900005449000029
:10ABD000584900005C4900006049000064490000D9
:10ABE000684900006C490000704900007449000089
:10ABF000784900007C490000804900008449000039
:10AC0000884900008C4900009049000094490000E8
:10AC1000984900009C490000A0490000A449000098
:10AC2000A8490000AC490000B0490000B449000048
:10AC3000B8490000BC490000C0490000C4490000F8
:10AC4000C8490000CC490000D0490000D4490000A8
:10AC5000D8490000DC490000E0490000E449000058
:10AC6000E8490000EC490000F0490000F449000008
:10AC7000F8490000FC490000004A0000044A0000B6
:10AC8000084A00000C4A0000104A0000144A000064
:10AC9000184A00001C4A0000204A0000244A000014
:10ACA000284A00002C4A0000304A0000344A0000C4
:10ACB000384A00003C4A0000404A0000444A000074
:10ACC000484A00004C4A0000504A0000544A000024
:10ACD000584A00005C4A0000604A0000644A0000D4
:10ACE000684A00006C4A0000704A0000744A000084
:10ACF000784A00007C4A0000804A0000844A000034
:10AD0000884A00008C4A0000904A0000944A0000E3
:10AD1000984A00009C4A0000A04A0000A44A000093
:10AD2000A84A0000AC4A0000B04A0000B44A000043
:10AD3000B84A0000BC4A0000C04A0000C44A0000F3
:10AD4000C84A0000CC4A0000D04A0000D44A0000A3
:10AD5000D84A0000DC4A0000E04A0000E44A000053
:10AD6000E84A0000EC4A0000F04A0000F44A000003
:10AD7000F84A0000FC4A0000004B0000044B0000B1
:10AD8000084B00000C4B0000104B0000144B00005F
:10AD9000184B00001C4B0000204B0000244B00000F
:10ADA000284B00002C4B0000304B0000344B0000BF
:10ADB000384B00003C4B0000404B0000444B00006F
:10ADC000484B00004C4B0000504B0000544B00001F
:10ADD000584B00005C4B0000604B0000644B0000CF
:10ADE000684B00006C4B0000704B0000744B00007F
:10ADF000784B00007C4B0000804B0000844B00002F
:10AE0000884B00008C4B0000904B0000944B0000DE
:10AE1000984B00009C4B0000A04B0000A44B00008E
:10AE2000A84B0000AC4B0000B04B0000B44B00003E
:10AE3000B84B0000BC4B0000C04B0000C44B0000EE
:10AE4000C84B0000CC4B0000D04B0000D44B00009E
:10AE5000D84B0000DC4B0000E04B0000E44B00004E
:10AE6000E84B0000EC4B0000F04B0000F44B0000FE
:10AE7000F84B0000FC4B0000004C0000044C0000AC
:10AE8000084C00000C4C0000104C0000144C00005A
:10AE9000184C00001C4C0000204C0000244C00000A
:10AEA000284C00002C4C0000304C0000344C0000BA
:10AEB000384C00003C4C0000404C0000444C00006A
:10AEC000484C00004C4C0000504C0000544C00001A
:10AED000584C00005C4C0000604C0000644C0000CA
:10AEE000684C00006C4C0000704C0000744C00007A
:10AEF000784C00007C4C0000804C0000844C00002A
:10AF0000884C00008C4C0000904C0000944C0000D9
:10AF1000984C00009C4C0000A04C0000A44C000089
:10AF2000A84C0000AC4C0000B04C0000B44C000039
:10AF3000B84C0000BC4C0000C04C0000C44C0000E9
:10AF4000C84C0000CC4C0000D04C0000D44C000099
:10AF5000D84C0000DC4C0000E04C0000E44C000049
:10AF6000E84C0000EC4C0000F04C0000F44C0000F9
:10AF7000F84C0000FC4C0000004D0000044D0000A7
:10AF8000084D00000C4D0000104D0000144D000055
:10AF9000184D00001C4D0000204D0000244D000005
:10AFA000284D00002C4D0000304D0000344D0000B5
:10AFB000384D00003C4D0000404D0000444D000065
:10AFC000484D00004C4D0000504D0000544D000015
:10AFD000584D00005C4D0000604D0000644D0000C5
:10AFE000684D00006C4D0000704D0000744D000075
:10AFF000784D00007C4D0000804D0000844D000025
:10B00000884D00008C4D0000904D0000944D0000D4
:10B01000984D00009C4D0000A04D0000A44D000084
:10B02000A84D0000AC4D0000B04D0000B44D000034
:10B03000B84D0000BC4D0000C04D0000C44D0000E4
:10B04000C84D0000CC4D0000D04D0000D44D000094
:10B05000D84D0000DC4D0000E04D0000E44D000044
:10B06000E84D0000EC4D0000F04D0000F44D0000F4
:10B07000F84D0000FC4D0000004E0000044E0000A2
:10B08000084E00000C4E0000104E0000144E000050
:10B09000184E00001C4E00000000000000000000E0
:10B0A0000000000015440000D5470000653B00008B
:10B0B000B33E0000713E00009B3E00007B3E00005E
:10B0C0008B3E00009D3D0000B33E00009740000015
:10B0D00095400000B53E0000F13E00002D3F00000D
:10B0E000493B0000933F00001540000000000000B5
:10B0F0000000000015440000D5470000A14B0000EF
:10B10000B33E0000713E00009B3E00007B3E00000D
:10B110008B3E00009D3D0000B33E000097400000C4
:10B1200095400000B53E0000F13E00002D3F0000BC
:10B13000793F0000933F0000154000000000000030
:10B14000003E5B4F5B3E3E6B4F6B3E1C3E7C3E1CAD
:10B15000183C7E3C181C577D571C1C5E7F5E1C00F3
:10B16000183C1800FFE7C3E7FF0018241800FFE7AA
:10B17000DBE7FF30483A060E2629792926407F056D
:10B180000507407F05253F5A3CE73C5A7F3E1C1C83
:10B1900008081C1C3E7F14227F22145F5F005F5F43
:10B1A00006097F017F006689956A6060606060942F
:10B1B000A2FFA29408047E040810207E2010080834
:10B1C0002A1C08081C2A08081E101010100C1E0C3F
:10B1D0001E0C30383E3830060E3E0E0600000000D1
:10B1E0000000005F00000007000700147F147F14B8
:10B1F000242A7F2A122313086462364956205000FD
:10B2000008070300001C2241000041221C002A1CE8
:10B210007F1C2A08083E08080080703000080808D3
:10B220000808000060600020100804023E514945F3
:10B230003E00427F400072494949462141494D3311
:10B240001814127F1027454545393C4A4949314178
:10B25000211109073649494936464949291E000046
:10B26000140000004034000000081422411414149B
:10B270001414004122140802015909063E415D5987
:10B280004E7C1211127C7F494949363E4141412290
:10B290007F4141413E7F494949417F090909013EBA
:10B2A000414151737F0808087F00417F41002040E1
:10B2B000413F017F081422417F404040407F021CF3
:10B2C000027F7F0408107F3E4141413E7F0909090A
:10B2D000063E4151215E7F091929462649494932D6
:10B2E00003017F01033F4040403F1F2040201F3F9C
:10B2F0004038403F63140814630304780403615921
:10B30000494D43007F414141020408102000414162
:10B31000417F04020102044040404040000307080E
:10B320000020545478407F2844443838444444280A
:10B33000384444287F385454541800087E090218B1
:10B34000A4A49C787F0804047800447D4000204039
:10B35000403D007F1028440000417F40007C04787D
:10B3600004787C080404783844444438FC182424C5
:10B370001818242418FC7C08040408485454542445
:10B3800004043F44243C4040207C1C2040201C3CC2
:10B390004030403C44281028444C9090907C4464B9
:10B3A000544C44000836410000007700000041364C
:10B3B000080002010204023C2623263C1EA1A161D2
:10B3C000123A4040207A3854545559215555794104
:10B3D0002254547842215554784020545579400CD9
:10B3E0001E527212395555555939545454593955BC
:10B3F0005454580000457C410002457D42000145FF
:10B400007C407D1211127DF0282528F07C54554592
:10B41000002054547C547C0A097F493249494932FE
:10B420003A4444443A324A4848303A4141217A3A0F
:10B4300042402078009DA0A07D3D4242423D3D40DB
:10B4400040403D3C24FF2424487E4943662B2FFC8A
:10B450002F2BFF0929F620C0887E09032054547938
:10B46000410000447D413048484A32384040227A09
:10B47000007A0A0A727D0D19317D2629292F282686
:10B480002929292630484D4020380808080808088E
:10B490000808382F10C8ACBA2F102834FA00007BE7
:10B4A000000008142A142222142A140855005500FA
:10B4B00055AA55AA55AAFF55FF55FF000000FF00E9
:10B4C000101010FF00141414FF001010FF00FF10E4
:10B4D00010F010F0141414FC001414F700FF000016
:10B4E000FF00FF1414F404FC141417101F10101F95
:10B4F000101F1414141F00101010F0000000001F83
:10B50000101010101F10101010F010000000FF108D
:10B510001010101010101010FF10000000FF140089
:10B5200000FF00FF00001F10170000FC04F41414BB
:10B530001710171414F404F40000FF00F714141487
:10B5400014141414F700F7141414171410101F1007
:10B550001F141414F4141010F010F000001F101F2A
:10B560000000001F14000000FC140000F010F01098
:10B5700010FF10FF141414FF141010101F0000000F
:10B5800000F010FFFFFFFFFFF0F0F0F0F0FFFFFF13
:10B590000000000000FFFF0F0F0F0F0F384444386A
:10B5A00044FC4A4A4A347E02020606027E027E02B9
:10B5B00063554941633844443C04407E201E2006C4
:10B5C000027E020299A5E7A5991C2A492A1C4C7201
:10B5D00001724C304A4D4D303048784830BC625A88
:10B5E000463D3E494949007E0101017E2A2A2A2A18
:10B5F0002A44445F444440514A444040444A5140F4
:10B600000000FF0103E080FF000008086B6B0836B4
:10B6100012362436060F090F060000181800000025
:10B620001010003040FF0101001F01011E00191D14
:10B630001712003C3C3C3C000000000000000000F1
:10B64000000000004B450000114500003745000098
:10B650004145000071450000354500005350494305
:10B660006C6173733A3A535049436C617373284E5B
:10B6700052465F5350495F547970652A2C20756992
:10B680006E74385F742C2075696E74385F742C206A
:10B6900075696E74385F742900705F73706920215A
:10B6A0003D204E554C4C00433A5C55736572735CBB
:10B6B00078626432305C417070446174615C4C6FDC
:10B6C00063616C5C41726475696E6F31355C706189
:10B6D000636B616765735C73616E646565706D69EA
:10B6E000737472795C68617264776172655C6E52C2
:10B6F00046355C302E372E305C6C6962726172693F
:10B7000065735C5350495C5350492E637070000060
:10B71000030000000200000001000000040000001F
:10B7200005000000110000000C0000000B000000EC
:10B73000120000000A000000060000001A000000CD
:10B7400014000000170000001600000015000000A3
:10B7500010000000FFFFFFFFFFFFFFFF00000000E1
:10B760001E00000019000000180000000700000083
:10B7700008000000090000000D0000000E0000009D
:10B780000F0000001C0000001B0000001D00000056
:10B7900013000000000000000000000091480000BD
:10B7A000D547000001490000154900000B49000081
:10B7B0008F4800008348000021490000AD48000088
:10B7C0007F4800002C2066756E6374696F6E3A20A6
:10B7D00000617373657274696F6E20222573222075
:10B7E0006661696C65643A2066696C652022257320
:10B7F000222C206C696E65202564257325730A0050
:10B800004300000048000020232D302B2000686CEE
:10B810004C00656667454647003031323334353673
:10B8200037383941424344454600303132333435AC
:10B8300036373839616263646566000000000000D5
:10B8400000000000000000000000000000000000F8
:10B8500000000000000000000000000000000000E8
:10B8600000000000000000000000000000000000D8
:10B8700000000000000000000000000000000000C8
:10B8800000000000000000000000000000000000B8
:10B8900000000000000000000000000000000000A8
:10B8A000D448FF7F01000000000000001A1B1C01AB
:10B8B0000201020103030303030201020302010167
:10B8C000010101030203020303040A1718190907FF
:10B8D000060104020503040506070802090309011D
:10B8E0000807060504030701060200000024F4000F
:10B8F000000000003CB800005CB800007CB800000C
:10B900000000000000000000000000000000000037
:10B9100000B800000000000000000000000000006F
:10B920000000000000000000000000000000000017
:10B930000000000000000000000000000000000007
:10B9400000000000000000000000000000000000F7
:10B95000480000203901000041290000BD450000D9
:10B960001D460000854B00000D0100000000000096
:040000030000464D66
:00000001FF
