:020000020000FC
:040000000C9440001C
:040038000C945606C8
:0E008000F1E0E0E0A0E0F63021F4E33311F40B
:0E008E000C944C00A1930C944300CFEFCDBF17
:0E009C00C8E0CEBFC3E3D6E00C944211E88169
:0E00AA00F981AA81A03019F440810C945D0008
:0E00B80044910895E881F981AA81A03009F0F1
:0E00C60008954C8140830895E881F981AA8154
:0E00D400A03021F4419150810C9472004591AE
:0E00E20054910895E881F981AA81A03009F0B7
:0E00F00008954C815D81419350830895E8810D
:0E00FE00F981AA81A03031F4419151916191B4
:0E010C0070810C948D00459155916591749110
:0E011A000895E881F981AA81A03009F00895C6
:0E0128004C815D816E817F8141935193619383
:10013600708308954427409308014427409309019A
:1001460040E050E060E070E0409304015093050108
:0E015600609306017093070140E0409303019F
:0E01640040E04093020142E34093000140E07E
:0E017200409301014FEFE8940FF46894F89465
:0E018000488340910101888187FF4E7F87FDF3
:0E018E004160409301010EF478944AE04883EA
:0E019C004881442311F40C94DE004A954883F8
:0E01AA00FE013496DF01EF010E94ED01249763
:0E01B8000C94CE004FEFE8940FF46894F89486
:0E01C600488340912400888187FF259887FD9B
:0E01D400259A44B1409324000EF478944427F9
:0E01E200E8940FF46894F89448834091250047
:1001F000888187FF2D9887FD2D9A45B14093250072
:0E0200000EF4789408954FEFE8940FF468948C
:0E020E00F894488340910101888187FF4D7F5D
:0E021C0087FD4260409301010EF4789408952E
:0E022A004FE04883409102018881EFEF4817B2
:0E02380008F4EE274E2F47FF0C942B0140E1F7
:0E0246004883409102018881480F40930201D5
:0E025400089541E04883409102018881480FDF
:100262004093020140910801409547FF0C943A01E6
:1002720008954AE048834091030188810E94411316
:0E028200402F4093030141E049834091030166
:0E0290008981EFEF481708F0EE274E2F47FF49
:0E029E000C9455014FEF48830C9457014427F0
:0E02AC00488341E04983409103018981480F56
:0E02BA00409303014091090147FF0C94750128
:0E02C800E8940FF46894F89440912500888122
:0E02D60087FF2D9887FD2D9A45B14093250096
:0E02E4000EF47894089540E050E060E070E081
:1002F20049835A836B837C834091040150910501A9
:0E030200609106017091070189819A81AB819B
:0E031000BC81EFEF481709F0EE27591709F0EE
:0E031E00EE276A1709F0EE277B1709F0EE278D
:0E032C004E2F47FF0C949E014427409308017A
:0E033A0008954FEF49834091250045FDEFEFF8
:0E03480045FFEE274E2F8981482740954B83B5
:0E0356004427498348818981482740954A837E
:0E0364004B818A81482347FF0C94D80141E069
:0E03720050E060E070E049835A836B837C8327
:1003800040910401509105016091060170910701AF
:0E03900089819A81AB81BC81481B590B6A0B95
:0E039E007B0B40930401509305016093060110
:1003AC0070930701E8940FF46894F8944091250039
:1003BC00888187FF2D9887FD2D9A45B140932500A4
:0E03CC000EF47894089540E0409302010895E5
:0E03DA004AEF48834881442311F40C94030237
:0E03E8004A9548834AEF49834981442311F422
:1003F6000C9401024A9549830C94F8010C94EF0180
:0E04060008954427E8940FF46894F89448830E
:0E04140040912A00888187FF579887FD579AEC
:0E0422004AB140932A000EF478944FEFE8940C
:0E0430000FF46894F894488340912B00888163
:0E043E0087FF5F9887FD5F9A4BB140932B00BC
:10044C000EF4789442E340931B0140E04093190171
:0E045C004FEF40931C0108954091290047FD89
:10046A00EFEF47FFEE274E2F4983409580911C01FD
:0E047A004823488340911C0140954A834981E4
:0E0488008A8148234A834FEF4B8348818B8142
:0E0496004827409547FF0C9461024FEFE89411
:0E04A4000FF46894F8944B83409119018B81FA
:0E04B20087FF4E7F87FD4160409319010EF4D5
:0E04C00078944FEF4B834A818B8148274095FB
:0E04CE0047FF0C947B024FEFE8940FF4689404
:0E04DC00F8944B83409119018B8187FF4D7F6F
:0E04EA0087FD4260409319010EF47894498119
:0E04F80040931C0144274B8349818B81482788
:0E050600409547FF0C948C024FEF40931A0172
:0E0514000C948F02442740931A0108954FEF74
:0E052200E8940FF46894F89448834091270001
:10053000888187FF389887FD389A47B14093270014
:100540000EF47894FE013496DF01EF010E94BD02A3
:0E055000249708954FEFE8940FF46894F89400
:0E055E00488340912800888187FF409887FDE0
:0E056C00409A48B1409328000EF47894089508
:10057A004427E8940FF46894F8944883409128003B
:10058A00888187FF409887FD409A48B140932800A8
:0E059A000EF47894089541E040931D014FEF58
:0E05A8004093370140E050E04A835B8345E01A
:0E05B60050E0488359834A815B818881998196
:0E05C400EFEF481B590B0CF0EE274E2F47FFB0
:0E05D2000C946B034EE151E060E070E04C834E
:0E05E0005D836E837F834A815B816627772768
:0E05EE00488759876A877B874C815D816E81C3
:0E05FC007F8188859985AA85BB85E4E0F0E0C3
:0E060A000E9485134C875D876E877F8740E0D6
:0E06180050E060E070E04C835D836E837F8372
:0E062600FE017096DF014C855D856E857F8537
:0E0634004D935D936D937D934C815D816E813E
:100642007F814D935D936D937D93EF010E948E00A8
:0E065200609742E351E060E070E04C835D830E
:0E0660006E837F834A815B81662777274887F8
:0E066E0059876A877B874C815D816E817F8111
:10067C0088859985AA85BB85E1E0F0E00E94851309
:0E068C004C875D876E877F8744274883FE0179
:0E069A007096DF014C855D856E857F854D93E2
:1006A8005D936D937D9348814D93EF010E945E00A9
:0E06B800609741E050E0488359834A815B819E
:1006C60088819981480F591F4A835B830C94DA020B
:0E06D600089540E050E04A835B8345E050E029
:0E06E400488359834A815B8188819981EFEFB9
:1006F200481B590B0CF0EE274E2F47FF0C949A041F
:0E07020042E351E060E070E04C835D836E8363
:0E0710007F834A815B81662777274887598758
:0E071E006A877B874C815D816E817F81888533
:0E072C009985AA85BB85E1E0F0E00E94851367
:0E073A004C875D876E877F87FE017496DF0116
:0E0748004C855D856E857F854D935D936D9329
:100756007D93EF010E945400649747FF0C948C042C
:0E0766004EE151E060E070E04C835D836E83F5
:0E0774007F834A815B816627772748875987F4
:0E0782006A877B874C815D816E817F818885CF
:0E0790009985AA85BB85E4E0F0E00E94851300
:0E079E004C875D876E877F8741E050E060E00A
:0E07AC0070E04C835D836E837F83FE01749644
:0E07BA00DF014C855D856E857F854D935D93D7
:0E07C8006D937D93EF010E947E0064978C81FB
:0E07D6009D81AE81BF81481B590B6A0B7B0BC6
:0E07E400488B598B6A8B7B8BFE017496DF016C
:0E07F2004C855D856E857F854D935D936D937F
:0E0800007D93488959896A897B894D935D9360
:0E080E006D937D93EF010E948E0064974EE182
:0E081C0051E060E070E04C835D836E837F836B
:0E082A004A815B8166277727488759876A874E
:0E0838007B874C815D816E817F8188859985EB
:0E084600AA85BB85E4E0F0E00E9485134C8794
:0E0854005D876E877F8740E050E060E070E0D7
:0E0862004C835D836E837F83FE017496DF01FD
:0E0870004C855D856E857F854D935D936D9300
:0E087E007D93EF010E947E0064978C819D8126
:0E088C00AE81BF81EFEF481709F0EE27591734
:0E089A0009F0EE276A1709F0EE277B1709F028
:0E08A800EE274E2F47FF0C948C0442E351E0E4
:0E08B60060E070E04C835D836E837F834A8137
:0E08C4005B8166277727488759876A877B877D
:0E08D2004C815D816E817F8188859985AA8524
:0E08E000BB85E1E0F0E00E9485134C875D8748
:0E08EE006E877F8744274883FE017496DF01E2
:0E08FC004C855D856E857F854D935D936D9374
:0E090A007D9348814D93EF010E945E0064973B
:0E09180041E050E0488359834A815B81888129
:0E0926009981480F591F4A835B830C9470031C
:0E093400089541E050E060E070E04C835D8388
:0E0942006E837F83488159816A817B818C811D
:100950009D81AE81BF81EE270E94FB120E940B1386
:0E0960000E9461130E94A7124C835D836E8378
:0E096E007F8340E050E060E070E048875987EA
:0E097C006A877B874C815D816E817F818885D3
:0E098A009985AA85BB85EE27481709F0EFEF87
:0E099800591709F0EFEF6A1709F0EFEF7B1720
:0E09A60009F0EFEF4E2F47FF0C94E804FE011E
:0E09B4007096DF014C815D816E817F814D93D5
:0E09C2005D936D937D93EF010E944505609754
:0E09D0000895488159816A817B814887598743
:0E09DE006A877B874FEF4C83488559856A8571
:0E09EC007B8576FDEFEF76FFEE274E2F8C8198
:0E09FA004827409547FF0C941D054427E894BC
:0E0A08000FF46894F8944C83488559856A85EC
:0E0A16007B858C8187FF7F7B87FD706448871E
:0E0A240059876A877B870EF47894488359833C
:0E0A32006A837B830C94350548EE53E060E048
:0E0A400070E04C835D836E837F834881598113
:100A4E006A817B818C819D81AE81BF810E94221340
:0E0A5E00A801B901488359836A837B83FE0196
:0E0A6C007096DF01488159816A817B814D932C
:0E0A7A005D936D937D93EF010E949B04609746
:0E0A880008954EE151E060E070E04C835D8324
:0E0A96006E837F834091570550915805662767
:0E0AA4007727488759876A877B874C815D8159
:0E0AB2006E817F8188859985AA85BB85E4E0E9
:0E0AC000F0E00E9485134C875D876E877F876C
:0E0ACE00FE017096DF014C855D856E857F858B
:0E0ADC004D935D936D937D93488159816A819E
:100AEA007B814D935D936D937D93EF010E948E0000
:0E0AFA00609742E351E060E070E04C835D8362
:0E0B08006E837F8340915705509158056627F4
:0E0B16007727488759876A877B874C815D81E6
:0E0B24006E817F8188859985AA85BB85E1E079
:0E0B3200F0E00E9485134C875D876E877F87F9
:0E0B40004FEF4C83FE017096DF014C855D8502
:0E0B4E006E857F854D935D936D937D934C81F5
:0E0B5C004D93EF010E945E00609742E351E06E
:100B6A0060E070E04C835D836E837F83409157051C
:0E0B7A005091580566277727488759876A8764
:0E0B88007B874C815D816E817F818885998598
:0E0B9600AA85BB85E1E0F0E00E9485134C8744
:0E0BA4005D876E877F87FE017096DF014C85AE
:0E0BB2005D856E857F854D935D936D937D937C
:0E0BC000EF010E945400609747FF0C94F5056A
:0E0BCE004091370147FF0C94F305FE0170962D
:0E0BDC00DF01EF010E944C0A60970C94B305F4
:100BEA000895F894FE013496DF01EF010E9417067A
:0E0BFA002497FE013496DF01EF010E942506CC
:0E0C08002497FE013496DF01EF010E94CE0614
:0E0C16002497FE013496DF01EF010E94810950
:0E0C2400249740E0409346010895A89540E0D3
:100C320040935400F8E1F0936000F0E0F09360001C
:0E0C420040E04093C100089540E054E264EFAA
:0E0C500070E04C835D836E837F8340E858E341
:0E0C5E0061E070E0488359836A837B834C8198
:0E0C6C005D816E817F8188819981AA81BB8123
:0E0C7A000E9461134093470042E04093440003
:0E0C880042E04093450040E04093460042E0C9
:0E0C96004093350042E0488340916E00888113
:0E0CA400482B40936E0008950F921F920F93FD
:0E0CB2001F932F933F934F935F936F937F9306
:0E0CC0008F939F93AF93BF93CF93DF93EF93E8
:0E0CCE00FF93FFB7FF93C9E6D5E0E9ECF0E035
:100CDC00EC0FFD1FA0915D00B0915E00E0935D00F4
:100CEC00F0935E00AF93BF934DEF488340916E003D
:0E0CFC008881482340936E007894FE01349660
:0E0D0A00DF01EF010E942B09249741E048838E
:0E0D1800409146018881480F409346014AE011
:0E0D26004883409146018881EFEF481708F49A
:0E0D3400EE274E2F47FF0C94A906FE013496C1
:100D4200DF01EF010E94F707249740E0409346013C
:0E0D5200F89442E0488340916E008881482B5F
:0E0D600040936E00BF91AF91F894A0935D0098
:0E0D6E00B0935E00FF91FFBFFF91EF91DF9108
:0E0D7C00CF91BF91AF919F918F917F916F9119
:0E0D8A005F914F913F912F911F910F911F90FC
:0E0D98000F90189540E04093440140E04983DD
:0E0DA60043E0488349818881EFEF481708F049
:0E0DB400EE274E2F47FF0C94840748E351E0D2
:0E0DC20060E070E04A835B836C837D8349812F
:0E0DD0005527662777274E835F8368877987CC
:0E0DDE004A815B816C817D818E819F81A88519
:0E0DEC00B985E1E0F0E00E9485134A875B873D
:0E0DFA006C877D8740E04883FE017096DF0124
:0E0E08004A855B856C857D854D935D936D936A
:0E0E16007D9348814D93EF010E945E0060972E
:0E0E24004BE351E060E070E04A835B836C8337
:0E0E32007D8349815527662777274E835F838E
:0E0E4000688779874A815B816C817D818E8114
:0E0E4E009F81A885B985E1E0F0E00E94851340
:0E0E5C004A875B876C877D8740E04883FE01F4
:0E0E6A007096DF014A855B856C857D854D9312
:100E78005D936D937D9348814D93EF010E945E00D1
:0E0E880060974EE351E060E070E04A835B83C8
:0E0E96006C837D8349815527662777274E831D
:0E0EA4005F83688779874A815B816C817D81DD
:100EB2008E819F81A885B985E2E0F0E00E948513CA
:0E0EC2004A875B876C877D8740E050E04A835B
:0E0ED0005B83FE017096DF014A855B856C85B1
:0E0EDE007D854D935D936D937D934A815B817D
:0E0EEC004D935D93EF010E947300609741E00B
:0E0EFA00488349818881480F49830C94D306B0
:0E0F080040E04093450108954EE351E060E063
:0E0F160070E04B835C836D837E8340914401C9
:0E0F24005527662777274F83588769877A8776
:0E0F32004B815C816D817E818F819885A985C0
:0E0F4000BA85E2E0F0E00E9485134B875C87E3
:0E0F4E006D877E87FE017096DF014B855C8506
:0E0F5C006D857E854D935D936D937D934881E9
:0E0F6A0059814D935D93EF010E9473006097D3
:0E0F78004BE351E060E070E04B835C836D83DF
:0E0F86007E83409144015527662777274F83CD
:0E0F9400588769877A874B815C816D817E81E9
:100FA2008F819885A985BA85E1E0F0E00E948513DA
:0E0FB2004B875C876D877E87FE017096DF019E
:0E0FC0004B855C856D857E854D935D936D93AD
:0E0FCE007D934A814D93EF010E945E00609773
:100FDC0041E04B83409144018B81480F4093440185
:0E0FEC00089540E04983498180914401EFEF70
:0E0FFA00481708F0EE274E2F47FF0C942A09E7
:0E10080048E351E060E070E04A835B836C8354
:0E1016007D8349815527662777274E835F83A8
:0E102400688779874A815B816C817D818E812E
:0E1032009F81A885B985E1E0F0E00E9485135A
:0E1040004A875B876C877D8741E04883FE010D
:0E104E007496DF014A855B856C857D854D9328
:0E105C005D936D937D93EF010E9454006497A5
:0E106A008881480F4B83FE017496DF014A8592
:0E1078005B856C857D854D935D936D937D93B7
:0E1086004B814D93EF010E945E00649748E39A
:0E10940051E060E070E04A835B836C837D83F3
:0E10A20049815527662777274E835F8368872D
:0E10B00079874A815B816C817D818E819F8171
:0E10BE00A885B985E1E0F0E00E9485134A871D
:0E10CC005B876C877D874BE351E060E070E04E
:0E10DA004A835B836C837D834981552766279B
:0E10E80077274E835F83688779874A815B8113
:0E10F6006C817D818E819F81A885B985E1E0A6
:0E110400F0E00E9485134E875F87688B798B21
:0E111200FE017496DF014A855B856C857D8544
:0E1120004D935D936D937D93EF010E945400FB
:0E112E0064974883FE017496DF014E855F854D
:0E113C00688979894D935D936D937D93EF01E2
:0E114A000E94540064974A8348818A81EFEF27
:0E115800481709F0EE274E2F47FF0C9422098E
:0E11660048E351E060E070E04A835B836C83F5
:0E1174007D8349815527662777274E835F8349
:0E118200688779874A815B816C817D818E81CF
:0E1190009F81A885B985E1E0F0E00E948513FB
:0E119E004A875B876C877D8740E04883FE01AF
:0E11AC007496DF014A855B856C857D854D93C9
:1011BA005D936D937D9348814D93EF010E945E008C
:0E11CA0064974EE351E060E070E04A835B837F
:0E11D8006C837D8349815527662777274E83D8
:0E11E6005F83688779874A815B816C817D8198
:1011F4008E819F81A885B985E2E0F0E00E94851385
:0E1204004A875B876C877D87FE017496DF0149
:0E1212004A855B856C857D854D935D936D935C
:0E1220007D93EF010E94670064974A835B8311
:0E122E00FE017496DF014A815B814D935D9352
:0E123C00EF010E947D09649741E048834981DB
:0E124A008881480F49830C94F907089540E00D
:0E1258004983498180914501EFEF481708F066
:0E126600EE274E2F47FF0C947C0940E051E02C
:0E12740060E070E04A835B836C837D83498178
:0E1282005527662777274E835F836887798715
:0E1290004A815B816C817D818E819F81A88562
:0E129E00B985E2E0F0E00E9485134A875B8785
:0E12AC006C877D87FE017096DF014A855B85A9
:0E12BA006C857D854D935D936D937D93EF0163
:0E12C8000E94670060974A835B83FE01709668
:1012D600DF014A815B814D935D93EF010E947D0999
:0E12E600609741E0488349818881480F498321
:0E12F4000C942D090895E881F981099508955B
:0E13020040E050E0409357055093580540E0FE
:0E131000498345E050E04A835B8349815527BD
:0E131E008A819B81EFEF481B590B08F0EE27E8
:0E132C004E2F47FF0C94100A47E451E060E09A
:0E133A0070E04A835B836C837D834981552775
:0E134800662777274E835F83688779874A81FF
:0E1356005B816C817D818E819F81A885B98528
:0E136400E0EDF0E00E94851380E090E0480F7D
:0E137200591F4A835B836C837D8345E5488366
:0E138000FE017096DF014A815B816C817D81E8
:0E138E004D935D936D937D9348814D93EF01D8
:0E139C000E945E00609747E451E060E070E060
:0E13AA004A835B836C837D83498155276627C8
:0E13B80077274E835F83688779874A815B8140
:0E13C6006C817D818E819F81A885B985E0EDC7
:0E13D400F0E00E9485138DEC90E0480F591F49
:0E13E2004A835B836C837D8344274883FE012E
:0E13F0007096DF014A815B816C817D814D9397
:1013FE005D936D937D9348814D93EF010E945E0046
:0E140E00609741E0488349818881480F4983F7
:0E141C000C948909089547E451E060E070E007
:0E142A00488359836A837B8340E050E060E092
:0E14380070E04C835D836E837F834881598111
:0E1446006A817B818C819D81AE81BF81E0ED4A
:0E145400F0E00E9485138EEC90E0480F591FC7
:0E146200488359836A837B83FE013C96DF0139
:0E147000488159816A817B814D935D936D9314
:0E147E007D93EF010E9467002C9740935D0064
:0E148C0050935E00DF91CF9118950895CF9395
:0E149A00DF9347E451E060E070E0488359833F
:0E14A8006A837B834091570550915805662753
:0E14B60077274C835D836E837F834881598145
:0E14C4006A817B818C819D81AE81BF81E0EDCC
:0E14D200F0E00E9485138EEC90E0480F591F49
:0E14E000488359836A837B83FE013C96DF01BB
:0E14EE00488159816A817B814D935D936D9396
:0E14FC007D9340915D0050915E004D935D9395
:0E150A00EF010E9473002C9741E050E04883EF
:0E15180059834091570550915805888199815B
:0E152600480F591F409357055093580545E054
:0E15340050E048835983409157055091580567
:0E154200888199810E944D13A801409357059E
:0E1550005093580547E451E060E070E0488396
:0E155E0059836A837B8340915705509158054D
:0E156C00662777274C835D836E837F834881DB
:0E157A0059816A817B818C819D81AE81BF8108
:0E158800E0EDF0E00E9485138DEC90E0480F3E
:0E159600591F488359836A837B83FE013C966C
:0E15A400DF01488159816A817B814D935D93FF
:0E15B2006D937D93EF010E9454002C9747FF2C
:0E15C0000C94E40A0C94E60A0C94890A47E4A1
:0E15CE0051E060E070E0488359836A837B83BC
:0E15DC004091570550915805662777274C839C
:0E15EA005D836E837F83488159816A817B8196
:1015F8008C819D81AE81BF81E0EDF0E00E94851372
:0E16080080E090E0480F591F488359836A83A1
:0E1616007B8345E54C83FE013C96DF01488155
:0E16240059816A817B814D935D936D937D9317
:0E163200EF010E9454002C978C81EE27481780
:0E16400009F0EFEF4E2F47FF0C945B0BF89470
:10164E004FEFE8940FF46894F89448834091280083
:10165E00888187FF439887FD439A48B140932800BD
:10166E000EF47894FE013C96DF01EF010E942B11DF
:0E167E002C974427E8940FF46894F89448835E
:0E168C0040912800888187FF439887FD439A8C
:0E169A0048B1409328000EF47894FE013C966F
:0E16A800DF01EF010E942B112C970C94270BF1
:0E16B60047E451E060E070E0488359836A83A6
:0E16C4007B8340915705509158056627772784
:0E16D2004C835D836E837F83488159816A81DA
:0E16E0007B818C819D81AE81BF81E0EDF0E0C9
:0E16EE000E9485138EEC90E0480F591F488330
:0E16FC0059836A837B83FE013C96DF0148819F
:0E170A0059816A817B814D935D936D937D9330
:0E171800EF010E9467002C974A835B83F894D0
:0E1726004A815B8140935D0050935E00789491
:0E173400DF91CF910895089540E0498747E482
:0E17420051E060E070E04A875B876C877D872E
:0E17500049855527662777274E875F87688B68
:0E175E00798B4A855B856C857D858E859F85A0
:0E176C00A889B989E0EDF0E00E9485138DECAC
:0E177A0090E0480F591F4A875B876C877D8778
:0E178800FE01B096DF014A855B856C857D858C
:0E1796004D935D936D937D93EF010E9454007F
:0E17A400A097409547FF0C94D90B0C94FD0BB9
:0E17B20041E0488749858885480F498745E012
:0E17C00050E04A875B87498555278A859B85BF
:0E17CE00EFEF481709F0EE27591709F0EE2744
:0E17DC004E2F47FF0C94FB0B40E04987FE01A7
:1017EA00B096DF01EF010E944C0AA0970C94A00B5F
:0E17FA0047E451E060E070E04A875B876C874F
:0E1808007D8749855527662777274E875F879E
:0E181600688B798B4A855B856C857D858E8518
:0E1824009F85A889B989E0EDF0E00E94851348
:0E18320081E090E0480F591F4A875B876C8762
:0E1840007D8748EC50E04E875F8743E050E024
:0E184E00488B598B4E855F8588899989481B88
:0E185C00590B662777274E875F87688B798B3D
:0E186A004A855B856C857D858E859F85A88966
:0E187800B989E1E0F0E00E9485134A8B5B8B9A
:0E1886006C8B7D8B48815981442F4887FE0171
:0E189400B096DF014A895B896C897D894D938E
:1018A2005D936D937D9348854D93EF010E945E0099
:0E18B200A09747E451E060E070E04A875B8752
:0E18C0006C877D8749855527662777274E87D9
:0E18CE005F87688B798B4A855B856C857D858D
:1018DC008E859F85A889B989E0EDF0E00E9485137B
:0E18EC0081E090E0480F591F4A875B876C87A8
:0E18FA007D8748EC50E04E875F8744E050E069
:0E190800488B598B4E855F8588899989481BCD
:0E191600590B662777274E875F87688B798B82
:0E1924004A855B856C857D858E859F85A889AB
:0E193200B989E1E0F0E00E9485134A8B5B8BDF
:0E1940006C8B7D8B48815981452F4887FE01B5
:0E194E00B096DF014A895B896C897D894D93D3
:10195C005D936D937D9348854D93EF010E945E00DE
:0E196C00A09750E147E64C875D8747E451E0C5
:0E197A0060E070E04E875F87688B798B49854F
:0E1988005527662777274A8B5B8B6C8B7D8BF0
:0E1996004E855F85688979898A899B89AC892D
:0E19A400BD89E0EDF0E00E94851381E090E047
:0E19B200480F591F4E875F87688B798B48EC72
:0E19C00050E04A875B8741E050E04A8B5B8B2A
:0E19CE004A855B858A899B89481B590B6627D1
:0E19DC0077274E8B5F8B688F798F4E855F85E6
:0E19EA00688979898E899F89A88DB98DE1E081
:0E19F800F0E00E9485134A8B5B8B6C8B7D8B1D
:0E1A06004C855D85442F4887FE01B096DF01B8
:0E1A14004A895B896C897D894D935D936D9342
:0E1A22007D9348854D93EF010E945E00A097D2
:0E1A300047E451E060E070E04E875F87688B0E
:0E1A3E00798B49855527662777274A8B5B8B66
:0E1A4C006C8B7D8B4E855F85688979898A89D0
:0E1A5A009B89AC89BD89E0EDF0E00E94851308
:0E1A680081E090E0480F591F4E875F87688B22
:0E1A7600798B48EC50E04A875B8742E050E0F5
:0E1A84004A8B5B8B4A855B858A899B89481B50
:0E1A9200590B662777274E8B5F8B688F798FF5
:0E1AA0004E855F85688979898E899F89A88D1A
:0E1AAE00B98DE1E0F0E00E9485134A8B5B8B5E
:0E1ABC006C8B7D8B4C855D85452F4887FE0128
:0E1ACA00B096DF014A895B896C897D894D9356
:101AD8005D936D937D9348854D93EF010E945E0061
:0E1AE800A09744E050E060E070E04C0F5D1FFE
:0E1AF6004E875F87688B798B47E451E060E094
:0E1B040070E04A8B5B8B6C8B7D8B498555277F
:0E1B1200662777274E8B5F8B688F798F4A8905
:0E1B20005B896C897D898E899F89A88DB98D1E
:0E1B2E00E0EDF0E00E94851381E090E0480FAA
:0E1B3C00591F4A8B5B8B6C8B7D8B40E050E019
:0E1B4A0060E070E04E8B5F8B688F798F4A8968
:0E1B58005B896C897D898E899F89A88DB98DE6
:0E1B6600E1E0F0E00E9485134A8F5B8F6C8FE8
:0E1B74007D8FFE01B096DF014E855F8568898A
:0E1B820079894D935D936D937D934A8D5B8DB4
:0E1B90006C8D7D8D4D935D936D937D93EF0174
:0E1B9E000E948E00A097EC81FD81EA83FB83FC
:0E1BAC0047E451E060E070E04E875F87688B91
:0E1BBA00798B49855527662777274A8B5B8BE9
:0E1BC8006C8B7D8B4E855F85688979898A8953
:0E1BD6009B89AC89BD89E0EDF0E00E9485138B
:0E1BE40081E090E0480F591F4E875F87688BA5
:0E1BF200798B48EC50E04A875B8745E050E075
:0E1C00004A8B5B8B4A855B858A899B89481BD2
:0E1C0E00590B662777274E8B5F8B688F798F77
:0E1C1C004E855F85688979898E899F89A88D9C
:0E1C2A00B98DE1E0F0E00E9485134A8B5B8BE0
:0E1C38006C8B7D8B4A815B81442F4887FE01B7
:0E1C4600B096DF014A895B896C897D894D93D8
:101C54005D936D937D9348854D93EF010E945E00E3
:0E1C6400A09747E451E060E070E04E875F8794
:0E1C7200688B798B49855527662777274A8B23
:0E1C80005B8B6C8B7D8B4E855F8568897989C7
:101C8E008A899B89AC89BD89E0EDF0E00E948513BD
:0E1C9E0081E090E0480F591F4E875F87688BEA
:0E1CAC00798B48EC50E04A875B8746E050E0B9
:0E1CBA004A8B5B8B4A855B858A899B89481B18
:0E1CC800590B662777274E8B5F8B688F798FBD
:0E1CD6004E855F85688979898E899F89A88DE2
:0E1CE400B98DE1E0F0E00E9485134A8B5B8B26
:0E1CF2006C8B7D8B4A815B81452F4887FE01FC
:0E1D0000B096DF014A895B896C897D894D931D
:101D0E005D936D937D9348854D93EF010E945E0028
:0E1D1E00A09740E0488749858885EE27481742
:0E1D2C0009F0EFEF4E2F47FF0C947F0F47E4B6
:0E1D3A0051E060E070E04E875F87688B798B28
:0E1D480049855527662777274A8B5B8B6C8B66
:0E1D56007D8B4E855F85688979898A899B8996
:0E1D6400AC89BD89E0EDF0E00E94851389ECAA
:0E1D720090E0480F591F4E875F87688B798B72
:0E1D800047E451E060E070E04A8B5B8B6C8BB7
:0E1D8E007D8B409157055091580566277727A9
:0E1D9C004E8B5F8B688F798F4A895B896C89CB
:0E1DAA007D898E899F89A88DB98DE0EDF0E0CE
:0E1DB8000E94851389EC90E0480F591F4A8B5A
:0E1DC6005B8B6C8B7D8BFE01B096DF014A8932
:0E1DD4005B896C897D894D935D936D937D9342
:0E1DE200EF010E947E00A0974A8B5B8B6C8BFA
:0E1DF0007D8BFE01B096DF014E855F85688910
:0E1DFE0079894D935D936D937D934A895B893E
:0E1E0C006C897D894D935D936D937D93EF01FD
:0E1E1A000E948E00A09747E451E060E070E067
:0E1E28004E875F87688B798B49855527662723
:0E1E360077274A8B5B8B6C8B7D8B4E855F858F
:0E1E4400688979898A899B89AC89BD89E0ED1E
:0E1E5200F0E00E94851389EC90E0480F591FC4
:0E1E60004E875F87688B798B41E04887FE01D3
:0E1E6E00B096DF014E855F85688979894D93B6
:0E1E7C005D936D937D93EF010E947E00A09711
:0E1E8A004A8B5B8B6C8B7D8BFE01B096DF016B
:0E1E98004A895B896C897D894D935D936D93BA
:0E1EA6007D93EF010E945400A0978885480F9D
:0E1EB4004B87FE01B096DF014E855F85688981
:101EC20079894D935D936D937D93EF010E947E001E
:0E1ED200A0974E875F87688B798BFE01B096D4
:0E1EE000DF014E855F85688979894D935D939A
:0E1EEE006D937D934B854D93EF010E945E0036
:0E1EFC00A09744E050E060E070E04C0F5D1FE6
:0E1F0A004E875F87688B798B47E451E060E07B
:0E1F180070E04A8B5B8B6C8B7D8B4985552767
:0E1F2600662777274E8B5F8B688F798F4A89ED
:0E1F34005B896C897D898E899F89A88DB98D06
:0E1F4200E0EDF0E00E94851381E090E0480F92
:0E1F5000591F4A8B5B8B6C8B7D8B48EC50E0ED
:0E1F5E004A875B8741E050E04E8B5F8B4A85DF
:0E1F6C005B858E899F89481B590B488F598FC2
:0E1F7A0046E050E04A875B87488D598D8A8586
:0E1F88009B85481B590B66277727488F598F7A
:0E1F96006A8F7B8F4A895B896C897D89888D73
:0E1FA400998DAA8DBB8DE1E0F0E00E948513BF
:0E1FB2004C8F5D8F6E8F7F8FFE01B096DF012A
:0E1FC0004E855F85688979894D935D936D9399
:0E1FCE007D934C8D5D8D6E8D7F8D4D935D935B
:0E1FDC006D937D93EF010E948E00A097EC8123
:0E1FEA00FD81EA83FB8347E451E060E070E094
:0E1FF8004E875F87688B798B49855527662752
:0E20060077274A8B5B8B6C8B7D8B4E855F85BD
:0E201400688979898A899B89AC89BD89E0ED4C
:0E202200F0E00E9485138EEC90E0480F591FED
:0E2030004E875F87688B798BFE01B096DF01CB
:0E203E004E855F85688979894D935D936D931A
:10204C007D934A815B814D935D93EF010E947300F8
:0E205C00A09747E451E060E070E04E875F8798
:0E206A00688B798B49855527662777274A8B27
:0E2078005B8B6C8B7D8B4E855F8568897989CB
:102086008A899B89AC89BD89E0EDF0E00E948513C1
:0E2096008DEC90E0480F591F4E875F87688BD6
:0E20A400798B4FEF4887FE01B096DF014E8525
:0E20B2005F85688979894D935D936D937D9369
:0E20C00048854D93EF010E945E00A0970895A1
:0E20CE0047E451E060E070E0488359836A8384
:0E20DC007B8340915705509158056627772762
:0E20EA004C835D836E837F83488159816A81B8
:0E20F8007B818C819D81AE81BF81E0EDF0E0A7
:0E2106000E94851389EC90E0480F591F488312
:0E21140059836A837B8341E04C83FE013C9635
:0E212200DF01488159816A817B814D935D9375
:0E2130006D937D93EF010E947E002C974D83EE
:0E213E005E836F837887FE013C96DF014D8142
:0E214C005E816F8178854D935D936D937D93D9
:0E215A00EF010E9454002C978C81481B4E838D
:0E216800FE013C96DF01488159816A817B812E
:0E2176004D935D936D937D93EF010E947E006B
:0E2184002C97488359836A837B83FE013C9627
:0E219200DF01488159816A817B814D935D9305
:0E21A0006D937D934E814D93EF010E945E0082
:1021AE002C97F89444E050E04883598340915D00A9
:1021BE0050915E0088819981481B590B40935D00B8
:0E21CE0050935E00789447E451E060E070E0CA
:1021DC00488359836A837B834091570550915805F6
:0E21EC00662777274C835D836E837F8348814F
:0E21FA0059816A817B818C819D81AE81BF817C
:0E220800E0EDF0E00E9485138DEC90E0480FB1
:0E221600591F488359836A837B8344274C8376
:0E222400FE013C96DF01488159816A817B8171
:0E2232004D935D936D937D934C814D93EF0121
:0E2240000E945E002C97FE013C96DF01EF012C
:0E224E000E944C0A2C9708954AEF488348815D
:0E225C00442311F40C9441114A9548834AEF33
:0E226A0049834981442311F40C943F114A9595
:0E22780049830C9436110C942D110895FE012B
:0E2286003C96DF01EF010E94F6052C97FE0149
:0E2294003C96DF01EF010E949D002C97FE0199
:0E22A2003C96DF01EF010E9404022C97FE0122
:0E22B0003C96DF01EF010E9490022C97FE0188
:0E22BE003C96DF01EF010E94D0022C9751E008
:0E22CC0045E148835983FE013C96DF014881BD
:0E22DA0059814D935D93409100014D93EF01AA
:0E22E8000E9488072C9752E042E348835983F6
:0E22F600FE013C96DF01488159814D935D93B6
:0E23040040911B014D93EF010E9488072C971A
:0E23120053E04CE648835983FE013C96DF0100
:0E232000488159814D935D9340911D014D936D
:0E232E00EF010E9488072C9751E148EB48838D
:0E233C005983FE013C96DF01488159814D9383
:0E234A005D93EF010E949E0B2C97FE013C96C6
:0E235800DF01EF010E947E122C97FE013C96E1
:0E236600DF01EF010E94110A2C974FEF488310
:0E2374004091190140FDEFEF40FFEE274E2F84
:0E23820088814827409547FF0C94401244275D
:0E239000E8940FF46894F89448834091190182
:0E239E00888187FF4E7F87FD416040931901C3
:0E23AC000EF4789440E04883409168058881E3
:1023BA00EFEF481709F0EE274E2F47FF0C94401213
:0E23CA0047E451E060E070E0488359836A8385
:0E23D8007B8340915705509158056627772763
:0E23E6004C835D836E837F83488159816A81B9
:0E23F4007B818C819D81AE81BF81E0EDF0E0A8
:0E2402000E94851389EC90E0480F591F488313
:0E24100059836A837B8348E655E060E070E004
:0E241E004C835D836E837F83FE013C96DF015D
:0E242C00488159816A817B814D935D936D9348
:0E243A007D934C815D816E817F814D935D931A
:0E2448006D937D93EF010E948E002C9752E160
:0E24560048E548835983FE013C96DF0148812A
:0E24640059814D935D93EF010E949E0B2C97C2
:0E247200FE013C96DF01EF010E944C0A2C9700
:0E248000FE013C96DF01EF010E9403012C9744
:0E248E00FE013C96DF01EF010E944C0A2C97E4
:0E249C00FE013C96DF01EF010E94E9012C9742
:0E24AA000C94B8110895FE013496DF01EF0185
:0E24B8000E94AA02249741E050E060E070E02C
:0E24C600488359836A837B83FE013496DF01CD
:0E24D400488159816A817B814D935D936D93A0
:0E24E2007D93EF010E94E9042497FE013496D9
:0E24F000DF01EF010E94BD02249708950895B8
:0E24FE00EF3F11F4009503950895EF3F29F488
:0E250C0000951095039509F413950895EF3F7F
:0E251A0059F40095109520953095039529F4FD
:0E252800139519F4239509F433950895EF3FA8
:0E25360011F4409543950895EF3F29F4409528
:0E2544005095439509F453950895EF3F59F4CF
:0E2552004095509560957095439529F45395EA
:0E25600019F4639509F473950895409550950C
:0E256E00439509F45395089540955095439573
:0E257C0009F45395089540955095609570951B
:0E258A00439529F4539519F4639509F473955C
:0E259800089580959095A095B095839529F4AF
:0E25A600939519F4A39509F4B395089547FF92
:0E25B4000C94DF12E09540954395089587FF43
:0E25C2000C94E612E09580958395089557FFDE
:0E25D0000C94F012E09540955095439509F457
:0E25DE005395089597FF0C94FA12E09580959E
:1025EC009095839509F49395089577FF0C940A13AD
:0E25FC00E0954095509560957095439529F4B3
:0E260A00539519F4639509F473950895B7FF7D
:0E2618000C941A13E09580959095A095B095BE
:0E262600839529F4939519F4A39509F4B395BF
:0E2634000895489F8001499F100D589F100D7A
:0E2642000895EE27489F800122273327499FE5
:0E265000100D211D3E1F4A9F200D311D4B9F76
:0E265E00300D589F100D211D3E1F599F200D5D
:0E266C00311D5A9F300D689F200D311D699F52
:0E267A00300D789F300D0895F8E00027089489
:0E268800441F001F081B10F4080F4A95FA9516
:0E269600B9F70895F0E1002711270894441FBA
:0E26A400551F001F111F081B190B30F4080FE3
:0E26B200191F4A954F3F09F45A95FA9581F782
:0E26C0000895F0E200271127222733270894FF
:0E26CE00441F551F661F771F001F111F221F7C
:0E26DC00331F081B190B2A0B3B0B70F4080F61
:0E26EA00191F2A1F3B1F4A954F3F39F45A957E
:0E26F8005F3F21F46A956F3F09F47A95FA95D9
:0E27060011F70895E89F8001E99F100DF89FDC
:08271400100D400F511F089544
:00000001FF
