:100000006F40006A1300000013000000130000009E
:100010001300000013000000130000001300000094
:100020001300000013000000130000001300000084
:08003000130000007300100032
:100038006FF09FFC000000006F0000106F000010C0
:1000480000000000000000000000000000000000A8
:100058000000000000000000000000000000000098
:100068006FF09FF9000000006FF01FF9000000001A
:100078006FF09FF86FF05FF86FF01FF86FF0DFF721
:100088006FF09FF76FF05FF76FF01FF76FF0DFF615
:100098006FF09FF66FF05FF66FF01FF66FF0DFF509
:1000A8006FF09FF56FF05FF56FF01FF56FF0DFF4FD
:1000B8006FF09FF46FF05FF46FF01FF40000000022
:1000C8000000000000000000000000006FF0DFF2F8
:1000D8006FF09FF26FF05FF26FF01FF26FF0DFF1D9
:1000E8006FF09FF16FF05FF16FF01FF16FF0DFF0CD
:1000F8006FF09FF06FF05FF06FF01FF06FF0DFEFC1
:100108006FF09FEF6F4020446FF01FEF6FF0DFEE4E
:100118006FF09FEE6FF05FEE6FF01FEE6FF0DFEDA8
:1001280000000000000000000000000000000000C7
:080138000000000000000000BF
:100140007300203001A0411122C437440140AA8528
:100150001305048006C613040480EF40102C930599
:1001600000082285EF40B02C7DD9B24022444101E5
:10017000828037170020B71700203716002013079A
:1001800007389387C736814613060636A9453305D7
:10019000D6002310070023900700230005008506E2
:1001A00009078907E395B6FE8280411122C406C67D
:1001B0002A840345040009E5B240224441018280BB
:1001C00005045137FDB7238EA18E85472388F1940E
:1001D0005148238601991308C003A3860199238DF2
:1001E0000186A38DF186238E0186A38EF186238A54
:1001F000B18AA38AC18A238BD18AA38BE18A8280A8
:100200009387018D7D5798C3D8C323A8018EA381FE
:100210000196828086052384A19093E5056023934F
:10022000B190A384019023A6019005472382E19019
:100230008280A3880188238901880547A3890188D2
:100240002387E1887D57A387E188238801888280FE
:100250009386819283870600371700201307473C57
:100260003E972300A700371700201307073D3E974E
:100270002300B70037170020139627001307C73D48
:10028000329723200700371700201307C7413E97F6
:1002900005462300C70037170020130747403E9745
:1002A0002300C700138717002380E6003E85828065
:1002B0002396A18623A4B18623A0C18623ACD18432
:1002C00023AAE186B70700009387673E23A2F1883F
:1002D000B70700009387A73F23A0F1888280139778
:1002E000050183A7418741830D83B387E702E205B8
:1002F000E185B706002003C691921387862793866F
:1003000086273E9583A78186420541813E95A14778
:10031000B3E5F50285472A9703070700B397B700AF
:10032000E207E18701CAD98F93F7F70F36952300CB
:10033000F500828093C7F7FFF98FFDB76344050A84
:1003400003A70186011122CC06CE26CA4AC84EC692
:1003500052C456C25AC02A84635CE506AE8463C99F
:10036000050683A7818563D5F50683C6518681C6B8
:100370007D173304A74003C7618601C7FD17B38407
:10038000974083C7418681C7A2872684BE8403A97C
:10039000C1858547631CF902A68522858937894571
:1003A000B345B9028149B305B0402E94AE94330BE6
:1003B0002401B38A3401638D2901228A5285D685AE
:1003C000050A313FE31C4BFF8509E5B7E34920FDF2
:1003D000F2406244D2444249B249224A924A024B14
:1003E00005618280828083A7418563C70700B33798
:1003F000F000A384F19299B7828083A7018563C737
:100400000700B337F000A384F1920DBF8280054747
:10041000634A050483A7018605476355F50463C352
:10042000050483A7818563DFF5029397050103A780
:100430004187C1838D83B387E702E205E185AA97EF
:1004400003A58186C207C183AA972145B3E5A5020A
:100450003707002013078727BA9703C707003357CA
:10046000B740058B3A8582800396C1863707002006
:1004700083A5818613078727814793960701C18645
:1004800063C3C6008280B386F500BA962380A600B7
:100490008507E5B71D71A6CACAC8B704FF0013993E
:1004A000050162DC1359090186CEA2CCCEC6D2C4A6
:1004B000D6C2DAC05EDE66DA6AD86ED632C8ED8C95
:1004C0002A8C93074900A5CC03A7019ABA9783C742
:1004D0000700130B29008D833EC0BDC483A7019A7A
:1004E000DA9783C70700B70B0020014A3EC29397F3
:1004F0000601C1873ECA93878B273EC4DA973ECC5C
:10050000C247931A0A0193DA0A0112473384FA00A8
:1005100042049377FA0F418463EDE7028146F64087
:100520006644D6444649B649264A964A064BF25B8B
:10053000625CD25C425DB25D3685256182803707A0
:1005400000201307872759B7B7070020938787270D
:1005500041BFD24D8149824763943701050A4DB7A7
:10056000130799005697A5C083A6019A3697834B27
:10057000070063100C0693868D0093970601C187D0
:100580003EC693F61B00B9C283A64188EE8522853C
:10059000829693871D00939D0701B24793DD0D411D
:1005A00093DB1B00E39FFDFCD5C003A7019A5A977C
:1005B00003470700BA9A8509C20AC20993DA0A01F9
:1005C00093D9090149BFA2473E9755B783A6018831
:1005D00075BF8546631BDC0293868D00C206C1860B
:1005E00013F61B0001CA03A60188EE85228536C6D4
:1005F0000296B24693871D00939D070193DD0D413E
:1006000093DB1B00E39EB6FD45B78946E31EDCF88D
:1006100013868D004206418293F61B0036CE89CAAE
:10062000EE85228532C6E5333246F246E31905EE01
:1006300093871D0093960701C182939D060193DB6A
:100640001B0093DD0D41E319D6FCB9BFE24703C798
:1006500007008DB7939705011D71C183D2C43EC4B5
:100660005EDE83A7019ABA8B224766DA86CEBA97F6
:10067000A2CCA6CACAC8CEC6D6C2DAC062DC6AD8C4
:100680006ED683C4370003C7270003C94700A204FE
:10069000BA941397040141832AC836CA3AC693779D
:1006A0007900935C3900138A019A99E36316090073
:1006B00093881C0093FCF80FB3872B01014C3ECCB0
:1006C000D24742471374FC0FB309FC00C209937769
:1006D000FC0F93D9094163C1E702F6406644D64452
:1006E0004649B649264A964A064BF25B625CD25CA2
:1006F000425DB25D256182803294420441805E8910
:10070000814463949401050C65BF83260A00A247C7
:10071000930A8900A296BE9603CB9600C20A93DA8A
:100720000A0193761B0032CEA1C283A64188CA85F6
:100730004E8582969307190093960701C182E2477E
:1007400013990601135909417246135B1B00635448
:10075000F900E398DAFCB247138714009374F70F9B
:100760003E944204418071BF83A60188C9B7A38427
:10077000018E2385018E238101908280938E918E3C
:10078000038E0E00138F01A413132E001A9F232033
:10079000AF001385819C1A950CC19385C19D9A95D4
:1007A00090C11386C1A21A9614C29386419B9A9651
:1007B00098C2138741A51A971CC39387019F9A97E4
:1007C00023A00701938781A19A9723A017019387FC
:1007D00041A03E93824713171E00050E2320F3000D
:1007E000B717002093870741BA9723900700054762
:1007F0002380CE012385E18E82802389019023AA64
:1008000001908280A38C01944111238D019406C62E
:1008100023880194F53223820190213C23840192A4
:10082000B937B2404101D1BF23A0019223AE01905C
:1008300023A20192828023A0A1929387C191984321
:100840002A9798C382809387818A83C607003717C7
:1008500000201307873136972300A70003C707003E
:10086000D14605071377F70F2380E70003C707007A
:100870006394E600238007008280938781819843F8
:100880009376070881C6136707F098C38280938721
:10089000818198439316070163D50600C176558F71
:1008A00098C382809387918A83C6070003C7818A91
:1008B0001377F70F6300D7081388019103570800D7
:1008C000138581991041B706002093858627B306CA
:1008D000B7002380C6009306F7FFC206C182AE961A
:1008E00093588600238016019306E7FFC206C18253
:1008F000AE96751741822380C6002310E80083C698
:100900000700A38A0198371700201307873136970D
:1009100003470700D1460A0718C103C707000507A8
:100920001377F70F2380E70003C707006394E600FF
:10093000238007008280B7060020056781479386E1
:100940008627130707FA3386D7002300060085079A
:10095000E39BE7FE828023AC0198239C0186239FC2
:10096000018E23900190239E0188239F018823906C
:10097000018A23AA018823AC018885679387F7F948
:100980002398F1902384018223880182239101829C
:100990002395018223A2018223A60182238201845E
:1009A00023860184239E01822393018423A0018452
:1009B00023A4018423AC018023A8019823AE0180E5
:1009C00023AC0182A38A0198411123A0018C06C6A1
:1009D000A38801948D3723800182B2402384018A49
:1009E000A384018A4101828083A7019A3E958347AF
:1009F000150003450500A2073E954205418182800E
:100A000083A7019AAA9703C5370003C727002205C9
:100A10002A971315870003C717002A9703C50700F5
:100A200022073A958280B7070020938787273E9553
:100A30002300B500A181A300B5008280B707002084
:100A4000938787273E9593D785002300B500A300A1
:100A5000F50093D70501E1812301F500A301B5005D
:100A60008280B7070020938787273E95834715002C
:100A700003450500A2073E95420541818280B707E4
:100A8000002093878727AA9703C72700131587009D
:100A900003C717002A9703C5070022073A958280EB
:100AA000B707002093878727AA9703C5370003C796
:100AB000270022052A971315870003C717002A97D6
:100AC00003C5070022073A958280B7070020938765
:100AD00087273E952300B500A181A300B500828041
:100AE000B7070020938787273E9593D7850023007B
:100AF000B500A300F50093D70501E1812301F500BE
:100B0000A301B5008280B7070020938787273E9511
:100B10000345050093178501E18763D4070013653A
:100B200005F08280B7070020938787273E9583478B
:100B3000150003450500A2073E959317050163D4F0
:100B40000700C1775D8D8280011122CC130415004E
:100B500062046184B7170020060493870738A297C0
:100B60004EC68399070006CE26CA4AC8635D300583
:100B7000B71700209387C736A29703D90700AE8422
:100B80004A854D37B71700209387C7343E94835763
:100B90000400131705014187BA9737070020130790
:100BA000872793051500BA97C20523809700C18552
:100BB00063C3350181456244F240D244B2494A855B
:100BC0004249056119B7F2406244D2444249B249F0
:100BD00005618280B707002093878727AA9703C5FE
:100BE000370003C7270022052A971315870003C77C
:100BF00017002A9703C5070022073A95828081478C
:100C000013F7F70F8507B306F50083C6F6FFEDFA75
:100C10003A85828023A4018C2387018CA3870186D7
:100C200082809387818C98439146630CD7069546C2
:100C30006315D7002399A182828099466313D70652
:100C4000011122CC03D4218306CE26CA22044AC82D
:100C50004EC62A941305A00A23A00700EFF0AFCEDA
:100C60000545EFF04FCE0545EFF0EFCD42041305FB
:100C7000200F4180EFF02FCD81441309001083A78E
:100C8000019AA297A69703C507008504EFF0AFCBA2
:100C9000E39724FFF2406244D2444249B2490561DD
:100CA00082808280411126C295641385045706C64E
:100CB00023A4018C22C4A1372A841305A00AEFF0D3
:100CC0008FC81305E4001375F50FEFF0CFC701458A
:100CD000EFF06FC71305F00FEFF0EFC60945EFF027
:100CE0008FC613059002EFF00FC60D45EFF0AFC5AC
:100CF00013058002EFF02FC513051004EFF0AFC409
:100D00001305000AEFF02FC43D45EFF0CFC30145B6
:100D1000EFF06FC30145EFF00FC30145EFF0AFC235
:100D20001305000AEFF02FC20145EFF0CFC10145D6
:100D3000EFF06FC113850457EFF02FC7B240224484
:100D4000238E0198924441018280011122CC2A8491
:100D50001305A00A06CE2EC6EFF0EFBE0D45EFF04C
:100D60008FBE0145EFF02FBE1305E00FEFF0AFBDD2
:100D70001375F40FEFF02FBDB2456244F24013F546
:100D8000F50F05616FF02FBC4111AA8513055005C1
:100D900006C6653FB240238E019841018280854797
:100DA000630BF50209C989476308F5049375F50FCC
:100DB0001305200559BF83D7818737070020130704
:100DC0008727BA9783C7070023A6F1962382019647
:100DD000238BF18E8280411122C42A8403D581871E
:100DE00006C6CD3B23A6A19223A4A1962382819679
:100DF000B24022444101828023820196828009C947
:100E00008547630CF5069375F50F1305200535BF6F
:100E1000411122C403D4818706C62285653B13078E
:100E2000440023A6A1924207B70700209387872793
:100E300041833E9783450700B24023A6B19613072E
:100E40005400420741833E970346070023A8C196FA
:100E500013076400420741833E971D048346070041
:100E6000420441803E9423AAD196034704002244C1
:100E700023ACE19641016FF00FB583D78187370727
:100E8000002013078727B386E70003C8060023A6C0
:100E9000019793861700C206C182BA9603C5060061
:100EA00023A8A19693862700C206C182BA9683C55D
:100EB000060023AAB19693863700C206C182BA966D
:100EC00003C6060023ACC196938647009507C20768
:100ED000C183BA9783C70700C206C182BA9623A00E
:100EE000F1982386019983C60600A386A198238DD5
:100EF000B186A38DC186238ED18623AED196A38ED3
:100F0000F186828009C985476304F5049375F50F5E
:100F1000130520051DBD83D78187370700201307E0
:100F20008727B386E7008507C207C183BA9703C73F
:100F3000070083C6060023A6D19623A8E19605469E
:100F4000A381C1969387018DB6972380E7008280A5
:100F500003D58187B707002041119387872706C6ED
:100F600022C4AA9703C4070005054205418123A6B0
:100F700081968D3123A6A192B71700200A0493878A
:100F8000C732A297B240224488C34101828009C976
:100F900085476308F5029375F50F1305200575B3B2
:100FA00083D781873707002013078727BA9783C71E
:100FB0000700854623A6F196A388D188A386F188E9
:100FC000828003C7F18823ACE1808280411106C68C
:100FD00019C985476304F504B2409375F50F1305ED
:100FE000200541019DB383D7818737070020130770
:100FF0008727B386E7008507C207C183BA9703C571
:10100000060083C5070023A8B19623A6A196EFF09A
:101010002FA423ACA180B2404101828003D58187F7
:10102000EFF07FAE23A6A19262056185B71700207D
:101030009387C73D0A053E95184123ACE180E1BF87
:10104000A14763E6A71C95650A059385C50A2E95F9
:101050001841011106CE22CC26CA4AC8938781873F
:10106000028703D407002285EFF0DFABAA8423A612
:10107000A1921305240042054181EFF07FA223A82D
:10108000A1962AC61305640042054181EFF09FB482
:1010900023AAA1922AC41305A40042054181EFF0BE
:1010A0007FB323ACA1922AC21305E400420541811B
:1010B000EFF05FA7624423AEA19213170501924699
:1010C0002246B24513950401F240D2444249418779
:1010D000418505616FF0CF9D03D407002285EFF0B5
:1010E0007FA423A6A1962A891305140042054181F5
:1010F000EFF01F9B23A8A196AA84130524004205A4
:101100004181EFF03FAD23AAA19623822187A382DC
:1011100091862383A186F2406244D244424905610C
:10112000828003D50700EFF0FFAA23A6A19223AE89
:10113000A184D5B703D50700EFF0DFA923A6A192BC
:1011400023AAA184C9BF03D50700EFF0BFA823A637
:10115000A19223A8A184C1B703D407002285EFF090
:101160007FA7AA8423A6A1921305440042054181CA
:10117000EFF05FA6624423A8A192F2404249AA85FB
:101180002685D24405616FF00FA603D4070022859F
:10119000EFF05FA4AA8423A6A192130544004205A0
:1011A0004181EFF03FA3624423A8A192F24042495B
:1011B000AA852685D24405616FF02FA403D40700C9
:1011C0002285EFF03FA123A6A192AA841305440033
:1011D00042054181EFF01FA023A8A192AA85268590
:1011E000EFF0EFA223ACA1803DB783D7070037070C
:1011F000002013078727BA9703C507006244F2400F
:10120000D244424923A6A19605616FF0EFA59375DC
:10121000F50F130520056FF05FB385476318F506DA
:10122000011122CC03D48187B70700209387872739
:1012300006CE26CAA29783C40700130514004205F0
:10124000418123A69196EFF0BF8523A8A1962AC6D7
:101250001305540042054181EFF0DF9723A6A192C8
:101260002AC41305940042054181EFF0BF9622463F
:10127000B24523A8A192AA862685EFF0AFA1F2403D
:10128000624423ACA180D244056182809375F50F3E
:10129000130520056FF07FAB85476314F508011136
:1012A00022CC03D4818706CE26CA22854AC8EFF015
:1012B0009F85AA8423A6A1921305140042054181AB
:1012C000EFF00FFE23A6A1962AC61305540042058F
:1012D0004181EFF00FF923A8A1962AC413057400E9
:1012E00042054181EFF01F842A8923A8A1921305AA
:1012F000940042054181EFF0FF82624423AAA1924B
:1013000013170501931609012246B245139584016E
:10131000F240D24442494187C186618505616FF040
:101320006FB39375F50F130520056FF01FA2854766
:10133000630DF50411C98947630FF5109375F50F17
:10134000130520056FF07FA083D781873707002022
:1013500013078727B386E700850783C50600C20702
:10136000C183BA9723A6B19683C6070023A8D19656
:101370000386918E1387418E9387C18D3297B297E2
:101380002300B7002380D7008280397122DC03D488
:10139000818706DE26DA2285EFF0EFF6AA8423A6FF
:1013A000A1961305440042054181EFF06FEF23A899
:1013B000A1962AD61305840042054181EFF04FEE35
:1013C00023AAA1962AD41305C40042054181EFF057
:1013D0002FED23ACA1962AD21305040142054181C9
:1013E000EFF00FEC23AEA1962AD01305440142057D
:1013F0004181EFF0EFEAAA8723A0F1981305840159
:10140000420541813ECEEFF0AFE92A8823A201993F
:101410001305C4014205418142CCEFF06FE8AA8870
:1014200023A41199130504024205418146CAEFF035
:101430002FE7D2486248F247025792562256B255D9
:101440002AC023A4A19A2685EFF04FB3F25062542C
:10145000D2542161828083D7818737070020130708
:101460008727BA9783C7070023A6F1962381F190B7
:10147000828031E9411122C403D4818726C2B70496
:1014800000209384842706C64AC0B307940003C98A
:1014900007001305140015044205420441814180F0
:1014A00023A621972694EFF0EFF28345040022440F
:1014B00023A6A192B24092444A85024923A8B1963C
:1014C00041016FE03FD59375F50F130520056FF0CF
:1014D000DF878546630CD50211C98947630EF50481
:1014E0009375F50F130520056FF03F8683D781872D
:1014F0003707002013078727BA9783C7070023A65B
:10150000F196A389F1902389D1908280411122C460
:1015100003D4818706C62285EFF0CFEB23A6A192E4
:101520001305440042054181EFF0CFEAB240224466
:1015300023A8A19241018280828011C9854763045A
:10154000F5029375F50F130520056FF01F8083D703
:1015500081873707002013078727BA9703C707003B
:1015600023A6E1968280411122C403D48187B70764
:1015700000209387872706C6A29703C70700130595
:1015800014004205418123A6E196EFF0AFE423A8C1
:10159000A1921305540042054181EFF0AFE3B24040
:1015A000224423AAA1924101828029ED411122C443
:1015B00003D48187B70700209387872706C626C2F2
:1015C000A29703C70700130514004205418123A613
:1015D000E196EFF00FC923A8A196AA841305340061
:1015E00042054181EFF0CFCB23AAA196814763C783
:1015F0009700B24022449244410182808D07C20785
:10160000C187F5B79375F50F130520056FF0EFF35C
:1016100021E983D781873707002013078727B386FF
:10162000E70003C6060023A6C19693861700C206EC
:10163000C182BA9603C6060023A8C19693862700E6
:101640008D07C206C207C182C183BA96BA9703C684
:10165000060003C7070023AAC19623ACE196828047
:101660009375F50F130520056FF02FEE411122C47D
:101670002A841305A00A06C6EFE0FFAC1545EFE08B
:101680009FAC0145EFE03FAC1305D00FEFE0BFABDF
:101690001375F40FEFE03FAB135584001375F50F8E
:1016A000EFE07FAA135504011375F50FEFE0BFA912
:1016B000135584012244B24041016FE0DFA8397123
:1016C00026DA1165AE84854506DE22DCEF30404027
:1016D00093070020231AF100371401408D473ECCB8
:1016E0004C08E147130504803ECEEF30C018930745
:1016F0000040231AF1004C089147130504803ECEA8
:1017000037440140EF302017B7070C000C101305C9
:1017100004803ED426D002D223160102EF30203DB1
:1017200005469305505213050480EF30A04B9307F4
:1017300050132316F10085472307F1006800854701
:101740003EC8EF30A021130504808545EF30C04727
:10175000F2506254D25421618280F1659385052054
:101760000545B1BF411106C6EFF0CF89EFE07FA07C
:10177000ED37EFF04F9E2382019A03A7019A9387DA
:10178000C19923800700834607000D47639EE6004A
:1017900005472380E70023AC018EB24023AE0190C1
:1017A000294541016FF02F89B240410182804111EA
:1017B0001305A00A06C623A4018CEFE0DF980945B3
:1017C000EFE07F980145EFE01F981305300FEFE041
:1017D0009F9703C5F186EFE01F97B240410159B7CB
:1017E00085476315F5002E856FE0FF958280011116
:1017F0004AC806CE22CC26CA4EC652C40549630E3C
:10180000250B0DC189476307F50E6244F240D244AF
:101810004249B249224A9375F50F13052005056127
:101820006FF0AFD283D481872685EFF0CFAD23A6AA
:10183000A1922A841385140042054181EFF04FA63E
:101840002A8A23A8A1961385540042054181EFF00E
:101850006FADAA8923AAA192138574004205418124
:10186000EFF04FB70504620423ACA1926184B7176F
:101870000020931614009387C736B6972390A700CD
:1018800037170020B71700201307C7349387073690
:1018900036973E9423002401231047013717002078
:1018A000F240624413070738369723103701D244B9
:1018B0004249B249224A0561828003D48187228548
:1018C000EFF06FA4AA8423A6A19213051400420589
:1018D0004181EFF02FB0624423A8A192F240424927
:1018E000B249224AAA8513958401D24461850561D3
:1018F0006FF0FFDC03D481872285EFF0CFA00504D1
:1019000023A6A1924204B70700209387872741802E
:101910003E94834504006244F240D2444249B249B5
:10192000224A23A8B1966205618505616FF05FEBDD
:10193000411137170140B717002006C69387473972
:101940009306078094C398C7930607C01307074000
:10195000D4C3D8C7B7170020370702009387473A88
:10196000050798C3370708001107D8C337072000B9
:10197000410798C73707800013070704D8C7370700
:1019800000021307071098CB37070008130707401A
:10199000D8CB3717002098CF37470080D8CF854560
:1019A0001145EF30E01285452145EF306012854545
:1019B0004145EF30E011B240854513050002410179
:1019C0006F300011411106C6EFF0CFA4953737678D
:1019D000000823A0E19AEFE03FE5B24041016FF03B
:1019E0007FD89377F50013971700B71700209387D8
:1019F000473ABA9783D70700011106CE2312F100A8
:101A00008D473EC4C14799E1930780043EC61181CA
:101A1000B7170020938747390A053E9508414C00C7
:101A2000EF207065F240056182801377F50093170F
:101A30001700371700201307473A3E971181B71751
:101A400000200A05938747393E953336B000084198
:101A5000835507006F20906F411126C293847199BE
:101A600003C5040022C4854506C613846199753FE9
:101A7000034504008545553F03C50400814575377E
:101A8000034504002244B24092448145410171BFA4
:101A9000411122C41384719903450400814506C68F
:101AA000693703C5619985454937034504002244D8
:101AB000B2408545410195BF411126C29384619989
:101AC00003C5040022C4854506C613847199EFF04E
:101AD0005FF1034504008545EFF0BFF003C5040046
:101AE0008545EFF09FF4034504008545EFF0FFF3D3
:101AF000EFF09FF62244B2409244410151BF0111E0
:101B000026CAAA8403C54199814522CC4EC652C437
:101B100006CE4AC82144EFF05FF193978401E18734
:101B200003C5818D814563D307008545EFF0FFEF45
:101B30001389D1990345090081457D14EFF0FFEE2B
:101B400003450900860485451374F40F93F4F40FDC
:101B5000EFF0BFED79F0F2406244D2444249B2491D
:101B6000224A0561828041114AC01389D1990345F7
:101B7000090026C2854506C622C49384818DEFF0F4
:101B80005FE603C504008545EFF0BFE503C5E186C8
:101B9000854513844199EFF0DFE403450400854552
:101BA000EFF03FE4034509008545EFF01FE803C56A
:101BB00004008145EFF07FE7034504008145EFF025
:101BC000DFE603C7319013843190631C070C1305C3
:101BD000E00AEFF0DFF20145EFF07FF24145EFF070
:101BE0001FF213050004EFF09FF113051008EFF04A
:101BF0001FF11305F00CEFF09FF01305100AEFF042
:101C00001FF01305800CEFF09FEF1305600AEFF053
:101C10001FEF1305800AEFF09FEE1305F003EFF0BE
:101C20001FEE1305300DEFF09FED0145EFF03FED96
:101C30001305500DEFF0BFEC13050008EFF03FEC7B
:101C40001305900DEFF0BFEB1305100FEFF03FEB16
:101C50001305A00DEFF0BFEA4945EFF05FEA130569
:101C6000B00DEFF0DFE913050004EFF05FE91305B5
:101C70000002EFF0DFE80945EFF07FE81305D00838
:101C8000EFF0FFE75145EFF09FE71305400AEFF053
:101C90001FE71305600AEFF09FE61305F00AEFF067
:101CA0001FE60347040085476313F7061305F00A90
:101CB000EFF0FFE413050004EFF07FE41305000AE2
:101CC000EFF0FFE31305600AEFF07FE31305400A2E
:101CD000EFF0FFE21305200AEFF07FE21305800C1E
:101CE000EFF0FFE11305F002EFF07FE11305500282
:101CF000EFF0FFE013051008EFF07FE02244B24060
:101D0000924402491305500241016FF05FDFB24077
:101D100022449244024941018280011126CAAA84C8
:101D200003C54199854522CC4EC652C406CE4AC849
:101D30002144EFF09FCF93978401E18703C5818D04
:101D4000814563D307008545EFF03FCE1389D199D4
:101D50000345090081457D14EFF03FCD034509009F
:101D6000860485451374F40F93F4F40FEFF0FFCB62
:101D700079F0F2406244D2444249B249224A0561B4
:101D80008280011106CE22CC26CA4AC84EC652C451
:101D900056C285476309F50A0DC589476307F50CE7
:101DA0008D47630AF5126244F240D2444249B24977
:101DB000224A924A9375F50F1305200505616FE0DD
:101DC000DFF883D781873707002013078727B3867B
:101DD000E70003C5060023A6A19693861700C20656
:101DE000C182BA9683C5060023A8B19693862700C0
:101DF000C206C182BA9603C6060023AAC19693867C
:101E000037009107C207C183BA9783C70700C2068C
:101E1000C182BA9623AEF19683C60600A381A19033
:101E2000A38EB198238CC18C2387D18623ACD19605
:101E3000238AF198F2406244D2444249B249224A8C
:101E4000924A0561828003D58187EFE0DFCB62444F
:101E500023A6A192F240D2444249B249224A924A70
:101E6000A385A18E05616FF01FD003D58187B709C7
:101E700000201309000BEFE0BFC223A6A1961305B3
:101E8000050813140501418093898927130A800BE3
:101E90004A85EFF0DFC603C5B18E930404F8C2048F
:101EA000EFF0FFC54145C180EFF07FC5B387340136
:101EB00003C507008504C204C180EFF01FE6E39765
:101EC00084FE05091304040842041379F90F4180C4
:101ED000E31049FD85B703D481879384019322855C
:101EE000EFE05FC4AA8923A6A1921305240042054E
:101EF0004181EFE03FC38387B18E110442043E95D8
:101F0000B70700209387872741803E9483470400CA
:101F100088C0138509FB1389C1961375F50F23201B
:101F2000F900EFF0DFBD88403D89EFF05FBD03C5EC
:101F30000400118113650501EFF07FBC6244034585
:101F40000900F240D2444249B249224A924A05610C
:101F50006FF0BFDC011122CC26CA4EC652C406CE99
:101F60004AC8AA8421441389219503450900814563
:101F70007D14EFF09FAB03C5419593F504081374EE
:101F8000F40FEFF09FAA0345090085458604EFF0A2
:101F9000DFA993F4F40F61F8F2406244D24442495D
:101FA000B249224A05618280411122C42A8403C5B4
:101FB0003195854506C6EFF05FA722852244B240E1
:101FC00041016FF03FF9411122C42A8403C53195C4
:101FD000854506C6EFF07FA513558400EFF09FF707
:101FE0001375F40F2244B24041016FF0BFF6411166
:101FF00022C42A8403C53195814506C6EFF0FFA2AD
:1020000022852244B24041016FF0DFF4B72700007F
:102010009387C72923A2F188B72700009387072E4B
:1020200023A0F188411123A8A18A1305600306C6E5
:1020300023A6B18AEFF0BFFB0145EFF0FFF61305D1
:10204000A003EFF0DFFA1545EFF01FF61305200BA4
:10205000EFF0FFF93145EFF03FF53145EFF0DFF4F8
:102060000145EFF07FF413053003EFF0FFF31305A4
:102070003003EFF07FF31305700BEFF05FF71305FC
:102080005003EFF07FF21305B00BEFF05FF66545FC
:10209000EFF09FF11305000CEFF07FF51305C00280
:1020A000EFF09FF01305200CEFF07FF40545EFF003
:1020B000BFEF1305300CEFF09FF34945EFF0DFEE73
:1020C0001305400CEFF0BFF213050002EFF0DFED57
:1020D0001305600CEFF0BFF13D45EFF0FFEC130589
:1020E000000DEFF0DFF01305400AEFF0FFEB1305F2
:1020F000100AEFF07FEB1305000EEFF05FEF130512
:10210000000DEFF07FEA1145EFF01FEA3545EFF0E3
:10211000BFE94545EFF05FE94D45EFF0FFE81305F6
:10212000B002EFF07FE81305F003EFF0FFE71305CF
:102130004005EFF07FE71305C004EFF0FFE66145CF
:10214000EFF09FE63545EFF03FE62D45EFF0DFE598
:102150007D45EFF07FE513053002EFF0FFE4130556
:10216000100EEFF0DFE81305000DEFF0FFE311456F
:10217000EFF09FE33145EFF03FE34545EFF0DFE25D
:102180004D45EFF07FE21305C002EFF0FFE11305CC
:10219000F003EFF07FE113054004EFF0FFE01305DB
:1021A0001005EFF07FE01305F002EFF0FFDF7D4553
:1021B000EFF09FDF7D45EFF03FDF13050002EFF00A
:1021C000BFDE13053002EFF03FDE13051002EFF023
:1021D0001FE24545EFF0BFE1B24013059002410117
:1021E0006FF0FFE0011122CC2A841305A00206CE75
:1021F00036C22EC632C4EFF09FDF2285EFF0BFDC7F
:1022000022463285EFF03FDC1305B002EFF03FDEEF
:10221000B2452E85EFF03FDB92463685EFF0BFDA10
:102220006244F2401305C00205616FF05FDC0111EA
:1022300026CA4EC683A6C18A03A6018B52C4FD16C8
:102240007D16C20642062A8AC18241828145014525
:1022500022CC4AC806CE0144EFF0DFF89389C18A48
:102260001389018B832709006348F402F24062441A
:10227000D2444249B249224A05618280850452858E
:10228000C204EFF05FD4C18083A70900E3C8F4FE65
:10229000050442044180F9B78144FDB783C7219604
:1022A0009DEF634E050283A7018B635AF50263C855
:1022B000050283A7C18A63D4F5021316050193961C
:1022C00005014182C18241113285B68506C6EFF013
:1022D0007FF1B24003D5019641016FF0DFCE8280DD
:1022E00083C7E1959DEF634E050283A7018B635A77
:1022F000F50263C8050283A7C18A63D4F5021316E9
:102300000501939605014182C18241113285B6854E
:1023100006C6EFF03FEDB24003D5C19541016FF025
:102320009FCA8280994763E6A71895650A05938539
:10233000050D2E951841411106C622C426C2938769
:102340008187028783D70700370700201307872775
:10235000B386E70083C5060023A6B19693861700CF
:10236000C206C182BA9603C6060023A8C196938608
:1023700027008D07C207C183BA9783C70700C2062B
:10238000C182BA9683C6060023ACF196238AB19423
:102390002389C194A38AD19423AAD196A389F194C5
:1023A000B240224492444101828003D40700228536
:1023B000EFE05F82AA8423A6A192130544004205A0
:1023C0004181EFE03F81224423A8A192B240AA8537
:1023D0002685924441016FF07FC303D40700228514
:1023E000EFE04FFFAA8423A6A19213054400420503
:1023F0004181EFE02FFE224423A8A192B240AA859A
:102400002685924441016FF07FE903D407002285BD
:10241000EFE04FFCAA8423A6A192130544004205D5
:102420004181EFE02FFB224423A8A192B240AA856C
:102430002685924441016FF0BFEA03D50700EFE023
:102440004FE22244B240924423A6A19641016FF08C
:102450001FDE03D407002285EFE0AFE0090423A6C6
:10246000A1964204B70700209387872741803E94B6
:102470008347040023A8F1962381F1962390A19627
:1024800005B703D407002285EFE0AFDD090423A6DA
:10249000A1964204B70700209387872741803E9486
:1024A0008347040023A8F196238FF194239EA194DF
:1024B000C5BD9375F50F130520056FE01F89411108
:1024C0004AC0138961950345090026C2854506C6A1
:1024D00022C493848195EFF0CFD003C504008545D5
:1024E000EFF02FD013847195034504008545EFF07C
:1024F0004FCF034509008545EFF02FD303C50400F6
:102500008545EFF08FD2034504002244B240924447
:102510000249814541016FF04FD101114AC826CAD5
:10252000AA8403C5819522CC814506CE4EC69389E7
:102530007195EFF08FCF03C509008545138981950B
:10254000EFF0AFCE03C5090081459149EFF0EFCD23
:10255000138471950345090093F50408FD19EFF004
:10256000CFCC0345040085458604EFF00FCC03452E
:102570000400814593F9F90F93F4F40FEFF0EFCADB
:10258000E39A09FC0345090081459149EFF0EFC941
:10259000034504008545FD19EFF02FC903450400EC
:1025A000814593F9F90FEFF04FC8E39309FE914984
:1025B0000345090093F50408FD19EFF00FC7034523
:1025C000040085458604EFF04FC6034504008145AD
:1025D00093F9F90F93F4F40FEFF02FC5E39A09FC88
:1025E0000345090081459144EFF02FC403450400E1
:1025F0008545FD14EFF06FC303450400814593F456
:10260000F40FEFF08FC2FDF0624403450900F24081
:10261000D2444249B249854505616FF00FC10111AD
:1026200026CA4EC6AA8903C5819585454AC852C4A3
:1026300006CE22CC1549EFF04FBF938481951384C9
:1026400071950345040085457D19EFF00FBE0345E4
:10265000040081451379F90FEFF02FBDE31109FE56
:1026600003C504008145EFF04FBC034504008545D8
:10267000EFF0AFBB034504008145EFF00FBB03C58E
:1026800004008145EFF06FBA034504008545EFF083
:10269000CFB9034504008145EFF02FB96244F24001
:1026A000D2444249224A4E85B24905616FF0FFE6A5
:1026B000411106C6EFF0BFE013050003EFF03FF64F
:1026C00013050003EFF0BFF53145EFF05FF5054569
:1026D000EFF0FFF41945EFF09FF413054003EFF01E
:1026E0001FF4B2401305600341016FF05FF3011165
:1026F00026CA4EC6AA8903C5819585454AC852C4D3
:1027000006CE22CC1549EFF04FB293848195138405
:1027100071950345040085457D19EFF00FB1034520
:10272000040081451379F90FEFF02FB0E31109FE92
:1027300003C504008145EFF04FAF03450400854514
:10274000EFF0AFAE034504008145EFF00FAE03C5D7
:1027500004008545EFF06FAD034504008545EFF0BB
:10276000CFAC034504008145EFF02FAC6244F2404A
:10277000D2444249224A4E85B24905616FF0FFD9E1
:10278000011106CE22CC26CA4AC84EC652C485477D
:10279000630EF5060DC18947630BF5086244F240EC
:1027A000D2444249B249224A9375F50F13052005D8
:1027B00005616FE08FD983D7818737070020130722
:1027C0008727B386E70003C6060023A6C196938633
:1027D00017008907C207C183BA97C20683C70700DB
:1027E000C182BA9683C6060023AAF196238BC194B0
:1027F000238CD19423A8D196A38BF194F240624408
:10280000D2444249B249224A0561828003D5818778
:10281000EFE06FAF624423A6A192F240D244424956
:10282000B249224A2386A18E05616FF07FE803D565
:1028300081874164EFE0CFA6370A002023A6A19646
:10284000130904FC9389C1960114130A8A271305FE
:1028500004FA1375F50F9304043EEFF05FDCC20435
:1028600013050008C180EFF09FDB83A70900A6973E
:10287000D29703C50700938404FCC204C180EFF023
:102880001FE7E39424FF93040440C204C18083A79C
:102890000900A697D29703C50700938404FCC204DD
:1028A000C180EFF0DFE4E31494FE0504420405095F
:1028B000420941801359090159F889B741118145ED
:1028C00006C622C42A84EFF04F9622858545EFF094
:1028D000CF9522858145EFF0CF9022852244B240EA
:1028E000854541016FF0EF8FAA87A18393F7F70F1A
:1028F00005471375F50F638BE70089C7F517636B01
:10290000F700828093F5F50F6FF0AF8D93F5F50F1B
:102910006FF0AF918545130530056FE00FC341118E
:1029200022C426C24AC006C6AA842E8921448145F3
:102930002685EFF08F8F937519002685EFF0EF8EC7
:102940007D14854526851374F40F13591900EFF093
:10295000CF8D71FCB24022449244024941018280F1
:102960001377F50093171700371700201307473A1E
:102970003E971181B71700200A05938747393E9586
:102980008355070008416F10D07B1377F50093172C
:102990001700371700201307473A3E971181B717E2
:1029A00000200A05938747393E9583550700084163
:1029B0006F109078011122CC03C57199814506CE24
:1029C00026CA4AC84EC652C4EFF0AF8103C561990A
:1029D0008545E169EFF06F851384719923AC01900F
:1029E0001389619993848191054A9389F969034513
:1029F0000400EFF09FF9631545019C4063F3F90271
:102A0000034509008145EFF04F820345040062440D
:102A1000F240D2444249B249224A854505616FE0FD
:102A20005FFC85079CC0E1B7011122CC26CA4EC6C7
:102A300052C406CE4AC8AA84214403C5719993F5AD
:102A4000040813896199EFE05FFE0345090085459D
:102A50007D14EFE09FFD0345090086048145137452
:102A6000F40F93F4F40FEFE05FFC61F86244F2407E
:102A7000D2444249B249224A05616FF0BFF3411185
:102A800006C622C42A84EFE03FFD13058007EFF05D
:102A9000BFF90145EFF05FF92285EFF0FFF822441E
:102AA000B24041016FE0DFFE411106C6EFF0CF807A
:102AB0001305E00AEFF0BFFC0145EFF05FFC414574
:102AC000EFF0FFFB13050004EFF07FFB1305100888
:102AD000EFF0FFFA1305F00CEFF07FFA1305100A80
:102AE000EFF0FFF91305800CEFF07FF91305600A92
:102AF000EFF0FFF81305800AEFF07FF81305F003FD
:102B0000EFF0FFF71305300DEFF07FF70145EFF021
:102B10001FF71305500DEFF09FF613050008EFF0B7
:102B20001FF61305900DEFF09FF51305100FEFF052
:102B30001FF51305A00DEFF09FF44945EFF03FF4AA
:102B40001305B00DEFF0BFF313050004EFF03FF3F2
:102B500013050002EFF0BFF20945EFF05FF2130535
:102B6000D008EFF0DFF15145EFF07FF11305400A97
:102B7000EFF0FFF01305600AEFF07FF0B2401305AD
:102B8000F00A41016FF0BFEF411106C622C42A844A
:102B9000EFE09FEC13058007EFF01FE91305000439
:102BA000EFF09FE82285EFF03FE82244B240410178
:102BB0006FE01FEE011106CE22CC26CA4AC84EC6CF
:102BC00052C456C285476305F50615C1894763039C
:102BD000F5086244F240D2444249B249224A924A3C
:102BE0009375F50F1305200505616FE00F9683D7E8
:102BF00081873707002013078727B386E7008507FB
:102C0000C207C183BA9783C7070083C6060023A8FB
:102C1000F196238BD19823A6D196A38BF198F240FD
:102C20006244D2444249B249224A924A05618280B2
:102C300003D58187EFD03FED624423A6A192F240F5
:102C4000D2444249B249224A924A2386A188056168
:102C50006FF09FE503D58187B70900201309000BAA
:102C6000EFD01FE423A6A196130505081314050150
:102C7000418093898927130A800B4A85EFF03FE052
:102C800003C5C188930404F8C204EFF05FDF414537
:102C9000C180EFF0DFDEB387340103C50700850490
:102CA000C204C180EFF05FEEE39784FE05091304D0
:102CB000040842041379F90F4180E31049FD85B7F8
:102CC000411122C4096426C24AC006C6AA8413045C
:102CD000147105492685EFF05FCB631425017D143F
:102CE00075F8B24022449244024941018280411168
:102CF00022C4096426C206C6AA8413041471268558
:102D0000EFF0BFC819E17D147DF8B240224492442F
:102D100041018280011122CC26CA4AC84EC606CE85
:102D20002A89A144014485494A85EFF05FFC0604E5
:102D30004A851374F40FEFF05FC5631735014A85B8
:102D400013641400EFF0DFF7FD1493F4F40FE9FCC3
:102D50002285F2406244D2444249B24905618280F0
:102D60004111814506C622C426C2AA84EFE0FFCBEA
:102D700026858545EFE07FCB81452685EFE07FC640
:102D80002685EFF0FFF32685EFF07FF62685EFF03E
:102D90003FF32685EFF01FF8131485002685EFF02A
:102DA0007FF72A942685EFF0FFF622042A942685E1
:102DB000EFF05FF622042A942685EFF0BFF5268512
:102DC0008545EFE01FC22285B24022449244410172
:102DD00082800DE583D781873707002041111307D3
:102DE000872706C6BA9703C5070023A6A196EFF06A
:102DF0003FF7B24023ACA180410182809375F50F6B
:102E0000130520056FD07FF401114EC6AE898545AC
:102E100006CE22CC26CA2A844AC852C4EFE0FFC09C
:102E2000228581453164EFE05FC0130404354E858F
:102E3000EFF0BFB519E17D147DF8156923A2019269
:102E4000014493844192054A130909E24E85EFF04B
:102E5000DFB363174501804033048040E37889FE87
:102E6000130520023304A4021305800CF240D2445F
:102E70004249B249224A3355A40262440561828024
:102E800015ED83D781873707002013078727B3867F
:102E9000E7008507C2074111C18306C6BA9703C57B
:102EA000060083C5070023A8B19623A6A196EFF0DC
:102EB000BFF5B24023ACA180410182809375F50F2C
:102EC000130520056FD07FE8011122CC26CA4AC81D
:102ED0004EC652C456C206CE2A89A14401449377F5
:102EE000190003C5518C814591C38545EFE0FFB3BF
:102EF00003C5418C814513591900EFE01FB303C589
:102F0000618C0580EFF07FA89387418C09C513641D
:102F100004F81374F40F03C50700FD14854593F4FA
:102F2000F40FEFE09FB0C5FC2285F2406244D2442A
:102F30004249B249224A924A0561828011C98547B5
:102F4000630CF5049375F50F130520056FD0FFDFB3
:102F500083D781873707002013078727B386E700C9
:102F600003C6060023A6C196938617008907C207E9
:102F7000C183BA97C20683C70700C182BA9683C6C7
:102F8000060023AAF196A382C18C2382D18C23A8A8
:102F9000D1962383F18C828083D7818737070020E5
:102FA00041111307872706C6BA9703C5070023A652
:102FB000A196EFF07FF1B24023ACA1804101828065
:102FC000AA874111A18306C693F7F70F0947137526
:102FD000F50F638FE7001147638FE7000547639F95
:102FE000E700EFF0FF9723ACA180B240410182805F
:102FF000EFF0BF99CDBF23AC0180C5BFB24085457E
:103000001305300541016FD05FD49307F5FF93F7A7
:10301000F70F35476360F71215678A071307C70E66
:10302000BA979C43411106C622C426C2828703D4A4
:1030300081872285EFD01FBA110423A6A1924204F2
:10304000B70700209387872741803E948347040079
:1030500023A8F19645476314E500A388F194B24094
:10306000224492444101828003D58187EFD05FA33F
:103070002244B240924423A6A19241016FE00FDFA7
:1030800003D481872285EFD0BFA1AA8423A6A1966D
:103090001305440042054181EFD09FA0224423A89C
:1030A000A196B240AA852685924441016FF0DF8344
:1030B00003D58187EFD0DF9E2244B240924423A6FD
:1030C000A19641016FF0DFEF83D78187370700209A
:1030D00013078727BA9703C7070023A6E19641B7CE
:1030E00003D481872285EFD0BF9B23A6A196130529
:1030F000440042054181EFD0BF9A23A8A196130551
:10310000840042054181EFD0DF9523AAA1961305E3
:10311000A40042054181EFD0BF9823ACA19681B7AE
:103120002244130595FCB24092441375F50F4101FA
:103130006FD09FC5130595FC1375F50FD5BF4111D1
:1031400022C426C24AC006C62A89A1440144814538
:103150004A85EFE09F8D85454A85EFE01F8D8145CB
:103160004A85EFE01F884A85EFF03F82854705805A
:103170006316F500136404F81374F40FFD14854509
:103180004A8593F4F40FEFE0DF85F1F02285B24039
:103190002244924402494101828085476309F50235
:1031A00011C98947630BF5049375F50F13052005C5
:1031B0006FD0BFB983D781873707002013078727D0
:1031C000BA9703C5070023A6A1966FF02FEF83D708
:1031D00081873707002013078727B386E700850715
:1031E000C207C183BA9703C5060083C5070023A69B
:1031F000A19623A8B1966FF08FF203D58187411174
:1032000006C6EFD05F9023A6A1961375F50FEFF0D9
:103210001FF3B24023ACA180410182809307F5FFE8
:10322000D94663E8F60615678A0713074712BA9767
:103230009C432E8582876FE0DFB46FF0BF976FF0FD
:103240002FD46FF02F8E6FD09FB56FD05FBB6FD034
:103250007FCB6FE00FA26FE0AFBB6FE00FB56FF0F9
:10326000DFF36FF01FB76FD09FD26FF07FC16FD0C9
:10327000FFD56FD0FFDC6FD05FFA6FE0EF816FE0BA
:103280000FD76FE0CF8A6FF07FCB6FE00FAB6FE0AF
:103290004FA441119375F50F1305200506C6EFD015
:1032A000DFAAB240238E01984101828093578500A6
:1032B00089E71375F50F6FF05FD51307700C63671F
:1032C000F7009375F50F3E856FF05FF58280411131
:1032D000914722C423A0F18C26C203A7819983A61B
:1032E000019A06C64AC0B387E6008C431306B00EA7
:1032F0001384018C13D5850093F5F50F9384819980
:103300006374B6006F00907015681396250013085B
:10331000081842961042028683D60190C843239C27
:10332000D186EFF0BFF8A1471CC09C401840B240C6
:103330002244BA979CC00249924441018280239C56
:10334000A186E5B788C023200400C5B783D781874D
:103350003E95420541812390A190239FA18EF1B714
:103360009387818703D707003305A7402390A700E1
:103370006DBF83D6019093850191239CD1869307DD
:10338000470003D70500B706002013868627B3063B
:10339000C7002380F6009306F7FFC206C182B296EB
:1033A00013D88700238006019306E7FFC206C18277
:1033B000B296C18375172380F6002390E50088C07C
:1033C000232004009DB70547A38AE19893850191C6
:1033D00083D70500B706002093868627138717003A
:1033E00042074183138627003697034707004206AA
:1033F00041828D073696C20713158700C1830347A4
:1034000006002390F500B69783C707002A97220786
:103410003E9798C02320040009BF1386019183576B
:103420000600B706002093868627138717004207F9
:1034300089074183C207C1833697034707002310DA
:10344000F600B69783C707002207BA97239CF18638
:10345000E9BD9386019103D6818783D7060037079C
:103460000020930587273387B7002300C700138701
:10347000F7FF420741832E972182F9172300C700E7
:103480002390F6005DB5A38A019845B50547A38A48
:10349000E19861BD03A7818123A8E19879B503C7AD
:1034A000470023ACE180A1471CC041B503D74700CA
:1034B00023ACE180A1471CC08DBDD84323ACE18083
:1034C000A1471CC09DB50387470023ACE180A147FD
:1034D0001CC0A1BD0397470023ACE180A1471CC0DD
:1034E000A9B5D84323ACE180A1471CC03DBD03C7AB
:1034F000470023A8E198A1471CC005BD03D747009A
:1035000023A8E198A1471CC00DB5D84323A8E19892
:10351000A1471CC019BD0387470023A8E198A14714
:103520001CC021B50397470023A8E198A1471CC000
:10353000EDBBD84323A8E198A1471CC0FDB383D7B6
:1035400081873E9542054181EFD0AFD12398A1906C
:10355000E9BB83D781873E9583D50191420541819F
:10356000EFD06FCCD9B323ACA180C1B34205418168
:10357000EFD0EFD088C02320040045BBDC4303D745
:103580008187BA9723ACF180A1471CC079BB83A780
:103590000199138781813305F5021C433E9508C3C9
:1035A00069B39387818198433A9588C3BDBB83A74C
:1035B00001993706FF007D8E1387818111EAB706D6
:1035C000002093868627B69783C707001CC3B1BB2C
:1035D000C207C183B69783C707001CC3B9B383A7CB
:1035E00001993707FF0013950701F98F418113896E
:1035F000818191E7EFD0EFC62320A9003DB3EFD042
:10360000AFBE2320A90015B383A701993707FF0098
:1036100013950701F98F41811389818191E7EFD0DB
:103620002FC82320A90011B3EFD08FBD2320A900FC
:10363000EDB983A701993707002013078727BA97A9
:1036400003A781812380E700CDB183D5818103D594
:103650000199EFD04FBDD1B983A5818103D50199DF
:10366000EFD0CFBDD9B1EFD04FA1C1B1EFD02FA2D4
:103670006DB983D781873E95B70700209387872749
:103680003E9583A781812300F50045B183D78187CB
:103690003E95B7070020938787273E9583A78181B2
:1036A0002300F50059B183D781873E95B7070020E5
:1036B000938787273E9583A781812300F500B5B1C5
:1036C00083D781873E9583D5818142054181EFD0A3
:1036D0008FB5A1B983D781873E9583A581814205A6
:1036E0004181EFD0AFB591B183D781873E95B707C0
:1036F0000020938787273E9583A781812300F500CB
:103700002DB183D781873E95839581814205418183
:10371000EFD0AFBB19B983D781873E9583A581814F
:1037200042054181EFD0CFBB09B183D781873E9558
:10373000B7070020938787273E950347050023ACF2
:10374000E180E5B683D781873E95B7070020938750
:1037500087273E950347050023ACE180F9B683D760
:1037600081873E95B7070020938787273E950347BB
:10377000050023ACE18055BE83D781873E95420585
:103780004181EFD00FAE23ACA18045B683D78187AE
:103790003E9542054181EFD0AFB023ACA18071B618
:1037A00083D781873E9542054181EFD0CFB523ACC9
:1037B000A180A5BE83D781873E9542054181EFD088
:1037C0006FB623ACA18095B683D781873E9542051D
:1037D0004181EFD02FC023ACA18081BE83D78187E8
:1037E0003E95B7070020938787273E95034705003E
:1037F00023A8E1981DBE83D781873E95B707002097
:10380000938787273E950347050023A8E19831BE9B
:1038100083D781873E95B7070020938787273E95FA
:103820000347050023A8E19809B683D781873E9511
:1038300042054181EFD0EFA223A8A198FDB483D720
:1038400081873E9542054181EFD08FA523A8A1989D
:10385000E9BC83D781873E9542054181EFD0AFAA6D
:1038600023A8A198D9B483D781873E954205418189
:10387000EFD04FAB23A8A1984DBC83D781873E954D
:1038800042054181EFD00FB523A8A19879BC83D51B
:10389000818142054181EFD00F9941BC83A581818F
:1038A00042054181EFD08F9949B4B7070020938733
:1038B00087273E9583A781812300F500BDB48395BA
:1038C000818142054181EFD04FA085B483A58181DC
:1038D00042054181EFD0CFA089BCB7070020938774
:1038E00087273E950347050023ACE1803DBC420598
:1038F0004181EFD00F9723ACA18005BC42054181E7
:10390000EFD00F9A23ACA1806FF03FA24205418116
:10391000EFD06F9F23ACA1806FF03FA142054181A2
:10392000EFD04FA023ACA1806FF03FA042054181B2
:10393000EFD04FAA23ACA1806FF03F9FB7070020C4
:10394000938787273E950347050023A8E1986FF0EA
:10395000DF9D42054181EFD0CF9023A8A1986FF061
:10396000DF9C42054181EFD0AF9323A8A1986FF06F
:10397000DF9B42054181EFD00F9923A8A1986FF0FA
:10398000DF9A42054181EFD0EF9923A8A1986FF00B
:10399000DF9942054181EFD0EFA323A8A1986FF0F2
:1039A000DF989387818198432A0798C36FF0FF9728
:1039B000938781819843298798C36FF01F979387D6
:1039C000818103C7070098C36FF03F969387818179
:1039D00003D7070098C36FF05F959387818103C772
:1039E000070098C3EFC07FE96FF03F949387818110
:1039F00003D7070098C3EFC09FE96FF01F9383A719
:103A0000818181EF054723ACE1806FF01F9283A78E
:103A1000818181C783A70199F5F723AC01806FF0FD
:103A2000DF9083A7818103A70199D98FE1FF6FF010
:103A3000DF8F9387818198433307E04098C36FF00D
:103A4000DF8E938781819843E351078E3307E040EF
:103A500098C36FF09F8D138781811C4383A60199C2
:103A6000B69793F7F70F1CC36FF03F8C13878181D4
:103A70001C4383A60199B697C207C1831CC36FF08C
:103A8000DF8A93878181984383A60199369798C3EB
:103A90006FF0BF89138781811C4383A60199958F9D
:103AA00093F7F70F1CC36FF05F88138781811C4366
:103AB00083A60199958FC207C1831CC36FF0FF864F
:103AC00093878181984383A60199158F98C36FF0DE
:103AD000DF851387818183C601998347070023AC63
:103AE000D182B387D70223AEF18093F7F70F1CC3BF
:103AF0006FF0BF83938681819C4203A60199416741
:103B00007D17798EF98FB387C70223ACC18223AEAC
:103B1000F180C207C187F98F9CC26FF01F81938724
:103B2000818183A60199984323ACD1823307D702C0
:103B300023AEE18098C36FF04FFF93878181984354
:103B400083A601993307D70298C36FF00FFE03A62F
:103B50000199938681819C42138781949355F64104
:103B600010C34CC33387C702B397C7022983139688
:103B70006701518F13860194A98718C25CC298C24D
:103B80006FF0AFFA9387818183C6019903C707005D
:103B900023ACD1823357D70223AEE18098C36FF0B4
:103BA000CFF8938681819C4203A6019941677D17D6
:103BB000798EF98FB3D7C70223ACC18223AEF180CF
:103BC000C207C187F98F9CC26FF02FF6938781815E
:103BD00083A60199984323ACD1823357D70223AEF1
:103BE000E18098C36FF06FF493878181984383A637
:103BF00001993347D70298C36FF02FF393878181E0
:103C0000984383A601993347D70298C36FF0EFF129
:103C100093878181984383A601993347D70298C33C
:103C20006FF0AFF0138981810325090003A6019984
:103C30001357F541938781949356F6419355650147
:103C40002A0790C3D4C32A05D98DEF10A008938703
:103C5000019488C3CCC32320A9006FF00FED138714
:103C6000818183C601998347070023ACD182B3F7D2
:103C7000D70223AEF180E207E1871CC36FF0EFEAC1
:103C8000C1661386F6FF138781811C4383A60199C1
:103C9000F18FF18EB3F7D70223ACD18223AEF1803E
:103CA000C207C1871CC36FF04FE89387818183A649
:103CB0000199984323ACD1823377D70223AEE180B8
:103CC00098C36FF08FE693878181984383A601990B
:103CD0003367D70298C36FF04FE59387818198438C
:103CE00083A601993367D70298C36FF00FE49387D7
:103CF0008181984383A601993367D70298C36FF0F7
:103D0000CFE29387818183A60199984323ACD18226
:103D100033B7E60023AEE18098C36FF00FE19387DD
:103D20008181984383A6019933A7E60098C36FF079
:103D3000CFDF1387818183A601991C4323ACD182F5
:103D4000B3B7D70093C7170023AEF1801CC36FF041
:103D5000CFDD138781811C4383A60199B3A7D700C8
:103D600093C717001CC36FF04FDC9387818183A634
:103D70000199984323ACD1823337D70023AEE18039
:103D800098C36FF08FDA93878181984383A6019956
:103D90003327D70098C36FF04FD91387818183A64B
:103DA00001991C4323ACD182B3B7F60093C7170027
:103DB00023AEF1801CC36FF04FD7138781811C4362
:103DC00083A60199B3A7F60093C717001CC36FF031
:103DD000CFD5138781811C4383A60199958F93B713
:103DE00017001CC36FF06FD4138781811C4383A617
:103DF0000199958FB337F0001CC36FF00FD3CC43FC
:103E000013878181A1471CC08357070003A801992C
:103E10001CC3138601990147B6976367A7008CC03E
:103E2000232004006FF06FD0B386E70083C606003E
:103E30006395060118C26FF04FCF05074207418313
:103E4000E9BF1387818103A60199835707000A06FA
:103E5000B2971CC3B6979C43232004009CC06FF00C
:103E6000CFCC03A7818185476311F7CC88C023207D
:103E700004006FF08FCB83A78181639807CA88C045
:103E8000232004006FF06FCA938781819843134702
:103E9000170023AEE18098C36FF02FC9938781810B
:103EA00098431347F70F23AEE18098C36FF0EFC735
:103EB000938781819843C166FD16358F23AEE180DB
:103EC00098C36FF08FC69387818198431347F7FF9C
:103ED00023AEE18098C36FF04FC59387818183A69D
:103EE0000199984323ACD182758F23AEE18098C3AA
:103EF0006FF0AFC39387818183A60199984323AC68
:103F0000D182558F23AEE18098C36FF00FC29387A3
:103F1000818183A60199984323ACD182358F23AE4A
:103F2000E18098C36FF06FC09387818183A6019968
:103F3000984323ACD1823357D70023AEE18098C396
:103F40006FF0AFBE1387818183A601991C4323AC18
:103F5000D182B397D70093F7F70F23AEF1801CC33C
:103F60006FF0AFBC1387818183A601991C4323ACFA
:103F7000D182B397D700C207C18323AEF1801CC39F
:103F80006FF0AFBA9387818183A60199984323ACE0
:103F9000D1823317D70023AEE18098C36FF0EFB81A
:103FA000138781811C4333D5A740058908C36FF06F
:103FB000CFB7138781811C4333D5A7401375F50F05
:103FC00008C36FF08FB6138781811C4333D5A74098
:103FD0004205418108C36FF04FB583A6019985471B
:103FE0003395A70003A781819387818199EA1345BF
:103FF000F5FF798D1375F50F23AEA18088C36FF09F
:10400000CFB21375F50F598DC5BF03A6019985472A
:104010003395A700416783A681817D1793878181AE
:1040200011EA1345F5FF758D798D23AEA18088C304
:104030006FF0AFAF798D558DCDBF85473395A70014
:1040400083A6818103A601999387818133E7A60026
:1040500009E61345F5FF3377D50023AEE18098C319
:104060006FF0AFAC83A60199416723ACD18293076F
:10407000F00FB397A7007D17B98F13878181104385
:104080003395A600F18F5D8D23AEA18008C36FF03C
:10409000CFA983A601991387818123ACD182C167FF
:1040A0001043FD17B397A70093C7F7FFF18F339520
:1040B000A6005D8D23AEA18008C36FF00FA783A675
:1040C000019913878181104323ACD1829307F00FAC
:1040D000B397A70093C7F7FFF18F3395A6005D8DC7
:1040E00023AEA18008C36FF04FA41387E18F8356DE
:1040F0000700B707002003A6818193878727B6971B
:1041000085062380C7002310D7006FF00FA2138706
:10411000E18F83560700B707002003A681819387AC
:104120008727B69785062380C7002310D7006FF036
:10413000CF9F1387E18F83560700B707002003A6A0
:10414000818193878727B69785062380C700231030
:10415000D7006FF08F9D1389E18F83D5818103553F
:104160000900EFC05F8C8357090089072310F9000D
:104170006FF0AF9B1389E18F83A5818103550900FF
:10418000EFC0DF8B8357090091072310F9006FF010
:10419000CF991387E18F83560700B707002003A646
:1041A000818193878727B69785062380C7002310D0
:1041B000D7006FF08F971389E18F83958181035525
:1041C0000900EFC09F908357090089072310F90069
:1041D0006FF0AF951389E18F83A5818103550900A5
:1041E000EFC01F908357090091072310F9006FF06B
:1041F000CF9393878181984311E788C023200400DF
:104200006FF0AF927D1798C36FF02F9213051005D2
:10421000238E0198EFC07FB36FF02F9183C7119564
:10422000411106C622C499CB83C7519981CB45451C
:1042300023800182EFC02FE1EFC0CFE637040020DA
:1042400013048427EFF0AF8883474400E5DF23029F
:104250000400B24022444101828083C7C19989CFC2
:104260009387818F98439306F07C63E5E6002907E6
:1042700098C382806FF09FFA8280011106CE4EC6ED
:1042800022CC26CA4AC852C456C251296D2923A439
:10429000A1801307800223ACE18A9389818B01C539
:1042A000130550036D213709020023A40188B70AC2
:1042B000002013848188114A6109084083A70900FE
:1042C0006377F50093840A019C4063894703B767CD
:1042D000000823AAF182814613874183370501082C
:1042E00013864180104205E68DEA6244F240D244D2
:1042F0004249B249224A924A05613DA94A952A0596
:10430000552188C09C401C4085071CC07DB783D6C2
:10431000070089078546E395A7FC1CC3F9B723A2CC
:10432000018A6FF09FF59387818C98439146630BC8
:10433000D70495466315D700239AA18E82809946AB
:104340006312D7041387418F83560700411106C6B5
:104350002205369523A007002310A700A387018616
:10436000EFF0FFFB1305A00AEFB0FFDD0545EFB04E
:104370009FDD0145EFB03FDDB2401305000F410165
:104380006FB07FDC8280011106CE2AC62EC4412E7A
:104390003245A245B76700083E958D21F240056180
:1043A00061AE011122CC4AC84EC652C406CE26CAFE
:1043B0002A89AE892A84B307244163EA3701F2408F
:1043C0006244D2444249B249224A0561828083470D
:1043D000140003472400834604008345340093847B
:1043E000418A4207A207BA978840B697E205BE9570
:1043F000EFF07FF99C40110491079CC06DBF1387BB
:10440000818C0C4311469386C18B938701876399F6
:10441000C50003D7C18C23A007007D1798C28280F6
:104420001386F1868345060037180020A98D2300E6
:10443000B6008C43130688212E9685058CC39C42BA
:104440002300A600639AF502411106C613058821D0
:1044500023200700EFF0FFF41305A00AEFB0BFCE52
:104460000545EFB05FCE0145EFB0FFCDB24013057B
:10447000100F41016FB03FCD8280411122C41387DC
:10448000818C1C4306C61384818C85071CC3054799
:104490006399E7009307A00A630AF500232004004C
:1044A00031A009476398E7002396A18CB2402244CB
:1044B000410182800D47639BE7009387C18C03D73E
:1044C000070022053A952390A700CDB791461387A0
:1044D000E18C6394D7002300A70083C7C19983456B
:1044E000070099CF9307F00FE39AF5FA03D7C18C31
:1044F0008547E315F7FA2244B24041016FC08FFAB5
:104500009387050193F7F70F3D47636DF702156732
:104510008A0713070753BA979C4382872244B24005
:1045200041016FF05FE02244B24041016FF03FED86
:104530002244B24041016FC0CFEE2244B24041015B
:104540006FD0EFA613050005EFC03F8081BF41117A
:1045500022C6374401409305505213050480F12DC3
:1045600009CD130504807D2D1374F50FA285054533
:10457000EFC08FDD2285EFF05FF032444101730020
:1045800020304111094506C6F926D52DEFD08FC33D
:10459000EFF0BFCC29453927E5BFB7170240984354
:1045A000B706FFF841111367170098C3D8433706C1
:1045B0000200758FD8C39843B706F7FEFD16758FB6
:1045C00098C39843B706FCFFFD16758F98C3D84370
:1045D000B70681FFFD16758FD8C337079F0098C7B0
:1045E00002C402C69843C166558F98C3B7160240ED
:1045F000130700509C42F18F3EC6A24785073EC478
:10460000B24781E7A247E397E7FEB71702409C4312
:104610001397E7006354070885473EC6324785472E
:10462000631CF706B72702409843B706C1FFFD1683
:104630001367070198C39843719B98C39843136706
:10464000270098C3B7170240D843D8C3D843D8C36C
:10465000D84313670740D8C3D843758FD8C3D8430E
:10466000B7061D00558FD8C39843B7060001558F74
:1046700098C3984393166700E3DD06FED843B71648
:104680000240719BD8C3D84313672700D8C3214782
:10469000DC42B18BE39EE7FE4101828002C6BDBFD2
:1046A00097C1FF1F938101171711002013018195F6
:1046B000171500001305C5FD97C5FF1F9385859449
:1046C0001386818163FAC5008322050023A055006B
:1046D00011059105E3EAC5FE1385818197D5FF1F7A
:1046E0009385C5D46377B500232005001105E36DDC
:1046F000B5FE9302800873A0023097C2FFFF938239
:10470000E29393E2120073905230EFF01FE99702A8
:104710000000938242E77390123473002030B70791
:10472000674537270240938737125CC3B797EFCDB1
:104730009387B79A5CC38280372702401C4B93E76C
:1047400007081CCB8280B727024088538280B72796
:104750000240C8C78280B7270240D8470545058B6D
:1047600011EBD8470945118B11E7C847418913352B
:1047700015000D058280411122C426C206C62A8476
:104780008544EFF05FFD6319950019E0154531A0F0
:10479000EFF07FFC7D14C5BF75D8B240224492442F
:1047A00041018280411126C2AA8437050B0006C64A
:1047B00022C4EFF05FFC91476316F50237240240F4
:1047C0001C4837050B0093E727001CC844C81C4849
:1047D00093E707041CC8EFF01FFA1C480967751718
:1047E000F98F1CC88567F198BD8C9840B24022446F
:1047F000B7270240D8DB924441018280797122D4EC
:104800002A8409654AD04ECE06D626D22E8902C603
:104810009149EFF05FF663123505B72402409C48DA
:10482000096593E717009CC893170901C1832310FA
:10483000F400EFF05FF4631D3501930724003EC6DA
:10484000B24713590901096523902701EFF0BFF220
:104850009C4809677917F98F9CC8856771983D8CCA
:104860001840B2502254B7270240D8DB9254025964
:10487000F249456182809C4513F7070113F8F70060
:1048800001C7D8413368E80083D5050013F7F50F59
:1048900039C318418146854E3D4F930F80029302E4
:1048A0008004214E3396DE00B3F8C5006311160371
:1048B0009398260033131F011343F3FF3377E3006C
:1048C000B318180133E7E800639FF70550C9850660
:1048D000E39AC6FD18C11307F00F6375B70454417E
:1048E0002146854E3D4F930F800293028004414E36
:1048F000B398CE0033F715016392E8021317260030
:1049000001173313EF001343F3FFB376D3003317CC
:10491000E800D98E639DF701232A15010506E319E6
:10492000C6FD54C18280E39457FA10C94DB7E3978E
:1049300057FE23281501DDB708456D8D3335A000DE
:10494000828048456D8D3335A000828019C20CC924
:1049500082804CC9828023A6A19A82809387C19AC3
:1049600094430347050089E683472500920731A851
:10497000944305466391C60483472500034615000A
:1049800092076314D60093E707F8B7E600E093F7C1
:10499000F70FBA962380F640854693575700339712
:1049A000E6005441ADC6938707048A07B7E600E0E6
:1049B000B69798C382808C4389466393D502834619
:1049C0001500834725006365D6008A06B69779BF30
:1049D0009386E6038A06B69793F7F70F920765B7B3
:1049E00090438D46631ED6008346150083472500FD
:1049F0006364D6008606D9BF9386C6078606E1BFE4
:104A000094439147E39AF6F88347150085B7938757
:104A1000070661BF371702405C439146B18B63853F
:104A2000D700A1466386D706B7177A009387072079
:104A30001CC1371602405C423707002013070700ED
:104A40009183BD8BBA9783C607001C41B3D7D700AB
:104A50005CC15442A1829D8ABA9683C60600B3D631
:104A6000D70014C55442AD829D8A3697034707008C
:104A7000B3D7E7005CC55842398393763700138774
:104A80000181369703470700B3D7E7021CC982802C
:104A90005C435443C983BD8B1396F6008907634D6D
:104AA00006003747024003270780418B19CB371791
:104AB0007A001307072011A858439316E700E3D89C
:104AC00006FE37173D0013070790B387E7028DB73F
:104AD00099C5371702401C4F5D8D08CF8280B717EC
:104AE0000240984F1345F5FF798D88CF8280835619
:104AF0000501F577FD17F58F83D66500397122DC46
:104B000006DED58F03D7C5002318F5008356C500F0
:104B1000FD779387379FF58F83D645002A842EC66D
:104B2000D58F83D68500D58F83D6A500D58F231644
:104B3000F50083574501C207C18393F7F7CFD98F9B
:104B4000231AF5006808EFF0FFECB74701409387A0
:104B50000780B245631EF404A2578356C40065471C
:104B6000B387E702C206C186984163D506040607EB
:104B70000356C4004206B3D7E70213074006418636
:104B8000B3D6E702B3F7E7029206635706028E0731
:104B900093872703B3D7E70213F77700B367D700EC
:104BA000C207C1832314F400F25062542161828051
:104BB000925765B70A076DBF920793872703B3D74C
:104BC000E702BD8BD58FE9BF81C98357C50009674F
:104BD000D98F2316F50082800357C500F977FD179A
:104BE000F98FC5BF13F7F50F85471583B395B70048
:104BF0006319F7009307C500984301CED98D8CC384
:104C00008280894693074501E318D7FE9307050183
:104C1000E5B793C5F5FFF98DDDB793F5F51F2312C1
:104C2000B5008280035545001375F51F828003553A
:104C300005006D8D3335A000828013F7F50F854692
:104C40001583B397B6006313D7020357C500F98FD6
:104C50000357050001454207418381CB0545A181EA
:104C6000B315B5006D8F3335E0008280894663153A
:104C7000D70003570501E1BF03574501C9BF83A70B
:104C8000C18037177A0013070720B3D7E70293F7DD
:104C9000F70F2389F19A1307803EB387E702239821
:104CA000F19A8280B7F700E023A0070003D7019BA9
:104CB00023820700A3820700238307003305A7028E
:104CC000A3830700054798C337F700E05C43E37F01
:104CD000F5FE8280014863C6050E63DB06003306DD
:104CE000C040B337C000B306D0401348F8FF9D8ED4
:104CF000B6873283AA8EAE886391061863FCC50C12
:104D000041676361E61EB70700016365F636935697
:104D10008601E14717170000130787873697034777
:104D20000700BA97130700021D8F19CBB395E50052
:104D3000B357F5003313E600B3E8B700B31EE50040
:104D400013560301B3D7C80293160301C18213D7C8
:104D50000E01B3F5C8023385F602C205B3E8E500DB
:104D600063FAA8009A981387F7FF63E4680063E981
:104D7000A832BA87B388A840B3D5C802C20E93DE62
:104D80000E01B3F8C802B386B602C208B3E8D80170
:104D900063FBD8009A981387F5FF63E56800F9155F
:104DA00063E3D800BA85139507014D8D81456309EA
:104DB00008003305A040B337A000B305B0409D8D77
:104DC00082803305A040B337A000B305B0409D8D6D
:104DD0007D5821B701E605433353D3024167636A27
:104DE000E30EB7070001636BF32893568301E14795
:104DF000170700001307C779369703470700BA97CC
:104E0000130700021D8F65EB93180301B3866540FD
:104E1000135F030193D80801854513D70E01B3D75B
:104E2000E603B3F6E60333861703C206558F637AAB
:104E3000C7001A979386F7FF636467006365C72608
:104E4000B687118FB356E703C20E93DE0E01337798
:104E5000E703B388160342073367D701637B170163
:104E60001A971386F6FF63656700F91663631701E7
:104E7000B28613950701558D1DBF63E1D504C16747
:104E800063E1F604B707000163E2F61E93D88601DA
:104E90006147970700009387A76FC69703C3070072
:104EA000930700023A93B3876740E9EB63ECB61CC3
:104EB0003335C500134515008145D5BD81450145F4
:104EC000FDB59307F00F63F2D71C93D886002147F6
:104ED000C9B71307F00F9A86E37C67F093568300F7
:104EE000A14739B71307F00FB286E375C7E29356AF
:104EF0008600A14705B53313E30033D6F500135FF1
:104F00000301335EE603B396E500B357F500DD8E8B
:104F10009318030193D80801B31EE50093D5060149
:104F2000B377E6033387C803C207CD8F63FBE7007F
:104F30009A971306FEFF63E3671663F1E716791E7F
:104F40009A97998F33D6E703139706014183B3F7F6
:104F5000E7033385C80293960701D98E63FBA60049
:104F60009A969307F6FF63E7661263F5A612791621
:104F70009A9693150E01898ED18D45B533576600EB
:104F8000B396F600D98EB3D8650013DF0601B3DE01
:104F9000E803139E060133536500135E0E01B395BB
:104FA000F500B365B30013D705013316F600B3F867
:104FB000E8033303DE03C20833E7E800637B6700DE
:104FC00036979388FEFF6369D70C6377670CF91EE9
:104FD0003697330767403353E703C205C181337700
:104FE000E703B3086E024207D98D63FB1501B6953E
:104FF0001307F3FF63EED50863FC15097913B69523
:10500000C20E416FB3EE6E001307FFFFB3F6EE0062
:1050100013D30E01718F4182338EE602B3851541A1
:10502000B386C60293580E013307E302BA96C696BA
:105030003306C30263F3E6007A9613D306011A9689
:1050400063E2C5026385C500768581458DB34167FE
:105050007D17F98EC206337EEE00B317F500F29687
:10506000E3F4D7FE1385FEFF814591B393D8060183
:10507000414705B593560601C14769B993560301E7
:10508000C147BDB3814505451DB3B688014711B57C
:105090003A83BDB73E86F1BDC68E25BF328E55B56B
:1050A000F9179A98C1B9F9171A9761BB62100000F5
:1050B000D810000022110000341100004611000039
:1050C000581100008A110000BC110000EA11000014
:1050D00044230000AA230000DA2300000A24000071
:1050E0003A24000052240000822400002E300000E8
:1050F000203100006830000080300000B030000037
:10510000203100002031000020310000203100005B
:10511000C8300000C830000020310000E03000003E
:105120005E300000363200003A3200003E320000AD
:1051300042320000463200004A3200004E32000087
:1051400052320000563200005A3200005E32000037
:1051500062320000663200006A3200006E320000E7
:1051600072320000763200007A3200007E32000097
:1051700082320000863200008A3200008E32000047
:105180002A330000183300003E330000443300008F
:1051900072330000CC330000C63300004C330000F3
:1051A000603300000C4200002A3300002A33000064
:1051B0002A3300001A340000523400009E340000EC
:1051C0007C3500008E350000A2350000FE3900005D
:1051D0000E3A0000223A0000323A0000423A000043
:1051E0000C420000943A0000D23A0000843B0000D8
:1051F0005E3C0000023D0000323D00006A3D0000C0
:105200009A3D0000D23D0000E83D0000883E0000CD
:105210009C3E0000B03E00000C420000C63E000074
:10522000DA3E0000F43E00000E3F0000443F000064
:10523000643F00000C420000843F0000283F000053
:10524000623E0000763E0000F2410000A03F0000F8
:10525000A03F0000A03F0000B23F0000B23F0000AE
:10526000C63F0000DA3F00000A4000003A4000005C
:1052700064400000BE40000092400000663600001E
:105280006C3600000C4200002A330000EA400000A7
:105290000E41000032410000564100000C42000067
:1052A0007441000092410000B64100000C42000031
:1052B000D44100000C4200000C4200000C420000EF
:1052C0000C420000AE350000DE3500000C4200004C
:1052D00008360000323600004A3600000C4200005A
:1052E00058360000DA380000DA380000DA380000FA
:1052F000EE3800000C420000FC3800000C390000C1
:105300001C3900000C4200002C3900003C39000020
:105310003C3900003C390000523900000C420000CA
:105320006239000072390000823900000C4200002E
:1053300092390000AA380000AA380000AA380000FC
:105340008E3800000C4200009C380000AA38000093
:10535000BE3800000C420000CC3800002A370000A4
:10536000443700005E370000783700000C42000030
:105370008C370000A0370000B43700000C4200005A
:10538000C8370000DC370000F63700001038000096
:105390002A3800000C4200003E380000523800005D
:1053A000663800000C4200007A38000072360000B7
:1053B0008C360000A6360000C03600000C4200000B
:1053C000D4360000E8360000023700000C4200002E
:1053D000163700003E350000523500006C350000E5
:1053E00066350000323A00000C420000323A0000FC
:1053F000563A00006C3A00000C420000823A00006D
:10540000823A0000823A00000C420000823A00001A
:10541000AA3A00000C420000C03A0000C03A000066
:10542000C03A00000C420000C03A0000F43A00000C
:105430000C4200001E3B00003A3B00003A3B0000DB
:105440000C4200003A3B0000A23B00000C4200006E
:10545000CC3B0000E83B0000FC3B00000C4200009D
:10546000103C0000803C00000C420000AA3C000000
:10547000C63C0000DA3C00000C420000EE3C00009C
:10548000BE390000BE390000CC390000DA39000016
:10549000DA390000EC390000663600006C36000096
:1054A0000C4200002A3300002A3300002A33000097
:1054B0002A330000AC340000BA340000C6340000C7
:1054C000D4340000E23400001E3D0000523D0000D4
:1054D000863D0000BA3D0000D23D0000E83D0000DE
:1054E000BE390000CC3900000C4200002A33000015
:1054F000863400008C340000A23900004E3B0000CE
:10550000243C000094340000EE340000FC34000021
:105510000A35000016350000243500003235000041
:105520000C420000B0390000FE3D0000423E000089
:105530001C45000026450000304500003A450000AB
:105540004445000044450000444500004445000037
:105550004445000044450000444500004445000027
:10556000444500004445000044450000F644000066
:105570004350553A4E554C4C2C465245513A646571
:105580006661756C742C43433A30000000010202DE
:1055900003030303040404040404040405050505CB
:1055A00005050505050505050505050506060606A7
:1055B000060606060606060606060606060606068B
:1055C0000606060606060606060606060707070777
:1055D000070707070707070707070707070707075B
:1055E000070707070707070707070707070707074B
:1055F000070707070707070707070707070707073B
:105600000707070707070707070707070808080826
:10561000080808080808080808080808080808080A
:1056200008080808080808080808080808080808FA
:1056300008080808080808080808080808080808EA
:1056400008080808080808080808080808080808DA
:1056500008080808080808080808080808080808CA
:1056600008080808080808080808080808080808BA
:1056700008080808080808080808080808080808AA
:0C568000080808080808080808080808BE
:10568C0000000000010203040102030406070809DC
:10569C000400000001000000FFFFFFFF00A24A040D
:0856AC000204060800000000E2
:00000001FF
