:020000040800F2
:10000000B1AA010000000000000000000000000094
:1000100000000000000000000000000000000000E0
:1000200000000000000000000000000000000000D0
:1000300000000000000000000000000000000000C0
:1000400000000000000000000000000000000000B0
:1000500000000000000000000000000000000000A0
:100060000000000000000000000000000000000090
:100070000000000000000000000000000000000080
:100080000000000000000000000000000000000070
:100090000000000000000000000000000000000060
:1000A0000000000000000000000000000000000050
:1000B0000000000000000000000000000000000040
:1000C0000000000000000000000000000000000030
:1000D0000000000000000000000000000000000020
:1000E0001692000800000000000000000000000060
:1000F0000000000000000000000000000000000000
:1001000000000000000000000000000000000000EF
:1001100000000000000000000000000000000000DF
:10012000000000006E9800080000000000000000C1
:1001300000000000000000000000000000000000BF
:1001400000000000000000000000000000000000AF
:100150000000000000000000000000007370043088
:10016000170500001305C5FF8545F605637BB5003F
:1001700089816378B500170500001305C5002E9529
:1001800002859302002073A0027D970200009382F3
:1001900062E77390723097A20000938262A273901C
:1001A000C27E73E0C07E97A200009382A2997390F2
:1001B0005230970100189381E16A178100181301EA
:1001C00061E417C50000130565FB970500189385CA
:1001D00065E317060018130666E963FAC500832273
:1001E000050023A0550011059105E3EAC5FE17059A
:1001F00000181305A5E7976500189385A51E63777A
:10020000B500232005001105E36DB5FE73F0023241
:1002100017C500001305C5D2EFB0F04EEFB0B055D2
:1002200001458145EF0050086FB0904E01A073E08A
:0C0230000232828073F0023282800000F3
:10024000821B0008741B0008741B0008E81C0008CF
:10025000CC1C0008821B0008821B0008821B0008BF
:10026000B81C0008821B0008821B0008821B0008C3
:10027000821B0008821B0008821B0008821B0008EA
:10028000821B0008821B0008821B0008821B0008DA
:10029000821B0008821B0008821B0008821B0008CA
:1002A000821B0008821B0008821B0008821B0008BA
:1002B0004E1C0008821B00083A1D0008321D000871
:1002C000821D0008461C0008BA1B0008821B00089B
:1002D000B41B000828260008962C0008482C0008AB
:1002E0007A2C0008A62B0008762D0008CC2C0008DC
:1002F000582D0008DA2700080C270008AA2A000851
:100300009E2500080C270008C026000828270008A2
:100310001A2A00085C2A0008C62A000812280008C9
:1003200074280008B028000862290008FE28000888
:100330003E290008A0290008D429000858270008F1
:10034000282600085A260008282600085A260008F1
:100350003E2B0008062B0008222B0008FE2B00086D
:100360002C2C0008EA2A0008BE270008F6270008FF
:1003700028260008C0260008010000000200000036
:100380000400000008000000100000002000000031
:1003900040000000800000000000803FFF4F434706
:1003A0006F12833A0000FA43000020410000003F32
:1003B00000409C4500007A4400401C45000000803D
:1003C00000007042000048420000803A0000804473
:1003D000625900086057000862590008AA570008CF
:1003E000E0570008445800086259000862590008A4
:1003F00062590008625900087A58000892580008AB
:1004000062590008AE5800085C570008CC5E00082E
:10041000245F0008885F0008EC5F00085060000857
:10042000545E0008905E00089E660008866700081B
:100430001E680008546800088A680008C068000840
:10044000246900081066000882660008E06F000852
:10045000DC6F0008D86F0008D46F0008D06F000868
:10046000CC6F0008C86F0008C46F0008C06F000898
:10047000BC6F0008B86F0008B46F0008B06F0008C8
:10048000AC6F0008A86F0008A46F0008A06F0008F8
:100490009C6F0008986F0008946F0008906F000828
:1004A000E46F0008F8760008FA880008E888000879
:1004B000B4890008608900089E71000894710008E2
:1004C000987700087A770008E089000836770008F6
:1004D00002770008F8760008B67600087A760008F9
:1004E00042760008247600085E7600080E76000842
:1004F000F4750008CC750008D4870008F070000877
:10050000BA790008E08900089C790008727900082F
:100510004C79000820790008FC780008D47800089D
:10052000B0780008887800086A7800084C780008DD
:100530003078000814780008F6770008E089000891
:10054000DA770008B8770008B287000890870008BB
:1005500008840008E0830008E0890008BC830008E4
:10056000988300088283000874830008308500089F
:10057000D6700008D6700008D670000860710008B8
:10058000607100085683000822830008B2720008D8
:100590008A7F0008527F000822740008EE7300086A
:1005A00060720008BC890008E0890008F87600083D
:1005B00010820008E4810008B881000880810008EA
:1005C000E0890008688200083C820008AC820008CC
:1005D000E08900083C810008E0890008E089000803
:1005E000E0890008E089000810810008D080000838
:1005F000E0890008848000086280000834800008D8
:10060000E0890008FA7F0008BA700008BA70000894
:10061000BA70000892840008E0890008907500080C
:100620006075000892860008E0890008548600087A
:100630009E7000089E7000089E70000802750008F9
:10064000E08900085674000830750008227300081D
:10065000E0890008C67400088070000880700008F7
:100660008070000880730008E0890008E6720008C6
:100670008070000842850008E08900085484000862
:1006800030840008CC7300083E7200087E720008B7
:10069000E0890008107F0008DA7E00089E7E0008CE
:1006A000E08900085C7E0008387E0008147E00089F
:1006B000F07D0008BA7D0008E0890008787D000818
:1006C000427D0008067D0008E0890008C47C00081F
:1006D0009E7C0008787C0008527C00081E7C000884
:1006E000E0890008DE7B0008B87B0008887B0008F2
:1006F000E0890008487B0008167B0008E67A0008BD
:10070000B87A0008A67A0008F0700008E0890008AE
:10071000F0700008527A0008347A0008E089000876
:10072000687000086870000868700008E0890008B8
:1007300068700008D6790008E08900083C7000085D
:100740003C7000083C700008E08900083C7000081C
:1007500094850008E0890008708500081A71000877
:100760001A710008E08900081A7100080C7200086C
:10077000E0890008EA7100087487000858870008BB
:10078000E08900083C8700080A870008E089000823
:10079000E6860008CA86000832880008E08900085A
:1007A00016880008067100080671000834710008F8
:1007B000A28800087A8800084E8800083E89000850
:1007C000FE820008E0890008F8760008F876000844
:1007D000F8760008F8760008CA8800084871000812
:1007E000E0820008B073000848710008AC7400088B
:1007F000867A000892740008F68700086A78000874
:100800004C7800080671000834710008E08900087F
:10081000F8760008E6850008587300086C73000835
:10082000F4790008FA85000840860008BE7F0008B9
:10083000DC7F00087C710008C8850008C2840008BD
:100840007C710008E0890008707A0008E0840008E4
:100850001C890008B08F0008A68F00089C8F000834
:10086000928F0008BA8F0008BA8F0008BA8F00086C
:10087000BA8F0008BA8F0008BA8F0008BA8F000834
:10088000BA8F0008BA8F0008BA8F0008BA8F000824
:10089000888F00084350553A47443332564631302A
:1008A00033434254362C465245513A3130382C436A
:1008B000433A31000A50726F6772616D206861734C
:1008C00020657869746564207769746820636F6453
:1008D000653A0000307800006E6D690A0000000083
:1008E000747261700A0000005EAC000084AB00000E
:1008F00058AC00008CAB000058AC000052AB0000BC
:1009000058AC00008CAB000084AB000084AB00004E
:1009100052AB00008CAB000092AB000092AB000029
:1009200092AB000052AB000044AB000044AB0000AF
:1009300018AC0000F4AC000018AC000012AB0000D2
:1009400018AC0000F4AC000044AB000044AB000065
:1009500012AB0000F4AC000052AB000052AB000040
:1009600052AB000012AB000068AF0000BAAE00004E
:10097000BAAE0000B8AE0000BEAE0000BEAE0000D1
:100980008EAE0000B8AE0000BEAE00008EAE00001D
:10099000BEAE0000B8AE000056AF000056AF00007B
:1009A00056AF00008EAE00000001020203030303F5
:1009B00004040404040404040505050505050505EF
:1009C00005050505050505050606060606060606CF
:1009D00006060606060606060606060606060606B7
:1009E000060606060606060607070707070707079F
:1009F0000707070707070707070707070707070787
:100A00000707070707070707070707070707070776
:100A10000707070707070707070707070707070766
:100A2000070707070707070708080808080808084E
:100A30000808080808080808080808080808080836
:100A40000808080808080808080808080808080826
:100A50000808080808080808080808080808080816
:100A60000808080808080808080808080808080806
:100A700008080808080808080808080808080808F6
:100A800008080808080808080808080808080808E6
:100A900008080808080808080808080808080808D6
:100AA0000808080808080808411106C6EF904056D3
:100AB0000D45EF90A056EF802007EF802008F5BF8E
:100AC000397122DC37240020130444255AD0034B0B
:100AD000040006DE26DA4AD84ED652D456D25ECE6E
:100AE00062CC66CA6AC86EC663030B0EB7070008FD
:100AF00003AA8739B7040020814A05499384C42496
:100B0000B307240183C9070005094209860913595F
:100B1000090193F9F90F338C2901C20993D909010D
:100B2000CA8B63588909930D0000CA8C4A876E8D61
:100B3000229783460700034717006E859397260088
:100B40007D17B6971377F70F0D078E070607B69731
:100B5000BA978A07A6978C43890CC20CEFA0604C09
:100B6000AA8DD2856A85EFA0C04B93DC0C012A8D3B
:100B70006687E3CF8CFBAA856E85EFA03001CA861D
:100B8000A29B03C60B0003C71B0089069317260010
:100B90007D171377F70FB2970D078E07B2970607E9
:100BA000BA978A07A697C206C18288C3B68BE3C9E3
:100BB00086FD850A4E99C20A420993DA0A01135941
:100BC0000901E31F5BF3B7070020A38E0706F2506D
:100BD0006254D2544259B259225A925A025BF24B91
:100BE000624CD24C424DB24D21618280011122CC27
:100BF0001304400A33048502370500201305C52479
:100C000056C206CE26CA4AC84EC652C42A944C447E
:100C10004840832A840103290402EFA08040D6853E
:100C2000EFA0105CB70700202A8A084883A90707AD
:100C3000CA85EFA0F05AAA84CE855285EFA0007530
:100C4000D685EFA0003E08CC232A4401CE85268518
:100C5000EFA0C073CA85EFA0C03C08D044CCF240DE
:100C60006244D2444249B249224A924A0561828092
:100C7000011122CC1304400A3304850237050020F9
:100C80001305C5244EC656C206CE26CA4AC852C44B
:100C90002A94832A8401832904025685CE85EFA0F5
:100CA0003054B707000883A5473BAA844840EFA00B
:100CB000302AB707000883A58739EFA08036AA85B8
:100CC0002685EFA0A06CB707002003AA0707B7048A
:100CD0000080A98C2A89D2852685EFA0206BD68535
:100CE000EFA0203408CCD2854A85EFA0206ACE85BB
:100CF000EFA0203308D044C8232E2401F2406244E0
:100D0000D2444249B249224A924A05618280011185
:100D100022CC1304400A3304850237050020130552
:100D2000C5244EC606CE26CA4AC852C42A944C4090
:100D3000084483290402032A8401EFA02065CE859C
:100D4000EFA0202EAA855285EFA09049B707000892
:100D500083A5C73AEFA0D01FB707002083A50707D8
:100D6000AA84EFA0A0622A89AA855285EFA05047E5
:100D7000B7070080A58F08CC5CC8CE854A85EFA058
:100D8000402A08D044CCF2406244D2444249B2499D
:100D9000224A056182809307400A3307F502797180
:100DA000B707002022D41384C7244AD04ECE26D2BF
:100DB000AA8452CCB307E40083A9870103A90702E0
:100DC00056CA4E85CA855AC806D65EC662C466C271
:100DD0006AC003AA8702EFA0B040B707000883AA41
:100DE000473A2A8BD685EFA090056349050AD68538
:100DF0005A85EFA0F03ED685EFA04059B7070020F6
:100E000083AC0707AA8BB70A0080E685EFA00058DD
:100E1000AA852A8C4E85EFA0B03CB707000883A5B1
:100E2000073CAA895E85EFA0B0122A8BCA8552853D
:100E3000EFA0103B2A8DAA855A85B3CA7A01EFA08C
:100E40001000634FA008930500005A85EFA090079B
:100E50006340050AB707000883A5C73A5A85370BD0
:100E60000080EFA0F00E2A8D334BAB00E6856A853B
:100E7000EFA0C051AA8CAA855285EFA07036E685F6
:100E80002A8A6285EFA0E019AA854A85EFA0601939
:100E90002A89EA855E85EFA0C01829A0130B0000FF
:100EA0005A85DA8A9307400AB387F402B250925403
:100EB000B24B224C924C024DA297225423AC3701E4
:100EC00023A0270323A4470323AA570123A26703D0
:100ED000C8CF0259F249624AD24A424B45618280E8
:100EE0006A8B930500005A85EFA0C07DE35405F698
:100EF000B707000803ABC73B130D000085BF93077E
:100F0000400AB307F502797122D437040020130494
:100F1000C4244AD02A8906D64ECE52CCA2978C53EE
:100F2000884F56CA5AC85EC603AA070383AB870216
:100F300083A9C70203AB870383AA470326D2EFA086
:100F4000302A93050000EFA0806FDE856349050617
:100F50005285EFA0F028B707000883A5473BB709E3
:100F60000080EFA0A042B707000883A5C73AEFA012
:100F7000207EAA84AA855285EFA090262A8AA6857B
:100F80005E85EFA0000AB3C999009307400AB30732
:100F9000F902B2500259B24BA2972254C4D323A8EB
:100FA000470323A6370323AC670323AA570388D735
:100FB0009254F249624AD24A424B456182805A8534
:100FC000EFA01022B707000883A5473BB70A0080AF
:100FD000EFA0C03BB707000883A5C73AEFA0407752
:100FE000AA84AA855A85EFA0B01F2A8BA6855E85A4
:100FF000EFA02003B3CA9A0049BF9307400AB30782
:10100000F50279715AC82A8B3705002022D44ECEBA
:101010001304C524B709000826D2A29783A4893BEC
:10102000C8434AD0A68552CC56CA5EC606D683AA05
:10103000870103AA070283AB870203A98700EFA0F9
:1010400060686346A006A6855285EFA0405F6350A6
:10105000A006A6855685EFA0E0666348A000A68599
:101060005E85EFA0C05D6343A00883A4893B5685DD
:10107000A685EFA0C05CA685635FA0045E85EFA097
:1010800060646346A000B707000803A9073B83A478
:10109000893B5E85A685EFA0805A635AA0004A85E9
:1010A000A685EFA0C05913090000635CA0021305D8
:1010B000400A3305AB02B2509254F249D24A424B35
:1010C000B24B229522542322450123242501624A52
:1010D0000259456182805685EFA06056E359A0FC15
:1010E0007DB7B707000803A9073BD1B71309000074
:1010F000ADBF9307400AB307F5021D71A2CC3704B8
:1011000000201304C424A6CAAA84CAC8CEC6D2C466
:10111000A2978847D6C2DAC062DC66DA6AD86ED691
:1011200086CE5EDE03AB070283AA870203AA07030B
:1011300083A9870303A9070483AD870403AD0705CB
:1011400083AC8705EFA05042137715002A8C630902
:101150000716B70B000803A50B3BDA85EFA0500874
:1011600083A70B3B13772C002A8B3EC4630507161D
:10117000B70B000803A50B3BD685EFA070061377CD
:101180004C00AA8A83AB0B3B6301071637070008A4
:101190000325073BD285EFA0B0043707000883275B
:1011A000073B13778C002A8A3EC6630B0714370768
:1011B00000080325073BCE85EFA090023707000803
:1011C0008327073B13770C01AA893EC863050714E0
:1011D000370700080325073BCA85EFA070003707D3
:1011E00000088327073B13770C022A893ECA630F46
:1011F0000712370700080325073BEE85EFA0407E66
:10120000370700088326073B13770C04AA8D630970
:101210000712370700080325073BEA8536CCEFA005
:10122000207C370700080327073BE2462A8D937787
:101230000C08C1C3B707000803A5073BE6853ACEF3
:1012400036CCEFA0E079B707000883A7073BE2465A
:1012500072471306400AB384C4022246F640625C19
:10126000D25C269410D03246232E640123247403CA
:1012700010D84246232254032326440310DC52464E
:10128000232A3403232E24032326A40530C034C488
:101290002322B40538C83CCC68C86644D6444649C5
:1012A000B649264A964A064BF25B425DB25D25611D
:1012B000828037050080334595019307000051BFB8
:1012C00093070000B70500803EC413772C0033CB92
:1012D0006501E31F07E837070080B34A570113771A
:1012E0004C00930B0000E31307EA370700809307D5
:1012F0000000334A47013EC613778C00E31907EA22
:101300003707008093070000B34937013EC81377C1
:101310000C01E31F07EA37070080930700003349F9
:1013200027013ECA13770C02E31507EC370700804C
:10133000B34DB70113770C0493060000E31B07ECD1
:1013400037070080334DA70113070000CDB5930781
:10135000400AB307F5021D71A2CC37040020130424
:10136000C424A6CAAA84CAC8CEC6D2C4A297C847F3
:10137000D6C2DAC062DC66DA6AD86ED686CE5EDEA7
:1013800003AB870683AA070703AA870783A9070871
:1013900003A9870883AD070903AD870983AC070A52
:1013A000EFA0901C137715002A8C630F0716B70B5C
:1013B000000803A50B3BDA85EFA0806283A70B3BF7
:1013C00013772C002A8B3EC4630B0716B70B00085B
:1013D00003A50B3BD685EFA0A06013774C00AA8A2B
:1013E00083AB0B3B63070716370700080325073B52
:1013F000D285EFA0E05E370700088327073B13770D
:101400008C002A8A3EC663010716370700080325A9
:10141000073BCE85EFA0C05C370700088327073B5A
:1014200013770C01AA893EC8630B0714370700081D
:101430000325073BCA85EFA0A05A3707000883277A
:10144000073B13770C022A893ECA63050714370746
:1014500000080325073BEE85EFA0805837070008FA
:101460008326073B13770C04AA8D630F07123707F7
:1014700000080325073BEA8536CCEFA06056370706
:1014800000080327073BE2462A8D93770C08D1C753
:10149000B707000803A5073BE6853ACE36CCEFA098
:1014A0002054B707000883A7073BE246724713069C
:1014B000400AB384C4022246F640625CD25C2694A1
:1014C00030D43246232264072328740730DC424696
:1014D00023265407232A44072320C4085246232ED8
:1014E000340723222409232AA4092324C4082328F7
:1014F000D4082326B409232CE4082320F40A232E3D
:10150000A4086644D6444649B649264A964A064B3C
:10151000F25B425DB25D2561828037050080334514
:1015200095019307000061B793070000B70500809D
:101530003EC413772C0033CB6501E31907E8370766
:101540000080B34A570113774C00930B0000E31D52
:1015500007E83707008093070000334A47013EC67B
:1015600013778C00E31307EA370700809307000026
:10157000B34937013EC813770C01E31907EA37076F
:10158000008093070000334927013ECA13770C02FD
:10159000E31F07EA37070080B34DB70113770C0448
:1015A00093060000E31507EC37070080334DA701D1
:1015B00013070000D9BD9307400AB307F5025D7118
:1015C000A6C2B70400209384C424A2C43704000830
:1015D0004EDE8329843B52DCA69798572A8AC8435B
:1015E0003AC0985BCE85CAC03AC2985F56DA5AD8DC
:1015F0003AC4B8435ED662D466D26AD06ECE86C68E
:1016000083AA870103AB07023AC603AC870483AC05
:10161000070503AD870583AD070683AB870003A9E4
:10162000C700EFA0200A6348A000CE855685EFA032
:1016300000016348A00E8329843B5E85CE85EFA020
:1016400060086346A00ACE855A85EF90507F6350AC
:10165000A00A0245CE85EF90907E3329A000124566
:10166000CE85EF90D07D6354A000136929008325B7
:10167000843B2245EF90B07C6354A000136949007D
:101680008325843B3245EF90907B6354A00013691F
:1016900089008325843B6285EF90707A6354A000B3
:1016A000136909018325843B6685EF905079635463
:1016B000A000136909028325843B6A85EF90307886
:1016C0006354A000136909048325843B6E85EF9061
:1016D00010776354A000136909084A85EFA0E06EF3
:1016E000B707000883A5C73AEF90B0132A8993077C
:1016F000400A330AFA02B6402644F259B25B225C31
:10170000925C025DF24DD29423A2540123A46401A1
:1017100023A62401625A96440649D25A425B61616B
:1017200082804A85EFA040649307150013D5F741E6
:101730006181AA9793F7F70F3385A740EFA0E06880
:10174000B707000883A5C73AEF90B00D2A89E5B521
:101750009307400AB307F5021D71A2CC370400209D
:101760001304C424A6CAAA84CAC8CEC6D2C4A297E7
:101770008847D6C2DAC062DC66DA6AD86ED686CE10
:101780005EDE03AB070683AA870603AA070783A9C1
:10179000870703A9070883AD870803AD070983AC52
:1017A0008709EFA0605C137715002A8C630E07167B
:1017B000B70B000803A50B3BDA85EFA0602283A7D7
:1017C0000B3B13772C002A8B3EC4630A0716B70B1A
:1017D000000803A50B3BD685EFA0802013774C00B3
:1017E000AA8A83AB0B3B630607163707000803255D
:1017F000073BD285EFA0C01E370700088327073BB1
:1018000013778C002A8A3EC6630007163707000844
:101810000325073BCE85EFA0A01C370700088327D0
:10182000073B13770C01AA893EC8630A07143707E0
:1018300000080325073BCA85EFA0801A3707000878
:101840008327073B13770C022A893ECA63040714D7
:10185000370700080325073BEE85EFA06018370720
:1018600000088326073B13770C04AA8D630E07122A
:10187000370700080325073BEA8536CCEFA0401662
:10188000370700080327073BE2462A8D93770C08A9
:10189000C9C7B707000803A5073BE6853ACE36CC93
:1018A000EFA00014B707000883A7073BE246724782
:1018B0001306400AB384C4022246F640625CD25C3E
:1018C000269430D03246232E64052324740730D862
:1018D0004246232254072326440730DC5246232A5B
:1018E0003407232E24072326A4092320C4082324F5
:1018F000D4082322B4092328E408232CF408232A3B
:10190000A4086644D6444649B649264A964A064B38
:10191000F25B425DB25D2561828037050080334510
:1019200095019307000069B793070000B705008091
:101930003EC413772C0033CB6501E31A07E8370761
:101940000080B34A570113774C00930B0000E31E4D
:1019500007E83707008093070000334A47013EC677
:1019600013778C00E31407EA370700809307000021
:10197000B34937013EC813770C01E31A07EA37076A
:10198000008093070000334927013ECA13770C02F9
:10199000E31007EC37070080B34DB70113770C0451
:1019A00093060000E31607EC37070080334DA701CC
:1019B00013070000E1BD9307400AB307F5025D710C
:1019C000A6C2B70400209384C424A2C4370400082C
:1019D000CAC00329843B4EDEA697985BAA89C843F8
:1019E0003AC4985FCA8552DC56DA5AD85ED662D4B9
:1019F00066D26AD06ECE86C603AA870183AD07027F
:101A000003AD87023AC603AB070483AB870403AC7C
:101A1000070583AC870583AA8700EF90B04A634629
:101A2000A00ACA855285EF9090416350A00ACA85EA
:101A30006E85EF90D040B32AA000CA856A85EF90EA
:101A400010406354A00093EA2A008325843B22457A
:101A5000EF90F03E6354A00093EA4A008325843B54
:101A60003245EF90D03D6354A00093EA8A0083256D
:101A7000843B5A85EF90B03C6354A00093EA0A017E
:101A80008325843B5E85EF90903B6354A00093EAEE
:101A90000A028325843B6285EF90703A6354A0006C
:101AA00093EA0A048325843B6685EF90503963549A
:101AB000A00093EA0A085685EFA02031B707000876
:101AC00083A5C73AEF90E055AA8A9307400AB389E5
:101AD000F902B64026440649425BB25B225C925C46
:101AE000025DF24DCE9423A2440123A45401F25985
:101AF0009644625AD25A616182805D71A6C2B7046F
:101B000000209384840683D7040086C6A2C4CAC07A
:101B10004EDE52DC56DA5AD85ED662D466D26AD02D
:101B20006ECEB5CBB70700083709000883A7073A80
:101B3000832A893B37040020370A0008B70B0008C6
:101B4000B70900083EC6814C1304C4241307400A99
:101B50003387EC0222970843EFA0002113074002CD
:101B60006361A70237070008130707240A053A959F
:101B7000184102871307400A3387EC022297544B1F
:101B800054C793871C0003D70400939C070193DC80
:101B90000C01E3EDECFAB640264496440649F259AE
:101BA000625AD25A425BB25B225C925C025DF24D99
:101BB0006161828066850135E9B71307400A338782
:101BC000EC02B707000883A5473CB707000803AC41
:101BD00087392297032D4700032B8700832DC700E9
:101BE0006A85EF90D025634CA000B2456A85EF90DE
:101BF000702D635B052037070008032CC73983A5C8
:101C000089396E85EF90E041E2852A8DEF9030238F
:101C100063410502E2856A85EF90905C2A8DD68546
:101C20005A85EF90302AB707000803AB073B6341A2
:101C3000A01C1307400A3387EC0222972324670174
:101C40002326A7013DBF6685EFF0FF961DBF130752
:101C5000400A3387EC02B70D000883A58D3B22971D
:101C6000032D8701032C0702032B87006A85EF9061
:101C70007025634BA00083A58D3B6285EF90301CDF
:101C80006354A00003AB0B3B832D893B6A85EE8533
:101C9000EF90F01A635AA000EE856285EF909022D3
:101CA0006344A000130B00001307400A3387EC02C3
:101CB000229723246701F1B51307400A3387EC020A
:101CC0002297504B544F50C714CB65BD130B400A9D
:101CD000338B6C03229B83254B000325CB01EF90B4
:101CE000E06A2324AB0071BD130B400A338B6C03F5
:101CF000229B032C8B0083254B006285EF900069AB
:101D000083250B02EF90E031AA8503258B01EF902C
:101D1000304D370700088325C73AEF90702383259D
:101D20004A3CEF90F022E285EF90A02F2324AB00F5
:101D300089BD6685EFF06FACA9B51307400A3387FC
:101D4000EC02832D893BEE8522974843032B8701C4
:101D5000032D0702032C8700EF90D0166349A000E3
:101D6000EE855A85EF90B00D6353A0006A8C13077F
:101D7000400A3387EC02229723226701232487013C
:101D800009B51307400A3387EC02032D893BEA8526
:101D900022974843032B8701032C8700EF90901272
:101DA000E347A0FCEA855A85EF907009E351A0FC57
:101DB0006285EF90707B130715001355F741618121
:101DC0002A971377F70F3305A740EFA000003707D6
:101DD00000088325C73AEF90C0241307400A3387D1
:101DE000EC022A8C2297232267012324870151BB0E
:101DF0001307400A3387EC02130B000022972324B9
:101E000067012326A701B5BBB707000803A5473C18
:101E1000EA85EF90A0572A8CDDB39307400AB307F9
:101E2000F5021D71A2CC37040020CAC81304C424D3
:101E300037090008D2C4032A893BCEC6A297985717
:101E4000AA89884FD28586CEA6CAD6C2DAC05EDEFF
:101E500062DC66DA6AD86ED63ACE83AD07033EC23C
:101E6000EF90E07D9247D285B324A000B85B885301
:101E700003AD87033AC4B85F83AC070403AC87049F
:101E80003AC603A7070883AB070503AB87053AC823
:101E900083AA070603A7870803AA870683A707095B
:101EA0003ACA3ECCEF90A07972476354A00093E405
:101EB00024008325893B3A85EF9060786354A00025
:101EC00093E444008325893B6E85EF90407763540B
:101ED000A00093E484008325893B6A85EF902076F7
:101EE0006354A00093E404018325893B6685EF9049
:101EF00000756354A00093E404028325893B628546
:101F0000EF90E0736354A00093E404048325893BBD
:101F10005E85EF90C0726354A00093E40408B72775
:101F2000002093874765BE9483CC040013F71C0000
:101F300063040718B704000803A5043BDA85EF9093
:101F4000302A13F72C002A8B83A4043B6300071864
:101F5000370900080325093BD685EF90702813F751
:101F60004C00AA8A0329093B630C0716B70B00082B
:101F700003A50B3BD285EF90B02683A70B3B13F74D
:101F80008C002A8A3EC263080716370C0008032516
:101F90000C3BA245EF90D02413F70C01AA8B032D24
:101FA0000C3B63050716B70D000803A50D3BB245B2
:101FB000EF90102313F70C022A8C83AD0D3B6302C4
:101FC0000716370700080325073BC245EF9050214D
:101FD000370700080328073BAA8613F70C0451CFE4
:101FE000370600080325063BD24536C642C4EF90AB
:101FF000301F93978C0137060008E1872A87032654
:10200000063B2248B24663C50708E2473705008011
:102010003D8D930700009305400AB389B9029245AC
:10202000F640D25C4E9424CC232A64052320240756
:10203000232E5405232244072328A40723267407AC
:10204000232CB407232A84072CD42320040974DC0E
:102050002324C4082322E4082328F4082326A40800
:102060006644D6444649B649264A964A064BF25B30
:10207000625C425DB25D25618280D2473707008095
:10208000130600003D8F93978C01E187E3DF07F68D
:10209000B707000803A5073BE2453ACA32C836C66F
:1020A00042C4EF90F013B707000883A7073B22480C
:1020B000B2464246524785B737070080334B670127
:1020C00013F72C0093040000E31407E8370700809F
:1020D000B34A570113F74C0013090000E31807E84F
:1020E0003707008093070000334A47013EC213F7C9
:1020F0008C00E31C07E8A247B70B008013F70C0124
:10210000B3CBFB00130D0000E31F07E8B247370C09
:10211000008013F70C02334CFC00930D0000E31217
:1021200007EAC247B706008013080000BD8E75B5E8
:102130005D71A2C41304400A33048502A6C2B70429
:102140000020CAC09384C4243709000856DA832AC1
:10215000893B4EDEAA8926941C54084CD6853EC67F
:1021600086C652DC5AD85ED662D466D26AD06ECEAB
:10217000EF90E04C332AA0000850D685832D04034D
:10218000EF90E04B032D8403832C0404032C840480
:10219000832B0405032B8405B2476354A000136A04
:1021A0002A008325893B3E85EF9060496354A00057
:1021B000136A4A008325893B6E85EF90404863543B
:1021C000A000136A8A00832A893B6A85D685EF902E
:1021D00000473324A000D6856685EF9040466354BF
:1021E000A000136424008325893B6285EF9020457D
:1021F0006354A000136444008325893B5E85EF90FF
:1022000000446354A0001364840063514405370400
:1022100000080325043BDA85EF90807C8327043B8C
:102220001307400AB389E902B64026440649625AB8
:10223000D25A425BB25B225C925CCE94BCCCE8C8C2
:10224000F2599644025DF24D61618280370500804B
:102250003345650193070000E1B71D71CEC69309B0
:10226000400AB3093503A2CC370400206ED613040C
:10227000C424B70D0008A6CA83A48D3BCAC82A8906
:10228000A29903A58901A685D2C4D6C2DAC05EDEB2
:1022900062DC66DA6AD886CEEF90603A332DA00011
:1022A00083A7890603A50902A68583AC890283AAB0
:1022B000890303AA090483A4890403AB090583AB3A
:1022C000890503AC09063ECAEF9060376354A0004D
:1022D000136D2D0083A58D3B6685EF9040366354CA
:1022E000A000136D4D001307400A3307E902B7073A
:1022F00000080A0D938787373E9D832C0D0093F6C7
:102300001C0022970C5B638E0614370D0008032512
:102310000D3BEF90E06C13F72C00AA89832D0D3B49
:10232000630B0714370D000803250D3BD685EF908E
:10233000206B13F74C00AA8A032D0D3B630707148B
:10234000370700080325073BD285EF906069370700
:1023500000088327073B13F78C002A8A3EC46301D9
:102360000714370700080325073BA685EF90406751
:10237000370700088327073B13F70C01AA843EC6E2
:10238000630A0712370700080325073BDA85EF9039
:102390002065370700088327073B13F70C022A8BB9
:1023A0003EC863040712370700080325073BDE8594
:1023B000EF900063370700080326073B13F70C0470
:1023C000AA8B630E0710370700080325073BE28539
:1023D00032CCEF90E0603707000893F70C082A8CA6
:1023E0008326073B624663860710B70C000803A5E7
:1023F0000C3BD24536CE32CCEF90805E03A70C3B2F
:102400006246F2469307400A3309F902A247F640B2
:10241000D25C4A943CC0B2472328B4032326340339
:102420003CC4C247232CA403232A5403232E440371
:1024300064C023266405232A7405232E84053CC822
:1024400030CC34D038D468D06644D6444649B649F6
:10245000264A964A064BF25B625C425DB25D25619C
:102460008280B709008013F72C00B3C9B900930D1F
:102470000000E31907EA37070080B34A570113F752
:102480004C00130D0000E31D07EA37070080930797
:102490000000334A47013EC413F78C00E31307ECF6
:1024A0003707008093070000B98C3EC613F70C0174
:1024B000E31A07EC3707008093070000334B6701EE
:1024C0003EC813F70C02E31007EE37070080B34B4A
:1024D000770113F70C0413060000E31607EE370725
:1024E000008093F70C08334C870193060000E39EAD
:1024F00007EED24737050080130700003D8D19B75E
:102500005D71A6C2B70400209384840683D60400BC
:1025100086C6A2C4CAC04EDE52DC56DA5AD85ED68F
:1025200062D466D26AD06ECE638A0610370A00087B
:10253000B70B0008032B8A3B83AC4B3A37090020CA
:10254000B7090008B70A0008370C0008014D130945
:1025500049070327090015466356E6003367D7028B
:102560006304A70D1307400A3307ED023704002068
:102570001304C424B70600200546238EC6062297FE
:102580000843EF90607E13078002636FA708370748
:1025900000081307472D0A053A95184102871307CB
:1025A000400A3307ED022297104F14533285B68547
:1025B00032C236C0EF90C042E685AA8DEF90200867
:1025C00082461246E34D0502E6856E8536C432C06A
:1025D000EF900041B707000883A5873AEF80105BB2
:1025E0003707002083250707AA8DEF80305A02465F
:1025F000AA852AC23285EF90A03E1247A2462AC081
:10260000BA853685EF80F0210246B7050080AA869C
:10261000B3C5B5011307400A3307ED023A9410CC55
:1026200014D04CC8232EB40193071D0083D6040098
:10263000139D0701135D0D01E36DDDF0B6402644E7
:1026400096440649F259625AD25A425BB25B225C06
:10265000925C025DF24D616182801307400A33078C
:10266000ED0283258A3B22971C570847832D0703D9
:102670003EC0EF80D07C6344A076824703A5093B2F
:10268000B7060080BD8EEE8536C0EF90603503A69C
:10269000093B8246930500001307400A3307ED0209
:1026A00093071D00139D0701135D0D013A9454D04B
:1026B00083D604000CD410D848D4E36CDDE8BDBF49
:1026C0001307400A3307ED0283A5CA3A229748430D
:1026D000832D8701EF80B0766348A0063705008020
:1026E0003345B501930600001307400A3307ED0296
:1026F00093071D00139D0701135D0D013A9414CC3F
:1027000083D6040048C8E366DDE40DBF6A85EFE0C8
:102710002FD693071D0083D60400139D0701135D78
:102720000D01E368DDE219BF1307400A3307ED022C
:10273000B707000883A5C73A22974843832D87012E
:10274000EF80F06FE34CA0F803A5093BEE85EF9016
:10275000202983A6093B49BF1307400A3307ED022E
:10276000832D8A3BEE8522971C57084F3AC03EC204
:10277000EF80F06C0247B326A000EE85085336C008
:10278000EF80F06B82463325A0006300D528924786
:1027900037050080930600003D8D1307400A33077C
:1027A000ED0293071D00139D0701135D0D013A947F
:1027B00014D483D6040048D0E36DDDD841B56A85D2
:1027C000EFF0BFA993071D0083D60400139D0701F6
:1027D000135D0D01E36FDDD695B56A85EFE00FC19E
:1027E00093071D0083D60400139D0701135D0D019F
:1027F000E361DDD6A1B56A85EFF09F9393071D00D5
:1028000083D60400139D0701135D0D01E363DDD43E
:1028100035B51307400A3307ED02832D8A3BEE8559
:1028200022971C531457084F3EC21C5B36C43EC04F
:10283000EF80F0606358A0001245EE85EF803060B5
:102840006348A00E824737050080930600003D8D47
:102850001307400A3307ED0293071D00139D07017C
:10286000135D0D013A9414D883D6040048D4E36272
:10287000DDCEE9B31307400A3307ED02832D8A3B0F
:10288000EE8522971C53084F3EC21C573EC0EF8076
:10289000105B635FA00E1245EE85EF80505A6359BE
:1028A000A00E824737050080930600003D8DF5B5E8
:1028B0001307400A3307ED02832D8A3BEE852297EA
:1028C0001C531457084F3EC21C5B36C43EC0EF80F9
:1028D0001057635EA0001245EE85EF805056635896
:1028E000A0002245EE85EF809055E34DA0F403A5AE
:1028F000093B8245EF90C00E83A6093B91BF1307A9
:10290000400A3307ED02832D8A3BEE8522971C5344
:102910001457084F3EC21C5B36C43EC0EF80305295
:10292000E347A0FC1245EE85EF807051E341A0FC27
:102930002245EE85EF80B050E34BA0FA21B7130794
:10294000400A3307ED02832D8A3BEE8522971C5304
:10295000084F3EC21C573EC0EF80704EE343A0F4C8
:102960001DBF1307400A3307ED02832D8A3BEE8516
:1029700022971C53084F3EC21C573EC0EF80304C7C
:102980006348A0001245EE85EF80704BE35BA0F03A
:1029900003A5093B8245EF90A00483A6093BF5BB44
:1029A0001307400A3307ED02832D8A3BEE852297F9
:1029B0001C531457084F3EC21C5B36C43EC0EF8008
:1029C0001048E341A0E81245EE85EF805047E34B05
:1029D000A0E601BF1307400A3307ED02832D8A3BAF
:1029E000EE8522971C57084F3AC03EC2EF80304513
:1029F0000247B326A000EE85085336C0EF8030446E
:102A000082463325A000E304D5D803A5093B9245AF
:102A1000EF80107D83A6093B49B31307400A3307B3
:102A2000ED0203268A3BB28532C222971C4F08571B
:102A3000832D07023EC0EF809040635BA03E1246AC
:102A40000245B285EF80B03F6351A04203A5093B28
:102A5000EE85EF80F07883AD093BE9AE1307400ABD
:102A60003307ED0283258A3B2297084F832D070207
:102A7000EF8050456344A03E03A5093BEE85EF80FF
:102A8000307683A6093B1307400A3307ED0293070C
:102A90001D00139D0701135D0D013A9414D083D6D8
:102AA000040048CCE367DDAA51BE6A85EFE0AFAE13
:102AB00093071D0083D60400139D0701135D0D01CC
:102AC000E369DDA8A5BE1307400A3307ED02832D95
:102AD0008A3BEE8522971C53084F3EC21C573EC0CE
:102AE000EF80F035E35FA0DA71BD6A85EFE05FC685
:102AF00093071D0083D60400139D0701135D0D018C
:102B0000E369DDA425BE6A85EFE0AFDE93071D0013
:102B100083D60400139D0701135D0D01E36BDDA255
:102B200031BE6A85EFE0BF8293071D0083D60400A3
:102B3000139D0701135D0D01E36DDDA001B61307C1
:102B4000400A3307ED02B707000883A5873B2297A9
:102B50001C5B0847832D87033EC0EF80502E6355D2
:102B6000A02A824503A5093BEF80906783A5093B16
:102B7000AA86370500803345B50113060000130708
:102B8000400A3307ED0293071D00139D0701135DF3
:102B90000D013A9454D483D604000CD810DC48D8E4
:102BA000E369DD9A61BC1307400A3307ED023A94EA
:102BB0001850144C4C4C08443AC036C2EF80506256
:102BC0004C40EF80F03883A5CA3AEF8070389246C7
:102BD000AA85AA8D3685EF80C044024708CCEE85D1
:102BE0003A85EF80F05F93071D0083D60400139DA4
:102BF000070108D0135D0D01E36DDD9481B4130767
:102C0000400A3307ED02DA8522970847832D8701B2
:102C1000EF80F022E354A0AC03A5093BEE85EF80E2
:102C2000305CB707000883A6073B7DBC6A85EFF0E0
:102C3000CF9E93071D0083D60400139D0701135DEB
:102C40000D01E368DD90DDBA1307400A3307ED029A
:102C50003A94832DC4000C4C6E85EF807058930716
:102C60001D0083D60400139D070148C8232CB4011E
:102C7000135D0D01E36FDD8CD1B26A85EFE02F8922
:102C800093071D0083D60400139D0701135D0D01FA
:102C9000E361DD8C65B21307400A3307ED023A9415
:102CA0004C444840EF80E0370C4CAA8DEF805053E5
:102CB00093071D0083D60400139D070148C8232CE9
:102CC000B401135D0D01E366DD888DBA1307400A78
:102CD0003307ED0283A5CA3A229714534843832D44
:102CE000870136C0EF80B0158246635FA012B685BB
:102CF0006E8536C4EF80D04E370700208325070746
:102D00002AC2EF80A068AA852AC06E85EF80504D48
:102D1000A2460247AA8D3685BA85EF8080301248D8
:102D200037060080AA86334606011307400A330798
:102D3000ED0293071D00139D0701135D0D013A94E9
:102D400014D083D60400232CB40150C8232E0401D0
:102D5000E361DD806FF09F8E6A85EFE04F9A930705
:102D60001D0083D60400139D0701135D0D016362EE
:102D7000DDFE6FF0BF8C1307400A3307ED02229788
:102D8000104F14533285B68532C236C0EF8050459D
:102D900083AD4B3A2AC4EE85EF80700A8246124614
:102DA000634F05042245EE8536C632C0EF8050439E
:102DB00083258C3AEF80805D370700208325070745
:102DC000AA8DEF80A05C0246AA852AC23285EF80D8
:102DD000304112472AC0B246BA856FF09F828245C1
:102DE00003A5093BEF80D03FAA8637050080334515
:102DF000B50183A5093B130600006FF0FF89930D11
:102E00000000EE856FF01F81824703A5093BB706DE
:102E10000080BD8EEE8536C0EF80903C03A6093B56
:102E2000930500008246A1BB130800004286F5BD51
:102E3000130500001307400A3307ED0293071D0036
:102E400083D60400139D0701135D0D013A942320DE
:102E5000B40348CC636FDDEE6FF04FFE37050080A2
:102E60003345B5019306000039B937050080334575
:102E7000B501930D00007DBFB707002083A747076A
:102E800041113707002006C622C426C24AC0230EBD
:102E90000706B1C33707000803278739B7070020A3
:102EA000B704002023A8E706130420039384D40763
:102EB000054911A019C823802401EFF06FE4EFD079
:102EC0003FC083C704007D14F5D7B240224492442A
:102ED000024941018280EFE05FC26DBF8280011133
:102EE00037070020C1674EC6FD17B7090020232A07
:102EF00007063707002022CC26CA4AC852C406CE8D
:102F0000FD8D9389C9062314C706B724002037070F
:102F10000020232CA70623A0B90033F9F6009384E0
:102F200044250144130A004019A083A509003385F4
:102F30008500EF60100B2380A40005048504E316D0
:102F400044FF3724002093094465130444659389A2
:102F500009103309894033058900EF609008230088
:102F6000A4000504E31934FFF2406244D24442490C
:102F7000B249224A05618280797162C4370C00200F
:102F8000130C4C0752CC032A0C005AC8370B0020F4
:102F90009147130B8B0633AA470183570B0006D6C4
:102FA00022D426D24AD04ECE56CA5EC666C2B5C319
:102FB000330A4041B7070008137A4A0283AA873CC4
:102FC000150A37040020370900201309C9240A0A0A
:102FD0008149814B1304840781440840B30C990054
:102FE0004E95269542054181EF200069EF80F05D06
:102FF000D685EF80E07523A0AC009104E39F44FDEB
:1030000083570B00850B9389490A1309490AE3C5C5
:10301000FBFC9D3583570B00A5CBB707000803AA1F
:10302000C73CB70700209387C72437040020930BC1
:10303000C0F53309F0409384470A814A130484079A
:10304000B38BFB40B3899B00B30C204103A50C005C
:10305000D285EF80E06FEF8030511C4033872C0128
:10306000AA853385F9003A954205910C4181EF20FC
:10307000E05BE39D9CFC83570B00850A1309C9F5AF
:103080009384440AE3C0FAFC83270C006355F000E4
:10309000FD172320FC00B250225492540259F249E9
:1030A000624AD24A424BB24B224C924C45618280DA
:1030B000B7070020238FA706B7070020A38FB70606
:1030C0008280411126C2B70400209384F40703C50F
:1030D000040022C485453704002006C61304E40713
:1030E000EF60A05D034504008545EF60005D03C50A
:1030F00004008145EF60605C034504002244B24057
:103100009244814541016F60405B411122C4370404
:1031100000201304F40703450400814506C6EF6050
:10312000C059B707002003C5E7078545EF60E058A1
:10313000034504002244B240854541016F60E057D9
:10314000411126C2B70400209384E40703C504009C
:1031500022C485453704002006C61304F407EF6037
:10316000E052034504008545EF60405203C504006A
:103170008545EF608054034504008545EF60E053CA
:1031800089372244B2409244410141B7011126CA15
:10319000B70400209384F40703C5040052C481459A
:1031A000370A002006CE22CC4AC84EC6130AEA07C8
:1031B000EF60C04D03450A00370400208545130425
:1031C00004086169EF60604F8549232004001309FA
:1031D000F96939A01C40138717006369F90018C00A
:1031E00003C50400EF608052E30635FF03450A0083
:1031F0008145EF60804C624403C50400F240D24434
:103200004249B249224A854505616F602048011153
:103210004AC84EC637090020B709002022CC26CA6A
:1032200006CEAA8421449389F9071309E90703C547
:10323000090093F504087D14EF6020480345090058
:1032400085458604EF606047034509008145137496
:10325000F40F93F4F40FEF60404671F86244F240CB
:10326000D2444249B249056115B7B707002023840B
:10327000A708B70700202383B708B7070020A38358
:10328000C708B70700202382D708B7070020A3820A
:10329000E70882800111B707002026CAAA8403C567
:1032A00057084AC84EC68145B70900203709002093
:1032B00022CC06CE2144EF6040409389790813095F
:1032C000690893978401E187814503C5090063D3A9
:1032D00007008545EF60603E0345090081457D1488
:1032E000EF60A03D03450900860485451374F40F83
:1032F00093F4F40FEF60603C69F4F2406244D2440E
:103300004249B2490561828041114AC03709002013
:10331000130969080345090026C28545B704002042
:1033200006C622C493847408EF60403603C50400C7
:10333000854537040020EF606035B707002003C5DE
:103340004708854513045408EF60403403450400E2
:103350008545EF60A033034509008545EF60E03502
:1033600003C504008145EF604035034504008145F5
:1033700037040020EF6060342945EF00F047130464
:1033800084088347040091CB0547638BE70AB2406A
:10339000224492440249410182801305E00ADD3D46
:1033A0000145CD3D4145FD3513050004E5351305C7
:1033B0001008CD351305F00CF13D1305100AD93D69
:1033C0001305800CC13D1305600AE9351305800A19
:1033D000D1351305F0037D3D1305300D653D0145E5
:1033E000553D1305500D7D35130500086535130552
:1033F000900D4D351305100F713D1305A00D593D6E
:103400004945493D1305B00D713513050004593583
:103410001305000241350945B53D1305D0089D3D12
:1034200051458D3D1305400AB5351305600A9D359C
:103430001305F00A8535834704000547E399E7F44F
:103440001305F00A813D13050004A9351305000A90
:1034500091351305600A3D3D1305400A253D1305CE
:10346000200A0D3D1305800C35351305F0021D357E
:1034700013055002053513051008293D2244B240BA
:103480009244024913055002410129B50111B707C1
:10349000002026CAAA8403C557084AC84EC68545D7
:1034A000B70900203709002022CC06CE2144EF6066
:1034B000C020938979081309690893978401E187EB
:1034C000814503C5090063D307008545EF60E01E11
:1034D0000345090081457D14EF60201E0345090066
:1034E000860485451374F40F93F4F40FEF60E01C29
:1034F00069F4F2406244D2444249B2490561828093
:103500006FF01FBB411106C622C42A84EFF07FBBB7
:1035100013058007EFF0BFCF0145EFF05FCF2285A5
:10352000EFF0FFCE2244B24041016FF01FBE4111C7
:1035300006C6EFF0FFC01305E00AE9370145D937A9
:103540004145C93713050004753F130510085D3F59
:103550001305F00C453F1305100A6D371305800C59
:1035600055371305600A793F1305800A613F13053B
:10357000F003493F1305300D7137014561371305DD
:10358000500D493713050008B53F1305900D9D3FB9
:103590001305100F853F1305A00DAD3749459D3725
:1035A0001305B00D853713050004A93F130500026C
:1035B000913F0945813F1305D008A93751459937F7
:1035C0001305400A81371305600A2D3FB2401305E9
:1035D000F00A410105BF411106C622C42A84EFF05A
:1035E0005FAE13058007EFF09FC213050004EFF0F4
:1035F0001FC22285EFF0BFC12244B24041016FF0EB
:10360000DFB0B7070020238BA708B7070020238A65
:10361000B708B7070020A38BC708B7070020A38A05
:10362000D7088280B7070020238FB708B70700208C
:10363000239EA7088280B7070020238DB708B7070D
:103640000020239CA708828001114AC84EC6370972
:103650000020B709002022CC26CA06CEAA84214425
:1036600013094909938969090345090081457D14B6
:10367000EF60A00403C5090093F504081374F40F68
:10368000EF60A0030345090085458604EF60E00272
:1036900093F4F40F71F8F2406244D2444249B249C3
:1036A000056182804111B707002022C423A8A70822
:1036B00037040020B70700201304540923A6B708D5
:1036C000B7470008034504009387E7BF23A8F186A6
:1036D000B7470008938727C5814506C623A6F1860C
:1036E000EF50B07D13056003853703450400854521
:1036F000EF50B07C0145893F034504008145EF5000
:10370000D07B1305A0038937034504008545EF509E
:10371000D07A1545153F034504008145EF50F079F7
:103720001305200B1537034504008545EF50F0784D
:103730003145193F034504008545EF501078314568
:103740002137034504008545EF5030770145ED3DB5
:10375000034504008545EF50507613053003ED35E1
:10376000034504008545EF50507513053003E93DCE
:10377000034504008145EF5050741305700BE93583
:10378000034504008545EF50507313055003EFF0D7
:10379000BFEB034504008145EF5030721305B00BB9
:1037A000EFF09FEA034504008545EF501071654531
:1037B000EFF09FE9034504008145EF5010701305B9
:1037C000000CEFF07FE8034504008545EF50F06EF4
:1037D0001305C002EFF05FE7034504008145EF5099
:1037E000D06D1305200CEFF03FE60345040085453E
:1037F000EF50B06C0545EFF03FE50345040081450F
:10380000EF50B06B1305300CEFF01FE403450400DC
:103810008545EF50906A4945EFF01FE303450400EA
:103820008145EF5090691305400CEFF0FFE103452F
:1038300004008545EF50706813050002EFF0DFE0EB
:10384000034504008145EF5050671305600CEFF00D
:10385000BFDF034504008545EF5030663D45EFF07E
:10386000BFDE034504008145EF5030651305000DB0
:10387000EFF09FDD034504008545EF50106413050C
:10388000400AEFF07FDC034504008545EF50F0620D
:103890001305100AEFF05FDB034504008145EF508C
:1038A000D0611305000EEFF03FDA034504008545B3
:1038B000EF50B0601305000DEFF01FD90345040071
:1038C0008545EF50905F1145EFF01FD80345040088
:1038D0008545EF50905E3545EFF01FD70345040056
:1038E0008545EF50905D4545EFF01FD60345040038
:1038F0008545EF50905C4D45EFF01FD50345040022
:103900008545EF50905B1305B002EFF0FFD3034500
:1039100004008545EF50705A1305F003EFF0DFD235
:10392000034504008545EF50505913054005EFF05D
:10393000BFD1034504008545EF5030581305C0043E
:10394000EFF09FD0034504008545EF5010576145C7
:10395000EFF09FCF034504008545EF5010563545E5
:10396000EFF09FCE034504008545EF5010552D45DF
:10397000EFF09FCD034504008545EF5010547D4581
:10398000EFF09FCC034504008545EF50105313051D
:103990003002EFF07FCB034504008145EF50F0513A
:1039A0001305100EEFF05FCA034504008545EF5084
:1039B000D0501305000DEFF03FC9034504008545C5
:1039C000EF50B04F1145EFF03FC803450400854567
:1039D000EF50B04E3145EFF03FC703450400854539
:1039E000EF50B04D4545EFF03FC603450400854517
:1039F000EF50B04C4D45EFF03FC503450400854501
:103A0000EF50B04B1305C002EFF01FC40345040094
:103A10008545EF50904A1305F003EFF0FFC20345D0
:103A200004008545EF50704913054004EFF0DFC1F5
:103A3000034504008545EF50504813051005EFF08D
:103A4000BFC0034504008545EF5030471305F00221
:103A5000EFF09FBF034504008545EF5010467D45BC
:103A6000EFF09FBE034504008545EF5010457D45AE
:103A7000EFF09FBD034504008545EF50104413054A
:103A80000002EFF07FBC034504008545EF50F04293
:103A900013053002EFF05FBB034504008145EF5092
:103AA000D04113051002EFF03FBA034504008145F1
:103AB000EF50B0404545EFF03FB92945EF00C05306
:103AC000034504008145EF50503F2244B2401305A6
:103AD000900241016FF05FB74111B707002022C487
:103AE0002A8403C55709854506C6EF50103D135576
:103AF0008400EFF07FB51375F40F2244B24041010A
:103B00006FF09FB4011122CC370400201304540934
:103B100052C42A8A034504004AC82E89814506CE2C
:103B200026CA4EC6B684B289EF5030391305A002BA
:103B3000EFF09FB15285EFF03FFA4E85EFF0DFF9DD
:103B4000034504008145EF5050371305B002EFF0F4
:103B5000BFAF4A85EFF05FF82685EFF0FFF703452A
:103B600004008145EF5070356244F240D24442492E
:103B7000B249224A1305C00205616FF0FFAC011182
:103B800026CA52C4B7040020370A0020130A0A09C3
:103B90009384C4089C4003260A004AC8FD177D167A
:103BA0009396070142062A89C182418281450145D7
:103BB0004EC606CE22CCEFF0FFF483270A008149DF
:103BC0006357F0029C400144635BF0004A85EFF0CC
:103BD000BFF005049C4042044180E349F4FE85099E
:103BE00083270A00C20993D90901E3CDF9FCF24009
:103BF0006244D2444249B249224A05618280B707F1
:103C0000002083C7E7098DE363400502B707002062
:103C100083A70709635AF50063C80500B7070020AA
:103C200083A7C70863C3F500828013160501939626
:103C300005014182C18241113285B68506C6EFF089
:103C40007FECB7070020B24003D5C70941016FF0F0
:103C5000BFE8B707002083C7A7098DE363400502CB
:103C6000B707002083A70709635AF50063C805005A
:103C7000B707002083A7C70863C3F5008280131627
:103C80000501939605014182C18241113285B685B5
:103C900006C6EFF03FE7B7070020B24003D587091B
:103CA00041016FF07FE3B7070020A38FA708A3802F
:103CB000B1842380C184828041114AC03709002029
:103CC0001309F9090345090026C2854506C622C421
:103CD00093841184EF50901B03C504008545EF5079
:103CE000F01A13840184034504008545EF50101A2F
:103CF000034509008545EF50501C03C50400854568
:103D0000EF50B01B034504002244B24092440249E4
:103D1000814541016F50701A01114EC6938911847B
:103D200022CC2A8403C5090026CA814506CE4AC88A
:103D300093840184EF50701803C504008545114930
:103D4000EF50B01703C504008145EF50101703C5AD
:103D50000900937504087D19EF50301603C504005F
:103D600085450604EF50701503C50400814513799D
:103D7000F90F1374F40FEF505014E31A09FC03C544
:103D8000090081451149EF50501303C504008545D2
:103D90007D19EF50901203C5040081451379F90F86
:103DA000EF50B011E31309FE114903C509009375E3
:103DB00004087D19EF50701003C504008545060402
:103DC000EF50B00F03C5040081451379F90F137448
:103DD000F40FEF50900EE31A09FC03C5090081456A
:103DE0001144EF50900D03C5040085457D14EF503C
:103DF000D00C03C5040081451374F40FEF50F00B91
:103E00007DF0624403C50900F240D2444249B24900
:103E1000854505616F50700A01114AC813891184E4
:103E20004EC6AA890345090026CA854522CC06CE7E
:103E30001544EF5090089384018403C50400854520
:103E40007D14EF50900703C5040081451374F40FEF
:103E5000EF50B0067DF0034509008145EF50F005B5
:103E600003C504008545EF50500503C50400814596
:103E7000EF50B004034509008145EF50100403C51D
:103E800004008545EF50700303C504008145EF50E1
:103E9000D0026244F240D24442494E85B2490561A3
:103EA0006FF09FE7411106C6EFF01FE12945A922F7
:103EB00013050003EFF05FF629453D2A13050003C3
:103EC000EFF09FF529450D2A3145EFF0FFF4294524
:103ED00025220545EFF05FF42945392A1945EFF011
:103EE000BFF313054006092A13054003EFF0DFF284
:103EF0002945192213056003EFF01FF2B24029454E
:103F00004101DDA801114AC8138911844EC6AA894E
:103F10000345090026CA854522CC06CE1544EF503C
:103F2000C0799384018403C5040085457D14EF5056
:103F3000C07803C5040081451374F40FEF50E07797
:103F40007DF0034509008145EF50207703C504004B
:103F50008545EF50807603C504008145EF50E0753C
:103F6000034509008545EF50407503C504008545AC
:103F7000EF50A07403C504008145EF500074624403
:103F8000F240D24442494E85B24905616FF0DFD814
:103F90008280411126C206C622C4AA84EF5000388E
:103FA000EF5020392A84EF50003A3355A402E369D8
:103FB00095FEB2402244924441018280635DA0029A
:103FC000411126C24AC006C622C42A89A544EF5020
:103FD000E034EF5000362A84EF50E0363355A40227
:103FE000E3F9A4FE7D19E31409FEB2402244924491
:103FF0000249410182808280635EA002411126C293
:104000004AC006C622C42A899304703EEF5000318C
:10401000EF5020322A84EF5000333355A402E3F9E5
:10402000A4FE7D19E31409FEB240224492440249E1
:104030004101828082801387018C1C4383A6418CBE
:10404000A9071CC363D3D7008280411122C4138403
:10405000D18B8345040003C5418A958F06C61CC3D6
:10406000EF50A0658347040099C723000400B240C5
:1040700022444101828085472300F400B24022445B
:10408000410182809387C18A94430D671307078B90
:104090001386863E6364C70090C38280411122C4A8
:1040A0001384818A8345040003C5A18A79771307A5
:1040B00077B3BA9606C6858994C3EF50006013871C
:1040C000B18A83470700835604002D468507858201
:1040D00093F7F70F2310D4002300F7006394C70071
:1040E000A383018AB240224441018280411106C665
:1040F0007D579387818898C3D8C323A0018A238BD7
:10410000018AA383018A238A018A238F0186A38AD5
:10411000018AA38F01862389018A2380018885462D
:10412000238BD186238EE186A38E01862388018A84
:10413000EFE0DFDAA38E0188B240238F018823836A
:10414000018A41018280238E018A2382A18A828092
:1041500023A2A18C0547238EE18A8280238E018AC7
:1041600082808547A382A18A2389F18A5148A3844A
:10417000018D1308C0032385018D23840186A38448
:10418000F18623850186A385F186A380B1882381EA
:10419000C188A381D1882382E188828083C7218B53
:1041A000B9CF1387818C8347070083C6518A85075F
:1041B00093F7F70F2300F70063E3D704411126C2FA
:1041C0009384318B22C4038404009307400606C6FF
:1041D0003364F4028387918C2300070023808400DA
:1041E0006351F40611CC8387A18C635FF406050448
:1041F00023808400B2402244924441018280828024
:1042000083C5818603C51188EF50204B83C59186F5
:1042100003C52188EF50604A038704008387A18C7F
:104220006354F70483C5A18603C53188EF50E04885
:1042300083C5B18603C54188EF502048038404003C
:104240007DB703C511888145EF50204703C52188FC
:104250008145EF508046838704000387A18C63D596
:10426000E70069D03E8461B703C531888145EF50CE
:10427000C04403C541888145EF50204403840400B5
:10428000B24005042380840022449244410182808C
:10429000A384A18C2385B18C2384C186A384D18679
:1042A0002385E186A385F1868280938781883E9568
:1042B0000547238BE18A2300B500828083C7618B89
:1042C000C1CB411126C24AC09384818B9840138987
:1042D000018A8327090022C405071384818806C642
:1042E0003306F40098C09306A00F0345060063064A
:1042F000D7029306F00F630CD500B73600208A076B
:1043000093868680B6979C438145630CF702B24042
:10431000224492440249410182801307F00F631A3C
:10432000E50223A0040085072147638FE7022320CD
:10433000F900A29703C507009307F00FE309F5FC06
:1043400085452244B2409244024941016F50E03613
:1043500082808145EF5060368327090023A0040046
:1043600021478507E395E7FC232009008147D1B762
:10437000411106C6EFF09FF483C7C18B99C3EFF0DC
:104380009FCB83C7718A89C7B24041016FF09FCF2D
:10439000B24041018280B73700200A0593878780A9
:1043A000AA978CC3828086052385A18A93E5056040
:1043B0002394B18AA385018A23A6018A054715455E
:1043C000A383E18A6FF05FC3011106CE22CC26CA17
:1043D0004AC84EC6B28436892E84AA89EF40D04D91
:1043E00093958400A295A2054E85CA95EF50C04BC7
:1043F000EF40504C6244F240D2444249B249294510
:1044000005616FF0BFBB01114AC82E894EC652C468
:1044100006CE22CC26CAAA89328AEF40F049630D23
:104420000902B734002001449384049A33074401FD
:104430002697834617008347070083452700139775
:104440008600BA970D04A2074204BE954E854184AA
:10445000EF508045E34C24FDEF40D0456244F240EC
:10446000D2444249B249224A294505616FF01FB53D
:10447000411106C622C42A84EF401044814522859A
:10448000EF50A0236145EFF07FB36145EFF01FB31C
:104490006145EFF0BFB285452285EF5000221145FE
:1044A000EFF0DFB181452285EF50401E6545EFF00A
:1044B000FFB022858545EF50601D2244B240410186
:1044C0006F40503F411122C426C24AC006C62A8905
:1044D000AE842144EF40503E81454A85EF50E01DB7
:1044E000EF50403AEF50003A93F514004A85EF50F0
:1044F000C01C2545EFF09FAC7D1485454A8513749B
:10450000F40FEF50801B8580EF50C037EF5080379D
:10451000EF504037EF500037EF50C036EF50803645
:10452000EF50403655F82244B240924402494101CE
:104530006F405038411122C426C24AC006C6AA8420
:104540002144EF407037014981452685EF50E01640
:10455000EF504033EF50003385452685EF50E0158E
:1045600081452685EF5080120545EFF03FA5268551
:10457000EF50C0198547135919006316F5001369E8
:1045800009F81379F90F1545EFF05FA385452685E6
:10459000EF50C00F7D1405451374F40FEFF01FA208
:1045A00045F4EF403031B24022444A8592440249FA
:1045B00041018280011122CC26CA4AC84EC606CECD
:1045C0002A84A1440149854906091379F90F2285F6
:1045D000EF50C0136DDD1545EFF05F9E2285EF5063
:1045E000E012630E3501FD1493F4F40FF1FCF24078
:1045F00062444A85D2444249B249056182801369C6
:1046000019002285EF508010E30D35FFE9BF4111FD
:1046100006C622C426C22A84EF40102A814522857C
:10462000EF50A0094945EFF03F9D85452285EF50A9
:10463000C0080D45EFF09F9881452285EF50000599
:1046400085442285EF50800CE30D95FE2285EF50C6
:10465000E00B6DDD85442285EF50400BE30D95FEA8
:104660002285EFF03FF5931485002285EFF09FF44B
:10467000AA942285EFF01FF4A204AA942285EFF0F9
:104680007FF3A204AA942285EFF0DFF2EF4090229C
:1046900022858545EF40907FB24022442685924492
:1046A000410182800547238FE186238AA18682808B
:1046B00083C7E187BDC7411122C41384F1878347B3
:1046C000040006C695CF1387018883470700930629
:1046D000800C850793F7F70F2300F70063F2F602CB
:1046E0009386D18783C7060023000700850793F7C9
:1046F000F70FA38A01862380F60011476361F7084C
:1047000003C54187EF5080009387618703C7070087
:1047100085462380A7006307D700B24022444101A9
:10472000828082807DF99387518783C507009386B5
:104730000188138615001376F60F03C80600A38EB2
:104740000186238006002300E4002380C700E3766F
:10475000B7FC138781871443BD45858263F5050146
:10476000B7050080CD8E14C393062002E317D6FA56
:104770000357270023800700238EE18679BF7D57EA
:104780002300040023800600238EE18679B703C549
:10479000C1878280011106CE22CC26CA2A84AE842B
:1047A0004AC84EC6EF40501185452285EF40F07053
:1047B0000545EFF0BF80228581453164EF40F06F01
:1047C0001304043511A011C42685EF4030747D1404
:1047D0007DD91569EF40903401448549130909E2F8
:1047E00011A8EF4010352A84EF40F0353354A4026D
:1047F000636789002685EF407071E30435FFEF4061
:10480000700B131544002A9406041305800C3355CD
:10481000A402F2406244D2444249B2490561828016
:1048200079714ECE9389018B8387090006D622D4F5
:1048300026D24AD052CC56CA5AC85EC662C466C294
:10484000635EF008373A002037390020B73B00207C
:10485000373B0020373C00200144814C130A8A82F8
:1048600013090988854A938B4B83130B8B86130C92
:104870000C8409A88387090005041374F40FA28C23
:10488000635EF404B3079A0103C50700B3049901FA
:10489000EF40D06703C70400B367A70093F7F70F93
:1048A000B9CB69DBE31855FDB3879B0103C507004E
:1048B000EF40D065B3079B0183C7070063815707AB
:1048C00099E363095507CA9C23800C00838709007C
:1048D00005041374F40FA28CE346F4FAB250225488
:1048E00092540259F249624AD24A424BB24B224C8C
:1048F000924C45618280B737002093874783E697C3
:1049000003C50700EF409060B73700209387878684
:10491000BE9C85472380AC002380F400C1B745F5D9
:1049200093972C00E2979843CA9C23800C000507BC
:1049300098C369BF93972C00E2979843CA9C238041
:104940000C007D1798C359B71383018B83070300AD
:104950003736002013060684139727003A96B73897
:10496000002037380020B7360020373700209388E2
:104970008882130848839386068813078786054E26
:10498000BE983E98BE963E97938E17002380A8004F
:104990002300B800232006002380C6012300C7019E
:1049A0002300D3013E858280B73700200A05938714
:1049B0000784AA97884382802390A18623AEB1847E
:1049C00023AAC18423A6D18423A2E186B757000875
:1049D000938727B623A8F186B7570008938787B730
:1049E00023A6F1868280238CA184A38CB184238D9D
:1049F000C184828023A8A184828023A4A184828090
:104A000023A2A18482806349050E83A74185635553
:104A1000F50E63C3050E03A7C18463DFE50C83C6EF
:104A2000918581C6FD173385A74083C7A18581C7BE
:104A30007D17B305B74083C7818581C7AA872E85B7
:104A4000BE8583A8018585476389F80A6356100BE4
:104A500083DF418603A3C18503CE118B3738002045
:104A60001308089A93D7F801C6978587B307F040D3
:104A7000B38EA700014F3385B70085421316050199
:104A800041820D823386CF0293178501E18793D54A
:104A9000F74113D7D501B385E7009D89998DB3956B
:104AA000B200E2054206E185418293C3F5FF8146EB
:104AB000769611A84D8F1377F70FC2972380E700E2
:104AC000850663F71603B307D600C207C1839A971A
:104AD0003307F80003070700E31E0EFC33F7E3007B
:104AE0001377F70FC2972380E7008506E3ED16FDE5
:104AF000050F0505E3641FF9828083DF41869397E4
:104B00000501C1838D83B387FF02139785016187F8
:104B10009356F741F58203A3C18536971D8BAA975B
:104B2000C207158F37380020C18303CE118B9A97A7
:104B30001308089A3397E800B306F8006207618704
:104B400083860600631B0E001347F7FF758F1377EC
:104B5000F70FC2972380E70031B7558F1377F70F10
:104B6000CDBF83A7818463C80700B337F000A38853
:104B7000F18A6FF05FE9828083A7418463C80700F0
:104B8000B337F000A388F18A6FF0FFE78280054712
:104B9000634E050483A7418505476359F50463C740
:104BA000050483A7C18463D3F50403A741869397C3
:104BB0000501C1838D83B387E70203A6C185E205A2
:104BC000E1853737002093D6F5411307079AF58220
:104BD000B695AA97C207C183B297BA9703C70700D1
:104BE0009D89958DB355B74013F715003A8582809E
:104BF000839601866356D00203A7C185B73700208C
:104C00009387079AFD163E97C20693071700C18245
:104C1000BE9611A085072300A7003E87E39CD7FE20
:104C20008280939705015971C183D2CCD6CA3ED4F4
:104C3000B70AFF002A8A13854700890786D6A2D4BF
:104C4000A6D2CAD0CECEDAC8DEC6E2C4E6C2EAC078
:104C50006EDEB3FA550132D63ECC63960A1862472F
:104C6000B73700209387079A3E95BA97834B050084
:104C700083C7070093DB3B003ED093970601C187B3
:104C80003ED2825702CEB5CF6247B73D0020938710
:104C90000D9A3EC8BA973ECAB2570359C101925DF8
:104CA00081443304F900A25742044184A5073EC65B
:104CB00063810B04B2473305F90063990A0AC247BE
:104CC0003E95834C050063080A0A85476303FA0E84
:104CD00089466309DA0463970A08D24703C50700C7
:104CE00085042A99C2044209C18013590901E3933A
:104CF00074FDF247025785073ECE93F7F70FE3EDB9
:104D0000E7F88149B65026544E8596540659F6491F
:104D1000664AD64A464BB64B264C964C064DF25D3B
:104D20006561828013868D00131D0601135D0D01E0
:104D300093F91C00EE85228563850900EFF03FE5BD
:104D400071F193871D0093960701C18213D71C0050
:104D5000939D0601937CF70F93DD0D41E31ADDFC73
:104D6000E38D0AF66245EF40D0279DBFEF407027E4
:104D7000AA8CE31C0AF493898D00C20993D90941D6
:104D800005A083A60187829693871D00939D070146
:104D900013D71C0093DD0D41937CF70FE38D3DF39A
:104DA00093F61C00EE852285E9FE83A6C1868296D5
:104DB000E1BF93898D00C20993D9094193F61C0084
:104DC000EE85228581C683A6C186829693871D00C3
:104DD000939D070113D71C0093DD0D41937CF70FC2
:104DE000E39EB9FDCDBD36C6EF40B01F935B3500E5
:104DF000624593FBFB0FEF40D01E2AD0B246B5BDF3
:104E00005D7166D2939C050193DC0C012AC2138567
:104E10003C0086C632C63AC4A2C45ED6368462D48A
:104E2000A6C2CAC04EDE52DC56DA5AD86AD06ECE5E
:104E3000EF40301B2A8C13852C00EF40901A220C77
:104E40002A9C13854C00EF40D019420C935B35002F
:104E500093777500135C0C0193FBFB0FF1EF69CDA9
:104E6000924702C0635BF00AA247A50C3389A700F2
:104E7000B2470247A24D014AB389E700C20993D95C
:104E8000090163800B083385990193848D00EF40FD
:104E90005015C2042A8DC1802DA083A60187829659
:104EA00093871D0093960701C182939D06011357B6
:104EB0001D0093DD0D41137DF70F63DB2D03638927
:104EC000D40293761D00EE852285E1FA83A6C18681
:104ED000829693871D0093960701C182939D0601D8
:104EE00013571D0093DD0D41137DF70FE3C92DFD11
:104EF000050AE299C209137AFA0F93D90901E394DA
:104F00004BF9824712470504138D17009377FD0F65
:104F100042043EC04184E3CDE7F4B64026449644C3
:104F20000649F259625AD25A425BB25B225C925CE9
:104F3000025DF24D61618280850B93FBFB0F0DB723
:104F40008386D18913878189938701893697B6979C
:104F50002300A7002380B7008280011156C4938AE2
:104F6000D189038E0A00B72300209383437F131354
:104F70002E0022CE26CC4ACA4EC852C65AC29A9396
:104F80003724002023A0F300372A00208257B729B6
:104F9000002037290020B724002013044475B722CD
:104FA0000020B72F0020372F00201A94130A0A7E02
:104FB000938989761309C9779384C47C9382027993
:104FC000938F8F7B130F4F7AB73E0020131B1E0069
:104FD0001A9A9A991A999A9418C09A929A9F724416
:104FE0007A93938E4E87DA9E2320F300050E0547B1
:104FF0002320AA0023A0B9002320C90094C0238045
:10500000CA0123A0020123A01F0123900E00238FB9
:10501000E188E2445249C249324AA24A124B056130
:1050200082801D71B7270020A2CC62DC13142500FA
:10503000138CC77733078C001843A6CAB7340020F7
:105040009384049A86CECAC8CEC6D2C4D6C2DAC069
:105050005EDE66DA6AD86ED62697834D07006391C6
:105060000D02F6406644D6444649B649264A964A59
:10507000064BF25B625CD25C425DB25D2561828070
:10508000372700201307C77CB72900202297938970
:1050900089763386890018432A89035506002697A6
:1050A000372A0020834C0700130A0A7EF1233307B6
:1050B0008A002ACA03550700B72A0020938A0A7972
:1050C000652B37270020130747752ACE2297338593
:1050D0008A0037260020832807001841130D467FD9
:1050E000B72500209385857B33088D0033858500A7
:1050F000269703280800A6988347070083C808005E
:1051000003550500269846C63ECC834B08009923DC
:10511000372700201307477A22972A88035507006C
:10512000131B080142C83D23B248B7270020135B78
:105130000B419385877B638A0804424863840B1480
:1051400042054185634AAB16420813580801814B5A
:10515000639F0C00E24781CF0547635A67017D18C2
:10516000420813580801131B0801135B0B41373722
:1051700000201307478793181900330517010353BD
:1051800005001A982310050131A8373700201307AE
:1051900047879318190033081701035308001A951D
:1051A0002310A800A29503D50500DA853AC846C6A3
:1051B0009521229DB248424783250D004697A6952A
:1051C000031507002380750189659385F570E3DA7F
:1051D000A5E8F9759385058F2E952310A700639395
:1051E0000C04F2476354F00C229A03550A00138A08
:1051F000F7FFD2852529E24795E7330B6B039567C7
:10520000938707E2334BFB02635E6A0103270D00BD
:10521000A29A83A70A00269723000700BE94854719
:105220002380F40093878189CA97054703C5070047
:10523000638EED048545EF404048D2479385F7FFE4
:105240004E9403550400DD2683C7618A13850189C6
:105250002A9903450900B1E38545EF40004603451F
:10526000090081456644F640D6444649B649264A77
:10527000964A064BF25B625CD25C425DB25D256190
:105280006F40A043420813580801D9B58145EF404B
:10529000C042D2479385170065B7EF40404493451D
:1052A000F5FF93F5F50F034509006DBF62941C40AF
:1052B000BE942380040075B3050842081358080102
:1052C000131B0801135B0B4161B5411126C2938486
:1052D000D1898387040006C622C4635DF0000144BF
:1052E0002285EFF01FD405048387040062046184E3
:1052F000E348F4FEB24022449244410182804111CD
:1053000006C6EFE0BFE9EFF0AFBAEFF06FD183C7A9
:10531000E18989C7B24041016FF03FFBB2404101D2
:105320008280411122C406C6EFF08F841387418B1F
:10533000834707002544850793F7F70F6368F40058
:105340002300F700B240224441018280230007007D
:10535000EFF0FFFA1387518B83470700850793F718
:10536000F70FE37FF4FC23000700B2402244410121
:1053700082802383A18A82802383A188A382B1882B
:10538000A383C1888280011126CA52C456C222CC8E
:105390004AC84EC606CEAA8921440149938A61882B
:1053A00093845188138A718881A88145EF40E03049
:1053B0001545EFE01FBE03C50400814513591900D0
:1053C000EF40A02F1545EFE0DFBC03450A0093D95D
:1053D0001900EF40A0338545936709F819C113F907
:1053E000F70F03C504007D141374F40FEF40E02C95
:1053F0001545EFE01FBA11C893F71900854503C59D
:105400000A00C5D7EF40602B65B7F24062444A8579
:10541000D2444249B249224A924A0561828003A796
:10542000C19D23AC0190239101902391019223927D
:1054300001922398019023990190239A019023A42B
:1054400001909306F7FF23A601902393D192238E18
:10545000018C2382018E239B018C239F018C23AC22
:10546000018C23A0018E238C018E23800190239830
:10547000018E239D018E23AA018E23AE018E23A6C9
:10548000018C23A4018E23A8018C23A6018E2382E4
:10549000019023AE01902388019419CBB7370020E7
:1054A0009387079A3E97238007008507E39DE7FED1
:1054B000238A018C238B0190A38B01908280938798
:1054C000619103C6070083C6070037370020130722
:1054D000C788850693F6F60F2380D70083C607009A
:1054E00032972300A70051476303D70082802380AF
:1054F00007008280238A018C82809387719183C602
:10550000070003C761911377F70F6301D708138E64
:10551000619283C6070003570E0003C80700B7381F
:105520000020138381919388C88803260300B698CE
:105530001305F7FFB736002005089385069A137800
:10554000F80F9306E7FF83C808004205B30EB700C3
:10555000418123800701C2062380CE002E95935EF1
:1055600086007517C18203C80700AE962300D501D7
:105570004182939528002310EE002382019023801E
:10558000C6002320B30051476303070182802380B4
:1055900007008280411126C2AA84050506C622C4DE
:1055A000EF40202413140501418022042685420483
:1055B000EF40202341802295B2402244420592448C
:1055C000418141018280411126C2AA840D0506C68F
:1055D00022C4EF4000211314850013852400EF40FE
:1055E00040202A9413851400EF40A01F22042A941F
:1055F0002685EF40001F22042295B24022449244A7
:1056000041018280B73700209387079A3E95034572
:1056100005008280B73700209387079A3E9593D77D
:1056200085002300B500A300F5008280B737002075
:105630009387079A3E9593D6850013D7050193D794
:1056400085012300B500A300D5002301E500A301D7
:10565000F5008280B73700209387079A3E958347ED
:10566000150003450500A2073E959317050163D475
:105670000700C1775D8D8280B73700209387079A36
:105680003E95834635000347250083471500A20653
:105690003697220703450500BA97A2073E958280F8
:1056A0009357850093F7F70F05471375F50F638E32
:1056B000E70085CB0D476382E7021147638BE70064
:1056C0008545130530056F30E07F93F5F50F6F309A
:1056D000D07E93F5F50F6F40400693F5F50F6F30D0
:1056E000B07D93F5F50F6F30707A935785004111B7
:1056F00006C693F7F70F09471375F50F638FE70099
:105700001147638AE70205476380E702B240854597
:105710001305300541016F30E07AEF30307FB24041
:1057200023A6A18C41018280EF30707BB24023A67A
:10573000A18C41018280EF408002B24023A6A18C5F
:1057400041018280B94763EEA7203707000893170D
:1057500025001307073DBA979C4382876FD0DF81EE
:1057600083D72190B73500209385059A3386B700FB
:10577000034536008346260003471600220591079D
:10578000AA96C207A206C183034606003697AE97C3
:1057900083C6070093178700B29723A4F19223AC26
:1057A000D1944547638CE71C828083D7219037379B
:1057B00000201307079ABA9703C6370083C627004D
:1057C00003C717002206B296A20603C60700B30756
:1057D000D700A207B2973E8523A4F1926F30C07F15
:1057E00003D72190B73700209386079A9307470085
:1057F000C207C1833697B6970345370083C5370084
:105800008348270003C827002205A20583C6170086
:1058100003461700AA982E980345070083C5070082
:10582000A2082208B3870601330716012207A20740
:105830002A97AE973A8523AAE194BE8523ACF194CA
:105840006FF01FE683D72190373700201307079AA0
:10585000BA9703C6370083C6270003C7170022067E
:10586000B296A20603C60700B307D700A207B297F5
:105870003E8523AAF1946FF05FE783D721903737F5
:1058800000201307079ABA9703C7070023AAE194D9
:10589000828083D72190373700201307079ABA9761
:1058A00083C707003E8523AAF1946FE02FF183D7C9
:1058B0002190373700201307079A138647009386F5
:1058C000A70042064182C206B385E7003A96C1822C
:1058D000A107BA96834F3600C20783C2350003CFB3
:1058E0003600034E2600C183BA9783CE250003C33A
:1058F0002600A20F8348160003C7170003C816002E
:1059000003C51500220F7E9EA20283CF07007A9363
:10591000969E03CF0500220E83450600220383C610
:1059200006003386C80193178700A20E330768006C
:1059300022067695FE973388C50022052207C20706
:10594000C1832A9F3697C28523AC01953E8623AE3C
:10595000F194BA867A8523AAE19523A0E1966FD0C7
:105960000FD841119375F50F1305200506C6EF30CA
:105970006055B240A3870198410182802388D19469
:10598000828085476300F5046302051A011106CE83
:1059900022CC26CA4AC84EC652C456C28947630A98
:1059A000F50E8D476304F5046244F240D244424947
:1059B000B249224A924A9375F50F130520050561F5
:1059C0006F30405083D72190373700201307079A54
:1059D000BA9783C70700139787016187634E071A39
:1059E00023A4F1922380E1926FD01F9203D72190DC
:1059F000373900201309099AB307E90083C6170055
:105A000083C70700A206B6979396070163D40600E2
:105A1000C176D58F93062700C206C182CA9603C6F7
:105A2000160083C606002206B29623A4F1921396AE
:105A30000601635406004176D18E11074207418367
:105A4000038601923A9903470900938707FB138461
:105A5000C192B29613F5F70F9384419514C098C084
:105A6000EFD05F8308403D89EFD0DF82034504001B
:105A7000118113650501EFD0FF81624403C5040065
:105A8000F240D2444249B249224A924A05616FD05B
:105A9000FF9F83D72190373900201309099ACA97AD
:105AA00003C6370083C6270003C717002206B29635
:105AB000A20603C60700B307D700A207B2979384D4
:105AC0000708C20423AAF194C1809309000B138A2A
:105AD0000192930A800B4E85EFD0CFFB03450A005D
:105AE000138404F84204EFD0EFFA41454180EFD02F
:105AF0006FFAB307890003C507000504420441801B
:105B0000EFD0DF98E39784FE850993840408C204EC
:105B100093F9F90FC180E39059FDF2406244D244F9
:105B20004249B249224A924A0561828083D7219034
:105B3000373700201307079A13851700938527002E
:105B4000420513863700938647004181BA97C20504
:105B500003CE07003A95C1814206C2060343050001
:105B6000BA95C182418283C805003A9636970348A8
:105B7000060083470700728523AAC1959A8523AC46
:105B80006194468623AE1195C28623A001973E8775
:105B900023A2F1966FD06FED93E707F0139787017B
:105BA00061873DBD8547630DF5006304050E894798
:105BB000630CF5029375F50F130520056F308030E7
:105BC00083D72190373700201307079ABA9783C7E6
:105BD00007001397870161876345070E23A4F1929D
:105BE000A382E1906FD0BF94011183D721904AC85E
:105BF000373900201309099A26CA4EC652C456C224
:105C0000CA9706CE22CC03C6370083C6270003C737
:105C100017002206B296A20603C60700B307D700F4
:105C2000A207B29793840708C20423AAF194C18003
:105C30009309000B138A5190930A800B4E85EFD085
:105C40007F8C03450A00138404F84204EFD09F8B35
:105C500041454180EFD01F8BB307890003C5070082
:105C6000050442044180EFD01F97E39784FE850925
:105C700093840408C20493F9F90FC180E39059FD9D
:105C8000F2406244D2444249B249224A924A0561F2
:105C9000828003D72190B73700209386079A930715
:105CA0001700C207C1833697B6970347070083C71B
:105CB00007003A8523AAE194BE8523ACF1946FD006
:105CC0003F8493E707F013978701618723A4F1923C
:105CD000A382E1906FD0BF858547630DF500630314
:105CE00005108947630CF5029375F50F1305200520
:105CF0006F30401D83D72190373700201307079A54
:105D0000BA9783C70700139787016187634E07100F
:105D100023A4F192A380E1926FE0CF98011183D781
:105D200021904AC8373900201309099A22CC26CA83
:105D30004EC652C4CA9706CE03C6370083C6270094
:105D400003C717002206B296A20603C60700B307D0
:105D5000D700A207416493844195B2979CC09309F0
:105D600004FC130A04FE13050AFA1375F50F130455
:105D70000A3EEFE06F8A4204130500084180EFE01D
:105D8000AF899C40A297CA9703C50700130404FC7F
:105D900042044180EFE00F97E31534FF13040A40FB
:105DA000420441809C40A297CA9703C50700130490
:105DB00004FC42044180EFE0EF94E31544FF050446
:105DC0008509131A0401C209135A0A0193D909015A
:105DD000E31B0AF8F2406244D2444249B249224AE3
:105DE0000561828083D62190B73700201386079AF9
:105DF00013871600938726004207C207B296418395
:105E0000C18383C606003297B2970347070083C752
:105E10000700368523AAD194BA8523ACE1943E8647
:105E200023AEF1946FD03FE893E707F01397870113
:105E3000618723A4F192A380E1926FE0AF86994736
:105E400063ECA722B70500080A059385C5402E9587
:105E50001C41828703D72190B73600209386069A8B
:105E60003306D7008347160009070346060042079A
:105E700041833697A20703470700B297C207C18341
:105E80003E8523AAF194BA8523ACE1946FD08FF9B3
:105E900003D72190B73600209386069A3306D700A1
:105EA00083471600090703460600420741833697D9
:105EB000A20703470700B297C207C1833E8523AA02
:105EC000F194BA8523ACE1946FD0EFF683D721909B
:105ED000373700201307079A93851700138627008A
:105EE00093863700C205BA97C1814206C206BA95A9
:105EF00003C30700C18241823A9683C805003697E2
:105F0000834707000348060023AA619423AC119538
:105F100023AE0195BE864286C6851A8523A0F196DA
:105F20006FD02FEE03D72190B73700209386079AC2
:105F300093074700C207C1833697B69703453700DA
:105F400083C537008348270003C827002205A20520
:105F500083C6170003461700AA982E98034507002A
:105F600083C50700A2082208B3870601330716017C
:105F70002207A2072A97AE973A8523A4E192BE850D
:105F800023A6F1926FD00FF203D72190B7370020EC
:105F90009386079A93074700C207C1833697B6973F
:105FA0000345370083C537008348270003C827000F
:105FB0002205A20583C6170003461700AA982E984B
:105FC0000345070083C50700A2082208B38706011E
:105FD000330716012207A2072A97AE973A8523A412
:105FE000E192BE8523A6F1926FD07FC103D72190A5
:105FF000B73700209386079A93074700C207C183EB
:106000003697B6970345370083C537008348270086
:1060100003C827002205A20583C617000346170000
:10602000AA982E980345070083C50700A2082208F6
:10603000B3870601330716012207A2072A97AE97F6
:106040003A8523A4E192BE8523A6F1926FD07FC04A
:1060500003D72190B73700209387079A3E9783474D
:10606000170003470700A207BA97C207C1833E85FE
:1060700023AAF1946FD0BFB09375F50F13052005D7
:106080006F2050648547630CF50039C58947630369
:10609000F5049375F50F130520056F20B06283D7C3
:1060A0002190373700201307079ABA9703C63700A5
:1060B00083C6270003C717002206B296A20603C6AE
:1060C0000700B307D700A207B2973E8523A4F19239
:1060D0006FE00F886FE08F8883D7219037370020DB
:1060E0001307079ABA9783C707003E8523AAF1943E
:1060F0006FE06F8511C98547630DF5089375F50F3E
:10610000130520056F20105C83D7219037370020BE
:106110001307079A3385E70003433500034625003C
:106120009388470013885700938567009D0783462F
:10613000150022034208C2071A96C2081358080124
:10614000C1833A98BA9722060345050093D80801FF
:10615000BA9803430800C20503C80700B387C60006
:1061600003CE0800C181A207BA95AA9783C805008B
:106170003E8523A4F19223AAC19523AC619423AE5A
:1061800011954287C6861A86F28523A001976FD0A3
:106190005FFD83D72190373700201307079A1388B4
:1061A00017001385270042089385370013864700A0
:1061B0009386570013580801BA97420503CF07008A
:1061C0003A984181C205834E08003A95C181420642
:1061D000C206034E0500BA95C182418203C3050081
:1061E0003A9613158F01369723AAE1958348060046
:1061F0000348070093958E0123ACD195728623AE98
:10620000C1959A8623A06196468723A21197C287DB
:10621000E185618523A401976FE08F8711C98547C8
:106220006300F5049375F50F130520056F20904961
:1062300003D72190B73700209386079A930717005A
:10624000C207C1833697B6970347070083C7070085
:106250003A8523AAE194BE8523ACF1946FE0EF84E4
:1062600003D62190B73500209385059A9307160031
:10627000C207C183AE9703C5370083C6270003C793
:1062800017002205AA96B295A20603C6070003C806
:106290000500B307D700A207B29723AA0195BE85D0
:1062A000428523A4F1926FE00F8F39ED83D52190C1
:1062B000373600201305069A93871500C207C1835D
:1062C000AA9703C8370083C62700138655004206E5
:1062D000220803C717004182AA952A96C29683C84E
:1062E000050003480600A20603C60700B307D7004F
:1062F000A207B29723AA119523A4F192C2854685DD
:1063000023AC01956FE02F8A9375F50F13052005D7
:106310006F20503B29ED83D721903737002013079A
:10632000079A938517001386270093863700C205C6
:10633000BA97C1814206C206BA9503C30700C1825B
:1063400041823A9683C80500369783470700034881
:10635000060023AA619423AC119523AE0195BE8655
:106360004286C6851A8523A0F1966FE0EF85937566
:10637000F50F130520056F20F0343DE503D521907E
:10638000373800201308089A130735004207930690
:10639000150041834297C20683483700C182C296E6
:1063A0000346270083C716008345170003C3060072
:1063B000A208B3061601429503460700A206034849
:1063C0000500A2073387D5009A972207C207C18329
:1063D000329723AA0195BE8523ACF1943A86428573
:1063E00023AEE1946FE02F829375F50F130520051E
:1063F0006F20502D8547630CF50025CD894763003C
:10640000F5049375F50F130520056F20B02B03D706
:106410002190B73700209386079A93071700C20789
:10642000C1833697B6970347070083C707003A85AD
:1064300023AAE194BE8523ACF1946FE0AF8883D7A3
:106440002190373700201307079A4111BA9706C6E3
:1064500003C50700131785016187AA8763490702EF
:1064600023AAF194EFE00F8DB24023A6A18C410145
:10647000828083D72190373700201307079ABA9775
:1064800083C707003E8523AAF1946FD07FFE9367F0
:1064900005F013F5F70FE9B715E583D721903737E6
:1064A000002041111307079A06C6BA9783C7070051
:1064B0003E8523AAF194EFE08F95B24023A6A18CEC
:1064C000410182809375F50F130520056F20901F01
:1064D00011C985476306F5029375F50F130520056D
:1064E0006F20501E83D72190373700201307079A5B
:1064F000BA9783C707003E8523AAF1946FE08F9A6D
:10650000411106C6EFE0AFA8B24023A6A18C41011D
:10651000828021E103D72190B73700209386079A24
:1065200093071700C2074111C18306C63697B69775
:106530000347070083C707003A85BE8523AAE19475
:1065400023ACF194EFE00FA5B24023A6A18C41014A
:1065500082809375F50F130520056F20B016411149
:1065600006C601CD85476307F504B2409375F50F64
:106570001305200541016F20F01403D72190B73790
:1065800000209386079A93071700C207C1833697A6
:10659000B6970347070083C707003A85BE8523AA3D
:1065A000E19423ACF194EFE02FBAB24023A6A18C82
:1065B0004101828083D72190373700201307079A43
:1065C000BA9783C70700139587016185634B050060
:1065D00023A4F192EFE04FBD23A6A18CB24041016C
:1065E000828093E707F013958701618523A4F192D8
:1065F000EFE08FBB23A6A18CD5B7A14763E6A738F0
:10660000B70500080A05938585422E951C418287AF
:1066100003D72190B73700209386079A9307470046
:10662000C2074111C18306C63697B69703453700A6
:1066300083C537008348270003C8270083C6170097
:10664000220503461700A205AA982E9803450700C5
:1066500083C50700A2082208B38706013307160185
:106660002207A207AE972A97BE853A8523A4E19216
:1066700023A6F192EFE0AFD1B24023A6A18C410155
:10668000828083D72190373700201307079ABA9763
:1066900083C707003E8523AAF1946FE06FD503D727
:1066A0002190B73700209387079AB386E70003C588
:1066B000160083C60600220536959316050163D49D
:1066C0000600C176558D93052700130667009306D3
:1066D000A700C205C1814206C206BE954182C182A1
:1066E0003E96BE9683C33500034F360083CE3600F8
:1066F00003CE250083C82600034326003907A203E2
:1067000003C815004207220FA20E41831E9E83423A
:106710001600BA977A933387D80183CF160083CEB9
:106720000500220E9318830083C31700034306005D
:10673000B305C801220703CF06003386120183C7C1
:106740000700A205B386EF002206F69523A4A192C6
:1067500013978300A2061A9623ACB194FA9623A845
:10676000C192BA9723AAD1921397070163540700E5
:106770004177D98F1397070142054187418523ACA3
:10678000F1926FE06FA383D62190B73700209387F3
:10679000079A138716003386E70003460600B38581
:1067A000D70003C805002206329813160801635566
:1067B000060041763368C80089064207C206C182D6
:1067C00041833E97B6970343370083C8370003459C
:1067D000270083C52700220303461700A20883C6AB
:1067E00017001A95C695220503430700A20583C822
:1067F00007003307A600B387B6002207A2071A973F
:10680000C69723AA01959375F70F23ACE19413F66D
:10681000F70F1375F80F23AEF1946FE0CF9C83D779
:106820002190373700201307079ABA9703C637001D
:1068300083C6270003C717002206B296A20603C626
:106840000700B307D700A207B2973E8523A4F192B1
:106850006FE04F9A83D72190373700201307079AAC
:10686000BA9703C6370083C6270003C7170022065E
:10687000B296A20603C60700B307D700A207B297D5
:106880003E8523A4F1926FE04F9783D7219037374D
:1068900000201307079ABA9703C6370083C627005C
:1068A00003C717002206B296A20603C60700B30765
:1068B000D700A207B2973E8523A4F1926FE04F94D0
:1068C00003D72190B73700209386079A9307470094
:1068D000C207C1833697B6970345370083C5370093
:1068E0008348270003C827002205A20583C6170096
:1068F00003461700AA982E980345070083C5070092
:10690000A2082208B3870601330716012207A2074F
:106910002A97AE973A8523A4E192BE8523A6F192E9
:106920006FE02FA403D72190B73700209386079AF2
:1069300093074700C207C1833697B69703453700D0
:1069400083C537008348270003C827002205A20516
:1069500083C6170003461700AA982E980345070020
:1069600083C50700A2082208B38706013307160172
:106970002207A2072A97AE973A8523A4E192BE8503
:1069800023A6F1926FE04F9F9375F50F1305200535
:106990006F20405385476308F5009375F50F130585
:1069A00020056F20205203D62190B73500204111D9
:1069B000930616001307560093079600C206420777
:1069C000C2079385059AC1824183C18306C6AE96EC
:1069D0002E97AE9783C23600834F370003CF370020
:1069E00083CE2600034E270003C3270083C816006A
:1069F0000348170003C51700A202A20F220F969E9C
:106A00007E9E7A932E9603CF060093958E0083C6C2
:106A10000700834E0700220E2203834F0600330730
:106A2000C801B3076500C695A2052207A20776979D
:106A3000B6972E9FBE863A8623AAF19523A4E192AB
:106A4000FA857E8523A6F19223ACE195EFE06F9D58
:106A5000B24023A6A18C410182808547631EF50CBC
:106A600003D72190B73700209387079AB386E700B2
:106A700003CE060013158E0161856349050A93064E
:106A80001700C206C182BE969305570083CE36001A
:106A9000C20503C32600C18113087700BE954208D2
:106AA00083C81600A20E03C61500135808013E98AD
:106AB000769303CF0500834E18009315830003C31C
:106AC0000600C695834608002206A2057A9613980A
:106AD0008E009A95420623A4C193418223AAB194C1
:106AE000C29623ACC19413980601635508004178FF
:106AF000B3E606012507420741833E970348170086
:106B00008347070013178800BA9723A6D1921397DB
:106B10000701635407004177D98F13970701C20615
:106B20004187C18623A8F1926FE08FAD136E0EF0FE
:106B300013158E016185A1B79375F50F1305200517
:106B40006F2040388547630CF50059CD89476301B4
:106B5000F5069375F50F130520056F20A03603D7B2
:106B60002190B73700209387079AB386E70003C8C0
:106B70000600131588016185634A0512050742075F
:106B80004183BA9703C6370083C6270003C717009F
:106B90002206B296A20603C60700B307D700A207D3
:106BA000B29723A40193BE8523A6F1926F200065BE
:106BB00003D72190B73700209387079AB386E70061
:106BC00083C60600139586016185634B050C050796
:106BD00042074183BA9783C7070023A4D192BE8599
:106BE00023ACF1946F20806203D72190B737002047
:106BF0009387079AB386E70003C306001315830142
:106C000061856349050813061700420641823E96D6
:106C1000034836008348260093065700C206220820
:106C200083451600C182BE96C29803460600A2089C
:106C300003CE160003C80600C695A205B2959316AA
:106C40008E0023A46192369823ACB1949316080168
:106C500063D50600C1763368D8001D07420741831B
:106C6000BA9783C6370003C6270003C71700A206DA
:106C70003696220683C60700B307C700A207B69759
:106C80001316080123A80193BE86418623AAF19218
:106C90006F20C054136303F0131583016185A5B7FA
:106CA00093E606F013958601618515B7136808F021
:106CB000131588016185D9B58547630DF500630E0D
:106CC000051E8947630DF51C9375F50F1305200507
:106CD0006F20401F83D82190373300205D71130E41
:106CE000039AB3071E0186C6A2C4A6C2CAC04EDE5E
:106CF00052DC56DA5AD85ED662D466D26AD06ECEEC
:106D000003C5070093178501E18763C0071E13863B
:106D10008800938548009386C80013838801420643
:106D2000938E4801C2054182C20642037296C18118
:106D3000C182C20E13530301F2967293F295834AF5
:106D40003600138F080193DE0E01F29E8344330058
:106D5000034D260003CB350003CA3600420F83CD16
:106D6000250083CC2600834B230083C33E00135FA2
:106D70000F01729F03C92E0083401600A20A83CF21
:106D8000160083493F0003C4150003481300939283
:106D90008400EA9A220B220A034C2F00B3845B0082
:106DA000669AA2036E9B03460600A20A83420F0066
:106DB000D69003471F0083C71E0003CF0E001E9905
:106DC000834E030083C306001393840083C505002C
:106DD000220B93168A005A94FE961A98938FC80134
:106DE00013830802A209939880004696E299220430
:106DF000A29523AAA194A20923ACB19422094E978B
:106E0000A2069E9623AEC194CA972207169723A086
:106E1000D196A207C20F4203FA9723A2E196220855
:106E200093DF0F0113530301F29F7293769823A40B
:106E3000F19683C33F0023A6019703CF2F0083421F
:106E40003300834E230083C81F00034E1300A203A8
:106E5000A2021E9F969E220F83C20F00A20E834F96
:106E60000300FA983303DE01A2082203C6927E9340
:106E70001AC0968823A8519623AA6196EFE0EF8D59
:106E8000B640264496440649F259625AD25A425BA9
:106E9000B25B225C925C025DF24D6161828083D7BD
:106EA0002190373700201307079ABA9783C7070046
:106EB0003E8523AAF1946FE0CFCB03D72190B7375B
:106EC00000209386079A93071700C207C18336975D
:106ED000B6970347070083C707003A8523AAE194C2
:106EE000BE8523ACF1946FE0AF85136505F005B561
:106EF00011C98547630AF5049375F50F130520053D
:106F00006F10507C83D62190B73700201386079AE4
:106F100013871600938726004207C207B296418363
:106F2000C18383C606003297B2970347070083C721
:106F30000700368523AAD194BA8523ACE1943E8616
:106F400023AEF1946FE04FC383D7219037370020F1
:106F500041111307079A06C6BA9783C707003E85F3
:106F600023AAF194EFE02FC2B24023A6A18C4101E5
:106F700082809357850055471375F50F6366F706B2
:106F8000370700088A071307C744BA979C438287CC
:106F90006FF09FD26FF01FBB6FF03FAC6FF09F9F01
:106FA0006FF0AFE56FF0AFDB6FF0AFD66FF04FD2A1
:106FB0006FF08FCE6FF00FC46FF02FBC6FF08FB5F6
:106FC0006FF0AFAE6FF08FA56FF0CF926FF08F8B39
:106FD0006FE0FFE66FE05FD06FE0DFBC6FE07F9AAD
:106FE0006FE04FF66FF0DFF0AA853E856F10B02995
:106FF000011126CA9384819188404AC89147138918
:10700000C1912320F90006CE22CC4EC652C456C2EE
:107010005AC0EF20007E9375F50F9307B00E63F40E
:10702000B7006F10F01B3707000893972500130770
:10703000474ABA979C431354850082879387C18C33
:10704000984303A6818E804083260900118F98C340
:10705000369480C0F2406244D2444249B249224A46
:10706000924A024B056182809387C18C984303A6A4
:10707000818E804083260900329798C33694D1BF11
:1070800003A6C18C944003270900B73700209387DB
:10709000079A3E942300C4003384E6005DBFB737EF
:1070A00000209387079A3E948346040083270900B3
:1070B000804023A4D18E3E9469BFB73700209387C8
:1070C000079A3E948346040083270900804023A644
:1070D000D18C3E94BDBF1387C18C1C439040832646
:1070E0000900B3D78740858B1CC33304D60095B7FE
:1070F0009387C18C98438040832609003307E04082
:1071000098C33694B9B79387C18C83C60700804073
:107110000327090094C33A942DBF9387C18C9843E9
:1071200003A6818E8040832609003307C702369468
:1071300098C305B79387C18C83D607008040032787
:10714000090094C33A9431B788401105EF20606A72
:10715000804023A6A18CA1472320F9002104D5BD9E
:107160001387C18C1C43904083260900B3D7874006
:1071700093F7F70F1CC33304D600E1BD8840110517
:10718000EF202067804023A4A18EA1472320F9008F
:107190002104C1B5EF10107205472382E190938559
:1071A000619283D70500373700201307079A1386AB
:1071B00017009386270042064182C2063A96C18292
:1071C0008D07BA9603460600C207C18383C6060030
:1071D0003E970344070022063387C6002207239008
:1071E000F5003A9423200900ADB59387C18C83A69E
:1071F000818E98438040032609003357D70223A687
:10720000D18E329423A8E18C98C3A1B59386C18C0A
:107210009C4203A6818E41677D17798EF98FB3D783
:10722000C70280408325090023A6C18E2E941396A1
:1072300007014186718F23A8F18C98C219BD83D7AD
:107240002190373700201307079AA297BA9783C671
:10725000070080408327090023A6D18C3E94D5BB2C
:107260009387C18C984380400326090093760708D2
:107270003294E38006DE136707F098C3D9BB83D747
:107280002190373700201307079AA297C207C183BE
:10729000BA9703C7170083C607008040931787007B
:1072A000B69703270900C207C18323A6F18C3A943D
:1072B0004DB303A7818E138AC18C8547B39787008E
:1072C00083260A0019C36F10C07493C7F7FFF58FA8
:1072D000C207C18380400327090023A8F18C232023
:1072E000FA003A94BDB303A7C18C8C4093170401F4
:1072F00003260900B73600209386069AC183B69705
:107300001358870013550701935687012380E70020
:10731000A38007012381A700A381D7003384C50080
:107320000DBB93170401373700201307079AC18359
:10733000BA9703C7170083C707002207BA971397A6
:107340000701635407004177D98F80400327090064
:1073500023A4F18E3A94F5B905472382E190EF100A
:1073600070558327090080403E94E5B19387C18C16
:1073700098438040832609002A0798C33694D1B9E0
:1073800003A6C18C88409317040183250900B736F2
:10739000002013170601C18341839386069AB6978E
:1073A00021832380C700A380E7003304B50055B1D3
:1073B00088401105EF20E04342058040418523A627
:1073C000A18CA1472320F900210461B183D721902A
:1073D000373700201307079AA297BA9783C607008A
:1073E00080408327090023A6D18C3E949DB183A6BB
:1073F000818E1387C18CC1670843FD17B39787003F
:1074000093C7F7FF8C400326090033948600E98F69
:10741000C18F23A6D18E23A8F18C1CC33384C50051
:107420000DB91387C18C83A6818E08439307F00F93
:10743000B397870093C7F7FF8C4003260900339466
:107440008600E98FC18F23A6D18E23A8F18C1CC39F
:107450003384C500FDBE931704013737002013079E
:10746000079AC183BA9703C6370083C6270003C7AC
:1074700017002206B296A20603C607008040B30793
:10748000D70003270900A207B29723A4F18E3A94EC
:10749000C9B69387C18C984303A6818E804083260A
:1074A00009003327C70098C3369465B69387C18C0B
:1074B000984303A6818E8040832609003327E60087
:1074C00098C3369479B69317040137370020130711
:1074D000079AC183BA9703C6370083C6270003C73C
:1074E00017002206B296A20603C607008040B30723
:1074F000D70003270900A207B29723A4F18E3A947C
:1075000089BE13170401B73700209387079A418378
:107510003E9783471700834607008040A207B6972F
:1075200003270900C207C18323A4F18E3A9415B63C
:1075300093170401373700201307079AC183BA97BE
:1075400083C707001397870161876354070093E798
:1075500007F080400327090023A4F18E3A94D5BC9C
:1075600093170401373700201307079AC183BA978E
:1075700083C707001397870161876354070093E768
:1075800007F080400327090023A6F18C3A94D1B478
:1075900093170401373700201307079AC183BA975E
:1075A00003C6370083C6270003C717002206B2961A
:1075B000A20603C607008040B307D70003270900CF
:1075C000A207B29723A6F18C3A9461B4138AC18CB6
:1075D00080400327090083270A003A9499E36F103B
:1075E000A04183A7818E99E36F1000418547232036
:1075F000FA0085B49387C18C8040832609009843A4
:10760000369419C36F106040054798C399B49387A7
:10761000C18C98439040832609003A9480C3330478
:10762000D60005BC884083D921901105EF20601C4D
:1076300080404E9523A6A18CA1472320F900210468
:1076400009BC88401105EF20C01A80401375F50F62
:1076500023A6A18CA1472320F9002104DDBA83A72A
:10766000818E1387C18CB307F40214438040032634
:1076700009003294B6971CC3E9BA9386619283D706
:10768000060003D62190373700209305079A138709
:10769000F7FF80400325090042073388B700418384
:1076A0002300C8002E972182F9172300C7002390DA
:1076B000F6002A9479BA1386619283570600373709
:1076C00000201307079A93861700C2068907C18214
:1076D000C207C183BA9683C606003E9703450700DA
:1076E000804083250900139786002A972310F6000F
:1076F0002391E1902E94B1BA8040832709003E94F3
:1077000089BA03D8019103D5219183D5419103A66C
:1077100081902391019183A6C19080408327090025
:107720002391A1922392B19223A6C18C23A4D18E3E
:107730003E946FF01F929387219003D3070083D864
:10774000219203D8419203A5C18C03A7C19D239820
:10775000619083A5818E8040832609002399119131
:10776000239A0191130787C123A4A19023A6B19066
:107770002390E70036946FF0DF8D9387219003D735
:107780000700904083260900330487402390870038
:107790003304D6006FF0FF8B83D7219094400327EA
:1077A0000900A297C207C1832392F1922391F1921B
:1077B0003384E6006FF0FF899387C18C83A6818EA6
:1077C0009843804003260900758F23A6D18E23A8F5
:1077D000E18C98C332946FF0DF879387C18C984314
:1077E0008040832609001347F7FF23A8E18C98C344
:1077F00036946FF01F869387C18C98438040032690
:107800000900C166FD16358F23A8E18C98C3329418
:107810006FF03F849387C18C984380408326090092
:107820001347F70F23A8E18C98C336946FF07F823B
:107830009387C18C98438040832609001347170023
:1078400023A8E18C98C336946FF0BF801387C18C56
:107850001C4303A6818E804083260900918FB33795
:10786000F0001CC336946FF0CFFE1387C18C1C430D
:1078700003A6818E804083260900918F93B717005D
:107880001CC336946FF0EFFC1387C18C83A6818EE6
:107890001C43804003260900B3B7F60093C71700C6
:1078A00023A6D18E23A8F18C1CC332946FF06FFAFB
:1078B0009387C18C83A6818E98438040032609005C
:1078C0003337D70023A6D18E23A8E18C98C33294F6
:1078D0006FF02FF81387C18C83A6818E1C438040E4
:1078E00003260900B3B7D70093C7170023A6D18E8C
:1078F00023A8F18C1CC332946FF0AFF59387C18C31
:1079000083A6818E984380400326090033B7E600A2
:1079100023A6D18E23A8E18C98C332946FF06FF325
:107920009387C18C83C6818E03C707000326090095
:1079300080403377D70223A6D18E329493168701E5
:10794000E18623A8E18C94C36FF0AFF09387C18CDC
:1079500083C6818E03C70700804003260900335782
:10796000D70223A6D18E329423A8E18C98C36FF05E
:107970004FEE9387C18C83C6818E03C70700032611
:10798000090080403307D70223A6D18E3294937624
:10799000F70F23A8E18C94C36FF0AFEB1387C18C72
:1079A0001C4303A6818E804083260900918F93F7A4
:1079B000F70F1CC336946FF0CFE99387C18C8040DA
:1079C0008326090098433694635507E83307E0405F
:1079D00098C36FF00FE81387C18C1C4303A6818EF8
:1079E000804083260900918FC207C1831CC336944F
:1079F0006FF02FE61387C18C83A5818E1C431385FE
:107A000081943396B70280400328090093D8F5414A
:107A10000CC193860194232215014294B387B702C7
:107A2000931566012986D0C2A983CD8F9CC21CC341
:107A30006FF02FE21387C18C1C4303A6818E804018
:107A400083260900B297C207C1831CC336946FF026
:107A50004FE01387C18C1C4303A6818E8040832690
:107A60000900B29793F7F70F1CC336946FF06FDEDF
:107A70009387C18C9843804083260900298798C347
:107A800036946FF00FDD1387C18C1C4303A6818EE3
:107A9000804083260900B3A7C70093C717001CC303
:107AA00036946FF00FDB98408327090023A6818C62
:107AB0003304F7006FF0EFD913170401B737002034
:107AC0009387079A41833E97834627008347170091
:107AD0000344070013978600BA97A2073E94232019
:107AE00009006FF00FD783D7219083D66192A297B8
:107AF000032609008040C207373700201307079A82
:107B0000C183BA9713D786002380D700A380E700EC
:107B100032946FF00FD483D72190373700201307AA
:107B2000079AA297C207C183BA9703C7170003C673
:107B3000070080408326090093178700B29723939C
:107B4000F19236946FF0EFD083D7219003A7C18CC8
:107B5000A297032609008040C207B736002093860B
:107B6000069AC183B697135587009355070193561C
:107B700087012380E700A380A7002381B700A381AA
:107B8000D70032946FF0EFCC83D721908396C18CCD
:107B9000A297032609008040C20737370020130749
:107BA000079AC183BA9713D786002380D700A38092
:107BB000E70032946FF0EFC983D7219083A5C18C81
:107BC00090408326090037370020A2971307079AB1
:107BD000BA972380B7003304D6006FF08FC783D7DE
:107BE000219003A7C18CA297032609008040C207F9
:107BF000B73600209386069AC183B697135587003F
:107C000093550701935687012380E700A380A700BF
:107C10002381B700A381D70032946FF08FC383D73D
:107C2000219003A6C18C83250900A297C20780403A
:107C3000B736002013170601C18341839386069A45
:107C4000B69721832380C700A380E7002E946FF0AE
:107C50004FC083D7219083A5C18C90408326090013
:107C600037370020A2971307079ABA972380B700E7
:107C70003304D6006FF0EFBD83D7219083A5C18C6C
:107C800090408326090037370020A2971307079AF0
:107C9000BA972380B7003304D6006FF08FBB83D729
:107CA000219083A5C18C904083260900373700209E
:107CB000A2971307079ABA972380B7003304D60018
:107CC0006FF02FB983D72190373700201307079A19
:107CD000A297C207C183BA9703C6370083C627009D
:107CE00003C717002206B296A20603C6070080400B
:107CF000B307D70003270900A207B29723A4F18E88
:107D00003A946FF00FB583D72190373700201307CF
:107D1000079AA297C207C183BA9703C7170083C700
:107D200007002207BA9713970701635407004177AA
:107D3000D98F80400327090023A4F18E3A946FF075
:107D40004FB183D72190373700201307079AA297A6
:107D5000C207C183BA9783C707001397870161875A
:107D60006354070093E707F080400327090023A42A
:107D7000F18E3A946FF0EFAD83D721903737002022
:107D80001307079AA297C207C183BA9703C63700A1
:107D900083C6270003C717002206B296A20603C6B1
:107DA00007008040B307D70003270900A207B29756
:107DB00023A4F18E3A946FF0CFA983D7219037375F
:107DC00000201307079AA297C207C183BA9703C777
:107DD000170083C60700804093178700B6970327D4
:107DE0000900C207C18323A4F18E3A946FF06FA6F5
:107DF00083D72190373700201307079AA297BA97A5
:107E000083C6070080408327090023A4D18E3E94B7
:107E10006FF02FA483D72190373700201307079ADC
:107E2000A297BA9783C6070080408327090023A43E
:107E3000D18E3E946FF0EFA183D721903737002089
:107E40001307079AA297BA9783C607008040832733
:107E5000090023A4D18E3E946FF0AF9F83D7219069
:107E6000373700201307079AA297C207C183BA9732
:107E700003C6370083C6270003C717002206B29641
:107E8000A20603C607008040B307D70003270900F6
:107E9000A207B29723A6F18C3A946FF08F9B83D7F9
:107EA0002190373700201307079AA297C207C18392
:107EB000BA9703C7170083C707002207BA9713971B
:107EC0000701635407004177D98F804003270900D9
:107ED00023A6F18C3A946FF0CF9783D72190373750
:107EE00000201307079AA297C207C183BA9783C7D6
:107EF00007001397870161876354070093E707F032
:107F000080400327090023A6F18C3A946FF06F9408
:107F100083D72190373700201307079AA297C2070B
:107F2000C183BA9703C6370083C6270003C717006B
:107F30002206B296A20603C607008040B307D70008
:107F400003270900A207B29723A6F18C3A946FF099
:107F50004F901387C18C03A6818E08439307F00FBF
:107F6000C166B3978700FD16B58F8C408326090044
:107F700033148600E98FC18F23A6C18E23A8F18C0C
:107F80001CC33384D5006FF0CF8C138AC18C0327B8
:107F90000A0083A6818E854733948700B3678700E4
:107FA00089E61344F4FFB377E40080400327090017
:107FB00023A8F18C2320FA003A946FF08F8988402F
:107FC0001105EF10100380401375F50F23A4A18E47
:107FD000A1472320F90021046FF0AF8788401105E5
:107FE000EF10300142058040418123A4A18EA147BA
:107FF0002320F90021046FF0CF8503A7C18C83D71C
:10800000818E804003260900B73600209386069AA9
:10801000B697135587009355070193568701238020
:10802000E700A380A7002381B700A381D700329483
:108030006FF02F8203A6C18C83D7818E8040832569
:108040000900B73600201317060141839386069A6C
:10805000B69721832380C700A380E7002E946FE0AA
:108060005FFF83A7818E03A6C18C80408326090011
:10807000373700201307079ABA972380C700369432
:108080006FE03FFD03A5818EB707FF00E98FE39402
:10809000071C93170501373700201307079AC18380
:1080A000BA9703C6370083C6270003C71700220606
:1080B000B296A20603C607008040B307D700032785
:1080C0000900A207B29723A6F18C3A946FE07FF8DB
:1080D00003A5818EB707FF00E98FE39A071893176E
:1080E0000501373700201307079AC183BA9703C7E2
:1080F000170083C60700804093178700B6970327B1
:108100000900C207C18323A6F18C3A946FE07FF483
:1081100003A5818EB707FF00E98FE3920712B737F7
:1081200000209387079A3E95834605008040832769
:10813000090023A6D18C3E946FE0BFF113872192F2
:1081400003A6C18C83560700804083250900B737FA
:1081500000209387079AB697935886001358060114
:108160001355860191062380C700A3801701238140
:108170000701A381A7002310D7002E946FE07FEDA5
:1081800083A5C18C13872192835607008040032565
:108190000900B73700201396050141829387079A9B
:1081A000B697218289062380B700A380C7002310D9
:1081B000D7002A946FE0FFE91387219283560700C6
:1081C00083A5C18C804003260900B7370020938720
:1081D000079AB69785062380B7002310D7003294FC
:1081E0006FE03FE7138721928356070083A5C18C78
:1081F000804003260900B73700209387079AB69777
:1082000085062380B7002310D70032946FE07FE407
:10821000138721928356070083A5C18C80400326D3
:108220000900B73700209387079AB6978506238001
:10823000B7002310D70032946FE0BFE1138721927B
:108240008356070083A5C18C804003260900B737F9
:1082500000209387079AB69785062380B7002310DE
:10826000D70032946FE0FFDE1387219203A6C18C02
:1082700083560700804083250900B7370020938785
:10828000079AB6979358860013580601135586012E
:1082900091062380C700A380170123810701A381D2
:1082A000A7002310D7002E946FE0BFDA1387219226
:1082B000835607000396C18C804083250900B73799
:1082C00000209387079AB697135586008906238066
:1082D000C700A380A7002310D7002E946FE07FD79C
:1082E00088401105EF10E05062058040618523A6AB
:1082F000A18CA1472320F90021046FE09FD593872B
:10830000C18C832609008040984336949316070158
:1083100063C406006FE0FFD3C176558F98C36FE04A
:108320005FD303A7818E138AC18C8547B3978700DB
:1083300083260A00631C076E93C7F7FFF58F93F738
:10834000F70F80400327090023A8F18C2320FA00AF
:108350003A946FE01FD01387C18C1C439040832652
:108360000900B3D78740C207C1831CC33304D600BA
:108370006FE03FCE83A7C18C91EB232009006FE013
:108380005FCD03A7C18C85476307F76A80408327C9
:1083900009003E946FE0FFCB9387C18C83A6818E4A
:1083A00098438040032609003357D70023A6D18E77
:1083B00023A8E18C98C332946FE0BFC99387C18C26
:1083C00083A6818E98438040032609003317D70087
:1083D00023A6D18E23A8E18C98C332946FE07FC787
:1083E0001387C18C83A6818E1C438040032609001D
:1083F000B397D700C207C18323A6D18E23A8F18CDF
:108400001CC332946FE0FFC41387C18C83A6818E96
:108410001C43804003260900B397D70093F7F70F5A
:1084200023A6D18E23A8F18C1CC332946FE07FC2A7
:1084300083D72190373700201307079AA297BA975E
:1084400083C6070080408327090023A6D18C3E9471
:108450006FE03FC003A7C18C8C4093170401032633
:108460000900B73600209386069AC183B697135841
:10847000870013550701935687012380E700A380E7
:1084800007012381A700A381D7003384C5006FE0D3
:108490005FBC13170401B73700209387079A418305
:1084A0003E9783471700834607008040A207B69790
:1084B00003270900C207C18323A6F18C3A946FE019
:1084C0005FB988401105EF10C032420580404185F8
:1084D00023A4A18EA1472320F90021046FE07FB7D8
:1084E0008840138AC18C1105EF10A0302A8B0355E8
:1084F0000A00A1472320F9002320AA0063020450A8
:108500008149938A818E31A08509638B894E032529
:108510000A004E95EF10E02C83A70A00E316F5FE43
:1085200080408327090023A03A013E946FE07FB288
:108530009387C18C98436313074E232009006FE093
:108540005FB18396C18C8C40931704010326090008
:10855000373700201307079AC183BA9713D78600CD
:108560002380D700A380E7003384C5006FE07FAE8F
:108570009387C18C83A6818E98438040032609008F
:108580003307D70223A6D18E329423A8E18C98C357
:108590006FE03FAC9386C18C9C4203A6818E4167FD
:1085A0007D17798EF98FB387C70280408325090034
:1085B00023A6C18E2E94139607014186718F23A89E
:1085C000F18C98C26FE0FFA888401105EF1060227F
:1085D00062058040618523A4A18EA1472320F90074
:1085E00021046FE01FA723820190EF00F02C832766
:1085F000090080403E946FE0DFA59389C18C03A5FC
:10860000090003A6818E1357F5419387819413586F
:10861000F6412A079355650190C3D98D23A207011E
:10862000C2862A05EF2060620327090080409387F5
:10863000019488C3CCC323A0A9003A946FE07FA122
:1086400083A6C18C80408327090023A4D18E3E9449
:108650006FE03FA093170401373700201307079AF4
:10866000C183BA9703C6370083C6270003C7170024
:108670002206B296A20603C607008040B307D700C1
:1086800003270900A207B29723A6F18C3A946FE062
:108690005F9C93170401373700201307079AC183A3
:1086A000BA9703C7170083C707002207BA97139723
:1086B0000701635407004177D98F804003270900E1
:1086C00023A6F18C3A946FE0DF989387C18C98438E
:1086D00003A6818E8040832609003367C702369443
:1086E00098C36FE01F979387C18C83A6818E9843B0
:1086F0008040032609003377D70223A6D18E329417
:1087000023A8E18C98C36FE0DF941387C18C1C43CE
:1087100083A6818E41667D16F18EF18FB3F7D70265
:1087200003260900804023A6D18E32949396070138
:10873000C18623A8F18C14C36FE0BF919387C18CCD
:10874000984303A6818E8040832609003347C702E1
:10875000369498C36FE0FF8F9387C18C984303A62C
:10876000818E8040832609003347C702369498C320
:108770006FE03F8E9387C18C984303A6818E804023
:10878000832609003347C702369498C36FE07F8C75
:108790009387C18C83A6818E98438040032609006D
:1087A000358F23A6D18E23A8E18C98C332946FE035
:1087B0005F8A9387C18C83A6818E9843804003266D
:1087C0000900558F23A6D18E23A8E18C98C332943B
:1087D0006FE03F889387C18C03A6818E98438040C9
:1087E00083260900518F369419E36FE09F86054771
:1087F00098C36FE01F861387C18C1C4303A6818E2C
:10880000804083260900B327F60093C717001CC3D6
:1088100036946FE01F849387C18C984303A6818EA2
:108820008040832609003367C702369498C36FE0FF
:108830005F829387C18C984303A6818E80408326F4
:1088400009003367C702369498C36FE09F8093870F
:10885000C18C94430326090080401397060141838D
:10886000329498C313960601634406006FE06FFECE
:10887000C176558F98C36FE0CFFD9387C18C984325
:108880008040032609009376F70F94C313770708F7
:10889000329419E36FE0EFFB93E606F094C36FE0C8
:1088A0004FFB9387C18C9843804003260900937641
:1088B000F70F94C313770708329419E36FE06FF949
:1088C00093E606F094C36FE0CFF888401105EF00FF
:1088D000507242058040418123A6A18CA1472320EC
:1088E000F90021046FE0EFF69840832709002391F7
:1088F00081903304F7006FE0CFF5884003D74192B1
:1089000011052391E190EF00D06EEFE08FE68040FB
:10891000A1472320F90021046FE0AFF39387C18CB6
:1089200083A6818E03D707008A0636973A8598C3B7
:10893000EF00306C2A84232009006FE08FF19387C9
:10894000C18C98438040032609009376070832942F
:1089500099E26FE00FF0136707F098C36FE06FEFD5
:108960001385619203570500B73600209C4013869B
:10897000069A9305F7FF03D84192C2059306E7FFD5
:10898000B308C7009107C181C2062380F800B295E1
:1089900093D88700C182B29623801501C1837517D1
:1089A000239101912380F6002310E5002320090084
:1089B0006FE02FEA232009006FE0AFE99387C18CB5
:1089C000832609008040984336949316070163C4B8
:1089D00006006FE00FE8C176558F98C36FE06FE730
:1089E00013051005A3870198EF00C04D83270900E8
:1089F00080403E946FE0EFE523200A006FE06FE5D2
:108A0000232009005A846FE0CFE423A007006FE021
:108A10004FE4C207C183D58F6FE0DF8B8040832690
:108A200009007D1798C336946FE0AFE293F7F70F14
:108A3000D58F6FF01F91232009006FE08FE1420571
:108A40004181EF00105A83270900804023A6A18CA2
:108A50003E946FE00FE042054181EFC0DFB683270F
:108A60000900804023A6A18C3E946FE08FDE420572
:108A70004181EFC03FB283270900804023A6A18C2B
:108A80003E946FE00FDD41119375F50F130520053E
:108A900006C60D29B240A387019841018280411189
:108AA00006C622C4EF00104FEF00501CEFB00FE4D9
:108AB000716513050520EF00206FEFC05F961384EA
:108AC000F198014523000400EF00B0521375F50F33
:108AD0008D476306F500B2402244410182808547FC
:108AE00029452300F400EF00407B2244B2404101BD
:108AF0006F00F056411106C6EF00C05B23A4019839
:108B000023870198238D0196238C0198EF00C0598B
:108B1000EFB00FC8EF00F047EF00A074EF00504E29
:108B2000B24041016FF0BFF7411106C6EFF09FFC64
:108B3000B2401305803E41016FB00FCC83C7F1985E
:108B400091E38280411106C6EFE08FCAEFE04FCA81
:108B5000EFE00FCAEFE0CFC9EFE08FC9EFE04FC9F8
:108B6000EFE00FC9EFE0CFC8EFE08FC8EFE04FC8EC
:108B7000EFE00FC8EFE0CFC7EFE08FC7EFE04FC7E0
:108B8000EFE00FC7EFE0CFC6EFE08FC6EFE04FC6D4
:108B9000EFE00FC6EFE0CFC5EFE08FC5EFE04FC5C8
:108BA000EFE00FC5EFE0CFC4EFE08FC4EFE04FC4BC
:108BB000EFE00FC4EFE0CFC3EFE08FC383C70195B1
:108BC00081E7B24041018280EF00C06E7DD901454E
:108BD000EFC05FA311E1294542054181EF00E06B41
:108BE00083C74190F9DF93874199984393063006F4
:108BF000050763ECE60098C3EFC0DF8F4545EFC083
:108C00001F8CB24041016FC05F8F23A00700EDB7FA
:108C1000011122CC26CA06CE4AC84EC62A84AE848A
:108C2000EF00F03783C78199A1E79DC813890198A8
:108C300003550900814983471400834504008909CD
:108C4000A207BE95C205C181EF00B03803550900E7
:108C500009040905420541812310A900E3ED99FCAF
:108C60006244F240D2444249B24905616F00703318
:108C7000E5D81389019803550900814983471400F9
:108C80000347240083460400834534004207A207BB
:108C9000BA97B697E205BE95EF00903403550900E8
:108CA000910911041105420541812310A900E3E750
:108CB00099FC6244F240D2444249B24905616F00D6
:108CC000502E93878198984391466308D700954624
:108CD0006308D70499466303D700828013870199FC
:108CE00041118356070006C623A0070022053695CA
:108CF000238D01962310A70023900198EF00302ABE
:108D0000EF00702AEF00F0291305A00A452E054553
:108D1000752601456526B2401305000F410179AE65
:108D20002398A198828093878198984391466308FD
:108D3000D7009546630BD70499466303D70082801A
:108D4000411122C403D481972A8706C626C213057F
:108D5000A00A22043A9423A007008D260545B92EC7
:108D60000545A92E420441801305200F812E93044E
:108D700004102285EF00F02605048926E31B94FEEB
:108D8000B2402244924441018280239CA196828079
:108D90009387819894431147638BE6029386A1974A
:108DA0001387C1970C4303C80600B7380020138609
:108DB000088A03A341982E96334805018505238030
:108DC00006012300A6000CC3638B6500828083D755
:108DD000C198FD1723A2F19823AE0196828041111C
:108DE00006C61385088A23A00700EFF07FE213056B
:108DF000A00AE9240545D9240145C924B240130538
:108E0000100F410165AC41111305A00A06C623A449
:108E100001986D2409455D2401454D241305300F4B
:108E2000712C03C5A197592CEF00F01613054006CD
:108E3000EFB08F9CB24041016FF07FC6411123A477
:108E4000019806C622C4A12C83470500B5CB014773
:108E500011A03E870505834605009307170093F789
:108E6000F70FE5FA1D071374F70F1305A00AB924CD
:108E70002285A924014599241305F00F8124094571
:108E8000352C130500021D2C83A7C19D13D5F74176
:108E90001375F53F3E9529851375F50F0524EF00F1
:108EA000B00F1375F50F192CC52A092CCD2A152CD6
:108EB000EF00701BB2402244A387019841018280D9
:108EC000194465B7411126C2AA841305A00A06C633
:108ED00022C42E84E5220D45D5220145C522130565
:108EE000E00FE92A13F5F40FD12A1375F40F224489
:108EF000B24092444101D9A2411122C41384819805
:108F00001C4006C6054785071CC06389E70409475E
:108F1000638EE70A0D476388E70411476384E70A15
:108F200083C5E19883C7F19899CB9307F00F6388C5
:108F3000F50423200400B24022444101828093873B
:108F4000050193F7F70F3D476369F70637170008E8
:108F50008A0713074785BA979C4382879307A00A1D
:108F6000E319F5FCC9BF9387C19803D70700B24046
:108F7000224422053A952390A7004101828003D71D
:108F8000C1988547E317F7FA2244B24041016FF0D8
:108F9000FFEA2244B24041016FF0FFE62244B240B2
:108FA00041016FF05FD82244B24041016FF05FDEB3
:108FB0002244B24041016FF0DFD013050005EFF00D
:108FC0007FF085BF2387A198AA85A9BFB24022441C
:108FD0002396A19841018280411122C42A8413055D
:108FE000A00A06C6E1281545D1280145C128130568
:108FF000D00FE9201375F40FD12013558400137599
:10900000F50F6D28135504011375F50F45281355F9
:1090100084012244B240410155A0411122C413846D
:10902000819B0355040006C6EFC0CFE20397A19BC6
:1090300083D7419B93160501C18603C69199B697C4
:10904000B73600209386069A93051500B6972380BD
:10905000C700C205C18503550400224433A7E500BB
:10906000B2403307E040F98D41016FC0AFDA4111E2
:1090700022C437440140AA851305048006C61304A0
:109080000480EF1050229D452285EF10502465DDAD
:10909000B2402244410182801305200482803715AA
:1090A00000081305458982808D679387076B23AE7F
:1090B000F19C82806F00D0756F00F0756FF03FFB00
:1090C000411122C406C62A840345050019C50504BA
:1090D000EFF0FFF9034504007DF9B240224441015D
:1090E00082806FF0FFFD411126C201468545AA84AA
:1090F0001305800306C622C4EF00D072130520605A
:10910000EF10E0151305E060EF1060153714014013
:1091100013050480930600200D46E145EF1060081A
:10912000930600400D46914513050480EF1060073B
:109130003744014013050480EF10F000A6851305A5
:109140000480EF10700A130504808145EF10901120
:10915000130504808145EF1010121305048081452A
:10916000EF10500F130504808145EF10D014130544
:1091700004808145EF10F014130504809145EF1031
:10918000F011A14513050480EF10B0101305048001
:10919000EF10900F130504802244B24092449305CF
:1091A000503041016F10F013239D019A239C019AC6
:1091B000238B019A2390019C239F019A238E019A6D
:1091C0002393019C2392019C2381019C2396019C63
:1091D0002395019C2384019C6FF0FFF011C18280D4
:1091E000239AB19A7165239DC19A239CD19A054710
:1091F00013050520238BE19A6FF0FFEE11C18280E9
:1092000037450140130505806F10007E11C1828033
:109210002E856FF0DFE5411122C4B7050500374404
:109220000140938555301305048006C6EF10F00CFD
:1092300009E5B24022444101828013050480EF1009
:1092400010079377F50F3E85A38CF198EFF0DFCAF6
:109250008397A19BE35FF0FC2244B24041016FF091
:10926000DFDBB707002003A507068567938707FAAA
:1092700023AC019C3356F502B7153D00938505904C
:10928000814681473357B50223A0C19A23A2D19AC0
:1092900023A4E19A23A6F19A8280411106C623AC49
:1092A000A19CEF00D01EB24023A0A19E23A2B19E9C
:1092B00041018280411106C6EF00701D03AE019E80
:1092C00083AE419E83A6819D03A8019A83A8419AFB
:1092D00013D7F6413303C541B385D541B387D802CF
:1092E000333565003385A54033070703B3B506035F
:1092F000BA97AE97B3860603636CF500054663879D
:10930000A700B2401375160041018280E37BD3FEB3
:10931000B24001461375160041018280411106C614
:10932000EF00F016B24023A8A19C23AAB19C4101F2
:109330008280411106C6EF00901583A7019DB240BF
:109340001D8D4101828003A5819A83A5C19A8280E7
:1093500041111305906006C6EF0070701305007090
:10936000EF00F06FB2400D4541016F0010744111E4
:1093700022C4372401401305044006C6EF005021E3
:109380000145EF0010251305044001468945EF0013
:10939000502601461305044093050010EF00702588
:1093A000130504408145EF00F029130504400546EC
:1093B0008545EF00102E130504403706060085454D
:1093C000EF00903D0546854513050440EF00104031
:1093D00013050440EF00D0280545EFA0FFC1130599
:1093E00004402244B24041016F0090287971370552
:1093F000004006D6EF10800395470C083EC837059D
:1094000000409307700C3ECC231A0100231E01007C
:10941000230F0100EF10E00E4800EF10401C8947B9
:1094200050002314F100854585473705004023127D
:10943000F100EF10601C130640068545370500401B
:10944000EF10204713060007854537050040EF1051
:1094500060403705004001468545EF10E04737057D
:109460000040EF102017B2504561828001111305B2
:10947000006006CE22CC26CA4AC84EC6EF00305E37
:10948000B7060140D842B70700F9FD177D8F3706B0
:1094900000048567518F3764002013040425D8C267
:1094A0001388078089491149A144C14393020002EE
:1094B000930F0004130F0008930E001013030020F5
:1094C0009308004009659165854021662322340197
:1094D0002324240144C423287400232A5400232C69
:1094E000F401232EE4012320D40323226402232445
:1094F0001403232604031CD848D80CDC232234058B
:109500002324240564C423287404232A5404232C0C
:10951000F405232EE4052320D40723226406232404
:109520001407232604073CD868D82320140050DCF5
:10953000232014042CDC371E014037670020B76657
:1095400000202322340923242409232694082328D5
:109550007408232A5408232CF409232EE409232019
:10956000D40B2322640A2324140B2326040B232860
:10957000F40A232AA40A232CB40A2322340D232418
:10958000240D2326940C2328740C232A540C232CFA
:10959000F40D232EE40D2320D40F2322640E232464
:1095A000140F2326040F2328F40E232AA40E232CA1
:1095B000B40E70DC23201408232EC40A2320140CBC
:1095C0009304070513890615232EC40E93860615EA
:1095D000130707058147BD457D451303F002930935
:1095E0000E40930350609302F003930E4060930883
:1095F0000EC013083060930F0E80130F206001A877
:109600002320170123A0060185071107910613F6F1
:10961000F70F63FBF500E375C5FE636CC300232001
:10962000C70123A0D601CDB72320F70123A0E6016F
:10963000E1BF2320370123A07600E31756FC93896E
:1096400004100325090091041109EF005041144052
:1096500003A5C4FF0D4693058004EF009034184025
:1096600083A7C4FF110498CBE39D34FDEFF05FCED8
:10967000EFF0FFCFEFF09FD76244F240D24442496F
:10968000B2493705004005616F00B07337670020AD
:10969000B76700200A051307070593870725AA97D0
:1096A0002A97084394430D4689E5930580046F008B
:1096B000502FC1456F00F02E828037670020B767BA
:1096C00000200A0513070705938707252A97AA97FD
:1096D00018439C4399E15CCB82801CCB828013179A
:1096E0002500B767002037650020938707251305FD
:1096F0000505BA973A958C430841411106C6EF001B
:109700007035B2401375F50F4101828013172500A3
:10971000B7670020376500209387072513050505E7
:10972000BA973A958C430841411106C6EF00F031D3
:10973000B2401375F50F4101828013172500B767FA
:109740000020376500209387072513050505BA9784
:109750003A95944308410D4681456F00902441118C
:1097600022C4372401402A869546130504408145CA
:1097700006C6EF00A0760545EFA01F888327C444E6
:10978000B240224413D5F7410D893E950985410128
:1097900082808280828082801305E00482806F0054
:1097A000500B6F00300D411122C437D4000826C27F
:1097B00006C613040480B70402082285130404407B
:1097C000EF00300EE31B94FEB2402244924441016C
:1097D0008280B7D70008938707803E956F0070148A
:1097E0008280B7D70008938707803E950345050020
:1097F0008280B7D70008938707803E950841828012
:109800000111014685451305900406CEEF00900135
:1098100013054070EF00B02437150040EF001041F1
:10982000930780438A85371500403EC402C0231247
:1098300001002316010023070100EF00904C3715AB
:109840000040EF003059371500408545EF10A00E5D
:1098500037150040EF009057F240056182803715C0
:1098600000406F001056371500406F003056411110
:1098700085453715004006C6EF10600CB240410127
:109880006FB03FAA9387019B9843050798C39843FD
:10989000050798C39843050798C39843050798C3DD
:1098A0009843050798C38280376700200A0513078D
:1098B00007052A97B7670020184393870725AA97BB
:1098C000944313080701130547019387019B6147E0
:1098D00059A09043050690C39043050690C390435A
:1098E000050690C39043050690C39043050690C3B8
:1098F00014C19043050690C39043050690C390435E
:10990000050690C39043050690C39043050690C397
:109910009043050690C39043050690C39043050607
:1099200090C39043050690C39043050690C39043AF
:109930007D171377F70F050690C39043860505063C
:1099400090C39043050690C39043050690C390438F
:10995000050690C335C72320D80013968500E35A27
:1099600006F69043050690C39043050690C39043C6
:10997000050690C39043050690C39043050690C327
:109980009043050690C39043050690C39043050697
:1099900090C39043050690C39043050690C390433F
:1099A000050690C39043050690C39043050690C3F7
:1099B0009043050690C39043050690C314C185BF2C
:1099C0008280371700089307478B032F478B83AE9E
:1099D000470003AE870003A3C70083A8070103A8BD
:1099E0004701944F03D7C70183C7E70179717946CF
:1099F00022D48A852A84094506D67AC076C272C4E2
:109A00001AC646C842CA36CC231EE100230FF10015
:109A1000EF20405DA28509454928B7150008054695
:109A20009385458E0945EF20E05B01A0411122C4DA
:109A30003744014026C29375F50FAA8413050480AC
:109A400006C613040480EF1000069D452285EF1022
:109A5000000865DDB240224426859244410182809F
:109A600001114EC606CE22CC26CA4AC8B28905C20A
:109A70002E843389C500A944034504000504EFF092
:109A8000FFFA8347F4FF638C9700E31724FFF2404B
:109A900062444E85D2444249B249056182803545CF
:109AA000EFF0DFF8E31A24FDDDB7797156CAAE8A0C
:109AB000B715000809469385458D22D426D24AD091
:109AC0004ECE52CC06D62A8A7144EF20A051BD4911
:109AD0002549F15439A893978601E1877114054609
:109AE0009305F1005285A307F100EF20A04F630E0C
:109AF0009402B3978900B3F75701B3D7870093F760
:109B0000F70F9386070313877703E376F9FC931720
:109B10008701E187711405469305F1005285A3077B
:109B2000F100EF20204CE31694FCB25022549254E2
:109B30000259F249624AD24A45618280000000001F
:109B40005D7106C012C216C41AC61EC82ACA2ECC1F
:109B500032CE36D03AD23ED442D646D872DA76DC0D
:109B60007ADEFEC0F322103496C0F322003096C293
:109B7000F322407C96C4732520348A85F1208642E6
:109B800073901234964273900230A6427390427CD6
:109B900082401242A2423243C2435245E2457246DB
:109BA00082561257A2573258C258525EE25E725F16
:109BB000864F616173002030000000005D7106C0B7
:109BC00012C216C41AC61EC82ACA2ECC32CE36D02D
:109BD0003AD23ED442D646D872DA76DC7ADEFEC07D
:109BE00073D0E87E7350F97E73D0B97EF390D07E47
:109BF00073700430B6427390427CA6427390123464
:109C000096427390223482401242A2423243C243AF
:109C10005245E245724682561257A2573258C258F0
:109C2000525EE25E725F864F616173002030B7154D
:109C30000008411115469385858D054506C6EF2020
:109C4000603A0545EFF0FFD74111856722C406C68B
:109C5000FD172A84630DF500B71500081546938596
:109C6000058E0545EF2000382285EFF09FD5EFF0F7
:109C70001FFCDDB7411106C6EF00506B13057005E0
:109C80003928F528B24041016F606FDA8280B7074A
:109C900000D1D8438843CC43E39DE5FE828037075B
:109CA00000D2230007001205B71700D2A305070052
:109CB0003E9563F7A70023A00700C107E3EDA7FEC9
:109CC0008280B71700D285070A053E958547230095
:109CD000F5008280370700D283470700060579899F
:109CE00093F7170E5D8D2300A7008280B70700D27F
:109CF00003C70700914705833D8BBA8663F3E700EE
:109D00009146B71700D28D070A053E958347050097
:109D100013F6F60F2147B397D70093F7F70F118F7C
:109D2000B3D7D740B395E500CD8F93F7F70F230056
:109D3000F5008280B70700D203C707000583937739
:109D4000C70085EFB71600D20A058D06AA9683C70D
:109D5000060021463D8B3307E640B3D7E740139515
:109D6000450093F7F70F1375F50FB397E700C98F09
:109D700093F7F70F2380F600828001458280F32756
:109D8000503093F707FC93E7370073905730828089
:109D90004111B727014006C693870740630BF500C2
:109DA000B737014093870780630DF500B24041014A
:109DB000828013059030C121B240130590304101DB
:109DC000F9A11305A0304529B2401305A030410187
:109DD0007DA9B727014003A74740B706F1FFFD164D
:109DE000758F23A2E74003A74740598D23A2A740C0
:109DF000828093F705100DC699EF93F7054089C748
:109E00005C4193E707405CC1898985CD1C4593E798
:109E100027001CC582805C4193E707105CC1F1BF3D
:109E200089C75C4193F7F7EF5CC193F7054089C799
:109E30005C4193F7F7BF5CC1898981C51C45F59BDF
:109E40001CC582801C4599C5056713070780D98FFB
:109E50001CC582807D771307F77FF98F1CC5828030
:109E60001C45858B89E71C4593E717001CC582803C
:109E70001C451307850093E787001CC51C43A18B75
:109E8000F5FF1C4593E747001CC51C43918BF5FF6C
:109E9000828085476385F50289476391F5021C5DE1
:109EA0003707D0FF7D17F98F1CDD1C5D7D1652062C
:109EB00037073000798E5D8E10DD828082805C55A0
:109EC000370710FF7D17F98F5CD55C557D1652065C
:109ED0003707F000798E5D8E50D58280954763E21A
:109EE000B70493972500BE955859FD47B397B7001F
:109EF00093C7F7FFF98FB315B600DD8D4CD9A54791
:109F000063E6C704931716003E9618499D47B3971A
:109F1000C70093C7F7FFF98F3396C6005D8E10C94F
:109F20008280AD4763E7B704E91593972500BE9596
:109F30001859FD47B397B70093C7F7FFF98FB315CB
:109F4000B600DD8D0CD9A547E3FEC7FAC54763E12E
:109F5000C7025916131716004C453A969D47B397FA
:109F6000C70093C7F7FFED8F3396C6005D8E50C5CF
:109F70008280BD47E3E5B7F8D11593972500BE95DC
:109F80005855FD47B397B70093C7F7FFF98FB3153F
:109F9000B600DD8D4CD5A5B78547638FF5008947A1
:109FA000639BF5001C4565777D17F98F1CC51C4523
:109FB0005D8E10C5828082801C453707F2FF7D17B9
:109FC000F98F1CC51C455D8E10C5828093F7150066
:109FD0000DC281EB898989CD1C452167D98F1CC5AC
:109FE00082801C45370710008989D98F1CC5EDF583
:109FF000828099C71C453707F0FF7D17F98F1CC574
:10A000008989FDD51C4561777D17F98F1CC5828034
:10A01000F36704308280F377043082801375F50F84
:10A020006FF05FCB411106C622C426C24AC02A8403
:10A03000B2842E89EFF0FFC8CA852285EFF01FCBCE
:10A0400022852244B2400249A685924441016FF024
:10A050007FCE372702401C4B93F7070899CBB707F1
:10A060006745938737125CC3B797EFCD9387B79A4D
:10A070005CC38280372702401C4B93E707081CCB48
:10A080008280372702405C470545858B91EB5C4712
:10A090000D45C18B91E7484711893335A00006056E
:10A0A0008280411122C426C24AC006C62A893704CA
:10A0B0000F00854411A021C8EFF0BFFC7D14E30C14
:10A0C00095FE05EDB7270240984B37040F008544F5
:10A0D0001367270098CB23AA2701984B136707041F
:10A0E00098CB11A005C8EFF0DFF97D14E30C95FEC5
:10A0F000372702401C4BF59B1CCBB24022449244B4
:10A10000024941018280B2402244924402491145F1
:10A1100041018280372702401C4B1145F59B1CCB27
:10A12000E9BF011122CC26CA4AC84EC606CE2A89EA
:10A13000AE8937040F00854411A029C4EFF07FF4E5
:10A140007D14E30C95FE05E9372702401C4B3704CC
:10A150000F00854493E717001CCB2310390111A091
:10A1600015C8EFF01FF27D14E30C95FE372702406F
:10A170001C4BF99B1CCBF2406244D2444249B24989
:10A1800005618280F2406244D2444249B24911459D
:10A1900005618280372702401C4B1145F99B1CCB7F
:10A1A000D9BF93F7050193F8F50099C3B3E8C80048
:10A1B0008147854E3D4E930F8002930280042143D8
:10A1C000139627003397FE003318CE00758F13487F
:10A1D000F8FF3396C80001CF032F05003378E8015C
:10A1E00033660601638FF5056389550410C1850741
:10A1F000E39867FC854E3D4E930F800293028004E6
:10A2000041431397270001173396FE003318EE00E1
:10A21000758E1348F8FF3397E80001CE032F4500F1
:10A220003378E80133670701638FF50163895500CF
:10A2300058C18507E39767FC828018C945BF10C9DC
:10A24000C5BF58C965B750C9E5B708456D8D3335E9
:10A25000A000828048456D8D3335A0008280B717FD
:10A260000240135765003E9714438547B397A700F4
:10A27000D58F1CC38280B7170240135765003E97E5
:10A2800014438547B397A700D58F1CC38280B717A7
:10A290000240135765003E9714438547B397A700C4
:10A2A00093C7F7FFF58F1CC38280B7170240DC43CA
:10A2B0003747FFEF7D179546F98F6300D50263EBB3
:10A2C000A6000D476364A7003A05C98F37170240FF
:10A2D0005CC382801D47E31BE5FE31773A05798D2B
:10A2E0005D8DB7070010C98F371702405CC38280AD
:10A2F000B7070304370708090111938717201307CD
:10A3000067703ECC3EC23EC602C802CA3ACE02C008
:10A3100002C4B7160240D842B7177A00094609832B
:10A320000D8B93870720630DC704371702405043F6
:10A330005443584311820C103D8A2E96034606FF63
:10A34000A1822D839D8A1D8B2E97AE96054833D60C
:10A35000C70083C506FE034787FE6301050B11CDC9
:10A360008946B357B600630AD50075151335150035
:10A37000B357E6003305A040E98F3E850561828032
:10A38000D8421316F700635F0606D8561316F70077
:10A3900063580602D856DC56454693564700A183BB
:10A3A000BD8BBD8A1387270085066313C7005147FD
:10A3B000B7177A0093870720B3D7D702B387E7028E
:10A3C000371702405857B71602403D8B0507B3D7E1
:10A3D000E702D842D4424983139626003D8B63415D
:10A3E0000604BD466300D7040907631ED70213970E
:10A3F00017003E9706078583BA9705BFB2873E854B
:10A4000005618280B7160240D842D442B7173D009A
:10A41000498313962600938707903D8BE35306FCF0
:10A42000136707010507B307F70201B74111B71713
:10A43000004006C6138707C06309E5046371A702DD
:10A4400013870740630DE50437370140130707C042
:10A450006301E5066309F506B240410182803707D2
:10A46000004093060740630AD50693870780630080
:10A47000F508E313E5FE13050040EFF0DFDFB2401F
:10A480001305004041016FF09FE013053040EFF0ED
:10A490009FDEB2401305304041016FF05FDF1305CE
:10A4A0005040EFF05FDDB2401305504041016FF0C6
:10A4B0001FDE1305B030EFF01FDCB2401305B030E3
:10A4C00041016FF0DFDC13054040EFF0DFDAB2400E
:10A4D0001305404041016FF09FDB13051040EFF082
:10A4E0009FD9B2401305104041016FF05FDA1305A8
:10A4F0002040EFF05FD8B2401305204041016FF0DB
:10A500001FD983D7050003D745001376F5BF1CD5A7
:10A51000B7370140938707C0418B6306F504FD7789
:10A520009387F73FE98FB7060040638ED7021C413F
:10A53000B7160040BD9B1CC11C415D8F18C19C45D6
:10A540005CD5630DD600184183D7C5001377F7CFCC
:10A5500018C1184193F70730D98F1CC15C4993E7A4
:10A5600017005CC98280144183D72500371800404A
:10A5700093F6F6F814C1144193F70706D58F1CC162
:10A580001C415D8F18C19C455CD5E30906FD18414F
:10A5900083D7C500B73601401377F7CF18C11041F4
:10A5A00093F70730138706C0D18F1CC1E318E5FA73
:10A5B00083C7E50023A8F6C25C4993E717005CC98E
:10A5C00082801C4193E717001CC182801C41F99BCB
:10A5D0001CC182801C4193E707081CC182802310A4
:10A5E0000500231105002312050023130500231481
:10A5F000050023150500828085476385F50CD9C5C4
:10A6000089476387F5048D476393F5041C517D7773
:10A610007D17F98F1CD1835706001851F976B207C0
:10A62000D98F1CD11851FD1683574600758F18D14C
:10A630001451B20737370140D58F1CD1930707C09B
:10A64000630AF51E5C4D93F7F7CF5CCD8280828064
:10A650001451035706008357460093F6F6EF14D1C2
:10A6600014512207A207558F18D1145137370140D2
:10A67000930507C093F6F6DF14D11451D58F1CD182
:10A680006301B5145C4DF19B5CCD82801C518356F7
:10A69000060003574600F99B1CD103280502B73773
:10A6A0000140938507C0B3E6060114D11451F59A11
:10A6B00014D11451558F18D16307B50A1C4DF19B65
:10A6C0001CCD828014510357060083574600BD9A63
:10A6D00014D1145112079207558F18D114513737DE
:10A6E0000140930507C093F6F6FD14D11451D58FA0
:10A6F0001CD16307B5001C4D93F7F7CF1CCD8280AA
:10A700000C51835626008357660093F5F5FB0CD158
:10A710000C5192069207CD8E14D10C5183568600AF
:10A7200093F5F5F70CD10C518A06CD8F1CD18325FA
:10A7300047C08357A60093F5F5BF2322B7C0032671
:10A7400047C08A07D18E2322D7C0832647C07D7693
:10A750001306F67FF18E2322D7C0832647C0D58FFC
:10A760002322F7C049BF18510358260083556600BD
:10A770006D9B18D183280502835686000357A600D7
:10A78000336818012320050310515D9A10D1105130
:10A79000D18D0CD103A647C01376F6EF23A2C7C014
:10A7A00003A647C0D18E23A2D7C083A647C093F685
:10A7B000F6DF23A2D7C083A647C0558F23A2E7C0E8
:10A7C000F5BD0C5183572600FD7693F5F5BF0CD1EE
:10A7D0000C51A2079388F67FCD8F1CD10328050268
:10A7E0009385F6FF83576600B376180114D10328CA
:10A7F0000502A20783568600B3E707011CD1832711
:10A8000047C09206FD8D2322B7C0832547C08357DA
:10A81000A6007976CD8E2322D7C0832647C07D1629
:10A820009207F18E2322D7C0832647C0D58F2322DB
:10A83000F7C089BD832747C0F176FD16F58F232227
:10A84000F7C083578600832647C09A07D58F2322F7
:10A85000F7C0CDBB85476384F502A1C58947638AEC
:10A86000F5028D47639CF5005C4D65777D17F98F88
:10A870005CCD5C4D22065D8E50CD828082801C4D69
:10A8800065777D17F98F1CCD1C4D22065D8E10CD8E
:10A8900082805C4D93F7F7F85CCD5C4D5D8E50CDBA
:10A8A00082801C4D93F7F7F81CCD1C4D5D8E10CDAA
:10A8B00082808547638CF50091CD8947638AF500D6
:10A8C0008D476394F50030C18280828010DD8280E4
:10A8D00050DD828050D9828085476385F502A9C505
:10A8E0008947638CF5028D47639DF5005C4D7D774C
:10A8F0001307F77FF98F5CCD5C4D22065D8E50CD3E
:10A90000828082801C4D7D771307F77FF98F1CCDE5
:10A910001C4D22065D8E10CD82805C4DDD9B5CCD92
:10A920005C4D5D8E50CD82801C4DDD9B1CCD1C4D41
:10A930005D8E10CD82805C45DD8D4CC5828093C5D7
:10A94000F5FF0CC982804111B757004006C6138736
:10A9500007C0630AE5046374A7026300F506B747FE
:10A960000140938707806314F5061305E030EFF08C
:10A970009F90B2401305E03041016FF05F9137477F
:10A980000040130707406307E504938707806310BF
:10A99000F50413052041EFF01F8EB240130520414E
:10A9A00041016FF0DF8E13053041EFF0DF8CB240D4
:10A9B0001305304141016FF09F8D13054041EFF0C9
:10A9C0009F8BB2401305404141016FF05F8CB24054
:10A9D0004101828013051041EFF0FF89B240130559
:10A9E000104141016FF0BF8A41113757004022C426
:10A9F00026C206C6930707C02A84AE846308F504FE
:10AA000063FBA7026304E50437470140130707808F
:10AA100001456315E4000D45EFF09F8D93D71400B9
:10AA2000AA97B3D79702B2409244C207C1831CC40D
:10AA3000224441018280B746004093860640630766
:10AA4000D500130707800145E31AE4FC0945EFF040
:10AA50003F8AE9B75C4593F7F79F5CC55C45DD8DA0
:10AA60004CC582805C457D777D17F98F5CC55C4560
:10AA7000DD8D4CC582801C4975777D17F98F1CC907
:10AA80001C49DD8D0CC982805C450967D98F5CC586
:10AA900082805C45DD9BDD8D4CC582805C45ED9BF5
:10AAA000DD8D4CC5828093F5F51F4CC182804841F5
:10AAB0001375F51F82805C4993F7F7EFDD8D4CC964
:10AAC00082805C4993F7F7DFDD8D4CC9828093D794
:10AAD000650093F7F73F3E9508413355B50005896A
:10AAE000828093D7650093F7F73F3E9518418547DD
:10AAF000B397B700D98F1CC1828013D76500137735
:10AB0000F73F93D765012A97AA971043944313D729
:10AB1000050185473397E700758F19C73395B7004F
:10AB2000718D3335A000828001458280B7170240C5
:10AB30009843B706FFE0B1061367170098C3D843E0
:10AB40003706F7EA7D16758FD8C39843B706F7FE28
:10AB5000FD16758F98C39843B706FCFFFD16758FD9
:10AB600098C3D843B70601DFFD16758FD8C323A657
:10AB7000070294433707FF00C165F18E94C398C75D
:10AB800098439386F5FF371602404D8F98C311A066
:10AB900099C61C42FD161397E700E35B07FEB71743
:10ABA000024098439316E70063D0060AD84337065D
:10ABB000C4DF7D16D8C3D843B7160240D8C3D843E4
:10ABC00013670740D8C3D843718FD8C3D84337061B
:10ABD0002920518FD8C3D8573D76718FD8D7D857F1
:10ABE0004166130616F1518FD8D7984337060004F3
:10ABF000518F98C39C4213974700E35D07FE9C4228
:10AC00003706001037170240D18F9CC21C43939621
:10AC10002700E3DD06FE144337060001B7170240A4
:10AC2000D18E14C3984393166700E3DD06FED84324
:10AC3000B7160240719BD8C3D84313672700D8C307
:10AC4000DC42A18BF5DF828001A0014863C6050EBE
:10AC500063DB06003306C040B337C000B306D04004
:10AC60001348F8FF9D8EB6873283AA8EAE88639113
:10AC7000061863FCC50C41676361E61EB707000157
:10AC80006365F63693568601E1471767FFFF1307A2
:10AC9000E7D1369703470700BA97130700021D8FC5
:10ACA00019CBB395E500B357F5003313E600B3E8CD
:10ACB000B700B31EE50013560301B3D7C8029316BD
:10ACC0000301C18213D70E01B3F5C8023385F60222
:10ACD000C205B3E8E50063FAA8009A981387F7FF66
:10ACE00063E4680063E9A832BA87B388A840B3D5A3
:10ACF000C802C20E93DE0E01B3F8C802B386B602D4
:10AD0000C208B3E8D80163FBD8009A981387F5FF0F
:10AD100063E56800F91563E3D800BA851395070168
:10AD20004D8D8145630908003305A040B337A0006D
:10AD3000B305B0409D8D82803305A040B337A0009D
:10AD4000B305B0409D8D7D5821B701E605433353CF
:10AD5000D3024167636AE30EB7070001636BF32810
:10AD600093568301E1471767FFFF130727C4369700
:10AD700003470700BA97130700021D8F65EB93186E
:10AD80000301B3866540135F030193D8080185452D
:10AD900013D70E01B3D7E603B3F6E60333861703E2
:10ADA000C206558F637AC7001A979386F7FF6364CC
:10ADB00067006365C726B687118FB356E703C20ED7
:10ADC00093DE0E013377E703B38816034207336738
:10ADD000D701637B17011A971386F6FF6365670037
:10ADE000F91663631701B28613950701558D1DBFD0
:10ADF00063E1D504C16763E1F604B707000163E2CC
:10AE0000F61E93D8860161479767FFFF938707BABD
:10AE1000C69703C30700930700023A93B3876740BE
:10AE2000E9EB63ECB61C3335C500134515008145CD
:10AE3000D5BD81450145FDB59307F00F63F2D71CE1
:10AE400093D886002147C9B71307F00F9A86E37C91
:10AE500067F093568300A14739B71307F00FB28606
:10AE6000E375C7E293568600A14705B53313E300A7
:10AE700033D6F500135F0301335EE603B396E500B6
:10AE8000B357F500DD8E9318030193D80801B31E64
:10AE9000E50093D50601B377E6033387C803C207FD
:10AEA000CD8F63FBE7009A971306FEFF63E36716F7
:10AEB00063F1E716791E9A97998F33D6E7031397B4
:10AEC00006014183B3F7E7033385C8029396070170
:10AED000D98E63FBA6009A969307F6FF63E7661286
:10AEE00063F5A61279169A9693150E01898ED18D67
:10AEF00045B533576600B396F600D98EB3D86500D2
:10AF000013DF0601B3DEE803139E06013353650029
:10AF1000135E0E01B395F500B365B30013D70501B9
:10AF20003316F600B3F8E8033303DE03C20833E751
:10AF3000E800637B670036979388FEFF6369D70C50
:10AF40006377670CF91E3697330767403353E7037F
:10AF5000C205C1813377E703B3086E024207D98D7A
:10AF600063FB1501B6951307F3FF63EED50863FC89
:10AF700015097913B695C20E416FB3EE6E00130733
:10AF8000FFFFB3F6EE0013D30E01718F4182338EB3
:10AF9000E602B3851541B386C60293580E01330706
:10AFA000E302BA96C6963306C30263F3E6007A96C6
:10AFB00013D306011A9663E2C5026385C500768540
:10AFC00081458DB341677D17F98EC206337EEE0051
:10AFD000B317F500F296E3F4D7FE1385FEFF814523
:10AFE00091B393D80601414705B593560601C14771
:10AFF00069B993560301C147BDB3814505451DB3EA
:10B00000B688014711B53A83BDB73E86F1BDC68EFD
:10B0100025BF328E55B5F9179A98C1B9F9171A9705
:10B0200061BB4111370780007D1713D8750126C217
:10B03000935475013373A70093F4F40FB376B700FC
:10B040004AC01378F80F1359F50106C622C4FD81D2
:10B050009A8726854A86131E3300939E3600B3884E
:10B060000441630AB90E6350100D6304081493077A
:10B07000F00F638BF414B7070004B3EEFE00ED4746
:10B0800063C1172993070002B3871741B397FE00E6
:10B09000B3D81E01B337F000B3E7F800B307FE40A2
:10B0A00013975700635E0718370400047D147D8CE6
:10B0B0002285EF00F05D6D15B317A4006348951A63
:10B0C000058D1304150013070002018F3397E70065
:10B0D0003337E000B3D78700D98F814413F7770067
:10B0E00019C713F7F70091466303D7009107139729
:10B0F0005700635B071485041307F00F4A866383C8
:10B10000E4169A07A58313F5F40FB2402244A6076C
:10B110009314750113D59700458D7E06924402491C
:10B12000518D410182806399080A138714001377B7
:10B13000E70F6317071463900422630D0E1EE38666
:10B140000EFCB307DE411397570063500722B38705
:10B15000CE412E8961B7635C100B630E080893071C
:10B16000F00F6383F406B7070004B3EEFE00ED476B
:10B1700063C9171F93070002B3871741B397FE00F7
:10B18000B3D81E01B337F000B3E7F800F297139776
:10B1900057006357070A85041307F00F6384E40C14
:10B1A000B706007E13D71700FD16858B758FD98FD4
:10B1B00035B7638D0E08FD18B307DE41E38208EE54
:10B1C0009307F00FE39DF4EA630D030801461305AE
:10B1D000F00FB707400015BF33079840EDE8630252
:10B1E0000E147D17630807189307F00F6319F80E04
:10B1F0002E893683D1BF638B0E04FD18B307DE01A1
:10B20000E38708F89307F00FE393F4F675BF6395AF
:10B210000808850413F7E40F63130712631705107A
:10B22000630F0E14E3830EEEB307DE01139757008E
:10B23000814463570700370700FC7D17F98F854469
:10B2400013F77700E31F07E813D337009307F00FD6
:10B25000E38CF4F693179300A58313F5F40F4A8655
:10B260006DB54A861305F00F814745B5370700FCD9
:10B270007D17F98F13F77700898CE31407E6E9B798
:10B280003304DE419317540063C3070CE31204E256
:10B2900001460145814795BD33079840ADC49307EA
:10B2A000F00FE308F8F4B7070004336EFE00ED4733
:10B2B00063CCE70C93070002998FB317FE00335756
:10B2C000EE00B337F000D98FF697C284C9B5930763
:10B2D000F00FE30FF8F0B7070004336EFE00ED4700
:10B2E00063C3E70893060002998EB316DE00B357D6
:10B2F000EE003337D000D98FB387FE40C2842E8949
:10B3000045B3854761BB630E0E067D17B307DE01AB
:10B31000C284E30E07E69307F00FE31AF8F83683CA
:10B3200065B53683C2842E8915B7E3040EECE38D30
:10B330000EE869BD638D0E022E86B687F9B39307BA
:10B34000F00FE381F4F2B307DE018583D5BD3384CA
:10B35000CE412E89B1BBE31C0EFCE3890EE62E899B
:10B3600049BD854725B5854741BFE39B07EC0146AD
:10B37000814761BBB387CE41C2842E8915B3B6879E
:10B3800069B33683C284D9B585473DBF39719357B8
:10B3900075014AD856D25ECE931A95001359F5011D
:10B3A00006DE22DC26DA4ED652D45AD093F7F70FB7
:10B3B00093DA9A00CA8B638207121307F00F638433
:10B3C000E7128E0A37070004B3EAEA00138A17F877
:10B3D0000144014B93D775019394950093F7F70FB0
:10B3E000A58093D9F501FDC71307F00F6387E70226
:10B3F0008E04938717F837070004D98C330AFA4074
:10B400008146558C1757FFFF1307474E0A043A949D
:10B410001C4033493901BA978287130A1AF0F9E8B8
:10B420008946558C1757FFFF130747500A043A9473
:10B430001C4033493901BA97828701491307F00F3D
:10B44000B707400013959700F250625493177701A5
:10B4500025817E095D8D33652501D2544259B2594B
:10B46000225A925A025BF24B216182801307F00F3D
:10B470008147C9BFA68ACE8B368B8947630BFB1ADF
:10B480008D47E30CFBFA8547630AFB0A1307FA07AB
:10B4900013F91B006357E01293F77A0099C793F7EB
:10B4A000FA0091466383D700910A93974A0063D9C3
:10B4B0000700B70700F8FD17B3FAFA0013070A08E8
:10B4C0009307E00FE3C4E7FA93976A00A583137725
:10B4D000F70F8DBFB9E48546A9B763940A021144FA
:10B4E000014A054BC5BD63990A002144130AF00FB8
:10B4F000094BCDB58D4631B73144130AF00F0D4BD2
:10B50000D1BD56852EC6EF00B0189307B5FFB39A8C
:10B51000FA009307A0F8338AA7400144014BB245D3
:10B5200055BD2685EF00D0161307B5FFB307AA0057
:10B53000B394E400138A67078146E1B513F91B0051
:10B540000147814701B74166139554007D16935713
:10B550000501698E63FA9A0AB3D5FA027D1AD68676
:10B5600001473388C502B3F6F602C206558F637BE6
:10B5700007012A979386F5FF6368A70A6376070B8E
:10B58000F9152A9733070741B356F7023377F702C5
:10B59000B38AC6029317070163FB5701AA97138763
:10B5A000F6FF63E1A70863FF5707F916AA97C205DC
:10B5B000B38A5741D58DB33A5001B3EA5501CA8BCE
:10B5C000F1B58546998E11C76D4601478147E34B1A
:10B5D000D6E6130AEA09339A4A01B3D7DA00B33A36
:10B5E0004001B3E7570113F7770019C713F7F700C6
:10B5F00091466303D70091071397570063480702EA
:10B600009A07A58301473DBD93D61A00B3D5F6022C
:10B610001397FA0141833388C502B1B7CE8B368BBD
:10B62000814AA1BDBA8661B7B685A9BF05478147E2
:10B6300011BD13F91B001307F00F814721B5935675
:10B640007501B7078000FD1713D6750193F6F60F45
:10B650001308F00FB3F8A7001357F501ED8F137619
:10B66000F60FFD8163810603630C06018DE211E292
:10B67000B1C3638E08026305B70405451DE78280E8
:10B68000F5D779558280E39E08FE6309D60211E260
:10B69000EDD7E314B7FEE342D6FE63C7C600E3EE80
:10B6A00017FD0145E3FDF8FC01E77D558280F5DDDE
:10B6B000054582800145E39208FC8280F9DBD1B721
:10B6C0008146E1BF93567501B7078000FD1713D679
:10B6D000750193F6F60F1308F00FB3F8A700135790
:10B6E000F501ED8F1376F60FFD816387060363097D
:10B6F000060185EA11EA89EB0145639B0800828017
:10B700000945F5FFE5DA31A8638C08026300B70448
:10B71000054575D77D558280094563980802630405
:10B72000D60211E2F5D7E315B7FEE343D6FE63C7B1
:10B73000C600E3EF17FD0145E3F3F8FC19E3D9BFB9
:10B74000F1D905458280E5D3828082808146C5B7E4
:10B75000797122D4135475014ECE52CC93199500B1
:10B7600006D626D24AD056CA5AC81374F40F93D9B3
:10B770009900135AF50169C49307F00F6308F40E9A
:10B780009397390037070004B3E9E700130414F86E
:10B790008144014B13D77501939A95001377F70FE6
:10B7A00093DA9A0013D9F50145CF9307F00F630C94
:10B7B000F7028E0A130717F8B7070004B3EAFA0076
:10B7C0003A94014633452A01BD47AA8693051400E1
:10B7D00063E097101757FFFF130747198A04BA94BD
:10B7E0009C40BA9782871304F40F63960A0C93E483
:10B7F00024000946C1BF01451307F00FB7074000F9
:10B80000B2502254A6075E07A5837E05D98F9254B5
:10B810000259F249624AD24A424B5D8D45618280AB
:10B82000CA86D689328B8947630FFB088D47E304AC
:10B83000FBFC854736856310FB1A01478147C9B772
:10B84000639D090413D77501939A95001377F70F39
:10B8500091440144054B93DA9A0013D9F50131F76D
:10B86000639D0A0093E414000546A9BF6392090290
:10B87000A1441304F00F094B31BF5685112D9307D6
:10B88000B5FF098CB39AFA001304A4F801461DBF52
:10B89000B1441304F00F0D4BF5BD4E852EC6CD2BD4
:10B8A0009307B5FF1304A0F8B399F900098C8144FC
:10B8B000014BB245C5B593E434000D4621B7894725
:10B8C000D286E315FBF636851307F00F81470DBFCF
:10B8D00041639306F3FF13D6090193D80A01B3F726
:10B8E000D900B3FADA0033885703B389F802135743
:10B8F0000801B30A5603D6994E97330616036373AD
:10B9000057011A96C167FD17B376F7003378F80030
:10B91000C206C2969399660093570701B339300166
:10B92000E982B2979A07B3E6D900B3E9D7009397B3
:10B93000490063D9070013D7190093F71900B369B9
:10B94000F7002E841307F4076350E00493F779009F
:10B9500099C793F7F90091466383D70091099397AC
:10B96000490063D90700B70700F8FD17B3F9F900DC
:10B97000130704089307E00F63CBE704939769006C
:10B98000A5831377F70FADBD8547B386E74011C791
:10B990006D4601478147E345D6E61307E40933972F
:10B9A000E9003337E000B3D7D900D98F13F7770018
:10B9B00019C713F7F70091466303D7009107139750
:10B9C0005700634C07009A07A583014715BD13076D
:10B9D000F00F814735B52E84B5B7054781470DB5C2
:10B9E0003707800041117D179356750113D87501F3
:10B9F000B377A70093F6F60F935EF5013376B700A1
:10BA000026C24AC01378F80F06C622C41303F00FEB
:10BA10003E8E3689F684139F3700FD81131536005C
:10BA2000B38806416302681093C51500638CBE108D
:10BA30006354100D631008106304051EFD18B3074E
:10BA4000AF40638608029307F00F6388F616ED4750
:10BA500063C7172913070002330717413317E5009F
:10BA6000B35715013337E000D98FB307FF40139761
:10BA700057006351071A370400047D147D8C22851A
:10BA800001296D15B317A400634E251B330525410D
:10BA90001304150013070002018F3397E7003337B3
:10BAA000E000B3D78700D98F014913F7770019C792
:10BAB00013F7F70091466303D700910713975700D8
:10BAC000635E0714930619001307F00F93FE14002A
:10BAD0006386E6169A07A58393F6F60FA607B2408B
:10BAE000224413D59700DE069397FE01558D9244AC
:10BAF00002495D8D410182806392080A1387160016
:10BB00001377E70F631B07146394062263020F2069
:10BB100071D5B307AF401397570063550722B3079A
:10BB2000E5410149AE8451B7E30005F0638ABE0ADE
:10BB3000E35410FD9307F00F6381F608B707000484
:10BB40005D8D31B7635E1009630108089307F00F3C
:10BB50006385F606B70700045D8DED4763C0171FC8
:10BB600013070002330717413317E500B3571501D8
:10BB70003337E000D98FFA9713975700635C0708B3
:10BB800005091307F00F630BE90AB706007E13D708
:10BB90001700FD16858B758FD98F01BF3307D840ED
:10BBA00063950610630D0F147D176303071A93073F
:10BBB000F00F6314F810AE84328E630F0E06814EC0
:10BBC0009306F00FB707400011BF39C9FD18B3073E
:10BBD000AF00E38308FA9307F00FE390F6F8F1BFA4
:10BBE00063990808138916001377E90F6316071283
:10BBF000639B061063030F16E30205EEB307AF0065
:10BC000013975700014963570700370700FC7D175A
:10BC1000F98F054913F77700E31C07E813DE3700B7
:10BC20009307F00FE30BF9F893179E00A583937623
:10BC3000F90F93FE14005DB593FE14009306F00F08
:10BC4000814769BD370700FC7D17F98F13F777002F
:10BC50003309A940E31E07E4D1B73304AF4093177B
:10BC6000540063C3070CE31C04E0814E8146814706
:10BC7000B5B53307D840B5C69307F00FE30EF8F219
:10BC8000B7070004336FFF00ED4763CDE70C930760
:10BC90000002998FB317FF003357EF00B337F0005E
:10BCA0005D8FB307A7004289C1BD9307F00FE3047E
:10BCB000F8F0B7070004336FFF00ED4763C2E708F1
:10BCC00093070002998FB317FF003357EF00B33784
:10BCD000F000D98FB307F5404289AE8449BB854750
:10BCE00069B3630E0F067D17B307AF004289E30502
:10BCF00007E89307F00FE319F8F8328E7DBD328E16
:10BD00004289AE8431BFE3090FEAE30805EA45BD85
:10BD10000DCDAE8EB287D9B39307F00FE300F9F2E1
:10BD2000B307AF008583FDB53304E541AE8481BB25
:10BD3000E31D0FFCE30505E8AE84BDBD854725BDC9
:10BD4000854749BF0149E39707EC814E814779B3A5
:10BD5000B307E5414289AE8419BBB28741B3328E45
:10BD600042897DBD054735BF3706800013577501F1
:10BD70009307F6FF1377F70F9305E007B3F6A700D5
:10BD80009357F50163FCE5009305D00963FAE500DC
:10BD9000370500801345F5FF3E958280014582807E
:10BDA00093055009D18E63CDE50013066009330772
:10BDB000E64033D7E6003305E040F5F33A8582806C
:10BDC0001307A7F63397E600FDB7411106C622C454
:10BDD00026C20DCD9357F54133C4A7001D8CAA840C
:10BDE00022857D209307E0093387A74093076009E8
:10BDF000FD8063CCE702A1469377F70F63D5A600D9
:10BE000061153314A4002604258021A081448147B4
:10BE10000144260413559400B2402244DE07FE0478
:10BE20005D8D458D9244410182809307900963DDC9
:10BE3000E7009307B5019546B317F400898E335494
:10BE4000D400B337F0005D8C954763D6A700930705
:10BE5000B5FF3314F400B70600FCFD1693777400A9
:10BE60003376D40085C39377F4009145638CB70093
:10BE700011069317560063D707009307F009758ED4
:10BE80003387A7401314660025809377F70F51B7C7
:10BE9000C167637EF5029307F00F1307000263EC9E
:10BEA000A7009757FFFF938767B0AA9703C50700BE
:10BEB0003305A740828021819757FFFF938707AF03
:10BEC000AA9703C5070061473305A7408280B707DB
:10BED0000001636EF50061819757FFFF938707ADFF
:10BEE000AA9703C5070021473305A74082804181F7
:10BEF0009757FFFF938787ABAA9703C50700414772
:10BF00003305A7408280AA8581460146014539AAAA
:10BF1000411122C406C6970700009387A7192A84F7
:10BF200099C381457122970700009387E7248843CE
:10BF30001C5591C382972285EFD0BFA84111970766
:10BF400000009387A72322C41704000013040423CE
:10BF50001D8C26C206C60984BE8419E42244B24060
:10BF6000924441016FD09FD27D1493172400A6976D
:10BF70009C438297DDB74111970700009387072004
:10BF800022C4170400001304641F1D8C26C24AC07B
:10BF900006C6098481443E8963988402EFD09FCD10
:10BFA000970700009387871D170400001304041DE2
:10BFB0001D8C098481443E89639F8400B2402244E1
:10BFC000924402494101828093972400CA979C437E
:10BFD00085048297D1B793972400CA979C43850420
:10BFE0008297D9BF9747FF1793870708B2862E8697
:10BFF000AA85884309A0411122C42A842E85B285CE
:10C00000368697A7FF1723AD073C06C6EFD05FA57E
:10C01000FD576319F50097A7FF179387673C9C436B
:10C0200091C31CC0B2402244410182809387819E0B
:10C030009C432A8E9DE317A7FF171307A73123A45C
:10C04000E19E1745FFF71305E5FBBA8719C51C41AB
:10C0500017A5FF172324F538BA87D8437D487D55A7
:10C060006347E804630E0E0203A88708630108040F
:10C0700093182700C29823A0C80003230810054680
:10C080003316E6003363C3002320681023A0D808CA
:10C0900089466317DE0083264810558E2322C81078
:10C0A000930617000A07D4C3BA978CC7014582804C
:10C0B000797152CC56CA5AC85EC606D622D426D248
:10C0C0004AD04ECE62C42A8B2E8A938A819E854B9B
:10C0D00003A40A0011C84440832984081389F4FF8B
:10C0E0008A04A294635E0900B25022549254025909
:10C0F000F249624AD24A424BB24B224C456182809D
:10C10000630E0A00639509007D19F114E1BF9317CE
:10C110002900CE9783A70708E39847FF5840DC40E3
:10C120007D176318270323222401F9DF032C440021
:10C130006388090083A6091033972B01F98E89EED5
:10C140008297584083A70A00E31487F9E30EF4FAB4
:10C1500041B723A20400D1BF93162900CE968C428A
:10C1600083A64910758F01E75A858297D9BF2E851E
:04C170008297C1BF32
:04C1740000000020A7
:10C1780000000000000000000000000000000000B7
:10C1880000000000000000000000000000000000A7
:10C198000000000000000000000000000000000097
:10C1A8000000000000000000000000000000000087
:10C1B8000000000000000000000000000000000077
:10C1C8000000000000000000000000000000000067
:08C1D80000F36F0600000020D7
:040000050800015C92
:00000001FF
