:020000040800F2
:10000000B1AA010000000000000000000000000094
:1000100000000000000000000000000000000000E0
:1000200000000000000000000000000000000000D0
:1000300000000000000000000000000000000000C0
:1000400000000000000000000000000000000000B0
:1000500000000000000000000000000000000000A0
:100060000000000000000000000000000000000090
:100070000000000000000000000000000000000080
:100080000000000000000000000000000000000070
:100090000000000000000000000000000000000060
:1000A0000000000000000000000000000000000050
:1000B0000000000000000000000000000000000040
:1000C0000000000000000000000000000000000030
:1000D0000000000000000000000000000000000020
:1000E000AA660008000000000000000000000000F8
:1000F0000000000000000000000000000000000000
:1001000000000000000000000000000000000000EF
:1001100000000000000000000000000000000000DF
:1001200000000000006D000800000000000000005A
:1001300000000000000000000000000000000000BF
:1001400000000000000000000000000000000000AF
:100150000000000000000000000000007370043088
:10016000170500001305C5FF8545F605637BB5003F
:1001700089816378B500170500001305C5002E9529
:1001800002859302002073A0027D970200009382F3
:1001900062E77390723097720000938262EE739000
:1001A000C27E73E0C07E977200009382A2E57390D6
:1001B0005230970100189381E16A178100181301EA
:1001C00061E41785000013052559970500189385EC
:1001D00065E317060018130666E963FAC500832273
:1001E000050023A0550011059105E3EAC5FE17059A
:1001F00000181305A5E7974500189385A560637758
:10020000B500232005001105E36DB5FE73F0023241
:100210001785000013058530EF80A02CEF80603338
:1002200001458145052D6F80602C01A073E00232ED
:0A023000828073F002328280000029
:10024000F82E0008F62C0008F82E0008402D0008B3
:10025000762D0008DA2D0008F82E0008F82E000888
:10026000F82E0008F82E0008102E0008282E00088E
:10027000F82E0008442E0008F22C00086234000812
:10028000BA3400081E35000882350008E63500083B
:10029000EA33000826340008343C00081C3D0008FE
:1002A000B43D0008EA3D0008203E0008563E000824
:1002B000BA3E0008A63B0008183C0008CC440008E1
:1002C000C8440008C4440008C0440008BC440008F6
:1002D000B8440008B4440008B0440008AC44000826
:1002E000A8440008A4440008A04400089C44000856
:1002F0009844000894440008904400088C44000886
:10030000884400088444000880440008D044000861
:10031000F44B0008F65D0008E45D0008B05E0008DC
:100320005C5E00089A46000890460008944C00085D
:10033000764C0008DC5E0008324C0008FE4B0008DA
:10034000F44B0008B24B0008764B00083E4B000807
:10035000204B00085A4B00080A4B0008F04A0008DE
:10036000C84A0008D05C0008EC450008B64E0008FA
:10037000DC5E0008984E00086E4E0008484E0008EB
:100380001C4E0008F84D0008D04D0008AC4D000888
:10039000844D0008664D0008484D00082C4D0008AB
:1003A000104D0008F24C0008DC5E0008D64C000836
:1003B000B44C0008AE5C00088C5C000804590008CE
:1003C000DC580008DC5E0008B858000894580008A3
:1003D0007E580008705800082C5A0008D2450008C2
:1003E000D2450008D24500085C4600085C4600087B
:1003F000525800081E580008AE47000886540008EE
:100400004E5400081E490008EA4800085C470008EE
:10041000B85E0008DC5E0008F44B00080C570008CA
:10042000E0560008B45600087C560008DC5E000860
:100430006457000838570008A8570008DC5E000819
:1004400038560008DC5E0008DC5E0008DC5E000850
:10045000DC5E00080C560008CC550008DC5E000885
:10046000805500085E55000830550008DC5E000825
:10047000F6540008B6450008B6450008B645000821
:100480008E590008DC5E00088C4A00085C4A0008AF
:100490008E5B0008DC5E0008505B00089A4500088F
:1004A0009A4500089A450008FE490008DC5E0008ED
:1004B000524900082C4A00081E480008DC5E00086B
:1004C000C24900087C4500087C4500087C450008BE
:1004D0007C480008DC5E0008E24700087C45000814
:1004E0003E5A0008DC5E0008505900082C590008EC
:1004F000C84800083A4700087A470008DC5E000850
:100500000C540008D65300089A530008DC5E00081B
:10051000585300083453000810530008EC520008E8
:10052000B6520008DC5E0008745200083E52000813
:1005300002520008DC5E0008C05100089A51000811
:10054000745100084E5100081A510008DC5E000882
:10055000DA500008B450000884500008DC5E00083F
:100560004450000812500008E24F0008B44F000841
:10057000A24F0008EC450008DC5E0008EC450008CE
:100580004E4F0008304F0008DC5E0008644500084C
:100590006445000864450008DC5E00086445000806
:1005A000D24E0008DC5E00083845000838450008D7
:1005B00038450008DC5E000838450008905A0008FD
:1005C000DC5E00086C5A0008164600081646000853
:1005D000DC5E00081646000808470008DC5E0008DC
:1005E000E6460008705C0008545C0008DC5E000809
:1005F000385C0008065C0008DC5E0008E25B00086E
:10060000C65B00082E5D0008DC5E0008125D000875
:100610000246000802460008304600089E5D0008B9
:10062000765D00084A5D00083A5E0008FA57000847
:10063000DC5E0008F44B0008F44B0008F44B0008A3
:10064000F44B0008C65D000844460008DC5700086B
:10065000AC48000844460008A8490008824F00083A
:100660008E490008F25C0008664D0008484D0008FD
:100670000246000830460008DC5E0008F44B000823
:10068000E25A00085448000868480008F04E000884
:10069000F65A00083C5B0008BA540008D854000819
:1006A00078460008C45A0008BE5900087846000879
:1006B000DC5E00086C4F0008DC590008185E00087A
:1006C0005E640008546400084A640008406400083E
:1006D00068640008686400086864000868640008CA
:1006E00068640008686400086864000868640008BA
:1006F00068640008686400086864000836640008DC
:100700004350553A474433325646313033433854D8
:10071000362C465245513A3130382C43433A30005A
:100720000A50726F6772616D206861732065786925
:10073000746564207769746820636F64653A0000AB
:10074000307800006E6D690A0000000074726170FC
:100750000A0000000001020203030303040404046E
:10076000040404040505050505050505050505053D
:10077000050505050606060606060606060606061D
:100780000606060606060606060606060606060609
:1007900006060606070707070707070707070707ED
:1007A00007070707070707070707070707070707D9
:1007B00007070707070707070707070707070707C9
:1007C00007070707070707070707070707070707B9
:1007D000070707070808080808080808080808089D
:1007E0000808080808080808080808080808080889
:1007F0000808080808080808080808080808080879
:100800000808080808080808080808080808080868
:100810000808080808080808080808080808080858
:100820000808080808080808080808080808080848
:100830000808080808080808080808080808080838
:100840000808080808080808080808080808080828
:1008500008080808411106C6EF6090470D45EF6093
:10086000F047EF502075EF50A078F5BF828082806E
:100870008280B70700202384A706B7070020A3843F
:10088000B7068280411126C2B704002093849406E3
:1008900003C5040022C485453704002006C613049E
:1008A0008406EF60C02A034504008545EF60202AD6
:1008B00003C504008145EF608029034504002244FC
:1008C000B2409244814541016F606028411122C4C9
:1008D000370400201304940603450400814506C62E
:1008E000EF60E026B707002003C587068545EF6067
:1008F0000026034504002244B240854541016F6053
:100900000025411126C2B70400209384840603C544
:10091000040022C485453704002006C6130494064B
:10092000EF600020034504008545EF60601F03C5AC
:1009300004008545EF60A021034504008545EF6074
:10094000002189372244B2409244410141B741110C
:1009500022C43704002013049406034504004AC04F
:1009600081453709002026C206C613098906EF60B3
:10097000201B0345090085458544EF60401D034564
:100980000400EF60E021E30C95FE0345090081457A
:10099000EF60E01B034504002244B2409244024948
:1009A000854541016F60C01701114AC84EC637091D
:1009B0000020B709002022CC26CA06CEAA842144F2
:1009C000938999061309890603C5090093F504085C
:1009D0007D14EF60C0170345090085458604EF606C
:1009E00000170345090081451374F40F93F4F40FC5
:1009F000EF60E01571F86244F240D2444249B249D6
:100A00000561B1B7B70700202387A706B707002005
:100A10002386B706B7070020A386C706B7070020BE
:100A20002385D706B7070020A385E706828001113A
:100A3000B707002026CAAA8403C5B7064AC84EC60F
:100A40008145B70900203709002022CC06CE214479
:100A5000EF60E00F9389D9061309C90693978401C3
:100A6000E187814503C5090063D307008545EF6031
:100A7000000E0345090081457D14EF60400D0345DC
:100A80000900860485451374F40F93F4F40FEF60A6
:100A9000000C69F4F2406244D2444249B249056113
:100AA000828041114AC0370900201309C906034555
:100AB000090026C28545B704002006C622C49384D7
:100AC000D406EF60E00503C5040085453704002027
:100AD000EF600005B707002003C5A706854513048E
:100AE000B406EF60E003034504008545EF60400372
:100AF000034509008545EF60800503C50400814575
:100B0000EF60E00403450400814537040020EF60F6
:100B100000042945EF00D03D1304E4068347040098
:100B200091CB0547638BE70AB240224492440249C5
:100B3000410182801305E00ADD3D0145CD3D41457F
:100B4000FD3513050004E53513051008CD351305F3
:100B5000F00CF13D1305100AD93D1305800CC13D81
:100B60001305600AE9351305800AD1351305F00332
:100B70007D3D1305300D653D0145553D1305500D77
:100B80007D351305000865351305900D4D351305AA
:100B9000100F713D1305A00D593D4945493D130501
:100BA000B00D7135130500045935130500024135A8
:100BB0000945B53D1305D0089D3D51458D3D1305B3
:100BC000400AB5351305600A9D351305F00A8535D1
:100BD000834704000547E399E7F41305F00A813DD4
:100BE00013050004A9351305000A91351305600AA1
:100BF0003D3D1305400A253D1305200A0D3D130513
:100C0000800C35351305F0021D35130550020535EE
:100C100013051008293D2244B240924402491305AD
:100C20005002410129B50111B707002026CAAA8444
:100C300003C5B7064AC84EC68545B709002037091F
:100C4000002022CC06CE2144EF5070709389D90643
:100C50001309C90693978401E187814503C50900FB
:100C600063D307008545EF50906E03450900814529
:100C70007D14EF50D06D034509008604854513743B
:100C8000F40F93F4F40FEF50906C69F4F240624467
:100C9000D2444249B24905618280E1BE411106C693
:100CA00022C42A84C53613058007FD390145ED3974
:100CB0002285DD392244B240410109B9411106C6FD
:100CC00089311305E00AD93F0145C93F4145F9374C
:100CD00013050004E13713051008C9371305F00C9C
:100CE000753F1305100A5D3F1305800C453F130542
:100CF000600A6D371305800A55371305F003793FF5
:100D00001305300D613F0145513F1305500D7937F3
:100D10001305000861371305900D49371305100FAF
:100D2000B53F1305A00D9D3F49458D3F1305B00DFF
:100D3000B537130500049D371305000285370945B3
:100D4000B13F1305D008993F5145893F1305400A2B
:100D5000B1371305600A9937B2401305F00A410113
:100D600035BF411106C622C42A84293E13058007D7
:100D70002539130500040D3922853D312244B24046
:100D80004101A9B6B7070020238DA706B7070020A9
:100D9000238CB706B7070020A38DC706B70700202E
:100DA000A38CD7068280B70700202381B708B70736
:100DB00000202390A7088280B7070020238FB70662
:100DC000B7070020239EA706828001114AC84EC69D
:100DD00037090020B709002022CC26CA06CEAA84F3
:100DE0002144130989079389A9070345090081450F
:100DF0007D14EF50D05503C5090093F50408137412
:100E0000F40FEF50D0540345090085458604EF5098
:100E1000105493F4F40F71F8F2406244D244424902
:100E2000B249056182804111B707002022C423AA7C
:100E3000A70637040020B70700201304940723A84F
:100E4000B706B7170008034504009387273123AA84
:100E5000F184B717000893872736814506C623A873
:100E6000F184EF50D04E130560038537034504002D
:100E70008545EF50D04D0145893F0345040081452C
:100E8000EF50F04C1305A003893703450400854556
:100E9000EF50F04B1545153F034504008145EF50D9
:100EA000104B1305200B1537034504008545EF5003
:100EB000104A3145193F034504008545EF5030493C
:100EC00031452137034504008545EF505048014521
:100ED000ED3D034504008545EF5070471305300391
:100EE000ED35034504008545EF507046130530038A
:100EF000E93D034504008145EF5070451305700B33
:100F0000E935034504008545EF507044130550034F
:100F10006D3D034504008145EF5070431305B00B50
:100F20006D35034504008545EF5070426545713DC0
:100F3000034504008145EF5090411305000C7135C5
:100F4000034504008545EF5090401305C002B53DB0
:100F5000034504008145EF50903F1305200CB53543
:100F6000034504008545EF50903E0545B93D0345D6
:100F700004008145EF50B03D1305300CB9350345F1
:100F800004008545EF50B03C4945813503450400D8
:100F90008145EF50D03B1305400C053D034504004F
:100FA0008545EF50D03A130500020535034504008E
:100FB0008145EF50D0391305600C013D0345040015
:100FC0008545EF50D0383D4509350345040081453E
:100FD000EF50F0371305000DCD3B03450400854568
:100FE000EF50F0361305400ACD3303450400854524
:100FF000EF50F0351305100AC93B03450400814545
:10100000EF50F0341305000EC93303450400854545
:10101000EF50F0331305000D4D3B034504008545AB
:10102000EF50F03211455533034504008545EF502C
:1010300010323545593B034504008545EF503031AA
:1010400045456133034504008545EF5050304D451B
:10105000AD3B034504008545EF50702F1305B002EA
:10106000AD33034504008545EF50702E1305F003A2
:10107000A93B034504008545EF50702D130540053D
:10108000A933034504008545EF50702C1305C004B7
:101090002D3B034504008545EF50702B61453533EA
:1010A000034504008545EF50902A3545393B0345FB
:1010B00004008545EF50B0292D45013B0345040050
:1010C0008545EF50D0287D4509330345040085450B
:1010D000EF50F02713053002CD3903450400814558
:1010E000EF50F0261305100ECD3103450400854561
:1010F000EF50F0251305000DC9390345040085455F
:10110000EF50F0241145D131034504008545EF50DF
:10111000102431455D39034504008545EF503023E7
:1011200045456531034504008545EF5050224D4546
:101130006939034504008545EF5070211305C0024D
:101140006931034504008545EF5070201305F00315
:10115000AD39034504008545EF50701F1305400469
:10116000AD31034504008545EF50701E1305100591
:10117000A939034504008545EF50701D1305F002A1
:10118000A931034504008545EF50701C7D45353974
:10119000034504008545EF50901B7D453D310345D7
:1011A00004008545EF50B01A130500023939034594
:1011B00004008545EF50B01913053002393103455D
:1011C00004008145EF50B01813051002FD3E0345A1
:1011D00004008145EF50B0174545C53E2945EF0055
:1011E0002051034504008145EF5070162244B2405F
:1011F000130590024101D1BE4111B707002022C45E
:101200002A8403C59707854506C6EF505014135529
:101210008400EFF09FBB1375F40F2244B2404101EC
:101220006FF0BFBA011122CC3704002013049407D9
:1012300052C42A8A034504004AC82E89814506CE35
:1012400026CA4EC6B684B289EF5070101305A002AC
:10125000EFF0BFB752854D374E85793F0345040007
:101260008145EF50D00E1305B002EFF01FB64A854E
:10127000613726855137034504008145EF50300D15
:101280006244F240D2444249B249224A1305C002A4
:1012900005616FF09FB3011126CA52C4B704002044
:1012A000370A0020130A4A07938404079C40032648
:1012B0000A004AC8FD177D169396070142062A893F
:1012C000C1824182814501454EC606CE22CC993F5E
:1012D00083270A0081496356F0029C400144635A07
:1012E000F0004A85113F05049C4042044180E34AD6
:1012F000F4FE850983270A00C20993D90901E3CEC8
:10130000F9FCF2406244D2444249B249224A0561A2
:101310008280B707002083C727088DE3634005025A
:10132000B707002083A74707635AF50063C8050085
:10133000B707002083A7070763C3F5008280131651
:101340000501939605014182C18241113285B6851E
:1013500006C6C93DB7070020B24003D507084101C2
:1013600061BDB707002083C7E7078DE3634005022F
:10137000B707002083A74707635AF50063C8050035
:10138000B707002083A7070763C3F5008280131601
:101390000501939605014182C18241113285B685CE
:1013A00006C64935B7070020B24003D5C70741013B
:1013B000A1B5B7070020A381A708B7070020A38223
:1013C000B708B70700202382C708828041114AC0AE
:1013D00037090020130939080345090026C285454D
:1013E000B704002006C622C493845408EF5040730B
:1013F00003C50400854537040020EF5060721304D4
:101400004408034504008545EF50807103450900F9
:101410008545EF50C07303C504008545EF50207328
:10142000034504002244B2409244024981454101EF
:101430006F50E07101114EC6B70900209389590819
:1014400022CC2A8403C5090026CA8145B70400209E
:1014500006CE4AC893844408EF50606F03C5040069
:1014600085451149EF50A06E03C504008145EF503A
:10147000006E03C50900937504087D19EF50206DB7
:1014800003C5040085450604EF50606C03C50400E5
:1014900081451379F90F1374F40FEF50406BE31A81
:1014A00009FC03C5090081451149EF50406A03C595
:1014B000040085457D19EF50806903C5040081450E
:1014C0001379F90FEF50A068E31309FE114903C522
:1014D0000900937504087D19EF50606703C5040087
:1014E00085450604EF50A06603C5040081451379C5
:1014F000F90F1374F40FEF508065E31A09FC03C56C
:10150000090081451144EF50806403C504008545FE
:101510007D14EF50C06303C5040081451374F40FBC
:10152000EF50E0627DF0624403C50900F240D2440E
:101530004249B249854505616F50606101114AC851
:1015400037090020130959084EC6AA890345090026
:1015500026CA8545B704002022CC06CE1544EF509C
:10156000005F9384440803C5040085457D14EF5053
:10157000005E03C5040081451374F40FEF50205D35
:101580007DF0034509008145EF50605C03C5040010
:101590008545EF50C05B03C504008145EF50205BDB
:1015A000034509008145EF50805A03C50400854575
:1015B000EF50E05903C504008145EF5040596244A3
:1015C000F240D24442494E85B2490561A5B5411168
:1015D00006C6ED3B2945292A130500038537294511
:1015E000012A13050003993F294519223145B937CE
:1015F0002945FD28054599372945DD2819453D3FF1
:1016000013054006F520130540030D3F2945CD2065
:10161000130560032537B24029454101D1A80111C6
:101620004AC837090020130959084EC6AA8903453C
:10163000090026CA8545B704002022CC06CE1544F1
:10164000EF50E0509384440803C5040085457D14A1
:10165000EF50E04F03C5040081451374F40FEF50C1
:10166000004F7DF0034509008145EF50404E03C512
:1016700004008545EF50A04D03C504008145EF509F
:10168000004D034509008545EF50604C03C504003B
:101690008545EF50C04B03C504008145EF50204BFA
:1016A0006244F240D24442494E85B24905616FF02E
:1016B0007FD88280635DA002411126C24AC006C65F
:1016C00022C42A89A544EF50A00EEF50C00F2A84EF
:1016D000EF50A0103355A402E3F9A4FE7D19E314E2
:1016E00009FEB24022449244024941018280828034
:1016F000635EA002411126C24AC006C622C42A89DE
:101700009304703EEF50C00AEF50E00B2A84EF5074
:10171000C00C3355A402E3F9A4FE7D19E31409FEBD
:10172000B240224492440249410182808280138760
:10173000418A1C4383A6818AA9071CC363D3D700AF
:101740008280411122C41384118A8345040003C599
:101750008188958F06C61CC3EF50603F8347040005
:1017600099C723000400B24022444101828085478A
:101770002300F400B2402244410182809387018912
:1017800094430D671307078B1386863E6364C70077
:1017900090C38280411122C41384C1888345040010
:1017A00003C5E1887977130777B3BA9606C68589AA
:1017B00094C3EF50C0391387F188834707008356DD
:1017C00004002D468507858293F7F70F2310D40078
:1017D0002300F7006394C70023850188B2402244A8
:1017E00041018280411106C67D579387C18698C307
:1017F000D8C323A20188A38C018823850188238173
:101800000186238C0188A3810186238B0188238292
:1018100001868546238DD1842380E186A3800186BD
:10182000238A0188EFF08F84B240A380018823814E
:101830000188410182802380018A2384A1888280DB
:1018400023A4A18A05472380E18A82802380018A1C
:1018500082808547A384A188238BF1885148A38681
:10186000018B1308C0032387018B23860184A38681
:10187000F18423870184A387F184A382B186238323
:10188000C186A383D1862384E186828083C7618950
:10189000B9CF1387C18A8347070083C6918885071C
:1018A00093F7F70F2300F70063E3D704411126C233
:1018B0009384718922C4038404009307400606C6FA
:1018C0003364F4028387D18A2300070023808400D5
:1018D0006351F40611CC8387E18A635FF406050443
:1018E00023808400B240224492444101828082805D
:1018F00083C5C18403C55186EF50602583C5D1845B
:1019000003C56186EF50A024038704008387E18A22
:101910006354F70483C5E18403C57186EF50202327
:1019200083C5F18403C58186EF50602203840400DF
:101930007DB703C551868145EF50602103C561869F
:101940008145EF50C020838704000387E18A63D577
:10195000E70069D03E8461B703C571868145EF50C9
:10196000001F03C581868145EF50601E038404007B
:10197000B2400504238084002244924441018280C5
:10198000A386A18A2387B18A2386C184A386D184B2
:101990002387E184A387F18482809387C1863E9563
:1019A0000547A38CE1882300B500828083C7918915
:1019B000D1C7411126C24AC09384C1899840138976
:1019C00041888327090022C405071384C18606C6FF
:1019D0003306F40098C09306A00F03450600630485
:1019E000D7029306F00F630AD5008A07938681A772
:1019F000B6979C438145630CF702B240224492445F
:101A00000249410182801307F00F631AE50223A007
:101A1000040085072147638FE7022320F900A2977E
:101A200003C507009307F00FE309F5FC8545224441
:101A3000B2409244024941016F5060118280814559
:101A4000EF50E0108327090023A0040021478507F9
:101A5000E395E7FC232009008147D1B70A05938766
:101A600081A7AA978CC3828086052387A18893E5E6
:101A700005602396B188A387018823A801880547BC
:101A800015452385E1886FF0BFC6011106CE22CC33
:101A900026CA4AC84EC6B28436892E84AA89EF4027
:101AA000502C93958400A295A2054E85CA95EF50BF
:101AB000C028EF40D02A6244F240D2444249B249A1
:101AC000294505616FF01FBF01114AC82E894EC616
:101AD00052C406CE22CC26CAAA89328AEF40702888
:101AE000630D0902B70400200144938404473307BF
:101AF0004401269783461700834707008345270044
:101B000013978600BA970D04A2074204BE954E852E
:101B10004184EF508022E34C24FDEF405024624486
:101B2000F240D2444249B249224A294505616FF048
:101B30007FB8411106C622C42A84EF409022814515
:101B40002285EF50C0006145EFF0DFB66145EFF050
:101B50007FB66145EFF01FB685452285EF40307FA7
:101B60001145EFF03FB581452285EF40707B65451B
:101B7000EFF05FB422858545EF40907A2244B24071
:101B800041016F40D01D411122C426C24AC006C681
:101B90002A89AE842144EF40D01C81454A85EF401C
:101BA000107BEF504017EF50001793F514004A8553
:101BB000EF40F0792545EFF0FFAF7D1485454A856C
:101BC0001374F40FEF40B0788580EF50C014EF50DD
:101BD0008014EF504014EF500014EF50C013EF503A
:101BE0008013EF50401355F82244B240924402490A
:101BF00041016F40D016411122C426C24AC006C618
:101C0000AA842144EF40F015014981452685EF4023
:101C10001074EF504010EF50001085452685EF40BE
:101C2000107381452685EF40B06F0545EFF09FA802
:101C30002685EF40F0768547135919006316F500A5
:101C4000136909F81379F90F1545EFF0BFA685451B
:101C50002685EF40F06C7D1405451374F40FEFF00A
:101C60007FA545F4EF40B00FB24022444A8592442C
:101C7000024941018280011122CC26CA4AC84EC6BF
:101C800006CE2A84A1440149854906091379F90F32
:101C90002285EF40F0706DDD1545EFF0BFA1228584
:101CA000EF401070630E3501FD1493F4F40FF1FC56
:101CB000F24062444A85D2444249B2490561828079
:101CC000136919002285EF40B06DE30D35FFE9BFC0
:101CD000411106C622C426C22A84EF4090088145DD
:101CE0002285EF40D0664945EFF09FA085452285CB
:101CF000EF40F0650D45EFF0FF9B81452285EF40F9
:101D0000306285442285EF40B069E30D95FE22855F
:101D1000EF4010696DDD85442285EF407068E30D6A
:101D200095FE2285EFF03FF5931485002285EFF0B4
:101D30009FF4AA942285EFF01FF4A204AA942285AE
:101D4000EFF07FF3A204AA942285EFF0DFF2EF40D8
:101D5000100122858545EF40B05CB24022442685C3
:101D600092444101828005472381E186238CA1842E
:101D7000828083C72186BDC7411122C41384318666
:101D80008347040006C695CF138741868347070023
:101D90009306800C850793F7F70F2300F70063F293
:101DA000F6029386118683C7060023000700850785
:101DB00093F7F70FA38C01842380F600114763612A
:101DC000F70803C58185EF40B05D9387A18503C700
:101DD000070085462380A7006307D700B24022444E
:101DE0004101828082807DF99387918583C50700B8
:101DF00093864186138615001376F60F03C80600F6
:101E0000A3800186238006002300E4002380C7000E
:101E1000E376B7FC1387C1851443BD45858263F51E
:101E20000501B7050080CD8E14C393062002E31789
:101E3000D6FA03572700238007002380E18679BF65
:101E40007D5723000400238006002380E18679B7B4
:101E500003C501868280011106CE22CC26CA2A84BF
:101E6000AE844AC84EC6EF40C06F85452285EF401C
:101E7000104E0545EFF01F84228581453164EF4007
:101E8000104D1304043511A011C42685EF405051A4
:101E90007D147DD91569EF40B011014485491309BE
:101EA00009E211A8EF4030122A84EF401013335496
:101EB000A402636789002685EF40904EE30435FF56
:101EC000EF40E069131544002A9406041305800CC2
:101ED0003355A402F2406244D2444249B2490561FA
:101EE000828079714ECE938941898387090006D615
:101EF00022D426D24AD052CC56CA5AC85EC662C430
:101F000066C26354F0080144814C138A81A9138985
:101F100001AF854A938B41AA138B81AD138C01AB22
:101F200009A88387090005041374F40FA28C635E6B
:101F3000F404B3079A0103C50700B3049901EF4005
:101F4000304603C70400B367A70093F7F70FB9CB78
:101F500069DBE31855FDB3879B0103C50700EF401C
:101F60003044B3079B0183C70700638D570599E38E
:101F700063055507CA9C23800C008387090005046C
:101F80001374F40FA28CE346F4FAB2502254925424
:101F90000259F249624AD24A424BB24B224C924C0D
:101FA00045618280938741AAE69703C50700EF4009
:101FB000303F938781ADBE9C85472380AC00238052
:101FC000F400E1B745F993972C00E2979843CA9C37
:101FD00023800C00050798C34DB793972C00E29718
:101FE0009843CA9C23800C007D1798C379B713834C
:101FF000418983070300138601AB139727003A96A4
:10200000938881A9138841AA938601AF138781AD74
:10201000054EBE983E98BE963E97938E170023803D
:10202000A8002300B800232006002380C601230057
:10203000C7012300D3013E8582800A05938701AB47
:10204000AA97884382802392A18423A0B184B707F2
:10205000002023ACC708B707002023A8D70823A473
:10206000E184B72700089387872223AAF184B72742
:1020700000089387272423A8F1848280B7070020D3
:10208000238EA708B7070020A38EB708B707002044
:10209000238FC7088280B707002023AAA708828061
:1020A000B707002023A6A7088280B707002023A433
:1020B000A708828063450510B707002083A787091A
:1020C000635FF50E63CD050E370700200327070970
:1020D00063D7E50EB706002083C6D60981C6FD1773
:1020E0003385A740B707002083C7E70981C77D175D
:1020F000B305B740B707002083C7C70981C7AA87C0
:102100002E85BE85B707002083A8470985476389C8
:10211000F80A6356100B83DF818403A3018403CE86
:102120005189370800201308084793D7F801C6974C
:102130008587B307F040B38EA700014F3385B70002
:1021400085421316050141820D823386CF02931713
:102150008501E18793D5F74113D7D501B385E70012
:102160009D89998DB395B200E2054206E1854182D1
:1021700093C3F5FF8146769611A84D8F1377F70F1D
:10218000C2972380E700850663F71603B307D600DE
:10219000C207C1839A973307F80003070700E31EBD
:1021A0000EFC33F7E3001377F70FC2972380E700A5
:1021B0008506E3ED16FD050F0505E3641FF9828032
:1021C00083DF818493970501C1838D83B387FF02E9
:1021D0001397850161879356F741F58203A3018424
:1021E00036971D8BAA97C207158F37080020C18329
:1021F00003CE51899A97130808473397E800B3062E
:10220000F8006207618783860600631B0E00134790
:10221000F7FF758F1377F70FC2972380E70031B769
:10222000558F1377F70FCDBFB707002083A7C708D7
:1022300063C80700B337F000A38AF1886FF09FE707
:102240008280B707002083A7870863C80700B337D9
:10225000F000A38AF1886FF0FFE5828005476342B2
:102260000506B707002083A787090547635BF504C8
:1022700063C90504B707002083A7070963D3F504E2
:1022800003A7818493970501C1838D83B387E702F8
:1022900003A60184E205E1853707002093D6F541C6
:1022A00013070747F582B695AA97C207C183B2976D
:1022B000BA9703C707009D89958DB355B74013F7AB
:1022C00015003A858280839641846356D00203A725
:1022D0000184B707002093870747FD163E97C20683
:1022E00093071700C182BE9611A085072300A7009F
:1022F0003E87E39CD7FE8280939705015971C18385
:10230000D2CCD6CA3ED4B70AFF002A8A138547002A
:10231000890786D6A2D4A6D2CAD0CECEDAC8DEC667
:10232000E2C4E6C2EAC06EDEB3FA550132D63ECC54
:1023300063960A186247B7070020938707473E95C0
:10234000BA97834B050083C7070093DB3B003ED061
:1023500093970601C1873ED2825702CEB5CF62471E
:10236000B70D002093870D473EC8BA973ECAB257B3
:102370000359C101925D81443304F900A25742041C
:102380004184A5073EC663810B04B2473305F900BB
:1023900063990A0AC2473E95834C050063080A0AFE
:1023A00085476303FA0E89466309DA0463970A08CE
:1023B000D24703C5070085042A99C2044209C18097
:1023C00013590901E39374FDF247025785073ECE86
:1023D00093F7F70FE3EDE7F88149B65026544E85A1
:1023E00096540659F649664AD64A464BB64B264C91
:1023F000964C064DF25D6561828013868D00131D3B
:102400000601135D0D0193F91C00EE85228563859D
:102410000900EFF0BFE471F193871D009396070167
:10242000C18213D71C00939D0601937CF70F93DDA7
:102430000D41E31ADDFCE38D0AF66245EF4090039F
:102440009DBFEF403003AA8CE31C0AF493898D00F2
:10245000C20993D9094105A083A641858296938735
:102460001D00939D070113D71C0093DD0D41937C44
:10247000F70FE38D3DF393F61C00EE852285E9FE10
:1024800083A601858296E1BF93898D00C20993D905
:10249000094193F61C00EE85228581C683A601853D
:1024A000829693871D00939D070113D71C0093DD2F
:1024B0000D41937CF70FE39EB9FDCDBD36C6EF40CD
:1024C000607B935B3500624593FBFB0FEF40807AA6
:1024D0002AD0B246B5BD5D7166D2939C050193DCEE
:1024E0000C012AC213853C0086C632C63AC4A2C477
:1024F0005ED6368462D4A6C2CAC04EDE52DC56DA3C
:102500005AD86AD06ECEEF40E0762A8C13852C0024
:10251000EF404076220C2A9C13854C00EF408075DA
:10252000420C935B350093777500135C0C0193FBB1
:10253000FB0FF1EF69CD924702C0635BF00AA2473F
:10254000A50C3389A700B2470247A24D014AB389BF
:10255000E700C20993D9090163800B08338599010B
:1025600093848D00EF400071C2042A8DC1802DA09C
:1025700083A64185829693871D0093960701C182A9
:10258000939D060113571D0093DD0D41137DF70F39
:1025900063DB2D036389D40293761D00EE852285CB
:1025A000E1FA83A60185829693871D009396070121
:1025B000C182939D060113571D0093DD0D41137DCC
:1025C000F70FE3C92DFD050AE299C209137AFA0F44
:1025D00093D90901E3944BF9824712470504138DFF
:1025E00017009377FD0F42043EC04184E3CDE7F42A
:1025F000B640264496440649F259625AD25A425B82
:10260000B25B225C925C025DF24D61618280850B5F
:1026100093FBFB0F0DB7838611881387C1879387C0
:1026200041873697B6972300A7002380B7008280A2
:10263000011156C4938A1188038E0A00938341A620
:1026400013132E0022CE26CC4ACA4EC852C65AC2F6
:102650009A9323A0F30082571384419C1A94138AFF
:1026600001A59389819D1389C19E9384C1A39382FF
:1026700001A0938F81A2138F41A1131B1E001A9AF0
:102680009A991A999A9418C09A929A9F72447A9336
:10269000938E41AEDA9E2320F300050E05472320DA
:1026A000AA0023A0B9002320C90094C02380CA0136
:1026B00023A0020123A01F0123900E002381E188A3
:1026C000E2445249C249324AA24A124B0561828011
:1026D0001D71A2CC62DC13142500138CC19E33073C
:1026E0008C001843A6CAB70400209384044786CE02
:1026F000CAC8CEC6D2C4D6C2DAC05EDE66DA6AD82E
:102700006ED62697834D070063910D02F64066440E
:10271000D6444649B649264A964A064BF25B625C65
:10272000D25C425DB25D256182801387C1A322978E
:102730009389819D3386890018432A8903550600B1
:102740002697834C0700138A01A5D12133078A00FD
:102750002ACA03550700938A01A055291387419C73
:102760002ACE229733858A00832807001841138DCB
:1027700041A6938581A233088D0033858500269775
:1027800003280800A6988347070083C8080003555C
:102790000500269846C63ECC834B0800B921138716
:1027A00041A122972A8803550700131B080142C83C
:1027B0002D29B248135B0B41938581A263880804DD
:1027C0004248638D0B1242054185634AAB144208AF
:1027D00013580801814B639F0C00E24781CF0547E6
:1027E000635A67017D18420813580801131B08013A
:1027F000135B0B41138741AE931819003305170182
:10280000035305001A982310050121A8138741AE30
:102810009318190033081701035308001A95231061
:10282000A800A29503D50500DA8546C83AC6B52E9C
:10283000229D3247C24883250D004697A695031571
:1028400007002380750189659385F570E3D0A5ECB9
:10285000F9759385058F2E952310A70063930C04BB
:10286000F2476358F00A229A03550A00138AF7FFC9
:10287000D285812EE24795E7330B6B0395679387EB
:1028800007E2334BFB02635E6A0103270D00A29A45
:1028900083A70A00269723000700BE94854723805C
:1028A000F4009387C187CA97054703C50700638B68
:1028B000ED048545EF40A029D2479385F7FF4E945C
:1028C00003550400FD2C138541872A99034509000F
:1028D0008545EF40C027664403450900F640D644CD
:1028E0004649B649264A964A064BF25B625CD25C80
:1028F000425DB25D814525616F40602542081358F5
:102900000801D1BD8145EF408024D247938517004F
:102910007DB762941C40BE9423800400C5BB0508AB
:10292000420813580801131B0801135B0B4165B5DE
:10293000411126C2938411888387040006C622C4ED
:10294000635DF00001442285EFF09FD80504838782
:10295000040062046184E348F4FEB24022449244DD
:1029600041018280411106C6EFF04F8483C7018A7E
:1029700099C3EFE0DFDB83C7A18899C3EFE01FE0D5
:102980001387818983470700A546850793F7F70FCB
:1029900063E7F6002300F700B24041018280230084
:1029A0000700EFE0BFEEEFF0CFBCEFF08FD383C7AF
:1029B0002188FDD3B24041016FF09FF703A7419BEF
:1029C00023AE018E2393018E2393019023940190D3
:1029D000239A018E239B018E239C018E23A6018EB8
:1029E0009306F7FF23A8018E2395D1902380018CB5
:1029F0002384018C239D018A2391018C23AE018ABB
:102A000023A2018C238E018C2382018E239A018CB8
:102A1000239F018C23AC018C23A0018E23A8018A63
:102A200023A6018C23AA018A23A8018C2384018E6A
:102A300023A001902388019219CBB7070020938728
:102A400007473E97238007008507E39DE7FE238C19
:102A5000018A238D018EA38D018E82809387A18FA1
:102A600003C6070083C607001387C1AF850693F628
:102A7000F60F2380D70083C6070032972300A700F4
:102A800051476303D7008280238007008280238C14
:102A9000018A82809387B18F83C6070003C7A18F05
:102AA0001377F70F630FD706138EA19083C6070025
:102AB00003570E0003C807001383C18F9388C1AF6B
:102AC00003260300B6981305F7FFB7060020050894
:102AD000938506471378F80F9306E7FF83C808002D
:102AE0004205B30EB700418123800701C20623804F
:102AF000CE002E95935E86007517C18203C807002D
:102B0000AE962300D5014182939528002310EE0054
:102B10002384018E2380C6002320B3005147630322
:102B200007018280238007008280411126C2AA8487
:102B3000050506C622C4EF40E013131405014180C9
:102B4000220426854204EF40E01241802295B240E3
:102B5000224442059244418141018280411126C2B2
:102B6000AA840D0506C622C4EF40C01013148500C8
:102B700013852400EF4000102A9413851400EF40C1
:102B8000600F22042A942685EF40C00E220422956D
:102B9000B2402244924441018280B70700209387CB
:102BA00007473E95034505008280B70700209387BD
:102BB00007473E9593D785002300B500A300F50095
:102BC0008280B7070020938707473E9593D68500FC
:102BD00013D7050193D785012300B500A300D500C5
:102BE0002301E500A301F5008280B7070020938749
:102BF00007473E958347150003450500A2073E950C
:102C00009317050163D40700C1775D8D8280B707F4
:102C10000020938707473E958346350003472500EC
:102C200083471500A2063697220703450500BA9789
:102C3000A2073E9582809357850093F7F70F0547CB
:102C40001375F50F638EE70085CB0D476382E702AE
:102C50001147638BE7008545130530056F306071C0
:102C600093F5F50F6F30B06E93F5F50F6F3030764A
:102C700093F5F50F6F30906D93F5F50F6F30506A47
:102C800093578500411106C693F7F70F094713754F
:102C9000F50F638FE7001147638AE70205476380FA
:102CA000E702B24085451305300541016F30606C85
:102CB000EF30106FB24023A8A18A41018280EF302B
:102CC000506BB24023A8A18A41018280EF3070721C
:102CD000B24023A8A18A41018280B94763EEA720B0
:102CE000370700089317250013070724BA979C435A
:102CF00082876FD0FFB783D7618EB7050020938599
:102D000005473386B7000345360083462600034750
:102D1000160022059107AA96C207A206C1830346A0
:102D200006003697AE9783C6070093178700B297C1
:102D300023A6F19023ACD1924547638CE71C828097
:102D400083D7618E3707002013070747BA9703C65A
:102D5000370083C6270003C717002206B296A206D3
:102D600003C60700B307D700A207B2973E8523A684
:102D7000F1906F30407103D7618EB70700209386C2
:102D8000074793074700C207C1833697B6970345A5
:102D9000370083C537008348270003C82700220572
:102DA000A20583C6170003461700AA982E9803456C
:102DB000070083C50700A2082208B387060133076E
:102DC00016012207A2072A97AE973A8523AAE19215
:102DD000BE8523ACF1926FF01FE683D7618E370773
:102DE000002013070747BA9703C6370083C627009A
:102DF00003C717002206B296A20603C60700B30750
:102E0000D700A207B2973E8523AAF1926FF05FE741
:102E100083D7618E3707002013070747BA9703C788
:102E2000070023AAE192828083D7618E37070020B2
:102E300013070747BA9783C707003E8523AAF19275
:102E40006FE05F8783D7618E37070020130707473E
:102E5000138647009386A70042064182C206B385C7
:102E6000E7003A96C182A107BA96834F3600C2079F
:102E700083C2350003CF3600034E2600C183BA97C4
:102E800083CE250003C32600A20F8348160003C784
:102E9000170003C8160003C51500220F7E9EA2026C
:102EA00083CF07007A93969E03CF0500220E8345B9
:102EB0000600220383C606003386C80193178700E5
:102EC000A20E3307680022067695FE973388C50068
:102ED00022052207C207C1832A9F3697C28523ACE9
:102EE00001933E8623AEF192BA867A8523AAE193B6
:102EF00023A0E1946FD0BF9741119375F50F13058F
:102F0000200506C6EF30E046B240A3870196410196
:102F100082802388D192828085476300F504630212
:102F2000051A011106CE22CC26CA4AC84EC652C482
:102F300056C28947630AF50E8D476304F50462445F
:102F4000F240D2444249B249224A924A9375F50F5F
:102F50001305200505616F30C04183D7618E3707A7
:102F6000002013070747BA9783C707001397870105
:102F70006187634E071A23A6F1902382E1906FD0F8
:102F80005FB203D7618E3709002013090947B307E1
:102F9000E90083C6170083C70700A206B697939679
:102FA000070163D40600C176D58F93062700C206B9
:102FB000C182CA9603C6160083C606002206B296D0
:102FC00023A6F19013960601635406004176D18E34
:102FD000110742074183038641903A99034709004C
:102FE000938707FB13840191B29613F5F70F93842F
:102FF000419314C098C0EFD09FA308403D89EFD003
:103000001FA303450400118113650501EFD03FA202
:10301000624403C50400F240D2444249B249224A04
:10302000924A05616FD03FC083D7618E3709002077
:1030300013090947CA9703C6370083C6270003C789
:1030400017002206B296A20603C60700B307D700F0
:10305000A207B29793840708C20423AAF192C18001
:103060009309000B138A4190930A800B4E85EFD091
:103070001F9C03450A00138404F84204EFD03F9BD1
:1030800041454180EFD0BF9AB307890003C50700CF
:10309000050442044180EFD01FB9E39784FE8509FF
:1030A00093840408C20493F9F90FC180E39059FD99
:1030B000F2406244D2444249B249224A924A0561EE
:1030C000828083D7618E3707002013070747138557
:1030D0001700938527004205138637009386470023
:1030E0004181BA97C20503CE07003A95C1814206D5
:1030F000C20603430500BA95C182418283C8050018
:103100003A9636970348060083470700728523AA3C
:10311000C1939A8523AC6192468623AE1193C286F1
:1031200023A001953E8723A2F1946FD0BF8D93E732
:1031300007F01397870161873DBD8547630DF50053
:103140006304050E8947630CF5029375F50F1305AB
:1031500020056F30002283D7618E370700201307C8
:103160000747BA9783C707001397870161876345AD
:10317000070E23A6F190A384E18E6FD03FB4011116
:1031800083D7618E4AC8370900201309094726CA28
:103190004EC652C456C2CA9706CE22CC03C63700CA
:1031A00083C6270003C717002206B296A20603C6ED
:1031B0000700B307D700A207B29793840708C20499
:1031C00023AAF192C1809309000B138A918E930A6E
:1031D000800B4E85EFD09FAC03450A00138404F8A2
:1031E0004204EFD0BFAB41454180EFD03FABB307C6
:1031F000890003C50700050442044180EFD07FB673
:10320000E39784FE850993840408C20493F9F90FB7
:10321000C180E39059FDF2406244D2444249B24930
:10322000224A924A0561828003D7618EB707002047
:103230009386074793071700C207C1833697B6974F
:103240000347070083C707003A8523AAE192BE859A
:1032500023ACF1926FD07FA493E707F01397870117
:10326000618723A6F190A384E18E6FD03FA58547A7
:10327000630DF500630305108947630CF502937530
:10328000F50F130520056F30C00E83D7618E370709
:10329000002013070747BA9783C7070013978701D2
:1032A0006187634E071023A6F190A382E1906FE03F
:1032B0000FB2011183D7618E4AC837090020130964
:1032C000094722CC26CA4EC652C4CA9706CE03C6A8
:1032D000370083C6270003C717002206B296A2064E
:1032E00003C60700B307D700A20741649384419344
:1032F000B2979CC0930904FC130A04FE13050AFA52
:103300001375F50F13040A3EEFE04FA342041305B3
:1033100000084180EFE08FA29C40A297CA9703C5A6
:103320000700130404FC42044180EFE04FAFE315B3
:1033300034FF13040A40420441809C40A297CA977C
:1033400003C50700130404FC42044180EFE02FADE5
:10335000E31544FF05048509131A0401C209135A31
:103360000A0193D90901E31B0AF8F2406244D244EE
:103370004249B249224A0561828083D6618EB707ED
:1033800000201386074713871600938726004207FD
:10339000C207B2964183C18383C606003297B297B3
:1033A0000347070083C70700368523AAD192BA8551
:1033B00023ACE1923E8623AEF1926FD09FFF93E75C
:1033C00007F013978701618723A6F190A382E1900C
:1033D0006FE0EF9F994763ECA722B70500080A0545
:1033E0009385C5272E951C41828703D7618EB7062A
:1033F0000020938606473306D70083471600090747
:1034000003460600420741833697A2070347070099
:10341000B297C207C1833E8523AAF192BA8523AC35
:10342000E1926FD05F9803D7618EB7060020938634
:1034300006473306D70083471600090703460600F0
:10344000420741833697A20703470700B297C20796
:10345000C1833E8523AAF192BA8523ACE1926FD055
:10346000BF9583D7618E37070020130707479385E1
:1034700017001386270093863700C205BA97C181CB
:103480004206C206BA9503C30700C18241823A963A
:1034900083C805003697834707000348060023AA20
:1034A000619223AC119323AE0193BE864286C685FA
:1034B0001A8523A0F1946FD0FF8C03D7618EB707D4
:1034C00000209386074793074700C207C1833697BA
:1034D000B6970345370083C537008348270003C8E4
:1034E00027002205A20583C6170003461700AA98E5
:1034F0002E980345070083C50700A2082208B3875A
:103500000601330716012207A2072A97AE973A85CC
:1035100023A6E190BE8523A8F1906FD0DF9003D75A
:10352000618EB70700209386074793074700C207BD
:10353000C1833697B6970345370083C53700834864
:10354000270003C827002205A20583C617000346EB
:103550001700AA982E980345070083C50700A20804
:103560002208B3870601330716012207A2072A970C
:10357000AE973A8523A6E190BE8523A8F1906FD03F
:103580005FD903D7618EB70700209386074793075B
:103590004700C207C1833697B6970345370083C5F6
:1035A00037008348270003C827002205A20583C6E9
:1035B000170003461700AA982E980345070083C5F5
:1035C0000700A2082208B387060133071601220765
:1035D000A2072A97AE973A8523A6E190BE8523A835
:1035E000F1906FD01FD803D7618EB7070020938763
:1035F00007473E978347170003470700A207BA977C
:10360000C207C1833E8523AAF1926FD0DFC89375AC
:10361000F50F130520056F20D0558547630CF50085
:1036200039C589476303F5049375F50F1305200524
:103630006F20305483D7618E370700201307074768
:10364000BA9703C6370083C6270003C717002206B0
:10365000B296A20603C60700B307D700A207B29727
:103660003E8523A6F1906FE0AF9D6FE02F9E83D73C
:10367000618E3707002013070747BA9783C70700F3
:103680003E8523AAF1926FE00F9B11C98547630D18
:10369000F5089375F50F130520056F20904D83D71E
:1036A000618E37070020130707473385E700034380
:1036B00035000346250093884700138857009385FB
:1036C00067009D078346150022034208C2071A9629
:1036D000C20813580801C1833A98BA9722060345D5
:1036E000050093D80801BA9803430800C20503C82F
:1036F0000700B387C60003CE0800C181A207BA95B0
:10370000AA9783C805003E8523A6F19023AAC193FA
:1037100023AC619223AE11934287C6861A86F28546
:1037200023A001956FE0EF9283D7618E37070020C9
:10373000130707471388170013852700420893854E
:103740003700138647009386570013580801BA972D
:10375000420503CF07003A984181C205834E080015
:103760003A95C1814206C206034E0500BA95C18250
:10377000418203C305003A9613158F01369723AA99
:10378000E193834806000348070093958E0123AC1C
:10379000D193728623AEC1939A8623A06194468703
:1037A00023A21195C287E185618523A401956FE06D
:1037B0002F9D11C985476300F5049375F50F130517
:1037C00020056F20103B03D7618EB707002093863A
:1037D000074793071700C207C1833697B697034779
:1037E000070083C707003A8523AAE192BE8523AC70
:1037F000F1926FE08F9A03D6618EB7050020938512
:10380000054793071600C207C183AE9703C537006B
:1038100083C6270003C717002205AA96B295A20601
:1038200003C6070003C80500B307D700A207B29775
:1038300023AA0193BE85428523A6F1906FE00FA2D3
:1038400039ED83D5618E370600201305064793872F
:103850001500C207C183AA9703C8370083C6270093
:10386000138655004206220803C717004182AA9515
:103870002A96C29683C8050003480600A20603C61E
:103880000700B307D700A207B29723AA119323A674
:10389000F190C285468523AC01936FE0EF9C937550
:1038A000F50F130520056F20D02C29ED83D7618EED
:1038B0003707002013070747938517001386270053
:1038C00093863700C205BA97C1814206C206BA95EF
:1038D00003C30700C18241823A9683C80500369728
:1038E000834707000348060023AA619223AC119383
:1038F00023AE0193BE864286C6851A8523A0F19425
:103900006FE0AF989375F50F130520056F207026B3
:103910003DE503D5618E37080020130808471307DB
:10392000350042079306150041834297C20683483B
:103930003700C182C2960346270083C7160083451D
:10394000170003C30600A208B306160142950346FA
:103950000700A20603480500A2073387D5009A97FF
:103960002207C207C183329723AA0193BE8523ACE5
:10397000F1923A86428523AEE1926FE0EF9493751F
:10398000F50F130520056F20D01E8547630CF50049
:1039900025CD89476300F5049375F50F13052005C0
:1039A0006F20301D03D7618EB7070020938607472D
:1039B00093071700C207C1833697B69703470700DE
:1039C00083C707003A8523AAE192BE8523ACF19212
:1039D0006FE06F9B83D7618E37070020130707477F
:1039E0004111BA9706C603C5070013178501618701
:1039F000AA876349070223AAF192EFE0CF9FB24062
:103A000023A8A18A4101828083D7618E37070020D5
:103A100013070747BA9783C707003E8523AAF19289
:103A20006FE02F91936705F013F5F70FE9B715E5F0
:103A300083D7618E3707002041111307074706C659
:103A4000BA9783C707003E8523AAF192EFE04FA8FB
:103A5000B24023A8A18A410182809375F50F130516
:103A600020056F20101111C985476306F502937573
:103A7000F50F130520056F20D00F83D7618E370710
:103A8000002013070747BA9783C707003E8523AA7C
:103A9000F1926FE04FAD411106C6EFE06FBBB2404F
:103AA00023A8A18A4101828021E103D7618EB70753
:103AB00000209386074793071700C2074111C1836F
:103AC00006C63697B6970347070083C707003A85AF
:103AD000BE8523AAE19223ACF192EFE0CFB7B240CA
:103AE00023A8A18A410182809375F50F1305200553
:103AF0006F203008411106C601CD85476307F504E4
:103B0000B2409375F50F1305200541016F20700633
:103B100003D7618EB70700209386074793071700E6
:103B2000C207C1833697B6970347070083C70700CC
:103B30003A85BE8523AAE19223ACF192EFE02FCB28
:103B4000B24023A8A18A4101828083D7618E3707C2
:103B5000002013070747BA9783C70700139587010B
:103B60006185634B050023A6F190EFE00FCD23A8FC
:103B7000A18AB2404101828093E707F01395870143
:103B8000618523A6F190EFE04FCB23A8A18AD5B79A
:103B9000A14763E6A738B70500080A05938585297C
:103BA0002E951C41828703D7618EB707002093862C
:103BB000074793074700C2074111C18306C63697DE
:103BC000B6970345370083C537008348270003C8ED
:103BD000270083C61700220503461700A205AA98EE
:103BE0002E980345070083C50700A2082208B38763
:103BF0000601330716012207A207AE972A97BE8552
:103C00003A8523A6E19023A8F190EFE02FE5B2409A
:103C100023A8A18A4101828083D7618E37070020C3
:103C200013070747BA9783C707003E8523AAF19277
:103C30006FE06FE903D7618EB707002093870747CE
:103C4000B386E70003C5160083C606002205369535
:103C50009316050163D40600C176558D93052700A0
:103C6000130667009306A700C205C1814206C2067B
:103C7000BE954182C1823E96BE9683C33500034FF6
:103C8000360083CE360003CE250083C826000343CA
:103C900026003907A20303C815004207220FA20E0F
:103CA00041831E9E83421600BA977A933387D801C8
:103CB00083CF160083CE0500220E9318830083C3A2
:103CC000170003430600B305C801220703CF06000F
:103CD0003386120183C70700A205B386EF002206D0
:103CE000F69523A6A19013978300A2061A9623ACFB
:103CF000B192FA9623AAC190BA9723ACD1901397A8
:103D00000701635407004177D98F139707014205D4
:103D10004187418523AEF1906FE0EFB283D6618E8B
:103D2000B707002093870747138716003386E700FD
:103D300003460600B385D70003C805002206329863
:103D4000131608016355060041763368C8008906DA
:103D50004207C206C18241833E97B69703433700AC
:103D600083C837000345270083C527002203034685
:103D70001700A20883C617001A95C69522050343AB
:103D80000700A20583C807003307A600B387B60063
:103D90002207A2071A97C69723AA01939375F70FD4
:103DA00023ACE19213F6F70F1375F80F23AEF192DF
:103DB0006FE0CFAC83D7618E37070020130707472A
:103DC000BA9703C6370083C6270003C71700220629
:103DD000B296A20603C60700B307D700A207B297A0
:103DE0003E8523A6F1906FE00FAB83D7618E370736
:103DF000002013070747BA9703C6370083C627007A
:103E000003C717002206B296A20603C60700B3072F
:103E1000D700A207B2973E8523A6F1906FE04FA886
:103E200083D7618E3707002013070747BA9703C669
:103E3000370083C6270003C717002206B296A206E2
:103E400003C60700B307D700A207B2973E8523A693
:103E5000F1906FE08FA503D7618EB707002093869E
:103E6000074793074700C207C1833697B6970345B4
:103E7000370083C537008348270003C82700220581
:103E8000A20583C6170003461700AA982E9803457B
:103E9000070083C50700A2082208B387060133077D
:103EA00016012207A2072A97AE973A8523A6E1902A
:103EB000BE8523A8F1906FE02FB703D7618EB707B7
:103EC00000209386074793074700C207C1833697B0
:103ED000B6970345370083C537008348270003C8DA
:103EE00027002205A20583C6170003461700AA98DB
:103EF0002E980345070083C50700A2082208B38750
:103F00000601330716012207A2072A97AE973A85C2
:103F100023A6E190BE8523A8F1906FE08FB2937540
:103F2000F50F130520056F20C04485476308F50091
:103F30009375F50F130520056F20A04303D6618EFE
:103F4000B70500204111930616001307560093078A
:103F50009600C2064207C20793850547C182418386
:103F6000C18306C6AE962E97AE9783C23600834FA6
:103F7000370003CF370083CE2600034E270003C34C
:103F8000270083C816000348170003C51700A202C4
:103F9000A20F220F969E7E9E7A932E9603CF060046
:103FA00093958E0083C60700834E0700220E2203DE
:103FB000834F06003307C801B3076500C695A20505
:103FC0002207A2077697B6972E9FBE863A8623AA27
:103FD000F19323A6E190FA857E8523A8F19023AC86
:103FE000E193EFE06FB1B24023A8A18A4101828042
:103FF0008547631EF50C03D7618EB70700209387B2
:104000000747B386E70003CE060013158E016185CE
:104010006349050A93061700C206C182BE9693053E
:10402000570083CE3600C20503C32600C1811308A2
:104030007700BE95420883C81600A20E03C615007D
:10404000135808013E98769303CF0500834E18005D
:104050009315830003C30600C69583460800220615
:10406000A2057A9613988E009A95420623A6C191CE
:10407000418223AAB192C29623ACC1921398060141
:10408000635508004178B3E60601250742074183DE
:104090003E97034817008347070013178800BA9715
:1040A00023A8D19013970701635407004177D98F54
:1040B00013970701C2064187C18623AAF1906FE0DA
:1040C0008FC1136E0EF013158E016185A1B7937524
:1040D000F50F130520056F20C0298547630CF500F7
:1040E00059CD89476301F5069375F50F1305200532
:1040F0006F20202803D7618EB707002093870747DA
:10410000B386E70003C80600131588016185634A7A
:104110000512050742074183BA9703C6370083C6D5
:10412000270003C717002206B296A20603C607009F
:10413000B307D700A207B29723A60191BE8523A893
:10414000F1906F20E05403D7618EB707002093876A
:104150000747B386E70083C606001395860161858D
:10416000634B050C050742074183BA9783C70700D5
:1041700023A6D190BE8523ACF1926F20605203D765
:10418000618EB707002093870747B386E70003C314
:10419000060013158301618563490508130617009E
:1041A000420641823E960348360083482600930625
:1041B0005700C206220883451600C182BE96C298E7
:1041C00003460600A20803CE160003C80600C695E3
:1041D000A205B29593168E0023A66190369823AC63
:1041E000B1929316080163D50600C1763368D800F2
:1041F0001D0742074183BA9783C6370003C62700CD
:1042000003C71700A2063696220683C60700B30727
:10421000C700A207B6971316080123AA0191BE860C
:10422000418623ACF1906F200045136303F0131512
:1042300083016185A5B793E606F013958601618534
:1042400015B7136808F0131588016185D9B511C930
:1042500085476300F5049375F50F130520056F205E
:10426000401103D7618EB707002093860747930755
:104270001700C207C1833697B6970347070083C765
:1042800007003A8523AAE192BE8523ACF1926FE044
:104290008FB883D8618E370300205D71130E0347FA
:1042A000B3071E0186C6A2C4A6C2CAC04EDE52DC37
:1042B00056DA5AD85ED662D466D26AD06ECE03C5BC
:1042C000070093178501E18763CA071813868800E2
:1042D000938548009386C800138388014206938E15
:1042E0004801C2054182C20642037296C181C18261
:1042F000C20E13530301F2967293F295834A36006D
:10430000138F080193DE0E01F29E83443300034DA8
:10431000260003CB350003CA3600420F83CD2500AB
:1043200083CC2600834B230083C33E00135F0F0121
:10433000729F03C92E0083401600A20A83CF160085
:1043400083493F0003C4150003481300939284007F
:10435000EA9A220B220A034C2F00B3845B00669A70
:10436000A2036E9B03460600A20A83420F00D6906A
:1043700003471F0083C71E0003CF0E001E99834E04
:10438000030083C306001393840083C50500220B3A
:1043900093168A005A94FE961A98938FC801138335
:1043A0000802A209939880004696E2992204A295F9
:1043B00023AAA192A20923ACB19222094E97A20688
:1043C0009E9623AEC192CA972207169723A0D19436
:1043D000A207C20F4203FA9723A2E194220893DFB7
:1043E0000F0113530301F29F7293769823A4F19463
:1043F00083C33F0023A6019503CF2F0083423300E0
:10440000834E230083C81F00034E1300A203A202A1
:104410001E9F969E220F83C20F00A20E834F0300A1
:10442000FA983303DE01A2082203C6927E931AC0D3
:10443000968823A8519423AA6194EFE06F9FB64019
:10444000264496440649F259625AD25A425BB25BFC
:10445000225C925C025DF24D61618280136505F021
:10446000B5B59357850051471375F50F6364F7068B
:10447000370700088A071307C72BBA979C43828720
:104480006FF0BFC56FF0DFB66FF03FAA6FF04FF06F
:104490006FF04FE66FF04FE16FF0EFDC6FF02FD968
:1044A0006FF0AFCE6FF0CFC66FF02FC06FF04FB987
:1044B0006FF02FB06FF06F9D6FF02F966FE09FF150
:1044C0006FE0FFDA6FE07FC76FE01FA56FE0FF804E
:1044D0006FF0FFD74111AA851305200506C6EF101E
:1044E0005069B240A387019641018280011126CA1A
:1044F0009384C18F88404AC8914713890190232033
:10450000F90006CE22CC4EC652C456C25AC0EF2085
:1045100060779375F50F9307B00E63F4B7006F10D3
:10452000F01B370700089397250013070731BA9748
:104530009C431354850082879387018B984303A67D
:10454000C18C804083260900118F98C3369480C0A7
:10455000F2406244D2444249B249224A924A024B52
:10456000056182809387018B984303A6C18C8040AC
:1045700083260900329798C33694D1BF03A6018BD6
:10458000944003270900B7070020938707473E940C
:104590002300C4003384E6005DBFB7070020938783
:1045A00007473E948346040083270900804023A6E2
:1045B000D18C3E9469BFB7070020938707473E948C
:1045C0008346040083270900804023A8D18A3E94B3
:1045D000BDBF1387018B1C43904083260900B3D7CE
:1045E0008740858B1CC33304D60095B79387018B16
:1045F00098438040832609003307E04098C33694EF
:10460000B9B79387018B83C6070080400327090051
:1046100094C33A942DBF9387018B984303A6C18C12
:104620008040832609003307C702369498C305B734
:104630009387018B83D6070080400327090094C32A
:104640003A9431B788401105EF20C063804023A819
:10465000A18AA1472320F9002104D5BD1387018B2E
:104660001C43904083260900B3D7874093F7F70F88
:104670001CC33304D600E1BD88401105EF208060E3
:10468000804023A6A18CA1472320F9002104C1B5B5
:10469000EF10F06C05472384E18E9385A19083D7BA
:1046A0000500370700201307074713861700938676
:1046B000270042064182C2063A96C1828D07BA9609
:1046C00003460600C207C18383C606003E97034423
:1046D000070022063387C60022072390F5003A948C
:1046E00023200900ADB59387018B83A6C18C984325
:1046F0008040032609003357D70223A8D18C329477
:1047000023AAE18A98C3A1B59386018B9C4203A694
:10471000C18C41677D17798EF98FB3D7C70280406E
:104720008325090023A8C18C2E9413960701418686
:10473000718F23AAF18A98C219BD83D7618E37077A
:10474000002013070747A297BA9783C60700804047
:104750008327090023A8D18A3E94D5BB9387018B78
:104760009843804003260900937607083294E3803B
:1047700006DE136707F098C3D9BB83D7618E37076E
:10478000002013070747A297C207C183BA9703C740
:10479000170083C60700804093178700B69703274A
:1047A0000900C207C18323A8F18A3A944DB303A735
:1047B000C18C138A018B8547B397870083260A0033
:1047C00019C36F10C07493C7F7FFF58FC207C18379
:1047D00080400327090023AAF18A2320FA003A9493
:1047E000BDB303A7018B8C40931704010326090076
:1047F000B706002093860647C183B69713588700F3
:1048000013550701935687012380E700A380070112
:104810002381A700A381D7003384C5000DBB931764
:1048200004013707002013070747C183BA9703C75E
:10483000170083C707002207BA971397070163542D
:1048400007004177D98F80400327090023A6F18C08
:104850003A94F5B905472384E18EEF105050832731
:10486000090080403E94E5B19387018B98438040D6
:10487000832609002A0798C33694D1B903A6018B71
:1048800088409317040183250900B70600201317F9
:104890000601C183418393860647B697218323800F
:1048A000C700A380E7003304B50055B18840110567
:1048B000EF20403D42058040418523A8A18AA147C1
:1048C0002320F900210461B183D7618E37070020CE
:1048D00013070747A297BA9783C60700804083272C
:1048E000090023A8D18A3E949DB183A6C18C138769
:1048F000018BC1670843FD17B397870093C7F7FF84
:104900008C400326090033948600E98FC18F23A8C9
:10491000D18C23AAF18A1CC33384C5000DB9138737
:10492000018B83A6C18C08439307F00FB3978700D0
:1049300093C7F7FF8C400326090033948600E98F64
:10494000C18F23A8D18C23AAF18A1CC33384C5004C
:10495000FDBE931704013707002013070747C183E3
:10496000BA9703C6370083C6270003C7170022067D
:10497000B296A20603C607008040B307D7000327FC
:104980000900A207B29723A6F18C3A94C9B693877F
:10499000018B984303A6C18C8040832609003327EE
:1049A000C70098C3369465B69387018B984303A6D6
:1049B000C18C8040832609003327E60098C33694D3
:1049C00079B6931704013707002013070747C183FF
:1049D000BA9703C6370083C6270003C7170022060D
:1049E000B296A20603C607008040B307D70003278C
:1049F0000900A207B29723A6F18C3A9489BE131737
:104A00000401B70700209387074741833E978347F8
:104A10001700834607008040A207B69703270900C6
:104A2000C207C18323A6F18C3A9415B693170401EB
:104A30003707002013070747C183BA9783C70700CA
:104A40001397870161876354070093E707F080405D
:104A50000327090023A6F18C3A94D5BC93170401CF
:104A60003707002013070747C183BA9783C707009A
:104A70001397870161876354070093E707F080402D
:104A80000327090023A8F18A3A94D1B493170401AB
:104A90003707002013070747C183BA9703C63700BB
:104AA00083C6270003C717002206B296A20603C6D4
:104AB00007008040B307D70003270900A207B29779
:104AC00023A8F18A3A9461B4138A018B80400327AA
:104AD000090083270A003A9499E36F10A04183A745
:104AE000C18C99E36F10004185472320FA0085B4FB
:104AF0009387018B8040832609009843369419C31D
:104B00006F106040054798C399B49387018B984311
:104B10009040832609003A9480C33304D60005BC34
:104B2000884083D9618E1105EF20C01580404E95D5
:104B300023A8A18AA1472320F900210409BC8840A9
:104B40001105EF20201480401375F50F23A8A18ACA
:104B5000A1472320F9002104DDBA83A7C18C138764
:104B6000018BB307F40214438040032609003294FA
:104B7000B6971CC3E9BA9386A19083D7060003D6E3
:104B8000618E37070020930507471387F7FF8040A2
:104B90000325090042073388B70041832300C8007A
:104BA0002E972182F9172300C7002390F6002A943C
:104BB00079BA1386A19083570600370700201307A0
:104BC000074793861700C2068907C182C207C183BF
:104BD000BA9683C606003E970345070080408325AA
:104BE0000900139786002A972310F6002393E18E7D
:104BF0002E94B1BA8040832709003E9489BA03D825
:104C0000418F03D5618F83D5818F03A6C18E2393F6
:104C1000018F83A6018F8040832709002393A190F1
:104C20002394B19023A8C18A23A6D18C3E946FF01F
:104C30001F929387618E03D3070083D8619003D8B6
:104C4000819003A5018B03A7419B239A618E83A5C5
:104C5000C18C804083260900239B118F239C018FE8
:104C6000130787C123A6A18E23A8B18E2390E70046
:104C700036946FF0DF8D9387618E03D707009040E5
:104C80008326090033048740239087003304D6002D
:104C90006FF0FF8B83D7618E944003270900A297A2
:104CA000C207C1832394F1902393F1903384E600EB
:104CB0006FF0FF899387018B83A6C18C9843804056
:104CC00003260900758F23A8D18C23AAE18A98C3F3
:104CD00032946FF0DF879387018B9843804083265F
:104CE00009001347F7FF23AAE18A98C336946FF0AF
:104CF0001F869387018B9843804003260900C16675
:104D0000FD16358F23AAE18A98C332946FF03F8451
:104D10009387018B98438040832609001347F70F40
:104D200023AAE18A98C336946FF07F829387018B20
:104D300098438040832609001347170023AAE18A7D
:104D400098C336946FF0BF801387018B1C4303A672
:104D5000C18C804083260900918FB337F0001CC3BB
:104D600036946FF0CFFE1387018B1C4303A6C18CD2
:104D7000804083260900918F93B717001CC3369497
:104D80006FF0EFFC1387018B83A6C18C1C4380401E
:104D900003260900B3B7F60093C7170023A8D18CE8
:104DA00023AAF18A1CC332946FF06FFA9387018BA8
:104DB00083A6C18C98438040032609003337D7006F
:104DC00023A8D18C23AAE18A98C332946FF02FF8DC
:104DD0001387018B83A6C18C1C43804003260900E6
:104DE000B3B7D70093C7170023A8D18C23AAF18AA1
:104DF0001CC332946FF0AFF59387018B83A6C18CEF
:104E0000984380400326090033B7E60023A8D18CDD
:104E100023AAE18A98C332946FF06FF39387018BD2
:104E200083C6C18C03C7070003260900804033777F
:104E3000D70223A8D18C329493168701E18623AA46
:104E4000E18A94C36FF0AFF09387018B83C6C18C66
:104E500003C707008040032609003357D70223A861
:104E6000D18C329423AAE18A98C36FF04FEE9387D6
:104E7000018B83C6C18C03C707000326090080404D
:104E80003307D70223A8D18C32949376F70F23AA45
:104E9000E18A94C36FF0AFEB1387018B1C4303A629
:104EA000C18C804083260900918F93F7F70F1CC3B4
:104EB00036946FF0CFE99387018B804083260900F9
:104EC00098433694635507E83307E04098C36FF082
:104ED0000FE81387018B1C4303A6C18C80408326F7
:104EE0000900918FC207C1831CC336946FF02FE66F
:104EF0001387018B83A5C18C1C4313858192339644
:104F0000B70280400328090093D8F5410CC193866D
:104F10000192232215014294B387B70293156601CB
:104F20002986D0C2A983CD8F9CC21CC36FF02FE20B
:104F30001387018B1C4303A6C18C80408326090084
:104F4000B297C207C1831CC336946FF04FE013873A
:104F5000018B1C4303A6C18C804083260900B297B5
:104F600093F7F70F1CC336946FF06FDE9387018BB6
:104F70009843804083260900298798C336946FF0B0
:104F80000FDD1387018B1C4303A6C18C8040832651
:104F90000900B3A7C70093C717001CC336946FF06E
:104FA0000FDB98408327090023A8818A3304F70088
:104FB0006FF0EFD913170401B70700209387074755
:104FC00041833E9783462700834717000344070029
:104FD00013978600BA97A2073E94232009006FF02A
:104FE0000FD783D7618E83D6A190A297032609009D
:104FF0008040C2073707002013070747C183BA97CD
:1050000013D786002380D700A380E70032946FF087
:105010000FD483D7618E3707002013070747A29765
:10502000C207C183BA9703C7170003C607008040B1
:105030008326090093178700B2972395F190369441
:105040006FF0EFD083D7618E03A7018BA297032661
:1050500009008040C207B706002093860647C18337
:10506000B697135587009355070193568701238000
:10507000E700A380A7002381B700A381D700329463
:105080006FF0EFCC83D7618E8396018BA2970326B6
:1050900009008040C2073707002013070747C18374
:1050A000BA9713D786002380D700A380E7003294F5
:1050B0006FF0EFC983D7618E83A5018B9040832663
:1050C000090037070020A29713070747BA972380E4
:1050D000B7003304D6006FF08FC783D7618E03A764
:1050E000018BA297032609008040C207B706002063
:1050F00093860647C183B6971355870093550701DA
:10510000935687012380E700A380A7002381B7007F
:10511000A381D70032946FF08FC383D7618E03A62B
:10512000018B83250900A297C2078040B7060020A3
:1051300013170601C183418393860647B6972183DF
:105140002380C700A380E7002E946FF04FC083D761
:10515000618E83A5018B90408326090037070020CC
:10516000A29713070747BA972380B7003304D600E6
:105170006FF0EFBD83D7618E83A5018B90408326AE
:10518000090037070020A29713070747BA97238023
:10519000B7003304D6006FF08FBB83D7618E83A531
:1051A000018B90408326090037070020A297130740
:1051B0000747BA972380B7003304D6006FF02FB9A2
:1051C00083D7618E3707002013070747A297C207CE
:1051D000C183BA9703C6370083C6270003C71700E9
:1051E0002206B296A20603C607008040B307D70086
:1051F00003270900A207B29723A6F18C3A946FF017
:105200000FB583D7618E3707002013070747A29792
:10521000C207C183BA9703C7170083C707002207D5
:10522000BA9713970701635407004177D98F8040DD
:105230000327090023A6F18C3A946FF04FB183D76E
:10524000618E3707002013070747A297C207C18363
:10525000BA9783C7070013978701618763540700D4
:1052600093E707F080400327090023A6F18C3A94C6
:105270006FF0EFAD83D7618E370700201307074724
:10528000A297C207C183BA9703C6370083C6270017
:1052900003C717002206B296A20603C60700804085
:1052A000B307D70003270900A207B29723A6F18C02
:1052B0003A946FF0CFA983D7618E37070020130788
:1052C0000747A297C207C183BA9703C7170083C6CF
:1052D0000700804093178700B69703270900C2078D
:1052E000C18323A6F18C3A946FF06FA683D7618EA9
:1052F0003707002013070747A297BA9783C607000E
:1053000080408327090023A6D18C3E946FF02FA400
:1053100083D7618E3707002013070747A297BA97F4
:1053200083C6070080408327090023A6D18C3E94C2
:105330006FF0EFA183D7618E37070020130707476F
:10534000A297BA9783C6070080408327090023A647
:10535000D18C3E946FF0AF9F83D7618E37070020CA
:1053600013070747A297C207C183BA9703C637003E
:1053700083C6270003C717002206B296A20603C6FB
:1053800007008040B307D70003270900A207B297A0
:1053900023A8F18A3A946FF08F9B83D7618E3707E9
:1053A000002013070747A297C207C183BA9703C714
:1053B000170083C707002207BA97139707016354A2
:1053C00007004177D98F80400327090023A8F18A7D
:1053D0003A946FF0CF9783D7618E37070020130779
:1053E0000747A297C207C183BA9783C707001397DD
:1053F000870161876354070093E707F08040032724
:10540000090023A8F18A3A946FF06F9483D7618ED4
:105410003707002013070747A297C207C183BA972F
:1054200003C6370083C6270003C717002206B296BB
:10543000A20603C607008040B307D7000327090070
:10544000A207B29723A8F18A3A946FF04F9013877E
:10545000018B03A6C18C08439307F00FC166B39775
:105460008700FD16B58F8C40832609003314860013
:10547000E98FC18F23A8C18C23AAF18A1CC333846E
:10548000D5006FF0CF8C138A018B03270A0083A607
:10549000C18C854733948700B367870089E613443E
:1054A000F4FFB377E40080400327090023AAF18AC0
:1054B0002320FA003A946FF08F8988401105EF108D
:1054C000607C80401375F50F23A6A18CA147232093
:1054D000F90021046FF0AF8788401105EF10807A42
:1054E00042058040418123A6A18CA1472320F900D9
:1054F00021046FF0CF8503A7018B83D7C18C804037
:1055000003260900B706002093860647B697135571
:10551000870093550701935687012380E700A380F6
:10552000A7002381B700A381D70032946FF02F82A8
:1055300003A6018B83D7C18C804083250900B70661
:10554000002013170601418393860647B6972183EF
:105550002380C700A380E7002E946FE05FFF83A73E
:10556000C18C03A6018B80408326090037070020E9
:1055700013070747BA972380C70036946FE03FFDB3
:1055800003A5C18CB707FF00E98FE394071C9317AD
:1055900005013707002013070747C183BA9703C6E1
:1055A000370083C6270003C717002206B296A2065B
:1055B00003C607008040B307D70003270900A207EE
:1055C000B29723A8F18A3A946FE07FF803A5C18CC3
:1055D000B707FF00E98FE39A07189317050137070C
:1055E000002013070747C183BA9703C7170083C674
:1055F0000700804093178700B69703270900C2076A
:10560000C18323A8F18A3A946FE07FF403A5C18C8B
:10561000B707FF00E98FE3920712B70700209387CF
:1056200007473E958346050080408327090023A84D
:10563000D18A3E946FE0BFF11387619003A6018B7E
:1056400083560700804083250900B7070020938711
:105650000747B697935886001358060113558601DD
:1056600091062380C700A380170123810701A3812E
:10567000A7002310D7002E946FE07FED83A5018B48
:105680001387619083560700804003250900B70700
:10569000002013960501418293870747B697218220
:1056A00089062380B700A380C7002310D7002A945F
:1056B0006FE0FFE9138761908356070083A5018B94
:1056C000804003260900B707002093870747B69755
:1056D00085062380B7002310D70032946FE03FE7A0
:1056E000138761908356070083A5018B80400326B2
:1056F0000900B707002093870747B69785062380E0
:10570000B7002310D70032946FE07FE413876190D5
:105710008356070083A5018B804003260900B70745
:10572000002093870747B69785062380B70023108C
:10573000D70032946FE0BFE1138761908356070072
:1057400083A5018B804003260900B70700209387BB
:105750000747B69785062380B7002310D7003294F9
:105760006FE0FFDE1387619003A6018B835607006D
:10577000804083250900B707002093870747B69725
:10578000935886001358060113558601910623800D
:10579000C700A380170123810701A381A70023105D
:1057A000D7002E946FE0BFDA13876190835607000D
:1057B0000396018B804083250900B707002093875B
:1057C0000747B6971355860089062380C700A38034
:1057D000A7002310D7002E946FE07FD788401105D3
:1057E000EF10404A62058040618523A8A18AA14745
:1057F0002320F90021046FE09FD59387018B832636
:1058000009008040984336949316070163C406004C
:105810006FE0FFD3C176558F98C36FE05FD303A7C6
:10582000C18C138A018B8547B397870083260A00B2
:10583000631C076E93C7F7FFF58F93F7F70F804050
:105840000327090023AAF18A2320FA003A946FE083
:105850001FD01387018B1C43904083260900B3D7C8
:105860008740C207C1831CC33304D6006FE03FCE1C
:1058700083A7018B91EB232009006FE05FCD03A785
:10588000018B85476307F76A8040832709003E94B0
:105890006FE0FFCB9387018B83A6C18C9843804038
:1058A000032609003357D70023A8D18C23AAE18A05
:1058B00098C332946FE0BFC99387018B83A6C18CD4
:1058C00098438040032609003317D70023A8D18CC2
:1058D00023AAE18A98C332946FE07FC71387018BB4
:1058E00083A6C18C1C43804003260900B397D700D0
:1058F000C207C18323A8D18C23AAF18A1CC3329486
:105900006FE0FFC41387018B83A6C18C1C438040CA
:1059100003260900B397D70093F7F70F23A8D18C7C
:1059200023AAF18A1CC332946FE07FC283D7618EB1
:105930003707002013070747A297BA9783C60700C7
:1059400080408327090023A8D18A3E946FE03FC09E
:1059500003A7018B8C409317040103260900B706A7
:10596000002093860647C183B697135887001355C6
:105970000701935687012380E700A3800701238155
:10598000A700A381D7003384C5006FE05FBC131765
:105990000401B70700209387074741833E97834759
:1059A0001700834607008040A207B6970327090027
:1059B000C207C18323A8F18A3A946FE05FB9884097
:1059C0001105EF10202C42058040418523A6A18CB3
:1059D000A1472320F90021046FE07FB78840138A94
:1059E000018B1105EF10002A2A8B03550A00A147ED
:1059F0002320F9002320AA00630204508149938ADE
:105A0000C18C31A08509638B894E03250A004E9510
:105A1000EF10402683A70A00E316F5FE8040832797
:105A2000090023A03A013E946FE07FB29387018B77
:105A300098436313074E232009006FE05FB18396FC
:105A4000018B8C40931704010326090037070020BF
:105A500013070747C183BA9713D786002380D7005F
:105A6000A380E7003384C5006FE07FAE9387018B8E
:105A700083A6C18C98438040032609003307D702D0
:105A800023A8D18C329423AAE18A98C36FE03FAC5B
:105A90009386018B9C4203A6C18C41677D17798E4A
:105AA000F98FB387C70280408325090023A8C18CE2
:105AB0002E94139607014186718F23AAF18A98C20A
:105AC0006FE0FFA888401105EF10C01B6205804001
:105AD000618523A6A18CA1472320F90021046FE052
:105AE0001FA72384018EEF00D02783270900804061
:105AF0003E946FE0DFA59389018B03A5090003A6FF
:105B0000C18C1357F541938781921358F6412A07A8
:105B10009355650190C3D98D23A20701C2862A053A
:105B2000EF20A05E0327090080409387019288C37D
:105B3000CCC323A0A9003A946FE07FA183A6018B78
:105B400080408327090023A6D18C3E946FE03FA0BC
:105B5000931704013707002013070747C183BA973B
:105B600003C6370083C6270003C717002206B29674
:105B7000A20603C607008040B307D7000327090029
:105B8000A207B29723A8F18A3A946FE05F9C93171B
:105B900004013707002013070747C183BA9703C7DB
:105BA000170083C707002207BA97139707016354AA
:105BB00007004177D98F80400327090023A8F18A85
:105BC0003A946FE0DF989387018B984303A6C18CCA
:105BD0008040832609003367C702369498C36FE07C
:105BE0001F979387018B83A6C18C9843804003261F
:105BF00009003377D70223A8D18C329423AAE18AF3
:105C000098C36FE0DF941387018B1C4383A6C18C7C
:105C100041667D16F18EF18FB3F7D7020326090096
:105C2000804023A8D18C329493960701C18623AA81
:105C3000F18A14C36FE0BF919387018B984303A649
:105C4000C18C8040832609003347C702369498C32D
:105C50006FE0FF8F9387018B984303A6C18C804030
:105C6000832609003347C702369498C36FE03F8EFE
:105C70009387018B984303A6C18C8040832609003B
:105C80003347C702369498C36FE07F8C9387018BAC
:105C900083A6C18C9843804003260900358F23A832
:105CA000D18C23AAE18A98C332946FE05F8A9387EC
:105CB000018B83A6C18C9843804003260900558F31
:105CC00023A8D18C23AAE18A98C332946FE03F883D
:105CD0009387018B03A6C18C9843804083260900DB
:105CE000518F369419E36FE09F86054798C36FE0A4
:105CF0001F861387018B1C4303A6C18C804083261B
:105D00000900B327F60093C717001CC336946FE051
:105D10001F849387018B984303A6C18C8040832600
:105D200009003367C702369498C36FE05F82938798
:105D3000018B984303A6C18C8040832609003367FA
:105D4000C702369498C36FE09F809387018B94437A
:105D5000032609008040139706014183329498C3BB
:105D600013960601634406006FE06FFEC176558FFF
:105D700098C36FE0CFFD9387018B98438040032643
:105D800009009376F70F94C313770708329419E349
:105D90006FE0EFFB93E606F094C36FE04FFB938751
:105DA000018B98438040032609009376F70F94C334
:105DB00013770708329419E36FE06FF993E606F062
:105DC00094C36FE0CFF888401105EF00B06B420537
:105DD0008040418123A8A18AA1472320F900210402
:105DE0006FE0EFF69840832709002393818E3304F8
:105DF000F7006FE0CFF5884003D78190110523931A
:105E0000E18EEF003068EFE0CFE58040A14723202E
:105E1000F90021046FE0AFF39387018B83A6C18C57
:105E200003D707008A0636973A8598C3EF00906536
:105E30002A84232009006FE08FF19387018B984318
:105E400080400326090093760708329499E26FE0B8
:105E50000FF0136707F098C36FE06FEF1385A19001
:105E600003570500B70600209C401386064793059C
:105E7000F7FF03D88190C2059306E7FFB308C70078
:105E80009107C181C2062380F800B29593D887009C
:105E9000C182B29623801501C18375172393018FA8
:105EA0002380F6002310E500232009006FE02FEA8D
:105EB000232009006FE0AFE99387018B8326090057
:105EC0008040984336949316070163C406006FE040
:105ED0000FE8C176558F98C36FE06FE71305100583
:105EE000A3870196EF00E0488327090080403E9495
:105EF0006FE0EFE523200A006FE06FE52320090043
:105F00005A846FE0CFE423A007006FE04FE4C2079C
:105F1000C183D58F6FE0DF8B8040832609007D171A
:105F200098C336946FE0AFE293F7F70FD58F6FF019
:105F30001F91232009006FE08FE142054181EF00AE
:105F4000705383270900804023A8A18A3E946FE004
:105F50000FE042054181EFC07FC0832709008040E8
:105F600023A8A18A3E946FE08FDE42054181EFC0F5
:105F7000DFBB83270900804023A8A18A3E946FE0FD
:105F80000FDD411106C6EF00304AEF007017EFB089
:105F90007F85716513050520EF00A06BEFC01FA280
:105FA00005472945A387E196EF006078B24041019B
:105FB0006F001054411106C6EF00605A23A40196E9
:105FC00023870196238D0194238C0196EF00A0581E
:105FD000EFB02FEEEF003045EF00E071EF00704BB7
:105FE000EFF03FFAB2401305803E41016FB04FF031
:105FF00083C7F19691E38280411106C6EFE00FCF8F
:10600000EFE0CFCEEFE08FCEEFE04FCEEFE00FCE60
:10601000EFE0CFCDEFE08FCDEFE04FCDEFE00FCD54
:10602000EFE0CFCCEFE08FCCEFE04FCCEFE00FCC48
:10603000EFE0CFCBEFE08FCBEFE04FCBEFE00FCB3C
:10604000EFE0CFCAEFE08FCAEFE04FCAEFE00FCA30
:10605000EFE0CFC9EFE08FC9EFE04FC9EFE00FC924
:10606000EFE0CFC8EFE08FC8EFE04FC8EFE00FC818
:1060700083C7019381E7B24041018280EF00C06C89
:106080007DD90145EFC07FB111E12945420541812C
:10609000EF00E06983C7818EF9DF938741979843CA
:1060A00093063006050763ECE60098C3EFC03F9EF9
:1060B0004545EFC0BF9AB24041016FC0BF9D23A0CC
:1060C0000700EDB7011122CC26CA06CE4AC84EC63B
:1060D0002A84AE84EF00D03583C78197A1E79DC89D
:1060E00013890196035509008149834714008345AC
:1060F00004008909A207BE95C205C181EF00903650
:106100000355090009040905420541812310A9002E
:10611000E3ED99FC6244F240D2444249B249056140
:106120006F005031E5D81389019603550900814964
:10613000834714000347240083460400834534004A
:106140004207A207BA97B697E205BE95EF007032F4
:1061500003550900910911041105420541812310DD
:10616000A900E3E799FC6244F240D2444249B249B3
:1061700005616F00302C93878196984391466308A0
:10618000D70095466308D70499466303D7008280F9
:106190001387019741118356070006C623A0070005
:1061A00022053695238D01942310A7002390019694
:1061B000EF001028EF005028EF00D0271305A00AA9
:1061C0005D2605454D260145792EB2401305000F89
:1061D000410151AE2398A19682809387819698437E
:1061E00091466308D7009546630BD704994663032D
:1061F000D7008280411122C403D481952A8706C624
:1062000026C21305A00A22043A9423A00700A12E57
:106210000545912E0545812E420441801305200F2E
:106220009926930404102285EF00D0240504252E1E
:10623000E31B94FEB2402244924441018280239C9D
:10624000A194828093878196944311476389E602E3
:106250009386A1951387C1950C4303C80600138646
:1062600001B103A341962E9633480501850523808D
:1062700006012300A6000CC3638B6500828083D7D0
:10628000C196FD1723A2F19623AE0194828041119D
:1062900006C6138501B123A00700EFF0BFE2130586
:1062A000A00AD1240545C1240145752CB24013052F
:1062B000100F41014DAC41111305A00A06C623A4DD
:1062C00001965524094545240145712C1305300FCD
:1062D000592C03C5A195412CEF003015130540063C
:1062E000EFB00FC1B24041016FF0BFC9411123A40B
:1062F000019606C622C4992C83470500ADCB014701
:1063000011A03E870505834605009307170093F704
:10631000F70FE5FA1D071374F70F1305A00AA12460
:1063200022859124014581241305F00F2D2C094568
:106330001D2C79450D2C83A7419B13D5F74113756F
:10634000F53F3E9529851375F50F312CEF00100EA2
:106350001375F50F092CC52A3924CD2A052CEF0019
:10636000B019B2402244A3870196410182801944AA
:106370006DB7411126C2AA841305A00A06C622C41D
:106380002E84D5220D45C5220145F12A1305E00FC3
:10639000D92A13F5F40FC12A1375F40F2244B24021
:1063A00092444101C9A2411122C4138481961C4028
:1063B00006C6054785071CC06389E7040947638E45
:1063C000E70A0D476388E70411476384E70A83C53A
:1063D000E19683C7F19699CB9307F00F6388F50494
:1063E00023200400B24022444101828093870501AA
:1063F00093F7F70F3D476369F706370700088A07E9
:106400001307076CBA979C4382879307A00AE31986
:10641000F5FCC9BF9387C19603D70700B240224459
:1064200022053A952390A7004101828003D7C196A7
:106430008547E317F7FA2244B24041016FF01FEBA2
:106440002244B24041016FF01FE72244B2404101B3
:106450006FF0BFD82244B24041016FF0BFDE22444A
:10646000B24041016FF03FD113050005EFF07FF01E
:1064700085BF2387A196AA85A9BFB240224423964F
:10648000A19641018280411122C42A841305A00AE9
:1064900006C6D1281545C1280145F1201305D00FA6
:1064A000D9201375F40FC120135584001375F50F0F
:1064B0005D28135504011375F50F752013558401DC
:1064C0002244B240410145A0411122C41384619984
:1064D0000355040006C6EFC04FF10397819983D797
:1064E000419993160501C18603C69197B697B706E1
:1064F00000209386064793051500B6972380C700B2
:10650000C205C18503550400224433A7E500B2400B
:106510003307E040F98D41016FC02FE9411122C4DA
:1065200037440140AA851305048006C6130404807D
:10653000EF1070239D452285EF10702565DDB24078
:10654000224441018280130520048280370500081F
:10655000130505708280116723AAE19A82806F007B
:1065600030776F0050776FF07FFB411122C406C671
:106570002A840345050019C50504EFF03FFA0345D9
:1065800004007DF9B2402244410182806FF0FFFD9A
:10659000411126C201468545AA841305800306C61B
:1065A00022C4EF00307413052060EF10401713056C
:1065B000E060EF10C0163714014013050480930605
:1065C00000200D46E145EF10C009930600400D463E
:1065D000914513050480EF10C008374401401305AE
:1065E0000480EF105002A68513050480EF10D00B35
:1065F000130504808145EF10F012130504808145D6
:10660000EF107013130504808145EF10B0101305CF
:1066100004808145EF103016130504808145EF108A
:106620005016130504809145EF105013A145130532
:106630000480EF10101213050480EF10F010130502
:1066400004802244B24092449305503041016F10BF
:106650005015239C0198239B0198239E0198239D0C
:1066600001982390019A239F01982392019A2391E4
:10667000019A6FF0FFF111C182807165239AB19880
:10668000239CC19813050520239BD1986FF05FF0E0
:1066900011C1828037450140130505806F10D0007D
:1066A00011C182802E856FF07FE7411122C4B705AA
:1066B000050037440140938555301305048006C614
:1066C000EF10B00F09E5B24022444101828013056A
:1066D0000480EF10D0099377F50F3E85A38CF196D7
:1066E000EFF07FCC83978199E35FF0FC2244B240C6
:1066F00041016FF07FDDB707002003A5070685671E
:10670000938707FA23A8019A3356F502B7153D007F
:1067100093850590814681473357B50223A0C198E0
:1067200023A2D19823A4E19823A6F1988280411155
:1067300006C623A8A19AEF009021B24023ACA19AEB
:1067400023AEB19A41018280411106C6EF0030208C
:1067500003AE819B83AEC19B83A6019B03A80198D6
:1067600083A8419813D7F6413303C541B385D5417A
:10677000B387D802333565003385A5403307070357
:10678000B3B50603BA97AE97B3860603636CF500FC
:1067900005466387A700B240137516004101828049
:1067A000E37BD3FEB240014613751600410182809F
:1067B000411106C6EF00B019B24023A4A19A23A646
:1067C000B19A41018280411106C6EF00501883A79B
:1067D000819AB2401D8D4101828003A5819883A5D5
:1067E000C198828041111305906006C6EF00307396
:1067F00013050070EF00B072B2400D4541016F000B
:10680000D076411122C4372401401305044006C646
:10681000EF0010240145EF00D02713050440014686
:106820008945EF0010290146130504409305001027
:10683000EF003028130504408145EF00B02C13050C
:10684000044005468545EF00D03013050440370667
:1068500006008545EF005040054685451305044078
:10686000EF00D04213050440EF00902B0545EFA048
:106870003FE8130504402244B24041016F00502B11
:1068800079713705004006D6EF10400695470C0891
:106890003EC8370500409307700C3ECC231A010018
:1068A000231E0100230F0100EF10A0114800EF107C
:1068B000001F894750002314F1008545854737059F
:1068C00000402312F100EF10201F130640068545FB
:1068D00037050040EF10E0491306000785453705EE
:1068E0000040EF1020433705004001468545EF107A
:1068F000A04A37050040EF10E019B2504561828090
:1069000001111305006006CE22CC26CA4AC84EC625
:10691000EF00F060B7060140D842B70700F9FD1755
:106920007D8F370600048567518F3744002013049C
:106930000467D8C21388078089491149A144C1431B
:1069400093020002930F0004130F0008930E00102F
:106950001303002093080040096591658540216676
:10696000232234012324240144C423287400232A2D
:106970005400232CF401232EE4012320D4032322EA
:10698000640223241403232604031CD848D80CDCF7
:10699000232234052324240564C423287404232AD1
:1069A0005404232CF405232EE4052320D4072322AA
:1069B000640623241407232604073CD868D8232020
:1069C000140050DC232014042CDC371E0140374710
:1069D0000020B7460020232234092324240923263B
:1069E000940823287408232A5408232CF409232EFE
:1069F000E4092320D40B2322640A2324140B232626
:106A0000040B2328F40A232AA40A232CB40A2322E1
:106A1000340D2324240D2326940C2328740C232ABC
:106A2000540C232CF40D232EE40D2320D40F232209
:106A3000640E2324140F2326040F2328F40E232A84
:106A4000A40E232CB40E70DC23201408232EC40AB9
:106A50002320140C9304074713890657232EC40ED2
:106A600093860657130707478147BD457D451303A6
:106A7000F00293090E40930350609302F003930ECB
:106A8000406093080EC013083060930F0E80130F00
:106A9000206001A82320170123A006018507110704
:106AA000910613F6F70F63FBF500E375C5FE636C03
:106AB000C3002320C70123A0D601CDB72320F701AF
:106AC00023A0E601E1BF2320370123A07600E317CE
:106AD00056FC938904100325090091041109EF0065
:106AE0001044144003A5C4FF0D4693058004EF0035
:106AF0005037184083A7C4FF110498CBE39D34FDA1
:106B0000EFF05FCEEFF0FFCFEFF09FD76244F2409F
:106B1000D2444249B2493705004005616F007076A2
:106B200037470020B74700200A0513070747938718
:106B30000767AA972A97084394430D4689E593056A
:106B400080046F001032C1456F00B031828037473A
:106B50000020B74700200A051307074793870767F8
:106B60002A97AA9718439C4399E15CCB82801CCB5F
:106B7000828013172500B7470020374500209387F0
:106B8000076713050547BA973A958C4308414111A9
:106B900006C6EF003038B2401375F50F4101828010
:106BA00013172500B7470020374500209387076754
:106BB00013050547BA973A958C430841411106C61B
:106BC000EF00B034B2401375F50F41018280131706
:106BD0002500B74700203745002093870767130536
:106BE0000547BA973A95944308410D4681456F0091
:106BF0005027411122C4372401402A8695461305A7
:106C00000440814506C6EF0060790545EFA05FAE00
:106C10008327C444B240224413D5F7410D893E95E1
:106C200009854101828082808280828075458280D0
:106C30006F00300E6F001010411122C4379400080D
:106C400026C206C6130404C0B70401082285130433
:106C50000440EF001011E31B94FEB2402244924422
:106C600041018280B7970008938707C03E956F0067
:106C700050178280B7970008938707C03E95034559
:106C800005008280B7970008938707C03E950841AA
:106C900082800111014685451305900406CEEF0060
:106CA000700413054070EF00902737150040EF0087
:106CB000F043930780438A85371500403EC402C0E5
:106CC000231201002316010023070100EF00704F7B
:106CD00037150040EF00105C371500408545EF1078
:106CE000801137150040EF00705AF2400561828034
:106CF000371500406F00F058371500406F001059ED
:106D0000411185453715004006C6EF10400FB240CF
:106D100041016FB03FC5938701999843050798C318
:106D20009843050798C39843050798C398430507F8
:106D300098C39843050798C38280374700200A0507
:106D4000130707472A97B747002018439387076719
:106D5000AA979443130807011305470193870199E4
:106D6000614759A09043050690C39043050690C320
:106D70009043050690C39043050690C390430506D3
:106D800090C314C19043050690C39043050690C379
:106D90009043050690C39043050690C390430506B3
:106DA00090C39043050690C39043050690C390435B
:106DB000050690C39043050690C39043050690C313
:106DC00090437D171377F70F050690C39043860510
:106DD000050690C39043050690C39043050690C3F3
:106DE0009043050690C335C72320D800139685002D
:106DF000E35A06F69043050690C39043050690C3F8
:106E00009043050690C39043050690C39043050642
:106E100090C39043050690C39043050690C39043EA
:106E2000050690C39043050690C39043050690C3A2
:106E30009043050690C39043050690C39043050612
:106E400090C39043050690C39043050690C314C1B8
:106E500085BF82803707000893070772032F0772E8
:106E600083AE470003AE870003A3C70083A80701D2
:106E700003A84701944F03D7C70183C7E70179717E
:106E8000794622D48A852A84094506D67AC076C2F4
:106E900072C41AC646C842CA36CC231EE100230F6C
:106EA000F100EF10E071A28509454928B7050008F7
:106EB0000546938505750945EF10807001A04111C5
:106EC00022C43744014026C29375F50FAA841305E6
:106ED000048006C613040480EF10E0089D45228557
:106EE000EF10E00A65DDB24022442685924441015C
:106EF000828001114EC606CE22CC26CA4AC8B2896B
:106F000005C22E843389C500A94403450400050445
:106F1000EFF0FFFA8347F4FF638C9700E31724FF39
:106F2000F24062444E85D2444249B24905618280B2
:106F30003545EFF0DFF8E31A24FDDDB7797156CA65
:106F4000AE8AB705000809469385057422D426D277
:106F50004AD04ECE52CC06D62A8A7144EF104066F3
:106F6000BD492549F15439A893978601E1877114E9
:106F700005469305F1005285A307F100EF10406428
:106F8000630E9402B3978900B3F75701B3D7870014
:106F900093F7F70F9386070313877703E376F9FCDC
:106FA00093178701E187711405469305F100528517
:106FB000A307F100EF10C060E31694FCB250225416
:106FC00092540259F249624AD24A456182800000D5
:106FD00000000000000000000000000000000000B1
:106FE00000000000000000000000000000000000A1
:106FF0000000000000000000000000000000000091
:107000005D7106C012C216C41AC61EC82ACA2ECC8A
:1070100032CE36D03AD23ED442D646D872DA76DC78
:107020007ADEFEC0F322103496C0F322003096C2FE
:10703000F322407C96C4732520348A85F120864251
:1070400073901234964273900230A6427390427C41
:1070500082401242A2423243C2435245E245724646
:1070600082561257A2573258C258525EE25E725F81
:10707000864F616173002030000000005D7106C022
:1070800012C216C41AC61EC82ACA2ECC32CE36D098
:107090003AD23ED442D646D872DA76DC7ADEFEC0E8
:1070A00073D0E87E7350F97E73D0B97EF390D07EB2
:1070B00073700430B6427390427CA64273901234CF
:1070C00096427390223482401242A2423243C2431B
:1070D0005245E245724682561257A2573258C2585C
:1070E000525EE25E725F864F616173002030B705C9
:1070F00000084111154693854574054506C6EF10F5
:10710000204C0545EFF01FD54111856722C406C606
:10711000FD172A84630DF500B70500081546938511
:10712000C5740545EF10C0492285EFF0BFD2EFF0DE
:107130001FFCDDB7411106C6EF00506B130570054B
:107140003928F528B24041016F904F8E8280B707F1
:1071500000D1D8438843CC43E39DE5FE82803707C6
:1071600000D2230007001205B71700D2A3050700BD
:107170003E9563F7A70023A00700C107E3EDA7FE34
:107180008280B71700D285070A053E958547230000
:10719000F5008280370700D283470700060579890A
:1071A00093F7170E5D8D2300A7008280B70700D2EA
:1071B00003C70700914705833D8BBA8663F3E70059
:1071C0009146B71700D28D070A053E958347050003
:1071D00013F6F60F2147B397D70093F7F70F118FE8
:1071E000B3D7D740B395E500CD8F93F7F70F2300C2
:1071F000F5008280B70700D203C7070005839377A5
:10720000C70085EFB71600D20A058D06AA9683C778
:10721000060021463D8B3307E640B3D7E740139580
:10722000450093F7F70F1375F50FB397E700C98F74
:1072300093F7F70F2380F600828001458280F327C1
:10724000503093F707FC93E73700739057308280F4
:107250004111B727014006C693870740630BF5002D
:10726000B737014093870780630DF500B2404101B5
:10727000828013059030C121B24013059030410146
:10728000F9A11305A0304529B2401305A0304101F2
:107290007DA9B727014003A74740B706F1FFFD16B8
:1072A000758F23A2E74003A74740598D23A2A7402B
:1072B000828093F705100DC699EF93F7054089C7B3
:1072C0005C4193E707405CC1898985CD1C4593E704
:1072D00027001CC582805C4193E707105CC1F1BFA9
:1072E00089C75C4193F7F7EF5CC193F7054089C705
:1072F0005C4193F7F7BF5CC1898981C51C45F59B4B
:107300001CC582801C4599C5056713070780D98F66
:107310001CC582807D771307F77FF98F1CC582809B
:107320001C45858B89E71C4593E717001CC58280A7
:107330001C451307850093E787001CC51C43A18BE0
:10734000F5FF1C4593E747001CC51C43918BF5FFD7
:10735000828085476385F50289476391F5021C5D4C
:107360003707D0FF7D17F98F1CDD1C5D7D16520697
:1073700037073000798E5D8E10DD828082805C550B
:10738000370710FF7D17F98F5CD55C557D165206C7
:107390003707F000798E5D8E50D58280954763E285
:1073A000B70493972500BE955859FD47B397B7008A
:1073B00093C7F7FFF98FB315B600DD8D4CD9A547FC
:1073C00063E6C704931716003E9618499D47B39786
:1073D000C70093C7F7FFF98F3396C6005D8E10C9BB
:1073E0008280AD4763E7B704E91593972500BE9502
:1073F0001859FD47B397B70093C7F7FFF98FB31537
:10740000B600DD8D0CD9A547E3FEC7FAC54763E199
:10741000C7025916131716004C453A969D47B39765
:10742000C70093C7F7FFED8F3396C6005D8E50C53A
:107430008280BD47E3E5B7F8D11593972500BE9547
:107440005855FD47B397B70093C7F7FFF98FB315AA
:10745000B600DD8D4CD5A5B78547638FF50089470C
:10746000639BF5001C4565777D17F98F1CC51C458E
:107470005D8E10C5828082801C453707F2FF7D1724
:10748000F98F1CC51C455D8E10C5828093F71500D1
:107490000DC281EB898989CD1C452167D98F1CC517
:1074A00082801C45370710008989D98F1CC5EDF5EE
:1074B000828099C71C453707F0FF7D17F98F1CC5DF
:1074C0008989FDD51C4561777D17F98F1CC58280A0
:1074D000F36704308280F377043082801375F50FF0
:1074E0006FF05FCB411106C622C426C24AC02A846F
:1074F000B2842E89EFF0FFC8CA852285EFF01FCB3A
:1075000022852244B2400249A685924441016FF08F
:107510007FCE372702401C4B93F7070899CBB7075C
:107520006745938737125CC3B797EFCD9387B79AB8
:107530005CC38280372702401C4B93E707081CCBB3
:107540008280372702405C470545858B91EB5C477D
:107550000D45C18B91E7484711893335A0000605D9
:107560008280411122C426C24AC006C62A89370435
:107570000F00854411A021C8EFF0BFFC7D14E30C7F
:1075800095FE05EDB7270240984B37040F00854460
:107590001367270098CB23AA2701984B136707048A
:1075A00098CB11A005C8EFF0DFF97D14E30C95FE30
:1075B000372702401C4BF59B1CCBB240224492441F
:1075C000024941018280B24022449244024911455D
:1075D00041018280372702401C4B1145F59B1CCB93
:1075E000E9BF011122CC26CA4AC84EC606CE2A8956
:1075F000AE8937040F00854411A029C4EFF07FF451
:107600007D14E30C95FE05E9372702401C4B370437
:107610000F00854493E717001CCB2310390111A0FC
:1076200015C8EFF01FF27D14E30C95FE37270240DA
:107630001C4BF99B1CCBF2406244D2444249B249F4
:1076400005618280F2406244D2444249B249114508
:1076500005618280372702401C4B1145F99B1CCBEA
:10766000D9BF93F7050193F8F50099C3B3E8C800B3
:107670008147854E3D4E930F800293028004214343
:10768000139627003397FE003318CE00758F1348EA
:10769000F8FF3396C80001CF032F05003378E801C7
:1076A00033660601638FF5056389550410C18507AC
:1076B000E39867FC854E3D4E930F80029302800451
:1076C00041431397270001173396FE003318EE004D
:1076D000758E1348F8FF3397E80001CE032F45005D
:1076E0003378E80133670701638FF501638955003B
:1076F00058C18507E39767FC828018C945BF10C948
:10770000C5BF58C965B750C9E5B708456D8D333554
:10771000A000828048456D8D3335A0008280B71768
:107720000240135765003E9714438547B397A7005F
:10773000D58F1CC38280B7170240135765003E9750
:1077400014438547B397A700D58F1CC38280B71712
:107750000240135765003E9714438547B397A7002F
:1077600093C7F7FFF58F1CC38280B7170240DC4335
:107770003747FFEF7D179546F98F6300D50263EB1E
:10778000A6000D476364A7003A05C98F371702406A
:107790005CC382801D47E31BE5FE31773A05798D96
:1077A0005D8DB7070010C98F371702405CC3828018
:1077B000B707030437070809011193871720130738
:1077C00067703ECC3EC23EC602C802CA3ACE02C074
:1077D00002C4B7160240D842B7177A000946098397
:1077E0000D8B93870720630DC70437170240504362
:1077F0005443584311820C103D8A2E96034606FFCF
:10780000A1822D839D8A1D8B2E97AE96054833D677
:10781000C70083C506FE034787FE6301050B11CD34
:107820008946B357B600630AD500751513351500A0
:10783000B357E6003305A040E98F3E85056182809D
:10784000D8421316F700635F0606D8561316F700E2
:1078500063580602D856DC56454693564700A18326
:10786000BD8BBD8A1387270085066313C700514768
:10787000B7177A0093870720B3D7D702B387E702F9
:10788000371702405857B71602403D8B0507B3D74C
:10789000E702D842D4424983139626003D8B6341C8
:1078A0000604BD466300D7040907631ED702139779
:1078B00017003E9706078583BA9705BFB2873E85B6
:1078C00005618280B7160240D842D442B7173D0006
:1078D000498313962600938707903D8BE35306FC5C
:1078E000136707010507B307F70201B74111B7177F
:1078F000004006C6138707C06309E5046371A70249
:1079000013870740630DE50437370140130707C0AD
:107910006301E5066309F506B2404101828037073D
:10792000004093060740630AD506938707806300EB
:10793000F508E313E5FE13050040EFF0DFDFB2408A
:107940001305004041016FF09FE013053040EFF058
:107950009FDEB2401305304041016FF05FDF130539
:107960005040EFF05FDDB2401305504041016FF031
:107970001FDE1305B030EFF01FDCB2401305B0304E
:1079800041016FF0DFDC13054040EFF0DFDAB24079
:107990001305404041016FF09FDB13051040EFF0ED
:1079A0009FD9B2401305104041016FF05FDA130513
:1079B0002040EFF05FD8B2401305204041016FF046
:1079C0001FD983D7050003D745001376F5BF1CD513
:1079D000B7370140938707C0418B6306F504FD77F5
:1079E0009387F73FE98FB7060040638ED7021C41AB
:1079F000B7160040BD9B1CC11C415D8F18C19C4542
:107A00005CD5630DD600184183D7C5001377F7CF37
:107A100018C1184193F70730D98F1CC15C4993E70F
:107A200017005CC98280144183D7250037180040B5
:107A300093F6F6F814C1144193F70706D58F1CC1CD
:107A40001C415D8F18C19C455CD5E30906FD1841BA
:107A500083D7C500B73601401377F7CF18C110415F
:107A600093F70730138706C0D18F1CC1E318E5FADE
:107A700083C7E50023A8F6C25C4993E717005CC9F9
:107A800082801C4193E717001CC182801C41F99B36
:107A90001CC182801C4193E707081CC1828023100F
:107AA00005002311050023120500231305002314EC
:107AB000050023150500828085476385F50CD9C52F
:107AC00089476387F5048D476393F5041C517D77DF
:107AD0007D17F98F1CD1835706001851F976B2072C
:107AE000D98F1CD11851FD1683574600758F18D1B8
:107AF0001451B20737370140D58F1CD1930707C007
:107B0000630AF51E5C4D93F7F7CF5CCD82808280CF
:107B10001451035706008357460093F6F6EF14D12D
:107B200014512207A207558F18D11451373701403D
:107B3000930507C093F6F6DF14D11451D58F1CD1ED
:107B40006301B5145C4DF19B5CCD82801C51835662
:107B5000060003574600F99B1CD103280502B737DE
:107B60000140938507C0B3E6060114D11451F59A7C
:107B700014D11451558F18D16307B50A1C4DF19BD0
:107B80001CCD828014510357060083574600BD9ACE
:107B900014D1145112079207558F18D11451373749
:107BA0000140930507C093F6F6FD14D11451D58F0B
:107BB0001CD16307B5001C4D93F7F7CF1CCD828015
:107BC0000C51835626008357660093F5F5FB0CD1C4
:107BD0000C5192069207CD8E14D10C51835686001B
:107BE00093F5F5F70CD10C518A06CD8F1CD1832566
:107BF00047C08357A60093F5F5BF2322B7C00326DD
:107C000047C08A07D18E2322D7C0832647C07D76FE
:107C10001306F67FF18E2322D7C0832647C0D58F67
:107C20002322F7C049BF1851035826008355660028
:107C30006D9B18D183280502835686000357A60042
:107C4000336818012320050310515D9A10D110519B
:107C5000D18D0CD103A647C01376F6EF23A2C7C07F
:107C600003A647C0D18E23A2D7C083A647C093F6F0
:107C7000F6DF23A2D7C083A647C0558F23A2E7C053
:107C8000F5BD0C5183572600FD7693F5F5BF0CD159
:107C90000C51A2079388F67FCD8F1CD103280502D3
:107CA0009385F6FF83576600B376180114D1032835
:107CB0000502A20783568600B3E707011CD183277C
:107CC00047C09206FD8D2322B7C0832547C0835746
:107CD000A6007976CD8E2322D7C0832647C07D1695
:107CE0009207F18E2322D7C0832647C0D58F232247
:107CF000F7C089BD832747C0F176FD16F58F232293
:107D0000F7C083578600832647C09A07D58F232262
:107D1000F7C0CDBB85476384F502A1C58947638A57
:107D2000F5028D47639CF5005C4D65777D17F98FF3
:107D30005CCD5C4D22065D8E50CD828082801C4DD4
:107D400065777D17F98F1CCD1C4D22065D8E10CDF9
:107D500082805C4D93F7F7F85CCD5C4D5D8E50CD25
:107D600082801C4D93F7F7F81CCD1C4D5D8E10CD15
:107D700082808547638CF50091CD8947638AF50041
:107D80008D476394F50030C18280828010DD82804F
:107D900050DD828050D9828085476385F502A9C570
:107DA0008947638CF5028D47639DF5005C4D7D77B7
:107DB0001307F77FF98F5CCD5C4D22065D8E50CDA9
:107DC000828082801C4D7D771307F77FF98F1CCD51
:107DD0001C4D22065D8E10CD82805C4DDD9B5CCDFE
:107DE0005C4D5D8E50CD82801C4DDD9B1CCD1C4DAD
:107DF0005D8E10CD82805C45DD8D4CC5828093C543
:107E0000F5FF0CC982804111B757004006C61387A1
:107E100007C0630AE5046374A7026300F506B74769
:107E20000140938707806314F5061305E030EFF0F7
:107E30009F90B2401305E03041016FF05F913747EA
:107E40000040130707406307E5049387078063102A
:107E5000F50413052041EFF01F8EB24013052041B9
:107E600041016FF0DF8E13053041EFF0DF8CB2403F
:107E70001305304141016FF09F8D13054041EFF034
:107E80009F8BB2401305404141016FF05F8CB240BF
:107E90004101828013051041EFF0FF89B2401305C4
:107EA000104141016FF0BF8A41113757004022C491
:107EB00026C206C6930707C02A84AE846308F50469
:107EC00063FBA7026304E5043747014013070780FB
:107ED00001456315E4000D45EFF09F8D93D7140025
:107EE000AA97B3D79702B2409244C207C1831CC479
:107EF000224441018280B7460040938606406307D2
:107F0000D500130707800145E31AE4FC0945EFF0AB
:107F10003F8AE9B75C4593F7F79F5CC55C45DD8D0B
:107F20004CC582805C457D777D17F98F5CC55C45CB
:107F3000DD8D4CC582801C4975777D17F98F1CC972
:107F40001C49DD8D0CC982805C450967D98F5CC5F1
:107F500082805C45DD9BDD8D4CC582805C45ED9B60
:107F6000DD8D4CC5828093F5F51F4CC18280484160
:107F70001375F51F82805C4993F7F7EFDD8D4CC9CF
:107F800082805C4993F7F7DFDD8D4CC9828093D7FF
:107F9000650093F7F73F3E9508413355B5000589D5
:107FA000828093D7650093F7F73F3E951841854748
:107FB000B397B700D98F1CC1828013D765001377A0
:107FC000F73F93D765012A97AA971043944313D795
:107FD000050185473397E700758F19C73395B700BB
:107FE000718D3335A000828001458280B717024031
:107FF0009843B706FFE0B1061367170098C3D8434C
:108000003706F7EA7D16758FD8C39843B706F7FE93
:10801000FD16758F98C39843B706FCFFFD16758F44
:1080200098C3D843B70601DFFD16758FD8C323A6C2
:10803000070294433707FF00C165F18E94C398C7C8
:1080400098439386F5FF371602404D8F98C311A0D1
:1080500099C61C42FD161397E700E35B07FEB717AE
:10806000024098439316E70063D0060AD8433706C8
:10807000C4DF7D16D8C3D843B7160240D8C3D8434F
:1080800013670740D8C3D843718FD8C3D843370686
:108090002920518FD8C3D8573D76718FD8D7D8575C
:1080A0004166130616F1518FD8D79843370600045E
:1080B000518F98C39C4213974700E35D07FE9C4293
:1080C0003706001037170240D18F9CC21C4393968D
:1080D0002700E3DD06FE144337060001B717024010
:1080E000D18E14C3984393166700E3DD06FED84390
:1080F000B7160240719BD8C3D84313672700D8C373
:10810000DC42A18BF5DF828001A0014863C6050E29
:1081100063DB06003306C040B337C000B306D0406F
:108120001348F8FF9D8EB6873283AA8EAE8863917E
:10813000061863FCC50C41676361E61EB7070001C2
:108140006365F63693568601E1471787FFFF1307ED
:10815000A760369703470700BA97130700021D8FE1
:1081600019CBB395E500B357F5003313E600B3E838
:10817000B700B31EE50013560301B3D7C802931628
:108180000301C18213D70E01B3F5C8023385F6028D
:10819000C205B3E8E50063FAA8009A981387F7FFD1
:1081A00063E4680063E9A832BA87B388A840B3D50E
:1081B000C802C20E93DE0E01B3F8C802B386B6023F
:1081C000C208B3E8D80163FBD8009A981387F5FF7B
:1081D00063E56800F91563E3D800BA8513950701D4
:1081E0004D8D8145630908003305A040B337A000D9
:1081F000B305B0409D8D82803305A040B337A00009
:10820000B305B0409D8D7D5821B701E6054333533A
:10821000D3024167636AE30EB7070001636BF3287B
:1082200093568301E1471787FFFF1307E7523697FD
:1082300003470700BA97130700021D8F65EB9318D9
:108240000301B3866540135F030193D80801854598
:1082500013D70E01B3D7E603B3F6E603338617034D
:10826000C206558F637AC7001A979386F7FF636437
:1082700067006365C726B687118FB356E703C20E42
:1082800093DE0E013377E703B388160342073367A3
:10829000D701637B17011A971386F6FF63656700A2
:1082A000F91663631701B28613950701558D1DBF3B
:1082B00063E1D504C16763E1F604B707000163E237
:1082C000F61E93D8860161479787FFFF9387C748BB
:1082D000C69703C30700930700023A93B38767402A
:1082E000E9EB63ECB61C3335C50013451500814539
:1082F000D5BD81450145FDB59307F00F63F2D71C4D
:1083000093D886002147C9B71307F00F9A86E37CFC
:1083100067F093568300A14739B71307F00FB28671
:10832000E375C7E293568600A14705B53313E30012
:1083300033D6F500135F0301335EE603B396E50021
:10834000B357F500DD8E9318030193D80801B31ECF
:10835000E50093D50601B377E6033387C803C20768
:10836000CD8F63FBE7009A971306FEFF63E3671662
:1083700063F1E716791E9A97998F33D6E70313971F
:1083800006014183B3F7E7033385C80293960701DB
:10839000D98E63FBA6009A969307F6FF63E76612F1
:1083A00063F5A61279169A9693150E01898ED18DD2
:1083B00045B533576600B396F600D98EB3D865003D
:1083C00013DF0601B3DEE803139E06013353650095
:1083D000135E0E01B395F500B365B30013D7050125
:1083E0003316F600B3F8E8033303DE03C20833E7BD
:1083F000E800637B670036979388FEFF6369D70CBC
:108400006377670CF91E3697330767403353E703EA
:10841000C205C1813377E703B3086E024207D98DE5
:1084200063FB1501B6951307F3FF63EED50863FCF4
:1084300015097913B695C20E416FB3EE6E0013079E
:10844000FFFFB3F6EE0013D30E01718F4182338E1E
:10845000E602B3851541B386C60293580E01330771
:10846000E302BA96C6963306C30263F3E6007A9631
:1084700013D306011A9663E2C5026385C5007685AB
:1084800081458DB341677D17F98EC206337EEE00BC
:10849000B317F500F296E3F4D7FE1385FEFF81458E
:1084A00091B393D80601414705B593560601C147DC
:1084B00069B993560301C147BDB3814505451DB355
:1084C000B688014711B53A83BDB73E86F1BDC68E69
:1084D00025BF328E55B5F9179A98C1B9F9171A9771
:1084E00061BBAA8581460146014539AA411122C4D2
:1084F00006C6970700009387A7192A8499C3814568
:108500007122970700009387E72488431C5591C385
:1085100082972285EFE01F9441119707000093870F
:10852000A72322C417040000130404231D8C26C2B1
:1085300006C60984BE8419E42244B2409244410133
:108540006FE0DFC07D1493172400A6979C438297A9
:10855000DDB74111970700009387072022C4170455
:1085600000001304641F1D8C26C24AC006C609847D
:1085700081443E8963988402EFE0DFBB97070000E7
:108580009387871D170400001304041D1D8C0984A4
:1085900081443E89639F8400B24022449244024950
:1085A0004101828093972400CA979C438504829757
:1085B000D1B793972400CA979C4385048297D9BF6B
:1085C0009787FF17938747AAB2862E86AA85884386
:1085D00009A0411122C42A842E85B285368697C708
:1085E000FF1723AF072006C6EFE0BF90FD576319C2
:1085F000F50097C7FF179387A7209C4391C31CC022
:10860000B2402244410182809387019C9C432A8E80
:108610009DE317C7FF171307E71523A0E19C1785F4
:10862000FFF71305259EBA8719C51C4117C5FF170B
:108630002326F51CBA87D8437D487D556347E80457
:10864000630E0E0203A8870863010804931827002D
:10865000C29823A0C8000323081005463316E6007D
:108660003363C3002320681023A0D808894663170A
:10867000DE0083264810558E2322C810930617006B
:108680000A07D4C3BA978CC701458280797152CC4E
:1086900056CA5AC85EC606D622D426D24AD04ECE74
:1086A00062C42A8B2E8A938A019C854B03A40A00FC
:1086B00011C84440832984081389F4FF8A04A294D2
:1086C000635E0900B250225492540259F249624A40
:1086D000D24A424BB24B224C45618280630E0A0063
:1086E000639509007D19F114E1BF93172900CE9716
:1086F00083A70708E39847FF5840DC407D176318BD
:10870000270323222401F9DF032C44006388090096
:1087100083A6091033972B01F98E89EE8297584072
:1087200083A70A00E31487F9E30EF4FA41B723A202
:108730000400D1BF93162900CE968C4283A649101F
:10874000758F01E75A858297D9BF2E858297C1BF61
:048750000000002005
:108754000000000000000000000000000000000015
:108764000000000000000000000000000000000005
:1087740000000000000000000000000000000000F5
:1087840000000000000000000000000000000000E5
:1087940000000000000000000000000000000000D5
:1087A40000000000000000000000000000000000C5
:0887B40000F36F060000002035
:040000050800015C92
:00000001FF
