:020000040800F2
:10000000D87500206501000821150008510E000870
:100010001D1300089D060008793600080000000046
:10002000000000000000000000000000E52B0008B8
:10003000AB0C000800000000AD150008792F000887
:100040007F0100087F0100087F0100087F01000890
:100050007F0100087F0100087F0100087F01000880
:100060007F0100087F0100087F0100087F01000870
:100070007F0100087F0100087F0100087F01000860
:100080007F0100087F0100087F0100087F01000850
:100090007F0100087F0100087F0100087F01000840
:1000A0007F0100087F0100087F0100087F01000830
:1000B0007F0100087F0100087F0100087F01000820
:1000C0007F0100087F0100087F0100087F01000810
:1000D0007F010008953500087F0100087F010008B6
:1000E0007F0100087F0100087F0100087F010008F0
:1000F0007F0100087F0100087F0100080000000068
:100100007F010008000000007F0100087F01000857
:100110007F0100087F010008B53000087F0100085A
:100120007F0100087F0100087F0100087F010008AF
:100130007F01000800000000000000007F010008AF
:100140007F0100087F0100087F0100087F0100088F
:10015000DFF80CD000F0B2F900480047D1480008A1
:10016000D87500200648804706480047FEE7FEE7AE
:10017000FEE7FEE7FEE7FEE7FEE7FEE7FEE7FEE757
:1001800071300008510100082DE9F0410024061BE0
:10019000254671F1000605DA01240027D0EB07009F
:1001A00067EB0101161E73F1000605DA0027D2EB9A
:1001B0000702012567EB030300F018F986460E4697
:1001C00017469C46AC4204D00025D0EB050E65EBEB
:1001D000010624B10020D2EB000760EB030C70464F
:1001E00031463A466346BDE8F081F0B480EA010248
:1001F000D40F4200B2EB410F02D20246084611462C
:100200004A0042D0C30DDDB2C1F3C752AD1A202D52
:1002100035DAC1F3160141F4000204B15242C5F1CE
:10022000200602FA06F12A411044B3EBD05F23D036
:10023000C4B1012DA0EBC35009DCF0BC4FF000426B
:1002400002EAC352DBB200F5000000F009B9400039
:1002500000F1807000EBC350A0F1807040EAD170D3
:10026000490009E0490841EAC071A0EBC35000F51C
:100270000000400800EBC350F0BC00F0E8B8614259
:10028000012202EB4101001BF6E7F0BC704781F050
:100290000041AAE780F00040A7E780EA010210B51C
:1002A00002F00043400022D04A001FD0010E01EBB3
:1002B0001261C0F35600C2F3560240F4000042F44B
:1002C0000002A0FB022000047F39140400D0401C6F
:1002D00050EA124001D44000491EC2B20C0604EBA1
:1002E000D010401C4008802A02D003E0002010BD3E
:1002F00020F00100002900DA0020184310BD30B4BE
:1003000080EA010202F0004530F0004221F0004096
:1003100013D090B1C30DD40DC2F31601C0F3160073
:10032000E41A41F4000140F400027D34914201D30B
:10033000641C00E04900002C02DA30BC0020704749
:100340004FF400000023914201D3891A034340086F
:100350004FEA4101F7D151B1914202D14FF0004132
:1003600005E002D24FF0010101E06FF0010103EB63
:10037000C450284430BC00F06AB8420005D0C0F335
:10038000C7525242914201DC0020704700EBC1503D
:100390007047C10F80EAE0700844CA079623002125
:1003A00000F05EB800F0004220F00040C10DC0F344
:1003B000160040F400007F2901DA002070479629DA
:1003C00003DCC1F19601C84001E096398840002A5B
:1003D000F4D0404270470000002801DBC0F100402B
:1003E000002901DBC1F10041884270472DE9F05F2F
:1003F0000546002092469B46884606468146402494
:100400001BE0284641464746224600F078F853460E
:100410005A46C01A914110D311461846224600F0A0
:100420005FF82D1A67EB01084F4622460120002194
:1004300000F056F817EB00094E41201EA4F101040C
:10044000DFDC484631462A464346BDE8F09F002996
:10045000A8BF7047401C490008BF20F0010070474A
:1004600010B4B0FA80FC00FA0CF050EA010404BFAA
:1004700010BC704749B1CCF1200421FA04F411FA00
:100480000CF118BF012121430843A3EB0C01CB1D44
:100490004FEA00614FEA102042BF002010BC7047B5
:1004A00000EBC35010440029A4BF10BC7047401C8F
:1004B000490008BF20F0010010BC7047064C074DF2
:1004C00006E0E06840F0010394E807009847103424
:1004D000AC42F6D3FFF740FE046D0008246D00081F
:1004E000202A04DB203A00FA02F1002070479140F4
:1004F000C2F1200320FA03F3194390407047202AE9
:1005000004DB203A21FA02F00021704721FA02F3BD
:10051000D040C2F12002914008431946704730B5DF
:100520008C1810F8012B12F00F0301D110F8013BC9
:10053000120906D110F8012B03E010F8015B01F855
:10054000015B5B1EF9D101E001F8013B521EFBD1BA
:10055000A142E6D3002030BD38B54E4C01460929F2
:10056000608A7DD2DFE801F0052D454C535A697849
:10057000890000F009FFA067608A801C80B200F04B
:1005800047FFA065608A801D80B200F00DFF414DDD
:1005900080352860608A0A3080B200F005FF68600C
:1005A000608A0E3080B200F0EFFEA86000B20090CA
:1005B000D5E90023B4F87800A16D00B205F044F944
:1005C00038BD00F0E1FE6065608A401C80B200F03A
:1005D0001FFFA065608A801C80B200F0E5FEE06528
:1005E000C2B294F8581094F85400BDE8384005F0B1
:1005F00021B900F0D9FEA067BDE8384005F014B974
:1006000000F0D2FEA067BDE8384005F007B900F061
:10061000CBFEA067BDE8384005F0FAB800F0C4FE94
:10062000A067608A001D80B200F0BEFE0146E06750
:10063000A06FBDE8384005F051B900F0B5FEA067E5
:10064000608A001D80B200F0AFFE0146E067A06F37
:10065000BDE8384005F00CB900F0A6FEA06700E048
:1006600012E0608A001D80B200F09EFE0146E06745
:10067000A06F05F00DF9206438BD0749085C60657E
:10068000BDE8384005F0B0B8BDE83840C9B25220E6
:1006900000F00CBB50000020AC020020FEE7000080
:1006A0002DE9F0410F46044600F045FB184D4FF090
:1006B0000006E878A8B925E014F8010B14F8011B2E
:1006C00014F8022B090214F8013C01EB024101EB82
:1006D00003610144E88800F043FBE888001DE880DE
:1006E000361DBE42E8D30FE014F8010B14F8011BCD
:1006F00000EB012081B2E88800F020FBE888801C34
:10070000E880B61CBE42EFD3BDE8F04100F003BB69
:1007100000000020054910B50020C88000F00BFB48
:1007200000F0DCFABDE8104000F0F5BA000000204F
:100730002DE9F84FDFF8B4A0DFF8B4B001209AF843
:1007400000904FF000089BF8001049E01AF80020D4
:100750005206401C85B200272C4605EB1266009716
:100760001DE000BF1AF804100AEB040001EBC102FF
:10077000407802EB41121F49401EC0B201EB8201DA
:1007800001EBC00081690098FFF72FFD00904FF04A
:100790007E513846FFF729FDA41C0746A4B2A642A5
:1007A000E0D839460098FFF7AAFD5146114A0FE0FC
:1007B0004B194C5D5B7804EBC4075B1E07EB4414DC
:1007C000DBB202EB840404EBC303AD1CADB2986151
:1007D000AE42EDD808F101011FFA81F8B0B2002154
:1007E000C845B3D38BF80010BDE8F88FD46C002057
:1007F00098010020CC4C002070B50024604DB9E079
:10080000E968052905DD91FBF0F200FB1210A0421A
:1008100026D00120687004EBC4005A4900EB441054
:1008200051F82000FFF7BEFD292819D2DFE800F0BB
:10083000A015191D21253935292D31252D41454971
:100840004D555D65695159616D7175A089A0798DAE
:100850007D81919585999DA03D00204601F0CEFFB8
:1008600086E0204601F0C0F982E0204601F076F8EB
:100870007EE0204601F0CAF97AE0204601F078F9DE
:1008800076E0204601F044FC72E0204601F0B6FE1E
:100890006EE0204601F03EFF6AE0204601F01AFBC0
:1008A00066E0204601F010FA62E0204601F014FCF8
:1008B0005EE0204601F0D0F95AE0204601F0E8F968
:1008C00056E0204601F002FF52E0204601F0E4FA33
:1008D0004EE0204601F074FB4AE0204600F00EFF97
:1008E00046E0204601F08EFB42E0204600F028FF63
:1008F0003EE0204601F0AAFB3AE0204600F044FF2B
:1009000036E0204600F062FF32E0204601F0C0FBF6
:100910002EE0204601F0B2FF2AE0204601F084FFDD
:1009200026E0204600F0C2FF22E0204601F022FC33
:100930001EE0204601F0CEFC1AE0204601F0F8F956
:1009400016E0204601F096FE12E0204600F0DAFFA5
:100950000EE0204601F016FB0AE0204601F06EFD95
:1009600006E0204601F030F802E0204600F052FF99
:10097000641CA4B268888442FFF442AF70BD0000DA
:1009800098010020CC4C002070B500242C4D53E081
:1009900004EBC4002B4900EB441051F82000FFF792
:1009A00001FD1E282BD00EDC042824D006DC0128F3
:1009B00011D0022813D003283CD118E0082812D007
:1009C0001C2837D12BE01F38062833D2DFE800F08F
:1009D0002B1B1F2F3223204602F04CFD2AE020461D
:1009E00002F0E6FB26E0204602F084FC22E02046EE
:1009F00002F0B6FB1EE0204602F0E6FB1AE02046BD
:100A000002F064FB16E0204602F082FC12E0204671
:100A100002F0A4FC0EE0204602F0E6FB0AE02046CD
:100A200002F00AFD06E0204602F06AFB02E02046E2
:100A300002F026FC641CA4B268888442A8D370BD6E
:100A400098010020CC4C002010B50D4C00202061F6
:100A5000AA2004F037FE022004F034FE002004F047
:100A600031FEF32004F02EFEA07804F02BFE00F0FF
:100A700061F9642002F0A2F9BDE8104000F02CBC3E
:100A80000000002010B50F4C0100608A07D001293A
:100A900010D0BDE81040C9B2522000F007B90A4991
:100AA0000A5C401C80B26265095C1046A16504F0D6
:100AB0008DFF05E000F088FCA06740B204F0A2FFC3
:100AC000206410BD50000020AC02002010B528B1F9
:100AD000C1B2BDE81040522000F0E8B8044C05490E
:100AE000608A085C606504F0DDFF206410BD0000D2
:100AF00050000020AC02002010B5144C0200144934
:100B0000608A09D0012A0DD0022A16D0BDE8104013
:100B1000D1B2522000F0CAB8085C6065BDE8104050
:100B200005F055B80A5C401C80B26265095CA1659D
:100B3000BDE81040104605F071B800F045FC606556
:100B4000C0B205F011F8206410BD00005000002074
:100B5000AC02002004F09CBE70B5234C0025216936
:100B6000491C2161012906D0022908D0032908D097
:100B700004290AD00AE0AA2800D0256170BDA0800F
:100B800070BDA18801EB0020F9E76070217829B1E0
:100B90006178FF29F1D1A1880129EED16178F2298C
:100BA00015D004DCF0290AD0F12904D10BE0F32997
:100BB00011D0FF2913D0502000F078F8DDE7BDE810
:100BC000704002F0B5B8BDE8704002F09FB9BDE8D2
:100BD000704000F035BDBDE87040FFF735BFBDE89F
:100BE000704003F067BB000000000020020AC0B2A2
:100BF000162A38D2DFE802F00B0D0F111315171962
:100C00001B1D1F21232527292B2D2F31333502F0C2
:100C1000B5B901F05DBE00F01DB901F05BBF01F098
:100C2000E3BE02F0E1B800F031BC02F059B801F0C7
:100C3000B7BF03F09FBB03F077BBFFF75DBFFFF7C4
:100C400045BF00F02DBB05F071BFFFF71BBFFFF7DD
:100C500083BC00F097B800F0C1B802F0B7BC02F056
:100C6000E9B800F07DBC0146104602F01FBD10B58A
:100C70000446AA2004F026FD052004F023FD0020F0
:100C800004F020FDFD2004F01DFDE0B204F01AFD8B
:100C9000C4F3072004F016FDC4F3074004F012FD6E
:100CA000200EBDE8104004F00DBD704770B505463C
:100CB0000C46AA2004F006FD032004F003FD0020EA
:100CC00004F000FDFE2004F0FDFCE8B204F0FAFCA4
:100CD000E0B2BDE8704004F0F5BC000070B5084D0E
:100CE000002400BF05EB842003F094FC10B15620D3
:100CF00004F0E8FC641CE4B2642CF3D370BD000083
:100D00000070000864207047014901200870704796
:100D100003000020704703F075BC00000149405CEF
:100D200070470000007000080149405870470000FB
:100D300000700008704703F0ABBC0000074A10B514
:100D4000104403F043FC040007D0342004F0BAFC44
:100D50002046BDE8104004F0B5BC10BD007000088E
:100D6000074A10B5104403F0A3FC040007D0342058
:100D700004F0A8FC2046BDE8104004F0A3BC10BD60
:100D80000070000810B5012805D0C1B2BDE81040C0
:100D90005220FFF78BBF0F4C0F49608A095C401C43
:100DA00080B2616500F034FBA065608A401D80B2AE
:100DB00000F0FAFAA067608A093080B200F0F4FA15
:100DC000E067034694F85400A26FA16D04F058FF49
:100DD000206410BD50000020AC02002038B501286E
:100DE00005D0BDE83840C1B25220FFF75FBF174CB5
:100DF000608A00F0E9FAA067608A401C80B200F0C7
:100E000007FB6065608A401D80B200F0E7FAA065CC
:100E1000608AC01D80B200F0B7FAE067608A0930CE
:100E200080B200F0B1FA04F18001086000B20090D5
:100E3000B4F85800616D82B2B4F87C0003B294F843
:100E4000780040B204F0B8FF38BD00005000002028
:100E5000FEE700002DE9F047264C0100DFF89880FE
:100E6000608A4FF0000509D0012914D002291AD058
:100E7000BDE8F047C9B25220FFF718BF18F80020AC
:100E8000401C80B2626518F80010A165BDE8F0470B
:100E9000104604F0F6B800F097FAA067A072BDE81B
:100EA000F04704F095B800F0B3FA86B20027A146E7
:100EB000C4F8540005F1B000C0B204F0E4F899F8A9
:100EC0000A0004F0E0F8102004F0DDF86D1CEDB22B
:100ED0005FF0000418F8060004F0E6F8761C641CC5
:100EE000E4B2B6B2802CF5D37F1CFFB2082FE1D359
:100EF000BDE8F08750000020AC0200200549032225
:100F000051F8203001F5807151F82000002103F0E4
:100F1000EBBB0000FC48002010B5A0F11001012936
:100F200001D8083804E0A0F12001052901D81638BD
:100F3000C0B2024605230021064803F0D7FA01207B
:100F400001F03CFF03484C300068C11700EB917082
:100F5000801010BD00240140084A30B402F58073AF
:100F600053F8204052F820304FF0030221B11021F5
:100F7000204630BC03F0B8BB4821F9E7FC4800200C
:100F80000349044A51F8201052F8200003F0FFBB37
:100F9000FC480020FC4900202DE9F05FDFF880814B
:100FA00001204FF0010C48F8040B022048F8040B14
:100FB000042048F8040B082048F8240B10200402F1
:100FC00045028602C702A8E8F0104FF0020C48F86C
:100FD00004CB4FF0040C48F838C92021402280236C
:100FE0004FF480794FF4007A4FF4806B4FF4006E29
:100FF000A8E80F4E4FF0080CC8E907C008F1240814
:10100000CC46A8E80E104FF0010C48F804AB48F8A5
:1010100004BBE8E802E4A8E8E0104FF0020C48F84E
:1010200004CB4FF0040C48F804CB4FF0080CE8E870
:1010300002C0CC46A8E80E104FF0010C48F804ABF3
:1010400048F804BBE8E802E4A8E8E0104FF0020C1E
:1010500048F804CB4FF0040C48F804CB4FF0080CD0
:1010600048F804CBDFF8C4C0A8E80F00704648F881
:10107000E09908F1EC01C8E939AB81E8F100294CAD
:101080000020DFF8A4A040F20361294A294E04F5AC
:10109000807540F2026B40F204698F1C01E0102859
:1010A00005D244F820A025F810B04B4611E02028C6
:1010B00004D244F820C025F810100AE0302804D2E9
:1010C00044F8202025F8103003E044F8206025F88B
:1010D0001070401CC0B24028E1D3002635F816003D
:1010E00003F00EFD54F8261058F826000861761C0F
:1010F000F6B2402EF2D34FF4C06003F001FD01219F
:101100000D4803F04FFB00F081F800F04BF800F0C1
:101110008BF8BDE8F05F4FF0804005F0A6BC000002
:10112000FC480020FC49002000080140000C014060
:101130000010014000140140000430000349044A3B
:1011400051F8201052F8200003F026BBFC48002084
:10115000FC490020054A02F5807352F8202053F81C
:10116000200009B10261704742617047FC480020CD
:101170000349044A51F8201052F820004161704799
:10118000FC480020FC4900200349044A51F8201083
:1011900052F8200001617047FC480020FC49002003
:1011A0007047000010B5184C204603F047F90020A6
:1011B00003F090F900220221204603F0D6F9002224
:1011C000A115204603F0D1F90021204603F02BF9A8
:1011D00001221146204603F00BF94FF4C0220121F1
:1011E000204603F066F901221146204603F046F935
:1011F000204603F03BF9012001F0E0FD2046BDE868
:10120000104003F0E6B800000024014010B540F2A1
:10121000096003F075FC4FF4E06003F071FCBDE879
:101220001040032003F0B2BB10B54FF0804488B0EB
:10123000204605F0B1FB0520ADF800000021C720D5
:10124000ADF80C10ADF80210ADF8041002908DF856
:101250000E106946204605F00DFC04A805F093FB2E
:101260000220ADF814000120ADF81000014604AAD8
:10127000204605F041FA64220121204605F04DFB8D
:1012800070220121204605F021FB00220121204689
:1012900005F052FB204605F029FA08B010BD000009
:1012A00010B50B4C38B101280DD0C1B2BDE81040CB
:1012B0005220FFF7FBBC608A0649085C6065BDE808
:1012C000104004F0DBBD04F0EFFD206410BD000011
:1012D00050000020AC02002010B5FFF71BFDFFF707
:1012E0005BFE05F01FF84FF4E13004F0C7F902F09F
:1012F00011FA094C00202070FFF716FDC0B2032838
:1013000008D1012020700A2002F0D2F8BDE8104078
:1013100003F0D4BC10BD000000000020FEE7000078
:1013200010B500200346044A044901E01354401C50
:101330000C68A042FAD310BDAC0200203C00002093
:1013400070B50446401CFFF7E9FC4FF6FF7101EA57
:1013500000252046FFF7E2FC284480B270BD70B53E
:101360000446C01CFFF7DAFC0502A01CFFF7D6FC00
:1013700028440502601CFFF7D1FC284405022046E2
:10138000FFF7CCFC284470BD05490A18085C527868
:1013900000EB0220010401D5024908437047000018
:1013A000AC0200200000FFFF064A10B51118105CC7
:1013B000CB788C78497804EB032301EB032100EB15
:1013C000012010BDAC0200200349085C010601D5D4
:1013D00060F0FF0070470000AC02002005494FF6A6
:1013E000FF730A18085C527803EA0222104480B2A4
:1013F00070470000AC020020044A1118105C8B7882
:10140000497801EB032100EB01207047AC0200207A
:10141000064A10B51118105CCB788C78497804EB2B
:10142000032301EB032100EB012010BDAC020020DF
:101430000149085C70470000AC020020024A1154C8
:101440001044090A41707047AC020020044A11544C
:10145000090A0244080A51709070000AD07070475F
:10146000AC020020024A11541044090A417070472E
:10147000AC020020044A1154090A0244080A5170BF
:101480009070000AD0707047AC0200202DE9FC413A
:10149000214D0100214C688A07D001291ED0BDE8EA
:1014A000FC41C9B25220FFF701BCFFF77DFFA867DE
:1014B0006E8A311D89B2721D615C92B2B31D69657D
:1014C000A25C9BB2AA65F61DE35CB6B2EB65A45DB7
:1014D0002C66009404F03AFFBDE8FC81265C411CB8
:1014E00089B26E65821C615C92B2A965C31CA25C64
:1014F0009BB2071DEA65E35CBFB22B66401DE75D4A
:1015000080B26F66205CA866CDE9007049B270B207
:1015100004F07AFFE0E7000050000020AC02002059
:101520007047000010B50D4C01212078FFF714FD25
:1015300001216078FFF710FD0121A078FFF70CFD75
:1015400001212078FFF706FE01216078FFF702FEF7
:10155000A078BDE810400021FFF7FCBD1401002079
:1015600010B5104C104B628A38B1012813D0C1B2AB
:10157000BDE810405220FFF799BB985C511C89B21E
:101580006065921C595C92B2A1659A5CE265BDE807
:10159000104004F0D1BC985C606504F0D5FC206478
:1015A00010BD000050000020AC0200207047000079
:1015B00003480021016141708170C17070470000D3
:1015C0000000002010B5C1B2C0F307200C4C012868
:1015D00009D002280BD004280DD00121BDE810400D
:1015E0005320FFF763BB0846FFF7A8FD06E0084657
:1015F000FFF7C6FC02E00846FFF78EFC206410BD32
:1016000050000020C2B2C0F3072048B101280BD01F
:1016100003280DD004280FD001215320FFF746BB2B
:10162000C9B21046FFF798BCC9B21046FFF792BD89
:10163000C9B21046FFF7B4BDC9B21046FFF75EBC91
:1016400070B513490A69042A1ED0052A1DD0062A3E
:101650001AD18A7A00EB022085B200200861AA2004
:1016600004F030F8012004F02DF8012004F02AF8ED
:10167000F22004F027F800242819FFF74FFB04F0AC
:1016800021F8641CFF2CF7D970BD488170BD0000A3
:10169000000000200348016C0A0402D5024A1143ED
:1016A00001647047500000200000FFFF0349086CF0
:1016B000020602D560F0FF00086470475000002069
:1016C0002DE9F0410C4C00206070E06808B9FFF78C
:1016D0005BF9002532264FF07E50012720612770EC
:1016E000FFF78AF8FFF724F820786D1C002801D155
:1016F000B542F4DBBDE8F0819801002070B500EB45
:10170000C00101EB40110B480B4B00EB8104A269B7
:10171000A16A206A9A4206DD984204DD074D2846F8
:10172000FEF7B5FD02E081F000400025C4E909059F
:1017300070BD0000CC4C002000401C4500409C4582
:1017400070B500EBC00101EB40110C4800EB8104C7
:101750000B48A569236AA26A216B854208DD834292
:1017600006DD824204DD074D2846FEF790FD02E0CB
:1017700081F000400025C4E90B0570BDCC4C002071
:1017800000401C4500409C4570B500EBC00101EBDA
:1017900040110B480B4B00EB8104A269A16A206A3F
:1017A0009A4205DD984203DD81F00040002503E008
:1017B000054D2846FEF76BFDC4E9090570BD000024
:1017C000CC4C002000401C4500409C4570B500EB0F
:1017D000C00101EB40110C4800EB81040B48A569E6
:1017E000236AA26A216B854207DD834205DD8242BE
:1017F00003DD81F00040002503E0054D2846FEF79B
:1018000046FDC4E90B0570BDCC4C002000401C45D2
:1018100000409C452DE9F04700EBC00101EB401171
:101820001F48204B00EB81040022D4F81880D4F824
:1018300020C0D4F838A0D4F82890276CA66C256D69
:10184000A16D206B984500DD01229C4501DD42F031
:101850000202994501DD42F00402984201DD42F0A6
:10186000080200209A4500DD01209F4201DD40F082
:1018700002009E4201DD40F004009D4201DD40F087
:101880000800824204DD084D2846FEF700FD02E014
:1018900081F000400025C4E91505BDE8F08700008F
:1018A000CC4C002000401C4500409C452DE9F041F7
:1018B00000EBC00101EB40110F48104B00EB81041D
:1018C0000F48A268256BA16A9A4207DD0646FEF71B
:1018D000DEFC074685F00040002506E081F0004769
:1018E000294600260546FEF7D2FCC4E90B05C4E9EB
:1018F0000976BDE8F0810000CC4C002000401C457A
:1019000000409C452DE9F04100EBC00101EB401186
:101910000F48104B00EB81040F48A268A56B216BA8
:101920009A4207DD0646FEF7B2FC074685F0004006
:10193000002506E081F00047294600260546FEF70F
:10194000A6FCC4E90D05C4E90B76BDE8F0810000F2
:10195000CC4C002000401C4500409C452DE9F04146
:1019600000EBC00101EB4011154800EB8104D4E904
:101970000110276AA569FEF7C2FC3946FEF735FC5F
:101980002946FEF787FC4FF0FF31FEF7F6FC804654
:101990000C4801694046FEF7B2FC06462946FEF7B0
:1019A00079FC054630463946FEF71FFC88F00042B8
:1019B00082F00043C4E90730C4E90525BDE8F081A1
:1019C000CC4C0020980100202DE9F04F00EBC00125
:1019D00001EB4011634891B000EB8104624AD4F8F6
:1019E00048B0D4F840A0D4F83880A669256AA36A24
:1019F000216B206D0390A06D0290206E0190A06E6F
:101A000010900020964200DD0120954201DD40F05B
:101A10000200934201DD40F004000026082814D2A1
:101A2000DFE800F00406080A0C0E101201260CE094
:101A300002260AE0042608E0082606E0102604E054
:101A4000202602E0402600E08026484DF00705D021
:101A50002846FEF71CFC2F460F9003E081F0004063
:101A600000270F90B00706D541462846FEF70FFC29
:101A70008146A84603E088F000494FF0000870074F
:101A800006D551462846FEF702FC05950D9004E068
:101A90008AF000400D9000200590300706D5594689
:101AA0002846FEF7F4FB04950C9004E08BF0004010
:101AB0000C9000200490F00606D528460399FEF706
:101AC000E6FBAA460B9005E003984FF0000A80F071
:101AD00000400B90B00606D528460299FEF7D7FBCA
:101AE00002950A9005E0029880F000400A900020DC
:101AF0000290700606D528460199FEF7C8FBAB4652
:101B0000099005E001984FF0000B80F0004009902B
:101B1000300604D528461099FEF7B9FB03E010986B
:101B2000002580F0004027630F99E162C4E90D9819
:101B3000059921640D99E1630499A1640C99C4F895
:101B400050A061640B99E1640299A1650A99C4F8F7
:101B500060B061650999E165C4E9190511B0BDE896
:101B6000F08F0000CC4C002000401C4500409C45FC
:101B70002DE9F04100EBC00101EB4011164800EBEC
:101B80008104256AA66929463046FEF780FB134981
:101B9000884219DBFEF77BFB1149FEF7B0FB80465C
:101BA000104801694046FEF7AAFB07463146FEF79A
:101BB00071FB064638462946FEF717FB054688F0B6
:101BC000004080F0004101E000210846C4E905061C
:101BD000C4E90715BDE8F081CC4C00200000FA43B1
:101BE000000020419801002070B500EBC00101EB1E
:101BF0004011054800EB8105EC68A9692046FEF715
:101C000046FBC5E9050470BDCC4C00202DE9F04130
:101C100000EBC00101EB40110E4800EB8104D4E958
:101C20000160D4E90651276AFEF731FB3146FEF721
:101C300034FB4FF0FF31FEF7A0FB06462946FEF7C6
:101C4000D4FA054630463946FEF724FBA5612062EA
:101C5000BDE8F081CC4C002070B500EBC00101EB79
:101C60004011094800EB81046068A169B0F17C5F14
:101C700004DD064D2846FEF70AFB02E081F0004035
:101C80000025C4E9050570BDCC4C002000409C45F2
:101C900070B500EBC00101EB4011094800EB810475
:101CA0006068A169B0F17C5F03DD81F00040002530
:101CB00003E0044D2846FEF7EAFAC4E9050570BDC5
:101CC000CC4C002000409C452DE9F04100EBC001C8
:101CD00001EB4011144800EB81046068A669256A95
:101CE000B0F17C5F18DD29463046FEF7D0FA804619
:101CF0000E4801694046FEF702FB07463146FEF7F3
:101D0000C9FA064638462946FEF76FFA054688F0B6
:101D1000004080F0004101E000200146C4E90506D2
:101D2000C4E90715BDE8F081CC4C002098010020E3
:101D30002DE9F04F00EBC00101EB4011544891B088
:101D400000EB8104D4F880B0D4F878A0D4F8709077
:101D5000D4F86880276ED4F888000290D4F89000F8
:101D60000190D4F898001090A068FEF71BFB06467F
:101D7000484DC00706D039462846FEF788FA2F4658
:101D80000F9003E087F0004000270F90B00706D5C2
:101D900041462846FEF77BFAA8460D9004E088F0FD
:101DA00000404FF000080D90700706D549462846C0
:101DB000FEF76DFAA9460E9004E089F000404FF05E
:101DC00000090E90300706D551462846FEF75FFA07
:101DD000AA46049004E08AF000404FF0000A049004
:101DE000F00606D559462846FEF751FA03950C90A1
:101DF00004E08BF000400C9000200390B00606D564
:101E000028460299FEF743FA02950B9005E00298E6
:101E100080F000400B9000200290700606D5284606
:101E20000199FEF734FA8346019504E0019880F0A9
:101E3000004B00200190300604D528461099FEF78B
:101E400026FA03E01098002580F0004027660F99DD
:101E500044F85C1FC4F80C800D99C4F81490A1607C
:101E60000E99C4F81CA021610499A16103996162D3
:101E70000C9921620299E1620B99A1620199C4F85F
:101E800030B0E563C4E90D1011B0BDE8F08F00007B
:101E9000CC4C002000409C4570B500EBC00101EB2C
:101EA00040110948094A00EB8104A069216A904267
:101EB00004DC074D2846FEF7EAF902E081F0004015
:101EC0000025C4E9070570BDCC4C002000401C452E
:101ED00000409C452DE9F05F00EBC00101EB401193
:101EE000264800EB8104D4E90D76D4E90AB5D4F88C
:101EF0003080216AA069FEF7CAF9DFF884904FF0BC
:101F0000FF3A10F1FF4F594617D24046FEF7BFF98E
:101F10004946FEF7F4F95146FEF72FFA0546014609
:101F20004046FEF7B4F9804629465846FEF75DF96B
:101F300085F0004585F0004116E03046FEF7A7F930
:101F40004946FEF7DCF95146FEF717FA0746014607
:101F50003046FEF79CF9064639465846FEF745F9E5
:101F600087F0004787F0004104F12802616282E8AF
:101F70002101C4E90D76BDE8F09F0000CC4C0020A3
:101F800000007A4470B500EBC00101EB4011094834
:101F9000094A00EB8104A068A169904204DD074D65
:101FA0002846FEF774F902E081F000400025C4E9FC
:101FB000050570BDCC4C002000401C4500409C45F0
:101FC00070B500EBC00101EB40110B480B4B00EB6F
:101FD0008104A269A16A206A9A4201DC984204DD68
:101FE000074D2846FEF753F902E081F00040002536
:101FF000C4E9090570BD0000CC4C002000401C4520
:1020000000409C4570B500EBC00101EB40110C484D
:1020100000EB81040B48A569236AA26A216B854203
:1020200003DC834201DC824204DD074D2846FEF7D3
:102030002EF902E081F000400025C4E90B0570BDD7
:10204000CC4C002000401C4500409C4570B500EB86
:10205000C00101EB40110B480B4B00EB8104A2695E
:10206000A16A206A9A4201DC984203DD81F00040B7
:10207000002503E0054D2846FEF709F9C4E90905E6
:1020800070BD0000CC4C002000401C4500409C4529
:1020900070B500EBC00101EB40110C4800EB81046E
:1020A0000B48A569236AA26A216B854203DC83423F
:1020B00001DC824203DD81F00040002503E0054D94
:1020C0002846FEF7E4F8C4E90B0570BDCC4C0020AF
:1020D00000401C4500409C4570B500EBC00101EB81
:1020E0004011094800EB81046068A169B0F17C5F90
:1020F00004DD064D2846FEF7CAF802E081F00040F4
:102100000025C4E9050570BDCC4C002000409C456D
:102110002DE9F04700EBC00101EB4011134800EB43
:102120008104D4E90315276AA6696068FEF75DF8A3
:102130003146FEF7ACF80E49804609698946FEF73C
:10214000DEF83146FEF751F8064639462846FEF7D6
:102150009EF805464946FEF7D2F83946FEF745F89F
:10216000C4E90750C4E90586BDE8F087CC4C0020DF
:10217000980100202DE9F04F00EBC00101EB401168
:10218000524891B000EB8104D4F840B0D4F838A0A4
:10219000D4F83090D4F82880276AA06C0290206D83
:1021A0000190A06D1090A068FEF7FCF80646484D1F
:1021B000C00706D039462846FEF769F82F460F902B
:1021C00003E087F0004000270F90B00706D5414696
:1021D0002846FEF75CF8A8460D9004E088F0004021
:1021E0004FF000080D90700706D549462846FEF7C7
:1021F0004EF8A9460E9004E089F000404FF0000927
:102200000E90300706D551462846FEF740F8AA46FC
:10221000049004E08AF000404FF0000A0490F006B9
:1022200006D559462846FEF732F803950C9004E08F
:102230008BF000400C9000200390B00606D5284695
:102240000299FEF724F802950B9005E0029880F0C1
:1022500000400B9000200290700606D52846019998
:10226000FEF715F88346019504E0019880F0004BD5
:1022700000200190300604D528461099FEF707F893
:1022800003E01098002580F0004027620F99C4F801
:102290002880E1610D99C4F8309061620E99C4F80C
:1022A00038A0E16204996163039921640C99E163A8
:1022B0000299A1640B9961640199C4F84CB0A565B9
:1022C000C4E9141011B0BDE8F08F0000CC4C002020
:1022D00000409C452DE9F04F00EBC00101EB40119F
:1022E000544891B000EB8104D4F888B0D4F880A0B1
:1022F000D4F87890D4F87080A76ED4F8900002904B
:10230000D4F898000190D4F8A0001090E068FEF78F
:1023100049F80646484DC00706D039462846FDF71D
:10232000B6FF2F460F9003E087F0004000270F9084
:10233000B00706D541462846FDF7A9FFA8460D90EF
:1023400004E088F000404FF000080D90700706D5BB
:1023500049462846FDF79BFFA9460E9004E089F008
:1023600000404FF000090E90300706D55146284630
:10237000FDF78DFFAA46049004E08AF000404FF07C
:10238000000A0490F00606D559462846FDF77FFF5F
:1023900003950C9004E08BF000400C90002003901B
:1023A000B00606D528460299FDF771FF02950B90FD
:1023B00005E0029880F000400B900020029070062B
:1023C00006D528460199FDF762FF8346019504E092
:1023D000019880F0004B00200190300604D528467B
:1023E0001099FDF754FF03E01098002580F000409D
:1023F000A7660F9944F8641FC4F80C800D99C4F8BF
:102400001490A1600E99C4F81CA021610499A161E7
:10241000039961620C9921620299E1620B99A162B0
:102420000199C4F830B0E563C4E90D1011B0BDE8FE
:10243000F08F0000CC4C002000409C452DE9F04F6F
:1024400000EBC00101EB4011684893B000EB810440
:10245000DFF89C8154F818CFD4F838E0D4F850B0A5
:10246000D4F830A0D4F84890A7682669A569236AF3
:10247000A26A216CA06D0690206E0590A06E03905C
:10248000206F0290A06F01900020183CC44500DD31
:102490000120474501DD40F00200464501DD40F0E6
:1024A0000400454501DD40F00800434501DD40F0F2
:1024B0001000424501DD40F02000C24501DD40F042
:1024C0004000C64501DD40F080004A4A4A4D165C96
:1024D000F00705D02846FDF7DAFE2F460F9003E0FF
:1024E00081F0004000270F90B00706D549462846E6
:1024F000FDF7CDFE8246A84603E089F0004A4FF082
:102500000008700706D559462846FDF7C0FEA946C3
:10251000089004E08BF000404FF00009089030076D
:1025200006D528460699FDF7B2FEAB460E9005E0AB
:1025300006984FF0000B80F000400E90F00606D594
:1025400028460599FDF7A3FE05950D9005E0059831
:1025500080F000400D9000200590B00606D528467A
:102560000399FDF794FECDE9035005E0039880F050
:102570000040049000200390700606D5284602997A
:10258000FDF785FE02950B9005E0029880F0004073
:102590000B9000200290300604D528460199FDF7E3
:1025A00076FE03E00198002580F00040A7650F99B2
:1025B00044F8541FC4F81490C4E902A80899C4F858
:1025C0001CB021610E99A161059961620D9921628A
:1025D0000399E1620499A162029961630B992163F5
:1025E000C4E90E0513B0BDE8F08F0000CC4C00200C
:1025F00000401C45D470002000409C452DE9F0416E
:1026000000EBC00101EB4011174800EB8104276A81
:10261000A569394628466668FDF739FE80461349A4
:102620003046FDF73AFE4FF07E51FDF7DEFD0146E4
:102630004046FDF764FE06460D4801693046FDF749
:102640005EFE80462946FDF725FE05464046394692
:10265000FDF7CBFD86F0004181F00042C4E9072080
:10266000C4E90515BDE8F081CC4C002000007A4497
:10267000980100202DE9F04100EBC00101EB401171
:102680000F48104B00EB81040F48A268256BA16A2C
:102690009A4207DD0646FDF7FAFD074685F0004041
:1026A000002506E081F00047294600260546FDF793
:1026B000EEFDC4E90B05C4E90976BDE8F081000030
:1026C000CC4C002000401C4500409C4570B500EB00
:1026D000C00101EB40110C480C4B00EB8104A26AD5
:1026E000216AA0699A420BDD984205DD084D284613
:1026F000FDF7CDFD294604E081F00040002100E017
:102700000020C4E9070170BDCC4C002000401C45EE
:1027100000409C452DE9F84F00EBC00101EB401152
:10272000324800EB8104276AD4F8188039464046C5
:10273000A66AFDF7ACFD2E4DDFF8B8B0A84248DB25
:102740002946FDF7A4FD2946FDF7D9FD0546DBF82E
:102750001010FDF7D4FD4146FDF79CFD804685F045
:102760000049254928460095FDF797FD054639465D
:102770003046FDF78CFD824601462846FDF72CFECB
:1027800000D2554615F1FF4F00D300254FF0FF3121
:102790002846FDF7F2FDDBF8101082468B46FDF768
:1027A000AEFD05463146FDF775FD064659460098D3
:1027B000FDF7A5FD01462846FDF717FD3946FDF753
:1027C00014FD074650468AF000450099FDF70DFDBF
:1027D00003E04FF0000948464D46C4E90707C4E945
:1027E0000956C4E90598BDE8F88F0000CC4C0020DC
:1027F0000000FA43980100200000704270B500EB21
:10280000C00101EB4011074800EB8104A669E168B3
:102810006068FDF7EAFC05463146FDF738FDC4E97E
:10282000050570BDCC4C002070B500EBC00101EB7C
:1028300040110F480F4B00EB8104A069226AA16A86
:10284000984201DC012000E000209A4201DD0122D3
:1028500000E0002290EA020F04D0074D2846FDF761
:1028600016FD02E081F000400025C4E9090570BDB5
:10287000CC4C002000401C4500409C4570B500EB4E
:10288000C00101EB40110F480F4B00EB8104A06920
:10289000226AA16A984201DD012000E000209A42EC
:1028A00001DD012200E0002290EA020F04D0074D72
:1028B0002846FDF7ECFC02E081F000400025C4E969
:1028C000090570BDCC4C002000401C4500409C45D3
:1028D0002DE9F843424C0100424D608A4FF000065A
:1028E0000BD0012921D0022927D003294DD0BDE8E2
:1028F000F843C9B25220FEF7D9B92E5C411C89B207
:10290000821C6665695C92B2C31CA165AA5C9BB21D
:10291000E265001DEB5C80B22366285C6066009077
:10292000304602F005FBBDE8F883FEF74DFDA067D9
:102930006072BDE8F84302F059BAA046FEF768FDA0
:102940006065C14684B200274FEA050806F1B00071
:10295000C0B202F0F9FA99F8090002F0F5FA102075
:1029600002F0F2FA761CF6B25FF0000518F80400E7
:1029700002F00CFB641C6D1CEDB2A4B2802DF5D3EB
:102980007F1CFFB2082FE1D3CDE7FEF7FDFCA06767
:10299000608A801C80B2FEF7F7FC94F909100844A5
:1029A000E067608A001D80B2285C606594F878005A
:1029B000B030C0B202F0C8FA94F87C0000F00F000A
:1029C00002F0C2FA94F87C00C0F3031040F010004B
:1029D00002F0BAFA94F85400BDE8F84302F0D6BA0F
:1029E00050000020AC02002070B5384C0146384D34
:1029F000608A072964D2DFE801F004172635444BCA
:102A000057002E5C411C89B2821C6665695C92B2DB
:102A1000A165C01CAA5C80B2E2652B5C30462366CF
:102A2000BDE8704002F0F2BCFEF7BEFCA067608A11
:102A3000001D80B2FEF7B8FC0146E067A06FBDE85C
:102A4000704002F043BBFEF7AFFCA067608A001D38
:102A500080B2FEF7A9FC0146E067A06FBDE87040B8
:102A600002F0AABCFEF7A0FCA067608A001D80B23D
:102A7000FEF79AFC0146E067A06FBDE8704002F0E7
:102A80007DBCFEF7ABFC6065BDE8704002F00ABC9F
:102A9000FEF7A4FC6065618A891C89B2695CA16546
:102AA000BDE8704002F0ACBCFEF798FC6065618A3E
:102AB000891C89B2695CA165BDE8704002F09ABCCE
:102AC000BDE87040C9B25220FEF7F0B850000020B7
:102AD000AC0200202DE9F0472F4F01002F4C788ADF
:102AE0004FF470754FF0800909D0012916D00229E2
:102AF0001CD0BDE8F047C9B25220FEF7D7B8235C1E
:102B0000411C89B27B65801C615C80B2B965225C26
:102B1000FA65BDE8F047184602F0B4BCFEF754FC75
:102B2000B867F872BDE8F04702F07ABCFEF770FCB7
:102B30000026B8467865484602F0ACFC802002F0DA
:102B4000A9FC0027D8F854002844205C02F0E8FCD7
:102B5000403D7F1CFFB2ADB2102FF3D305F5846565
:102B6000ADB20027D8F854002844205C02F0D8FC0D
:102B7000403D7F1CFFB2ADB2102FF3D3761C05F29F
:102B8000E13509F10100F6B2ADB200F0FF09202EE7
:102B9000D1D3BDE8F087000050000020AC02002037
:102BA00070B528B1BDE87040C1B25220FEF77EB8C2
:102BB0000A4C0B4D608A295C401C80B26165FEF7AF
:102BC000F3FBA067608A401D80B2295CA16594F880
:102BD0005400BDE8704003F0EDB900005000002043
:102BE000AC0200207047000070B53C4D0446002147
:102BF0006878FEF7AFFA01F0E1FC0121A878FEF752
:102C0000A9FA01F0DBFC0021A878FEF7A3FA01F095
:102C1000D5FC002604F080016878FEF79BFA600678
:102C2000040E0121A878FEF795FA01F0C7FC0021F7
:102C3000A878FEF78FFA01F0C1FC761CF6B2042EDC
:102C4000E8D300216878FEF785FA01F0B7FC00268A
:102C50000121A878FEF77EFA01F0B0FC0021A878E7
:102C6000FEF778FA01F0AAFC761CF6B2042EEFD338
:102C70005FF0000604F080016878FEF76BFA6006EA
:102C8000040E0121A878FEF765FA01F097FC0021F7
:102C9000A878FEF75FFA01F091FC761CF6B2042EDC
:102CA000E8D300216878FEF755FA01F087FC00248C
:102CB0000121A878FEF74EFA01F080FC0021A878E7
:102CC000FEF748FA01F07AFC641CE4B2042CEFD35E
:102CD0006878BDE870400121FEF73CBA140100207D
:102CE00010B5114C114B618A4A1C38B101280ED025
:102CF000C1B2BDE810405220FDF7D8BF585C91B278
:102D00006065595CA165BDE8104003F0B7BB585C35
:102D1000606590B2FEF748FB0146A06794F8540046
:102D2000BDE8104003F0B4BB50000020AC0200200E
:102D3000104910B50A69042A1BD0052A18D0062AA2
:102D400017D10A8902EB00200881002008618870F1
:102D5000FDF7E0FCAA2002F0B5FC012002F0B2FC75
:102D6000002002F0AFFCBDE81040F02002F0AABC49
:102D7000088110BD0000002070B504460CE000BFC3
:102D800000F0C4FB00F0A0FB054600F09BFBB5FB88
:102D9000F0F00A28F6D3641E002CF1DC70BD70B58B
:102DA000044600F0B3FB00F08FFB054600F08AFB01
:102DB000B5FBF0F0A042F6D370BD704770B5044685
:102DC0004FF47A750CE000BF00F0A0FB00F07CFB34
:102DD000064600F077FBB6FBF0F0A842F6D3641E7F
:102DE000002CF1DC70BD000010B5104C0100608AB1
:102DF00009D001290ED0022913D0BDE81040C9B274
:102E00005220FDF753BF0A49085C6065BDE81040D9
:102E100003F08ABBFEF7C8FAA067BDE8104003F0D4
:102E2000A5BBBDE8104003F0A9BB00005000002086
:102E3000AC02002010B5334C02003349608A86B0E2
:102E40000AD0012A14D0022A55D006B0D1B2BDE86A
:102E500010405220FDF72ABF0A5C401C80B2626518
:102E6000095CA16506B01046BDE8104003F016B934
:102E7000FEF7AAFA6065608A001D80B2FEF7C8FA04
:102E8000A065608A083080B2FEF7C2FAE065608A09
:102E90000C3080B2FEF7BCFA2066608A103080B237
:102EA000FEF7B6FA6066608A143080B2FEF7B0FAB8
:102EB000A066608A183080B2FEF7AAFAE066608ADF
:102EC0001C3080B2FEF7A4FA2067608A203080B2FE
:102ED000FEF79EFA04F1680160670EC9CDE9033080
:102EE000CDE90112606E5434009094E80F0003F0B5
:102EF00099F806B010BD085C606506B0BDE81040EA
:102F000003F0C6B850000020AC020020134A10B5F0
:102F10001169002304291CD09178114C4140917013
:102F200091696054491C91615069814215D12046D4
:102F30001361FDF7B5FBAA2002F0C4FB012002F0EB
:102F4000C1FB002002F0BEFBBDE81040F12002F002
:102F5000B9BB9088401EC2E9050310BD00000020E7
:102F6000AC0100200146002002E0401CC0B2491C18
:102F70000A78002AF9D170477047000070B53A4CC2
:102F80000146384D608A0F2964D2DFE801F06308FA
:102F900063141B2A63636363313A63405F00FEF787
:102FA00003FAA067618A091D89B21128695CA165CD
:102FB00000D1217170BDFEF72BFAA067BDE870400B
:102FC000FDF755BEFEF724FA6065608A001D80B2E9
:102FD000FEF71EFA0146A065606DBDE87040FEF781
:102FE00011BBFEF715FA6065BDE87040FEF7EABA5E
:102FF000295C0020616501E0401CC0B28842FBD31F
:1030000070BD285C6065BDE87040FFF7B5BEFEF797
:10301000FFF96065608A001D80B2FEF7F9F9A065CE
:10302000608A083080B2FEF7D9F9E065608A0A301C
:1030300080B2FEF7EDF903462066B4F85C0082B278
:10304000D4E91501BDE8704001F0E4BDBDE8704071
:1030500001F080BDC9B25220FDF728FE03490020CF
:10306000087070BDAC02002050000020000000205D
:103070000E4810B5016841F0010101600021416076
:10308000C16201680A4A114001604FF47F0181600A
:10309000016821F48021016003F0CEFABDE8104000
:1030A00000214FF0006001F067BC000000100240FA
:1030B000FFFFF6EA10B50121034803F033FDBDE838
:1030C000104003F0AFB900000010004000EBC00159
:1030D00001EB401130B50848084D00EB8100D0E904
:1030E0000141036A8269AC4202DCAA4200DD194652
:1030F000C0E9012130BD0000CC4C002000401C453F
:1031000000EBC00101EB4011124870B500EB8102E9
:103110001148D2E90161156A9469936A864215DC07
:10312000854213DD844202DC834200DD00210B4E28
:10313000844202DD834200DC3146844206DD834264
:1031400004DD814201DD002100E03146C2E9015188
:1031500070BD0000CC4C002000401C4500409C4548
:103160002DE9F04100EBC00101EB40110E4800EBEE
:103170008104D4E901152846276AA669FDF7BFF83E
:103180003946FDF732F83146FDF784F84FF0FF314C
:10319000FDF7F3F80549FDF780F82946FDF725F816
:1031A000A060BDE8F0810000CC4C00200000484247
:1031B00000EBC00101EB4011024800EB81004169C6
:1031C000C1607047CC4C002000EBC00101EB401106
:1031D00010B5044800EB81046168E069FDF78FF8E1
:1031E000A06010BDCC4C00202DE9F05F00EBC001C9
:1031F00001EB4011204800EB81042049D4E9018013
:10320000D4F820C0D4F830B0D4F840A0D4F8389026
:10321000A76AA66CA569236DA26D884527DC8D423F
:1032200025DD00208C4500DD01208F4201DD40F0CE
:1032300002008B4501DD40F00400894501DD40F0CE
:1032400008008A4501DD40F010008E4201DD40F0AB
:1032500020008B4201DD40F040008A4201DD40F059
:103260008000FDF796F84FF07C51FCF7BEFFC4E9F3
:103270000150BDE8F09F0000CC4C002000401C45F0
:103280002DE9F04100EBC00101EB40111448164A52
:1032900000EB8105291D134852C9814201DD014619
:1032A00002E0914200DA1146FDF729F807464FF097
:1032B0007E513046FCF799FF06463946FDF78CF8FB
:1032C0000AD839463046FCF7E2FF064607488442F2
:1032D00001DC074C00E00024C5E90246BDE8F081AE
:1032E000CC4C0020000048426F12833A00401C453D
:1032F00000409C4500EBC00101EB4011034800EB8E
:103300008100C2694169C0E903127047CC4C0020BA
:1033100070B500EBC00101EB40110E480E4A00EB06
:103320008104D4E90110A569914210DC95420EDDBB
:10333000FDF738F8401CC11700EB116121F0FF01C7
:10334000401AFDF726F84FF07C51FCF74EFFC4E918
:10335000015070BDCC4C002000401C452DE9F04FC1
:1033600000EBC00101EB4011314885B000EB810456
:10337000304DA769266AA06A0490206B0390D4F8A8
:1033800038B0206C0290A06C0190206D0090D4E9C0
:1033900001108046D4F858A0D4F86090E068A942A3
:1033A00010DCAF420EDDFCF7FDFF401CC11700EB47
:1033B000116121F0FF01401AFCF7EBFF4FF07C5147
:1033C000FCF713FFA8452CDCAE422ADD049900204F
:1033D000A94200DD01200399A94201DD40F002006D
:1033E000AB4501DD40F004000299A94201DD40F047
:1033F00008000199A94201DD40F010000099A9429E
:1034000001DD40F02000AA4501DD40F04000A94563
:1034100001DD40F08000FCF7BCFF4FF07C51FCF771
:10342000E4FE6760C4E9026005B0BDE8F08F00000B
:10343000CC4C002000401C4500EBC00101EB4011CA
:10344000094810B500EB8101084C8B690A6A88684D
:10345000A34202DCA24200DD0548A34202DDA242F3
:1034600000DC0020886010BDCC4C002000401C45D2
:1034700000409C4500EBC00101EB4011024800EB0D
:1034800081004169C1607047CC4C00204FF0E020C2
:1034900005494161054AF02182F8141D002181612E
:1034A0000721016170470000FEFFFF000FE000E010
:1034B000034948624FF0E02080698862704700004D
:1034C0001C000020782070474FF0E02080690349FD
:1034D000C96A081A20F07F40704700001C000020D5
:1034E0004FF0E02081690748826A406A511A064A13
:1034F00021F07F41B1FBF2F1814201D301207047FD
:10350000002070471C000020C0D401004FF0E020D4
:1035100080690149C86270471C00002007480021EB
:10352000018141814170C181018281708182C182AA
:10353000C170418381830171704700001C0000202D
:1035400010B50D4CB4F90800002814DD6089FDF7B2
:103550001BFFE28800B2094B024421789954401CB9
:1035600001B2B4F90800814200DB00216089BDE8A6
:103570001040FDF763BF10BD1C000020AC0200200E
:10358000034BD88019815A81012058707047000080
:103590001C00002010B50B4C0949204603F066FBC7
:1035A00000280BD0204603F007FB0749C0B2087083
:1035B000FDF7D2FABDE81040FFF7C2BF10BD000012
:1035C00005030500003801401C00002070B5284CA0
:1035D000618A48B101282AD002283AD0BDE870405B
:1035E000C1B25220FDF762BB0846FDF7EDFEA067B1
:1035F000608A401C80B2FDF70BFFA065608A401D09
:1036000080B2FDF7C1FE1A4D80352860608AC01D6A
:1036100080B2FDF7C9FE034668602888A16D02B23A
:1036200094F87800BDE8704040B202F03AB808461D
:10363000FDF7CAFEA067608A401C80B2FDF7B4FEA9
:103640000146E06794F87800BDE8704040B202F0AF
:103650000DB80846FDF7B8FEA067618A054A491C07
:1036600089B240B2515CA165BDE8704002F02EB84D
:1036700050000020AC020020FEE700000749064A87
:10368000CB79D054C879401CC871C879142801D1AD
:103690000020C871704700007C4B002050000020C3
:1036A00001490020887170475000002010B5C1B258
:1036B0005220FDF7FBFA02490020087010BD0000FF
:1036C000000000201048017AC27991421BD00F4BB4
:1036D000018BC26A5A54491E89B2120A5A54491EB1
:1036E00089B2120A5A54491E018300214171084AC5
:1036F000037AD25C9200C262027A521C0272027A8F
:10370000142A00D10172704750000020AC02002042
:103710007C4B002030B5144C00251448E5626582CE
:10372000A582E582A581E58125826562A562008882
:10373000401E2083257065706583A58325636563BE
:10374000A570E570E5832584A563E563256465645C
:10375000A564E564657125652571FDF7E1FDA57139
:10376000E571257230BD0000500000203C000020B3
:103770002DE9F0470A4C04202065E06AFDF7D4FAF1
:10378000C1B2050A0827074EFF224FF000094FF08B
:10379000010A04F180084FF6FF70EC2904D204E01E
:1037A00050000020AC020020F7E38B007B445B68F4
:1037B0009F440000EE0A0000B0030000C2030000B6
:1037C000C6030000D803000004040000FC0300004E
:1037D000CA030000D2030000E20A0000E404000073
:1037E00002050000EE0A0000240400003C04000072
:1037F0006A0400003C0500004C050000560500006E
:10380000160700001C0700002C0700003A07000004
:103810003E070000E20A0000680700008807000079
:10382000E8070000480800009A080000BA080000F5
:10383000D2080000EE08000008090000140900008A
:10384000880900009009000098090000E20A0000C1
:10385000A2090000A8090000B4090000BC0900008A
:10386000D4090000E4090000E20A0000F4090000A5
:10387000C80900007609000080090000D40A000091
:10388000FE090000FE090000FE090000080A000011
:10389000080A0000100A0000180A0000300A0000A0
:1038A000480A0000600A00007C0A00006C0A000060
:1038B000BC050000C4050000E20A0000EE0A00009A
:1038C000A80A0000A80A0000A80A0000900A000048
:1038D000E20A00009E0A0000A80A0000B40A0000E4
:1038E000E20A0000C60A0000E20A0000E20A000044
:1038F000E20A0000E20A00005C050000700500001A
:10390000E20A00008405000098050000A005000000
:10391000E20A0000B40500008E0600008E060000DA
:103920008E06000092060000E20A00009A060000DF
:10393000A2060000AA060000E20A0000B20600008B
:10394000BA060000BA060000BA060000BE06000073
:10395000E20A0000C6060000CE060000D6060000FF
:10396000E20A0000DE0600006006000060060000BB
:103970006006000068060000E20A0000720600000F
:103980006006000076060000E20A000084060000DF
:103990000606000006060000060600000C060000F1
:1039A000E20A0000120600001806000020060000CF
:1039B000E20A000028060000300600003006000081
:1039C0003006000038060000E20A00004006000051
:1039D0004806000050060000E20A000058060000F9
:1039E000EC050000EC050000EC050000D00500002F
:1039F000E20A0000DE050000EC050000F60500000C
:103A0000E20A0000FE05000018050000260500007F
:103A100034050000300500003A070000E20A00000B
:103A20003A0700004807000054070000E20A0000BF
:103A3000600700006007000060070000E20A000065
:103A40006007000074070000E20A00008007000021
:103A50008007000080070000E20A000080070000E5
:103A600098070000E20A0000AC070000B807000059
:103A7000B8070000E20A0000B8070000FC070000D9
:103A8000E20A0000140800002008000020080000DE
:103A9000E20A00002008000060080000E20A0000BE
:103AA0007C0800008C0800008C080000E20A00007E
:103AB0008C080000F4060000F4060000FC0600007C
:103AC00004070000040700000C070000BC0500000C
:103AD000C4050000E20A0000EE0A0000EE0A000041
:103AE000EE0A0000EE0A00007A04000086040000DE
:103AF000900400009C04000086040000B008000050
:103B0000C8080000E4080000FC08000008090000E4
:103B100014090000F4060000FC060000E20A0000A0
:103B2000EE0A0000500400005C040000E6060000FD
:103B3000C00700002A08000066040000A804000076
:103B4000B4040000C0040000CA040000D604000051
:103B5000C0040000E20A0000EC0600002409000096
:103B600060090000E08A6082E06A001DFDF7DCF871
:103B7000FDF73CF859E0658293E3E562C6E2608AAE
:103B80002844E0825BE3608A401B2FE0E08A608289
:103B9000218BE06A001D7054491E89B2020A7254DA
:103BA000491E88B2110A3154401E2083E5E700BF48
:103BB00001F00AFD84F805A0208B401C80B2315C26
:103BC000401C80B2325C401C80B22083305C02EB2F
:103BD000012100EB0120A6E2208B401C80B2315C69
:103BE000401C80B22083305C00EB0120608258E3EF
:103BF000208B618A3154401E80B2090A3154401E24
:103C000069E000BF84F8059001F0DCFC49E300BFE7
:103C100084F805A001F0D8FC43E3206C54E0E06A8E
:103C2000001DFDF781F8C0B268E0276539E3E06A5E
:103C3000001DFDF779F880B260E0E06A001DFDF735
:103C400073F85BE0E06A001DFDF76EF840B255E0E6
:103C5000E06A001DFDF768F800B24FE0E06A001D61
:103C6000FDF762F8C0B215E0E06A001DFDF75CF8F0
:103C700080B20FE0E06A001DFDF756F80AE0E06A46
:103C8000001DFDF751F840B204E0E06A001DFDF7A9
:103C90004BF800B26064C8E7608AA081A08AE08126
:103CA000E08A2082206C6062606CA062F948008823
:103CB000A0F57A709AE7A0896082E089A082208AC4
:103CC000E082606A2064A06A6064EAE2608A284454
:103CD00080B2FDF783FB2083E3E2608A218B2844D6
:103CE00080B23DE02564DCE2A8B2FDF785FB1AE274
:103CF000E06A001DFDF718F8618A0844206494E723
:103D0000D4E9100101FB0500C3E2206C2844C0E2A5
:103D1000606C10F47F0F03D080B2FCF7FFFFB8E2B5
:103D2000305CB6E2606C10F47F0F03D080B2FDF718
:103D300007FBAEE280B287E0606C10F47F0F03D027
:103D400080B2FDF70CFBA4E280B281E094F8400061
:103D5000616C14E0B4F8400081B2B4F8440016E09D
:103D6000FDF780FB9DE200BFB4F8440013E000BF04
:103D7000FDF79CFC95E200BFFDF78CFC91E27054CE
:103D80008FE200BFB4F8400081B2608A284480B25C
:103D9000E6E7608A284480B2216CFDF76BFB80E285
:103DA000618A94F840002944E9E7608A284480B297
:103DB0003CE0608A284480B23FE0608A2844AFE754
:103DC000608A2844B6E7608A2844BDE7608A2844B0
:103DD00080B241E0608A284480B241E0608A284491
:103DE00080B241E0608A2844305C6DE7608A2844F4
:103DF00080B23FE0608A284480B23FE0608A284475
:103E000080B23FE0608A284480B23FE0608A284464
:103E100080B23FE094F84000705542E2B4F84000B0
:103E200081B2A8B29CE7A8B2B6E7A8B2B4F8401035
:103E300009B2FDF703FB34E2A8B2216CFDF706FBE3
:103E40002FE2705D25E2A8B2FDF7C8FA21E2A8B220
:103E5000FDF7DEFA1DE2A8B2FDF7B6FA19E2A8B244
:103E6000FDF792FA15E2A8B2FDF79EFA11E2705D35
:103E70002AE7A8B2FDF7B2FA26E7A8B2FDF7C8FA1A
:103E800022E7A8B2FDF7A0FA1EE7A8B2FDF77CFA78
:103E90001AE7A8B2FDF788FA16E7206C8002F8E16D
:103EA000206C8012F5E100BF94F8400088E100BF6B
:103EB000B4F8400088E100BF94F84000206457E760
:103EC000B4F8400080B2206456E7206C20B10BE0CB
:103ED000206C48B1606C38B1C4F840A0E1E100BF8B
:103EE000D4E910010843F6E7C4F84090D9E1206C0A
:103EF00002E0206C002890DA4042CAE194F84000C9
:103F000094F8441008445BE1B4F84000B4F844105D
:103F1000084459E1D4E910010844BAE194F840009A
:103F200094F84410401A4BE1B4F84000B4F844103F
:103F3000401A49E1D4E91001401AAAE194F840106E
:103F400094F84400E06411FB00F02EE0B4F8441053
:103F5000B4F8400089B280B24843E16431E000BF68
:103F6000D4E910014843E16439E100BFD4E910010C
:103F700048438EE1216C606CCB17A1FB0056C21741
:103F8000C8E9060203FB006001FB0200A90A41EA3E
:103F900080518012C8E90410DBE07CE194F8401005
:103FA00094F84400E064B1FBF0F0A06408E100BFC5
:103FB000B4F84000B4F8441080B289B2B0FBF1F01C
:103FC000E164A06400E100BFD4E91001B0FBF1F0AE
:103FD000E16404E1D4E9100190FBF1F059E1206CB7
:103FE000626CC1178902D31741EA90518002C8E977
:103FF0000623FCF7C9F8C8E904014AE194F8401027
:1040000094F84400E064B1FBF0F200FB1210A064ED
:1040100040B23EE1B4F8400081B2B4F8440080B24E
:10402000B1FBF0F2E06400FB1210A06400B230E1DA
:10403000D4E91001B0FBF1F201FB1200E164CEE023
:10404000D4E9100190FBF1F201FB120021E1206C98
:10405000A064616CE164884201D90120BFE00020C6
:10406000BDE000BFD4E91001884231DC32E0216CB0
:10407000A164606CE0648142F1D3EEE7D4E9100101
:10408000884225DA26E0206CA064616CE1648842F5
:10409000E5D2E2E73C000020D4E91001884217DBBA
:1040A00018E0216CA164606CE0648142D7D8D4E749
:1040B000D4E9100188420BDD0CE000BFD4E9100107
:1040C000884205D006E000BFD4E91001884201D043
:1040D0000120DEE00020DCE0E06A001DFCF724FEA9
:1040E00080462765B4F84000002680B2206409E0CD
:1040F000206C3044FCF712FE616C884201D166648A
:10410000CFE0761CAE42F3D3C4F82C80C4F85090B4
:10411000C7E000BFB4F84000616C80B200EB8100E2
:104120002064FCF701FEE062F0E7206C01283FF418
:104130003DADB6E0206C0028F9D0B2E0206C80F0F4
:1041400001004CE0206C80F0FF0048E0216C414011
:104150005EE02164A5E0206CC04340E0D4E910019A
:104160000840E1643BE000BFD4E91001E16435E0C0
:10417000D4E910014840E16431E000BFD4E9100106
:10418000C840E1642BE000BF94F84000616CE1643A
:104190008840C0B223E000BFB4F84000616CE16425
:1041A000884080B21BE000BFD4E910018840E16480
:1041B00015E0206C284100F001006AE0206C2841E5
:1041C000C0B266E0206C284180B262E00AFA05F0D5
:1041D000C1B281F0FF020AE0104000E00843A06491
:1041E00057E000BF0AFA05F189B281EA0002206CAB
:1041F000A064636C002BF1D1EEE700BF216CA164D9
:104200000AFA05F0636CC2430BB9114000E00143A8
:10421000A1649EE7616CE164A940AA40424004E0C9
:10422000616CE164A940A840C243206C1040D5E70E
:10423000606CE064A840216CAA409143E7E7A0824B
:104240002FE000BFB4F8400081B2A08AFDF70AF960
:1042500010E0A08A216CFDF70DF912E0A08A94F815
:1042600040103154401CEAE7B4F8400001B2A08A83
:10427000FDF7E4F8A08A801CE1E7A08A216CFDF735
:10428000E5F8A08A001DDAE7206C00283FF48EAC28
:10429000401E206405E0064A512082F80090FCF799
:1042A00005FD216DE06A0844E062BDE8F08700008A
:1042B0000000002070B51A4E0025356101F074F938
:1042C000FEF750FE0446AA2001F0FCF9A41DE0B25E
:1042D00001F0F8F9002001F0F5F9FF2001F0F2F902
:1042E000022001F0EFF9202001F0ECF90D48006800
:1042F000C11700EB9150C0F3872001F0E3F9FCF700
:1043000001FDC0B201F0DEF901F052F901F0DAF975
:1043100001F04AF901F0BBF900F0D6FC357070BD30
:10432000000000203C00002010B528B1C1B2BDE85B
:1043300010405220FCF7BABC0C4C0D49608A095C55
:10434000401C80B26165FDF749F8A065608AC01C19
:1043500080B2FDF75DF80246E065B4F8580081B21E
:1043600094F85400BDE8104001F0A0BF50000020B8
:10437000AC02002030B420B1C1B230BC5220FCF7F6
:1043800095BC0A4C0A4D638A591CE85C89B29A1C98
:104390006065695C92B2A165DB1CAA5C9BB2E265B8
:1043A000EB5C236630BC01F0A1BF00005000002090
:1043B000AC02002002E008C8121F08C1002AFAD18E
:1043C00070477047002001E001C1121F002AFBD195
:1043D0007047816841F00801816081680907FCD459
:1043E000816841F00401816081684907FCD470470D
:1043F0001205A2F5801201290BD0022908D1816B88
:1044000021F44011816302F44011826B11438163F6
:104410007047C16A21F47001C16202F47001C26A7E
:104420001143C16270470029816802D041F40061E4
:1044300001E021F400618160704700000A4910B575
:1044400040180CD0B0F5806F0CD140F20A342046F1
:1044500000F072FB2046BDE8104000F05FBB40F268
:104460000934F4E710BD000000DCFEBF8168C90715
:1044700003D1816841F0010181607047002A4FEA51
:10448000C1720AD01AB1826842F480128260890730
:104490000ED5816841F4004109E01AB1826822F426
:1044A00080128260890703D5816821F40041816010
:1044B0007047012909D0022906D1816821F4E04121
:1044C00081608168114381607047816821F46021B7
:1044D000F6E7000004490A6822F470220A600A68BC
:1044E00002430A60704700000424014070B51F2495
:1044F000062909D2456B01EB8106B440A54302FAB7
:1045000006F12943416318E00C290AD2056B891F83
:1045100001EB81018C40A54302FA01F42C430463B2
:104520000BE0102909D2C56A0C3901EB8106B440B1
:10453000A54302FA06F12943C16207240A2A08D2D8
:10454000016902EB42029440A14393400B43036193
:1045500070BD122AFCD2C1680A3A02EB42029440B2
:10456000A14393400B43C36070BD002A4FEAC15280
:1045700011D0002A03DA426842F4807242604A0590
:1045800003D5426842F480624260890715D581688C
:1045900041F0020110E0002A03DA426822F480723E
:1045A00042604A0503D5426822F48062426089076E
:1045B00003D5816821F002018160704700204FF42B
:1045C000FA71401C00B28842FBDB70472DE9F041D4
:1045D00006464FF470270D46384600F039F800289B
:1045E0000CD1074C206940F001002061358038462D
:1045F00000F02EF8216921F001012161BDE8F08170
:10460000002002400248016941F0800101617047C9
:104610000020024070B505464FF47026304600F089
:1046200017F8002810D1094C206940F002002061E1
:104630006561206940F040002061304600F008F8D4
:10464000216921F00201216170BD000000200240BB
:104650000E4902460020CB68DB0701D001200DE0A7
:10466000CB68DB0601D5042008E0CB685B0701D5E9
:10467000022003E0CB681B0700D50320521E01284F
:1046800002D1002AE6D10520704700000020024038
:1046900004480169090603D50349416003494160A3
:1046A000704700000020024023016745AB89EFCD31
:1046B0002DE9F04106464FF470270D463846FFF7C6
:1046C000C7FF00280CD1074C206940F00100206191
:1046D00035603846FFF7BCFF216921F001012161F7
:1046E000BDE8F081002002402DE9F04301F00F0405
:1046F000CD0602D5042A19D0144300254FF00F0926
:104700005FF0010202FA05F61E401AD007684FEA70
:10471000850C09FA0CF827EA080704FA0CF848EAAD
:104720000708282908D0482908D008E0C26B44F0BF
:1047300003041A43C263E0E7466100E00661C0F883
:1047400000806D1CADB2082DDCD3082502FA05F6F9
:104750001E4016D047684FEA8508A8F1200809FADC
:1047600008FC27EA0C0704FA08FC4CEA070C282985
:1047700002D0482902D002E0466100E00661C0F89C
:1047800004C06D1CADB2102DE0D3BDE8F08380688D
:10479000084000D001207047C068084000D00120C8
:1047A00070470000F0B5144C002801DAE36900E01E
:1047B0006368420D120185B2C0F301579540C0F302
:1047C0000346032F05D0C2020AD50322B240934309
:1047D00007E023F0E062636823F0E063636002E0D7
:1047E000AB4343F0E06201B12A43002801DAE26101
:1047F000F0BD6260F0BD00000000014010B5314C1A
:10480000207800285CD0FEF7B3FFFEF7B1FFFEF77B
:10481000AFFFFEF7ADFFFEF7ABFFFEF7A9FFFEF718
:10482000A7FFFEF7A5FFFEF7A3FFFEF7A1FFFEF728
:104830009FFFFEF79DFFFEF79BFFFEF799FFFEF738
:1048400097FFFEF795FFFEF793FFFEF791FFFEF748
:104850008FFFFEF78DFFFEF78BFFFEF789FFFEF758
:1048600087FFFEF785FFFEF783FFFEF781FFFEF768
:104870007FFFFEF77DFFFEF77BFF134800780028DF
:104880001ED0FEF72DFE00281AD00020FCF7D0FD28
:1048900000B90A20FEF70CFE0C48007800280FD063
:1048A000E068401CE060642801D30020E060FEF76F
:1048B000F7FE1120FEF7E2FEBDE81040FEF702BF52
:1048C00010BD000000000020540000205500002012
:1048D00001F096FEFFF792FFFCE7000070B5054679
:1048E0001F4800240E460068234600F4E0614FF4A0
:1048F000A06081420FD006DCB1F5407F16D0B1F543
:10490000806F06D10FE0B1F5C06F09D0B1F5E06F4F
:1049100004D000F027F80224234608E0042306E030
:104920000124032303E00324012300E00424C4F151
:1049300004008640C3F104010F20C84010403043FA
:1049400005F1E021000181F8000405F01F010120BC
:1049500088406909890001F1E021C1F8000170BDBA
:104960000CED00E00249084302490860704700006E
:104970000000FA050CED00E0024A11400143024834
:104980000160704780FFFF1F08ED00E0124A10B57C
:104990005168124B1940D36A0C2823F0005317D2E8
:1049A000DFE800F0060606061609160910101010BA
:1049B00041EA80310CE020F0040041EA803040F010
:1049C000805105E020F00C0041EA803143F00053B3
:1049D0005160D36210BD000000100240FF3FFFEFA6
:1049E00070B53FA588B02ECD8DE82E003DA20446BF
:1049F000D2E90012CDE904123AA20020D2E9001255
:104A0000CDE906123A4A5168C1F381033949B3B37B
:104A1000012B3FD0022B3DD153684FF4803503F476
:104A20008033AB421ED1D36A13F0804F00D032499D
:104A3000D36A03F48033AB420DD1D36AC3F30315B9
:104A4000D36A6D1CC3F303239B1C112B00D11423C9
:104A5000B1FBF5F15943D36A03F00F035B1CB1FBC3
:104A6000F3F500E0254D5168C1F383435168890097
:104A700001D543F010030F2B02D29B1C01E009E08B
:104A80005B1C05FB03F10F2B04D105EB450149002D
:104A900001EB55015368C3F303131DF8035021FACA
:104AA00005F3556804AEC5F302255268755D23FA17
:104AB00005F5C2F3C22206AEB25C23FA02F244B19B
:104AC000012C08D0022C08D0032C00D1104608B0CD
:104AD00070BD0846FBE71846F9E72846F7E70000EF
:104AE000000000000000000001020304060708099E
:104AF0000010024000127A00006CDC0200093D0048
:104B0000054901EB90110A6800F01F03012098404D
:104B100002430A607047000000100240054901EBA3
:104B200090110A6800F01F030120984082430A6038
:104B30007047000000100240054901EB90110A681F
:104B400000F01F030120984002430A6070470000F4
:104B5000001002402DE9F05F2B4C2927E068052862
:104B600000DA05270026DFF8A4A01CE006EBC6004B
:104B700000EB461900256FF0090B0AEB89080FE0DE
:104B8000A18801EB890000EB850080B2FCF70CFCEA
:104B9000FBF7FFFB5946FBF7F0FB48F825006D1CBF
:104BA000BD42EDDB761C60888642DFDBFCF788FDCA
:104BB0000025A1461BE005EBC50202EB45180024C9
:104BC0000AEB8807B9F8041057F8240001EB8801B4
:104BD00001EB84060A21FBF7D0FBFBF7E3FB014660
:104BE000B0B2FCF733FC641C292CEBDB6D1CB9F86C
:104BF000021048468D42DEDBC168002902DD491EF5
:104C0000C9F80C10BDE8F09F98010020CC4C0020A2
:104C1000704700002DE9F0410E4C00250E4FE56075
:104C20006280606088B29EB24FF48068A060A06825
:104C30002844FCF773F878556D1C4545F7DB074DA4
:104C400000243019FCF76AF82855641CFF2CF8DDA5
:104C5000BDE8F08198010020D46C0020D4700020C1
:104C60001FB5002211463620FFF738FE40F20470CF
:104C7000FFF746FF104C204601F08EFE0021ADF8F4
:104C800000104FF49660ADF80C10ADF80210ADF8BE
:104C9000041002908DF80E106946204601F0EAFEDD
:104CA000204601F023FD0121204601F037FF204678
:104CB00001F0D6FE1FBD000000100040014801F0C9
:104CC000D4BE000000100040014801F0C9BE000041
:104CD0000010004010B50B4C01212078FCF73CF986
:104CE00001216078FCF738F901212078FCF732FACD
:104CF00001216078FCF72EFA00F01EF8BDE81040A4
:104D000000F008B8F0000020014A107051707047A0
:104D1000F000002010B5074C00216078FCF71AFA6B
:104D200001212078FCF716FA6078BDE810400121D7
:104D3000FCF710BAF000002010B5094C0121607892
:104D4000FCF708FA01212078FCF704FA00216078CA
:104D5000FCF700FA2078BDE810400021FCF7FAB912
:104D6000F000002070B5104C00216078FCF7F4F8DA
:104D700001212078FCF7EEF900200C4D606001E085
:104D8000401C60606078FCF7FBF8012802D1606885
:104D9000A842F5D300212078FCF7DCF96078BDE863
:104DA00070400121FCF7D8B8F0000020A086010077
:104DB00070B50D4E0546002405F080017078FCF7B3
:104DC000C9F96806050E01213078FCF7C3F9002106
:104DD0003078FCF7BFF9641CE4B2082CECD3BDE8D2
:104DE0007040FFF7BFBF0000F000002010B54F4C2F
:104DF00001216078FCF7B0F80121A078FCF7ACF84D
:104E00000121E078FCF7A8F801212079FCF7A4F84B
:104E100001216078FCF79EF90021A078FCF79AF94F
:104E200000212079FCF796F90A20FDF7C7FF2078CA
:104E3000002853D1AE2000F087F8002000F084F85D
:104E4000102000F081F8402000F07EF8812000F072
:104E50007BF8CF2000F078F8A12000F075F8C8208A
:104E600000F072F8A62000F06FF8A82000F06CF8AF
:104E70003F2000F069F8D32000F066F8002000F031
:104E800063F8D52000F060F8802000F05DF8D920AC
:104E900000F05AF8F12000F057F8DA2000F054F84A
:104EA000122000F051F8DB2000F04EF8402000F016
:104EB0004BF8202000F048F8022000F045F88D2043
:104EC00000F042F8142000F03FF8A42000F03CF875
:104ED000A62000F039F8AF2000F036F8207801283D
:104EE00022D1AF2000F030F8402000F02DF8A020B3
:104EF00000F02AF8A62000F027F8A42000F024F8FB
:104F0000A22000F021F8C82000F01EF82F2000F0A9
:104F10001BF8252000F018F8812000F015F8BDE8F6
:104F20001040252000F010B810BD0000F80000204F
:104F300030B5044C039D20706170A270E370257140
:104F400030BD0000F800002070B50F4C064600216F
:104F50002079FCF7FFF80025300601D4002100E09D
:104F60000121A078FCF7F6F800216078FCF7F2F850
:104F70007006060E01216078FCF7ECF86D1CEDB2AE
:104F8000082DE9D370BD0000F800002070B50F4C6B
:104F9000064601212079FCF7DDF80025300601D412
:104FA000002100E00121A078FCF7D4F8002160780E
:104FB000FCF7D0F87006060E01216078FCF7CAF8FD
:104FC0006D1CEDB2082DE9D370BD0000F800002083
:104FD00010B5FFF77FFEAE2000F055F8002000F07E
:104FE00052F8102000F04FF8402000F04CF88120DB
:104FF00000F049F8CF2000F046F8A12000F043F877
:10500000C82000F040F8A62000F03DF8A82000F0ED
:105010003AF83F2000F037F8D32000F034F80020B1
:1050200000F031F8D52000F02EF8802000F02BF8A9
:10503000D92000F028F8F12000F025F8DA2000F05F
:1050400022F8122000F01FF8DB2000F01CF84020AE
:1050500000F019F8202000F016F8022000F013F8F4
:105060008D2000F010F8142000F00DF8A42000F0BE
:105070000AF8A62000F007F8BDE81040AF2000F0C5
:1050800002B8FFF741BE10B50446FFF755FE782081
:10509000FFF78EFE0020FFF78BFE2046FFF788FE0D
:1050A000BDE81040FFF736BE10B50446FFF744FEDA
:1050B0007820FFF77DFE4020FFF77AFE2046FFF7BD
:1050C00077FEBDE81040FFF725BE0000624B10B52B
:1050D000604A1A60624B614A1A60624AC2E903017F
:1050E000362000F023F9002000F012F93A2000F0F9
:1050F0001DF9052000F00CF9B22000F017F90C2082
:1051000000F006F90C2000F003F9002000F000F98F
:10511000332000F0FDF8332000F0FAF8B72000F05B
:1051200005F9352000F0F4F8BB2000F0FFF8192055
:1051300000F0EEF8C02000F0F9F82C2000F0E8F8BC
:10514000C22000F0F3F8012000F0E2F8C32000F0E4
:10515000EDF8122000F0DCF8C42000F0E7F8202081
:1051600000F0D6F8C62000F0E1F80F2000F0D0F8EB
:10517000D02000F0DBF8A42000F0CAF8A12000F055
:10518000C7F8E02000F0D2F8D02000F0C1F80420E9
:1051900000F0BEF80D2000F0BBF8112000F0B8F8C8
:1051A000132000F0B5F82B2000F0B2F83F2000F0FB
:1051B000AFF8542000F0ACF84C2000F0A9F818200B
:1051C00000F0A6F80D2000F0A3F80B2000F0A0F8E6
:1051D0001F2000F09DF8232000F09AF8E12000F055
:1051E000A5F8D02000F094F8042000F091F80C20ED
:1051F00000F08EF8112000F08BF8132000F088F8F2
:105200002C2000F085F83F2000F082F8442000F0C8
:105210007FF8512000F07CF82F2000F079F81F2053
:1052200000F076F81F2000F073F8202000F070F8EE
:10523000232000F06DF8212000F078F8112000F014
:1052400075F80A20FDF7BAFDBDE81040292000F0EE
:105250006DB80000B95300087C0100207D530008A0
:1052600080010020000100202DE9F04104461D4688
:1052700016460F462A2000F059F8204600F036F86E
:10528000304600F033F82B2000F050F8384600F09C
:105290002DF8284600F02AF8BDE8F0412C2000F057
:1052A00045B800002DE9F0410F4C07460021208A47
:1052B000401E83B2A089401E82B20846FFF7D4FF89
:1052C00000260BE0002504E0384600F00FF86D1CC6
:1052D000ADB220698542F7DB761CB6B2E068864243
:1052E000F0DBBDE8F08100000001002010B50446AD
:1052F000064801214079FBF72DFF200A00F024F831
:10530000E0B2BDE8104000F01FB80000000100202E
:1053100010B50446044801214079FBF71BFF2046E5
:10532000BDE8104000F010B80001002010B50446A0
:10533000044800214079FBF70DFF2046BDE81040EE
:1053400000F002B80001002070B50B4E05460024A5
:105350000021F078FBF7FEFE05F08001B078FBF746
:10536000F9FE0121F078FBF7F5FE6806641C050ED6
:10537000E4B2082CECD370BD0001002010B50D4C38
:105380006278002A14D1002812DBE26890420FDA1A
:1053900000290DDB226991420ADA8BB282B289B20E
:1053A00080B2FFF761FF2089BDE81040FFF79EBF84
:1053B00010BD00000001002010B50D4C2278002A1D
:1053C00014D1002812DBE26890420FDA00290DDBCD
:1053D000226991420ADA8BB282B289B280B2FFF7B7
:1053E00043FFE088BDE81040FFF780BF10BD00001C
:1053F00000010020014A5170108170470001002017
:10540000014A1170D08070470001002010B5034C94
:10541000A070E1702271637110BD000000010020D6
:1054200010B5FCF77FF80A20FDF7C8FC302000F02B
:1054300031F80A20FDF7C2FC302000F02BF80A20DA
:10544000FDF7BCFC0C2000F025F80A20FDF7B6FCA7
:10545000012000F01FF80A20FDF7B0FC062000F044
:1054600019F86420FDF7AAFC342000F013F80A2094
:10547000FDF7A4FC362000F00DF8BDE810400A202E
:10548000FDF79CBC024B187059709A707047000071
:105490001401002070B5214C064601216078FBF70D
:1054A00059FEFFF78BF800250121A078FBF752FE8B
:1054B000FFF784F80021A078FBF74CFEFFF77EF899
:1054C0006D1CEDB2052DEFD300216078FBF742FE95
:1054D000FFF774F80121A078FBF73CFEFFF76EF8A8
:1054E0000021A078FBF736FEFFF768F8002160780E
:1054F000FBF730FEFFF762F80121A078FBF72AFEE8
:10550000FFF75CF80021A078FBF724FEFFF756F8C0
:105510003046BDE87040FDF767BB00001401002075
:1055200070B5204C064601216078FBF713FE00257C
:105530000121A078FBF70EFEFFF740F80021A078CC
:10554000FBF708FEFFF73AF86D1CEDB2052DEFD31F
:1055500000216078FBF7FEFDFFF730F80121A0780D
:10556000FBF7F8FDFFF72AF80021A078FBF7F2FD22
:10557000FFF724F801216078FBF7ECFDFFF71EF838
:105580000121A078FBF7E6FDFFF718F80021A078CD
:10559000FBF7E0FDFFF712F83046BDE87040FDF77D
:1055A00023BB00001401002000487047E26C000893
:1055B00042207047024944F2506008627047000080
:1055C0001C00002072B6704762B6704770B5044682
:1055D000002211462520FFF781F940F20260FFF713
:1055E0008FFA40F20E60FFF78BFA1E4D4FF40073F6
:1055F000032218212846FFF777F82B1503220421F0
:105600002846FFF771F8184D284601F0DDFA2146CB
:10561000284601F0A5FA0021284601F05AFB002196
:10562000284601F048FB0021284601F036FB002106
:10563000284601F00BFB0021284601F001FB042164
:10564000284601F032FB0821284601F03CFB2846A1
:1056500001F0E6FA2846BDE8704040F2053101F05D
:10566000FBBA00000008014000380140002802D1C8
:10567000014801F075BA70470038014010B5024684
:10568000FDF74CFFBDE810401046FFF79FBF10B577
:10569000044602E0641C00F015F820780028F9D1D7
:1056A00010BD70B514460D4600280AD11A46214691
:1056B0002846FDF765FFBDE870404FF4E130FFF785
:1056C00085BF70BD01460020AFF3008010B50028F3
:1056D00009D1054C204601F073FA0721204601F05C
:1056E000A4FA0028F9D010BD003801400348016B2E
:1056F000491C0163016B491C016370471C000020B9
:1057000070B5384B0D46064600243046FBF73CFD8D
:105710002802186B00F10100186321D43046FBF712
:1057200027FD186B401C1863186B401C1863186B1E
:10573000401C1863186B401C1863186B401C1863DE
:10574000186B401C1863186B401C1863186B401CC6
:105750001863186B401C1863186B401C18632FE00B
:10576000186B401C1863186B401C1863186B401CA6
:105770001863186B401C1863186B401C1863186B77
:10578000401C1863186B401C1863186B401C18638E
:10579000186B401C1863186B401C1863186B401C76
:1057A0001863186B401C1863186B401C1863186B47
:1057B000401C1863186B401C18633046FBF7D8FC7C
:1057C000186B401C1863186B401C1863186B401C46
:1057D0001863186B401C1863641C6D0064B2182CAD
:1057E00093DB70BD1C00002030B5074A0021074C38
:1057F000936CB2F92C2003E05D18491C605509B286
:105800009142F9DB30BD000018010020AC020020FD
:105810000149086670470000180100200149C86569
:10582000704700001801002001498865704700009A
:1058300018010020034B83F8220003F8201F5A7040
:10584000704700001801002030B5064C039DA0856C
:10585000054860660548A066C4E91215C4E914232A
:1058600030BD000018010020DD5800087158000804
:10587000064A136E002B07DB00D101E04FF0010355
:1058800082F8233000F05CB8704700001801002057
:1058900010B500281CDB0F4A136D984218DA002956
:1058A00016DB536D994213DA4BB2DC1703EB5474D9
:1058B00024F007041B1BD46CC1F3CC0101FB0400D2
:1058C000916C80B208440449085CD840C00700D0FD
:1058D000012010BD18010020AC020020064AD36D43
:1058E000002B07DB00D101E04FF0010382F82330E9
:1058F00000F026B8704700001801002070B5C1F311
:10590000CC020D4B49B20D4DDC6CCE1702FB0400EE
:105910009A6C80B2141801EB567626F007062A5DC1
:1059200093F823300120891B884013B11043C2B281
:1059300000E082432A5570BD18010020AC0200200F
:105940002DE9F0430E4605003CD41F4C216D8D42DD
:1059500038DA002E36DB606D864233DA94F8202088
:105960000AB14D1B6D1E94F8211009B1861B761EDD
:1059700094F8220010B1284635460646A06D01284D
:1059800003D131462846FFF7B9FFA06D012819DB86
:1059900000EBD070A6EB6008A5EB600900260EE0D6
:1059A0004D46002705E041462846FFF7A7FF6D1C3E
:1059B0007F1CA06D8742F6D308F10108761CA06D0C
:1059C0008642EDD3BDE8F0831801002010B50C4AE3
:1059D00003460A4C92F91F00235404F10A03195498
:1059E0000A33002143F820102833012119540A33C7
:1059F00019540A331954411CD17710BDB04B002003
:105A000018010020014951F820007047C44B0020C4
:105A10002DE9F047DFF88480002408F13C0606F108
:105A20000A09A6F1320AA6F10A051D4F30E01B480B
:105A30000A38005DFBF7A4FA295D51EA000203D0A1
:105A400021B3012809D021E018F80400FBF798FAE7
:105A5000305501202855BDE8F08718F80400FBF701
:105A60008FFA09F80400315D012901D029B10BE05A
:105A700050B95AF82410491C04E0012804D15AF8FE
:105A80002410491E4AF8241000202855641CE4B252
:105A900097F91F008442CADBDDE70000BA4B002003
:105AA0001801002070B50546FFF78CFD002128463F
:105AB000FBF750FB1220FDF781F901212846FBF787
:105AC00049FB0320FDF758F900212846FBF744FA6B
:105AD0002846FBF755FA0128FAD02846FBF750FA7A
:105AE0000028FAD02846FBF74BFA0128FAD02846BE
:105AF00000F01AF80402284600F016F820440402C8
:105B0000284600F011F820440402284600F00CF862
:105B10000444284600F008F8FFF756FD0121284606
:105B2000FBF71AFA204670BD70B5002406462546DC
:105B30006006040E3046FBF723FA0028FAD0052051
:105B4000FDF71AF93046FBF71BFA012806D144F09D
:105B500001043046FBF714FA0128FAD06D1CEDB2AF
:105B6000082DE5D3204670BD70B506460024FFF72A
:105B700029FD002500213046FBF7ECFAFFF7B6FDC2
:105B8000FFF7B4FD01213046FBF7E4FA002130466F
:105B9000FBF7E2F964080120FDF7EEF83046FBF769
:105BA000EFF9012801D144F080040520FDF7E4F865
:105BB00001213046FBF7D0F90120FDF7DDF86D1C1F
:105BC0006DB2082DD6DBFFF7FFFC204670BD10B587
:105BD0000446FFF7F7FC00212046FBF7BBFA18202C
:105BE000FDF7CAF81820FDF7C7F81820FDF7C4F82C
:105BF00001212046FBF7AEFA0420FDF7BDF8002195
:105C00002046FBF7A9F91920FDF7B6F80121204637
:105C1000FBF7A2F9BDE81040FFF7D6BC70B50D4602
:105C20000646FFF7CFFC002400213046FBF792FA2E
:105C3000FFF75CFDFFF75AFD05F001013046FBF769
:105C400089FA6D080920FDF797F801213046FBF726
:105C500081FAFFF74BFDFFF749FDFFF747FDFFF71F
:105C600045FDFFF743FDFFF741FDFFF73FFD641CD6
:105C700064B2082CD8DBBDE87040FFF7A5BC00007B
:105C80002DE9FF4F85B0144611F47F0000D00120AC
:105C90005FEA00094FF000008EB2039003D0301D80
:105CA000FBF73CF802E0424830440079C00802901B
:105CB00020B20090B9F1000F03D0B01CFBF72EF812
:105CC00002E03B4830448078019000206AE0089868
:105CD000DA4605B200205AE0B9F1000F06D006EB13
:105CE0000A000930FBF71AF8044604E0304806EBD6
:105CF0000A010844447A059820B1012814D00228EA
:105D000022D034E00027E0072A4A0098294601D033
:105D1000526E00E0926E90476D1C7F1C6408FFB2CB
:105D20002DB2082FEFD322E00027E00704D0214A4C
:105D300029460098926E90476D1C7F1C6408FFB244
:105D40002DB2082FF1D312E00027E00708D0294632
:105D50000098FAF7FFFE18B1012009B0BDE8F08FF6
:105D60006D1C7F1C6408FFB22DB2082FEDD3B9F172
:105D7000000F03D0B01CFAF7D1FF02E00C4830440A
:105D8000807850441FFA80FA08F1010080B202992D
:105D900080468842A0D30098401C00B200900BF1CE
:105DA0000100C0B201998346884290D30398D4E79A
:105DB000AC020020180100202DE9FF4F1FFA81F8E6
:105DC00083B008F10200FAF7A9FF044608F10300C6
:105DD000FAF7A4FF04EB002080B2029008F104005F
:105DE000FAF79CFF0190410702D108B1C00802E018
:105DF000012101EBD0000090002035E0059800273C
:105E000058441FFA80F9109C24E000BF08EB0900F9
:105E10000930FAF783FF054610990198002601EB37
:105E2000000AE807144A0698214601D0526E00E0A5
:105E3000926E9047641C6D0824B2A24503DD761C67
:105E4000F6B2082EEDD302997F1C09EB01001FFA70
:105E500080F9FFB200988742D8D30698401C00B260
:105E600006900BF10100C0B2039983468842C5DB5E
:105E700007B0BDE8F08F00001801002002490122A0
:105E8000CA750876704700001801002005480021F7
:105E90000122C17541768176C276FF2242778177F1
:105EA00070470000180100200148407F7047000043
:105EB0001801002070B51F4CE07D002838D0607EAE
:105EC000002588B1A07E401CC0B2A076C8280BD99E
:105ED0002577A576A07F401CC0B2A077052803D304
:105EE0006576A577FF2022E0207EFBF749F8E17E6A
:105EF000E07601291CD100281AD1A577A17EA576CC
:105F000001206076207F401CC0B2207701280FD08E
:105F100002280DD0626C52086264102902D342F04C
:105F200000416164222803D12577606C000C607702
:105F300070BD000018010020024B03F8270F5970B4
:105F40009A707047180100202DE9F0410025184C87
:105F500007462E46F80728D05FF0010194F8270085
:105F6000FBF7F8F80520FCF71AFF7F08002194F8EA
:105F70002800FBF7EFF80520FCF711FF6D0894F8F7
:105F80002900FAF7FDFF08B145F08005012194F8DA
:105F90002800FBF7DFF80520FCF701FF761CF6B2BE
:105FA000082ED7D32846BDE8F0810021D6E70000AF
:105FB00018010020084A10754FF6FF7000EA4100F2
:105FC00040F4C06050850020907510640120507529
:105FD0000520FCF7F3BE00001801002010B5104C9E
:105FE000607D00281BD0206C42F6B10100F57A706C
:105FF0002064884213D3401A206494F82A0000F0E9
:106000000101207DFBF7A6F8608D40086085A07D2A
:10601000401CC0B2A0750B2801D10020607510BDD6
:10602000180100202DE9F04708AC184D94E8C0167F
:10603000DFF8548015F9254F48F8240008F11400C2
:1060400040F82410143040F82420143040F8243054
:10605000143000F1140140F82460283041F8247015
:1060600040F8249014303C3140F824A041F824C07A
:106070001431002021F81400641C05F801490120A6
:106080002870BDE8F08700000C4C002018010020AB
:10609000014981F82600704718010020044BA3F144
:1060A0006C0292F925209854581D815470470000C5
:1060B000840100200348002180F8251000F8241FE7
:1060C000817070471801002070B5084D95F82400C4
:1060D00000280AD0002404E0204600F009F8641CDF
:1060E00064B295F925008442F6DB70BD18010020EA
:1060F0002DE9FC5F04466A4850F824106948415C69
:106100005FEA010A6FD066490546654814311438C4
:1061100051F8241030F8240015F8019080B2FBF7F4
:1061200043F900905E48283830F8240080B2FBF72D
:106130003BF901905A48283050F824002E5C58480A
:106140003C3050F8240015F800805548503050F885
:1061500024002F5C5248643030F8240080B2FBF7F2
:1061600013F905B24E48783030F8240080B2FBF7BE
:106170000BF9DFF82CB101B20BF18C0B96B3B8F12F
:10618000000F06D08D4202DA6D1C2DB201E04FF0F7
:106190000008B9F1000F04D11FB1012D01DD6D1E02
:1061A0002DB23BF8141029443D482BF814106430EC
:1061B000294630F8240080B2FBF740F93848394EC0
:1061C0003C3042F2107250F8240006F800803BF98F
:1061D0001400904256DB801A2BF81400B9F1000F1E
:1061E00006D027E000E04DE03BF814201144DBE747
:1061F0000198002841DDA0F10108294841462838CE
:1062000030F8240080B2FBF721F99FB915FB05F0A7
:1062100044F6206190FBF1F080450BDA204A002122
:106220003C32012052F82420B1541D49503151F81C
:10623000241070541C48BAF1010F005D24D00121D4
:10624000FAF788FF0099491E1548143830F82400E1
:1062500080B2FBF7FBF81448134D6C386D1D90F8B5
:1062600026000028285D15D0FAF768FFC043C1B2A8
:10627000285DBDE8FC5FFAF76DBF0949002051F8C1
:1062800024107054BDE8FC9F0021FAF763FF0099C9
:10629000491CD9E70121FAF75DFF285D0021E8E7F5
:1062A000344C0020AC020020840100202DE9F04194
:1062B00017460E468046FFF785F900240A4D09E08F
:1062C000381941198B784A78295C404600F023F848
:1062D000E41C24B2B442F3DBFFF776F9BDE8F041E9
:1062E0000A20FCF749BD0000AC0200202DE9F04176
:1062F0001C4615460E460746FFF764F923462A4614
:106300003146384600F007F8FFF75EF9BDE8F04186
:106310000A20FCF731BD01EB022103EB0121FFF75D
:10632000EFB9000010B5084B00241C705C709C7124
:1063300000F0B4F85C75FFF7A9FDDC77FEF768FCA8
:10634000BDE81040FFF7B6BE1801002070B5094C3B
:10635000049E142520720120A07165723C25A5724F
:106360000025E57220736573A073E1732274637472
:10637000A67470BD1801002070B5224CA0790028C9
:106380003FD0E079401CC0B2E071217A884238D316
:106390000020E07194F90500642190FBF1F201FB0B
:1063A0001201617159B10025164894F90920C07B8A
:1063B000914206DB0021FAF7CDFE002106E001251F
:1063C000F2E735B1E17AFAF7C5FE217B207CFAF7D6
:1063D000C1FE94F9050094F90A10884205DB0021FA
:1063E000607CFAF7B7FE002105E03DB1617B607C7F
:1063F000FAF7B0FEA17BA07CFAF7ACFE6079401CF6
:10640000607170BD1801002070B5054CDDE90456BF
:106410006072A172E27223736573A67370BD00008F
:106420001801002070B500F020F8094C2078401CBD
:10643000C0B220700A280AD30025257000F00AF89F
:106440006078401CC0B260700A2800D3657070BDCF
:106450001801002010B5FFF78FFFFFF72BFDFFF7A6
:10646000D7FABDE81040FFF72FBE10B500F028F8AE
:1064700000F062F8BDE81040FFF7B0BD034B012209
:10648000DA7403F1760211547047000018010020FD
:10649000014A42F820107047904B00200749FF2026
:1064A000087048708870C870087148718871C87128
:1064B00000207639C863C874704700008E01002040
:1064C00070B5174CE07C002828D0A26B2046521CE7
:1064D000A263C16B04F17605FA2A685C08D0FF2834
:1064E0001CD0104B53F82110914217D1002111E01C
:1064F000FF2802D00021FAF72DFE0021A163E06BF6
:10650000401CE063082800D1E163E06B285CFF28B1
:1065100004D00121BDE87040FAF71CBE70BD000038
:1065200018010020904B002002490022CA70087117
:10653000704700001801002010B50B4CE0780028CF
:106540000FD0206B0A302063616B884209DB401A50
:106550002063A1782079FAF7FDFDA07810B1002022
:10656000A07010BD0120FBE718010020024948631C
:106570000120C87070470000180100200149002068
:10658000C8707047180100202DE9F04100250F4622
:1065900006462C46FFF716F801213046FAF7DAFDD9
:1065A0000120FCF7E9FB00213046FAF7D3FD4CF25D
:1065B000503602E0641CB44204DA3846FAF7E0FCD4
:1065C0000028F7D0FCF7A2FF44F6206409E000BFE2
:1065D000FCF77AFF0546FCF775FFB5FBF0F5A54221
:1065E00004D83846FAF7CCFC0128F1D0FEF7ECFFCE
:1065F00005EB05104000C821B0FBF1F0BDE8F081CB
:1066000010B500F006F8BDE810404FF47A70FCF7C2
:10661000D5BB10B5FEF7D8FFFAF7CAFFFEF7CAFFE1
:10662000FCF7CBFBFAF770FBFCF730FFFEF718FB2B
:10663000BDE81040FAF750BE26480021026842F437
:1066400080320260C3140268491C12F4003F01D179
:106650009942F8D10168890300D4FEE71E490A680F
:1066600022F007020A600A6842F003020A604168E9
:10667000416041684160416841F480614160416826
:10668000164A114041604168154A11434160C16A90
:10669000144A1140C162C16A134A1143C1620168C0
:1066A00041F08061016001680901FCD5016841F099
:1066B0008071016001688901FCD5416821F0030106
:1066C0004160416841F00201416041680907FCD521
:1066D000704700000010024000200240FFFFC3DFAF
:1066E0000000352000F0FEBF19080100016841F0EC
:1066F000800101607047000030B5724B724C49B3A5
:1067000001295FD002297DD0032922D1016A21F419
:1067100080510162016A158841EA05310162016A0E
:1067200021F400510162016A958841EA0531016254
:10673000984201D0A04208D1416821F480414160D3
:106740004168128941EA82114160C16921F44071B6
:10675000C16130BD016A21F001010162016A158841
:1067600029430162016A21F002010162016A9588F0
:1067700029430162984201D0A0421FD1016A21F051
:1067800004010162016A538819430162016A21F020
:1067900008010162016AD38819430162416821F44A
:1067A000807141604168138919434160416821F457
:1067B000007141604168528911434160816921F053
:1067C00003013EE0016A21F010010162016A1588AF
:1067D00041EA05110162016A21F020010162016AAA
:1067E000958841EA05110162984201D0A04225D165
:1067F000016A21F040010162016A538841EA0311F4
:10680000016200E01FE0016A21F080010162016A7B
:10681000D38841EA03110162416821F4806141603B
:106820004168138941EA83014160416821F40061B4
:1068300041604168528941EA82014160816921F4E5
:106840004071816130BD016A21F480710162016A89
:10685000158841EA05210162016A21F40071016293
:10686000016A958841EA05210162984201D0A0425F
:1068700023D1016A21F480610162016A538841EAEF
:1068800003210162016A21F400610162016AD38877
:1068900041EA03210162416821F48051416041686D
:1068A000138941EA03114160416821F400514160BC
:1068B0004168528941EA02114160C16921F0030136
:1068C00046E70000002C01400034014071B101296D
:1068D00013D002291AD0032907D1C16921F4E0415C
:1068E000C161C16941EA0221C1617047816921F03A
:1068F000700181618169114306E0816921F4E04101
:106900008161816941EA022181617047C16921F099
:106910007001C161C1691143E6E739B1012907D0AE
:10692000022907D0032900D10264704742637047EF
:1069300082637047C263704771B1012913D0022985
:106940001AD0032907D1C16921F40061C161C1696D
:1069500041EA0221C1617047816921F0080181612A
:106960008169114306E0816921F4006181618169D7
:1069700041EA022181617047C16921F00801C161CA
:10698000C1691143E6E70021018041808180C18017
:1069900001814181704700002E4A10B5811A1415FB
:1069A000904248D01ADC2C4AA0EB0201904233D02E
:1069B00009DCB0F1804F43D02849401829D0A042CB
:1069C00046D1841C3CE0A14229D0B1F5006F29D00A
:1069D000B1F5406F3CD140F2064431E0B1F5983F4B
:1069E00023D00ADCA14229D0B1F5883F0ED0B1F501
:1069F0008C3F2DD140F20D3422E0B1F59A3F17D0F3
:106A0000B1F59C3F24D140F2153419E040F20B342B
:106A100016E040F2014413E040F2034410E040F27B
:106A200004440DE040F205440AE040F2133407E06C
:106A30004FF4457404E040F2074401E04FF48164F0
:106A40002046FEF779F82046BDE81040FEF766B80C
:106A500010BD0000001C0040000C004000FCFFBF07
:106A6000016821F0010101607047016841F00101F6
:106A70000160704730B50A888262214A214B9042FA
:106A80000DD0B0F1804F0AD01F4CA04207D01F4C50
:106A9000A04204D01E4CA04201D0984209D1046803
:106AA00024F07004046004688D7805F060052C43C0
:106AB00002E0046824F01004046004680D7905F015
:106AC00010052C4304608C68C462124CA0420ED0A6
:106AD000114CA0420FD0046824F440740460046890
:106AE0008D8905F440752C430460904201D0984292
:106AF00001D1897B0163416941F00101416130BDF0
:106B0000002C014000340140000400400008004017
:106B1000000C00400010004000140040C2680A430E
:106B2000C260704702698A430261704710B528B19C
:106B3000C1B2BDE810405220FAF7B8B8064C074A77
:106B4000618A505C491C89B26065515CA165FFF7A0
:106B50001BFD206410BD000050000020AC0200208E
:106B600070B5134B04460D460020E11A1A159C42DD
:106B70001BD005DC0F49611817D0914208D114E0F1
:106B8000914212D0B1F56C4F02D10320FDF728FFDE
:106B900000EB5500B0FBF5F14FF6F07201EA020090
:106BA00001F00F010843A06070BD0220EEE7000075
:106BB000004C004000BCFFBF4068C0F308007047B5
:106BC000C1F3080141607047134B10B5C21A191583
:106BD000984213D007DC114A80180CD088421AD191
:106BE00040F212440FE08A420BD0B2F56C4F12D142
:106BF00040F20E3407E040F2114404E040F2134446
:106C000001E040F214442046FDF796FF2046BDE81F
:106C10001040FDF783BF10BD004C004000BCFFBF1B
:106C2000C16841F40051C160704700EB91100068E9
:106C300001F01F0201219140084000D0012070475F
:106C4000426922F400720A4342617047426922F4A9
:106C500080720A434261704700EB9110026801F0B4
:106C60001F03012199400A430260704710B5C1F328
:106C70008912835800EB915001F01F04012202FA9F
:106C800004F400682340C1F304418A40104202D05A
:106C90000BB1012010BD002010BDC26822F4C062FB
:106CA000C260C2680A43C2607047C26822F0040230
:106CB0000A43C2607047026922F4405202610269CD
:106CC0000A4302617047C26822F008020A43C260A8
:106CD0007047C26822F48052C260C2680A43C26030
:106CE00070474350553A474433324531303343427D
:106CF00054362C465245513A3132302C43433A31C6
:106D000000000000246D000800000020AC0100001D
:106D10001E050008286D0008AC0100202C7400003E
:086D2000C443000801FF01AFAC
:04000005080001519D
:00000001FF
