:020000040800F2
:10000000E01E0020E1000008ED120008B50D000818
:1000100000000000000000000000000000000000E0
:10002000000000000000000000000000E11F0008C8
:100030000000000000000000111400087D250008E9
:10004000F3000008F3000008F3000008F3000008C4
:10005000F3000008F3000008F3000008F3000008B4
:1000600000000000F3000008F3000008F30000089F
:10007000F3000008F3000008F3000008000000008F
:10008000F3000008B528000800000000F300000895
:10009000F3000008F3000008F3000008F300000874
:1000A000F3000008F3000008F3000008F12800083E
:1000B000F300000800000000000000000000000045
:1000C000F300000800000000F30000080348854624
:1000D00000F0CAF8004800472B440008E01E00204A
:1000E0000448804704480047FEE7FEE7FEE7FEE7D6
:1000F000FEE7FEE7BD270008CD000008F8B50024A4
:100100002546002904DA0E46012400214042B1416F
:10011000002B04DA1E46002352420125B34100F0B1
:1001200062F88C4617461E46AC4203D0002540427A
:100130008D41AC46002C02D0002657429E416146BC
:100140003A46334601B0F0BDF0B51FB486B000208A
:100150000090019002900698069980B2049007984A
:10016000090C02040014114307900027089D099808
:1001700006913E463C4603900398A9B20204000C47
:10018000039004982D0C154348430021224600F0AB
:100190005AF8C719714110340E46402CECDB384632
:1001A000029A00F050F8009A019B80180090594183
:1001B00002980191103002904028CCDB00980BB0DF
:1001C000F0BDD2B201E00270401C491EFBD2704764
:1001D0000022F6E710B513460A4604461946FFF713
:1001E000F0FF204610BDF0B51FB40646002082B0D7
:1001F00005464024019100901BE0019922460F46DC
:10020000304600F043F8049A059B801A994110D3B8
:1002100010461946224600F016F8361A8F4101970B
:10022000224601200021009F00F00DF838184D41B2
:1002300000902046641E0028DFDC019B00982946C0
:10024000324607B0F0BD10B5202A04DB0146203A43
:100250009140002010BD914020239C1A0346E340AA
:100260001943904010BD0000064C0125064E05E0E4
:10027000E36807CC2B430C3C98471034B442F7D3C7
:10028000FFF728FF1C9C00082C9C000810B5202AB2
:1002900004DB0846203AD040002110BD0B46D34075
:1002A000D0402024A21A91400843194610BD0000F6
:1002B000F0B583B0CA49CB4A082877D848F200077E
:1002C000830001A41B199F4600F010B800F074B819
:1002D00000F0A3B800F0B4B800F0C6B800F0D8B889
:1002E00000F0FDB800F025B900F064B9E748858E4C
:1002F000BD4E745D7019407803021C4320461043C4
:100300003B4200D00446DE4802944462A81C0840E8
:1003100033189F783446DE7836023E4336025B78E7
:1003200033431B02205C18430190F94B9862AB1DCC
:100330000B402046C618B778F47824023C432402C8
:10034000767826433402C75C2743F14B9F642B46E3
:100350000A330B40C418A678E07800023043EC4E14
:100360000002647804432002E84CE35C0343F36436
:100370000E350D40615D60194078000201430A436B
:1003800048F20004204200D011463165E248029A4A
:10039000428309B2019A8263C7630364416494484B
:1003A000F94908659348486503B0F0BDC1B25220D1
:1003B00000F00EFC03B0F0BDF348858EF34C605D99
:1003C0006E1CA35D1B02184302433B4200D0104643
:1003D000EF4AD0620E40A3199F78DA7812023A43AE
:1003E00012025B7813431A02A35D1A43E84EB2620D
:1003F000AA1C0A40A1188D78CE7836022E43350209
:10040000497829430902A25C1143E14C2163C249A6
:1004100008744B748A7403B0F0BDDB48808EDB49EE
:100420000A189378D47824021C43230252781A4382
:100430001202085C1043D6494862B7498864CDE08F
:10044000D148808ED1490A189378D47824021C436D
:10045000230252781A431202085C1043CC494862C6
:10046000AD49C86403B0F0BDC748808EC7490A18BB
:100470009378D47824021C43230252781A43120240
:10048000085C1043C2494862A349086503B0F0BD47
:10049000BD48848EBD4A10198378C5782D021D434E
:1004A0002B02407818430302105D1843F64B586244
:1004B000241D0C4011198D78CE7836022E4335025A
:1004C000497829430D02115D2943D963924AD36CBF
:1004D000002B00DA82E0012433BB1C4624E0EB4809
:1004E000848EAA4A10198378C5782D021D432B02E9
:1004F000407818430302105D1843E34B5862241DF3
:100500000C4011198D78CE7836022E433502497889
:1005100029430D02115D2943D9637F4A136D002BD6
:100520005CDB012403B91C46D47407F005FB03B05F
:10053000F0BDD648848E954A10198378C5782D026F
:100540001D432B02407818430002135D0343CE483D
:100550004362241D0C401519AE78EF783F023743F3
:100560003E026D7835432D02165D3543C563012487
:10057000002B1CDB002D1ADB674FF86B984215DD52
:10058000386CA842C04812DD0720064001242046EE
:10059000B040ED08154E2E407D6C7543EB180B40B6
:1005A000B96B5918515C014001B90C46B648046159
:1005B00003B0F0BDB548818E7448425CB249CA624E
:1005C0001A21554B595E012908DB9B6BC018491E47
:1005D00089B2491CFFF7F5FD03B0F0BD03B0F0BDD3
:1005E000FFFF00000000FFFF50030020FF1F00007E
:1005F0001D7B0008017B0008F0B581B0A2480021F6
:100600000166204CAA21204609F09AF81E4D20468A
:10061000294609F0BAF80028F8D00221204609F04E
:100620008FF8ADB22046294609F0AFF80028F9D07E
:1006300000262046314609F083F82046294609F075
:10064000A4F80028F9D0F321204609F079F82046D3
:10065000294609F09AF80028F9D029208B4F395CF7
:10066000204609F06DF82046294609F08EF800284A
:10067000F9D000F00DFD2A203E5401B0F0BDC04677
:100680008000002000380140070700000000002023
:1006900070B5012821D0A0BB7C48818E3B4A535CB9
:1006A0007948C362491C89B2545C84620F221A499A
:1006B0008A568D186826AB55184B9C549400154EDD
:1006C00034190026A664722401262E559B189E72AA
:1006D0001E75531CCB73026170BD6C48808E2B4914
:1006E000085CFF21C94301438022104200D0084624
:1006F0006549486200068015064A1018806C08613A
:1007000070BDC1B2522000F063FA70BD50030020EA
:1007100080000020E002002060010020E0010020B5
:1007200010B5022818D0012809D038BBF848808EAF
:10073000F949085CF749C86207F05CFD10BDF44850
:10074000818EF54A505CF34BD862491C89B2515CEA
:10075000996207F001FE10BDED48808EEE49085CFD
:10076000FF21C94301438022104200D00846E94CD2
:10077000E062C0B207F082FC206110BDC1B252201D
:1007800000F026FA10BDC0460000002050030020F3
:1007900080000020B0B5DF4C216E4A1C2266AA22E0
:1007A000032920D88B0001A55B199F4600F006B8ED
:1007B00000F009B800F00BB800F010B890425ED01D
:1007C00000202066B0BD4A21D14A5052B0BD4A2116
:1007D000CF4A535A000218185052B0BD2821CC4BB2
:1007E0005854014602E02821C94B595CC84B1D787A
:1007F0005DB14A205532D2B2914232D1185A012805
:100800002FD1002003F0A6F9B0BD0A46F03A0F2A16
:1008100030D8930001A55B199F46C04600F01EB872
:1008200000F022B800F023B800F02AB800F022B897
:1008300000F020B800F01EB800F01CB800F01AB8A4
:1008400000F018B800F016B800F014B800F012B8B4
:1008500000F010B800F00EB8FFF7D3BF01F0C6FCEF
:10086000B0BD00202066B0BD01F00CFEB0BD00F0B0
:1008700023FEB0BD502000F0ABF900202066B0BDD3
:100880000020FFF7B9FEB0BD80000020000000206E
:1008900070B5441E01229D4B182C00D9E5E0A5003F
:1008A00001A6AD19AF46C04600F030B800F032B82E
:1008B00000F034B800F036B800F038B800F04AB8AC
:1008C00000F04CB800F04EB800F050B800F066B838
:1008D00000F068B800F06AB800F074B800F080B8B2
:1008E00000F08EB800F090B800F092B800F094B824
:1008F00000F096B800F098B800F09AB800F0ADB8E3
:1009000000F0AFB800F0B1B800F0B7B8084600F09A
:1009100035FE70BD084600F04FFA70BD084601F084
:1009200073F970BD084601F023F870BD022900D1AB
:10093000D3E0012900D1D4E0002900D0A9E0EA48A1
:10094000808EEA49085CEA49C862744900220A704C
:10095000487070BD084600F03BFC70BD084601F0D1
:1009600007FC70BD084601F0CFFA70BD002900D029
:100970008FE0DD48858EDD4C605DDD4EF062691CE8
:100980001940615CB162AA1C1A40A25C3263ED1C82
:100990001D40635D736308F003FA70BD084603F001
:1009A000B5F970BD0846FFF7BBFE70BD002970D1D8
:1009B000FC48808EFC49085CFC4CE06207F09EF924
:1009C000206170BD012969D0002962D1F548808E6F
:1009D000F549085CF549C8625049CA71487370BD51
:1009E000002956D1EF48818EEF4A505CEF4CE0620F
:1009F000491C1940515CA16208F09EFB206170BD4A
:100A00000846FFF745FE70BD0846FFF751FC70BD74
:100A1000084600F027F970BD084600F06BF970BD7C
:100A2000084601F09DFF70BD084601F039FC70BD1D
:100A3000012938D069BBDB48818EDB4A545CDB4D31
:100A4000EC624E1C1E40965DAE62891C1940515CE2
:100A50002963C4740675417570BD084600F09EFC9C
:100A600070BD084603F07CF970BDC1B2522000F0A1
:100A7000AFF8CC480021017070BD01291DD041B9EB
:100A8000C848818EC84B595CC84BD96281760276C2
:100A900070BDC9B2522000F09BF870BD1F48C07AEB
:100AA000FB49086170BDF848808EF849085CF84C35
:100AB000E06207F05BFF206170BDEFF3108072B65B
:100AC000F1494A7E002022B94A8E12B100204886A0
:100AD000104662B6EE49086170BD104800210170F1
:100AE00070BDE948808EE9490B189C78DD782D02AD
:100AF00025432C025B7823431B02085C1843E4491E
:100B00004862064948620A7070BDC046FFFF000097
:100B10000000002080000020500300206001002021
:100B200070B505464D4CAA21204608F009FE4C4EF2
:100B30002046314608F029FE0028F8D0052120463D
:100B400008F0FEFDB6B22046314608F01EFE002831
:100B5000F9D00021204608F0F3FD2046314608F088
:100B600014FE0028F9D0FD21204608F0E9FD2046BA
:100B7000314608F00AFE0028F9D0E9B2204608F014
:100B8000DFFD2046314608F000FE0028F9D0280A93
:100B9000C1B2204608F0D4FD2046314608F0F5FDEC
:100BA0000028F9D0280CC1B2204608F0C9FD204623
:100BB000314608F0EAFD0028F9D0290E204608F059
:100BC000BFFD2046314608F0E0FD0028F9D070BD99
:100BD000F0B581B00D460746204CAA21204608F00A
:100BE000AFFD1F4E2046314608F0CFFD0028F8D05B
:100BF0000321204608F0A4FDB6B22046314608F095
:100C0000C4FD0028F9D00021204608F099FD2046B7
:100C1000314608F0BAFD0028F9D0FE21204608F040
:100C20008FFD2046314608F0B0FD0028F9D0F9B21A
:100C3000204608F085FD2046314608F0A6FD002834
:100C4000F9D0E9B2204608F07BFD2046314608F095
:100C50009CFD0028F9D001B0F0BDC046003801402D
:100C600007070000F0B581B0012837D18648858E8E
:100C7000864B585D8649C8620C46691C89B25A1871
:100C80009678D7783F0237433E02527832431202B9
:100C9000595C1143A1626A1D92B29E18B778F4782C
:100CA00024023C4324027678264334029A5C224391
:100CB000774C62620935ACB21D19AE78EF783F020D
:100CC00037433E026D7835432D021B5D2B43704C3C
:100CD000E36307F001FC206101B0F0BDC1B2522016
:100CE000FFF776FF01B0F0BD0000002050030020A8
:100CF00080000020F0B583B001284DD16248858E78
:100D0000624B585DFF21C94301438022104200D04D
:100D100008465F4F02907862691C89B25A1894782D
:100D2000D678360226433402527822431202595CA6
:100D30001143F9626A1D92B29C5C9A1852781202B1
:100D40002243BA62EC1DA6B29C5D9E1976783002F1
:100D50000443174F26463E4348F20003184200D092
:100D600034464B4EF4630935A8B2484B1D5C181845
:100D70004078000205432F4348F20003184200D098
:100D80003D46B56428B26B46186023B2029840B263
:100D900007F030FD03B0F0BDC1B25220FFF718FFDD
:100DA00003B0F0BD000000205003002080000020B0
:100DB0000000FFFFFEE70000F0B583B0022811D06D
:100DC000012847D0002858D1F748818EFC4A535C4F
:100DD000FA4CE362491C89B2515CA1624370817094
:100DE00003B0F0BDF048808EF54D29188A78CB7895
:100DF0001B0213431A024978114309022C5C0C436D
:100E0000EE48C46200273E4600973046B030C0B27C
:100E100004F0F6FD2520E449085C04F0F1FD102003
:100E200004F0EEFDF0B2401C019002942646009CB6
:100E3000B0B2285C04F0A4FE761C601C44B2002C06
:100E4000F6DA029C80347F1CF8B20828019EDCD3BD
:100E500003B0F0BDD448818ED94A515CFF22D24301
:100E60000A438023194200D01146D44A51622522F8
:100E7000815404F049FD03B0F0BDC1B25220FFF728
:100E8000A7FE03B0F0BDC0460000002050030020C4
:100E900080000020F0B587B078480123036002226B
:100EA000426015460422826016460821C1600F4642
:100EB000102105910161202101914161402104919E
:100EC000816180210091C16140F20014046240F20E
:100ED0000024446240F20044846240F60004C4628C
:100EE00041F20004046342F20004446344F200044B
:100EF000846348F20004C463069303642A460392A1
:100F000042643546029585643E46C664059901658E
:100F1000019F4765049981650099C16540F20014FD
:100F2000046640F20024446640F20044846640F6C1
:100F30000004C46641F20004046742F200044467FE
:100F400044F20004846748F20004C46743508424D8
:100F50000251882405518C24065132469024059B69
:100F60000351942407519824049D05519C24015158
:100F70000E46A02440F200110151A42440F20021A9
:100F80000151A82440F200410151AC2440F6000177
:100F90000151B02441F200010151B42442F2000198
:100FA0000151B82444F200010151BC2448F200016F
:100FB0000151C02406990151C42403990151C8214B
:100FC000029C4450CC214250D0214350D421475060
:100FD000D82145500746DC217E50E02040F2001128
:100FE0003950E42040F200213950E82040F200411D
:100FF0003950EC2040F600013950F02041F2000158
:101000003950F42042F200013950F82044F2000136
:101010003950FC2048F20001395000201849194A83
:10102000DD4D0923DB061028144607D3541C164B4C
:10103000202803D3941C154B2F2802D88600AB51CF
:101040000C80891C401C4028EBD10698C6433D46C5
:1010500000270B4C701C7843205A03F055FB304698
:101060007843CD49095828588861BF1E38468030DA
:10107000F0D102F0DDFE07B0F0BDC046D01900206F
:101080005019002011050000000400480008004825
:10109000F0B583B0DB4C00256574A57425669248D5
:1010A00005772A214554382145544621029145545B
:1010B000E8433E49086048603D4EB562F5703571C1
:1010C000F5713572757201200190B072FF20F072D7
:1010D0003573F57335757575B575A57565662576C2
:1010E000657665863348856345630563C5628562B9
:1010F0008564C56445640564C56364203552622017
:101100003552602035525E20355266203552E1203E
:10111000400206F087FC6567A586E586258765871A
:10112000A587E587A567E567402023492152E57635
:1011300025774220255244202552B44F3D607D60E2
:101140006577A5770298255248202552BD60FD603D
:101150003D617D61BD61FD61E5773D6220202554E3
:10116000A94841F20041FFF733F8212025542220FD
:10117000255423202554272025542570F069007814
:1011800003280ED101982070FD650E4800680E49B5
:101190004A1C081AA266E0660C4808F032FA03B04E
:1011A000F0BD03B0F0BDC04600000020D01A002002
:1011B00060010020E0010020FF13000080000020FB
:1011C0005003002018E000E07FFC0A0000100040FF
:1011D000F0B582B0434901284AD000287CD1E348C9
:1011E000808E894E32189378D47824021C432302CF
:1011F00052781A431202375C3A43DB4C6262021D9A
:101200000A40B25C0192E262431D0B40F35CA362B0
:10121000851D0D40755D2563C01D0840315C61630F
:10122000D24A106E461C1666C0B20E2646432E4C9D
:10123000A619F7770124347720271422F2552122AA
:101240003C27B75422220027B7542322B454242227
:10125000B7542522B4542622019CB4542722B354F7
:101260002822B5542922B154BF49086102B0F0BD0B
:10127000BE48858E644B585D0190BB4CE062681C93
:101280000840185C0090A062A81C08401E5C266301
:10129000E81C08401F5C6763281D08401A5CA263B5
:1012A000681D0840185C2064AD1D0D40595D6164E7
:1012B0000E23019C63430C4CE3182024009D1D5514
:1012C00021241E5522241F5523241A5524229854C4
:1012D0002520195402B0F0BDC1B25220FFF778FCAE
:1012E00002B0F0BDFFFF00000001002070470000C9
:1012F000F0B581B09D48807B86006D4883596D4F65
:10130000B859012500242946224603F03FF86848D1
:101310008359B85903262146324603F05CF89348B6
:10132000C07B87006248C3596248C059294622469B
:1013300003F02CF85E48C3595E490846C05921465F
:10134000324603F048F88948007C87005848C35962
:1013500058490846C0592946224603F017F8544810
:10136000C3595449C8590D462146324603F033F853
:101370007E4A907B80002C4621584D4B185888613E
:10138000D07B8000215818588861107C800021583B
:101390001858886201B0F0BD5018002070B50128BF
:1013A00007D048BB7148808E1749085C6E49C862F7
:1013B00070BD6E48828E14498B5C6B48C362531CAF
:1013C0009BB2CC18A578E67836022E4335026478B5
:1013D0002C432402CB5C2343C363521D92B28B186F
:1013E0009C78DD782D0225432C025B7823431B0279
:1013F000895C1943816470BDC1B25220FFF7E8FBDC
:1014000070BDC04600000020500300208000002076
:1014100070470000F0B581B0020AD2B2042A32D877
:10142000930001A41B199F4600F008B800F01CB8F7
:1014300000F029B800F025B800F02BB8C0B2850044
:101440001B4E73591B4F7859FF2211422AD001219C
:101450000024224602F09AFF73597859032221464C
:1014600002F0B9FF01B0F0BDFF2428221823214269
:1014700000D01A46C0B280000E4909580C4B1858CB
:10148000885001B0F0BD53200121FFF7A1FB01B04E
:10149000F0BDC0B2800006490B5806490858032128
:1014A000002201E00021012202F070FF01B0F0BD36
:1014B000D019002050180020F0B581B02A4B196EC9
:1014C000062906D005294DD14E222849885201B05F
:1014D000F0BD00904E21254A555A00271F66244C26
:1014E000AA21204608F02CF92D02224E2046314632
:1014F00008F04BF90028F8D00121204608F020F927
:10150000B6B22046314608F040F90028F9D0012152
:10151000204608F015F92046314608F036F9002833
:10152000F9D0F221204608F00BF92046314608F0A8
:101530002CF90028F9D04FF60070054000980543BB
:1015400078190D49C969095C204608F0F9F8204668
:10155000314608F01AF90028F9D07F1C40F200103B
:101560008742EDD101B0F0BD8000002000000020D6
:10157000003801400707000060010020F0B58DB081
:10158000F44B032800D9CBE1810001A289188F46D2
:1015900000F006B800F0CAB900F020B800F0EFB8CB
:1015A000ED48858EED4A515D0C91EE4CE1626E1C6A
:1015B0001E40965DA662AF1C1F40D75D2763E91CE5
:1015C0001940515C61632D1D1D40525DA2630C9B4F
:1015D000C370067147718171C2719FE1DE48818ECF
:1015E000DE4D6A189378D47824021C432302527883
:1015F0001A4312026B5C1343DA490493CB62242131
:10160000415C029101790C914579C07901900020EB
:10161000D54ED6490346009002460695039201989E
:101620008200B05809928958816205931846B030FB
:10163000009D3346C20810210B919143069A9700F2
:10164000DA595118C94A1E461346DA598A610C996B
:10165000890072580A925A580A9CA26272585958C4
:1016600033469161400040F2FE1108406D1CE9B222
:101670000829DFD309995858BC4A13465958816242
:101680000020029AF1590A91D2B2D5080B99A943C8
:101690000A9D6918DD598D610C99890075580A9564
:1016A0005D580A9CA56275585958A9615200401CA2
:1016B000C1B20829E6D309997058595881620020AF
:1016C0000B990D460A46E90814468A43F1598918D0
:1016D000DA598A610C99890072580B925A5833462C
:1016E0003E460B9FBA6237461E46A04B7258595869
:1016F0009161224640F2FE111E396D000D40401CE2
:10170000C1B20829DFD308970598C0B2401C0590E4
:101710000020049907900A900B918AB28F48825C4E
:1017200009983558914F3958A961079D089BF15880
:10173000D2B2D008102484430819F95881610C985A
:10174000800031583C588C623158385888615200BA
:101750006D1CE8B20828EAD30B99491C0A98401C72
:1017600040B20028D7DA049880300490039A521CC3
:10177000D0B208287D49059B00D24FE7CEE07648DD
:10178000848E7648015D0219527816023143744AFC
:101790000F46174348F200052E4200D03946714EDD
:1017A0007162A61C1E40875D861976783602374323
:1017B0003A4348F200052E4200D017462422664DD7
:1017C000AA56BA18674EF263221D1A40805CF06276
:1017D000E879099082006448845864488258A2627B
:1017E000B03128790C9068790A9000275E4B5F4CE5
:1017F000CE0810250B95B5430A9886009A595219C0
:10180000A55995610C9882009D58A058A86240F295
:10181000FE159858A2588261490029407F1CF8B2F1
:101820000828E5D3099880004F4909584F4A1058B5
:10183000F44AD26B88620F200A9002400027D00839
:101840000B9D8543484803469859401947490C4623
:10185000A55985610C9880001D582158A96240F255
:10186000FE1519582058886152002A407F1CF8B292
:101870000828E4D3099880003B4909583B4A10588E
:10188000E04AD26B886212090A9802400B98024320
:1018900000210446D00823461D46854332480746AA
:1018A000B8594019314D2C46A55985610C988000D6
:1018B0003D582758AF622C4D2D582058A86140F252
:1018C000FE101C4652000240491CC8B20828E1D351
:1018D0000998800024490A5824490858C949C96A06
:1018E00090610022C8081D4685431F480746B85925
:1018F00040191E4D2C46A55985610C9880003D5815
:101900002758AF62184D2D582058A861490040F261
:10191000FE100140521CD0B20828E3D30DB0F0BD38
:10192000C1B25220FFF754F90DB0F0BDB348818E1B
:10193000B34A515CFF22D2430A438023194200D0AC
:101940001146B04A51622422815402F0A9FF0DB021
:10195000F0BDC046FFFF0000000000205003002043
:101960000000FFFF8000002050180020D019002048
:10197000F0B581B0A04F082800D90CE1810001A288
:1019800089188F4600F010B800F025B800F045B86F
:1019900000F076B800F0A7B800F003B900F013B972
:1019A00000F0D3B800F021B99448838E944AD15CFA
:1019B000944CE1625D1C3D40555DA5629E1C3E401D
:1019C000965D2663DB1C3B40D25C6263017245720C
:1019D0008672C272B7E08948838E8949C8188278B6
:1019E000C478240214432202407810430202C85CE7
:1019F0001043844A50621B1D3B40CC18A578E67802
:101A000036022E43350264782C432402C95C2143FC
:101A1000D16304F047F901B0F0BD784CA38E78494A
:101A2000C8188278C5782D0215432A0240781043E1
:101A30000202C85C1043734A50621B1D3B40CD1824
:101A4000AE78EF783F0237433E026D7835432D0282
:101A5000C95C2943D163002875DB227B002A72D13F
:101A6000002970DBA26D82426DDDE26D8A426ADD83
:101A700080B289B202460B4605F0F0F8E08DB6E080
:101A80005E4CA38E5E49C8188278C5782D02154336
:101A90002A02407810430202C85C1043594A50623F
:101AA0001B1D3B40CD18AE78EF783F0237433E0216
:101AB0006D7835432D02C95C2943D163002842DB90
:101AC000627B002A3FD100293DDBA26D82423ADDD4
:101AD000E26D8A4237DD80B289B202460B4605F0DC
:101AE000BDF8208E83E0454EB08E45490A5C08184B
:101AF0004078040214434348C462B06DF16DC019CC
:101B000082B2C81983B200252846294605F0A6F8F6
:101B100033463A46996D012915DBD86D01280EDB55
:101B20000095002620461D4605F030F92B463A4622
:101B3000761C1640D86D8642F4DB996D009D6D1CB5
:101B400015408D42EADB01B0F0BDEA48858EEA4BD4
:101B5000595D5819407800020843E84CE062A91C1E
:101B600039405A5C5918497809021143A1622A1D6B
:101B70003A409E5C9A185278120232432263AD1D9D
:101B80003D405E5D5B195B781B023343636305F088
:101B900065F801B0F0BDC1B25220FFF719F801B0ED
:101BA000F0BDD448818ED44A535C54186478240222
:101BB0001C43D24BDC62891C3940515C9962017331
:101BC000C48501B0F0BDCB48818ECB4A535C54181C
:101BD000647824021C43FE4BDC62891C3940515C52
:101BE00099624173048601B0F0BDF748C08D05F0DD
:101BF000CDF801B0F0BDC046FFFF0000000000209E
:101C00005003002080000020F0B585B0B84E0228B7
:101C100018D0012800D151E1002800D061E1EA4844
:101C2000818EEA4A535CEA4CE3624D1C3540555DB7
:101C3000A562891C3140515C21638373C5730174B3
:101C400005B0F0BDE04CA08EE04D29188A78CB7825
:101C50001B0213431A02497811430902285C084306
:101C6000DB49C86221468020A54FA64C40F2C03512
:101C700003960190C87B0B468100785862588261B8
:101C8000187C80003A58235893613A58235893623D
:101C90003A58235893613A58235893623A58235834
:101CA00093613A58235893623A58235893613A58AB
:101CB000235893623A58235893613A5823589362B1
:101CC0007A58635893623A58235893613A58235884
:101CD00093627A5861589162395822588A6139580A
:101CE000205888620198C0B200F07CF9B64BD87BCE
:101CF0008100785862588261187C80003A582358D5
:101D000093613A58235893623A58235893613A584A
:101D1000235893623A58235893613A582358936250
:101D20003A58235893613A58235893623A582358A3
:101D300093613A58235893627A58635893623A5899
:101D4000235893613A58235893627A5861589162A4
:101D5000395822588A61395820588862802000F00A
:101D600041F9002199480246994803460491029599
:101D70003540D86A4019105CFA49C97B8A00B958C5
:101D8000A3588B61F749097C89007B5866589E618E
:101D90007B5866589E627B5866589E617B58665891
:101DA0009E627B5866589E617B5866589E627B583F
:101DB00066589E617B5866589E627B5866589E6145
:101DC0007B5866589E62BB58A6589E627B586658E0
:101DD0009E617B5866589E62039EBB58A2589A61CA
:101DE0007A58635893617A586158916200F0FAF812
:101DF0000499FB4BF94A403D491CC8B21028B5D3A1
:101E000040F2C03002990D18203535400020049072
:101E1000D86A4019105CF049C97B8A00B958A358A8
:101E20008B61ED49097C89007B5866589E617B581F
:101E300066589E627B5866589E617B5866589E62C3
:101E40007B5866589E617B5866589E627B586658E0
:101E50009E617B5866589E627B5866589E617B588F
:101E600066589E62BB58A6589E627B5866589E6113
:101E70007B5866589E62039EBB58A2589A617A5856
:101E8000635893617A586158916200F0ABF8D44B73
:101E9000D24AD149AD193F3D35400498401C0490C9
:101EA000C0B21028B4D340F2C0302D1821350198AB
:101EB000401CA02800D0DCE605B0F0BDF748818EBC
:101EC000C64A515CFF22D2430A438023194200D004
:101ED0001146F14A51622622815404F0DDFF05B01B
:101EE000F0BDC1B25220FEF773FE05B0F0BDC04692
:101EF000FFFF0000000000205003002080000020B1
:101F000050180020D0190020F0B520B1C1B25220E5
:101F1000FEF75EFEF0BDE148838EB04AD15CDE4C38
:101F2000E1625D1CADB25619B778F0780002384313
:101F3000DA4F0002767806433002555D054365624C
:101F4000581D80B2105CA062A64A5171400040F258
:101F50000061014311830020907110630121117110
:101F60001C490A68D6433E67C5431B4A13463F33A4
:101F700008685840801B1040184CA042F5D30E68EA
:101F80006E403E6708685840801B1040A042F9D35D
:101F90000E686E403E6708685840801B1040A042A3
:101FA000F9D30E686E403E6708685840801B1040A9
:101FB000A042F9D30E686E403E6708685840801B07
:101FC0001040A042F9D3F0BD0000002050030020D3
:101FD0008000002018E000E0C0FFFF004019010071
:101FE00070470000F0B50146AC48C27B95005E4AE0
:101FF00054595E4B5E59A662047CA60094599F59C1
:10200000A76194599F59A762CF0810200446BC438A
:102010005759E4195F59A76194599F59A761945979
:102020009F59A7628C080746A74354593C195F592A
:10203000A76194599F59A76194599F59A7624C0869
:102040000746A74354593C195F59A76194599F59B2
:10205000A76194599F59A76204468C435759E419C4
:102060005F59A76194599F59A76194599E59A662D7
:1020700054595D59A562894D2C46247CA5005459BC
:102080005E59A66154595E59A66254595E59A661BB
:1020900054595E59A66254595E59A66154595E5905
:1020A000A66254595E59A66154595E59A6624C0005
:1020B0000746A743ED4CE47BA60094593C199F5971
:1020C000A76154595F59A76154595F59A7628C00A1
:1020D0000746A74394593C199F59A76154595F5922
:1020E000A76154595F59A762CC000746A74394598A
:1020F0003C199F59A76154595F59A76154595F59B9
:10210000A762090188439159401899598161505932
:10211000595981615059595981629059995981622F
:10212000D24D287C800011581C588C6111581C58C5
:102130008C6211581C588C6111581C588C621158B3
:102140001C588C6111581C588C6211581C588C6199
:10215000115818588862E87B800011581858886117
:10216000F0BDC0460000002050180020D01900200B
:1021700070B5BD49012810D040BBBC48808EBC4A18
:10218000135CF84CE362401C0840105CA062B94943
:102190000122CA701449C85470BDF348848EB44BF0
:1021A000185DF04AD062641C0C4019198D78CE7805
:1021B00036022E4335024978294309021B5D0B4341
:1021C00053628000AE490818836270BDC1B25220CC
:1021D000FEF7FEFC70BDC04600000020500300204A
:1021E0008000002060010020D01A002070B5DD4979
:1021F0000A6E062A05D0052A4CD14C21DA4A5052E3
:1022000070BD4C22D84B9C5A0002201898520020D6
:10221000086629229854486601F0BCFFD44C172563
:1022200040F20046204601F07FFF18B15420002103
:10223000FEF7CEFCA4196D1EF4D101F06DFFCD4C5C
:10224000AA21204607F07CFACB4D2046294607F00C
:102250009CFA0028F8D00121204607F071FAADB2AF
:102260002046294607F091FA0028F9D0002120469F
:1022700007F066FA2046294607F087FA0028F9D0C9
:10228000F021204607F05CFA2046294607F07DFA47
:102290000028F9D070BDC04680000020000000205A
:1022A000F0B585B07049022818D0012820D0002848
:1022B00000D0D3E0AC48808E6D4A135CA94CE36239
:1022C000401C0840105CA06214216A4A5156511803
:1022D00054228B545922885405B0F0BDA248808EF8
:1022E0006349085C9F49C8626249887505B0F0BDC2
:1022F0009D48848E5E48055DFF22D2432A43802696
:10230000354200D01546974AD562251D0D40461925
:10231000B778F3781B023B431B0276781E433302E7
:10232000455D1D439562234608330B40C518AE78C2
:10233000EF783F0237433E026D7835432D02C35C90
:102340002B43136323460C330B40C518AE78EF784C
:102350003F0237433E026D7835432D02C35C2B4369
:10236000536310340C4003199D78DE7836022E43F7
:1023700035025B782B431B02045D1C4394637A4A4D
:10238000948E234614330B40C518AE78EF783F0285
:1023900037433E026D7835432D02C25C2A430492D6
:1023A000704B1A64254618350D404619B778F278F7
:1023B00012023A431202767816433202435D134307
:1023C0000393F94D6B6422461C320A408618B77895
:1023D0000346F07800023843000276780643300264
:1023E0009E5C06436E6520340C4018198178C278D3
:1023F00012020A4311024078084300021B5D0343A6
:1024000029468B6514201B4A1456A0001A4A151839
:102410008A6A0092CA6A0F6B01974F6B0297896BA9
:102420006A66164A009D15501218019D5561029D5D
:102430009562D1630499116503995166104A16504B
:102440001018436160000C4908180021C183601C0A
:10245000084908750120487505B0F0BDC1B2522089
:10246000FEF7B6FB05B0F0BDFFFF00000000002046
:102470005003002060010020E001002060020020E5
:10248000E0020020F0B581B0C74F396E042908D1B1
:102490004A20C449085A401E0021B866F96601B0B6
:1024A000F0BD2921BF4A535C43405354F96E2F4A73
:1024B0005054491CF966B86E814251D100263E66DF
:1024C00019B37D6E0091905D91194A781202024312
:1024D000887800041043C9780C06044301F05AFEC2
:1024E00023482818214601F065FE002803D0542017
:1024F0000121FEF76DFB01F00FFE786E051D7D6674
:10250000361D00998E42194ADDD31A4CAA21204665
:1025100007F016F9184D2046294607F036F900282D
:10252000F8D00121204607F00BF9ADB2204629462C
:1025300007F02BF90028F9D00021204607F000F918
:102540002046294607F021F90028F9D0F12120463C
:1025500007F0F6F82046294607F017F90028F9D0C9
:1025600001B0F0BD800000200000002050170020C6
:1025700000A4000800380140070700007047000071
:10258000F0B581B0421E86490D2A3AD8930001A4C5
:102590001B199F4600F01AB800F033B800F03AB8A3
:1025A00000F04CB800F06CB800F02BB800F029B87F
:1025B00000F027B800F025B800F082B800F088B825
:1025C00000F01FB800F09FB800F09BB8C748838E9A
:1025D000E24AD418A578E67836022E4335026478AC
:1025E0002C432402D55C25436F4C65621B1D0B40B8
:1025F000D15CA162112D00D083E02022815401B072
:10260000F0BDC930C1B25520FEF7E2FAB74800214B
:10261000017076E0B548808ED0490A189378D47856
:1026200024021C43230252781A431202085C10430E
:102630005D494862FEF774FA01B0F0BDAB48848E84
:10264000C64A10198378C5782D021D432B024078A5
:1026500018430302105D1843534BD862241D0C40ED
:1026600011198D78CE7836022E43350249782943E8
:102670000D02115D29439962FEF7CCFE01B0F0BD59
:102680009A48808EB54A11188B78CC7824021C4366
:10269000230249780B431B02105C0343424CE36264
:1026A000042967D002296AD0012972D180004149EA
:1026B0000958414A105801F088FE206101B0F0BD70
:1026C000F648808EF649085CF649C86201B0F0BD54
:1026D000F248818EF24A515CF24AD16289B1334AA2
:1026E0001368DB430367324C25460F3516686E408E
:1026F000F51A25402C092D2CF5D34B1E012919461E
:10270000EEDC01B0F0BDE548808EE54A13189C78F8
:10271000DD782D0225432C025B7823431B02145CD9
:102720001C43F74BDC62041D0C401519AE78EF78A2
:102730003F0237433E026D7835432D02145D2C4332
:102740009C62044608340C40155D14196478240218
:102750002C431C630A30084011188C78CD782D0268
:1027600025432C02497821430902105C0843586331
:1027700001B0F0BD07F090F8206101B0F0BD80001D
:102780000C4909580C4A105801F0FAFD206101B0BB
:10279000F0BD53200121FEF71BFA01B0F0BDC04689
:1027A000FFFF0000000000208000002018E000E093
:1027B000F0FFFF00D019002050180020F0B582B0C3
:1027C00003200190C3433548C25801210A43C25037
:1027D000C25802242242FBD00268314D15400560E8
:1027E0000268304D00952A400260C2582E4D1540B7
:1027F000C550826A0F25AA438262C26A40F203155D
:10280000AA43C2620A04C56A9543C562CA07C56A7B
:102810009543C562026B8A43026300224260C2583C
:10282000224DAE1C1643C6504E04C25832406F1E95
:1028300015B1002A3D46F8D0C25832422DD01C4A6C
:1028400015680726B54325431560026802600268D3
:102850000260026802600268009D2A4002601D2238
:102860001204056815430560C2580D061543C5508E
:10287000C2584D062A42FBD00268019B9A4302606F
:10288000026822430260026808231A42FBD0C8068D
:10289000002101F003FE02B0F0BDFEE7041002408B
:1028A0000C00FF08FFFFC277FFFFF2FEFEFF0000F3
:1028B00000200240B0B50C48012106F001FF06F0EF
:1028C000B9FB764C607C401C6074C0B20A280AD305
:1028D0000025657406F076FBA07C401CC1B20A2975
:1028E00000D32846A074B0BD0010004000000020B6
:1028F000F0B581B06C4C1849204606F077FF48B31C
:10290000204606F019FF0446E0B2FDF743FF2A20F7
:10291000684A115E01291DDBD08F614A165C1318CD
:102920005F783A021643624F374348F200052A4265
:1029300000D03E4632B252255E4F7D5B5219584F51
:10294000BC54741C22B200258A4200DB2C463C5445
:10295000200A587001B0F0BD0500050750030020A3
:10296000F0B581B0FF22D3434B49022850D0012853
:102970006AD0002800D084E04848848E484A105D20
:1029800003438025284200D018465D4B5862651CE1
:102990000D405619B778F3781B023B431B0276783B
:1029A0001E433302555D1D43554B9D62631D0B4015
:1029B000D65CD3185B781B021E433D4F374348F269
:1029C0000002134200D03E464D4FBE64E21D0A4055
:1029D000334FB9188B78CC7824021C4323024978F2
:1029E00019430902BA5C0A434549CA640006012139
:1029F0000B06C018C3152F4CE31850241D531E8519
:102A00009A8700162C4A10185E22815401B0F0BD3E
:102A10002248858E2248445D23438026344200D0DC
:102A20001C46374B5C626D1C0D40415D996214423F
:102A300025D11D4C204606F083FE1C49204606F099
:102A4000A4FE0028F9D01AE01448858E1448445D8D
:102A500023438026344200D01C46294B5C626D1C07
:102A60000D4041198E78CF783F0237433E024978B6
:102A700031430902405D0843D863144207D001B0D6
:102A8000F0BDC1B25220FEF7A3F801B0F0BD04F0D2
:102A9000C9FF01B0F0BDC046FFFF000000000020EC
:102AA000500300208000002000380140070700008C
:102AB0000000FFFFE001002060010020F0B587B0BA
:102AC0000F4D0120039028620E48406F0E49C969DE
:102AD0000858FF22D143069105921704FB4904913F
:102AE000FB4C024601E0F0B23246C1B20809160AB8
:102AF0000E2800D94DE2880004A3C0188746C046BE
:102B000080000020000000206001002000F06ABC6E
:102B100000F0A2BC00F0B4BC00F0B7BC00F0BABC3E
:102B200000F0D9BC00F0D3BC00F0EBBC00F0F2BC6C
:102B300000F02FBA00F056BC00F054BC00F052BCBC
:102B400000F02EBA00F03EBA00F06CBC00F0EABC17
:102B500000F0F5BC00F0FBBC00F048BA00F04CBA45
:102B600000F055BA00F0C7B900F059BA00F011BA38
:102B700000F05ABA00F05CBA00F060BA00F061BA36
:102B800000F069BA00F06FBA00F075BA00F07BBAD5
:102B900000F0C7B900F0C9B900F07DBA00F07FBA03
:102BA00000F081BA00F0F5B900F080BA00F083BA05
:102BB00000F085BA00F087BA00F089BA00F08CBA4C
:102BC00000F0E7B900F08DBA00F08FBA00F0C5BC94
:102BD00000F0CEBC00F0D7BC00F0DEBC00F0E4BCDE
:102BE00000F0EABC00F0F0BC00F0F5BC00F0FABC6C
:102BF00000F07FBA00F092BA00F09FBA00F0ABBAD2
:102C000000F0B7BA00F0BCBA00F096B900F096B97F
:102C100000F0BFB900F0E6BB00F05CB900F05AB9B3
:102C200000F058B900F08CB900F0B3B900F094B9D5
:102C300000F050B900F084B900F0ABB900F08CB9E5
:102C400000F0A7B900F0A5B900F0A3B900F0A1B950
:102C500000F0A6BA00F0ACBA00F09BB900F0B2BA2E
:102C600000F0BBBA00F0BEBA00F093B900F0C3BAEE
:102C700000F0BFBC00F0C3BC00F0C7BC00F0CBBC90
:102C800000F087B900F0D2BC00F0E1BC00F0ECBC71
:102C900000F07FB900F0FABC00F009BD00F00DBDF6
:102CA00000F011BD00F015BD00F073B900F024BDB7
:102CB00000F033BD00F03EBD00F06BB900F04CBD3C
:102CC00000F05BBD00F05FBD00F063BD00F067BDCC
:102CD00000F05FB900F06DBD00F079BD00F07DBD82
:102CE00000F057B900F083BD00F08FBD00F096BD35
:102CF00000F09DBD00F0A4BD00F04BB900F0AEBDEA
:102D000000F0C0BD00F0CEBD00F043B900F0DFBD63
:102D100000F0F1BD00F0F8BD00F0FFBD00F006BE10
:102D200000F037B900F010BE00F022BE00F030BE57
:102D300000F02FB900F041BE00F053BE00F05ABEC3
:102D400000F061BE00F068BE00F023B900F071BE73
:102D500000F080BE00F087BE00F01BB900F090BE0E
:102D600000F09FBE00F0ADBE00F0BCBE00F0C9BEDA
:102D700000F0C1B800F00DB900F0BDB800F048BADD
:102D800000F04BBA00F005B900F0ADB800F0ABB8F8
:102D900000F0A9B800F0FDB800F0A5B800F041BA05
:102DA00000F0F7B800F0A3B800F0A1B800F09FB8A9
:102DB00000F0EFB800F09BB800F037BA00F0E9B8C7
:102DC00000F03CBA00F09AB800F098B800F0E1B812
:102DD00000F094B800F036BA00F0DBB800F037BA73
:102DE00000F091B800F08FB800F0D3B800F08BB8C5
:102DF00000F032BA00F0CDB800F03ABA00F088B86E
:102E000000F086B800F0C5B800F082B800F087B8CE
:102E100000F085B800F0BBB800F0B0B800F0AEB874
:102E200000F02FBA00F088B800F088B800F0B1B810
:102E300000F0D8BA00F0D6BA00F0D4BA00F0D2BA96
:102E400000F0F0BA00F0EEBA00F0ECBA00F0EABA26
:102E500000F0E8BA00F020BA00F027BA00F032BA69
:102E600000F040BA00F05DB800F05FB800F057B86D
:102E700000F08DB800F08DB800F0B4BA00F03BBAA5
:102E800000F040BA00F043BA00F043BA00F050BA84
:102E900000F061BA00F0D3BA00F0D1BA00F0CFBAB6
:102EA00000F0CDBA00F0CBBA00F0C9BA00F071B8AA
:102EB00000F054BA00F055BA00F027BE00F06DBA29
:102EC00000F071BA00F079BA00F07ABA0000FFFFA2
:102ED000FFFF0000F9480346D88E2969F84A1154CB
:102EE000401CD8867EE228696969401879E2286921
:102EF0006969401A75E22869404272E22869696985
:102F0000414329616EE22869696990FBF1F068E24A
:102F10002869696990FBF1F24A43801A61E2287CD2
:102F20005FE228696969401A61E028696969401AA5
:102F30000121411A884154E2286922E02869A4E16C
:102F40002869E5490B46D98EE44A50545218000AC4
:102F50005070881CD88645E22869DF4902943C46B7
:102F60000F46F98EDD4A50545218030A5370030C71
:102F70009370000ED070081DF886CCE02869C1B2AD
:102F800029618021084200D12CE2069928E22869B3
:102F900052E10020D04A10705120FDF719FE21E2C5
:102FA0004020CD4902943C460F46395A4A1C92B201
:102FB000CA4B9A5C891C395288B2185C11020143D1
:102FC000B986A8E04020C4490A46115A928EC34BE4
:102FD0005A54019727464C1EA4B2120ABF4B1A55E9
:102FE0003C46019F891EBC4A1152FBE12869002121
:102FF000091A41412961F5E16A690120002A014667
:1030000000D111462A6902B910460840E9E1296950
:1030100068690843012100B901462961E2E1286994
:10302000002800DBDEE167E728696969401AF2E001
:10303000287C297D4843A861E961ECE0287C297D52
:1030400007E1287C297DB0FBF1F24A43801AA86190
:10305000E96140B2C5E12A696B69EB610120002199
:103060009A4267D967E02A696B69EB610120002108
:103070009A425FD35FE02A696B69EB61012000210E
:103080009A4257D257E02A696B69EB61012000210F
:103090009A424FD84FE02869012141407DE02869DC
:1030A0000599484047E02869604044E00698FF30B1
:1030B0002969414071E0286969690840DEE02869B2
:1030C00069690843DAE0286969694840D6E02869F7
:1030D00069698840C0B2D1E02869696988402040A8
:1030E000CCE0286969698840C8E028696969C840F6
:1030F000C4E002943C46042028620120B040C0B2E3
:103100002A696B6911460143059F7840104003B15D
:103110000846A86128612746029C63E104202862D2
:103120000120B04020402A696B691146014360408C
:10313000104003B10846A86153E104202862012031
:10314000B0400699FF3141402A696B691140104334
:103150001BB3014621E0042028626869E861B040A1
:103160000599B14061402A690A400243AA612A6177
:1031700038E1042028626869E861B040059905E0FB
:10318000042028626869E861B0402146B140069A8F
:10319000FF324A40296911400143A961296121E1B7
:1031A0006869384200D112E120404D49C9690FE1F8
:1031B0006A6910462040411C3A4200D10BE1484A5E
:1031C000D26909E16A69104602942040C11C3A4262
:1031D00000D112E1424AD26910E1286969693F4A87
:1031E0005054FFE02869696921403C4A5054511805
:1031F000000A4870F6E0286969692140374A50544E
:103200005118020A4A70020C8A70000EC870E9E078
:10321000286969694018C0B2E3E028696969401803
:103220000AE028696969401A06E02869696921404D
:1032300020404843A861E9612040D2E028696969DB
:1032400048431BE0286969692140204001E0286962
:103250006969B0FBF1F011E02869696921402040FB
:10326000B0FBF1F24A43801AA861E96100B2B8E00C
:1032700028696969B0FBF1F24A43801AA861E961E3
:10328000AFE0286901462140296148F20001084267
:1032900000D1A7E00499A3E02A696B69012000210D
:1032A0009A4200DD9DE008469BE02A696B69012097
:1032B00000219A4200DB94E0084692E000000020E2
:1032C000500300202A696B69012000219A4200DA2C
:1032D00087E0084685E0C04600000020500300203B
:1032E0006001002029696A6900209142039900DD8C
:1032F0000146296176E00020FB49C877EFF3108092
:1033000072B66FE00398F849C87762B66AE0286938
:1033100051E02A696869F54BC11703C3D317FCF75D
:1033200013FF8A128905800A084328676A6758E0F4
:1033300028696A69ED49D3170CC101972746840DA6
:10334000C117890221433C46019F8002FCF7D6FE4B
:103350002867696745E02869686143E02869801249
:103360003FE00197E048416FE148C0694118496872
:10337000009108222A622A69029422402A61002EC2
:103380004AD06B69002427461119415C7F1C994281
:1033900019D0BCB2B442F7D33EE02869802108427C
:1033A00009D0069905E0286948F20001084202D0D8
:1033B000049908432861800213E02869401C10E04A
:1033C0002869401E0DE06C61029C019F0AE0C9491A
:1033D0000818007805E0C74A1018515C0902007807
:1033E00008432861286A012800D0A6E30420286247
:1033F000002E01D0FFF777FB9FE3BE4A13189C789D
:10340000515C0902214309025B780B431902105CED
:1034100008432861029CE5E7B34F009878670020D5
:1034200028628AE30420002A06DAAF48406FB049D8
:10343000C9690818466808202E6128627DE30420C7
:10344000002A06DAA848406FA949C96908184668E1
:1034500008206E61286270E3A3480146088F8886C1
:10346000486FA349C96908184268D1B2100A00D14F
:1034700059E3D20A182A00D958E3FDF709FA55E3AF
:10348000994886860420286257E3974846670020BB
:10349000286252E394480246108F90864020115AC9
:1034A000526F121D934C62544C1EA4B20694170A1C
:1034B000904C069BE7548C4B8C1EA4B2120C8D4F83
:1034C0003A55C91E19525E670020286235E362B67C
:1034D00001208549C8774020834E315A8A1C92B218
:1034E000844B9A5C4C1CA4B21C5DC91C3152200256
:1034F0001043000289B2595C0143716700202862C1
:103500001BE379480146888E80190887C886042005
:10351000286212E374480146888E801B8886042046
:1035200028620AE370480246506F7149C969081859
:103530004068918E4018286108202862FDE22869C1
:1035400069694E438019286104202862F5E22869E0
:103550008019286104202862EFE20420286229698A
:10356000012900D0E9E26048466700202862E4E2D1
:10357000042028622969002900D0DEE25A48466703
:1035800000202862D9E22869002800D1D1E2401E3B
:10359000286104202862D0E22869F040012101401E
:1035A000296104202862C8E22869F0400121014015
:1035B000296104202862C0E22869F040012101400D
:1035C000296104202862B8E228693041C0B228612C
:1035D00004202862B1E228693041C0B22861042089
:1035E0002862AAE22869304120402861042028622C
:1035F000A3E24048805D2861042028629DE23D48A6
:10360000805D28610420286297E23A48805D286145
:103610000420286291E226403648815D8019407876
:103620000002084328610420286286E226403148CF
:1036300081198A78CB781B0213431A024978114307
:103640000902805D084328610420286275E2264053
:103650002848805D069A02438021084200D0104627
:1036600028610420286268E226402249885D891981
:10367000497809020843049A024348F200031942B8
:1036800000D0104628610420286256E226401948DE
:1036900081198A78CB781B0213431A0249781143A7
:1036A0000902805D084328610420286245E2114830
:1036B000805D6861042028623FE20E48805D686199
:1036C0000420286239E20B48805D6861042028628A
:1036D00033E226400748815D8019407800020843A4
:1036E00068610420286228E2000000200001002018
:1036F00060010020500300202640F94881198A7893
:10370000CB781B0213431A02497811430902805DEA
:1037100008436861042028620FE22640F048805D7B
:10372000069A02438021084200D0104668610420B6
:10373000286202E22640EA49885D8919497809022F
:103740000843049A024348F20003194200D010468D
:10375000686104202862F0E12640FD4881198A78DA
:10376000CB781B0213431A02497811430902805D8A
:103770000843686104202862DFE12869F44988551C
:1037800004202862D9E12869F1498855042028627B
:10379000D3E12869EE49885504202862CDE126400E
:1037A0002869EB4988558919000A48700420286265
:1037B000C3E126402869E64988558919020A4A70FA
:1037C000020C8A70000EC87004202862B5E12869D6
:1037D000DF49885504202862AFE126402869DC498A
:1037E00088558919000A487004202862A5E12640FE
:1037F0002869D74988558919020A4A70020C8A70CB
:10380000000EC8700420286297E1CF48808E80198E
:10381000CF49085C2861042028628EE1CA48808E66
:103820008019CB49085C28610420286285E1C648DC
:10383000808E8019C649085C2861042028627CE1DA
:10384000C148808E80192040C1490A5C0818407820
:10385000000210432861042028626EE1BA48808E7D
:1038600080192040BA490A189378D47824021C435E
:10387000230252781A431202085C10432861042084
:1038800028625AE1B048808E80192040B049085C17
:10389000069A02438021084200D010462861042085
:1038A00028624AE1A848808E81192140A84A505CCC
:1038B0005118497809020843049A024348F2000368
:1038C000194200D0104628610420286235E19E4844
:1038D000808E801920409E490A189378D47824025B
:1038E0001C43230252781A431202085C10432861D9
:1038F0000420286221E19448808E80199449085C54
:1039000068610420286218E18F48808E80199049F0
:10391000085C6861042028620FE1FB48808E8019F2
:103920008B49085C68610420286206E1F648808EB5
:103930008019204086490A5C08184078000210432C
:10394000686104202862F8E0EF48808E80192040EA
:103950007F490A189378D47824021C4323025278B2
:103960001A431202085C1043686104202862E4E0F4
:10397000F948808E80192040F849085C069A024375
:103980008021084200D01046686104202862D4E0FB
:10399000F148808E81192140F04A505C51184978D5
:1039A00009020843049A024348F20003194200D076
:1039B0001046686104202862BFE0E748808E8019C5
:1039C0002040E6490A189378D47824021C43230245
:1039D00052781A431202085C10436861042028627E
:1039E000ABE0F948808E80192969F84A1154042007
:1039F0002862A2E0F448808E80192969F34A1154A4
:103A00000420286299E0F048808E80192969EF4AE5
:103A100011540420286290E0EB48808E80192040E9
:103A20002969EA4A11541018090A417004202862D1
:103A300083E0E548808E801920402969E34A1154CB
:103A400010180A0A42700A0C8270090EC170042014
:103A5000286272E0DC48808E80192969DB4A1154A3
:103A60000420286269E0D848808E801920402969A6
:103A7000D64A11541018090A4170042028625CE0EB
:103A8000D148808E801920402969D04A11541018DD
:103A90000A0A42700A0C8270090EC1700420286262
:103AA0004BE0C9480346988E80192040C7490A5CFC
:103AB0000818407800021043402158520420286220
:103AC0003BE04020C049085A898E89192140BF4AED
:103AD00050545118000A4870042028622DE0C04656
:103AE000500300202640B94881194A788978090294
:103AF00011430902805D0843B349486700202862EA
:103B00001BE02E610420286217E0286969692040C3
:103B10008900081828610D49C9690858AA494867E9
:103B20000020286209E00846FEF72AFD08202862E6
:103B300003E0A548466700202862A3490A46516F62
:103B40000818506707B0F0BD000000206001002099
:103B500050030020F0B581B09D4800210166664CFD
:103B6000AA21204605F0ECFD644D2046294605F0CB
:103B70000CFE0028F8D03021204605F0E1FDADB262
:103B80002046294605F001FE0028F9D000212046F4
:103B900005F0D6FD2046294605F0F7FD0028F9D0AE
:103BA000FF21204605F0CCFD2046294605F0EDFD1D
:103BB0000028F9D00221204605F0C2FD2046294602
:103BC00005F0E3FD0028F9D03C21204605F0B8FDC2
:103BD0002046294605F0D9FD0028F9D005212046C8
:103BE00005F0AEFD2046294605F0CFFD0028F9D0AE
:103BF0001721204605F0A4FD2046294605F0C5FD05
:103C00000028F9D04121204605F09AFD204629469A
:103C100005F0BBFD0028F9D00021204605F090FDFD
:103C20002046294605F0B1FD0028F9D01421204690
:103C300005F086FD2046294605F0A7FD0028F9D0AD
:103C40000021204605F07CFD2046294605F09DFD1B
:103C50000028F9D00021204605F072FD20462946B3
:103C600005F093FD0028F9D00021204605F068FDFD
:103C70002046294605F089FD0028F9D05C21204620
:103C800005F05EFD2046294605F07FFD0028F9D0AD
:103C90000021204605F054FD2046294605F075FD1B
:103CA0000028F9D000212046009105F049FD20466A
:103CB000294605F06AFD0028F9D0114E4320374609
:103CC000C1B2204605F03CFD2046294605F05DFDC9
:103CD0000028F9D078787F1C314622318F42EFD10D
:103CE000084805F089FC3848009901702A21012212
:103CF000425401B0F0BDC046003801400707000043
:103D0000F69B00080010004000000020F0B520B134
:103D1000C1B25220FCF75CFFF0BD2B48848E2B4AC9
:103D2000105D2B4BD862611C89B2555C51184978E3
:103D3000090229439962E41CA4B21519AE78EF7800
:103D40003F0237433E026D7835432D02125D2A4310
:103D50001A6304F09BFFF0BD000000205003002018
:103D6000B0B502282AD001280AD040BB1648818E5F
:103D7000164A515C164AD162C17501218175B0BDE8
:103D80001148818E114842189378D47824021C433C
:103D9000230252781A431202435C13430C4A5362C3
:103DA000091D89B243189C78DD782D0225432C0229
:103DB0005B7823431B02405C1843D063B0BDC1B2A3
:103DC0005220FCF705FFB0BD00000020500300208A
:103DD000800000206848026808210A4302600268E7
:103DE0000A42FCD1026804210A43026002680A42C6
:103DF000FCD170470C4A022807D0012812D10F20AD
:103E0000000513688343136005E003200005D368B1
:103E10008343D3600C320905044BC9180140106874
:103E2000084310607047C0462C2401400000F0FF9A
:103E3000B0B588B0062000F03BFB244800F064FCDD
:103E400040F2005000F060FC0024204600F0F4F83E
:103E500001A98C761E48039001254D7640F2004062
:103E60000490022005901B4801900C7640F200104F
:103E7000029043F200000690204600F009F9204627
:103E800000F0D2F8204600F03BF9204600F0C4F8DC
:103E900005F03CFB28462946FFF7ACFF05222046EB
:103EA000294600F06DF82846294600F033F82846E8
:103EB000214600F051F8204600F00EF800F020F8FE
:103EC000FFF788FF00F014F808B0B0BD0906000045
:103ED000DC1A00204C24014010B527490A6840F63E
:103EE000000413462343A24300B913460B6010BDE0
:103EF0002148016840F200120A4302607047C04640
:103F00001D48026801210A4202D102680A43026088
:103F10007047C04610B5012304461C40164A69B1DB
:103F20001CB1190513680B4313600221084212D01B
:103F3000106848F200010143116010BD1CB1190561
:103F400013688B4313600221084204D0106848F2C2
:103F500000018843106010BD064B074A022802D0BA
:103F6000012806D1054B10681840106010680843FE
:103F700010607047FF8FFFFF08240140FFFFF1FF33
:103F800070B50023DC43234B05280BD8052545439A
:103F90000846A8401F26AE4066409D6A354005434E
:103FA0009D621CE00B280CD8052545431E3D0846A4
:103FB000A8401F26AE4066405D6A354005435D62FD
:103FC0000DE010280BD2052545433C3D0846A8408E
:103FD0001F26AE4066401D6A354005431D62092913
:103FE0000AD8032048438240072181406140586835
:103FF00008401043586070BD12290AD80320484376
:104000001E388240072181406140186808401043F3
:10401000186070BD0C240140142141433D480A58EA
:10402000012313430B5070471421414339480A5868
:10403000202313430B50704710B5142242430D49FF
:10404000521853680124A3435360002353609360C4
:10405000D360136180000F2282400868104308601B
:1040600010BDC04680008140024802680A430260D9
:104070007047C04604000240800081400348026847
:104080000A40012002B910467047C04600000240B5
:1040900070B5142242431F4813580124A343135000
:1040A00013180C689C608C68DC600C8A5C60135888
:1040B00043F60074A3434C681C43CB6823434C690C
:1040C0001C4314500D7E135840261C463443B34302
:1040D000012D00D01C4614504D7E135880261C46DE
:1040E0003443B343012D00D01C4614508C7E11582C
:1040F00010250B46AB43294304B10B46135070BD4A
:104100001421414303480A5844F200039A430A50D9
:104110007047C046080002400248016880220A43F6
:104120000260704710200240F0B53A493A4A1446FE
:104130000D6801231D4204D0641C0527002CF7D113
:1041400025E00D6804271024254220D10D6804269F
:1041500035406F081BD14F6802252F434F608860A0
:104160004868402707434F600868184204D0521C33
:104170000527002AF8D107E008682042374603D116
:1041800008680422024057084868A8434860F8B20B
:10419000F0BDC0460448C1688022114203D00349E3
:1041A0000160034901607047042002402301674514
:1041B000AB89EFCDF0B5174A174C25461668012399
:1041C0001E4204D06D1C0526002DF7D120E0176893
:1041D000042610252F421BD1166804273E4076087E
:1041E00016D156681E43566001601068184204D00C
:1041F000641C0526002CF8D107E0106828423E46D2
:1042000003D11068042101404E0850689843506063
:10421000F0B2F0BD0C2002400000F1FFF0B585B017
:10422000036A0F251C46AC430C430126324200D0E2
:104230002346446A4C4F0226324201D11E4603E017
:10424000F026B3430E011E43484B049304231A4245
:1042500001D1334602E03E400B023343444E039605
:104260000826324201D11E4603E0049E33400E036D
:104270001E43404B029310231A4201D1334603E000
:10428000039B1E400B04334300973B4E01962026B0
:10429000324201D11F4603E0029E33400F051F4307
:1042A000364B4026324201D13E4603E0019E374064
:1042B0000E063E4380273A4201D1374602E01E40B7
:1042C0000F0737432646AE430E4340F200152A42FD
:1042D00000D0344640F200252A4201D1254603E0B1
:1042E000F025AC430D01254340F20044224201D1A8
:1042F0002C4603E0009C25400C022C4340F60005B0
:104300002A4201D1254603E0049D2C400D0325439C
:1043100041F20004224201D12C4603E0039C2540D7
:104320000C042C4342F200052A4201D1254603E049
:10433000029D2C400D05254344F20004224201D188
:104340002C4603E0019C25400C062C4348F2000556
:104350002A4201D1214602E01C400907214307629D
:10436000416205B0F0BDC046FFF0FFFFFF0FFFFF49
:10437000FFFFF0FFFFFF0FFFFFFFFFF0FFFFFF0F4B
:1043800002690A40012002B910467047F0B582B0B8
:10439000019205680090C268002637460124BC409F
:1043A0001C4209D0019CB4400320B0408243224308
:1043B0000C46B44085432543B61C7F1C102FEDD11D
:1043C00000980560C26002B0F0BD42690A40012059
:1043D00002B910467047F0B581B00024E7430129C7
:1043E000009003D13D464168194306E01E463D4614
:1043F0007E400098416831400098416081682646BF
:1044000010462A460127B7401F4206D00746A7405C
:104410000325A540554029403943A41C761C102E85
:10442000F0D10098816001B0F0BD80B505F028FBA7
:1044300005F0E0FAFCE70000B0B540B2C200182376
:1044400013408901C9B29940FF229A40D243002803
:1044500011DB032304469C430D4BE55815400D43E7
:10446000E550C1080B4A0A401F2101400120884045
:1044700009495050B0BD0F23184008380323984312
:10448000024BC45814400C43C450B0BD1CED00E0B6
:1044900000E400E0FCFFFF1F00E100E0024A0A40E8
:1044A000024302480260704780FFFF1F08ED00E0F2
:1044B000F0B52B21CB432D49CA584CF20004A2433E
:1044C000CA500A682A4C14400C600127FC07294E88
:1044D000092849D8820001A55219974600F012B860
:1044E00000F014B800F019B800F019B800F019B8CD
:1044F00000F01BB800F01DB800F01FB800F02AB89B
:1045000000F01FB838040A68824302E038040A68E1
:1045100002430A600868304025E0C8581EE0C858C9
:1045200013E0C85844F2000217E0C85844F20002F1
:104530000AE0C85848F200020FE0C85848F20002EA
:1045400002E0C8584CF200021043C85008682043EB
:10455000086004E0C8584CF200021043C8500868D4
:1045600040F2001210430860F0BDC0463010024017
:10457000FFFEFE7FFFFEFFFFF0B584B00646574CFE
:10458000206880080321084001231A040392544F35
:1045900002283D461BD12068800C0F221040256860
:1045A000DB061D4205D1831C10250F2803D01D46B4
:1045B00001E0113005462068039B184205D0A06A2F
:1045C0001040401CB7FBF0F000E046484543009720
:1045D000206800090F22024043A0805C02952F460C
:1045E000C74020682268D20A07231A4042A5AA5C65
:1045F0003D46D540000A18400022052E6AD8019198
:10460000B20001A151188F4600F00AB800F00AB8B4
:1046100000F00AB800F00DB800F00DB800F018B8BE
:10462000029A57E03A4655E033A1085CC7403A4643
:1046300050E02A464EE0E06A40F20011084221D1E3
:10464000E16A2F4A2F48039B194243D0024641E0BA
:10465000E06A019908422A463CD0E06A08400128F5
:10466000029A37D0E06A084048F20002022831D0AE
:104670000846E16A014000220329009800D0104654
:1046800004B0F0BD2068810B01980140E06AC00FC2
:10469000012908D002290BD003290DD188B10920A6
:1046A000B7FBF0F216E070B10520B7FBF0F211E0B5
:1046B00058B1B7FBF3F20DE058B10198B7FBF0F237
:1046C00008E0EA0806E0AA0804E00620B5FBF0F2DC
:1046D00000E06A08104604B0F0BDC0460410024075
:1046E00000127A0000093D000000000000000000F8
:1046F0000102030406070809000000000102030488
:10470000809FD500003FAB011F21014001228A405C
:1047100080090C4943581343435070471F210140FF
:1047200001228A4080090749435893434350704708
:104730001F21014001228A40800902494358134346
:104740004350704700100240F0B583B04F4F787867
:1047500085004F4843594F4E705901210291002462
:104760002246FFF713FE4A4843597059032201922B
:104770002146FFF730FEB878850045484359705907
:1047800002992246FFF702FE4148435970592146DB
:10479000019AFFF720FE7878800031583C4C22586F
:1047A0008A61B97889007258635893617258635866
:1047B0009361325823589361725863589362325808
:1047C000235893627258635893623258205890610C
:1047D000705861588161322171480268D2433A674A
:1047E0006E4B1C463F3405686540AC1A1C406A4B52
:1047F0009C42F5D34A1E01291146EEDC03B0F0BD00
:10480000F0B581B0214FB8788000214D2B58214E52
:104810003058002401222146FFF7B8FD7878800047
:104820003158285888615E480168C94339671A4A77
:1048300013460F3305685D406B1A13401A09E12ACD
:10484000F5D3134DB878800029583058FFF798FDFC
:10485000611C124A944202D801280C46F2D07878A2
:104860008000315828588862B8782F4685007B59D7
:104870007059012100242246FFF788FD7B597059A9
:1048800003222146FFF7A7FD01B0F0BD0000002084
:10489000D019002050180020F0FFFF003F420F0009
:1048A000F0B589B03948007984003948035939494D
:1048B00008590F460125002629463246FFF766FDB6
:1048C000334803593859032208923146FFF783FDD4
:1048D0002E48407984002E480359385929462F46DE
:1048E0003246FFF753FD2A4803592A4800593146FA
:1048F000089D2A46FFF76FFD2448807984002448EC
:1049000003592448005939463246FFF73FFD2048F5
:10491000035920490846005931462A46FFF75BFDF6
:104920001A48C07984001A4803591A4908460059A0
:1049300039463246FFF72AFD1548035915490859EB
:104940000F46124C31462A46FFF745FD2079089064
:1049500080003D462A580E4B1858906160790590AA
:104960008100685804915A588262E0790290800070
:104970002A58185890620196F543E1780648074B8B
:10498000074E06910129079538D10BE00000002061
:10499000D01900205018002040190100C0FFFF006E
:1049A00018E000E0A779BA00054CA4582946054D47
:1049B000AA58A26234684C4003490C6706E0C0461E
:1049C00050180020D0190020000000201A463F3265
:1049D00031685140091B19408142F7D3B900044A9C
:1049E0005258044C61589161034C079D06E0C04643
:1049F00050180020D01900200000002032686A40C2
:104A000022671C463F3431686140891A194081424F
:104A1000F7D3326807994A4001490A6702E0C04665
:104A20000000002031686140891A19408142F9D3A1
:104A3000326807994A4001490A6701E000000020F6
:104A400031686140891A19408142F9D33268079967
:104A50004A4001490A6701E00000002031686140D6
:104A6000891A19408142F9D3326807994A400149AD
:104A70000A6701E00000002031686140891A19408E
:104A80008142F9D3326807994A4001490A6701E037
:104A90000000002031686140891A19408142F9D331
:104AA000326807994A4001490A6701E00000002086
:104AB00031686140891A19408142F9D332680799F7
:104AC0004A4001490A6701E0000000203168614066
:104AD000891A19408142F9D3326807994A4001493D
:104AE0000A6701E00000002031686140891A19401E
:104AF0008142F9D3326807994A4001490A6701E0C7
:104B00000000002031686140891A19408142F9D3C0
:104B10000698002801D000F073FD02988000044937
:104B20000958044A10588862AE200023049E03E00E
:104B300050180020D0190020C108102207928A4383
:104B40000C490F46B95989180B4A1546AA598A616A
:104B5000089989007A586C5894627A58695891611A
:104B600040F2FE118A1E400010405B1CD9B2082999
:104B7000E2D303E050180020D019002006920298DA
:104B800080002F4C21582F4B18588862A0599959F2
:104B900081620898800021581A588A6221581A5850
:104BA0008A61A1599A598A6221581A588A622158F1
:104BB0001A588A61A1599A598A6221581A588A62E8
:104BC00021581A588A61A1599A598A6221581A584B
:104BD0008A6221581A588A61A1599A598A622158C1
:104BE0001A588A6221581A588A61A1599A598A62B8
:104BF00021581A588A6221581A588A61A1599A591B
:104C00008A6221581A588A6221581A588A61A15911
:104C10009A598A6221581A588A622158185888610C
:104C200009480246D07904908000215818588862BB
:104C300010790890507905900022079B06E0C04645
:104C400050180020D019002000000020D908079E2D
:104C50008E43059881000D480746785880190C4C02
:104C600025466E588661089880003E582C58B462DC
:104C70003C582858A06140F2FE101E385B000340EB
:104C8000521CD0B20828E1D304E0C04650180020DE
:104C9000D019002004988000034A1258034B18587A
:104CA00090624020002303E050180020D01900201B
:104CB000C2081024079494430C4A17467A581219D4
:104CC0000B4C25466C589461089A9200BC58AE581B
:104CD000A662BC58AA58A26140F2FE147E3C400075
:104CE00020405B1CDAB2082AE2D303E0501800200F
:104CF000D0190020039404988000044A1258044BF1
:104D0000185890628120002204E0C046501800200C
:104D1000D0190020C308079C9C430C4B1F467B58AE
:104D20001B190B4C25466C589C61089B9B00FC583A
:104D3000EE58A662FC58EB58A36140F2FE13400007
:104D40001840521CD3B2082BE4D303E050180020C3
:104D5000D019002004988000034A1258034B1858B9
:104D60009062CF20002203E050180020D0190020CC
:104D7000C308079C9C430C4B1F467B581B190B4CCC
:104D800025466C589C61089B9B00FC58EE58A66217
:104D9000FC58EB58A36140F2FE1340001840521C2F
:104DA000D3B2082BE4D303E050180020D019002020
:104DB00004988000034A1258034B18589062A120AF
:104DC000002203E050180020D0190020C308079CDF
:104DD0009C430C4B1F467B581B190B4C25466C58AB
:104DE0009C61089B9B00FC58EE58A662FC58EB584F
:104DF000A36140F2FE1340001840521CD3B2082BAE
:104E0000E4D303E050180020D0190020049880005B
:104E1000034A1258034B18589062C823002203E03B
:104E200050180020D0190020D808079C84430D4852
:104E30000746785800190C4C25466C588461089830
:104E400080003C582E58A6623C582858A06140F279
:104E5000FE100E385B000340521CD4B2082CE3D382
:104E600004E0C04650180020D0190020049A920097
:104E7000044B9B58044CA2589A62A6220023024D70
:104E800004E0C04650180020D0190020D408079E26
:104E9000A6430B4C27467C58A4196E58A661089C63
:104EA000A4003E592F59B762054F3E592C59B461A1
:104EB0005200069C22405B1CDCB2082CE6D301E0C9
:104EC00050180020049A9200044B9B58044CA2589E
:104ED0009A62A8220023024D04E0C0465018002028
:104EE000D0190020D408079EA6430B4C27467C58B7
:104EF000A4196E58A661089CA4003E592F59B762A8
:104F0000054F3E592C59B461520002405B1CDCB283
:104F1000082CE7D302E0C046501800200498800017
:104F2000034A1258034B185890623F20002203E0B6
:104F300050180020D0190020C308079C9C430C4B3C
:104F40001F467B581B190B4C25466C589C61089BCF
:104F50009B00FC58EE58A662FC58EB58A36140F247
:104F6000FE1340001840521CD3B2082BE4D303E0D8
:104F700050180020D019002004988000044A1258CC
:104F8000044B18589062D3200022089E014D03E084
:104F900050180020D0190020C308079C9C430D4BDB
:104FA0001F467B581B196C589C61B300FC580F4678
:104FB0003146EE58A6620E463946064FFC58EB586D
:104FC000A361400040F2FE131840521CD3B2082BDC
:104FD000E2D301E050180020049880002E4D2A589A
:104FE0002E4C20589062685862588262B0002A584D
:104FF000235893622A58235893616A5863589362DE
:105000002A58235893622A58235893616A58635840
:1050100093622A58235893622A58235893616A58F6
:10502000635893622A58235893622A5823589361ED
:105030006A58635893622A58235893622A5823580F
:1050400093616A58635893622A58235893622A5886
:10505000235893616A58635893622A58235893627D
:105060002A58235893616A586158916229582258E6
:105070008A6229582058886109480246D0790290EE
:105080008000295820588862167950790590D520DB
:105090000022089606E0C04650180020D0190020D3
:1050A00000000020C108079B8B4305998C000C4928
:1050B0000F463959C9180B4B1D462B598B61B1004E
:1050C0007B586E589E62089E7B58695899614000D3
:1050D00040F2FE110840521CD1B20829E2D303E08D
:1050E00050180020D019002002988300294FF8584A
:1050F000294DE9588162385929598161B0003958E0
:105100002A588A6239582A588A6139592A598A6232
:1051100039582A588A6239582A588A6139592A597D
:105120008A6239582A588A6239582A588A61395904
:105130002A598A6239582A588A6239582A588A6103
:1051400039592A598A6239582A588A6239582A584C
:105150008A6139592A598A6239582A588A623958D3
:105160002A588A6139592A598A6239582A588A62D2
:1051700039582A588A6139592A598A6239582A581D
:105180008A62395828588861F858E9588162D920CC
:10519000002203E050180020D0190020C108079B0E
:1051A0008B430C490F463959C9180B4B1D462B59D7
:1051B0008B61B1007B586E589E62089E7B5869587F
:1051C0009961400040F2FE110840521CD1B20829FA
:1051D000E4D303E050180020D0190020029880008A
:1051E00003490958034A10588862F120002203E05D
:1051F00050180020D0190020C108079B8B430C4990
:105200000F463959C9180B4B1D462B598B61B100FC
:105210007B586E589E62089E7B5869589961400081
:1052200040F2FE110840521CD1B20829E4D303E039
:1052300050180020D0190020029880000549095814
:10524000054A10588862DA2000220494049C024D1A
:1052500004E0C04650180020D0190020C108079B68
:105260008B430B490F463959C9182B598B61B10033
:105270007B586E589E62089E7B5869589961069BC0
:1052800040001840521CD1B20829E7D302E0C046C2
:10529000501800200298800004490958044A105808
:1052A000886212200022049C04E0C04650180020AE
:1052B000D0190020C108079B8B430C490F46395970
:1052C000C9180B4B1D462B598B61B1007B586E588A
:1052D0009E62089E7B586958996140000699084073
:1052E000521CD1B20829E5D304E0C0465018002072
:1052F000D01900200298800004490958044A105827
:105300008862DB200022049C04E0C0465018002084
:10531000D0190020C108079B8B430C490F4639590F
:10532000C9180B4B1D462B598B61B1007B586E5829
:105330009E62089E7B5869589961400040F2FE11B8
:105340000840521CD1B20829E4D303E050180020D1
:10535000D01900200298800003490958034A1058C8
:1053600088624020002203E050180020D01900205D
:10537000C108079B8B430C490F463959C9180B4B81
:105380001D462B598B61B1007B586E589E62089E5A
:105390007B5869589961400003990840521CD1B26A
:1053A0000829E5D304E0C04650180020D019002099
:1053B0000298800003490958034A10588862202047
:1053C000002203E050180020D0190020C108079BDC
:1053D0008B430D490F463959C9180C4B1D462B59A3
:1053E0008B61B1007B586E589E62089E7B5869584D
:1053F000996140F2FE113E3940000840521CD1B282
:105400000829E3D304E0C04650180020D01900203A
:105410000298800003490958034A10588862022004
:10542000002203E050180020D0190020C108079B7B
:105430008B430C490F463959C9180B4B1D462B5944
:105440008B61B1007B586E589E62089E7B586958EC
:105450009961400006990840521CD1B20829E5D351
:1054600004E0C04650180020D019002002988000A7
:1054700003490958034A105888628D20002203E02E
:1054800050180020D0190020C108079B8B430C49FD
:105490000F463959C9180B4B1D462B598B61B1006A
:1054A0007B586E589E62089E7B58695899614000EF
:1054B00040F2FE110840521CD1B20829E4D303E0A7
:1054C00050180020D0190020029880000349095884
:1054D000034A105888621422002303E05018002069
:1054E000D0190020D008079981430D480746385944
:1054F00040180C490D462959816108988000395897
:105500002E588E6239582858886140F2FE10801F4C
:10551000520002405B1CD9B20829E3D304E0C04624
:1055200050180020D019002002998900F54A5258DD
:10553000F34B59589162A4220023F14DD108079EE4
:105540008E43F0490F46395989192E598E610899B1
:1055500089007E586F58B762EA4F7E586958B1612A
:10556000520002405B1CD9B20829E7D302988000A0
:10557000E4490958E24A10588862A6200022C1086E
:10558000079B8B43DF490F463959C918DC4B1D4631
:105590002B598B61089989007B586E589E627B5805
:1055A00069589961400006990840521CD1B20829F7
:1055B000E5D302988000D3490958D14A105888622F
:1055C000AF200022089EC108079B8B43CD490F46A0
:1055D0003959C918CA4B1D462B598B61B1007B58EC
:1055E0006E589E62089E7B5869589961400040F24F
:1055F000FE110840521CD1B20829E4D3BF48C0783C
:105600000128BF4A089E00D075E102988000BD497C
:10561000095810588862AF20019DC10810240794D2
:105620008C4305998B00B74AD1580919B44CE458FA
:105630008C61B10057583446B14E7658BE6226464A
:105640005458AF4A5158A161400040F2FE11084041
:105650006D1CE9B20829E0D302988000A9490958D5
:10566000A74A105888624020002437460897A44D66
:10567000C108079E8E43A3490A46D1588919EE589E
:105680008E61B90056586F58B7629E4F7E58089F7A
:105690006958B16140F2FE117E3940000840641C37
:1056A000E1B20829E4D30298800096490958944A47
:1056B00010588862A0200024C108079E8E4391499B
:1056C0000A46D15889198E4E3546EE588E61B9007A
:1056D00056586F58B7628B4F7E58089F6958B16112
:1056E00040F2FE113E3940000840641CE1B2082936
:1056F000E2D30298800083490958814A1058886291
:10570000A6240026E008079981437E480246D05827
:1057100040187B490D46E9588161B80011582F584F
:105720008F62784F3958089F2858886140F2FE10E0
:10573000801E64000440761CF1B20829E2D302996D
:105740008900704C64586E4A5158A162A424002606
:10575000E108079F8F436B49C958C919684AD75850
:105760008F6108998900674A5758654A5558BD6244
:10577000644F7D58624A5158A96140F2FE11891F59
:1057800064000C40761CF1B20829E1D3029989002B
:105790007C58FA4A5158A162A2240026E108079DCC
:1057A0008D43F9584919D5588D61089989007D585C
:1057B0005758AF62F04F7D585158A96164000440BA
:1057C000761CF1B20829E9D30298800039581058A4
:1057D0008862C8200024C108079D8D43F9584919E3
:1057E000D5588D61089989007D585658AE627D580C
:1057F0005158A96140F2FE110E3940000840641C66
:10580000E1B20829E7D3029880003958105888621D
:105810002F200024C108079D8D43F9584919D558F8
:105820008D61089989007D585658AE627D5851584F
:10583000A961400040F2FE110840641CE1B2082951
:10584000E8D3029880003958105888622520002437
:10585000C108079D8D43F9584919D5588D6108999C
:1058600089007D585658AE627D585158A96140F262
:10587000FE1140000840641CE1B20829E8D30298F8
:10588000800039581058886281200024C108079D83
:105890008D43F9584919D5588D61089989007D586B
:1058A0005658AE627D585158A96140F2FE11400031
:1058B0000840641CE1B20829E8D3029880003958F6
:1058C0001058886225200024C108079D8D43F9588F
:1058D0004919D5588D61089989007D585658AE628E
:1058E0007D585158A96140F2FE1140000840641CE7
:1058F000E1B20829E8D309B0F0BDC046000000209D
:10590000D019002050180020F0B581B0FEF71CFF20
:105910005920C74338460830C0B200F071F800265D
:10592000304600F06DF8102000F06AF84024204660
:1059300000F066F838462538C0B200F061F8384605
:105940002930C0B200F05CF8781FC0B200F058F8FF
:1059500038462230C0B200F053F8A625284600F0A1
:105960004FF8B81CC0B200F04BF83F2000F048F8E8
:1059700038462D30C0B200F043F8304600F040F811
:1059800038462F30C0B200F03BF838462638C0B257
:1059900000F036F838463330C0B200F031F83846FF
:1059A0004B30C0B200F02CF838463430C0B200F0B2
:1059B00027F8122000F024F838463530C0B200F045
:1059C0001FF8204600F01CF8202000F019F80220F3
:1059D00000F016F838461938C0B200F011F814205B
:1059E00000F00EF8B81EC0B200F00AF8284600F029
:1059F00007F80937F8B200F003F801B0F0BD000075
:105A0000F0B583B00090A44B98788000A34D29583E
:105A1000A34E32588A61597801918A00AB58B75821
:105A20009F612B5837589F62AB58B2589A627822C0
:105A300000239B4CD108102702978F4397490D46AE
:105A40002958C91927588F61019989006F586658DC
:105A5000BE616E586158B162520040F2F0110A40C6
:105A60005B1CD9B20829E5D3FEF7CAFE8A4CA078A0
:105A700081008A4D68588A4E725863788262980015
:105A80002A58335893612A58335893626A58735886
:105A900093622A58335893612A58335893626A584C
:105AA000735893622A58335893612A583358936233
:105AB0006A58735893622A58335893612A58335856
:105AC00093626A58735893622A58335893612A58DC
:105AD000335893626A58735893622A5833589361C3
:105AE0002A58335893626A58735893622A58335825
:105AF00093612A58335893626A58715891622958B1
:105B000032588A61295830588862FEF779FE6078E9
:105B10000190A1780022009C60488B00C658E4B236
:105B2000E708029DBD4375195D4E3746FB58AB61D2
:105B3000019B9B00C558FE58AE61C558FB58AB622F
:105B40006400521CD3B2082BE7D3FEF759FE52482B
:105B50000546A878800051490B461958504A14460A
:105B600022588A62697889005A5861589161195897
:105B70002058886103B0F0BD50180020D0190020D3
:105B8000F0B585B00190444B98788400434E31596C
:105B9000434D2A598A61587803908200B358AF5810
:105BA0009F6133592F599F62B358AA589A6278223D
:105BB0000023D108102704978F433159C9192F5951
:105BC0008F610398810077586858B8617058695898
:105BD000816240F280107030520002405B1CD8B2EB
:105BE0000828E6D3FEF70CFE2B4841780391817814
:105BF000402200232F463C46D708049DBD438F001A
:105C0000F0594019E55985610398800035582758A7
:105C1000AF61274635583858A862520040F28010CC
:105C200002405B1CD8B20828E5D3FEF7E9FD1A480C
:105C300041780391807802900022019802998B00AC
:105C4000F558C1B2CF083046049EBE432746AD1971
:105C5000FB58AB61039B9B00C558FE58AE610646DE
:105C6000F558FB58AB624800521CD3B2082BE5D361
:105C7000FEF7C6FD084803469878800031583A5828
:105C80008A62597889007258795891613158385828
:105C9000886105B0F0BDC04600000020501800200B
:105CA000D0190020F0B587B00A4C0B4A22650B4A88
:105CB0006265A065E165E07A0390820008498B582F
:105CC000084882589A62227A0592627A04923627AC
:105CD000002409E000000020616E00082D6E00081D
:105CE00050180020D0190020049A9300CA58C558B3
:105CF0009562FA08102506959543059A92008E58EC
:105D0000AD198258AA61CA58C558956140F2FE1271
:105D1000951E7F002F40641CE2B2082AE4D3039A48
:105D200092008C588258A261CA58C4589462059A4D
:105D300094000A59049505599562CA58C558956149
:105D4000CA58C55895620A5905599562CA58C55826
:105D50009561CA58C55895620A5905599562CA583D
:105D6000C5589561CA58C55895620A590559956232
:105D7000CA58C5589561CA58C55895620A590559F7
:105D80009562CA58C5589561CA58C55895620A594E
:105D900005599562CA58C5589561CA58C558956243
:105DA0000A5905599562CA58C5589561CA58C558C7
:105DB00095620A5904599462CA58C3589361074AB4
:105DC0001446E27A029292008B5882589A62227AA2
:105DD0000392627A05923A24002601E00000002036
:105DE000059A95004A5947599762E208069B9343E2
:105DF000039A9700CA599A18C35993614A5943594B
:105E000093616400049A1440761CF2B2082AE7D326
:105E1000029A92008B5882589A61052200234C59AD
:105E20004659A662D408069EA643CC593419C659D1
:105E3000A6614C594659A661520040F2FE14224018
:105E40005B1CDCB2082CEAD3029A92008B58825871
:105E50009A62B22200234C594659A662D408069E83
:105E6000A643CC593419C659A6614C594659A66166
:105E70005200049C22405B1CDCB2082CEBD3029A3B
:105E800092008B5882589A610C2300224C59465933
:105E9000A662DC08069EA643CC593419C659A661F1
:105EA0004C594659A66140F2FE14A61F5B003340D0
:105EB000521CD4B2082CE9D3029A92008B58825813
:105EC0009A610C22002305964C594659A662D408C3
:105ED000069EA643CC593419C659A6614C59465959
:105EE000A6615200059C22405B1CDCB2082CEBD35F
:105EF000029A92008B5882589A614A594359936288
:105F0000039A9300CA58C45894624A5944599461F8
:105F10004A5944599462CA58C45894624A594459D7
:105F200094614A5944599462CA58C45894624A596F
:105F3000445994614A5944599462CA58C458946265
:105F40004A59445994614A5944599462CA58C458A8
:105F500094624A59445994614A5944599462CA58BE
:105F6000C45894624A59445994614A5944599462B4
:105F7000CA58C45894624A59445994614A59445978
:105F80009462CA58C35893624A5943599361074A65
:105F90001446E27A019292008B5882589A61227AD2
:105FA0000292627A00923324002201E00000002075
:105FB000009B9D004E594359B362E308069F9F43DF
:105FC000029B9E008B59FB1887599F614B5947597B
:105FD0009F6140F2FE1364001C40521CD3B2082B98
:105FE000E6D3019A92008B5882589A61332200239B
:105FF0004C594759A762D408069FA7438C593C19AE
:106000008759A7614C594759A76140F2FE145200C5
:1060100022405B1CDCB2082CEAD3019A92008B5818
:1060200082589A62B72200234C594759A762D40874
:10603000069FA7438C593C198759A7614C5947596A
:10604000A76140F2FE14520022405B1CDCB2082C17
:10605000EAD3019A92008B5882589A613522002324
:106060004C594759A762D408069FA7438C593C193D
:106070008759A7614C594759A76140F2FE14520055
:1060800022405B1CDCB2082CEAD3019A92008B58A8
:1060900082589A62BB2200234C594759A762D40800
:1060A000069FA7438C593C198759A7614C594759FA
:1060B000A76140F2FE14520022405B1CDCB2082CA7
:1060C000EAD3019A92008B5882589A6119220023D0
:1060D0004C594759A762D408069FA7438C593C19CD
:1060E0008759A7614C594759A76140F2FE145200E5
:1060F00022405B1CDCB2082CEAD3019A92008B5838
:1061000082589A62C02300224C594759A762DC0882
:10611000069FA7438C593C198759A7614C59475989
:10612000A76140F2FE147E3C5B002340521CD4B2B7
:10613000082CE9D3019A92008B5882589A612C223C
:1061400000234C594759A762D408069FA7438C598E
:106150003C198759A7614C594759A7615200059CC2
:1061600022405B1CDCB2082CEBD3019A92008B58C6
:1061700082589A62C22200234C594759A762D40818
:10618000069FA7438C593C198759A7614C59475919
:10619000A7615200049C22405B1CDCB2082CEBD3AC
:1061A000019A92008B5882589A61012200234C591F
:1061B0004759A762D408069FA7438C593C198759B1
:1061C000A7614C594759A76140F2FE145200224082
:1061D0005B1CDCB2082CEAD3019A92008B588258DF
:1061E0009A62C32200234C594759A762D408069FDC
:1061F000A7438C593C198759A7614C594759A76146
:1062000040F2FE14520022405B1CDCB2082CEAD3A0
:10621000019A92008B5882589A61122200234C599D
:106220004759A762D408069FA7438C593C19875940
:10623000A7614C594759A7615200049C22405B1C3E
:10624000DCB2082CEBD3019A92008B5882589A62E8
:10625000C42200234C594759A762D408069FA7437C
:106260008C593C198759A7614C594759A76152006D
:10627000059C22405B1CDCB2082CEBD3019A9200F7
:106280008B5882589A61202300224C594759A762A3
:10629000DC08069FA7438C593C198759A7614C59C4
:1062A0004759A76140F2FE173E3F5B003B40521C3E
:1062B000D4B2082CE9D30297019A92008B588258E5
:1062C0009A62C62200234C594759A762D408069FF8
:1062D000A7438C593C198759A7614C594759A76165
:1062E0005200049C22405B1CDCB2082CEBD3019AC8
:1062F00092008B5882589A610F2200234C594759BB
:10630000A762D408069FA7438C593C198759A761F7
:106310004C594759A761520040F2FE1422405B1CC1
:10632000DCB2082CEAD3019A92008B5882589A6208
:10633000D02300244A5947599762DA08069F9743A9
:106340008A59BA18875997614A594759976140F253
:10635000FE121E3A5B001340641CE7B2082FE9D31B
:106360000492019A9300CC58C358A361A42300243B
:106370004F594259BA62DA08069F97438A59BA18A8
:10638000875997614A59475997615B00059A1340AD
:10639000641CE2B2082AEBD3019A92008B5882580F
:1063A0009A61A12300244A5947599762DA08069F47
:1063B00097438A59BA18875997614A59475997613B
:1063C0005B0040F2FE121340641CE2B2082AEAD3DA
:1063D000019A92008B5882589A62E02300244A590D
:1063E00047599762DA08069F97438A59BA1887591E
:1063F00097614A59475997615B00029A1340641CA0
:10640000E2B2082AEBD3019A92008B5882589A6123
:10641000D02300244A5947599762DA08069F9743C8
:106420008A59BA18875997614A59475997615B0049
:10643000049A1340641CE2B2082AEBD3019A92003A
:106440008B5882589A61042300244A59475997620D
:10645000DA08069F97438A59BA18875997614A59AB
:10646000475997615B00059A1340641CE2B2082A01
:10647000EBD3019A92008B5882589A610D23002425
:106480004A5947599762DA08069F97438A59BA18BA
:10649000875997614A594759976140F2FE125B004C
:1064A0001340641CE2B2082AEAD3019A92008B5886
:1064B00082589A61112300244A5947599762DA0891
:1064C000069F97438A59BA18875997614A5947597D
:1064D000976140F2FE125B001340641CE2B2082A8E
:1064E000EAD3019A92008B5882589A6113230024B0
:1064F0004A5947599762DA08069F97438A59BA184A
:10650000875997614A594759976140F2FE125B00DB
:106510001340641CE2B2082AEAD3019A92008B5815
:1065200082589A612B2300244A5947599762DA0806
:10653000069F97438A59BA18875997614A5947590C
:10654000976140F2FE125B001340641CE2B2082A1D
:10655000EAD3019A92008B5882589A613F23002413
:106560004A5947599762DA08069F97438A59BA18D9
:10657000875997614A594759976140F2FE125B006B
:106580001340641CE2B2082AEAD3019A92008B58A5
:1065900082589A61542300240396039E4A590C4F53
:1065A000084639464F599762DA08069F9743825941
:1065B000BA188F59976142594F5901469761059F03
:1065C0005B003B40641CE2B2082AE7D302E0C0460D
:1065D000D0190020019A92008B58034CA2589A615E
:1065E0004C230024039E01E0D01900204A590B4F90
:1065F00039464F599762DA08069F97438259BA186D
:106600008F59976142594F59014697615B00059A2E
:106610001340641CE2B2082AE8D301E0D01900203C
:10662000019A92008B5803498A589A6118230024D2
:10663000039E01E0D019002042594F599762DA08B1
:10664000069F97438259BA188F59976142594F59FB
:10665000976140F2FE120E3A5B001340641CE2B2F6
:10666000082AE9D3019A920083588A589A610D2327
:10667000002442594F599762DA08069F974382597E
:10668000BA188F59976142594F59976140F2FE12DB
:106690005B001340641CE2B2082AEAD3019A92001C
:1066A00083588A589A610B23002442594F599762A4
:1066B000DA08069F97438259BA188F599761425951
:1066C0004F59976140F2FE125B001340641CE2B226
:1066D000082AEAD3019A920083588A589A611F23A4
:1066E000002442594F599762DA08069F974382590E
:1066F000BA188F59976142594F59976140F2FE126B
:106700005B001340641CE2B2082AEAD3019A9200AB
:1067100083588A589A612323002442594F5997621B
:10672000DA08069F97438259BA188F5997614259E0
:106730004F59976140F2FE125B001340641CE2B2B5
:10674000082AEAD3019A920083588A589A62E12370
:10675000002442594F599762DA08069F974382599D
:10676000BA188F59976142594F59976140F2FE12FA
:106770005B001340641CE2B2082AEAD3019A92003B
:1067800083588A589A61D023002442594F599762FE
:10679000DA08069F97438259BA188F599761425970
:1067A0004F5997615B00049A1340641CE2B2082AB7
:1067B000EBD3019A920083588A589A6104220023ED
:1067C000004E01E0D019002044597759A762D4083F
:1067D000069FA743039944583C197758A761445929
:1067E0007759A761059952000A405B1CDCB2082C5E
:1067F000EAD3019A92008358034CA2589A610C2262
:106800000023039E02E0C046D019002044590B4FDC
:1068100039464F59A762D408069FA74384593C19AB
:106820008F59A76144594F59A761520005990A40F1
:106830005B1CDCB2082CE9D302E0C046D019002072
:10684000019A9200835803498A589A6111220023C1
:10685000039E01E0D019002044594F59A762D40883
:10686000069FA74384593C198F59A76144594F5932
:10687000A76140F2FE14520022405B1CDCB2082CDF
:10688000EAD3019A920083588A589A61132200230E
:1068900044594F59A762D408069FA74384593C190D
:1068A0008F59A76144594F59A76140F2FE14520015
:1068B00022405B1CDCB2082CEAD3019A9200835878
:1068C0008A589A612C22002344594F59A762D40850
:1068D000069FA74384593C198F59A76144594F59C2
:1068E000A7615200059C22405B1CDCB2082CEBD354
:1068F000019A920083588A589A613F220023445992
:106900004F59A762D408069FA74384593C198F5951
:10691000A76144594F59A761520040F2FE1422402A
:106920005B1CDCB2082CEAD3019A920083588A5887
:106930009A614422002344594F59A762D408069F04
:10694000A74384593C198F59A76144594F59A761EE
:106950005200059C22405B1CDCB2082CEBD3019A50
:10696000920083588A589A615122002344594F5902
:10697000A762D408069FA74384593C198F59A76181
:1069800044594F59A76140F2FE14520022405B1C4B
:10699000DCB2082CEAD3019A920083588A589A6193
:1069A0002F22002344594F59A762D408069FA743BA
:1069B00084593C198F59A76144594F59A76140F236
:1069C000FE14520022405B1CDCB2082CEAD3019A70
:1069D000920083588A589A611F22002344594F59C4
:1069E000A762D408069FA74384593C198F59A76111
:1069F00044594F59A76140F2FE14520022405B1CDB
:106A0000DCB2082CEAD3019A920083588A589A6122
:106A10001F22002344594F59A762D408069FA74359
:106A200084593C198F59A76144594F59A76140F2C5
:106A3000FE14520022405B1CDCB2082CEAD3019AFF
:106A4000920083588A589A612022002344594F5952
:106A5000A762D408069FA74384593C198F59A761A0
:106A600044594F59A7615200029C22405B1CDCB282
:106A7000082CEBD3019A920083588A589A612322FA
:106A8000002344594F59A762D408069FA74384594D
:106A90003C198F59A76144594F59A76140F2FE1420
:106AA000520022405B1CDCB2082CEAD3019A92000F
:106AB00083588A589A622122002344594F59A76269
:106AC000D408069FA74384593C198F59A76144599C
:106AD0004F59A76140F2FE14520022405B1CDCB209
:106AE000082CEAD3019A920083588A589A6211229C
:106AF000002344594F59A762D408069FA7438459DD
:106B00003C198F59A76144594F59A76140F2FE14AF
:106B1000520022405B1CDCB2082CEAD3E44C226811
:106B2000D243DC480592026700200290C0430490E3
:106B3000E74B1F463F3722687A400598101A1840E5
:106B4000E44A9042F4D3216804984140D148059129
:106B50000167059920687840401A18409042F9D39F
:106B6000216804984140CB48016720687840401A6A
:106B700018409042F9D3216804984140C5480591D6
:106B80000167059920687840401A18409042F9D36F
:106B9000216804984140BF48016720687840401A46
:106BA00018409042F9D3216804984140B9480167E0
:106BB00020687840401A18409042F9D32168049820
:106BC0004140B448016720687840401A184090421C
:106BD000F9D3216804984140AE48059101670599B1
:106BE00020687840401A18409042F9D321680498F0
:106BF0004140A848016720687840401A18409042F8
:106C0000F9D3216804984140A2480591016705998C
:106C100020687840401A18409042F9D301988000CB
:106C2000804C22588049085890622922029F60595E
:106C30004B598362D008069B8343A05918188B597F
:106C4000836160594B598361520040F2FE1002404B
:106C50007F1CF8B20828EAD307B0F0BDF0B587B0C2
:106C600003930192029100908A4BD97A89006D4872
:106C700042586D4841589162187A0590587A0490AC
:106C80002A230025674C684F04988100665878587D
:106C9000B062D808102606968643059880002258D0
:106CA000B21838589061605840F2F81279588161F2
:106CB000101D5B0003406D1CE8B20828E4D3009867
:106CC00000F064F8019800F061F872480346D87A41
:106CD000800054490958544A10588862187A05901F
:106CE000587A04902B220023049885004D480446CE
:106CF00066594D4807467859B062D008069E8643CB
:106D0000059880002158711838588861605940F200
:106D1000F81479598161A01D520002405B1CD8B261
:106D20000828E1D3029800F031F8039800F02EF81B
:106D300058480346D87A80003A4909583A4A1058C8
:106D40008862187A0590587A04902C2200230498BF
:106D50008500344804466659334807467859B0627E
:106D6000D008069E8643059880002158711838582F
:106D70008861605940F2F8147959816152002240CB
:106D80005B1CD8B20828E2D307B0F0BDF0B582B0E2
:106D9000404BD97A8C0023490D5923490C59AC61D9
:106DA000070A197A0191597A0091002300998C0001
:106DB0001C490D591C490E59AE62FE0810210D46A2
:106DC000B543019A9600174A9259AA18164DAD5923
:106DD0009561144A1259144D2D59956140F2FE12D5
:106DE0007F0017405B1CDAB2082ADFD300230E4F66
:106DF0000C4A12593D599562C2080D469543094AFD
:106E00009259AA18BD599561064A12593D59956182
:106E100040F2FE12400010405B1CDAB2082AE7D3B1
:106E200002B0F0BD50180020D019002010B5002885
:106E300014DB184C627B8AB900290FDBA26D8242F9
:106E40000CDDE26D8A4209DD80B289B202460B4652
:106E5000FFF704FF208EFFF799FF10BD10BDC0465D
:106E600010B5002814DB0B4C227B8AB900290FDBFC
:106E7000A26D82420CDDE26D8A4209DD80B289B2E8
:106E800002460B46FFF7EAFEE08DFFF77FFF10BDDD
:106E900010BDC04600000020F0B583B0FAF728FA14
:106EA000034C2068C043034B18670021CA4303E02A
:106EB00018E000E000000020054D2E463F36216816
:106EC0007140091A2940034FB942F5D304E0C04686
:106ED000C0FFFF004019010020685040186721687A
:106EE0007140091A2940B942F9D320685040186707
:106EF00021687140091A2940B942F9D320685040ED
:106F0000186721687140091A2940B942F9D32068ED
:106F10005040186721687140091A2940B942F9D3D5
:106F200020685040186721687140091A2940B94209
:106F3000F9D320685040186721687140091A294028
:106F4000B942F9D320685040186721687140091A86
:106F50002940B942F9D32068504018672168714030
:106F6000091A2940B942F9D32068029250401867A3
:106F700021687140091A2940B942F9D3D87B8000B1
:106F8000019036490958364B1A588A613548017CB8
:106F90008900324842585B58936130484258304823
:106FA000435893622D4842582D48435893612B4AC9
:106FB000525800920246535800988362274843581B
:106FC00000935358009883612448435800935358C2
:106FD0000098836221484358009353580098836176
:106FE0001E48435800935358009883621B484358E7
:106FF000009353580098836118484058535883624F
:107000000198164B1B58009313580098836213483D
:10701000405800905358009883611048435800939B
:10702000535800988362019B0C48C0580090D05878
:107030001346009A9062094A104640585A58826195
:1070400006484058595881623020FAF7CBFF054B6B
:107050002068029A5040186706E0C0465018002089
:10706000D01900200000002021687140091A294031
:10707000B942F9D320685040186721687140091A55
:107080002940B942F9D320685040186721687140FF
:10709000091A2940B942F9D320685040186721687D
:1070A0007140091A2940B942F9D320685040186745
:1070B00021687140091A2940B942F9D3206850402B
:1070C000186721687140091A2940B942F9D320682C
:1070D0005040186721687140091A2940B942F9D314
:1070E00020685040186721687140091A2940B94248
:1070F000F9D320685040186721687140091A294067
:10710000B942F9D320685040186721687140091AC4
:107110002940B942F9D3D87B8100019136484058C3
:10712000364B5A5882613648007C800032490A58F2
:1071300019460B589361304B1A4612580B589362FC
:107140002D490A582D490B5893612B4A1258009229
:107150000A46135800998B6227490B58009313581D
:1071600000998B6124490B580093135800998B6246
:1071700021490B580093135800998B611E490B58F5
:107180000093135800998B621B490B5800931358B6
:1071900000998B611849095813588B620199164B55
:1071A0005B580093535800998B621349095800911A
:1071B000135800998B6110490B580093135800998C
:1071C0008B62019B0C49C9580091D1581346009A13
:1071D0009162094A114609581A588A6106490958A4
:1071E000185888623020FAF7FDFE054B2068029A95
:1071F0005040186706E0C04650180020D019002003
:107200000000002021687140091A2940B942F9D3D1
:1072100020685040186721687140091A2940B94216
:10722000F9D320685040186721687140091A294035
:10723000B942F9D320685040186721687140091A93
:107240002940B942F9D3206850401867216871403D
:10725000091A2940B942F9D32068504018672168BB
:107260007140091A2940B942F9D320685040186783
:1072700021687140091A2940B942F9D32068504069
:10728000186721687140091A2940B942F9D320686A
:107290005040186721687140091A2940B942F9D352
:1072A00020685040186721687140091A2940B94286
:1072B000F9D3D87B8100019136484058364B5A5853
:1072C00082613648007C800032490A5819460B58C2
:1072D0009361304B1A4612580B5893622D490A5845
:1072E0002D490B5893612B4A125800920A461358A5
:1072F00000998B6227490B580093135800998B61B2
:1073000024490B580093135800998B6221490B585C
:107310000093135800998B611E490B580093135822
:1073200000998B621B490B580093135800998B618D
:107330001849095813588B620199164B5B580093F2
:10734000535800998B6213490958009113580099BA
:107350008B6110490B580093135800998B62019B65
:107360000C49C9580091D1581346009A9162094AB4
:10737000114609581A588A610649095818588862EE
:107380000C20FAF72FFE054B2068029A5040186730
:1073900006E0C04650180020D01900200000002050
:1073A00021687140091A2940B942F9D32068504038
:1073B000186721687140091A2940B942F9D3206839
:1073C0005040186721687140091A2940B942F9D321
:1073D00020685040186721687140091A2940B94255
:1073E000F9D320685040186721687140091A294074
:1073F000B942F9D320685040186721687140091AD2
:107400002940B942F9D3206850401867216871407B
:10741000091A2940B942F9D32068504018672168F9
:107420007140091A2940B942F9D3206850401867C1
:1074300021687140091A2940B942F9D320685040A7
:10744000186721687140091A2940B942F9D3D87BDD
:107450008100019136484058364B5A58826136486F
:10746000007C800032490A5819460B589361304B12
:107470001A4612580B5893622D490A582D490B5839
:1074800093612B4A125800920A46135800998B6256
:1074900027490B580093135800998B6124490B58C6
:1074A0000093135800998B6221490B58009313588D
:1074B00000998B611E490B580093135800998B62F9
:1074C0001B490B580093135800998B6118490958B0
:1074D00013588B620199164B5B58009353580099CF
:1074E0008B62134909580091135800998B61104918
:1074F0000B580093135800998B62019B0C49C95893
:107500000091D1581346009A9162094A11460958D0
:107510001A588A6106490958185888620120FAF7F2
:1075200061FD054B2068029A5040186706E0C0468E
:1075300050180020D0190020000000202168714060
:10754000091A2940B942F9D32068504018672168C8
:107550007140091A2940B942F9D320685040186790
:1075600021687140091A2940B942F9D32068504076
:10757000186721687140091A2940B942F9D3206877
:107580005040186721687140091A2940B942F9D35F
:1075900020685040186721687140091A2940B94293
:1075A000F9D320685040186721687140091A2940B2
:1075B000B942F9D320685040186721687140091A10
:1075C0002940B942F9D320685040186721687140BA
:1075D000091A2940B942F9D3206850401867216838
:1075E0007140091A2940B942F9D3D87B8100019131
:1075F00034484058344B5A5882613448007C8000EB
:1076000030490A5819460B5893612E4B1A461258A6
:107610000B5893622B490A582B490B589361294AFE
:10762000125800920A46135800998B62FB490B5876
:107630000093135800998B61F8490B580093135825
:1076400000998B62F5490B580093135800998B6190
:10765000F2490B580093135800998B62EF490B586D
:107660000093135800998B61EC49095813588B62A9
:107670000199EA4B5B580093535800998B62E74994
:1076800009580091135800998B61E4490B580093F5
:10769000135800998B62019BE049C9580091D15859
:1076A0001346009A9162DD4A114609581A588A61B8
:1076B000DA490958185888620620FAF793FCD64B25
:1076C000642005E050180020D019002000000020A0
:1076D0002168029A5140196722687240521A2A4062
:1076E000BA42F9D3411E01280846F1DCD87B81005B
:1076F0000191CA484058CA4A52588261187C800099
:10770000C6490A58C6490B589361C4490A58C44926
:107710000B589362C1490A58C1490B589361BF4A3B
:10772000135800930A46135800998B62BB490B58B3
:107730000093135800998B61B8490B580093135864
:1077400000998B62B5490B580093135800998B61CF
:10775000B2490B580093135800998B62AF490B58EC
:107760000093135800998B61AC49095813588B62E8
:107770000199AA4B5B580093535800998B62A74913
:1077800009580091135800998B61A4490B58009334
:10779000135800998B62019BA049C9580091D15898
:1077A0001346009A91629D4A114609581A588A61F7
:1077B0009A490958185888623420FAF713FC964BF6
:1077C0002068029A5040186721687140091A2940C0
:1077D000B942F9D320685040186721687140091AEE
:1077E0002940B942F9D32068504018672168714098
:1077F000091A2940B942F9D3206850401867216816
:107800007140091A2940B942F9D3206850401867DD
:1078100021687140091A2940B942F9D320685040C3
:10782000186721687140091A2940B942F9D32068C4
:107830005040186721687140091A2940B942F9D3AC
:1078400020685040186721687140091A2940B942E0
:10785000F9D320685040186721687140091A2940FF
:10786000B942F9D320685040186721687140091A5D
:107870002940B942F9D3D87B81000191674840582B
:10788000674B5A5882616448007C800063490A58FB
:1078900019460B589361614B1A4612580B58936264
:1078A0005E490A585E490B5893615C4A125800922F
:1078B0000A46135800998B6258490B580093135885
:1078C00000998B6155490B580093135800998B62AE
:1078D00052490B580093135800998B614F490B582C
:1078E0000093135800998B624C490B58009313581E
:1078F00000998B614949095813588B620199474B8C
:107900005B580093535800998B62F94909580091CC
:10791000135800998B61F6490B580093135800993E
:107920008B62019BF249C9580091D1581346009AC5
:107930009162EF4A114609581A588A61EC49095870
:10794000185888623620FAF74DFB334A20680299AE
:107950004840106721687140091A2940B942F9D39B
:10796000206802994840106721687140091A29402F
:10797000B942F9D3206802994840106721687140E4
:10798000091A2940B942F9D3206802994840106782
:1079900021687140091A2940B942F9D32068029937
:1079A0004840106721687140091A2940B942F9D34B
:1079B000206802994840106721687140091A2940DF
:1079C000B942F9D320680299484010672168714094
:1079D000091A2940B942F9D3206802994840106732
:1079E00021687140091A2940B942F9D320680299E7
:1079F0004840106721687140091A2940B942F9D3FB
:107A0000206802994840106721687140091A29408E
:107A1000B942F9D303B0F0BD000000205018002097
:107A2000D0190020F0B581B000901B200024214621
:107A3000FCF702FD304E3046FCF766FEFD36304660
:107A4000FCF762FE0920C70601263846314640F29F
:107A50000022FCF7E3FB3846314640F20042FCF7D7
:107A6000DDFB022538462946324640F20023FCF76A
:107A70008DFC38462146324640F20023FCF7ABFC31
:107A800038462946324640F20043FCF77FFC384630
:107A90002146324640F20043FCF79DFC174E30462B
:107AA00001F054FE3046009901F01AFE304621469E
:107AB00001F0E4FE3046214601F0CBFE304621467F
:107AC00001F0B2FE3046214601F079FE30462146F3
:107AD00001F068FE0421304601F0B3FE0821304673
:107AE00001F0C4FE304601F04BFE0521304601F0A6
:107AF00073FE01B0F0BDC046110500000038014022
:107B000010B57A4A136D002B06DB012403B91C461D
:107B1000D47400F011F810BD10BDC04610B5734A02
:107B2000D36C002B06DB012403B91C46D47400F08F
:107B300003F810BD10BDC046F0B589B0002878DB51
:107B4000002976DB694BDC6B844272DD1A6C8A4259
:107B50006FDDC54364195D7C05B12046CC43121925
:107B60009C7C04B111461A7C002A044600D00C46C5
:107B700002B101469F6C304E012F0496059717D134
:107B80000720084001258540C8082C4A0240586C4F
:107B90005043001930409A6B8018294A175C3E46C2
:107BA000AE433D43DF7C07B12E461654059F00E0EF
:107BB0003FDB7808221A0392091AD87C0290986B4E
:107BC0000190586C00900020049E019D1C4B069073
:107BD0000720084001228240FF2408925440079168
:107BE000C808164A02400098424303988118821838
:107BF0000298002838460BD04A1C314049195C5C79
:107C0000089F3C435C54401E00281146F4D109E013
:107C1000501C324051195A5C22405A547F1E002F8A
:107C20000246F5D10698401C0799491C059FB842A9
:107C3000CDD109B0F0BDC046FFFF0000FF1F00001E
:107C400050030020F0B581B00F252849485701287E
:107C500039DB0026344600958F196820385C800097
:107C6000A3490958A14A1058FCF78AFB7221795C94
:107C70000A460243723742B301281ED1E9B11D4DB5
:107C8000A85D80009A490958984A1058FCF778FB7B
:107C9000A91908758A7A012108B9012A04D000219E
:107CA000C9433AB9012805D1B000134A1018826CB3
:107CB0005118816400203870009D0C494857641C9D
:107CC000E6B28642C8DB01B0F0BD0A480446A05DBA
:107CD0008000E7490958E74A1058FCF751FBA11901
:107CE00088720120387001B0F0BDC04660010020EC
:107CF00050180020E0010020E0020020F0B585B01F
:107D0000EFF3108172B604908000DA490958D84A1E
:107D1000105888620020C5431220D24F396869404C
:107D2000D54A11673A68D04C6240521A23463F3B0D
:107D30001340704A9342F5D3411E01280846EDDCFA
:107D400004988000CB490958C94A105888613A689C
:107D50006A40C948026740F2D020396861408B1AF6
:107D600021460F390B401B092D2BF6D33A686A4088
:107D7000C14B1A673B6863409B1A0B408342F9D39F
:107D80003A6802956A40BC4B1A673B6863409B1A8D
:107D90000B408342F9D304988600B5488359B5480F
:107DA0008059002501222946FCF7F0FAB048815994
:107DB000B0488059FCF7E4FAAC49039101281AD184
:107DC0000026386802994840AB4908673968614025
:107DD000091AE21F0A40482AF8D304988000A449EF
:107DE0000958A44A1058FCF7CBFA761C03998E4226
:107DF00001D20128E5D004988000FB490958F94ACE
:107E00001058FCF7BDFAD0B90026386802994840EE
:107E1000F649086739686140091AE21F0A40482A92
:107E2000F8D304988000F0490958EE4A1058FCF73E
:107E3000A7FA761C03998E4201D20028E5D0049857
:107E40008000E9490958E74A1058FCF799FA0128D7
:107E5000029E18D138687040E4490867396861406B
:107E6000091AE21F0A40482AF8D304988000DE4924
:107E70000958DC4A1058FCF783FA6D1C03998D42AF
:107E800001D20128E6D0049C204600F035F803908A
:107E9000204600F031F80290204600F02DF80190C5
:107EA000204600F029F80546204600F025F862B685
:107EB000A600CD488359CB480746B8590121002474
:107EC0002246FCF763FAC8488359B8590322214671
:107ED000FCF781FA03980002029908430002019915
:107EE000084300020543284605B0F0BD50180020A5
:107EF000D019002040190100F0B585B00026F143EB
:107F00000491B74FBA4D5949029140F2D024B64A74
:107F1000B44B019603900096800011581858FCF756
:107F20002FFA40F2D021D239019A52000A40019230
:107F3000D0B90026386804994840AC4908673968C8
:107F40006940091AEA1F0A40482AF8D303988000BA
:107F5000FD490958FB4A1058FCF712FA761C0299A1
:107F60008E4201D20028E5D0396804984140F84893
:107F7000016738686840421A28460F380240A2421A
:107F8000F7D33968049A5140F14A11673A686A4058
:107F9000521A0240A242F9D33968049A5140EC4A7D
:107FA00011673A686A40521A0240A242F9D339680E
:107FB000049A5140E64A11673A686A40521A0240F0
:107FC000A242F9D33968049A5140E14A11673A68EC
:107FD0006A40521A0240A242F9D3039EB000DA4925
:107FE0000958D84A1058FCF7CBF901282BD1B0001A
:107FF000D5490958D34A1058FCF7C2F90121019E0E
:108000000E430128D04ACF4B019620D10026386874
:1080100004994840CE49086739686940091AEA1F3F
:108020000A40482AF8D303988000C7490958C54A2E
:108030001058FCF7A5F9761C02998E4201D201284E
:10804000E5D0039800E03046BF4ABE4B00E00398FD
:10805000009E761CF1B2082900D25CE70198C0B2FC
:1080600005B0F0BD18E000E0FFFFFF0010270000A2
:10807000D01900205018002000000020F0B589B071
:108080000890EFF3108072B60020C243AF4C40F26C
:10809000D02505900792049008988000A9490958B6
:1080A000A94B1858886220685040A9490867216880
:1080B0004F4E7140091AF21F0A40482AF7D3089818
:1080C0008000A0490F4639589F4A13461A588A61C2
:1080D0001B58385800210122FCF758F920680799ED
:1080E0004840FB49086721687140091A37460F3F2D
:1080F000394009092D29F6D308988200F3488158A0
:10810000F14806928058FCF73BF903902068079AE3
:108110005040EF490867FE21059B0B405B087F211B
:10812000C94301931943059121687140091A3940E7
:10813000A942F9D320685040E54908672168714099
:10814000091A3940A942F9D320685040E04908672C
:1081500021687140091A3940A942F9D3206850407A
:10816000DB49086721687140091A3940A942F9D3EF
:1081700020685040D649086721687140091A394083
:10818000A942F9D3D14806994358CF484058012114
:1081900000220292FCF7FAF80699CC484358CA48E4
:1081A000405803220299FCF716F92068079A5040BC
:1081B000C749086721687140091A3940A942F9D3B3
:1081C0000398012801D0019805900498401C40B202
:1081D000082800DA5FE70598C0B262B609B0F0BDC2
:1081E00018E000E050180020D01900200000002006
:1081F000FFFFFF00F0B583B0EFF3108172B601907E
:108200008000B1490958B14B185888620020C0431A
:1082100002901820AB4D40F2D0242968029A5140B8
:10822000AB4A11674B4F3E460F362A687240521ACE
:108230003A4012092D2AF5D3411E01280846ECDCEC
:1082400018202968029A5140A14A11672A68724091
:10825000521A3A40A242F9D3411E01280846F0DCE6
:1082600018202968029A5140994A11672A68724079
:10827000521A3A40A242F9D3411E01280846F0DCC6
:108280000198800090490958185888612868029917
:1082900048408F49086729687140091A3940A1424E
:1082A000F9D32868029948408949086729687140CC
:1082B000091A3940A142F9D32868029948408449F3
:1082C000086729687140091A3940A142F9D3286822
:1082D000029948407E49086729687140091A394067
:1082E000A142F9D3019880001B5877490858002112
:1082F0000122FCF74BF819202968029A5140744A70
:1083000011672A687240521A3A40A242F9D3411EBC
:1083100001280846F0DC019885006C4807467B5927
:10832000694806467059012100242246FCF72EF8C0
:108330007B59705903222146FCF74DF862B603B011
:10834000F0BDC04650180020D019002018E000E011
:1083500000000020F0FFFF00F0B585B00391009011
:10836000EFF3108072B60022D0430490554C40F2D7
:10837000D0250192009883005348C058534A029375
:10838000D35883622068049A5040514A106723688A
:10839000504F7B401B1AFE1F3340482BF7D34A48EF
:1083A000029940580123039A13401B0110225A409E
:1083B0001018464A52588261236804984340444842
:1083C000036720687840C21A38460F380240120905
:1083D0002D2AF6D32368049A53403D4A1367226836
:1083E0007A40D21A0240AA42F9D32368049A534031
:1083F000374A136722687A40D21A0240AA42F9D358
:108400002368049A5340F94A136722687A40D21AC3
:108410000240AA42F9D32368049A5340F34A1367EF
:1084200022687A40D21A0240AA42F9D32368049AF9
:108430005340EE4A136722687A40D21A0240AA4299
:10844000F9D32368049A5340E84A136722687A40B4
:10845000D21A0240AA42F9D32368049A5340E34A4D
:10846000136722687A40D21A0240AA42F9D32368DD
:10847000049A5340DD4A136722687A40D21A0240B8
:10848000AA42F9D3104802994058104A52588261C2
:108490002068049A5040D54A106722687A40121A20
:1084A0003240D82AF9D3FE200399014049080391AC
:1084B0000198401C42B2082A00DA5AE762B605B0B9
:1084C000F0BDC04618E000E050180020D019002090
:1084D00000000020FFFFFF00F0B599B00293169056
:1084E000FF20000408408BB2191DF94C1794159019
:1084F00000280F9305D09C1CF448C3690D941819EB
:1085000003E0981CB84B0D901818595CC9080E91DF
:10851000017800200191002900D15CE1B2490D9859
:10852000081804900F9809300F900020039010B2A3
:108530001890100405900E98002800D13FE1072004
:10854000109000040B90032041040A9105210904B6
:10855000099101218A0408920004079000914804BF
:1085600006900023D8430C90D848C069029D039C14
:10857000149317990C400F99091940189A4A5118E9
:10858000159A02B90846007846B2169800286BD1B1
:108590002FB20120064202D1CE48426D01E0CD4803
:1085A000026D1898394690473F043846179908439A
:1085B000401C01140220064202D1C648426D01E06F
:1085C000C448026D18989047069838180114042082
:1085D000064202D1BF48426D01E0BE48026D1898C4
:1085E00090470798381801140820064202D1B9486C
:1085F000426D01E0B748026D189890470898381806
:1086000001141020064202D1B248426D01E0B14887
:10861000026D1898904709983818011420200642D6
:1086200002D1AC48426D01E0AA48026D189890470B
:108630000A98381801144020064202D1A548426D1C
:1086400001E0A448026D189890470B98381801145F
:108650000C98864202DD9F48426D01E09D48026D04
:1086600018989047083500261698012852D12FB245
:108670000120064204D0F648426D189839469047CA
:108680003F040220064207D017983818401C0114F6
:10869000EF48426D189890470420064206D006988D
:1086A00038180114EA48426D18989047082006428D
:1086B00006D0079838180114E548426D189890477D
:1086C0001020064206D0089838180114E048426D80
:1086D000189890472020064206D0099838180114AF
:1086E000DB48426D189890474020064206D00A9811
:1086F00038180114D648426D189890470C98864255
:1087000006DC0B9838180114D148426D1898904730
:10871000083500261698022840D19348C06B059969
:10872000002931DB1899884233DD8F48816B129123
:10873000016C1391406C1190002729B20120064270
:1087400019D0002947DB139A8A4244DD0D46109860
:10875000054001200346AB40CD08254A2A40119D23
:108760006A43189D5219179D2A40129D52191E4D99
:10877000AA5C1A422FD1FE20064076084D1C7F1CB1
:10878000F8B20828D9D309E01899884203DD1EB150
:1087900023E00EB11EE01EBBADB20835149B5B1C7E
:1087A000179803407048C0690D994118159A02B98D
:1087B000049909780C190E998B4200D2D8E61898C2
:1087C000421C0398401CC3B20020019903938B42C2
:1087D00001D2ACE6009819B0F0BD009819B0F0BD18
:1087E000009819B0F0BDC0465003002000000020E2
:1087F000FF1F0000F0B58DB002928AB25A49C969D4
:10880000089289180C79E5086E1C07221442079615
:10881000324600D12A4604B107928A78C978090203
:10882000114306912A49059101284CDB12990191C7
:1088300061180C910899093108910799F1B3002149
:1088400009910090029803910A1804931FB2099BA2
:1088500001980A9305990A4008990B928918424A8F
:10886000D269565C099C05B20120064202D17848C3
:10887000426D01E07648026D384629469047681CF3
:1088800001B20C9A8A4206DDFE210E407608641C75
:10889000E1B20829E7D306990B9A52180A99491CA4
:1088A000CBB207998B42D4D30398401CC1B2049831
:1088B00080B2431C00988142C4DB04E00021491CC3
:1088C000C9B28142FBDB0DB0F0BDC04660010020A3
:1088D000FFFF000000000020B0B5E94CE07901285E
:1088E00040D1207A012815D1607A401C6072C1B253
:1088F000C820C9290ED30021A1736172227B521CAA
:108900002273D2B2052A05D3A173217221733730A5
:10891000E072B0BD607B8000DB490958D94A10582D
:10892000FBF72EFDA17AA072E0B901291AD100202F
:108930002073617A607201232372A57B6A1CA27383
:1089400085B1D2B2022A0DD0DB07656B6D082B43CF
:108950000F2900D82B466363222A03D1A07320730A
:10896000180CE072B0BDC04660010020F0B587B0C1
:108970000021CA430692354F40F2681605910A4617
:10898000039233490D46E97C8C00BE490959012206
:10899000049002401201102353405918BA4800595C
:1089A000886138680699484028672A4DEC1D396867
:1089B0006140091A2940C9082D29F6D3F748024613
:1089C000107D8000AF490958AF4B1858886238684D
:1089D00006994840106739686140091A2940B14238
:1089E000F9D3EE48407D8000A7490958A54A1058A0
:1089F000FBF7C6FC0290E94B197D8900A14842585B
:108A0000A148415891613A68069842401A67FE2190
:108A100005980191084040087F23DB4303433968F0
:108A20006140891A2940B142F9D3029901B118462F
:108A300005900498019908404008039A521CD1B24D
:108A400008299DD30598C0B207B0F0BD18E000E03A
:108A500000000020F8FFFF00F0B591B00F908000FB
:108A60007F4D10902F187869CB4A115C1018079031
:108A70000B91002900D1C4E07A4B1098185A165C6B
:108A800010180E90407801020E4377480D96064369
:108A900048F20004214200D00D9610995918898A95
:108AA000535C16465118497809020B43184321427A
:108AB00000D00346109AA85A354629188C78CE78EB
:108AC000360226433402497821430902285C0843D0
:108AD0000590664880182A466421405A1418A178E7
:108AE000E67836020E43310266780E433102105C9E
:108AF00008430490786E115C06911618396D505C2D
:108B000051180A91B96A515C0C91F96B515C0E9D38
:108B10006D1C0995651C0195A51C0295E71C544D1B
:108B2000089500290096039709D0002760B10D9D94
:108B30002EB219B28E4208DA751C074605E01BB248
:108B400007460D9D494E0FE00D9D0C9850B90698B3
:108B50000028464E07D028B2022804DBA8B20899A4
:108B6000451800E0414E2BB20F9840003018C18BE1
:108B7000CB18C3830E990D70290A099E31700A998A
:108B80000F700F461E3019B23A4EB14239DB3A49E6
:108B9000591801800C98B0B3394B0F981C18542009
:108BA000205C8100374D6858374E77580B99012962
:108BB00003D187620598401C02E087610598401E3A
:108BC0001099274F7958089F394050545118020A7C
:108BD0004A70020C8A70000EC8705920205C810017
:108BE0006858715859349A7D62B3FBF7EEFB28211F
:108BF0001822FF2800D01146207880002A583058CB
:108C0000505011B0F0BD0498012823DB401E2070A5
:108C1000010A019B1970010C029B1970000E039947
:108C2000087006980028B7D128B240431349B0FB1A
:108C3000F1F004998142AFDC0020387001200099E6
:108C40000870A9E78161207880002958305888622F
:108C500011B0F0BD00200799087011B0F0BDC046FA
:108C600060020020E00200200000FFFFE001002081
:108C7000FFFF000010270000F0D80000204E000089
:108C80006001002050180020D0190020F0B581B0FC
:108C900016460F46EFF3108372B6B7B10024A3193E
:108CA0003D490D46E95CEB185A7812020A4312025C
:108CB00099781143054600F01DFE284603210B0458
:108CC0002104CB181C14BC42E9DB62B66D48016874
:108CD000CE43D64C26670021CD4340F2D0216A4ACC
:108CE00013460F3307685F40BF1B17403F092D2F06
:108CF000F5D306686E40266707685F40BF1B1740C4
:108D00008F42F9D306686E40266707685F40BF1B35
:108D100017408F42F9D306686E40266707685F40A8
:108D2000BF1B17408F42F9D306686E40266707685D
:108D30005F40BF1B17408F42F9D306686E4026671D
:108D400007685F40BF1B17408F42F9D306686E402B
:108D5000266707685F40BF1B17408F42F9D306683C
:108D60006E40266707685F40BF1B17408F42F9D3EC
:108D700006686E40266707685F40BF1B17408F423A
:108D8000F9D306686E40266704685C40A41B144053
:108D90008C42F9D301B0F0BD500300200000002048
:108DA000F0B581B012020A4311021943EFF31082A9
:108DB00072B600F09FFD62B632480168CE439B4C0C
:108DC00026670021CD4340F2D0212F4A13460F33AE
:108DD00007685F40BF1B17403F092D2FF5D306687A
:108DE0006E40266707685F40BF1B17408F42F9D36C
:108DF00006686E40266707685F40BF1B17408F42BA
:108E0000F9D306686E40266707685F40BF1B1740AE
:108E10008F42F9D306686E40266707685F40BF1B24
:108E200017408F42F9D306686E40266707685F4097
:108E3000BF1B17408F42F9D306686E40266707684C
:108E40005F40BF1B17408F42F9D306686E4026670C
:108E500007685F40BF1B17408F42F9D306686E401A
:108E6000266707685F40BF1B17408F42F9D306682B
:108E70006E40266704685C40A41B14408C42F9D302
:108E800001B0F0BD18E000E0F0FFFF00F0B582B0E7
:108E9000D748066E012E00DA90E0002048490446CB
:108EA0000E2242438D18287F002800D181E0A87F40
:108EB000421CAA7728461E30D2B2EB7F9A4278D362
:108EC000002202701D202856642290FBF2F35343C7
:108ED000C61A6E77202028562F461D37864221DA83
:108EE00076BB2220285C2821182200280191084600
:108EF00000D0104600922622AA5C9200B9498958F7
:108F0000B94B9A580A502320285C0028019B00D0B6
:108F1000009B2720285C8000B2490958B24A1058AB
:108F2000C8500DE02620285C8000AE490A58AE4BA0
:108F3000185890622720285C80000A5818589062C0
:108F40002120285671B281421FDA6EBB2420295C91
:108F5000282018220029034600D013460092295CDD
:108F60008900A04A525801929F4A5158019AD15003
:108F70002521695C01B100982921695C8900994A21
:108F80005258994B595811500EE02820285C800007
:108F900094490A461158944B185888622920285C35
:108FA0008000115818588862701C38709048066EFE
:108FB0000349641CE0B2B04200DA71E702B0F0BDD0
:108FC0000001002070B5FFF761FFFFF785FCFEF799
:108FD00039FE1424534D687D01280BD128570128F0
:108FE00008DB002670B2FFF737FD2857711C4EB220
:108FF0008642F7DB7E4CA07D38B1626E501C0C4B74
:1090000000219A4200DC01466166207E60B1A07EAC
:10901000800075490958734A1058FBF7B1F910B12F
:10902000618E491C6186607670BDC04600000020DC
:109030005FEA0000B0B53B48C178012930D1C16A70
:109040004D1CC562846A384A135DFF21FA2D19D17F
:109050008B4206D09B00634CE458634DEB58A362EF
:10906000846A0023C362641C082C00D023468362F8
:10907000D25C8A4214D091005A4A52585A4B5958DD
:1090800091610DE08B420BD0A100284A5118896AEA
:109090008D4205D19900534A5258534B5958916209
:1090A0000178012917D1016A0A310162426A9142AD
:1090B00011DB891A016281782822182301B11A462E
:1090C00043789B00474CE458474DEB58A35000228F
:1090D000521A4A4182700179012922D1016B40F272
:1090E000E8328A180263124B9A421AD3114A89183D
:1090F0000163417989003B4A5258038B01241C408B
:109100002401102565405219374C61589161590866
:1091100001838179491C8171C9B20B2901D10021D8
:109120000171B0BD60010020D01A0020E0020020D3
:10913000B128000037DBFFFFF0B583B00291EFF3F9
:10914000108172B68100274A5258274B59589161B5
:10915000264F3968C943264A11670026F243019217
:109160003A68244D6A40521A2B460F3B13401A09A5
:109170002D2AF5D380001B4909581B4A10588862D4
:1091800001240298800018490958164A1058FBF724
:10919000F7F8611C18B9184884420C46F1DB3868AE
:1091A00001994840124C2067029880000E490958E6
:1091B0000C4A1058FBF7E4F801280AD138686840D7
:1091C000216F401A28404821B0FBF1F60B49884234
:1091D000EAD322207043C821B0FBF1F062B603B09D
:1091E000F0BDC04650180020D019002018E000E063
:1091F00000000020FFFFFF0050C3000048F91500E9
:10920000016880220A43026070470000F0B585B013
:10921000864B874C0394874C0294BB4D864E874FF8
:10922000874C0494874C032900D9F1E001960095FE
:109230008E0001A57519AF4600F006B800F085B89C
:1092400000F043B800F0C2B8036A01218B43036207
:1092500083690325AB4383611388056A1D43056257
:10926000036A0225AB4303629388056A1D430562C6
:10927000764BC3180A25EB41072B00D9C8E099406B
:10928000E123194200D1C3E0016A0423994301623A
:109290005188036A0B430362016A08239943016200
:1092A000D188036A0B430362416821404160118900
:1092B00043680B4343604168049B194041605189F6
:1092C00042680A43426005B0F0BD016A2140016274
:1092D0000321C943C4690C40C4611188046A0902AE
:1092E00021430162016A049C214001629188046A61
:1092F000090221430162191F8842009D019C00D090
:1093000086E0016A214001625188046A0902214312
:109310000162016A29400162D188046A090221437D
:1093200001621868029908401860108919680001E4
:109330000843186018680399084018605089196834
:1093400000010843186005B0F0BD016A1024A14374
:1093500001628169394081611188046A09012143F0
:109360000162016A2024A14301629188046A090113
:1093700021430162CB4988424CD0C7498842009DB5
:10938000019E45D1016A4024A14301625188046ACB
:10939000090121430162016A8024A1430162D1884D
:1093A000046A09012143016218683040186010897D
:1093B00019688000084318601868284018605089B0
:1093C000196880000843186005B0F0BD016A029C6E
:1093D00021400162C1693940C1611188046A0903F1
:1093E00021430162016A039C214001629188046A61
:1093F000090321430162191F884209D1186844F208
:1094000000018843186010891968800108431860BA
:1094100005B0F0BD0C480168019B1940016011893D
:10942000026889001143016005B0F0BD042C0140C1
:10943000FFDFFFFFFFEFFFFFFFFBFFFFFFFCFFFF73
:10944000FFFDFFFFFFFEFFFF0440014000D4FEBF11
:10945000B0B5144B032924D88C0001A56419A74684
:1094600000F006B800F00AB800F00EB800F011B82D
:10947000816970239943816118300FE08169194037
:1094800081611202183009E0C16970239943C161FA
:1094900003E0C1691940C16112021C300168114327
:1094A0000160B0BDFF8FFFFF032902D8890040187B
:1094B00042637047B0B5144B032924D88C0001A532
:1094C0006419A74600F006B800F00AB800F00EB81C
:1094D00000F011B8816908239943816118300FE0C9
:1094E0008169194081611202183009E0C1690823BD
:1094F0009943C16103E0C1691940C16112021C3086
:10950000016811430160B0BDFFF7FFFF70B588B07F
:109510001A48FBF7F9F8F54C204600F031F801A99C
:109520000520088000254D808D8040F28F1003902B
:10953000CD800D73204600F069F805AA02209080C6
:109540000126168020462946FFF760FE6422204649
:109550002946FFF7A9FF702220462946FFF778FF2A
:10956000204629462A46FFF7A5FF2046FFF748FE7A
:109570002046314600F0A7F808B070BD0B06000089
:1095800010B51949194A90420BDD194A904213DC73
:10959000D64A904220D0434A90421BD1481D84B203
:1095A0001BE03E4A904210D0124A904213D0404AEB
:1095B00090420FD1FD310FE03C4A904207D03A4A29
:1095C000904207D1C81D84B207E0F63104E0881D3F
:1095D00084B202E010BDF9318CB22046FBF7A8F846
:1095E0002046FBF79BF810BD0B030000FF2B01404A
:1095F000FF430140001000400168012291430160D7
:109600007047016801220A43026070470A8882623B
:10961000B64A904202D0214A90420BD10268702390
:109620009A4302604A880368134303608A88036888
:10963000134303608A68C262194A904207DC174AE2
:1096400090420DD01A4A90420AD0A84A06E0154A24
:10965000904205D0144A904202D0144A904215D14B
:10966000026840F200339A430260CA8803681343D9
:109670000360104A82180A23DA41072A06D8012318
:109680009340E122134201D0097B01634169012229
:109690000A4342617047C046002C0140000400406C
:1096A000FF3F0140004001400048014000440140AC
:1096B0000020004000D4FEBFC2680A43C260704769
:1096C000C9430161704710B5426C48F2000413466B
:1096D0002343A243012900D01346436410BD000078
:1096E00070B50D4604460020124E21498C4204D02C
:1096F00020498C4204D1052000E00220FAF73CFF0B
:109700006908226848F200031A4207D14018B0FBEA
:10971000F5F00F3606403046E06070BD400040185E
:10972000B0FBF5F006404108072008403043E060F8
:1097300070BDC046F0FF0000416A03480840704712
:10974000014A0A4082627047FF01000010B50849D3
:10975000884204D00749884209D1084C00E0064CF1
:109760002046FAF7E5FF2046FAF7D8FF10BD10BDF6
:109770000044004000380140110400000E030000C6
:10978000016801220A430260704710B502461F2398
:109790000B40012004469C4089098958214001B9A9
:1097A000084610BD026801239A430260826840F2B5
:1097B00000239A43826082680A438260704702688D
:1097C00001239A430260826840F200139A43826048
:1097D00082680A43826070471F220A400123934037
:1097E00089090A581A430A507047000070B51F24AF
:1097F0000A46224001231E4696408A09094D15401B
:109800002D583540002D1A4600D12A460D0C254012
:109810001C46AC40890D0858204000B903461A4048
:10982000104670BDFF030000026801239A430260E6
:10983000026840F200639A43026002680A430260D1
:109840007047026804239A43026002680A43026078
:109850007047026801239A430260426843F20003A2
:109860009A43426042680A43426070470268082394
:109870009A43026002680A4302607047026801234B
:109880009A430260026841F200039A430260026850
:109890000A4302607047000010B5FE210140134CDE
:1098A000102901D1F83005E001462039C9B2052957
:1098B00000D8EA30C1B200200522FAF761FB204649
:1098C000FFF79FFE00200221FAF7D6FB0028F9D00F
:1098D00000200221FAF7C6FB2046FFF78DFE044860
:1098E000018840884018C00810BDC046002C0140C7
:1098F000DC1A0020F0B581B0009000203A4C3B4AC1
:109900003B4D009B9E00A75913469A59BA612A689D
:10991000521C2A602A68521C2A602A68521C2A603B
:109920002A68521C2A602A68521C2A600122D20529
:10993000114221D1A2599E5996622A68521C2A606E
:109940002A68521C2A602A68521C2A602A68521C03
:109950002A602A68521C2A602A68521C2A602A68D7
:10996000521C2A602A68521C2A602A68521C2A60EB
:109970002A68521C2A6020E02A68521C2A602A6841
:10998000521C2A602A68521C2A602A68521C2A60CB
:109990002A68521C2A602A68521C2A602A68521CB3
:1099A0002A602A68521C2A602A68521C2A602A6887
:1099B000521C2A60A2599E5996622A68521C2A603B
:1099C0002A68521C2A602A68521C2A602A68521C83
:1099D0002A602A68521C2A604900421C50B218288A
:1099E000024A8EDB01B0F0BD50180020D0190020D3
:1099F000D81A002070B575480178B1B34649CB6DCF
:109A00001D091A4A1A4C7C2D21D92021415CD9B15B
:109A1000836EC16E246854400C1B14409C4224D9B0
:109A20006C4A9378D47824021C43230254781C4354
:109A3000230214781C43A3B20F4A5A430F4B04B1BC
:109A4000134659188366C16600F076F870BD866EBD
:109A5000C56E246854402C1B1440B44205D9054AF5
:109A6000AC188266C4660A33CB6570BDFFFFFF0089
:109A700018E000E080FC0A004019010000DD6D00E4
:109A800070B584B062B624480024046628204F4E86
:109A90003454292034542A20345420482049416029
:109AA000491C204A13680B400321890719431160A0
:109AB000846007210160F7F7EDF911202146FAF7DC
:109AC000BBFC1948FAF720FE184D2846FFF758FD51
:109AD00069460C804C808C8040F2D0200290CC8073
:109AE0000C732846FFF792FD2846FFF789FB0121FA
:109AF0002846FFF7E1FD2846FFF77EFD2B20345472
:109B00002C20345434670A480A49C161B466F466AB
:109B1000F7F7BEFA04B070BD8000002010E000E04E
:109B2000FEFFFF0020ED00E00407000000100040F1
:109B30006001002000A40008F0B583B02021234874
:109B4000415CC9B3C17FB9B32122002181542224D1
:109B5000035D1F4AD31811251D72035D5B1C03555D
:109B6000035D142B00D101552323C55C045DA54280
:109B700022D040220192855A466F164A56556A1ED7
:109B800092B20292370A134A029C1755AA1E92B249
:109B9000360C104FBE54EA1E019C0253C177C25CC2
:109BA0000B4CA218127A92004267C25C521CC2543B
:109BB000C25C142A00D1C154064CF8F77FFF20790B
:109BC0000028FAD00020207103B0F0BD0000002072
:109BD000000100205003002002E008C8121F08C145
:109BE000002AFAD170477047002001E001C1121F1E
:109BF000002AFBD170474350553A4744333245322F
:109C00003331433854362C465245513A64656661C7
:109C1000756C742C43433A30000000002C9C000803
:0C9C200000000020E01E0000E89B00088F
:04000005080000CD22
:00000001FF
