:020000040800F2
:10000000181E0020650100082D150008790B000856
:10001000F1110008A10500084128000800000000B7
:10002000000000000000000000000000BD1E0008ED
:10003000ED090008000000007D1600087923000883
:100040007F0100087F0100087F0100087F01000890
:100050007F0100087F0100087F0100087F01000880
:100060007F0100087F0100087F0100087F01000870
:100070007F0100087F0100087F0100087F01000860
:100080007F0100087F01000800000000C125000872
:100090007F0100087F0100087F0100087F01000840
:1000A0007F0100087F0100087F0100083127000858
:1000B0007F010008000000007F0100080000000030
:1000C0007F010008000000007F0100080000000020
:1000D0000000000000000000000000000000000020
:1000E00000000000000000007F0100080000000088
:1000F0000000000000000000000000000000000000
:100100007F01000800000000000000000000000067
:1001100000000000000000000000000000000000DF
:1001200000000000000000000000000000000000CF
:1001300000000000000000000000000000000000BF
:100140000000000000000000000000007F01000827
:10015000DFF80CD000F07AF800480047B14A0008F8
:10016000181E00200648804706480047FEE7FEE7C5
:10017000FEE7FEE7FEE7FEE7FEE7FEE7FEE7FEE757
:10018000FD240008510100082DE9F0410024061B60
:10019000254671F1000605DA01240027D0EB07009F
:1001A00067EB0101161E73F1000605DA0027D2EB9A
:1001B0000702012567EB030300F017F886460E4699
:1001C00017469C46AC4204D00025D0EB050E65EBEB
:1001D000010624B10020D2EB000760EB030C70464F
:1001E00031463A466346BDE8F0812DE9F05F0546A9
:1001F000002092469B4688460646814640241BE0E6
:10020000284641464746224600F041F853465A46A2
:10021000C01A914110D311461846224600F028F822
:100220002D1A67EB01084F4622460120002100F0FD
:100230001FF817EB00094E41201EA4F10104DFDC7A
:10024000484631462A464346BDE8F09F064C074DD6
:1002500006E0E06840F0010394E807009847103496
:10026000AC42F6D3FFF778FFDC780008FC78000892
:10027000202A04DB203A00FA02F100207047914066
:10028000C2F1200320FA03F3194390407047202A5B
:1002900004DB203A21FA02F00021704721FA02F330
:1002A000D040C2F12002914008431946704730B552
:1002B0008C1810F8012B12F00F0301D110F8013B3C
:1002C000120906D110F8012B03E010F8015B01F8C8
:1002D000015B5B1EF9D101E001F8013B521EFBD12D
:1002E000A142E6D3002030BD2DE9F04107462B4D59
:1002F0002D686D1EDFF8A88008F80570274D2E6860
:10030000284D2D88ED1CAE4201D2BDE8F0810025BC
:10031000224E3560224D28796979AA79EC792B7AB9
:1003200095F809C0012800D1EFE746181644264485
:100330001E44F5B2EE1705EB16663612A5EB06263F
:10034000664500D0E1E702281AD116464FF6FF783D
:1003500008EA062606EB01081FFA88F61D464FF646
:10036000FF7808EA052505EB04081FFA88F5DFF891
:100370003880C8F80060DFF83480C8F80050C4E75F
:10038000032802D10A4D2970BFE7042800D1BCE739
:10039000102800DBB9E700BFB7E7000080010020AC
:1003A0000A170020860100208C0100209001002007
:1003B00094010020002003490860034908600349B4
:1003C000087070478C0100209001002094010020EB
:1003D00038B50446092C71D2DFE804F0053B5A65B4
:1003E000717C91A6BD006449088800F04FFF634905
:1003F000086061490988891C88B200F099FF60494A
:1004000008605D490988891D88B200F051FF5D4987
:100410000860594909880A3188B200F049FF5A49F1
:100420000860554909880E3188B200F02FFF5749FE
:1004300008600846008800B200905348036851489D
:1004400002684F4801684D48008800B205F060FB23
:1004500090E04949088800F019FF4D490860464975
:100460000988491C88B200F063FF45490860424989
:100470000988891C88B200F01BFF464908600B46BA
:100480001A783F4B1978424B187805F033FB71E02E
:100490003949088800F00CFF3849086008460068B0
:1004A00005F022FB66E03449088800F001FF33497B
:1004B00008600846006805F011FB5BE055E02E4936
:1004C000088800F0F5FE2D4908600846006805F030
:1004D000FFFA4FE02849088800F0EAFE2749086043
:1004E00025490988091D88B200F0E2FE2A49086002
:1004F000084601682148006805F086FB3AE01E497D
:10050000088800F0D5FE1D4908601B490988091DAF
:1005100088B200F0CDFE20490860084601681748FF
:10052000006805F01BFB25E01349088800F0C0FEB9
:100530001249086010490988091D88B200F0B8FE08
:1005400015490860084601680C48006805F022FB60
:10055000124908600EE00849088800F0FDFE0C49C9
:100560000860087805F09EFA04E0E1B2522000F03D
:100570003EFA00BF00BF38BD000000204C01002043
:100580002801002054010020580100205C010020B7
:10059000240100202C010020500100200400002034
:1005A00000BFFEE72DE9F04704460D4600261CE09B
:1005B0002778641C94F80080641C94F80090641CF4
:1005C00094F800A0641C4FEA082000EB094000EBFF
:1005D0000A60074439460748006806F0A3FF05484B
:1005E0000068001D03490860361DAE42E0D3BDE837
:1005F000F0870000A001002010B50020024908602B
:1006000006F074FF10BD0000A001002010B50446E4
:1006100000200D490860AA2005F03DFA022005F0EF
:100620003AFA002005F037FAF32005F034FA0748CB
:10063000007805F030FA06F074FF00F0AFFD0020FE
:100640000349087010BD0000800100209C010020BB
:100650008801002010B5044614B1012C25D116E004
:100660001549088800F078FE144908601249098885
:10067000491C88B200F070FE114908600A461178E2
:100680000E4A107805F072FB0E49086012E00A4924
:10069000088800F021FE0C4908600846007840B246
:1006A00005F0A0FB0749086004E0E1B2522000F029
:1006B0009EF900BF00BF10BD0000002024010020F3
:1006C00028010020040000204C01002010B5044641
:1006D0005CB90949088800F03FFE084908600878BD
:1006E00005F0E6FB0649086004E0E1B2522000F0A4
:1006F0007EF900BF00BF10BD0000002024010020D3
:100700000400002010B5044624B1012C0CD0022CAA
:100710002BD11EE01849088800F01EFE174908601A
:10072000087805F077FC25E01349088800F014FEEE
:100730001249086010490988491C88B200F00CFE73
:100740000F4908600A4611780C4A107805F088FCB9
:1007500010E00949088800F0BFFD084908600878E2
:1007600005F025FC0749086004E0E1B2522000F0E2
:100770003EF900BF00BF10BD000000202401002092
:10078000280100200400002030B504460D4629460B
:10079000204605F0FFF930BD10B504463648006824
:1007A000401C3549086008460068012804D1AA2C7D
:1007B00001D00020086010BD2F480068022802D137
:1007C0002E480480F7E72C480068032806D12B4800
:1007D000008800EB042029490880ECE726480068DF
:1007E000042801D1264804702648007878B12448AE
:1007F0000078FF2803D121480088012807D020482D
:100800000078E02803D000201B490860D3E71C488B
:100810000078F22814D006DCE02819D0F02807D0A0
:10082000F1281DD108E0F3280ED0FF2818D113E0DD
:10083000204601F015FC1CE0204601F04DFD18E0BB
:10084000204600F087FF14E02046FFF7DFFE10E0AF
:100850002046FFF749FD0CE0204603F001FD08E0CB
:1008600007480178502000F0C2F8002002490860D3
:1008700000BF00BF00BF9EE780010020860100206E
:10088000840100207801002070B504460D461A2C22
:100890006ED2DFE804F06D0D1115191D2125292DEB
:1008A0003135393D4145494D5155595D61656D6958
:1008B000284600F0A9FF63E0284600F05FF95FE0FA
:1008C000284601F017FA5BE0284601F073F857E07C
:1008D000284601F02DFC53E0284600F081FD4FE052
:1008E000284601F07DFB4BE0284601F0B7FA47E0CF
:1008F000284603F047FD43E0284603F011FD3FE0A2
:100900002846FFF7FFFE3BE02846FFF7DFFE37E013
:10091000284600F021FC33E0284606F0F7FC2FE0E3
:100920002846FFF797FE2BE02846FFF751FD27E00A
:10093000284600F08FF823E0284600F0CDF81FE0AD
:10094000284601F00BFF1BE0284601F01FFC17E0D2
:10095000284600F013FE13E0284600F051FE0FE099
:10096000284603F04DFD0BE0284601F055FA07E05C
:10097000E1B2522000F03BF800200249087000BFAD
:1009800000BF70BD7801002070B50446250AE6B2AC
:100990001DB9F0B201F0F2FC0AE0C82D04D23146D4
:1009A0002846FFF771FF03E03146284606F046FE71
:1009B00070BD10B50446AA2005F06DF8052005F0BD
:1009C0006AF8002005F067F8FD2005F064F8E0B251
:1009D00005F061F8C4F3072005F05DF8C4F30740A3
:1009E00005F059F8200E05F056F810BD704770B5A7
:1009F00004460D46AA2005F04EF8032005F04BF8FA
:100A0000002005F048F8FE2005F045F8E0B205F0BA
:100A100042F8E8B205F03FF870BD00000146024818
:100A20000068084470470000080000204FF4F040C0
:100A300070470000014602480068405C70470000B3
:100A40000800002001460248006840587047000036
:100A50000800002010B50446012C2AD11849088846
:100A600000F07AFC1749086015490988491C88B2CA
:100A700000F05EFC1449086011490988491D88B2DC
:100A800000F016FC114908600D490988093188B247
:100A900000F00EFC0E4908600A4908780C490B6802
:100AA0000A490A680849096805F000FB0949086015
:100AB00004E0E1B25220FFF79AFF00BF00BF10BD73
:100AC0000000002024010020280100204C0100200B
:100AD000500100200400002038B50446012C37D115
:100AE0001F49088800F0F8FB1E4908601C49098866
:100AF000491C88B200F01CFC1B4908601849098891
:100B0000491D88B200F0F4FB1849086014490988AF
:100B1000C91D88B200F0BAFB154908601049098860
:100B2000093188B200F0B2FB12490860084600881B
:100B300000B200900D48008882B20D48008803B2D0
:100B4000094801680748007840B205F065FB04E0F9
:100B5000E1B25220FFF74BFF00BF00BF38BD0000DD
:100B6000000000204C01002024010020280100206A
:100B7000500100205401002000BFFEE72DE9F041A4
:100B800004460027B84624B1012C17D0022C52D1BC
:100B900022E02D49088800F0DFFB2C4908602A4933
:100BA0000988491C88B200F0D7FB294908600A4629
:100BB0001178264A107804F0F1FC41E022490888B7
:100BC00000F08AFB234908600846007840B22249B9
:100BD000087004F089FC33E01B49088800F0A8FB8A
:100BE0001A4908600027084600881FFA80F8002587
:100BF0001EE007F1B001C8B204F0D9FC164908782C
:100C000004F0D5FC102004F0D2FC781CC7B20026FA
:100C10000AE0124911F8080004F0D9FC08F10100BB
:100C20001FFA80F8701CC6B2802EF2DB681CC5B2B9
:100C3000082DDEDB04E0E1B25220FFF7D8FE00BF52
:100C400000BFBDE8F081000000000020240100206A
:100C5000280100204C010020760100206E030020B6
:100C600010B5112004F042FD002004F031FDCF202A
:100C700004F03CFD002004F02BFDC12004F028FD11
:100C8000302004F025FDED2004F030FD642004F058
:100C90001FFD032004F01CFD122004F019FD81202B
:100CA00004F016FDE82004F021FD852004F010FD7D
:100CB000112004F00DFD782004F00AFDF62004F068
:100CC00015FD012004F004FD302004F001FD00209A
:100CD00004F0FEFCCB2004F009FD392004F0F8FC00
:100CE0002C2004F0F5FC002004F0F2FC342004F089
:100CF000EFFC052004F0ECFCF72004F0F7FC2020CA
:100D000004F0E6FCEA2004F0F1FC002004F0E0FC32
:100D1000002004F0DDFCC02004F0E8FC202004F0FA
:100D2000D7FCC12004F0E2FC112004F0D1FCC52066
:100D300004F0DCFC312004F0CBFC3C2004F0C8FCC7
:100D4000C72004F0D3FCA92004F0C2FC3A2004F030
:100D5000CDFC552004F0BCFC362004F0C7FCE82094
:100D600004F0B6FCB12004F0C1FC002004F0B0FC9B
:100D7000182004F0ADFCB42004F0B8FC002004F00E
:100D8000A7FC002004F0A4FCF22004F0AFFC00203B
:100D900004F09EFC262004F0A9FC012004F098FC3D
:100DA000E02004F0A3FC0F2004F092FC172004F0D4
:100DB0008FFC142004F08CFC092004F089FC0C202A
:100DC00004F086FC062004F083FC432004F080FC41
:100DD000752004F07DFC362004F07AFC082004F035
:100DE00077FC132004F074FC052004F071FC102043
:100DF00004F06EFC0B2004F06BFC082004F068FC8F
:100E0000E12004F073FC002004F062FC1F2004F0D9
:100E10005FFC232004F05CFC032004F059FC0E204E
:100E200004F056FC042004F053FC392004F050FC7C
:100E3000252004F04DFC4D2004F04AFC062004F06F
:100E400047FC0D2004F044FC0B2004F041FC33204F
:100E500004F03EFC372004F03BFC0F2004F038FC8B
:100E6000292004F043FC10BD70B504460D46E5B9D9
:100E70001C4951F824301C4951F82400012200215A
:100E800003F091FD174951F82430174951F8240017
:100E90000322002103F0B6FD124A52F82410124A30
:100EA00052F8240003F073FD1BE00E4951F8243082
:100EB0000D4951F824000022012103F074FD094975
:100EC00051F82430084951F824000322002103F08E
:100ED00099FD044A52F82410034A52F8240003F002
:100EE00056FD70BD141800201419002010B50446DA
:100EF000044A52F82410044A52F8240003F04BFD2F
:100F000010BD0000141800201419002010B5012095
:100F10006A49086002204860042088600820C86090
:100F20001020086120204861402088618020C8612D
:100F30004000086240004862400088624000C86289
:100F40004000086340004863400088634000C86375
:100F50000120086402204864042088640820C864D2
:100F60001020086520204865402088658020C865DD
:100F70004000086640004866400088664000C86639
:100F80004000086740004867400088674000C86725
:100F90000120C1F880000220C1F884000420C1F8BB
:100FA00088000820C1F88C001020C1F89000202093
:100FB000C1F894004020C1F898008020C1F89C003E
:100FC0004000C1F8A0004000C1F8A4004000C1F8F2
:100FD000A8004000C1F8AC004000C1F8B0004000DB
:100FE000C1F8B4004000C1F8B8004000C1F8BC002E
:100FF0000120C1F8C0000220C1F8C4000420C1F8DB
:10100000C8000820C1F8CC001020C1F8D000202072
:10101000C1F8D4004020C1F8D8008020C1F8DC001D
:101020004000C1F8E0004000C1F8E4004000C1F811
:10103000E8004000C1F8EC004000C1F8F0004000BA
:10104000C1F8F4004000C1F8F8004000C1F8FC000D
:1010500000242BE0102C09DA4FF09040184941F899
:10106000240040F2115003F0FFFF1DE0202C08DAAD
:101070001448134941F8240040F2125003F0F4FFE1
:1010800012E0302C08DA10480D4941F8240040F2F3
:10109000135003F0E9FF07E00C48094941F8240028
:1010A00040F2145003F0E0FF601CC4B2402CD1DBCE
:1010B00003F0D0FF03F03CFA10BD0000141800202C
:1010C000141900200004004800080048000C0048E3
:1010D00010B50446044A52F82410044A52F8240079
:1010E00003F088FC10BD0000141800201419002023
:1010F00070B504460D4645B9084A52F82410084A0E
:1011000052F8240003F043FC07E0044A52F824108C
:10111000034A52F8240003F03CFC70BD1418002070
:1011200014190020034951F82010034A52F82020D6
:10113000916270471418002014190020034951F8D7
:101140002010034A52F820209161704714180020A3
:10115000141900207047000010B5044614B1012C8A
:101160000FD109E00A49088800F0F6F8094908603B
:10117000087805F0C9F809E005F0EEF806490860BE
:1011800004E0E1B25220FFF732FC00BF00BF10BD07
:1011900000000020240100200400002010B505F00C
:1011A000AFFC01F067FA06F0BBF906F077FA01F040
:1011B000ADFB00200B4908700B490870FFF742FC9B
:1011C0000446E4B2032C0CD101200749087000202A
:1011D0000649086001F018FA0A2001F01DFA06F02D
:1011E00075F910BD79010020780100207C010020F4
:1011F00000BFFEE7002003E00021044A1154401C18
:1012000041F288318842F7D3704700006E03002016
:1012100010B5024602F47F0008B1012000E0002072
:10122000044692B224B11046FFF7F8FB034601E0F2
:1012300001488318184610BD6E03002000B5034610
:10124000581CFFF7F7FB02464FF6FF7000EA022238
:101250001846FFF7EFFB104482B2104600BD00B500
:101260000346D81CFFF7E6FB02461202981CFFF764
:10127000E1FB02441202581CFFF7DCFB024412029D
:101280001846FFF7D7FB0244104600BD0146064B47
:101290004A1C985C00021A46525C104400F400425A
:1012A0000AB1024A104370476E0300200000FFFF9E
:1012B0000146084BCA1C985C00028A1C9A5C1044C8
:1012C00000024A1C9A5C104400021A46525C104408
:1012D000704700006E0300200146044A505C00F095
:1012E00080020AB160F0FF00704700006E0300202A
:1012F0000146064B4A1C985C4FF6FF7202EA00203A
:101300001A46525C024490B2704700006E030020FF
:101310000146064B8A1C985C00024A1C9A5C1044E9
:1013200000021A46525C1044704700006E03002011
:101330000146084BCA1C985C00028A1C9A5C104447
:1013400000024A1C9A5C104400021A46525C104487
:10135000704700006E03002001460148405C704762
:101360006E03002030B50A46034C2254120A25466B
:10137000431CEA5430BD00006E03002030B5024625
:101380000846064CA054000A2546531CE854000A9F
:10139000931CE854000AD31CE05430BD6E030020B7
:1013A00010B5034B195409121C46421CA15410BD20
:1013B0006E03002010B5064B1954090A1C46421C46
:1013C000A154090A821CA154090AC21C995410BDD7
:1013D0006E030020014A1154704700006E03002084
:1013E0003EB5044614B1012C7ED135E0454908884C
:1013F000FFF75EFF4449086042490988091D88B229
:10140000FFF7AAFF414908603E490988491D88B293
:10141000FFF7A2FF3E4908603A490988891D88B252
:10142000FFF79AFF3B49086036490988C91D88B211
:10143000FFF792FF38490860084600780090354869
:10144000037833480278314801782F48006805F066
:101450008BFB3249086052E02A490888FFF77CFF7D
:101460002A49086027490988491C88B2FFF774FF98
:101470002749086023490988891C88B2FFF76CFF57
:10148000244908601F490988C91C88B2FFF764FF16
:10149000214908601B490988091D88B2FFF75CFFD4
:1014A0001F49086017490988491D88B2FFF754FF92
:1014B0001C49086013490988891D88B2FFF74CFF51
:1014C000194908600846007816490978144A1278C4
:1014D000CDE90021029010490B780C4908780D499C
:1014E00009784AB20A4900E004E0097849B205F0F7
:1014F0006FFC04E0E1B25220FFF779FA00BF00BFB1
:101500003EBD0000000000204C010020240100200E
:10151000280100202C0100203001002004000020C0
:1015200034010020380100203C01002070470000F9
:1015300010B501210E480078FFF796FC01210D48F7
:101540000078FFF791FC01210B480078FFF78CFC35
:10155000012107480078FFF7CBFD012105480078FD
:10156000FFF7C6FD002104480078FFF7C1FD10BD5C
:1015700022000020230000202400002010B5044693
:1015800014B1012C2BD11EE018490888FFF7E4FEA6
:101590001749086015490988491C88B2FFF7DCFE25
:1015A0001449086011490988891C88B2FFF7D4FEE4
:1015B000114908600B461A780E4B19780C4B1878B5
:1015C00004F04CFF10E009490888FFF7C5FE084900
:1015D0000860087804F050FF0849086004E0E1B2B0
:1015E0005220FFF704FA00BF00BF10BD000000202A
:1015F00024010020280100202C01002004000020EC
:1016000010B5044614B1012C29D109E01749088806
:10161000FFF7A2FE16490860087805F0C4FF23E032
:1016200012490888FFF798FE114908600F49098898
:10163000491C88B2FFF73CFE0E4908600B49098837
:10164000491D88B2FFF734FE0B4908600849087845
:1016500009490A680749096805F0A4FF04E0E1B2F6
:101660005220FFF7C4F900BF00BF10BD00000020EA
:101670002401002050010020540100207047000088
:1016800000B5002005490860054908700549087043
:1016900005490870FEF78EFE00BD000080010020A5
:1016A000840100209C0100208801002070B50446C0
:1016B000E5B2C4F30726012E04D0022E08D0042E72
:1016C00012D10BE02846FFF703FD0B49086010E03C
:1016D0002846FFF70BFC084908600AE0284605F099
:1016E0004BFF0549086004E001215320FFF77FF913
:1016F00000BF00BF70BD0000040000202DE9F041D4
:1017000005460C46EEB2C5F3072737B1012F09D0C5
:10171000032F0CD0042F14D10EE0E1B23046FFF7B6
:10172000A3FB13E0E1B23046FFF7E2FC0EE0E1B2CA
:101730003046FFF70FFD09E0E1B2304605F00AFF41
:1017400004E001215320FFF752F900BF00BFBDE8BC
:10175000F08100002DE9F041054619480068042891
:1017600001D1BDE8F08116480068052802D115486E
:101770000580F6E71248006806281ED11148007857
:1017800005EB002086B200200D490860AA2004F075
:1017900082F9012004F07FF9012004F07CF9F220A5
:1017A00004F079F9002406E03019FFF743F9074601
:1017B00004F071F9641CFF2CF6D900BFD1E70000DA
:1017C00080010020A60100200548008800F40040A8
:1017D00028B103480068034908430149086070477D
:1017E000040000200000FFFF70470000054800785B
:1017F00000F0800028B10348006860F0FF00014954
:1018000008607047040000202DE9F84304460027D3
:10181000B84634B1012C40D0022C4CD0032C79D1E5
:1018200079E05A490888FFF797FD594908605749F8
:101830000988491C88B2FFF78FFD56490860534953
:101840000988891C88B2FFF787FD534908604F4912
:101850000988C91C88B2FFF77FFD504908604B49D1
:101860000988091D88B2FFF777FD4D4908600846D1
:101870000078DFF828C100909CF80030DFF818C12C
:101880009CF80020DFF80CC19CF80010DFF800C1C4
:101890009CF8000003F0B4FD75E03C490888FFF7B0
:1018A0001BFD404908600846007840B23E49087078
:1018B00003F0E6FC67E035490888FFF739FD344955
:1018C00008600027084600881FFA80F800251EE0FF
:1018D00007F1B001C8B203F0ABFD3349087803F05B
:1018E000A7FD102003F0A4FD781CC7B200260AE073
:1018F0002E4911F8080003F0C9FD08F101001FFA94
:1019000080F8701CC6B2802EF2DB681CC5B2082DB0
:10191000DEDB38E032E01D490888FFF7B7FC2149DB
:1019200008601A490988891C88B2FFF7AFFC1E4974
:1019300091F9001008441E49086014490988091DDE
:1019400088B2FFF709FD1249086016490978B031DD
:10195000C8B203F06DFD1649097801F00F0003F0DD
:1019600067FD13490978C1F3031141F0100003F03A
:101970005FFD0749087803F089FD04E0E1B25220D9
:10198000FFF735F800BF00BFBDE8F8830000002076
:1019900024010020280100202C010020300100201B
:1019A000340100204C010020750100206E0300204E
:1019B0005001002070B504460B2C6FD2DFE804F014
:1019C000062F4ECA636FCA7AA7AAB5006549088870
:1019D000FFF7C2FC6449086062490988491C88B263
:1019E000FFF7BAFC614908605E490988891C88B222
:1019F000FFF7B2FC5E4908605A490988C91C88B2E1
:101A0000FFF7AAFC5B4908600D462B78584D2A78F1
:101A1000564D2978544D287803F0ECFE9FE051494B
:101A20000888FFF745FC544908604E490988091D9C
:101A300088B2FFF73DFC514908604A4909880831DE
:101A400088B2FFF789FC4A490860084602784B488B
:101A500001684948006803F0CBFD80E041490888EF
:101A6000FFF726FC444908603E490988091D88B2F1
:101A7000FFF71EFC41490860084601683E480068BF
:101A800003F078FE6BE037490888FFF731FC3649F0
:101A90000860098888B203F0E5FD60E05AE031494A
:101AA0000888FFF725FC30490860098888B203F0F0
:101AB00099FE54E02B490888FFF71AFC2A49086070
:101AC00028490988891C88B2FFF712FC2749086059
:101AD00024490988091D88B2FFF70AFC24490860D7
:101AE00020490988891D88B2FFF702FC2149086056
:101AF0000D462D88ABB21E4D2D88AAB21B4D2D88E8
:101B0000A9B2194D2D88A8B203F08EFD27E003F08D
:101B10001BFE24E013490888FFF7CAFB164908603A
:101B20000846006803F018FE19E00E490888FFF720
:101B3000FFFB0D4908600B490988091D88B2FFF7B2
:101B4000B7FB0E490860084601680748006803F0C3
:101B500035FE04E0E1B25220FEF749FF00BF00BFAE
:101B600070BD00000000002024010020280100209A
:101B70002C010020300100204C01002050010020E9
:101B800010B5362003F0B2FD002003F0A1FD3A208D
:101B900003F0ACFD052003F09BFDB22003F0A6FD91
:101BA0000C2003F095FD0C2003F092FD002003F0C3
:101BB0008FFD332003F08CFD332003F089FDB72027
:101BC00003F094FD352003F083FDBB2003F08EFD70
:101BD000192003F07DFDC02003F088FD2C2003F0C8
:101BE00077FDC22003F082FD012003F071FDC320C8
:101BF00003F07CFD122003F06BFDC42003F076FDA2
:101C0000202003F065FDC62003F070FD0F2003F0D7
:101C10005FFDD02003F06AFDA42003F059FDA12050
:101C200003F056FDE02003F061FDD02003F050FDED
:101C3000042003F04DFD0D2003F04AFD112003F0B8
:101C400047FD132003F044FD2B2003F041FD3F200E
:101C500003F03EFD542003F03BFD4C2003F038FD23
:101C6000182003F035FD0D2003F032FD0B2003F0AA
:101C70002FFD1F2003F02CFD232003F029FDE12080
:101C800003F034FDD02003F023FD042003F020FDF9
:101C90000C2003F01DFD112003F01AFD132003F0AA
:101CA00017FD2C2003F014FD3F2003F011FD44200C
:101CB00003F00EFD512003F00BFD2F2003F008FD73
:101CC0001F2003F005FD1F2003F002FD202003F07C
:101CD000FFFC232003F0FCFC212003F007FD112072
:101CE00003F004FD0A2000F011FA292003F0FEFCA5
:101CF00010BD00002DE9F04106464FF470744FF01E
:101D0000800826B1012E21D0022E6FD12CE03B4954
:101D10000888FFF721FB3A49086038490988491CBF
:101D200088B2FFF719FB3749086034490988891CD4
:101D300088B2FFF711FB344908600B461A78314B23
:101D400019782F4B187803F099FD54E02B49088837
:101D5000FFF7C2FA2D4908600846007840B22C49C6
:101D6000087003F059FD46E024490888FFF7E0FABF
:101D7000234908604FF470744FF08008002731E069
:101D8000404603F089FD802003F086FD00250BE02E
:101D90001B49096821441F4A505C03F0CDFDA4F1A2
:101DA000400084B2681CC5B2102DF1DB04F58460DC
:101DB00084B200250BE0124909682144154A505CA1
:101DC00003F0BAFDA4F1400084B2681CC5B2102D26
:101DD000F1DB04F2E13084B208F1010000F0FF0809
:101DE000781CC7B2202FCBDB05E0FFE7F1B2522011
:101DF000FEF7FDFD00BF00BFBDE8F0810000002040
:101E000024010020280100202C0100204C0100208A
:101E1000770100206E03002010B5044614B1012C98
:101E20000FD109E00A490888FFF796FA09490860C6
:101E3000087804F081FB09E004F05AFB06490860C9
:101E400004E0E1B25220FEF7D2FD00BF00BF10BD9A
:101E500000000020240100200400002010B50446EA
:101E6000E4B912490888FFF777FA114908600F4969
:101E70000988491C88B2FFF71BFA0E4908600B4914
:101E80000988491D88B2FFF767FA0B4908600A46BE
:101E90001178074A107804F07BFB04E0E1B252208D
:101EA000FEF7A5FD00BF00BF10BD00000000002030
:101EB000240100204C010020280100207047000070
:101EC00070B50546002144480078FFF711F902F08B
:101ED0009DFC012141480078FFF70AF902F096FCC9
:101EE00000213E480078FFF703F902F08FFC002440
:101EF00017E005F0800138480078FFF7F9F8680628
:101F0000050E012135480078FFF7F2F802F07EFC5B
:101F1000002132480078FFF7EBF802F077FC601CF4
:101F2000C4B2042CE5DB00212B480078FFF7E0F871
:101F300002F06CFC00240FE0012128480078FFF734
:101F4000D7F802F063FC002124480078FFF7D0F8AE
:101F500002F05CFC601CC4B2042CEDDB002417E032
:101F600005F080011C480078FFF7C2F86806050EEE
:101F700001211A480078FFF7BBF802F047FC002166
:101F800016480078FFF7B4F802F040FC601CC4B2B9
:101F9000042CE5DB002110480078FFF7A9F802F0D7
:101FA00035FC00240FE001210C480078FFF7A0F871
:101FB00002F02CFC002109480078FFF799F802F0A4
:101FC00025FC601CC4B2042CEDDB01210248007822
:101FD000FFF78EF870BD00002300002024000020D1
:101FE00010B5044614B1012C2AD114E01849088810
:101FF000FFF7B2F91749086015490988491C88B2EA
:10200000FFF7AAF9144908600A461178114A1078B6
:1020100004F044FF19E00E490888FFF79DF90D49C7
:1020200008600B490988491C88B2FFF741F90B4940
:102030000860084908780949096804F039FF04E094
:10204000E1B25220FEF7D3FC00BF00BF10BD00007C
:102050000000002024010020280100204C01002065
:1020600010B5044615480068042800D110BD134877
:102070000068052802D112480480F7E70F4800687D
:10208000062818D10E48008800EB04200C4908806F
:1020900000200A4908600B490870FEF7ADFAAA2033
:1020A00003F0F9FC012003F0F6FC002003F0F3FC40
:1020B000F02003F0F0FC00BFD8E700008001002012
:1020C000A40100209C01002000B50246002308E086
:1020D00000F0B4FA00BF00F07DFA03460A2BFAD3F1
:1020E000521E002AF4DC00BD00B50246002300F0B9
:1020F000A5FA00BF00F06EFA03469342FAD300BD82
:102100000020014908607047C000002000B5024669
:10211000002309E000F092FA00BF00F05BFA0346EA
:10212000B3F57A7FF9D3521E002AF3DC00BD00001C
:1021300010B5044624B1012C0CD0022C18D114E0A7
:102140000F490888FFF708F90E490860087804F07D
:1021500025FF12E00A490888FFF7AAF80A49086033
:102160000846006804F058FF07E004F05FFF04E051
:10217000E1B25220FEF73BFC00BF00BF10BD0000E3
:1021800000000020240100204C01002010B586B082
:10219000044624B1012C17D0022C75D175E04449B6
:1021A0000888FFF7D9F84349086041490988491C64
:1021B00088B2FFF7D1F8404908600A4611783D4AD5
:1021C000107804F0D5FA6FE039490888FFF784F8F1
:1021D0003849086036490988091D88B2FFF7A8F810
:1021E0003549086032490988083188B2FFF7A0F8FC
:1021F000324908602E4909880C3188B2FFF798F8F7
:102200002F4908602A490988103188B2FFF790F8F1
:102210002C49086026490988143188B2FFF788F8EC
:102220002949086022490988183188B2FFF780F8E7
:10223000264908601E4909881C3188B2FFF778F8E2
:10224000234908601A490988203188B2FFF770F8DD
:1022500020490860084600681D4909681B4A126841
:10226000194B1B68CDE90132CDE903101548006810
:10227000009013480368114802680F4801680D4830
:10228000006804F0EBF90FE009E009490888FFF75E
:1022900063F808490860087804F064FA04E0E1B2E1
:1022A0005220FEF7A4FB00BF00BF06B010BD000027
:1022B0000000002024010020280100202C01002023
:1022C0003001002034010020380100203C010020B2
:1022D000400100204401002010B504461B4800685E
:1022E000042808D11A480088401E1A4908600020B6
:1022F0001949086010BD19480078604017490870F6
:10230000174815490968445413480068401C12498D
:102310000860084600680F490968884213D1002008
:102320000A4908600C4801680D48FEF73BF9AA20ED
:1023300003F0B1FB012003F0AEFB002003F0ABFB88
:10234000F12003F0A8FB00BFD4E7000080010020CB
:1023500086010020A8010020AC0100209C01002083
:10236000141700200146002002E0491C421CD0B294
:102370000A78002AF9D170477047000070B504460A
:102380000A2C57D008DC012C0FD0032C27D0042CAA
:1023900030D0052C7ED142E00B2C5AD00D2C63D0CE
:1023A0000E2C78D0172CF5D18EE04D490888FEF719
:1023B0007FFF4C4908604A490988091D88B2FEF729
:1023C000CBFF4949086047480068112804D10846F6
:1023D00000784649087000E000BF00BF7DE040493A
:1023E0000888FEF7A5FF3F49086008460068FEF729
:1023F000E0FA72E03A490888FEF79AFF3C49086023
:1024000037490988091D88B2FEF792FF36490860EE
:102410000846016836480068FFF770F95DE030490A
:102420000888FEF785FF3249086008460068FFF714
:102430003DF952E02A490888FEF78EFF2C490860D2
:10244000002501E0681CC5B2294800688542F9D31F
:1024500043E023490888FEF77FFF254908600846C6
:102460000068FFF731FE38E01D490888FEF760FF7D
:102470001F4908601A490988091D88B2FEF758FFEC
:102480001949086016490988083188B2FEF730FFFB
:10249000184901E01BE014E00860114909880A317D
:1024A00088B2FEF745FF144908601248008882B2DE
:1024B000084603680C4801680D48006802F006FEF3
:1024C0000BE002F001FE08E001F094FE05E0A4F14B
:1024D0003701C8B205F068F800BF00BF70BD00004A
:1024E000000000204C010020280100201C010020D9
:1024F000240100202C0100203001002010B52A48C2
:10250000006840F47000284908602848006840F0DE
:1025100001002649086000BF2448006800F002005E
:102520000028F9D021484068214908401F494860E7
:10253000084640681F4908401C4948600846006832
:102540001D490840194908600846C06A1B490840EF
:102550001649C8620846006B40F2031188431349CC
:1025600008630846006B20F4803008630846006B5F
:1025700020F0004008630846406B20F001004863EB
:102580000A48C030006820F48030C1F8C000002044
:1025900088600649CC31086004F0EAFD00214FF064
:1025A000006002F0EBFA10BD88ED00E00010024080
:1025B0000C00FF08FFFFC277FFFFF2FEF0FFFF3FB6
:1025C00010B50121024804F09DFE04F027FC10BD67
:1025D0000020004000B505F00DF805490968401AD3
:1025E00020F07F4105F00BF8B1FBF0F000BD0000DA
:1025F000C0000020002002490860024908607047BE
:10260000B8000020BC00002000B504F0E9FF01493B
:10261000086000BDBC00002000B5014604F0E6FFE4
:102620004843044A10600448006812681044024A93
:10263000106000BDB8000020BC00002000B504F010
:10264000D9FF0149086000BDC000002000B504F0BA
:10265000C7FF064A1268101A20F07F41044800683C
:10266000814201D9012000BD0020FCE7BC00002010
:10267000B8000020002000BF0AE00021064A22F82E
:102680001010064A22F81010054A1154411CC8B215
:102690000A28F2DB70470000C8010020DC0100209E
:1026A000F001002070B504460E46601C44B210488C
:1026B00030F9140000281ADD0E4931F81400FEF735
:1026C000E5FD05B20C4830F8140028440B490E54BF
:1026D000681C05B2064830F91400A84200DC002549
:1026E000044931F814002946FEF73CFE00BF70BDD6
:1026F000C8010020DC010020B40100206E0300208E
:1027000030B5441C60B2064D25F81010054C24F875
:102710001020054D25F810300124044D2C5430BDF7
:10272000B4010020C8010020DC010020F0010020DD
:1027300010B50849084804F09CFE50B1064804F062
:102740004DFEC4B22046FEF727F821460020FFF7D1
:10275000A9FF10BD050005070038014010B504466B
:1027600024B1012C2DD0022C57D140E02E490888ED
:10277000FEF7B2FD2D4908602B490988491C88B233
:10278000FEF7D6FD2A49086027490988491D88B205
:10279000FEF77CFD2749086023490988C91D88B2D6
:1027A000FEF786FD24490860084603682148008832
:1027B00002B21F4801681D48007840B2FFF7A0FF31
:1027C00030E019490888FEF787FD18490860164966
:1027D0000988491C88B2FEF76BFD18490860084655
:1027E00001681248007840B204F00BFF1AE00E496D
:1027F0000888FEF771FD0D4908600B490988491CDE
:1028000088B2FEF7A9FD0A49086008460178074822
:10281000007840B204F0FEFE04E0E1B25220FEF780
:10282000E6F800BF00BF10BD000000204C010020F2
:1028300028010020540100205801002050010020F0
:1028400000BFFEE70749084A12788854064909780C
:10285000491C054A117011460978142901D100213B
:1028600011707047F61600201F010020002001495A
:10287000087070471E01002010B51D4A12781D4BCC
:102880001B789A4233D01C4A10681C4B1C4C24887D
:1028900018551B4A1288521E194B1A80000A174BF2
:1028A000174C24881855164A1288521E144B1A8049
:1028B000000A124B124C24881855114A1288521ED5
:1028C0000F4B1A8000220F4B1A700F4A084B1B78CF
:1028D000D15C8A00084B1A60054A1278521C044BDE
:1028E0001A701A461278142A01D100221A7010BDEB
:1028F000200100201F010020D40000206E030020D2
:10290000DC0000201D010020F616002000B500208C
:102910002349086023490880234908802349088007
:1029200023490880234908802349088023490860F7
:102930002349086041F2873022490880002022495B
:1029400008702249087022490880224908802249DB
:10295000086022490860224908702249087022490B
:1029600008802249088022490860224908602249DB
:10297000086022490860224908602249086022490B
:1029800008702249086022490870FEF733FC0020D5
:1029900020490870204908702049087000BD0000D7
:1029A000D400002000000020D8000020DA00002021
:1029B000C4000020C6000020C8000020CC00002079
:1029C000D0000020DC000020DE000020DF0000201E
:1029D000E0000020E2000020E4000020E8000020E9
:1029E000EC000020ED000020EE000020F0000020B0
:1029F000F4000020F800002004000020FC0000206B
:102A000000010020040100201D0100201801002009
:102A10001C0100201E0100201F01002020010020B9
:102A20002DE9F04F85B0012008490860084800688A
:102A3000FEF708F804900498C0B203900498040AC2
:102A400000BF0398F02881F0A38303E01801002061
:102A5000D4000020810000BF794449688F44000001
:102A6000C4030000C6030000E8030000F4030000F4
:102A70002C0400008A0400007E0400000004000012
:102A80001A04000030170000CC050000CE0500003D
:102A9000C0030000CE04000000050000680500002F
:102AA0001E0600003A06000052060000F20B00006D
:102AB000080C0000240C0000400C0000640C000016
:102AC00030170000FE0C00006C0D00006C0E0000C2
:102AD000720F000068100000AE100000F41000003B
:102AE0003A110000801100009A11000078120000D5
:102AF00094120000B012000030170000D012000045
:102B0000EA120000101300003613000082130000C8
:102B1000AE13000030170000F41300005C13000037
:102B20004A120000621200000C1700001A14000084
:102B300036140000521400006E14000086140000C9
:102B40009E140000B8140000F614000038150000B0
:102B50007615000004160000BE15000010070000E6
:102B600016070000301700001C0700004816000080
:102B70006016000078160000A8160000301700004C
:102B8000C216000090160000DA1600003017000090
:102B9000F416000030170000301700003017000056
:102BA00030170000640600008C060000301700009B
:102BB000B6060000E0060000EE0600003017000038
:102BC00000070000080A0000180A0000280A000098
:102BD000380A0000301700004A0A00005C0A0000B2
:102BE0006E0A000030170000800A0000920A000000
:102BF000A20A0000B20A0000C20A0000301700005A
:102C0000D40A0000E60A0000F80A000030170000AD
:102C10000A0B00007C0900008C0900009C090000E0
:102C2000BC09000030170000E4090000AC090000F6
:102C3000D009000030170000F60900000808000065
:102C40001E080000340800004A0800003017000089
:102C5000620800007A0800009208000030170000A7
:102C6000AA080000C2080000D8080000EE08000012
:102C700004090000301700001C090000340900009E
:102C80004C09000030170000640900002207000012
:102C9000380700004E0700007A07000030170000D8
:102CA000F0070000640700009407000030170000E0
:102CB000D8070000D0050000E80500000C06000061
:102CC000000600004C0C000030170000580C0000FB
:102CD000900C0000A60C000030170000BE0C000095
:102CE000CE0C0000DE0C000030170000EE0C0000DF
:102CF000140D0000301700002C0D00003C0D0000EA
:102D00004C0D0000301700005C0D00009A0D000013
:102D100030170000CE0D0000F40D0000040E00007E
:102D200030170000140E00009C0E00003017000049
:102D3000D20E0000FA0E00000C0F00003017000049
:102D40001E0F0000A60F000030170000FA0F000051
:102D5000261000003C100000301700005210000048
:102D6000900B00009A0B0000A40B0000B00B0000B9
:102D7000D40B0000E20B00006A0B0000700B000097
:102D800030170000760B00001C0B00001E0B00002B
:102D9000200B00006A0500006C0500006E050000B5
:102DA000700500007205000096100000DC100000A5
:102DB0002211000068110000821100009C11000027
:102DC000780B0000820B0000301700008E0B000013
:102DD00046050000520500004A0B0000240E0000CA
:102DE000300F00005E0500009A0500009C05000001
:102DF0009E050000A0050000A2050000A40500003B
:102E0000301700005A0B0000B41100001C12000023
:102E1000220B0000360B0000780C0000840C000030
:102E200001F0BEB9FCE7FA480088FA490880FA4880
:102E30000068001DFDF706FE00900098FDF7A4FD58
:102E40000820F6490860EBE7F2490C800420F349BA
:102E50000860E5E7F04804600020F0490860DFE71B
:102E6000EC4800882044EA49088008460088EC497C
:102E700008800420E9490860D2E7E6480088001B82
:102E8000E44908800420E5490860C9E7E048008873
:102E9000E0490880E0480068051DE249E24A1288DE
:102EA0008D54E1480088401EDF4908802D0ADD4925
:102EB000DD4A12888D54DC480088401EDA490880BB
:102EC0002D0AD8480A461288855408460088401EB4
:102ED0000880D14804600020D0490860A0E704F0D1
:102EE0007DFB0120D149087000BFCF480088401CFD
:102EF000CD490880CB480988455CCB480088401CF8
:102F0000C94908802D02C7480988405C0544C64865
:102F10000088401CC44908802D02C2480988405CD2
:102F20000544BD4805600020BC49086078E7BE48FC
:102F30000088401CBC490880BA480988405C0002EF
:102F4000B4490880B8480088401CB7490880B54893
:102F50000988405CAF4909880844AE4908805FE7AA
:102F6000AC490888C11700EB11610912A0EB0121DF
:102F7000CAB2AC49AC4B1B88CA54AB480088401E4F
:102F8000A9490880A3490888C11700EB1161C1F362
:102F90000721A44AA44B1B88D154A3480088401E93
:102FA000A14908803CE70020A049087004F014FB08
:102FB00036E701209D49087004F010FB30E79C487B
:102FC00000689C4908602BE700BF00BF00BF00BF3E
:102FD00000BFB4F5000F05D29548046004208F4966
:102FE000086009E08C480068001DFDF72BFD904942
:102FF000086008208949086012E700BF00BF00BFD1
:1030000000BF00BFB4F5000F05D28A480460042059
:103010008249086009E080480068001DFDF712FD44
:103020008449086008207D490860F9E6F8E6F7E67B
:1030300078490988214488B2FEF75AF97A4908800C
:10304000042076490860EBE672490988214488B279
:1030500075490988FEF7A4F9042070490860DFE685
:103060007348046004206D490860D9E6A0B2FEF7F9
:103070004FF969490860002068490860D0E6664851
:103080000068001DFDF7DEFC6249098808446849B4
:103090000860082061490860C2E665480068654923
:1030A000096801FB04006249086004205B4908606C
:1030B000B6E65F48006820445D490860042057492F
:1030C0000860ADE65B48006800F47F0030B9554801
:1030D00058490968405C5649086006E05549098826
:1030E00088B2FDF7A7FC5249086099E6514800688C
:1030F00000F47F0038B94F49098888B2FEF7F8F824
:103100004B49086006E04B49098888B2FEF796F8FB
:103110004749086084E64748006800F47F0038B9F2
:103120004449098888B2FEF703F94149086006E07E
:103130004049098888B2FEF792F83D4908606FE679
:103140003B48007837493B4A1268885468E6384A59
:10315000128891B2374A128890B2FEF721F95FE6E1
:103160003449098888B232490968FEF723F957E6DD
:10317000FEF73CFB54E6FEF727FB51E6FEF734FB77
:103180004EE62B480078234909882144254A5054AB
:1031900004202249086043E6254800781D49098833
:1031A0002144204A505404201C49086038E6204835
:1031B00000781849098821441A4A505404201749B4
:1031C00008602DE61A480078124909882144154AFA
:1031D000505404201149086022E6154A128891B221
:1031E0000C4A1288224490B2FEF7DAF804200B4908
:1031F000086015E607490988214488B20C49098806
:1032000009B2FEF7AFF804200449086008E60000A0
:10321000DA00002000000020D40000201801002067
:10322000D80000206E030020DC0000201D010020DB
:1032300004000020FC000020F9490988214488B2DC
:10324000F8490968FEF79AF80420F7490860E7E5AD
:10325000F3490988214488B2F2490968FEF7AAF8BF
:103260000420F1490860DBE5ED4800882044EF497F
:10327000085CEC4908600420EB490860D0E5E848A8
:1032800000882044E949085CE64908600420E649D2
:103290000860C5E5E24800882044E449085CE1494B
:1032A00008600420E0490860BAE5DD490988214446
:1032B00088B2FEF71DF8DB4908600420DA4908608F
:1032C000AEE5D7490988214488B2FEF731F8D549DF
:1032D00008600420D4490860A2E5D1490988214446
:1032E00088B2FDF7F9FFCF4908600420CE49086095
:1032F00096E5CB490988214488B2FDF7C7FFC94943
:1033000008600420C84908608AE5C5490988214445
:1033100088B2FDF7CDFFC34908600420C2490860A8
:103320007EE5BF4800882044C049085CC049086069
:103330000420BD49086073E5B94800882044BB49B2
:10334000085CBB4908600420B749086068E5B448D8
:1033500000882044B549085CB54908600420B2499A
:1033600008605DE5AE490988214488B2FDF7C0FFD9
:10337000AF4908600420AC49086051E5A8490988B4
:10338000214488B2FDF7D4FFA94908600420A6496A
:10339000086045E5A2490988214488B2FDF79CFFF1
:1033A000A34908600420A049086039E59C490988C0
:1033B000214488B2FDF76AFF9D49086004209A49BC
:1033C00008602DE596490988214488B2FDF770FF11
:1033D0009749086004209449086021E591480078E5
:1033E0009249085504209049086019E58D480078F5
:1033F0008E49085504208C49086011E589480078F9
:103400008A49085504208849086009E585480078FC
:103410008649085504208449086001E5814A1288DC
:1034200091B2A0B2FDF7BCFF04207F490860F7E429
:10343000A0B27C49098809B2FDF794FF04207A49BB
:103440000860EDE4A0B277490968FDF7B3FF0420F6
:1034500075490860E4E4A0B272490968FDF78EFF7F
:10346000042071490860DBE47048005D6D49086024
:1034700004206D490860D3E46C48005D6949086028
:10348000042069490860CBE46848005D654908602C
:10349000042065490860C3E4A0B2FDF729FF614933
:1034A0000860042060490860BAE4A0B2FDF740FF5C
:1034B0005C49086004205C490860B1E4A0B2FDF7F3
:1034C0000BFF58490860042057490860A8E4A0B2DF
:1034D000FDF7DCFE534908600420534908609FE46F
:1034E000A0B2FDF7E5FE4F49086004204E49086090
:1034F00096E44E48005D4E49086004204A49086041
:103500008EE44A48005D4A49086004204649086044
:1035100086E44648005D4649086004204249086048
:103520007EE4A0B2FDF7E4FE4149086004203E4974
:10353000086075E4A0B2FDF7FBFE3D490860042079
:10354000394908606CE4A0B2FDF7C6FE384908604E
:1035500004203549086063E4A0B2FDF797FE3449C2
:1035600008600420304908605AE4A0B2FDF7A0FECC
:103570002F49086004202C49086051E450E44FE4CE
:103580004EE4FEF733F927480068800225490860B9
:10359000FEF72AF944E4FEF717F922480068800292
:1035A00020490860FEF720F93AE41E4800688002CE
:1035B0001C490860FEF718F932E41A4800688012C6
:1035C00018490860FEF710F92AE4FEF70FF927E41E
:1035D000FEF7FAF824E423E4124800781149086061
:1035E0001EE41048008880B20E49086018E417E411
:1035F0000C4800780B49086012E40A480078094931
:1036000008600DE40748008880B20649086007E4B6
:103610000448007803490860FEF7E8F813E4000066
:103620000000002004000020180100206E0300208C
:10363000FC000020FE480078FD490860FEF7D6F83F
:1036400007E4FB48008880B2F9490860FEF7BCF83F
:1036500005E4F748006818B90120F549086002E060
:103660000020F349086007E4F148006830B1F148F0
:10367000006818B10120EE49086002E00020EC4922
:1036800008602BE4EA48006810B9EA48006818B1FD
:103690000120E749086002E00020E54908601DE4D8
:1036A000E34800684042E249086017E4E0480068E7
:1036B0004042DF49086011E4DD4800684042DC49CF
:1036C00008600BE4DA480068002804DAD84800688B
:1036D0004042D749086029E4D5480068401CD449D5
:1036E000086023E4D2480068401ED14908601DE408
:1036F000CF480068CF4909680844CD4908600846AA
:103700000078086012E4CA480068CA490968084499
:10371000C74908600846008880B2086006E4C448CB
:103720000068C44909680844C149086017E4C048F2
:103730000068C04909680844BD4908600FE4BC48F6
:103740000068BC4909680844B949086007E4B848FA
:103750000068B84909680844B549086022E4B448DB
:103760000068B4490968401AB14908600846007801
:10377000086017E4AE480068AE490968401AAC49D1
:1037800008600846008880B208600BE4A84800681A
:10379000A8490968401AA649086009E4A4480068D5
:1037A000A4490968401AA249086007E4A0480068D3
:1037B000A0490968401A9E49086004E49C480068D2
:1037C0009C490968401A9A49086015E498480078AD
:1037D00099490860974800789849086096480068B9
:1037E00009684843944908600846007840B2904907
:1037F000086008460078086017E48D48008880B2A9
:103800008D4908608B48008880B28C4908608A48DE
:10381000006809684843884908600846008800B283
:10382000834908600846008880B208600BE480483D
:103830000068814908607F480068804908607E48C8
:103840000068096848437C49086008460068784970
:10385000086004E47648006876490968484374497A
:1038600008600BE47248006872490968484370496F
:10387000086011E46E4800686E49096848436C4965
:10388000086009E46A480068C1176D4A03C26948C4
:103890000068C1176B4A03C2694905C96949D1E982
:1038A0000031A0FB03CE02FB03E200FB01206449D0
:1038B000C1E900C003C9800A40EA81508912604A08
:1038C00003C25F4800685A4908600EE4584800780F
:1038D00059490860574800785849086056480068B8
:1038E0000968B0FBF1F0544908600846007840B21E
:1038F0004F4908600846007808600BE44C4800888F
:1039000080B24D4908604B48008880B24B4908603E
:10391000494800680968B0FBF1F04749086008466B
:10392000008800B2424908600846008880B20860FA
:1039300005E43F480068404908603E4800683F4948
:1039400008603D4800680968B0FBF1F03A4908603A
:10395000084600683649086009E43548006835497A
:10396000096890FBF1F03249086006E430480068CD
:103970003049096890FBF1F02D4908600BE42C48B0
:1039800000682C49096890FBF1F0294908600DE4B2
:1039900027480068C1172A4A03C226480068C11791
:1039A000284A03C22648D0E90010800240EA91501C
:1039B0008902234AC2E90010224821490CC803C9E0
:1039C000FCF7E2FB1E4A03C21D4800681849086064
:1039D000E6E3174800781849086016480078174948
:1039E0000860154800680968B0FBF1F201FB12009D
:1039F000114908600E4800780D4908600E480078AB
:103A000040B20860CCE30A48008880B20A490860E6
:103A10000848008880B209490860074800680968BA
:103A2000B0FBF1F201FB12000349086000480BE013
:103A300004000020FC000020000100200401002000
:103A40000801002010010020008880B2FB490860B6
:103A5000FB48008800B20860A2E3F8480068F84913
:103A60000860F8480068F8490860F5480068096887
:103A7000B0FBF1F201FB1200F14908600846006852
:103A8000EE4908608CE3ED480068EE49096890FB58
:103A9000F1F201FB1200E949086081E3E7480068A0
:103AA000E849096890FBF1F201FB1200E349086064
:103AB00076E3E2480068E349096890FBF1F201FB14
:103AC0001200DE4908606BE3DC480068DC490860EE
:103AD000DC480068DC490860D94800680968884209
:103AE00001D9012000E00020D5490860084600689F
:103AF000D249086054E3D1480068D2490968884235
:103B000001DD012000E00020CC49086048E3CB48FB
:103B10000068CB490860CB480068CB490860C848BA
:103B200000680968884201D3012000E00020C449F0
:103B3000086008460068C149086031E3BF48006872
:103B4000C0490968884201DB012000E00020BB4930
:103B5000086025E3B9480068B9490860B9480068B9
:103B6000B9490860B64800680968884201D2012056
:103B700000E00020B249086008460068AF490860CC
:103B80000EE3AE480068AF490968884201DA0120B7
:103B900000E00020A949086002E3A8480068A8499D
:103BA0000860A8480068A8490860A5480068096836
:103BB000884201D8012000E00020A14908600846A1
:103BC00000689E490860EBE29C4800689D490968CE
:103BD000884201DC012000E0002098490860DFE213
:103BE00000BF9648006897490968884201D10120C2
:103BF00000E0002091490860D2E200BF8F480068D1
:103C000090490968884201D0012000E000208B49DA
:103C10000860C5E28D480068001DFCF713FF0290A4
:103C200008208B490860002001908448008880B2F9
:103C3000824908604FF0000814E08049096801EBF0
:103C40000800FCF7F7FE83467E4909688B4505D1DD
:103C50007C48C0F800800120019005E008F10100D7
:103C60001FFA80F8A045E8D300BF019828B977492A
:103C70000298086000207649086091E26F48008849
:103C800080B26E490860084600686E49096800EB1A
:103C900081006A49086008460068FCF7D3FE6B495A
:103CA000086000206A4908607AE2042068490860D8
:103CB00062480068012803D164480460002008605D
:103CC0006EE20420624908605C48006818B95F48E9
:103CD00004600020086063E25848006858490860A2
:103CE0000846006880F001000860084600685349F3
:103CF000086055E25148006851490860084600686C
:103D000080F0FF000860084600684C49086047E200
:103D10004A4800684A490860084600684FF6FF7143
:103D2000484047490860084600684449086037E24F
:103D3000424800684249086008460068C04308607D
:103D4000084600683D4908602AE23C4800683C4952
:103D500008603C4800683C490860394800680968C8
:103D6000084037490860084600683449086017E28F
:103D700032480068324908603248006832490860B9
:103D80002F480068096808432D4908600846006804
:103D90002A49086004E2294800682949086029483E
:103DA0000068294908602648006809684840244995
:103DB00008600846006821490860F1E11F48006872
:103DC0001F4908601F4800681F4908601C480068B8
:103DD0000978C8401A490860084600681749086011
:103DE000DEE1164800681649086016480068164962
:103DF000086013480068097888401149086008463F
:103E000000780860084600680C490860C8E10B4863
:103E100000680B4908600B4800680B4908600848B7
:103E2000006809788840064908600846008880B222
:103E300008600846006801490860B1E104000020FC
:103E400000010020FC00002004010020D40000201C
:103E500018010020DE480068DE490860DE4800687E
:103E6000DE490860DB48006809788840D949086065
:103E700008460068D649086092E1D54800682041AC
:103E8000D34908600846007800F00100086004206B
:103E9000D349086084E1CE4800682041CC490860DD
:103EA0000846007800F0010008600420CC49086052
:103EB00076E1C74800682041C54908600846007897
:103EC00000F0010008600420C549086068E1C048AE
:103ED00000682041BE490860084600780860042058
:103EE000BF4908605CE1BA4800682041B8490860F1
:103EF0000846007808600420B949086050E1B448D9
:103F000000682041B24908600846008880B2086015
:103F10000420B349086043E10420B149086001204E
:103F2000A040C6B286F0FF09A9480068A949086008
:103F3000A948006828B90846006800EA0900086036
:103F400004E0A44800683043A2490860A148006822
:103F50009F49086024E10420A14908600120A04095
:103F600086B24FF6FF7086EA0009994800689949C1
:103F700008609948006828B90846006800EA090006
:103F8000086004E093480068304392490860914813
:103F900000688F49086003E104209149086001200E
:103FA00000FA04F66FEA0609894800688949086042
:103FB0008948006828B90846006800EA09000860D6
:103FC00004E0844800683043824908608148006802
:103FD0007F490860E4E004208149086027467E4864
:103FE00000687E4908600846006800FA07F6FF206E
:103FF000B8404FF6FF7180EA010A754800687549BC
:1040000008600846006800EA0A0008600846006880
:1040100030430860084600686D490860C0E004202D
:104020006F49086027466C4800686C49086008467C
:10403000006800FA07F64FF6FF70B8406FEA000A12
:1040400063480068634908600846006800EA0A009F
:1040500008600846006830430860084600685C490C
:1040600008609DE004205E49086027465A480068C1
:104070005A4908600846006800FA07F6FF20B84071
:104080006FEA000A52480068524908600846006812
:1040900000EA0A00086008460068304308600846E5
:1040A00000684B4908607BE0494800784D494E4A1A
:1040B000128888544C480088401C4B4908806FE0A7
:1040C000434800784749484A12888854464800883F
:1040D000401C4549088063E03D4800784149424A18
:1040E0001288885440480088401C3F49088057E0A7
:1040F000374800783B493C4A128888543A4800883F
:10410000401C394908804BE03148008881B236486C
:104110000088FDF745F934480088801C3249088042
:104120003EE02B48016830480088FDF743F92E48EF
:104130000088001D2C49088032E02548008801B223
:1041400029480088FDF70EF927480088801C264979
:10415000088025E01E48016823480088FDF70EF915
:1041600021480088001D2049088019E0184800688F
:1041700028B91E48046000201949086007E0144867
:104180000068401E1249086004201549086007E0D5
:1041900000201749087051200399FCF728FC00BF44
:1041A00000BF0F480068012808D104200C490860AE
:1041B00024B1E0B20390240AFEF743BC0B48006828
:1041C0000749096808440949086005B0BDE8F08F4F
:1041D0000400002000010020FC0000200401002059
:1041E000180100206E030020D8000020D400002019
:1041F0007801002000B513490888FDF7ADF8124991
:10420000086010490988491C88B2FDF751F80F4928
:1042100008600D48006818B90D4800680D4908602D
:1042200009480068012803D10B4800680949086063
:1042300005480068022803D108480078054908604D
:1042400000BD0000000000202401002050010020DB
:104250008C01002004000020900100209401002027
:104260002DE9F041074641F28834FCF7DFFB0546B3
:104270000020274908602748FEF774F80646AA2060
:1042800001F009FC06F10E01C8B201F004FC0020A7
:1042900001F001FCFF2001F0FEFB022001F0FBFB1E
:1042A0003C2001F0F8FBA00A01F0F5FBC5F38720E4
:1042B00001F0F1FB412001F0EEFBE0B201F0EBFB7D
:1042C000240A204601F0E7FB240A204601F0E3FB24
:1042D000240A204601F0DFFBE8B201F0DCFB2D0AE6
:1042E000E8B201F0D8FB2D0AE8B201F0D4FB2D0AA8
:1042F000284601F0D0FB074801F0C2FB03F0EEF8BE
:10430000002005490870012004490870BDE8F081CB
:1043100080010020A8780008780100208801002092
:1043200010B50446FCB913490888FDF715F8124981
:10433000086010490988491C88B2FCF7D9FF0F4969
:1043400008600C490988C91C88B2FCF7F1FF0C49C8
:1043500008600A4A128891B2074A1078084A12681F
:1043600002F046FB04E0E1B25220FCF740FB00BF44
:1043700000BF10BD00000020240100202801002003
:104380002C01002070B5044644BB18490888FCF78E
:10439000E3FF1749086015490988491C88B2FCF7F2
:1043A000DBFF1449086011490988891C88B2FCF7B1
:1043B000D3FF114908600D490988C91C88B2FCF770
:1043C000CBFF0E4908600D462B780B4D2A78094D1E
:1043D0002978074D287802F030FB04E0E1B2522042
:1043E000FCF705FB00BF00BF70BD0000000000200F
:1043F00024010020280100202C0100203001002091
:1044000010B5044624B1012C0CD0022C22D11EE0A0
:1044100014490888FCF7A0FF13490860087802F0E7
:104420003BFB1CE00F490888FCF742FF0F4908607E
:104430000C490988091D88B2FCF73AFF0C4908604D
:10444000084601680948006802F058FB07E002F0DE
:1044500056FB04E0E1B25220FCF7C9FA00BF00BFEE
:1044600010BD000000000020240100204C010020AD
:104470005001002002E008C8121F08C1002AFAD12A
:1044800070477047002001E001C1121F002AFBD1D4
:10449000704700000D48006840F008000B490860B4
:1044A00000BF0A48006800F008000028F9D107485A
:1044B000006840F004000549086000BF0348006838
:1044C00000F004000028F9D17047000008240140E2
:1044D00010B5012802D0022825D110E0134A126835
:1044E00022F47002114B1A601A4612684B1E4FF4E8
:1044F000700404EA03531A430C4B1A6014E00B4A8D
:104500000C32126822F44012084B0C331A601A461F
:1045100012684B1E4FF4401404EA03531A43034B32
:104520000C331A6000E000BF00BF10BD2C24014016
:1045300010B50121022000F029F94FF4602101207B
:1045400000F064F8002000F017F801210846FFF79A
:10455000BFFF0121084600F02FF84FF0807000F0F7
:10456000F1F800F01BF80520FDF7D0FDFFF792FFF2
:10457000012000F0F5F810BD30B10749096841F499
:104580000061054A116005E00349096821F40061F2
:10459000014A116070470000082401400548006886
:1045A00000F0010028B90348006840F0010001490B
:1045B000086070470824014091B100F001022AB15F
:1045C000114A126842F480120F4B1A6000F0020286
:1045D000C2B10D4A126842F400420B4B1A6011E05E
:1045E00000F001022AB1084A126822F48012064B38
:1045F0001A6000F002022AB1034A126822F4004253
:10460000014B1A607047000008240140012802D0C5
:10461000022816D10AE00C4A126822F460220A4BE2
:104620001A601A4612680A431A600BE0064A1268BA
:1046300022F4E042044B1A601A4612680A431A60D8
:1046400000E000BF00BF704708240140024909682C
:104650008143014A11607047002401400146002057
:10466000024A12680A4002B101207047002401404A
:1046700070B5144606280ED2314D2A6800EB80062C
:104680001F25B540AA4300EB800501FA05F52A4332
:104690002B4D2A602AE00C2812D2294D2D1F2A68A2
:1046A000851F05EB85061F25B540AA43851F05EB31
:1046B000850501FA05F52A43214D2D1F2A6015E0D5
:1046C000102813D21E4D083D2A68A0F10C0505EBF9
:1046D00085061F25B540AA43A0F10C0505EB85050D
:1046E00001FA05F52A43164D083D2A600A2910D221
:1046F000134D243D2B6801EB41060725B540AB4324
:1047000001EB410504FA05F52B430D4D243D2B60CB
:1047100015E0132913D20A4D283D2B68A1F10A0593
:1047200005EB45060725B540AB43A1F10A0505EBAE
:10473000450504FA05F52B43014D283D2B6070BD5E
:10474000342401400549096821F04071034A116091
:1047500011460968014311607047000004240140BC
:1047600000F0010129B10849096841F48001064AB5
:10477000116000F0020129B10349096841F40011F8
:10478000014A11607047000008240140E9B100F4BB
:1047900080722AB11C4A126842F480721A4B1A6065
:1047A00000F480622AB1184A126842F48062164B03
:1047B0001A6000F002022AB3134A121D126842F076
:1047C0000202114B1B1D1A601CE000F480722AB11A
:1047D0000D4A126822F480720B4B1A6000F480625A
:1047E0002AB1094A126822F48062074B1A6000F06D
:1047F00002023AB1044A121D126822F00202024B70
:104800001B1D1A607047000004240140002001E0D5
:10481000411C08B2B0F5FA7FFADB70470348006923
:1048200040F080000149086170470000002002400C
:1048300030B504464FF4702000F01EF80546B5B9B7
:104840000C48006940F002000A49086108464461CA
:10485000006940F0400008614FF4702000F00CF84F
:1048600005460448006920F0020002490861284614
:1048700030BD00000020024000B50346012200BF09
:1048800000F00CF802465B1E012A01D1002BF7D183
:10489000012A00D10422104600BD000000200A4970
:1048A000C96801F0010109B101200CE00649C9689D
:1048B00001F0100109B1032005E00349C96801F0C6
:1048C000040101B102207047002002400548006940
:1048D00000F0800020B10448024948600348486065
:1048E000704700000020024023016745AB89EFCDEF
:1048F00070B504460D464FF47020FFF7BDFF064625
:104900008EB90A48006940F0010008490861256035
:104910004FF47020FFF7B0FF06460448006920F00E
:10492000010002490861304670BD000000200240CD
:10493000F0B503461C6A5D6A00200DE00126864042
:1049400016403EB187000F26BE40B443860001FAF0
:1049500006F63443461CB0B20828EFD3082011E015
:104960000126864016405EB1A0F10806B7000F266A
:10497000BE40B543A0F10806B60001FA06F635437D
:10498000461CB0B21028EBD31C625D62F0BD8162A0
:1049900070478161704702461069084008B10120E4
:1049A00070470020FCE7F0B504460D461646216826
:1049B000E268002019E0012787401F409FB14FEABD
:1049C000400C032707FA0CF7B943470005FA07F72D
:1049D00039434FEA400C032707FA0CF7BA43470064
:1049E00006FA07F73A43471CB8B21028E3D3216010
:1049F000E260F0BD02465069084008B101207047EE
:104A00000020FCE7F0B504460E46012E03D167688E
:104A10001F43676002E067689F436760A1684FF6C5
:104A2000FF77BA4216D1E56B00200EE001278740E0
:104A30001F4047B14FEA400C032707FA0CF73943F0
:104A4000012787403D43471CB8B21028EED3A16030
:104A5000E56314E000200FE0012787401F404FB1BD
:104A60004FEA400C032707FA0CF7B943470002FA54
:104A700007F73943471CB8B21028EDD3A160F0BD49
:104A800000B50A480068B0F5FA6F01D3012000BDF7
:104A9000FDF7DCFD38B10A20FDF7BEFD03480068D4
:104AA0000A30024908600020F1E700007C01002084
:104AB00002F0CAFE01E002F0A5FEFCE72DE9F0419C
:104AC00003460D46164600240027A04624480068E9
:104AD00000F4E060B0F5A06F15D006DCB0F5407FC3
:104AE00018D0B0F5806F19D110E0B0F5C06F06D0C6
:104AF000B0F5E06F12D100274FF0040815E0012750
:104B00004FF0030811E00227B8460EE003274FF0EC
:104B100001080AE004274FF0000806E04FF4A06007
:104B200000F022F80227B84600BF00BFC7F104001A
:104B300005FA00F4C8F104010F20C84030400443D6
:104B400024010848C45403F01F0101208840591172
:104B5000890001F1E021C1F80001BDE8F081000009
:104B60000CED00E000E400E002490143024A11605C
:104B7000704700000000FA050CED00E0024A0A4010
:104B80000243024B1A60704780FFFF1F08ED00E0F0
:104B90005049496821F440414E4A51601146096B21
:104BA0004D4A11404B4A11630A2871D2DFE800F0E8
:104BB00005111D273642535F717D4649096B21F46B
:104BC0008031444A11631146096B21F480711163ED
:104BD0007DE04049096B41F480313E4A1163114642
:104BE000096B21F48071116371E03A494968394ACF
:104BF00051601146096B41F48071116367E03549DA
:104C00004968344A51601146096B41F00041116313
:104C10001146096B41F48071116358E02D494968D0
:104C200041F480412B4A51601146096B41F4807177
:104C300011634CE02749496841F48041254A51609D
:104C40001146096B41F0004111631146096B41F4B3
:104C5000807111633BE01F49496841F400411D4ADE
:104C600051601146096B41F4807111632FE01949BD
:104C7000496841F40041174A51601146096B41F0FF
:104C8000004111631146096B41F4807111631EE00C
:104C90001CE01049496841F440410E4A51601146F8
:104CA000096B41F48071116311E00A49496841F4CC
:104CB0004041084A51601146096B41F000411163BF
:104CC0001146096B41F48071116300E000BF00BF21
:104CD0007047000000100240FFFEFE7F2DE9F04FFC
:104CE00092B006464FF00009CDF84490CDF84090C0
:104CF0000024002000250022CDF83C900023CDF8B0
:104D00003890CDF83490CDF830900021CDF82C902B
:104D1000CDF82890CDF82490CDF82090804600273B
:104D200084460FF2083999E8004CD9F80C90CDE987
:104D300005BECDF810A0CDF81C900FF2F42ADAE9E8
:104D4000009ACDE9029A0FF2E82ADAE9009ACDE951
:104D5000009ADFF8E892D9F80490C9F38109CDF8F8
:104D60004490DDF84490B9F1000F06D0B9F1010F7D
:104D700005D0B9F1020F61D103E0B14D60E0B04D53
:104D80005EE0DFF8B892D9F80490C9F38341DFF808
:104D9000AC92D9F80490C9F3C069CDF82C90DFF833
:104DA0009C92D9F82C904FEAD979CDF82890DDF86B
:104DB0002C90B9F1000F01D0113104E00F2901D17D
:104DC000491C00E0891CDDF82890B9F1010F00D1E1
:104DD0001F31DFF86892D9F80490C9F30049CDF883
:104DE0002490DFF85892D9F82C90C9F38079CDF847
:104DF0002090DDF82490B9F1000F1AD0DFF83C9232
:104E0000D9F82C9009F00F0909F10108DDF820907C
:104E1000B9F1000F06D1DFF82892B9FBF8F909FBC8
:104E200001F50AE0DFF81C92B9FBF8F909FB01F57E
:104E300003E0DFF8149201FB09F501E0804D00BFAB
:104E400000BFDFF8F891D9F80490C9F303170DF10A
:104E5000100919F807C025FA0CF2DFF8E091D9F82B
:104E60000490C9F302270DF1080919F807C022FAC6
:104E70000CF9CDF83C90DFF8C491D9F80490C9F34F
:104E8000C2271DF807C022FA0CF3072E6FD2DFE805
:104E900006F00406080A0C8094002846C1E010467B
:104EA000BFE00F98BDE01846BBE0DFF89091D9F85D
:104EB000309009F48079B9F5807F12D0DFF87C91C9
:104EC000D9F8309009F48039B9F5803F04D0DFF883
:104ED0007C91CDF838905AE0DFF87491CDF8389095
:104EE00055E0DFF85891D9F80490C9F38139CDF82D
:104EF0004090DFF84891D9F830904FEAD974DDF846
:104F00004090B9F1000F09D0B9F1010F13D0B9F1F8
:104F1000020F1DD0B9F1030F37D129E024B94FEAB0
:104F20005309CDF8389005E04FF00309B2FBF9F9C9
:104F3000CDF838902AE024B94FEA9309CDF838909B
:104F400005E04FF00509B2FBF9F9CDF838901DE006
:104F500034B94FF00609B3FBF9F9CDF8389005E004
:104F60004FF00709B2FBF9F9CDF838900EE057E0A1
:104F700024B94FEAD309CDF8389005E04FF009097C
:104F8000B2FBF9F9CDF8389000E000BF00BF0E98F1
:104F900047E0DFF8A890D9F8309009F04009B9F15E
:104FA000400F04D048F21209CDF8349003E04FF4DA
:104FB0000049CDF834900D9833E0DFF88090D9F8AF
:104FC000309009F00309B9F1000F01D10C9325E0ED
:104FD000DFF86890D9F8309009F00309B9F1010FB2
:104FE00001D10C951AE0DFF85490D9F8309009F00F
:104FF0000309B9F1020F04D14FF40049CDF8309004
:105000000CE0DFF83890D9F8309009F00309B9F1D5
:10501000030F03D1DFF82890CDF830900C9800E012
:1050200000BF00BF12B0BDE8F08F0000000000001C
:1050300000000000010203040607080900100240F6
:1050400000127A00006CDC0200093D00809FD50050
:10505000003FAB0110B540F2096000F005F80620F2
:10506000FFF796FD10BD0000064A02EB901109689B
:1050700000F01F0301229A401143024B03EB9012F0
:105080001160704700100240064A02EB9011096857
:1050900000F01F0301229A409143024B03EB901250
:1050A0001160704700100240064A02EB9011096837
:1050B00000F01F0301229A401143024B03EB9012B0
:1050C0001160704700100240704770477047000041
:1050D0001FB54FF4E160FFF7C7FF134802F04CF82B
:1050E000092002905320ADF800000020ADF8060022
:1050F000ADF80200ADF804008DF80C0069460A48CE
:1051000002F0A6F8032211461320FFF7D7FC012175
:10511000054802F0F7F80121034802F0EFF80248D1
:1051200002F08CF81FBD00000020004010B50121E6
:105130000D480078FBF798FE01210C480078FBF73A
:1051400093FE012108480078FBF7D2FF01210748B0
:105150000078FBF7CDFF00F02BF800F013F83220B9
:10516000FCF7D4FF10BD00000C0000200D00002053
:10517000024A1070024A1170704700000C000020B3
:105180000D00002010B5002107480078FBF7B0FFA4
:10519000012106480078FBF7ABFF012102480078A7
:1051A000FBF7A6FF10BD00000D0000200C00002042
:1051B00010B5012109480078FBF79AFF0121084842
:1051C0000078FBF795FF002104480078FBF790FF7B
:1051D000002103480078FBF78BFF10BD0D00002075
:1051E0000C00002010B50024002111480078FBF7C6
:1051F0003BFE01210F480078FBF77AFF3220FCF7D5
:1052000073FF00E0641C0A480078FBF76FFE01287A
:1052100002D109488442F5D3002106480078FBF703
:1052200067FF012102480078FBF71EFE10BD000059
:105230000D0000200C00002040420F0070B5044615
:10524000002513E004F080010B480078FBF750FFC5
:105250006006040E012109480078FBF749FF002190
:1052600006480078FBF744FF681CC5B2082DE9DB4F
:10527000FFF7B8FF70BD00000D0000200C000020FB
:1052800010B5012159480078FBF7EEFD012158487F
:105290000078FBF7E9FD012156480078FBF7E4FDB3
:1052A000012155480078FBF7DFFD01214F480078C8
:1052B000FBF71EFF00214E480078FBF719FF002185
:1052C0004D480078FBF714FF4C48007801280CD1BA
:1052D000002148480078FBF70BFF0120FCF716FF80
:1052E000012144480078FBF703FF0A20FCF70EFF7A
:1052F00042480078002853D1AE2000F099F80020F1
:1053000000F096F8102000F093F8402000F090F89C
:10531000812000F08DF8CF2000F08AF8A12000F065
:1053200087F8C82000F084F8A62000F081F8A820B3
:1053300000F07EF83F2000F07BF8D32000F078F8F2
:10534000002000F075F8D52000F072F8802000F001
:105350006FF8D92000F06CF8F12000F069F8DA203D
:1053600000F066F8122000F063F8DB2000F060F82F
:10537000402000F05DF8202000F05AF8022000F0F4
:1053800057F88D2000F054F8142000F051F8A420B4
:1053900000F04EF8A62000F04BF8AF2000F048F8DF
:1053A00016480078012820D1AF2000F041F84020B5
:1053B00000F03EF8A02000F03BF8A62000F038F8FE
:1053C000A42000F035F8A22000F032F8C82000F048
:1053D0002FF82F2000F02CF8252000F029F881204C
:1053E00000F026F8252000F023F810BD0F00002063
:1053F0001000002011000020120000200E000020EC
:1054000030B5039C054D2870054D2970054D2A7057
:10541000054D2B70054D2C7030BD00000E00002096
:105420000F000020100000201100002012000020BA
:1054300070B50446002112480078FBF759FE00259C
:105440001BE004F0800028B900210E480078FBF72B
:105450004FFE04E001210B480078FBF749FE0021D4
:1054600009480078FBF744FE6006040E0121064857
:105470000078FBF73DFE681CC5B2082DE1DB70BD6E
:1054800012000020100000200F00002070B504461C
:10549000012112480078FBF72BFE00251BE004F0E9
:1054A000800028B900210E480078FBF721FE04E0B7
:1054B00001210B480078FBF71BFE0021094800780A
:1054C000FBF716FE6006040E012106480078FBF784
:1054D0000FFE681CC5B2082DE1DB70BD1200002074
:1054E000100000200F00002010B5FFF71FFE00F095
:1054F0005DF8AE2000F05BF8002000F058F81020B6
:1055000000F055F8402000F052F8812000F04FF8EC
:10551000CF2000F04CF8A12000F049F8C82000F09E
:1055200046F8A62000F043F8A82000F040F83F20FD
:1055300000F03DF8D32000F03AF8002000F037F8F2
:10554000D52000F034F8802000F031F8D92000F0A8
:105550002EF8F12000F02BF8DA2000F028F81220C5
:1055600000F025F8DB2000F022F8402000F01FF8C2
:10557000202000F01CF8022000F019F88D2000F027
:1055800016F8142000F013F8A42000F010F8A6205C
:1055900000F00DF8AF2000F00AF810BD10B503467A
:1055A0000C4621461846FFF7E3FD10BD704710B5C5
:1055B0000446FFF7FDFD7820FFF740FE0020FFF7CF
:1055C0003DFE2046FFF73AFEFFF7DCFD10BD10B5AB
:1055D0000446FFF7EDFD7820FFF730FE4020FFF78F
:1055E0002DFE2046FFF72AFEFFF7CCFD10BD000080
:1055F00070B506460C461546074808490860084835
:1056000006600848046000F0F3F815B9FCF7B8FA32
:1056100001E0FBF725FB70BD7557000890000020E6
:1056200014000020180000202DE9F04107460C4628
:1056300015461E462A2000F059F8384600F038F882
:10564000284600F035F82B2000F050F8204600F0F6
:105650002FF8304600F02CF82C2000F047F8BDE879
:10566000F081000070B506460F480088401E83B2E6
:105670000E480088401E82B200210846FFF7D4FF82
:1056800000240CE0002504E0304600F011F8681C0E
:1056900085B2054800688542F6DB601C84B2034889
:1056A00000688442EEDB70BD18000020140000206A
:1056B00010B50446012105480078FBF719FD200AC2
:1056C00000F022F8E0B200F01FF810BD2100002029
:1056D00010B50446012104480078FBF709FD204677
:1056E00000F012F810BD00002100002010B50446A3
:1056F000002104480078FBF7FBFC204600F004F88A
:1057000010BD00002100002070B50446002513E004
:1057100000210B480078FBF7EBFC04F080010948FE
:105720000078FBF7E5FC012105480078FBF7E0FC79
:105730006006040E681CC5B2082DE9DB70BD0000D0
:105740001F0000201E00002010B502480088FFF74F
:10575000AFFF10BD1C00002070B50446002504E01A
:1057600003480088FFF7A4FF6D1CA542F8DB70BD5D
:105770001C00002070B504460D46002C03DB0C48CD
:105780000068844200DB70BD002D03DB094800681F
:10579000854200DBF7E7ABB2A2B2A9B2A0B2FFF735
:1057A00043FF05480088FFF783FF00BFEBE70000D9
:1057B00014000020180000201C0000202DE9F041FA
:1057C00006460D463046FBF723FD0746002404E05D
:1057D00037F81400FFF76CFF641CAC42F8DBBDE83F
:1057E000F081000001490880704700001C00002083
:1057F0007047000010B5044C2070044C2170044C1C
:105800002270044C237010BD1E0000201F000020D9
:10581000200000202100002010B5FBF789FE0A209F
:10582000FCF774FC302000F037F80A20FCF76EFC1F
:10583000302000F031F80A20FCF768FC0C2000F062
:105840002BF80A20FCF762FC012000F025F80A2062
:10585000FCF75CFC062000F01FF86420FCF756FC07
:10586000342000F019F80A20FCF750FC362000F034
:1058700013F80A20FCF74AFC10BD0000034B187017
:10588000034B1970034B1A70704700002200002070
:10589000230000202400002070B505460121244883
:1058A0000078FBF725FCFEF7B1FF00240FE0012193
:1058B00020480078FBF71CFCFEF7A8FF00211D48DC
:1058C0000078FBF715FCFEF7A1FF601CC4B2052CA5
:1058D000EDDB002116480078FBF70AFCFEF796FF87
:1058E000012114480078FBF703FCFEF78FFF00212D
:1058F00010480078FBF7FCFBFEF788FF00210C48FE
:105900000078FBF7F5FBFEF781FF012109480078DD
:10591000FBF7EEFBFEF77AFF002106480078FBF765
:10592000E7FBFEF773FF2846FCF7CAFA70BD0000DC
:10593000230000202400002070B5054601212348E3
:105940000078FBF7D5FB00240FE001212048007808
:10595000FBF7CEFBFEF75AFF00211D480078FBF74E
:10596000C7FBFEF753FF601CC4B2052CEDDB002122
:1059700016480078FBF7BCFBFEF748FF01211448EE
:105980000078FBF7B5FBFEF741FF002110480078D7
:10599000FBF7AEFBFEF73AFF01210C480078FBF75E
:1059A000A7FBFEF733FF012109480078FBF7A0FBB6
:1059B000FEF72CFF002106480078FBF799FBFEF765
:1059C00025FF2846FCF77CFA70BD0000230000206C
:1059D0002400002010B5044640F21150FFF744FBAC
:1059E00040F20E60FFF740FB4FF4007201214FF0D0
:1059F0009040FEF79DFF4FF4806201214FF09040F0
:105A0000FEF796FF4FF40073012202214FF0904001
:105A1000FEF7C9FF4FF40073012200214FF09040C0
:105A2000FEF7F0FF4FF48063012202214FF0904017
:105A3000FEF7B9FF4FF48063012200214FF0904040
:105A4000FEF7E0FF0D4801F0D3FC21460B4801F0C2
:105A500087FC0421094801F028FD0821074801F0CE
:105A60002CFD064801F0E4FC032211461B20FFF741
:105A700025F80521014801F0EFFC10BD0038014078
:105A800010B5044603E014F8010B00F004F8207888
:105A90000028F8D110BD10B504462146002001F0C1
:105AA000B9FD10BD0146002006E0064A1268024416
:105AB000054B9954421C10B2044AB2F9002090429E
:105AC000F3DB7047680000206E03002070000020A8
:105AD0000149086070470000880000200149086003
:105AE00070470000840000200149086070470000F2
:105AF00080000020034B1870034B1970034B1A7081
:105B0000704700007E0000207C0000207D00002007
:105B100070B5049C084D2880084D2960084D2A6006
:105B2000084D2B60084D2C60084D094E3560094D1D
:105B3000094E356070BD0000700000206800002034
:105B400074000020780000206C000020095C000830
:105B5000900000205D5B00089400002030B50446F2
:105B60000D460A480068002800DA30BD0748006882
:105B700018B900200649087002E0012004490870A5
:105B80002946204600F08EF800BFEEE7880000208E
:105B90008C000020F0B50246002A09DB1548006899
:105BA000824205DA002903DB13480068814201DBE9
:105BB0000120F0BD48B2C71700EB5777FF10A0EBEC
:105BC000C7048BB21846DF1703EB5777FD100B485D
:105BD000006805FB002085B2094800682844094F89
:105BE0003E5C264106F0010008B10120E1E70020FB
:105BF000DFE7000074000020780000206C00002027
:105C0000680000206E03002030B504460D460A48A7
:105C10000068002800DA30BD0748006818B9002085
:105C20000649087002E00120044908702946204610
:105C300000F038F800BFEEE7840000208C00002060
:105C4000F0B505464CB2E71704EB5777FF10A4EB0D
:105C5000C7068AB21446D71702EB5777FB100D4CD4
:105C6000246803FB0454A3B20B4C24681C440B4F60
:105C7000385D0B4C247824B10124B4400443E0B2D5
:105C800002E00124B440A043034C24681C44034FA9
:105C90003855F0BD6C000020680000206E03002025
:105CA0008C0000202DE9F04305460C46002D09DB51
:105CB00028480068854205DA002C03DB2648006886
:105CC000844201DBBDE8F0832448007818B1214804
:105CD0000068401E451B2248007818B11E48006825
:105CE000401E041B1F48007818B12846254604466C
:105CF00000BF1D480068012803D121462846FFF750
:105D00009FFF19480068012800DADBE71649086898
:105D100000EBD071A5EB61081349086800EBD07166
:105D2000A4EB610400260FE0C146002706E02146EF
:105D30004846FFF785FF09F101097F1C0A48006802
:105D40008742F4D3641C761C074800688642EBD374
:105D500000BFB7E774000020780000207C0000201E
:105D60007D0000207E0000208000002030B502462B
:105D7000154B164C94F900401A55154B134C94F9D9
:105D8000004019550024134B104D95F9005043F86D
:105D900025400123104C0D4D95F900506355012409
:105DA0000E4B0A4D95F900505C5501230C4C074DE4
:105DB00095F900506355054B93F900001B785B1C67
:105DC0005BB2024C237030BD5402002066000020FC
:105DD0005E02002068020020900200209A0200204B
:105DE000A40200200146024850F82100704700003C
:105DF00068020020002001490870704766000020FA
:105E000070B500243EE02349085DFBF76FF80546B6
:105E10002148005D50B94DB92049085DFBF766F88F
:105E20001F49085501201C49085570BD1A48005DDE
:105E300030B3012D24D11949085DFBF757F81949F2
:105E400008551748005D012809D10846005D30B9A2
:105E5000154850F82400401C134941F8240010480C
:105E6000005D50B90F48005D012806D10E4850F87A
:105E70002400401E0C4941F8240000200649085522
:105E8000601CC4B2094890F900008442BBDB00BF2B
:105E9000CBE7000054020020900200205E020020A8
:105EA0009A020020A4020020680200206600002060
:105EB00070B50546002401F08FFB00212846FBF752
:105EC00017F91220FCF722F901212846FBF710F9F7
:105ED0000320FCF7F9F800212846FAF7C5FF284609
:105EE00000F053F8284600F03FF8284600F04DF83F
:105EF000284600F01CF804462402284600F017F853
:105F000004442402284600F012F8044424022846DF
:105F100000F00DF80444284600F009F8064601F0A8
:105F20005DFB01212846FAF79FFF204670BD70B542
:105F300006460024002513E06006040E304600F0FB
:105F400013F80520FCF7C0F83046FAF7CFFF012818
:105F500004D144F00104304600F017F8681CC5B2C3
:105F6000082DE9DB204670BD70B50546002403E02E
:105F70000120FCF7B9F8641C2846FAF7B7FF18B9F6
:105F800042F210708442F3D370BD70B50546002410
:105F900003E00120FCF7A8F8641C2846FAF7A6FFE6
:105FA000012803D142F210708442F2D370BD70B563
:105FB0000646002401F010FB002525E000213046B4
:105FC000FBF796F80120FCF78FF801213046FBF72C
:105FD0008FF800213046FAF747FF64100120FCF7E4
:105FE00073F83046FAF782FF012801D144F08004AB
:105FF0000520FCF769F801213046FAF735FF01204A
:10600000FCF762F8681C45B2082DD7DB01F0E6FA10
:10601000204670BD10B5044601F0DEFA002120468E
:10602000FBF766F81820FCF74FF81820FCF74CF83F
:106030001820FCF749F801212046FBF759F8042005
:10604000FCF742F800212046FAF70EFF1920FCF772
:106050003BF801212046FAF707FF01F0BFFA10BD17
:1060600070B506460C4601F0B7FA002518E000218D
:106070003046FBF73DF80120FCF736F804F001014B
:106080003046FBF735F864100920FCF71DF80121B4
:106090003046FBF72DF80320FCF726F8681C45B2C4
:1060A000082DE4DB01F09AFA70BD00002DE9FF4FE6
:1060B00087B080460C4604F47F0008B1012000E060
:1060C00000208146A4B200200590B9F1000F08D04D
:1060D000201DFAF7AFFC0246C01702EB5070C61045
:1060E00006E04B4A211D505CC11700EB5171CE10E8
:1060F0004FF0000A099800B20490B9F1000F04D0E3
:10610000A01CFAF797FC834603E04149A01C11F854
:1061100000B00020039076E0DDF80CA00A9800B2F1
:1061200002900020019063E0B9F1000F07D004F164
:10613000090101EB0A00FAF77DFC074604E004F1CF
:106140000900504432490F5CB8F1000F12D100250C
:106150000EE007F0010020B12E4A0299049812685F
:1061600090477F100298401C00B20290681CC5B294
:10617000082DEEDBB8F1010F0AD1002506E07F10F3
:106180000298401C00B20290681CC5B2082DF6DBD4
:10619000B8F1020F18D1002514E007F0010050B14A
:1061A00002990498FAF7F0FA28B1012005900598B1
:1061B0000BB0BDE8F08F7F100298401C00B2029037
:1061C000681CC5B2082DE8DBB9F1000F04D0A01C93
:1061D000FAF730FC069003E00D49A01C085C06901D
:1061E000069850441FFA80FA0198401C80B2019032
:1061F0000198B04298DB0498401C00B204900398C8
:10620000401CC0B203900398584585DB0598CFE742
:106210006E030020900000202DE9FF4F85B08246DC
:106220000D469846ADB2A81CFAF704FC0246E81CDD
:10623000FAF700FC02EB002080B20190281DFAF76B
:10624000F9FB04462646E11704EB5171C910A4EB93
:10625000C10139B934B12046E11704EB5171C1F3E2
:10626000C70406E02046E11704EB5171C910491C30
:10627000CCB2002740E00798384480B20390DDF8A4
:1062800048904FF0000B2FE005F10901039A8818A0
:10629000FAF7D0FB02900020049018E0029800F07A
:1062A000010020B149464046164A126890470298BC
:1062B0004010029009F101000FFA80F91298304461
:1062C000484500DC06E00498401CC0B204900498E5
:1062D0000828E3DB00BF01990398084480B20390CB
:1062E0000BF1010000F0FF0BA345CDDB08F101002D
:1062F0000FFA80F8781CC7B25745BCDB09B0BDE87F
:10630000F08F0000900000200121024A1170024924
:1063100008707047580000205900002000200849EC
:10632000087008490870084908700120074908707A
:10633000FF200749087000200649087070470000D8
:10634000580000205A0000205B0000205C00002064
:1063500064000020650000200148007870470000BC
:106360006400002070B53448007800B970BD33482F
:10637000007808B332480078401C3149087008465C
:106380000078C82818DD00202E4908702C490870B4
:106390002D480078401C2C490870084600780528D4
:1063A0000ADB002027490870244908702649087034
:1063B000FF2026490870D9E725480078FAF796FDAE
:1063C0000446244805780470012D33D194BB002085
:1063D0001D4908701A4806780020194908700120E4
:1063E0001649087017480078401C1649087008467E
:1063F0000078012803D008460078022800D1B5E7CC
:1064000015480068400814490860102E04DB08464F
:10641000006840F0004008600A480078222809D14E
:10642000002008490870084908700B480068000CF3
:106430000649087000BF99E7580000205A00002064
:106440005B0000205D00002065000020640000204B
:10645000590000205C00002060000020034B1870F1
:10646000034B1970034B1A7070470000A500002001
:10647000A6000020A700002070B5044600250026D5
:106480002BE004F0010028B9002116480078FAF743
:106490002FFE04E0012113480078FAF729FE0520B9
:1064A000FBF722FE641000210F480078FAF720FE67
:1064B0000520FBF719FE6D100C480078FAF716FD61
:1064C00008B145F08005012107480078FAF710FE71
:1064D0000520FBF709FE701CC6B2082ED1DB28464A
:1064E00070BD0000A5000020A6000020A70000202D
:1064F00000B5002001F070F80649097839B906495D
:10650000098821B1044908880021034A118001F05B
:1065100065F800BDB2000020B4000020002003494F
:10652000087003490870034908807047B0000020D4
:10653000B2000020B4000020024908700121024A84
:1065400011707047B1000020B000002010B509485C
:10655000007800B910BD08480078FAF7C7FC044677
:1065600024B106480088401C04490880044804708F
:1065700000BFEFE7B0000020B1000020B400002011
:10658000B200002000200149087070474D00002033
:1065900030B505460C460E4805700E48048000884C
:1065A0004FF6FF7101EA40000A490880084600885A
:1065B00040F4C0600880002007490870074908605F
:1065C0000120074908700520FBF7A0FD30BD000041
:1065D0004C0000204E0000205000002054000020FD
:1065E0004D00002010B51848007800B910BD1748BC
:1065F000006800F57A70154908600846006842F6A0
:10660000B10188421DD311480068401A0F49086043
:106610000F48007800F001010E480078FAF768FD95
:106620000B48008840100A4908800B480078401C3D
:1066300009490870084600780B2802D10020024959
:10664000087000BFD2E700004D0000205400002079
:106650004E0000204C000020500000202DE9F047A3
:1066600008AC94E8F010DFF8CC80DFF8CC9099F912
:10667000009048F82900DFF8C480DFF8BC9099F951
:10668000009048F82910DFF8B880DFF8AC9099F94D
:10669000009048F82920DFF8AC80DFF89C9099F949
:1066A000009048F82930DFF8A080DFF88C9099F945
:1066B000009048F82940DFF89480DFF87C9099F941
:1066C000009048F82950DFF88880DFF86C9099F93D
:1066D000009048F82960DFF87C80DFF85C9099F939
:1066E000009048F82970DFF87080DFF84C9099F935
:1066F000009048F829C04FF00008DFF86090DFF8FC
:1067000038A09AF900A029F81A80DFF82C8098F8B0
:10671000008008F101084FFA88F8DFF81C9089F82A
:1067200000804FF00108DFF8389089F80080BDE85C
:10673000F0870000B002002099000020C402002071
:10674000D8020020EC0200200003002014030020E7
:10675000280300203C030020500300206403002095
:106760009800002001490870704700009A0000203E
:10677000054A064B93F90030D054054A034B93F970
:106780000030D154704700009B0000209900002089
:10679000A000002000200349087003490870034945
:1067A0000870704799000020980000209A0000208F
:1067B00010B50948007800B910BD002404E0204657
:1067C00000F00EF8601C44B2044890F900008442C6
:1067D000F5DB00BFF0E700009800002099000020E2
:1067E0002DE9FE4F0446744850F8240073490F5CAD
:1067F0000FB9BDE8FE8F724850F824006F4911F8B8
:1068000000B0704931F8241088B2FAF751FD804683
:106810006D4931F8241088B2FAF74AFD06466B48F4
:1068200050F824006549085C0290694850F824003B
:1068300011F80090674850F8240011F800A066494C
:1068400031F8241088B2FAF721FD05B2634931F816
:10685000241088B2FAF71AFD00B201900298E8B14C
:10686000B9F1000F07D00198854202DA681C05B221
:1068700001E04FF00009BBF1000F06D1BAF1000FA3
:1068800003D0012D01DD681E05B2554830F8140013
:10689000284400B2524921F8140008E0504830F86A
:1068A00014100198084400B24D4921F814004A49D7
:1068B00031F8241088B22946FAF754FD444850F8BC
:1068C00024003E4901F80090454830F9140042F296
:1068D0001071884200DA8CE7414830F81400A0F5C6
:1068E0001C50103800B23E4921F81400BBF1000FD3
:1068F0002DD1002E23DD761E334931F8241088B2C5
:106900003146FAF73BFDBAF1000F20D1284605FBCE
:1069100000F144F6206291FBF2F086420EDA4FF06D
:10692000010A4FF000092A4951F82410234A02F8BD
:106930000190284951F8241002F801A007E02FB176
:1069400000271D4850F824001C490F5451E7012F1F
:1069500007D12449085D0021FAF7CAFB08F10108B4
:1069600006E02049085D0121FAF7C2FBA8F1010801
:10697000144931F8241088B24146FAF7FFFC1A484E
:10698000007850B91949085D0121FAF7B1FB1749A0
:10699000085D0021FAF7ACFB0CE01449085DFAF73A
:1069A00097FB0090009AD243D1B2104A105DFAF7DB
:1069B0009FFB00BF00BF1CE7D80200206E03002031
:1069C000EC020020C4020020B002002000030020DE
:1069D00014030020280300203C0300205003002063
:1069E000640300209B0000209A000020A0000020EB
:1069F000F0B507460E46154600F0EEFD002411E006
:106A00002819801CDFF82CC01CF800302819401C05
:106A10001CF8002028191CF80010384600F020F857
:106A2000E01C04B2B442EBDB00F0D8FD0A20FBF717
:106A30004BFBF0BD6E0300207047F0B504460D46D9
:106A400016461F4600F0C8FD3B4632462946204602
:106A500000F006F800F0C2FD0A20FBF735FBF0BDA0
:106A60002DE9F04180460E4615461F462C4624026D
:106A7000344424023C442146404600F017FEBDE861
:106A8000F081000000200249087002490860704748
:106A9000A9000020AC00002000B5034608480370A0
:106AA000184600F080FD4EF6602206480168044852
:106AB000007800F077FD01200349087000BD000058
:106AC000A8000020AC000020A900002009480078A0
:106AD00000B9704708480068401C0749086008462C
:106AE00000684EF66021884202DD002002490860FD
:106AF00000BFEEE7A9000020AC00002070477047FF
:106B000000B500200C4908700C49087000F018F816
:106B100000F0D4F9FFF736FDFFF78EFFFFF7FEFB1D
:106B2000FFF768F9FEF7D1FAFFF734FEFFF7AAFF87
:106B3000FFF7F4FC00BD0000260000202700002025
:106B40000021074A1160002007E00021C0EBC002CD
:106B5000044B03F81210411CC8B20428F5DB70473F
:106B600034000020FA010020F0B50446059D264EB1
:106B700030783668761C244F3E60C0EBC007DFF8E3
:106B80008CC00CEB4707FC700126C0EBC0070CF86B
:106B900017601426C0EBC0070CEB47073E713C267C
:106BA000C0EBC0070CEB47077E710026C0EBC007A7
:106BB0000CEB4707BE710126C0EBC0070CEB470783
:106BC000FE710026C0EBC0070CEB47073E720126A2
:106BD000C0EBC0070CEB47077E72C0EBC0066746F0
:106BE00007EB4606B172C0EBC00607EB4606F27231
:106BF000C0EBC00607EB46063373C0EBC00607EBDD
:106C000046067573F0BD000034000020FA01002034
:106C100070B50024D1E0C4EBC4006B4911F810003A
:106C200000B9C8E0C4EBC400674901EB40008078BC
:106C3000401CC4EBC401644A02EB41018870C4EB00
:106C4000C400114601EB40008078C4EBC40102EBA4
:106C50004101C978884200DAADE00020C4EBC401EC
:106C6000594A02EB41018870C4EBC400114601EBA4
:106C7000400090F90100642190FBF1F201FB120049
:106C8000C4EBC401504A02EB41014870C4EBC4009C
:106C9000114601EB4000407808B9012000E00020D7
:106CA00005462E46C4EBC400474901EB400090F96D
:106CB0000100C4EBC401444A02EB410191F9041004
:106CC000884211DBC4EBC40102EB4101887A002148
:106CD000FAF70EFAC4EBC4013B4A02EB4101C87A51
:106CE0000021FAF705FA0025CDB1C4EBC402364BFA
:106CF00003EB42029179C4EBC40203EB4202907AA7
:106D0000FAF7F6F9C4EBC4022F4B03EB4202D17938
:106D1000C4EBC40203EB4202D07AFAF7E9F9C4EB00
:106D2000C400294901EB400090F90100C4EBC40103
:106D3000254A02EB410191F90510884211DBC4EBB1
:106D4000C40102EB4101087B0021FAF7D1F9C4EB41
:106D5000C4011D4A02EB4101487B0021FAF7C8F942
:106D60000026CEB1C4EBC402174B03EB4202117AEA
:106D7000C4EBC40203EB4202107BFAF7B9F9C4EB8F
:106D8000C402114B03EB4202517AC4EBC40203EB81
:106D90004202507BFAF7ACF9C4EBC4000A4901EB9C
:106DA00040004078401C40B2C4EBC401064A02EBEC
:106DB0004101487000BF601CC4B2044800688442AE
:106DC000FFF629AF70BD0000FA010020340000205A
:106DD000F0B505AC70CCC0EBC007DFF83CC00CEBE5
:106DE00047073971C0EBC0070CEB47077A71C0EB5E
:106DF000C0070CEB4707BB71C0EBC0070CEB4707A4
:106E0000FC71C0EBC0070CEB47073D72C0EBC0073D
:106E10000CEB47077E72F0BDFA01002010B500F0C0
:106E200034F810480078401C0E4908700846007875
:106E30000A2800DA10BD00200A49087000F017F88F
:106E400009480078401C08490870084600780A285C
:106E500000DAEFE700200449087000F007F800BFEF
:106E6000E8E700002600002027000020704710B54A
:106E7000FFF7CEFEFFF776FAFEF7C2FFFFF798FCAA
:106E8000FFF724FEFFF762FB10BD10B500F02CF8F1
:106E900000F08EF8FFF7A6FB10BD00000122024BA8
:106EA0001A70024A115470473C0000203D00002037
:106EB000014A42F82010704734020020FF200749A1
:106EC000087048708870C870087148718871C871FE
:106ED0000020034908600349087070473D00002006
:106EE000480000203C00002010B52748007800B979
:106EF00010BD26480068401C244908600846006808
:106F0000FA2816D0224823490968405CFF280FD090
:106F100021482049096850F821001C490968884225
:106F200006D11B491B4A1268885C0021FAF7E0F879
:106F3000DEE7174817490968405CFF2806D0144966
:106F4000144A1268885C0021FAF7D2F800200F4931
:106F5000086010480068401C0E4908600846006838
:106F6000082801D10020086009480A490968405CE6
:106F7000FF2806D00649074A1268885C0121FAF703
:106F8000B7F800BFB4E700003C0000203800002044
:106F90003D00002048000020340200200021024A69
:106FA0001170024908707047310000203200002043
:106FB00010B51448007800B910BD134800680A30B5
:106FC000114908600846006810490968884216DBC4
:106FD0000D4800680D490968401A0B4908600C48C3
:106FE00001780C480078FAF783F80948007818B956
:106FF00001200749087002E000200549087000BF21
:10700000DAE7000031000020280000202C000020DA
:107010003000002032000020024908600121024AAD
:10702000117070472C000020310000200020014921
:1070300008707047310000202DE9F04107460C46EA
:107040000025002600F0C8FA01213846FAF750F86A
:107050000120FBF739F800213846FAF749F800E03B
:10706000761C4CF25030864204DA2046F9F73EFF97
:107070000028F5D0FBF7E2FA07E0FBF7ABFA05468C
:1070800044F62060854200D904E02046F9F72EFF3F
:107090000128F2D000BF00F0A1FA05EB0510400076
:1070A000C821B0FBF1F0BDE8F08100000020002114
:1070B0002C4A126842F480322A4B1A6000BF401CEE
:1070C000284A126802F4003111B9B0F5006FF6D108
:1070D000244A126802F4003202B97047214A526809
:1070E000204B5A601A46526842F400525A601A46BF
:1070F000526842F480625A601A4652681A4B1A402B
:10710000184B5A601A46D26A22F04042DA621A4696
:10711000D26A42F00102DA621A465268134B1A43ED
:10712000104B5A601A46126842F080721A6000BF13
:107130000C4A126802F00072002AF9D0094A52681B
:1071400022F00302074B5A601A46526842F00202CC
:107150005A6000BF034A526802F00802002AF9D0C0
:1071600000BFBAE700100240FFFFC277000011081D
:1071700010B5FFF79BFF10BD10B504462D49601AEE
:107180008C4214D009DCB4F1804F19D02A48204435
:10719000F8B1B0F5E05F49D124E0B0F5A05F2AD0A6
:1071A000B0F5C05F30D0B0F5E05F3FD135E040F2E0
:1071B0000B30FDF779FF40F20B30FDF765FF36E04D
:1071C0004FF48060FDF770FF4FF48060FDF75CFFC7
:1071D0002DE040F20140FDF767FF40F20140FDF76E
:1071E00053FF24E04FF48160FDF75EFF4FF48160B0
:1071F000FDF74AFF1BE04FF44470FDF755FF4FF4D5
:107200004470FDF741FF12E040F21130FDF74CFFF2
:1072100040F21130FDF738FF09E040F21230FDF77F
:1072200043FF40F21230FDF72FFF00E000BF00BF28
:1072300010BD0000002C014000FCFFBF016821F0E0
:10724000010101607047016841F001010160704770
:107250000A888262234A904205D0B0F1804F02D062
:10726000214A90420BD1026822F07002026002684B
:107270004B881A43026002688B881A4302608A684E
:10728000C262184A904211D0B0F1804F0ED0164A17
:1072900090420BD0154A904208D0154A904205D032
:1072A000144A904202D0144A904207D1026822F454
:1072B000407202600268CB881A430260094A904219
:1072C00008D00B4A904205D00A4A904202D00A4A9E
:1072D000904201D10A7B0263426942F0010242619D
:1072E00070470000002C01400004004000200040D6
:1072F000004001400044014000480140C2680A4388
:10730000C2607047CA4302617047000010B504466E
:10731000B4B90F490888FAF71FF80E4908600C49FC
:107320000988491C88B2FAF717F80B4908600A4621
:107330001178084A1078FFF77FFE0849086004E0DA
:10734000E1B25220F9F753FB00BF00BF10BD0000AF
:10735000000000202401002028010020040000205B
:107360002DE9F04704460D460027B846B9460026E9
:107370001948204438B1B0F5744F09D10620FDF703
:10738000ADFC074605E00220FDF7A8FC074600E03B
:1073900000BF00BF206800F4004070B1780000EB2F
:1073A0005500B0FBF5F64FF6F07006EA0008C6F39C
:1073B000420948EA0900E0600CE007EB5500B0FB29
:1073C000F5F64FF6F07006EA000806F00F0948EAF5
:1073D0000900E060BDE8F08700BCFFBF0146486AD5
:1073E000C0F308007047C1F30802826270470000D2
:1073F00010B504460D48204458B1B0F5744F11D172
:1074000040F20E30FDF750FE40F20E30FDF73CFE2C
:1074100009E040F21140FDF747FE40F21140FDF750
:1074200033FE00E000BF00BF10BD000000BCFFBF86
:10743000016841F001010160704710B5024602EB9E
:107440009110006801F01F040123A340184008B107
:10745000012010BD0020FCE710B500EB911212686E
:1074600001F01F040123A3401A4300EB91131A609B
:1074700010BD70B5024600230024C1F389101058D6
:1074800001F01F060125B54000EA050302EB91500B
:107490000068C1F304460125B54000EA050414B1B3
:1074A0000BB1012070BD0020FCE7026822F004024D
:1074B000026002680A4302607047026822F0080214
:1074C000026002680A4302607047000010B502487B
:1074D000FFF7B9FE10BD00000020004010B50248C3
:1074E000FFF7ACFE10BD00000020004070B5FDF7B6
:1074F000EDF900240CE009494A1402FB0410FDF7E1
:1075000097F9054615B15620FEF7C5FA601CC4B2BE
:107510001E2CF0DBFDF782F970BD0000008800082A
:107520007047704770B504460E46FDF7CFF908491D
:1075300060183146FDF7DCF905462DB13420FEF721
:10754000AAFA2846FEF7A7FAFDF768F970BD000011
:107550000088000870B504460D46054951F82430EE
:10756000044951F8240000220321FDF71CFA70BDE4
:10757000141800201419002010B5044605222146D5
:107580000020FDF775F80220FDF760F800BF02202B
:10759000FDF764F80128FAD10148006810BD000029
:1075A0004C2401407047704710B5044600BF214687
:1075B0005520F9F71CFA00200249087000BF00BFEF
:1075C00010BD0000780100200148024908607047A2
:1075D000008800080800002072B6704762B6704745
:1075E0004FF0E0208069C0437047000000487047BA
:1075F000204801004FF0E0208069C04370475420CC
:10760000704770B505460C4615B92046FEF7E2F9FD
:1076100070BD000070B504460D465CB929460648A9
:10762000FFF7E1FE00BF40F207710348FFF705FFD7
:107630000028F8D070BD00000038014070470000FD
:1076400070B56FF07F41481EB0F1807F00D31BE022
:10765000481E4FF0E022506150170F22002807DA31
:1076600013071D0E0B4B00F00F04241F1D5503E0E4
:1076700013071C0E084B1C5400BF00204FF0E022E3
:1076800090610720106100BFF9F740FCFDF720FD75
:1076900070BD000018ED00E000E400E010B54FF40C
:1076A000E1310020FFF7ADFF10BD000030B5054609
:1076B0000B460024A0E02846F9F740FD03F4000043
:1076C000002841D14E480068401C4D4908602846BA
:1076D000F9F728FD4A480068401C494908600846F7
:1076E0000068401C086008460068401C08600846A6
:1076F0000068401C086008460068401C0860084696
:107700000068401C086008460068401C0860084685
:107710000068401C086008460068401C0860084675
:107720000068401C086008460068401C0860084665
:107730000068401C086008460068401C0860084655
:107740000068401C086054E02D480068401C2C492B
:10775000086008460068401C086008460068401C35
:10776000086008460068401C086008460068401C25
:10777000086008460068401C086008460068401C15
:10778000086008460068401C086008460068401C05
:10779000086008460068401C086008460068401CF5
:1077A000086008460068401C086008460068401CE5
:1077B000086008460068401C086008460068401CD5
:1077C000086008460068401C08602846F9F7AAFCD3
:1077D0000B480068401C0A49086008460068401CC5
:1077E000086008460068401C086008460068401CA5
:1077F00008605B00601C44B2182CFFF65CAF30BD23
:10780000B001002010B50E48007800B910BDFDF79A
:1078100037F900B9FAE70B48007860B1FAF716FFBC
:1078200000B9F3E70020F9F743FD044604B96424E6
:10783000A0B2FAF7F1FE00F017F800BFE6E700008B
:10784000780100201C01002010B5FFF7C7FEF9F7F2
:1078500017FFFFF7F5FEFAF753FCFFF7B5FEFAF74F
:10786000C9FEF9F79BFC10BD10B50D48007848B172
:107870000C48007830B1FAF7F9FF1120FAF7E2FF6F
:10788000FAF7FAFF00BFFBF7CBF80420F9F764FD25
:107890000028F8D000210420F9F79CFD10BD00005D
:1078A0001C0100201D0100204350553A474433324B
:1078B00046333330433854362C465245513A64658A
:1078C0006661756C742C43433A3000000000000080
:1078D00000010203040506070809023CFC780008C1
:1078E00000000020B4010000AE020008007900088A
:1078F000B4010020641C00008444000801FF01B7AB
:04000005080001519D
:00000001FF
