:020000040800F2
:1000000020E400209D010008B91400087D0F0008BD
:10001000B5120008A1050008213A00080000000000
:10002000000000000000000000000000852C000817
:10003000110C0008000000005D150008A130000848
:10004000B7010008B7010008B7010008B7010008B0
:10005000B7010008B7010008B7010008B7010008A0
:10006000B7010008B7010008B7010008B701000890
:10007000B7010008B7010008B7010008B701000880
:10008000B7010008B7010008B7010008B701000870
:10009000B7010008B7010008B7010008B701000860
:1000A000B7010008B7010008B7010008B701000850
:1000B000DD310008B7010008B7010008B7010008EA
:1000C000B7010008B7010008B7010008B701000830
:1000D000B7010008E5370008B7010008B7010008BC
:1000E000B7010008B7010008B7010008B701000810
:1000F000B7010008B7010008B7010008B701000800
:10010000B7010008B7010008B7010008B7010008EF
:10011000B7010008B7010008B7010008B7010008DF
:10012000B7010008B7010008B7010008B7010008CF
:10013000B7010008B7010008B7010008B7010008BF
:10014000B7010008B7010008B7010008B7010008AF
:10015000B7010008B7010008B7010008B70100089F
:10016000B7010008B7010008B7010008B70100088F
:10017000B7010008B7010008B7010008B70100087F
:10018000B7010008B7010008DFF80CD000F07AF8DA
:10019000004800478548000820E4002006488047C2
:1001A00006480047FEE7FEE7FEE7FEE7FEE7FEE75C
:1001B000FEE7FEE7FEE7FEE781310008890100085F
:1001C0002DE9F0410024061B254671F1000605DAF1
:1001D00001240027D0EB070067EB0101161E73F125
:1001E000000605DA0027D2EB0702012567EB0303BF
:1001F00000F017F886460E4617469C46AC4204D0DF
:100200000025D0EB050E65EB010624B10020D2EBF2
:10021000000760EB030C704631463A466346BDE882
:10022000F0812DE9F05F0546002092469B46884606
:100230000646814640241BE0284641464746224662
:1002400000F041F853465A46C01A914110D3114666
:100250001846224600F028F82D1A67EB01084F4691
:1002600022460120002100F01FF817EB00094E4143
:10027000201EA4F10104DFDC484631462A464346ED
:10028000BDE8F09F064C074D06E0E06840F0010332
:1002900094E8070098471034AC42F6D3FFF778FF94
:1002A00090620008B0620008202A04DB203A00FABD
:1002B00002F1002070479140C2F1200320FA03F3BD
:1002C000194390407047202A04DB203A21FA02F0BB
:1002D0000021704721FA02F3D040C2F12002914080
:1002E00008431946704770B58C1810F8015B15F07B
:1002F000070301D110F8013B2A1106D110F8012B98
:1003000003E010F8016B01F8016B5B1EF9D12B07BC
:1003100005D40023521E0DD401F8013BFAE710F872
:10032000013BCB1A921C03E013F8015B01F8015B5F
:10033000521EF9D5A142D8D3002070BD0029816892
:1003400002D041F0010101E021F00101816070471C
:10035000084B10B5D3F8042307490A40D0E900142C
:100360002143D0E90240044321431143C3F804135D
:1003700010BD000000200140E030FCFFC06C80B2E6
:1003800070470246002012680A4200D001207047E0
:1003900030B542680F4B0C791A400B6842EA0422D0
:1003A0001343436082680C4B4D791A40D1E90343F3
:1003B00023438C6844EA4504234313438360C26AA1
:1003C000097D22F47002491EC9B242EA0151C1629C
:1003D00030BD0000FFFEFFFCFDF7FFC070B5072435
:1003E00009290AD9C568A1F10A0606EB4606B440F8
:1003F000A543B3401D43C56007E0056901EB410615
:10040000B440A543B3401D4305611F23072A09D209
:10041000446B521E02EB820293409C4391400C437A
:10042000446370BD0D2A09D2046BD21F02EB820215
:1004300093409C4391400C43046370BDC46A0D3AE1
:1004400002EB820293409C4391400C43C46270BD16
:10045000816841F0804181607047000038B54E4CA2
:1004600001460929608A7DD2DFE801F0052D454C5F
:10047000535A6978890000F053FFA067608A801C96
:1004800080B200F091FFA065608A801D80B200F00C
:1004900057FF414D80352860608A0A3080B200F0F5
:1004A0004FFF6860608A0E3080B200F039FFA860AC
:1004B00000B20090D5E90023B4F87800A16D00B235
:1004C00005F012F838BD00F02BFF6065608A401C13
:1004D00080B200F069FFA065608A801C80B200F0E5
:1004E0002FFFE065C2B294F8581094F85400BDE8AC
:1004F000384004F0EFBF00F023FFA067BDE83840AC
:1005000004F0E2BF00F01CFFA067BDE8384004F033
:10051000D5BF00F015FFA067BDE8384004F0C8BFA4
:1005200000F00EFFA067608A001D80B200F008FF97
:100530000146E067A06FBDE8384005F01FB800F045
:10054000FFFEA067608A001D80B200F0F9FE014640
:10055000E067A06FBDE8384004F0DABF00F0F0FEBD
:10056000A06700E012E0608A001D80B200F0E8FEA3
:100570000146E067A06F04F0DBFF206438BD074947
:10058000085C6065BDE8384004F07EBFBDE83840D7
:10059000C9B2522000F03DBB68000020B801002025
:1005A000FEE700002DE9F0410F46044600F007FC8D
:1005B000184D4FF00006E878A8B925E014F8010BB3
:1005C00014F8011B14F8022B090214F8013C01EB8A
:1005D000024101EB03610144E88800F0F9FBE8887F
:1005E000001DE880361DBE42E8D30FE014F8010B71
:1005F00014F8011B00EB012081B2E88800F0E2FB57
:10060000E888801CE880B61CBE42EFD3BDE8F0410C
:1006100000F0C5BB48000020054910B50020C88087
:1006200000F0CDFB00F0ADFBBDE8104000F0B7BB23
:10063000480000202DE9F043284A2A4F012016786F
:100640000023DFED271A3978DFF89C9041E0115C38
:10065000F0EE610A49060C0E401C80B2B0EE600A52
:100660000146B7EE002A044416E000BF551812F800
:1006700001C06D780CEBCC086D1E08EB4C18EDB288
:1006800009EB880C0CEBC50570EE820A95ED061A95
:10069000891C89B230EE010A8C42E7D880EE201A1C
:1006A000CC4610E01518115C6D7801EBC1086D1E89
:1006B00008EB4111EDB20CEB810101EBC501801C8F
:1006C00081ED061A80B28442ECD85B1CA0B29BB2CA
:1006D0000021B342BBD33970BDE8F08320DB00209A
:1006E00000000000A401002018BB002030B5002449
:1006F000624DBDE0E968052905DD91FBF0F200FBE4
:100700001210A0422AD00120687004EBC4005C499A
:1007100000EB441001EB800090ED000ABDEEC00A32
:1007200010EE100A292819D2DFE800F0A015191DD3
:1007300021253935292D31252D4145494D555D65F9
:10074000695159616D7175A089A0798D7D819195EF
:1007500085999DA03D00204602F092F886E0204653
:1007600001F0A4FA82E0204601F064F97EE0204620
:1007700001F0B0FA7AE0204601F058FA76E020461F
:1007800001F03AFD72E0204601F07CFF6EE0204669
:1007900002F00CF86AE0204601F0FAFB66E0204621
:1007A00001F0FEFA62E0204601F004FD5EE0204622
:1007B00001F0B2FA5AE0204601F0D0FA56E02046A5
:1007C00001F0C8FF52E0204601F0BEFB4EE020469B
:1007D00001F050FC4AE0204600F0D4FF46E02046FD
:1007E00001F06EFC42E0204600F0F2FF3EE02046C1
:1007F00001F090FC3AE0204601F014F836E0204683
:1008000001F036F832E0204601F0AAFC2EE0204646
:1008100002F07EF82AE0204602F04AF826E0204660
:1008200001F0A0F822E0204601F016FD1EE020466F
:1008300001F0B4FD1AE0204601F0E4FA16E020468B
:1008400001F054FF12E0204601F0C0F80EE020460F
:1008500001F0ECFB0AE0204601F042FE06E02046F3
:1008600001F01CF902E0204601F02CF8641CA4B24F
:1008700068888442FFF43EAF30BD0000A401002030
:1008800018BB002030B500242E4D57E004EBC40007
:100890002D4900EB441001EB800090ED000ABDEE05
:1008A000C00A10EE100A1E282BD00EDC042824D01B
:1008B00006DC012811D0022813D003283CD118E00F
:1008C000082812D01C2837D12BE01F38062833D235
:1008D000DFE800F02B1B1F2F3223204602F0F2FE30
:1008E0002AE0204602F066FD26E0204602F01CFECB
:1008F00022E0204602F03AFD1EE0204602F068FDAC
:100900001AE0204602F0DAFC16E0204602F01EFE55
:1009100012E0204602F046FE0EE0204602F06AFD9C
:100920000AE0204602F0AAFE06E0204602F0E2FCC1
:1009300002E0204602F0AEFD641CA4B26888844246
:10094000A4D330BDA401002018BB002010B50D4C6D
:1009500000202061AA2004F04BFD022004F048FD95
:10096000002004F045FDF32004F042FDA07804F0DF
:100970003FFD00F023FA642002F0BCFABDE810400D
:1009800000F07EBC4800002010B50F4C0100608ACA
:1009900007D0012910D0BDE81040C9B2522000F0A4
:1009A00038B90A490A5C401C80B26265095C10468D
:1009B000A16504F05BFE05E000F0D2FCA06740B248
:1009C00004F070FE206410BD68000020B801002013
:1009D00010B528B1C1B2BDE81040522000F019B9DD
:1009E000044C0549608A085C606504F0ABFE206435
:1009F00010BD000068000020B801002010B5144CA4
:100A000002001449608A09D0012A0DD0022A16D0AA
:100A1000BDE81040D1B2522000F0FBB8085C606520
:100A2000BDE8104004F023BF0A5C401C80B2626540
:100A3000095CA165BDE81040104604F03FBF00F01E
:100A40008FFC6065C0B204F0DFFE206410BD0000C2
:100A500068000020B801002004F06ABD70B5234C86
:100A600000252169491C2161012906D0022908D0ED
:100A7000032908D004290AD00AE0AA2800D0256159
:100A800070BDA08070BDA18801EB0020F9E7607007
:100A9000217829B16178FF29F1D1A1880129EED10E
:100AA0006178F22915D004DCF0290AD0F12904D1AB
:100AB0000BE0F32911D0FF2913D0502000F0A9F842
:100AC000DDE7BDE8704002F083B9BDE8704002F098
:100AD000B1BABDE8704000F0F7BDBDE87040FFF767
:100AE00035BFBDE8704003F0A9BD000048000020FC
:100AF000020A10B50146C0B2152A60D2DFE802F042
:100B00000B0F13171B1F23272B2F33373B3F434755
:100B10004B4F53575B00BDE8104002F0C3BABDE82D
:100B2000104001F025BFBDE8104000F029BABDE833
:100B3000104002F01FB8BDE8104001F0A5BFBDE8AD
:100B4000104002F0EDB9BDE8104000F06BBCBDE80C
:100B5000104002F015B9BDE8104002F071B8BDE8D0
:100B6000104003F0CBBDBDE8104003F0A1BDBDE8CF
:100B70001040FFF743BFBDE81040FFF729BFBDE8B5
:100B8000104000F061BBBDE8104005F043BBBDE87C
:100B90001040FFF7F9BEBDE81040FFF75FBCBDE8AD
:100BA000104000F085B9BDE8104000F0ADB9BDE8D7
:100BB000104002F0DFBEBDE8104002F0D7B9C9B264
:100BC000522000F026F802490020087010BD0000F5
:100BD0004800002010B50446AA2004F009FC0520B6
:100BE00004F006FC002004F003FCFD2004F000FCEF
:100BF000E0B204F0FDFBC4F3072004F0F9FBC4F3FA
:100C0000074004F0F5FB200EBDE8104004F0F0BBF7
:100C1000704770B505460C46AA2004F0E9FB032096
:100C200004F0E6FB002004F0E3FBFE2004F0E0FB10
:100C3000E8B204F0DDFBE0B2BDE8704004F0D8BBE0
:100C400001490860704700000C3C024070B5064640
:100C5000002529B1012927D0022928D04FF4407559
:100C600000F080F809281ED1124C206820F4407052
:100C70002060206828432060206820F0F800206071
:100C8000206846F0020108432060206840F480306C
:100C9000206000F067F8216821F0020121602168DE
:100CA00021F0F801216070BD4FF48075D8E74FF452
:100CB0000075D5E7103C02400D4909200A68D203AF
:100CC00001D5012070470A68D20601D50620704779
:100CD0000A68D20501D5022070470A6812F0EF0FAA
:100CE00001D00720704709688907FBD508207047A5
:100CF0000C3C02400248016841F00041016070472D
:100D0000103C024070B50D46064600F02BF809284D
:100D100013D10A4C206820F440702060206840F411
:100D200080702060206840F001002060358000F075
:100D300019F8216821F00101216070BD103C0240CA
:100D400005480068002805DA034804490C380160AA
:100D50000349016070470000103C024023016745D1
:100D6000AB89EFCD08B509208DF80000FFF7A4FF8F
:100D70008DF800009DF800000128F7D09DF80000D4
:100D800008BD10B5F320FFF75BFF0221BDE810405E
:100D90003020FFF75BBF8020704770477047FFF738
:100DA000A9BF00000149405C704700000000040832
:100DB0000149405870470000000004087047FFF7E1
:100DC000BFBF0000014A1044FFF79CBF00000408A9
:100DD0007047F0B50023012403270D6804FA03F2DD
:100DE0001540954242D1D0F800C05E0007FA06F5E2
:100DF0002CEA050CC0F800C091F804C0D0F800E05F
:100E00000CFA06FC4CEA0E0CC0F800C091F804C0C5
:100E1000BCF1010F02D0BCF1020F1FD1D0F808C005
:100E20002CEA050CC0F808C091F805C0D0F808E01D
:100E30000CFA06FC4CEA0E0CC0F808C0D0F804C04E
:100E40002CEA020CC0F804C0426891F806C00CFA03
:100E500003FC1FFA8CFC42EA0C024260C268AA43FF
:100E6000C260CA79C568B2402A43C2605B1C102BBD
:100E7000B3D3F0BD4B07DB0E9A40C90810B500EBA9
:100E80008100016A0F249C40A1430162016A114361
:100E9000016210BD0246002012690A4200D0012002
:100EA00070470246002052690A4200D00120704774
:100EB00010B5012805D0C1B2BDE810405220FFF79F
:100EC000A8BE0F4C0F49608A095C401C80B2616566
:100ED00000F06AFAA065608A401D80B200F030FA26
:100EE000A067608A093080B200F02AFAE067034602
:100EF00094F85400A26FA16D04F012FD206410BD9F
:100F000068000020B801002038B5012805D0BDE8F0
:100F10003840C1B25220FFF77CBE174C608A00F007
:100F20001FFAA067608A401C80B200F03DFA60653D
:100F3000608A401D80B200F01DFAA065608AC01D65
:100F400080B200F0EDF9E067608A093080B200F00D
:100F5000E7F904F18001086000B20090B4F858008D
:100F6000616D82B2B4F87C0003B294F8780040B2AC
:100F700004F072FD38BD000068000020FEE70000AC
:100F80002DE9F047264C0100DFF89880608A4FF089
:100F9000000509D0012914D002291AD0BDE8F04774
:100FA000C9B25220FFF735BE18F80020401C80B2AD
:100FB000626518F80010A165BDE8F047104603F01F
:100FC00000BF00F0CDF9A067A072BDE8F04703F0C4
:100FD0009FBE00F0E9F986B20027A146C4F854008C
:100FE00005F1B000C0B203F0EEFE99F80A0003F07C
:100FF000EAFE102003F0E7FE6D1CEDB25FF0000486
:1010000018F8060003F0F0FE761C641CE4B2B6B2D9
:10101000802CF5D37F1CFFB2082FE1D3BDE8F08709
:1010200068000020B801002010B504460723012203
:101030000848FFF7D3F92046FFF70AFA02212046B5
:10104000FFF79FF90028F9D02046BDE81040FFF7D0
:1010500095B9000000200140074931F810200749E8
:101060000A6002224A7103220A71054951F82000E0
:101070000249FFF7AEBE000068B500204000002026
:1010800088B6002010B5A0F11001012901D8083858
:1010900004E0A0F12001052901D81638C0B20146AC
:1010A0000348FFF7C1FFC11700EB9170801010BD1E
:1010B00000200140064A01B101211171054931F8B2
:1010C00010101160044951F820000149FFF781BE5A
:1010D0004000002068B5002088B600200349044A7B
:1010E00031F8101052F82000FFF7D4BE68B5002088
:1010F00088B60020F0B5012189B0084600F03AFA20
:101100000121022000F036FA0121042000F032FA19
:101110000121082000F02EFA0121102000F02AFA07
:101120000121202000F026FA0121402000F022FABF
:101130000121802000F01EFA0121080200F01AFAB5
:10114000284D0020022128716971A8710120E871E1
:101150002548009025480190254802902548039095
:101160002548049025480590254806902548079075
:101170002548264E0121089000204FF6FF726B464D
:1011800006F5907726F8101012EA410100D10121EE
:10119000040953F8244047F82040401CC0B290286E
:1011A000F0D300240DE0702C13D0712C11D0A4F1D9
:1011B000500010280DD3103810280AD320381028DA
:1011C00007D336F81400286057F824000549FFF7C4
:1011D00000FE641CE4B2902CE5D303F0BFFA09B022
:1011E000F0BD00004000002000000240000402406A
:1011F00000080240000C02400010024000140240AF
:1012000000180240001C02400020024068B5002087
:101210000349044A31F8101052F82000FFF741BE8C
:1012200068B5002088B60020054A02F5907332F8B0
:10123000102053F8200009B10283704742837047A1
:1012400068B500207047000010B50B4C38B101287C
:101250000DD0C1B2BDE810405220FFF7DABC608A61
:101260000649085C6065BDE8104004F057BC04F016
:101270006BFC206410BD000068000020B801002055
:1012800010B5FFF78BFDFFF735FF04F04BFE4FF471
:10129000E13004F089F802F005FC054901200870EE
:1012A0000A2002F035FABDE8104003F0B4BB00009C
:1012B00048000020FEE7000010B500200346044A65
:1012C000044901E01354401C0C68A042FAD310BD3D
:1012D000B80100208C62000870B50446401CFFF77E
:1012E00061FD4FF6FF7101EA00252046FFF75AFD28
:1012F000284480B270BD70B50446C01CFFF752FD93
:101300000502A01CFFF74EFD28440502601CFFF7F4
:1013100049FD284405022046FFF744FD284470BDDE
:1013200005490A18085C527800EB0220010401D537
:101330000249084370470000B80100200000FFFF89
:10134000064A10B51118105CCB788C78497804EBFC
:10135000032301EB032100EB012010BDB8010020A5
:101360000349085C010601D560F0FF0070470000EA
:10137000B801002005494FF6FF730A18085C52783F
:1013800003EA0222104480B270470000B801002036
:10139000044A1118105C8B78497801EB032100EBAB
:1013A00001207047B8010020064A10B51118105CE2
:1013B000CB788C78497804EB032301EB032100EB15
:1013C000012010BDB80100200149085C70470000F1
:1013D000B8010020024A11541044090A41707047B4
:1013E000B8010020044A1154090A0244080A517045
:1013F0009070000AD0707047B8010020024A115462
:101400001044090A41707047B8010020044A115481
:10141000090A0244080A51709070000AD07070479F
:10142000B80100202DE9FC41214D0100214C688AC2
:1014300007D001291ED0BDE8FC41C9B25220FFF7F8
:10144000E8BBFFF77DFFA8676E8A311D89B2721D68
:10145000615C92B2B31D6965A25C9BB2AA65F61D80
:10146000E35CB6B2EB65A45D2C66009404F06EFDFF
:10147000BDE8FC81265C411C89B26E65821C615C02
:1014800092B2A965C31CA25C9BB2071DEA65E35C2E
:10149000BFB22B66401DE75D80B26F66205CA86618
:1014A000CDE9007049B270B204F0AEFDE0E7000093
:1014B00068000020B80100207047000030B50F22FE
:1014C000C47801780123FCB1144C246801F1E021B7
:1014D00004F4E064C4F5E064C4F30724C4F1040533
:1014E000E2404478AC408578154025432A0181F8D4
:1014F0000024007800F01F018B404009800000F1BB
:10150000E020C0F8003130BD01F01F0083404809E1
:10151000800000F1E020C0F8803130BD0CED00E02B
:1015200010B50D4C01212078FFF7C4FD0121607832
:10153000FFF7C0FD0121A078FFF7BCFD0121207855
:10154000FFF772FE01216078FFF76EFEA078BDE81C
:1015500010400021FFF768BE240100207047000002
:1015600003480021016141708170C1707047000023
:1015700048000020044A0029116801D0014300E01E
:10158000814311607047000030380240044A00294E
:10159000116801D0014300E08143116070470000F1
:1015A00040380240044A0029116801D0014300E09C
:1015B00081431160704700004438024070B5204AF2
:1015C0001168204C11F00C0104D06610042903D0DE
:1015D000082903D004601BE0066019E01849091FC0
:1015E0000B68C3F380550B6803F03F0315B1B6FBDE
:1015F000F3F301E0B4FBF3F30C680968C4F3881457
:101600006343C1F30141491C4900B3FBF1F101609F
:1016100011680F2303EA11110B4B5C5C0168E14078
:1016200041601468072505EA94241C5D21FA04F43E
:101630008460126805EA52329A5CD140C16070BD84
:10164000083802400024F4000000002010B5C1B2A8
:10165000C0F307200C4C012809D002280BD0042825
:101660000DD00121BDE810405320FFF7D2BA084643
:10167000FFF7CEFD06E00846FFF730FD02E0084622
:10168000FFF700FD206410BD68000020C2B2C0F367
:10169000072048B101280BD003280DD004280FD013
:1016A00001215320FFF7B5BAC9B21046FFF702BDBA
:1016B000C9B21046FFF7B8BDC9B21046FFF7C2BDA8
:1016C000C9B21046FFF7C8BC70B513490A69042AAD
:1016D0001ED0052A1DD0062A1AD18A7A00EB0220D4
:1016E00085B200200861AA2003F082FE012003F0E9
:1016F0007FFE012003F07CFEF22003F079FE00243F
:101700002819FFF74FFB03F073FE641CFF2CF7D979
:1017100070BD488170BD0000480000200348016C86
:101720000A0402D5024A1143016470476800002090
:101730000000FFFF0349086C020602D560F0FF00BD
:101740000864704768000020F0B50D4C0020607000
:10175000E06808B9FFF796F800253226B7EE000AD0
:1017600084ED040A01272770FEF7C0FFFEF762FF31
:1017700020786D1C002801D1B542F4DBF0BD0000DB
:10178000A401002000EBC00101EB40110C480D4BFF
:1017900000EB81008269016AD0ED0A0A9A4206DDF7
:1017A000994204DD9FED080A70EE600A03E09FEDA8
:1017B000070AF1EE600A80ED0A0AC0ED090A7047D7
:1017C00018BB002000401C4500409C450000000064
:1017D00000EBC00101EB40110E4810B500EB810099
:1017E0000D498469036A826AD0ED0C0A8C4208DDD7
:1017F0008B4206DD8A4204DD9FED080A70EE600A26
:1018000003E09FED070AF1EE600A80ED0C0AC0EDDF
:101810000B0A10BD18BB002000401C4500409C4531
:101820000000000000EBC00101EB40110C480D4B23
:1018300000EB81008269016AD0ED0A0A9A4206DD56
:10184000994204DDF1EE600A9FED070A03E09FED87
:10185000070A70EE600A80ED0A0AC0ED090A7047B7
:1018600018BB002000401C450000000000409C45C3
:1018700000EBC00101EB40110E4810B500EB8100F8
:101880000D498469036A826AD0ED0C0A8C4208DD36
:101890008B4206DD8A4204DDF1EE600A9FED070A05
:1018A00003E09FED070A70EE600A80ED0C0AC0EDC0
:1018B0000B0A10BD18BB002000401C4500000000B2
:1018C00000409C452DE9F04300EBC00101EB4011C5
:1018D0002048214A00EB81000021D0F81880D0F880
:1018E00020C0D0F83890876A066B056C846C036D55
:1018F000D0ED160A904500DD0121944501DD41F04F
:101900000201974201DD41F00401964201DD41F000
:1019100008010026914500DD0126954201DD46F0D3
:101920000206944201DD46F00406934201DD46F0D2
:101930000806B14204DD9FED090A70EE600A03E07B
:101940009FED070AF1EE600A80ED160AC0ED150A58
:10195000BDE8F08318BB002000401C4500409C45BA
:101960000000000000EBC00101EB40111348144AD5
:1019700000EB8100DFED130A8168D0ED0A1A90EDCB
:101980000C2A9FED111A914208DDB0EE600AB1EE0B
:10199000422A70EE611AF0EE410A05E030EEC22AEA
:1019A000F1EE611AB0EE410A80ED0A0AC0ED091AA3
:1019B000C0ED0C0A80ED0B2A7047000018BB002018
:1019C00000401C4500409C450000000000EBC001A9
:1019D00001EB40111348144A00EB8100DFED130ABC
:1019E0008168D0ED0C1A90ED0E2A9FED111A9142EC
:1019F00008DDB0EE600AB1EE422A70EE611AF0EE38
:101A0000410A05E030EEC22AF1EE611AB0EE410A59
:101A100080ED0C0AC0ED0B1AC0ED0E0A80ED0D2A08
:101A20007047000018BB002000401C4500409C454A
:101A30000000000000EBC00101EB40111548F6EE7C
:101A4000002A00EB81001449D0ED021A90ED011A32
:101A5000D0ED080A90ED060A81EE812A91ED043A54
:101A600032EE201A70EE411A21EEA21A81EE032AFC
:101A700030EE421A21EEE20A72EE200A80ED061ADA
:101A800080ED050AF1EE401AC0ED080AC0ED071A14
:101A90007047000018BB0020A401002000EBC0012B
:101AA00030B501EB40115D48002200EB81002DEDC7
:101AB000028B85695A49046A836A90ED0C1AD0ED4D
:101AC0000E1A90ED102AD0ED122A90ED143AD0EDB6
:101AD000163A90ED184AD0ED1A5A8D4200DD0122D7
:101AE0008C4201DD42F002028B4201DD42F0040231
:101AF0000021082A14D2DFE802F00406080A0C0EBE
:101B0000101201210CE002210AE0042108E0082162
:101B100006E0102104E0202102E0402100E08021C5
:101B2000CA079FED400ADFED400A04D070EE414A3B
:101B3000B0EE401A03E0F1EE414AB0EE601A8A07B7
:101B400004D530EE615AF0EE401A03E0B1EE615A6E
:101B5000F0EE601A4A0704D530EE426AB0EE402A31
:101B600003E0B1EE426AB0EE602A0A0704D570EED7
:101B7000626AF0EE402A03E0F1EE626AF0EE602A5B
:101B8000CA0604D570EE437AB0EE403A03E0F1EEB7
:101B9000437AB0EE603A8A0604D530EE637AF0EE0E
:101BA000403A03E0B1EE637AF0EE603A4A0604D5BB
:101BB00030EE448AB0EE404A03E0B1EE448AB0EE23
:101BC000604A090602D570EE655A03E0F1EE655AE7
:101BD000B0EE600A80ED0C1AC0ED0B4AC0ED0E1A93
:101BE00080ED0D5A80ED102A80ED0F6AC0ED122AAB
:101BF000C0ED116A80ED143AC0ED137AC0ED163ACB
:101C000080ED157A80ED184A80ED178A80ED1A0A6A
:101C1000C0ED195ABDEC028B30BD000018BB00208E
:101C200000401C4500409C450000000000EBC00146
:101C300001EB40111848194A00EB810090ED061A9B
:101C4000D0ED081A31EE610A10EE101A914215DB40
:101C5000B2EE042ADFED120A124970EE600A80EE3D
:101C6000820A91ED042AC0EE020AB1EE400A31EE7A
:101C7000601A70EEA11AF1EE400A03E0DFED0A0AE5
:101C8000B0EE600A80ED061AC0ED081A80ED050A74
:101C9000C0ED070A7047000018BB00200000FA439F
:101CA0000000FA43A40100200000000000EBC00186
:101CB00001EB4011064800EB8100D0ED060A90EDE3
:101CC000030A80ED060A70EE600AC0ED050A70474F
:101CD00018BB002000EBC00101EB40110D4800EBE8
:101CE0008100D0ED021A90ED072AD0ED010A90EDA7
:101CF000060A71EEC21A90ED081A61EEA00AF6EE1D
:101D0000001A00EEA10A00EEE11A80ED060A80ED4D
:101D1000081A704718BB002000EBC00101EB40110E
:101D20000B4800EB81004168D0ED060AB1F17C5F01
:101D300004DD9FED080A70EE600A03E09FED060ADD
:101D4000F1EE600A80ED060AC0ED050A704700005A
:101D500018BB002000409C450000000000EBC001C3
:101D600001EB40110B4800EB81004168D0ED060A01
:101D7000B1F17C5F04DDF1EE600A9FED070A03E03C
:101D80009FED060A70EE600A80ED060AC0ED050AB6
:101D90007047000018BB00200000000000409C4578
:101DA00000EBC00101EB4011134800EB81004168DA
:101DB000D0ED061AD0ED080AB1F17C5F0FDD0F49B6
:101DC00031EEE00A91ED042A80EE021AB1EE400AEB
:101DD00071EEC11A71EE200AB1EE401A03E09FEDD8
:101DE000080AB0EE401AC0ED061A80ED050AC0EDF3
:101DF000080A80ED071A704718BB0020A4010020D4
:101E00000000000000EBC00101EB40114B4800EB6B
:101E100081002DED028B90ED020A90ED181AD0EDA5
:101E20001A1ABDEEC00A90ED1C2AD0ED1E2A10EE43
:101E3000101A90ED203AD0ED223A90ED244A90ED20
:101E4000267A9FED3F0ACA07DFED3E0A04D030EE46
:101E5000416AB0EE401A03E0B1EE416AB0EE601A9A
:101E60008A0704D570EE616AF0EE401A03E0F1EEE5
:101E7000616AF0EE601A4A0704D570EE427AB0EE5D
:101E8000402A03E0F1EE427AB0EE602A0A0704D558
:101E900070EE625AF0EE402A03E0F1EE625AF0EE84
:101EA000602ACA0604D530EE438AB0EE403A03E019
:101EB000B1EE438AB0EE603A8A0604D530EE635A3A
:101EC000F0EE403A03E0B1EE635AF0EE603A4A06B3
:101ED00004D570EE444AB0EE404A03E0F1EE444AC5
:101EE000B0EE604A090602D530EE477A03E0B1EE63
:101EF000477AB0EE600A80ED181A80ED176AC0EDDF
:101F00001A1AC0ED196A80ED1C2AC0ED1B7AC0EDCB
:101F10001E2AC0ED1D5A80ED203A80ED1F8AC0EDCB
:101F2000223A80ED215A80ED244AC0ED234A80ED0B
:101F3000260A80ED257ABDEC028B704718BB002085
:101F400000409C450000000000EBC00101EB401187
:101F50000B480C4A00EB81008169D0ED080A9142E0
:101F600004DC9FED090A70EE600A03E09FED070AAA
:101F7000F1EE600A80ED080AC0ED070A7047000024
:101F800018BB002000401C4500409C45000000009C
:101F900000EBC00101EB40112248DFED233A00EBDA
:101FA000810090ED063AD0ED082A90ED0A1AD0EDA6
:101FB0000C0A33EE623A90ED0B2A90ED0E0AD0ED4A
:101FC0000D1AB5EEC03AF6EE002AF1EE10FA0EDB6D
:101FD00030EEC12A82EE233A23EE222A70EEC20AA4
:101FE00031EE021A23EE622AF1EE422A0DE070EE83
:101FF000411A81EEA33A63EE221A30EE610A31EE05
:10200000211A63EE621AF1EE612A80ED0A1AC0ED20
:10201000092AC0ED0C0A80ED0B2A80ED0E0AC0EDF6
:102020000D1A704718BB002000007A4400EBC00175
:1020300001EB40110B480C4A00EB81008168D0EDA8
:10204000060A914204DD9FED090A70EE600A03E082
:102050009FED070AF1EE600A80ED060AC0ED050A61
:102060007047000018BB002000401C4500409C4504
:102070000000000000EBC00101EB40110C480D4BCB
:1020800000EB81008269016AD0ED0A0A9A4201DC04
:10209000994204DD9FED080A70EE600A03E09FEDAF
:1020A000070AF1EE600A80ED0A0AC0ED090A7047DE
:1020B00018BB002000401C4500409C45000000006B
:1020C00000EBC00101EB40110E4810B500EB8100A0
:1020D0000D498469036A826AD0ED0C0A8C4203DCE4
:1020E0008B4201DC8A4204DD9FED080A70EE600A33
:1020F00003E09FED070AF1EE600A80ED0C0AC0EDE7
:102100000B0A10BD18BB002000401C4500409C4538
:102110000000000000EBC00101EB40110C480D4B2A
:1021200000EB81008269016AD0ED0A0A9A4201DC63
:10213000994204DDF1EE600A9FED070A03E09FED8E
:10214000070A70EE600A80ED0A0AC0ED090A7047BE
:1021500018BB002000401C450000000000409C45CA
:1021600000EBC00101EB40110E4810B500EB8100FF
:102170000D498469036A826AD0ED0C0A8C4203DC43
:102180008B4201DC8A4204DDF1EE600A9FED070A12
:1021900003E09FED070A70EE600A80ED0C0AC0EDC7
:1021A0000B0A10BD18BB002000401C4500000000B9
:1021B00000409C4500EBC00101EB40110B4800EBD7
:1021C00081004168D0ED060AB1F17C5F04DD9FED2E
:1021D000080A70EE600A03E09FED060AF1EE600A5D
:1021E00080ED060AC0ED050A7047000018BB00200C
:1021F00000409C450000000000EBC00101EB4011D5
:10220000134800EB8100134990ED012AD0ED030A39
:10221000D0ED061A90ED081A72EE200A91ED042A0C
:1022200090ED040A70EEE10A30EE410AC0EE822A17
:1022300072EEA11AC0EE022AC0ED061AC0ED050A20
:1022400032EE811A80ED081A80ED070A704700000F
:1022500018BB0020A401002000EBC00101EB4011DD
:102260004B4800EB81002DED028B90ED020A90EDC2
:10227000081AD0ED0A1ABDEEC00A90ED0C2AD0ED76
:102280000E2A10EE101A90ED103AD0ED123A90EDA1
:10229000144A90ED167A9FED3F0ACA07DFED3E0A19
:1022A00004D030EE416AB0EE401A03E0B1EE416A6C
:1022B000B0EE601A8A0704D570EE616AF0EE401A3B
:1022C00003E0F1EE616AF0EE601A4A0704D570EEA1
:1022D000427AB0EE402A03E0F1EE427AB0EE602A94
:1022E0000A0704D570EE625AF0EE402A03E0F1EEE0
:1022F000625AF0EE602ACA0604D530EE438AB0EE88
:10230000403A03E0B1EE438AB0EE603A8A0604D563
:1023100030EE635AF0EE403A03E0B1EE635AF0EE6D
:10232000603A4A0604D570EE444AB0EE404A03E0F3
:10233000F1EE444AB0EE604A090602D530EE477A23
:1023400003E0B1EE477AB0EE600A80ED081A80ED46
:10235000076AC0ED0A1AC0ED096A80ED0C2AC0EDCB
:102360000B7AC0ED0E2AC0ED0D5A80ED103A80EDCB
:102370000F8AC0ED123A80ED115A80ED144AC0ED7B
:10238000134A80ED160A80ED157ABDEC028B70477A
:1023900018BB002000409C450000000000EBC0017D
:1023A00001EB40114B4800EB81002DED028B90EDCD
:1023B000030A90ED1A1AD0ED1C1ABDEEC00A90ED7A
:1023C0001E2AD0ED202A10EE101A90ED223AD0ED00
:1023D000243A90ED264A90ED287A9FED3F0ACA07ED
:1023E000DFED3E0A04D030EE416AB0EE401A03E061
:1023F000B1EE416AB0EE601A8A0704D570EE616AE8
:10240000F0EE401A03E0F1EE616AF0EE601A4A075E
:1024100004D570EE427AB0EE402A03E0F1EE427A43
:10242000B0EE602A0A0704D570EE625AF0EE402A38
:1024300003E0F1EE625AF0EE602ACA0604D530EEEF
:10244000438AB0EE403A03E0B1EE438AB0EE603A20
:102450008A0604D530EE635AF0EE403A03E0B1EE5E
:10246000635AF0EE603A4A0604D570EE444AB0EE84
:10247000404A03E0F1EE444AB0EE604A090602D554
:1024800030EE477A03E0B1EE477AB0EE600A80EDB5
:102490001A1A80ED196AC0ED1C1AC0ED1B6A80ED96
:1024A0001E2AC0ED1D7AC0ED202AC0ED1F5A80ED16
:1024B000223A80ED218AC0ED243A80ED235A80ED46
:1024C000264AC0ED254A80ED280A80ED277ABDEC2A
:1024D000028B704718BB002000409C4500000000A4
:1024E0002DE9F04300EBC00101EB40116048DFF83B
:1024F000848100EB81002DED028B0021D0F818C003
:10250000D0F82890076A066B856B046C836C026DAB
:10251000D0ED161A90ED181A90ED1A2AD0ED1C2A5B
:1025200090ED1E3AD0ED203A90ED224AD0ED246A8B
:10253000C44500DD0121474501DD41F00201C145EF
:1025400001DD41F00401464501DD41F0080145454A
:1025500001DD41F01001444501DD41F0200143451A
:1025600001DD41F04001424501DD41F08001424A78
:10257000515CCA079FED410ADFED410A04D030EEFD
:10258000616AF0EE401A03E0B1EE616AF0EE601AA3
:102590008A0704D570EE414AB0EE401A03E0F1EE2E
:1025A000414AB0EE601A4A0704D530EE425AB0EE06
:1025B000402A03E0B1EE425AB0EE602A0A0704D581
:1025C00070EE625AF0EE402A03E0F1EE625AF0EE4D
:1025D000602ACA0604D530EE437AB0EE403A03E0F2
:1025E000B1EE437AB0EE603A8A0604D570EE637AB3
:1025F000F0EE403A03E0F1EE637AF0EE603A4A061C
:1026000004D530EE448AB0EE404A03E0B1EE448A8D
:10261000B0EE604A090602D570EE666A03E0F1EE9C
:10262000666AB0EE600AC0ED161A80ED156A80ED9C
:10263000181AC0ED174A80ED1A2A80ED195AC0ED1C
:102640001C2AC0ED1B5A80ED1E3A80ED1D7AC0EDAC
:10265000203AC0ED1F7A80ED224A80ED218A80ED7C
:10266000240AC0ED236ABDEC028BBDE8F0830000B4
:1026700018BB002000401C4520DF002000409C4586
:102680000000000000EBC00101EB40111448DFED39
:10269000152A00EB8100B7EE002AD0ED010A90ED7B
:1026A000060A90ED081A00EEA22A0F4970EE411AB0
:1026B000C1EE820AD1ED041A80EEA12A70EE421A10
:1026C00032EE011AB1EE600AC0ED061A80ED081A6A
:1026D000F1EE400A80ED050AC0ED070A70470000E0
:1026E00018BB002000007A44A401002000EBC001C8
:1026F00001EB40111348144A00EB8100DFED130A8F
:102700008168D0ED0A1A90ED0C2A9FED111A9142C2
:1027100008DDB0EE600AB1EE422A70EE611AF0EE0A
:10272000410A05E030EEC22AF1EE611AB0EE410A2C
:1027300080ED0A0AC0ED091AC0ED0C0A80ED0B2AE3
:102740007047000018BB002000401C4500409C451D
:102750000000000000EBC00101EB40110F48104BDE
:1027600000EB81009FED0F1A826A816990ED080AE3
:102770009A420BDD994204DD9FED0B1A71EE400A7F
:1027800001E0F1EE400AB0EE410A01E0F0EE410A4C
:1027900080ED080AC0ED070A7047000018BB002052
:1027A00000401C450000000000409C4500EBC001BB
:1027B00001EB40112C482D4A00EB81009FED2C4A83
:1027C00090ED063A90ED082AD0ED0A2A33EE420A3F
:1027D00010EE101A914233DB2749DFED260AD1EDC6
:1027E000044A30EE600AC0EE201A9FED240AC1EEC2
:1027F000A43A61EE800A32EEC20AB1EE611AF4EE3A
:10280000C00A33EE633AF1EE10FA01DDF0EE400A51
:10281000F5EEC00AF1EE10FA01D2F0EE440AB6EE7F
:10282000005A20EE854A84EE240A72EEC02A30EE69
:10283000230A30EE022A20EEC50A74EE210A05E0D2
:10284000B0EE440AB0EE401AF0EE400A80ED063ACF
:1028500080ED082AC0ED0A2A80ED051AC0ED070AAE
:1028600080ED090A7047000018BB00200000FA4301
:10287000000000000000FA43A401002000007042A4
:1028800000EBC00101EB4011084800EB810090ED26
:10289000011A90ED030AD0ED060A31EE000A80ED30
:1028A000060A70EE600AC0ED050A704718BB0020EA
:1028B00000EBC00101EB40111148124B00EB81000D
:1028C0008269016AD0ED0A0A9A4201DC012200E025
:1028D0000022994201DD012100E0002192EA010F6E
:1028E00004D09FED090A70EE600A03E09FED070A2D
:1028F000F1EE600A80ED0A0AC0ED090A7047000097
:1029000018BB002000401C4500409C450000000012
:1029100000EBC00101EB40111148124B00EB8100AC
:102920008269016AD0ED0A0A9A4201DD012200E0C3
:102930000022994201DD012100E0002192EA010F0D
:1029400004D09FED090A70EE600A03E09FED070ACC
:10295000F1EE600A80ED0A0AC0ED090A7047000036
:1029600018BB002000401C4500409C4500000000B2
:102970002DE9F843424C0100424D608A4FF00006B9
:102980000BD0012921D0022927D003294DD0BDE841
:10299000F843C9B25220FEF73CB92E5C411C89B203
:1029A000821C6665695C92B2C31CA165AA5C9BB27D
:1029B000E265001DEB5C80B22366285C60660090D7
:1029C000304602F055F9BDE8F883FEF7C9FCA06770
:1029D0006072BDE8F84302F0A9B8A046FEF7E4FC37
:1029E0006065C14684B200274FEA050806F1B000D1
:1029F000C0B202F049F999F8090002F045F9102037
:102A000002F042F9761CF6B25FF0000518F80400F7
:102A100002F05CF9641C6D1CEDB2A4B2802DF5D3FC
:102A20007F1CFFB2082FE1D3CDE7FEF779FCA0674A
:102A3000608A801C80B2FEF773FC94F90910084488
:102A4000E067608A001D80B2285C606594F87800B9
:102A5000B030C0B202F018F994F87C0000F00F001A
:102A600002F012F994F87C00C0F3031040F010005B
:102A700002F00AF994F85400BDE8F84302F026B9D0
:102A800068000020B801002070B5384C0146384D70
:102A9000608A072964D2DFE801F004172635444B29
:102AA00057002E5C411C89B2821C6665695C92B23B
:102AB000A165C01CAA5C80B2E2652B5C304623662F
:102AC000BDE8704002F042BBFEF73AFCA067608AA6
:102AD000001D80B2FEF734FC0146E067A06FBDE840
:102AE000704002F093B9FEF72BFCA067608A001DCE
:102AF00080B2FEF725FC0146E067A06FBDE870409C
:102B000002F0FABAFEF71CFCA067608A001D80B2D2
:102B1000FEF716FC0146E067A06FBDE8704002F0CA
:102B2000CDBAFEF727FC6065BDE8704002F05ABAE6
:102B3000FEF720FC6065618A891C89B2695CA16529
:102B4000BDE8704002F0FCBAFEF714FC6065618AD3
:102B5000891C89B2695CA165BDE8704002F0EABADF
:102B6000BDE87040C9B25220FEF753B8680000209B
:102B7000B80100202DE9F0472F4F01002F4C788A33
:102B80004FF470754FF0800909D0012916D0022941
:102B90001CD0BDE8F047C9B25220FEF73AB8235C1A
:102BA000411C89B27B65801C615C80B2B965225C86
:102BB000FA65BDE8F047184602F004BBFEF7D0FB0B
:102BC000B867F872BDE8F04702F0CABAFEF7ECFB4E
:102BD0000026B8467865484602F0FCFA802002F0EC
:102BE000F9FA0027D8F854002844205C02F038FB9A
:102BF000403D7F1CFFB2ADB2102FF3D305F58465C5
:102C0000ADB20027D8F854002844205C02F028FB1D
:102C1000403D7F1CFFB2ADB2102FF3D3761C05F2FE
:102C2000E13509F10100F6B2ADB200F0FF09202E46
:102C3000D1D3BDE8F087000068000020B801002073
:102C400070B528B1BDE87040C1B25220FDF7E1BFB8
:102C50000A4C0B4D608A295C401C80B26165FEF70E
:102C60006FFBA067608A401D80B2295CA16594F863
:102C70005400BDE8704002F0AFBF000068000020C3
:102C8000B80100207047000070B53C4D044600219B
:102C90006878FEF7C9FA01F089FD0121A878FEF7EE
:102CA000C3FA01F083FD0021A878FEF7BDFA01F018
:102CB0007DFD002604F080016878FEF7B5FA600615
:102CC000040E0121A878FEF7AFFA01F06FFD002194
:102CD000A878FEF7A9FA01F069FD761CF6B2042E79
:102CE000E8D300216878FEF79FFA01F05FFD002627
:102CF0000121A878FEF798FA01F058FD0021A87884
:102D0000FEF792FA01F052FD761CF6B2042EEFD3D4
:102D10005FF0000604F080016878FEF785FA60062F
:102D2000040E0121A878FEF77FFA01F03FFD002193
:102D3000A878FEF779FA01F039FD761CF6B2042E78
:102D4000E8D300216878FEF76FFA01F02FFD002428
:102D50000121A878FEF768FA01F028FD0021A87883
:102D6000FEF762FA01F022FD641CE4B2042CEFD3FA
:102D70006878BDE870400121FEF756BA24010020B2
:102D800010B5114C114B618A4A1C38B101280ED084
:102D9000C1B2BDE810405220FDF73BBF585C91B274
:102DA0006065595CA165BDE8104003F059B9585CF5
:102DB000606590B2FEF7C4FA0146A06794F854002B
:102DC000BDE8104003F056B968000020B8010020AB
:102DD000104910B50A69042A1BD0052A18D0062A02
:102DE00017D10A8902EB0020088100200861887051
:102DF000FDF712FCAA2002F0FBFA012002F0F8FA1B
:102E0000002002F0F5FABDE81040F02002F0F0BA20
:102E1000088110BD480000200CB500202749019012
:102E200000900A6842F480320A604FF4A0430A68B6
:102E300002F400320092019A521C0192009A12B9D7
:102E4000019A9A42F3D10A68920334D50120009086
:102E50001A484030026842F0805202601848026806
:102E600042F440420260154808300268026002687D
:102E700042F400420260026842F4A0520260031F62
:102E8000104A1A600A6842F080720A600A68920169
:102E9000FCD50D4A40F205711160016821F0030173
:102EA0000160016841F0020101600168C1F3810124
:102EB0000229FAD10CBD00900CBD00000038024080
:102EC0000070004008544007003C024070B50446C2
:102ED0000CE000BF00F048FC00F026FC054600F0C6
:102EE00021FCB5FBF0F00A28F6D3641E002CF1DCBF
:102EF00070BD704770B504464FF47A750CE000BFA2
:102F000000F032FC00F010FC064600F00BFCB6FBB3
:102F1000F0F0A842F6D3641E002CF1DC70BD000076
:102F200010B5104C0100608A09D001290ED0022989
:102F300013D0BDE81040C9B25220FDF76ABE0A495D
:102F4000085C6065BDE8104003F0E0B8FEF7F8F9F2
:102F5000A067BDE8104003F0FBB8BDE8104003F0E7
:102F6000FFB8000068000020B801002010B52F4C09
:102F7000010086B0608A08D0012913D006B0C9B21A
:102F8000BDE810405220FDF744BE29490A5C401CB0
:102F900080B26265095CA16506B01046BDE81040CC
:102FA00002F088BEFEF7DCF96065608A001D80B221
:102FB000FEF7FAF9A065608A083080B2FEF7F4F9EE
:102FC000E065608A0C3080B2FEF7EEF92066608A18
:102FD000103080B2FEF7E8F96066608A143080B283
:102FE000FEF7E2F9A066608A183080B2FEF7DCF9DD
:102FF000E066608A1C3080B2FEF7D6F92067608AEE
:10300000203080B2FEF7D0F904F1680160670EC984
:10301000CDE90330CDE90112606E5434009094E89C
:103020000F0002F011FE06B010BD00006800002085
:10303000B8010020134A10B51169002304291CD0DF
:103040009178114C4140917091696054491C916193
:103050005069814215D120461361FDF7A3FAAA20D9
:1030600002F0C6F9012002F0C3F9002002F0C0F915
:10307000BDE81040F12002F0BBB99088401EC2E9C3
:10308000050310BD48000020C8B8002001460020FC
:1030900002E0401CC0B2491C0A78002AF9D17047EE
:1030A0007047000010B5334C0146334A608A0F293F
:1030B00058D2DFE801F0572D57080F1E57575757C2
:1030C000252E57345300FEF76FF9A067BDE8104076
:1030D000FDF780BDFEF768F96065608A001D80B26B
:1030E000FEF762F90146A065606DBDE81040FEF78D
:1030F000CDBAFEF759F96065BDE81040FEF7A6BAF3
:10310000115C0020616501E0401CC0B28842FBD325
:1031100010BD105C6065BDE81040FFF7D7BEFEF73C
:1031200043F96065608A001D80B2FEF73DF9A06535
:10313000608A083080B2FEF71DF9E065608A0A30C7
:1031400080B2FEF731F903462066B4F85C0082B223
:10315000D4E91501BDE8104001F00ABCBDE81040FB
:1031600001F096BBC9B25220FDF753FD0349002080
:10317000087010BD68000020B80100204800002041
:10318000124810B5016841F47001016010480168EF
:1031900041F0010101600E4A00210832116002680D
:1031A0000C4B1A400260031D0B4A1A60026822F49D
:1031B0008022026006480C300160FFF72DFE0349B3
:1031C0004FF000608039086010BD000088ED00E01D
:1031D00000380240FFFFF6FE1030002410B5012138
:1031E0008C07204600F018F8002807D0012120465F
:1031F00000F005F8BDE8104002F014BF10BDC9434F
:10320000018270470029018802D041F0010101E0EC
:1032100021F001010180704702460020138A928943
:103220000B4202EA010202D0002A00D001207047BE
:10323000002A828901D00A4300E08A4382817047D4
:1032400030B50288164B174C98420DD0A0420BD0D7
:10325000B0F1804F08D0144DA84205D0134DA842BC
:1032600002D0134DA84203D122F070054A882A43A8
:10327000104DA84206D0104DA84203D022F440754C
:103280000A892A4302804A68C2620A8802859842F3
:1032900001D0A04201D1897A01860121818230BD0D
:1032A000000001400004014000040040000800400C
:1032B000000C0040001000400014004000EBC00172
:1032C00001EB401109480A4B00EB8100426881691B
:1032D000D0ED080A90ED020A9A4203DC994201DD22
:1032E000B0EE600A416080ED020A704718BB002012
:1032F00000401C4500EBC00101EB4011174830B500
:1033000000EB810316485D681C6A9A69996A93ED1F
:10331000020A85421EDC84421CDD8242DFED110A76
:1033200003DC814201DDB0EE600A9FED0F1A82429C
:1033300003DD814201DCB0EE410A82420ADD8142B6
:1033400008DD10EE101A814202DDB0EE600A01E0E5
:10335000B0EE410A5C6083ED020A30BD18BB00206C
:1033600000401C450000000000409C4500EBC001EF
:1033700001EB40110D4800EB810090ED020AD0ED09
:10338000011AD0ED080A90ED061A80EE212A72EE9D
:10339000200A71EE600AB6EE001A60EE810A9FED17
:1033A000041A00EE810A80ED020A704718BB002063
:1033B0000000484200EBC00101EB4011034800EB64
:1033C000810090ED050A80ED030A704718BB0020CC
:1033D00000EBC00101EB4011054800EB8100D0ED8E
:1033E000010A90ED070A80EE201A80ED021A70475C
:1033F00018BB00202DE9F04700EBC00101EB4011A4
:103400002248234A00EB81014868D1F828C0D1F84E
:1034100030A0D1F83890D1F820800F6C8E6C0D6DF3
:103420008C6D8B6991ED020A904229DC934227DD75
:103430000020904500DD0120944501DD40F00200B0
:10344000924501DD40F00400914501DD40F00800A7
:10345000974201DD40F01000964201DD40F020006F
:10346000954201DD40F04000944201DD40F08000D3
:1034700000EE100AF6EE000AB8EEC00A30EE200A9E
:103480004B6081ED020ABDE8F087000018BB002008
:1034900000401C4500EBC00101EB40111A481B4BDA
:1034A00000EB81001A4A90ED010AD0ED020A10EEFD
:1034B000101A90ED032ADFED171A994202DDB0EEE3
:1034C000610A05E010EE101A914201DA9FED120A2E
:1034D00081EE801AB7EE000A32EE000AB4EEC10A9D
:1034E000F1EE10FA0BDB10EE901A30EE410A0B4AA7
:1034F000914202DCDFED0A0A01E0DFED0A0AC0EDCD
:10350000020A80ED030A704718BB00200000484201
:103510006F12833A000048426F12833A00401C4504
:1035200000409C450000000000EBC00101EB401191
:10353000054800EB810090ED050AD0ED070A80ED0B
:10354000030AC0ED040A704718BB002000EBC0015D
:1035500001EB40111148124B00EB810148688A6968
:1035600091ED020A984214DC9A4212DDBDEEC00AC7
:10357000F6EE000A10EE100A401CC31700EB1363AE
:1035800023F0FF03C01A00EE100AB8EEC00A30EEB6
:10359000200A4A6081ED020A7047000018BB002033
:1035A00000401C452DE9F84F00EBC00101EB401134
:1035B0003048F6EE000A00EB8100D0F848E0D0F881
:1035C00028C0D0F840B0D0F838A0D0F83090076DBF
:1035D0008469036A816D0091D0E901252649066E50
:1035E00090ED030A8A4214DC8C4212DDBDEEC00A63
:1035F00010EE102A521C4FEAE27802EB186828F00D
:10360000FF08A2EB080200EE102AB8EEC00A30EE66
:10361000200A8D4228DC8B4226DD00228C4500DD0D
:103620000122894501DD42F002028A4501DD42F0B6
:1036300004028B4501DD42F008028E4501DD42F0B7
:1036400010028F4201DD42F02002009D8D4201DD1B
:1036500042F040028E4201DD42F0800200EE102A6C
:10366000B8EEC00A30EE200AC0E9014380ED030A3B
:10367000BDE8F88F18BB002000401C4500EBC001DE
:1036800001EB40110B480C4A00EB81039969186A61
:1036900093ED020A914203DC904201DD9FED070A9F
:1036A000914203DD904201DC9FED050A83ED020AA1
:1036B0007047000018BB002000401C4500409C459E
:1036C0000000000000EBC00101EB4011034800EBDB
:1036D000810090ED050A80ED030A704718BB0020B9
:1036E0000849074888624FF0E02007494161074ACE
:1036F000F02182F8141D00218161072101617047CA
:103700004090020010000020FEFFFF000FE000E0EC
:103710000349C8614FF0E0208069086270470000EB
:1037200010000020A82070474FF0E0208069034976
:10373000496A081A20F07F407047000010000020FE
:103740004FF0E02081690748026A511A826A21F02D
:103750007F41B1FBF2F1C069814201D30120704782
:1037600000207047100000204FF0E02080690149E0
:103770004862704710000020054800218180C18008
:103780004181818101824182C182018370470000B1
:103790001000002010B50D4CB4F90A00002814DD0B
:1037A000A089FDF7BDFD228900B2094B02442178B2
:1037B0009954401C01B2B4F90A00814200DB002197
:1037C000A089BDE81040FDF705BE10BD1000002027
:1037D000B8010020024B188159819A81704700007E
:1037E0001000002070B50C4D40F22551284600F025
:1037F0002BF801280FD1284600F0B4F8074C4021DF
:103800002070284600F00CF82078FDF727F9BDE875
:103810007040FFF7BFBF70BD0010014010000020D6
:10382000C943018070470029818902D041F40051C9
:1038300001E021F400518181704702460020128886
:103840000A4200D00120704730B501F01F02012468
:103850000025C1F3421304FA02F2012B0FD0022B10
:103860000FD0838A4FEA11210088134204FA01F431
:1038700000EA040001D000B10125284630BD83894B
:10388000F0E7038AEEE710B5C1F3421301F01F041D
:103890000121A140012B07D0022B07D01430002AB0
:1038A000026805D00A4304E00C30F8E71030F6E770
:1038B0008A43026010BD00007FB50446008A0D46B1
:1038C00020F44051E88808432082A08941F20C612D
:1038D0008843A9882A8911436A8902431143A18137
:1038E000A08A20F44071A8890843A0826846FDF7A9
:1038F00065FE1A48844202D01948844201D10398D7
:1039000000E00298A189090400EBC00101EB00105E
:10391000296801D5490000E08900B0FBF1F264207C
:10392000B2FBF0F109010B096FF018056B4302EBD4
:103930008302A3891D044FF0320306D503EBC202B4
:10394000B2FBF0F000F0070005E003EB0212B2FB5F
:10395000F0F000F00F00084320817FBD001001400F
:10396000001401408088C0F308007047C1F30801CB
:103970008180704770B5284C618A48B101282AD0EF
:1039800002283AD0BDE87040C1B25220FDF741B9DB
:103990000846FDF7E5FCA067608A401C80B2FDF791
:1039A00003FDA065608A401D80B2FDF7B9FC1A4D89
:1039B00080352860608AC01D80B2FDF7C1FC0346D7
:1039C00068602888A16D02B294F87800BDE8704064
:1039D00040B201F0FCBC0846FDF7C2FCA067608A5B
:1039E000401C80B2FDF7ACFC0146E06794F878001B
:1039F000BDE8704040B201F0CFBC0846FDF7B0FC16
:103A0000A067618A054A491C89B240B2515CA16530
:103A1000BDE8704001F0F0BC68000020B801002053
:103A2000FEE700000749064ACB79D054C879401C0C
:103A3000C871C879142801D10020C87170470000EE
:103A4000C8B9002068000020014900208871704733
:103A5000680000201048017AC27991421BD00F4BB8
:103A6000018BC26A5A54491E89B2120A5A54491E1D
:103A700089B2120A5A54491E018300210171084A71
:103A8000037AD25C9200C262027A521C0272027AFB
:103A9000142A00D10172704768000020B80100208C
:103AA000C8B9002030B5134C00251348E562658283
:103AB000A582E582A581E58125826562A5620088EF
:103AC000401E2083257065706583A583256365632B
:103AD000A570E570E5832584A563E56325646564C9
:103AE000A564E56425712565FDF7E6FBA571E57123
:103AF000257230BD680000208C6200082DE9F04777
:103B00000A4C04202065E06AFDF752F9C1B2050AAB
:103B10000826074FFF224FF000094FF0010A04F179
:103B200080084FF6FF70EC2904D204E06800002002
:103B3000B8010020F7E38B007B445B689F440000E2
:103B4000EA0A0000B0030000C2030000C603000040
:103B5000D803000004040000FC030000CA030000B6
:103B6000D2030000DE0A0000E404000002050000A9
:103B7000EA0A0000240400003C0400006A0400007B
:103B80003C0500004C05000056050000160700002B
:103B90001C0700002C0700003A0700003E07000049
:103BA000DE0A00006807000088070000E807000040
:103BB000480800009A080000BA080000D208000077
:103BC000EE08000008090000140900008409000044
:103BD0008C09000094090000DE0A00009E09000024
:103BE000A4090000B0090000B8090000D0090000D5
:103BF000E0090000DE0A0000F0090000C40900002E
:103C0000720900007C090000D00A0000FA090000D7
:103C1000FA090000FA090000040A0000040A000082
:103C20000C0A0000140A00002C0A0000440A0000DC
:103C30005C0A0000780A0000680A0000BC05000069
:103C4000C4050000DE0A0000EA0A0000A40A000021
:103C5000A40A0000A40A00008C0A0000DE0A00008A
:103C60009A0A0000A40A0000B00A0000DE0A000060
:103C7000C20A0000DE0A0000DE0A0000DE0A0000C0
:103C8000DE0A00005C05000070050000DE0A00008E
:103C90008405000098050000A0050000DE0A000071
:103CA000B40500008E0600008E0600008E0600009F
:103CB00092060000DE0A00009A060000A20600003C
:103CC000AA060000DE0A0000B2060000BA060000E4
:103CD000BA060000BA060000BE060000DE0A0000B8
:103CE000C6060000CE060000D6060000DE0A000070
:103CF000DE060000600600006006000060060000AE
:103D000068060000DE0A000072060000600600007F
:103D100076060000DE0A00008406000006060000A9
:103D200006060000060600000C060000DE0A000081
:103D3000120600001806000020060000DE0A00003F
:103D400028060000300600003006000030060000A3
:103D500038060000DE0A00004006000048060000A9
:103D600050060000DE0A000058060000EC050000C6
:103D7000EC050000EC050000D0050000DE0A0000A4
:103D8000DE050000EC050000F6050000DE0A00007C
:103D9000FE0500001805000026050000340500009F
:103DA000300500003A070000DE0A00003A07000074
:103DB0004807000054070000DE0A0000600700000A
:103DC0006007000060070000DE0A000060070000D6
:103DD00074070000DE0A0000800700008007000072
:103DE00080070000DE0A000080070000980700003E
:103DF000DE0A0000AC070000B8070000B8070000AA
:103E0000DE0A0000B8070000FC070000DE0A000020
:103E1000140800002008000020080000DE0A00004E
:103E20002008000060080000DE0A00007C08000096
:103E30008C0800008C080000DE0A00008C080000DE
:103E4000F4060000F4060000FC0600000407000071
:103E5000040700000C070000BC050000C4050000BA
:103E6000DE0A0000EA0A0000EA0A0000EA0A00008E
:103E7000EA0A00007A0400008604000090040000B2
:103E80009C04000086040000B0080000C808000080
:103E9000E4080000FC080000080900001409000004
:103EA000F4060000FC060000DE0A0000EA0A00003A
:103EB0004E0400005C040000E6060000C00700009D
:103EC0002A08000066040000A8040000B4040000F2
:103ED000C0040000CA040000D6040000C0040000B2
:103EE000DE0A0000EC060000240900005C09000066
:103EF000E08A6082E06A001DFCF75AFFFCF7F8FDDB
:103F000059E0658291E3E562C5E2608A2844E08277
:103F100059E3608A401B2FE0E08A6082218BE06ACF
:103F2000001D7854491E89B2020A7A54491E88B28B
:103F3000110A3954401E2083E5E700BF01F0DDF986
:103F400084F804A0208B401C80B2395C401C80B2F5
:103F50003A5C401C80B22083385C02EB012100EB0C
:103F60000120A4E2208B401C80B2395C401C80B24E
:103F70002083385C00EB0120608256E3208B618A4D
:103F80003954401E80B2090A3954401E69E0207934
:103F9000607184F8049001F0AEF946E384F804A05F
:103FA00001F0ABF941E3206C54E0E06A001DFCF73E
:103FB000FFFEC0B268E0266537E3E06A001DFCF74B
:103FC000F7FE80B260E0E06A001DFCF7F1FE5BE006
:103FD000E06A001DFCF7ECFE40B255E0E06A001D0F
:103FE000FCF7E6FE00B24FE0E06A001DFCF7E0FEE1
:103FF000C0B215E0E06A001DFCF7DAFE80B20FE007
:10400000E06A001DFCF7D4FE0AE0E06A001DFCF740
:10401000CFFE40B204E0E06A001DFCF7C9FE00B22A
:104020006064C8E7608AA081A08AE081E08A20827B
:10403000206C6062606CA062F9480088A0F57A701C
:104040009AE7A0896082E089A082208AE082606A83
:104050002064A06A6064E8E2608A284480B2FDF7C8
:1040600089F92083E1E2608A218B284480B23DE017
:104070002564DAE2A8B2FDF78BF918E2E06A001DC8
:10408000FCF796FE618A0844206494E7D4E91001A5
:1040900001FB0500C1E2206C2844BEE2606C10F414
:1040A0007F0F03D080B2FCF77DFEB6E2385CB4E24D
:1040B000606C10F47F0F03D080B2FDF70DF9ACE215
:1040C00080B287E0606C10F47F0F03D080B2FDF700
:1040D00012F9A2E280B281E094F84000616C14E031
:1040E000B4F8400081B2B4F8440016E0FDF786F958
:1040F0009BE200BFB4F8440013E000BFFDF71AFBD9
:1041000093E200BFFDF70AFB8FE278548DE200BF17
:10411000B4F8400081B2608A284480B2E6E7608A41
:10412000284480B2216CFDF771F97EE2618A94F82F
:1041300040002944E9E7608A284480B23CE0608A74
:10414000284480B23FE0608A2844AFE7608A284470
:10415000B6E7608A2844BDE7608A284480B241E01F
:10416000608A284480B241E0608A284480B241E0FD
:10417000608A2844385C6DE7608A284480B23FE05A
:10418000608A284480B23FE0608A284480B23FE0E1
:10419000608A284480B23FE0608A284480B23FE0D1
:1041A00094F84000785540E2B4F8400081B2A8B2DB
:1041B0009CE7A8B2B6E7A8B2B4F8401009B2FDF780
:1041C00009F932E2A8B2216CFDF70CF92DE2785D15
:1041D00023E2A8B2FDF7CEF81FE2A8B2FDF7E4F89B
:1041E0001BE2A8B2FDF7BCF817E2A8B2FDF798F8F9
:1041F00013E2A8B2FDF7A4F80FE2785D2AE7A8B2AF
:10420000FDF7B8F826E7A8B2FDF7CEF822E7A8B286
:10421000FDF7A6F81EE7A8B2FDF782F81AE7A8B2E4
:10422000FDF78EF816E7206C8002F6E1206C801214
:10423000F3E100BF94F8400086E100BFB4F840000D
:1042400086E100BF94F84000206457E7B4F84000CE
:1042500080B2206456E7206C20B10BE0206C48B19E
:10426000606C38B1C4F840A0DFE100BFD4E91001B0
:104270000843F6E7C4F84090D7E1206C02E0206CD8
:10428000002890DA4042C8E194F8400094F84410C5
:10429000084459E1B4F84000B4F84410084457E128
:1042A000D4E910010844B8E194F8400094F84410AF
:1042B000401A49E1B4F84000B4F84410401A47E10C
:1042C000D4E91001401AA8E194F8400094F8441091
:1042D00010FB01F0E1642EE0B4F84410B4F84000A3
:1042E00089B280B24843E16431E000BFD4E91001F3
:1042F0004843E16437E100BFD4E9100148438CE151
:10430000226C606CD317A2FB0056C117C8E90601E6
:1043100003FB006002FB0100A90A41EA8051801200
:10432000C8E90410D9E07AE194F8400094F8441008
:10433000E164B0FBF1F0A06406E100BFB4F8400016
:10434000B4F8441080B289B2B0FBF1F0E164A0642B
:10435000FEE000BFD4E91010E064B1FBF0F002E130
:10436000D4E9100190FBF1F057E1206C626CC117A9
:104370008902D31741EA90518002C8E90623FBF76E
:104380001FFFC8E9040148E194F8400094F8441084
:10439000B0FBF1F201FB1200C4E9120140B23CE1B2
:1043A000B4F8400081B2B4F8440080B2B1FBF0F23E
:1043B000E06400FB1210A06400B22EE1D4E91010FA
:1043C000B1FBF0F2E06400FB1210CCE0D4E9100184
:1043D00090FBF1F201FB12001FE1206CA064616C04
:1043E000E164884201D90120BDE00020BBE000BFAC
:1043F000D4E91001884231DC32E0216CA164606CA8
:10440000E0648142F1D3EEE7D4E91001884225DA75
:1044100026E0206CA064616CE1648842E5D2E2E7AA
:104420008C620008D4E91001884217DB18E0206C88
:10443000A064616CE1648842D7D8D4E7D4E9100164
:1044400088420BDD0CE000BFD4E91001884205D0A2
:1044500006E000BFD4E91001884201D00120DCE071
:104460000020DAE0E06A001DFCF7A2FC07462665A2
:10447000B4F84000002680B2206409E0206C30448B
:10448000FCF790FC616C884201D16664CDE0761C3B
:10449000AE42F3D3E762C4F85090C6E0B4F84000EF
:1044A000616C80B200EB81002064FCF781FCE0626B
:1044B000F1E7206C01283FF43FADB6E0206C002806
:1044C000F9D0B2E0206C80F001004CE0206C80F06C
:1044D000FF0048E0216C41405EE02164A5E0206CD3
:1044E000C04340E0D4E910010840E1643BE000BF74
:1044F000D4E91001E16435E0D4E910014840E164F9
:1045000031E000BFD4E91001C840E1642BE000BFF6
:1045100094F84000616CE1648840C0B223E000BFC1
:10452000B4F84000616CE164884080B21BE000BFD9
:10453000D4E910018840E16415E0206C284100F0C6
:1045400001006AE0206C2841C0B266E0206C28417E
:1045500080B262E00AFA05F0C1B281F0FF020AE01F
:10456000104000E00843A06457E000BF0AFA05F1DC
:1045700089B281EA0002206CA064636C002BF1D147
:10458000EEE700BF216CA1640AFA05F0636CC24338
:104590000BB9114000E00143A1649EE7616CE16446
:1045A000A940AA40424004E0616CE164A940A840EF
:1045B000C243206C1040D5E7606CE064A840216CD9
:1045C000AA409143E7E7A0822FE000BFB4F8400083
:1045D00081B2A08AFCF712FF10E0A08A216CFCF7E0
:1045E00015FF12E0A08A94F840103954401CEAE705
:1045F000B4F8400001B2A08AFCF7ECFEA08A801C4F
:10460000E1E7A08A216CFCF7EDFEA08A001DDAE745
:10461000206C00283FF490AC401E206405E0064A60
:10462000512082F80090FCF7F4FA216DE06A08440A
:10463000E062BDE8F08700004800002070B51A4E27
:104640000025356100F050FEFEF720FD0446AA204B
:1046500000F0CEFEA41DE0B200F0CAFE002000F083
:10466000C7FEFF2000F0C4FE022000F0C1FE1E20A5
:1046700000F0BEFE0D480068C11700EB9150C0F37A
:10468000872000F0B5FEFCF786FBC0B200F0B0FE5C
:1046900000F02EFE00F0ACFE00F026FE00F08DFED5
:1046A00000F0BDF9357070BD480000208C62000834
:1046B00010B528B1C1B2BDE810405220FCF7A9BA2C
:1046C0000C4C0D49608A095C401C80B26165FCF7A6
:1046D00051FEA065608AC01C80B2FCF765FE0246F0
:1046E000E065B4F8580081B294F85400BDE8104079
:1046F00001F0DCBB68000020B801002030B420B11C
:10470000C1B230BC5220FCF784BA0A4C0A4D638A0D
:10471000591CE85C89B29A1C6065695C92B2A1651B
:10472000DB1CAA5C9BB2E265EB5C236630BC01F04B
:10473000DDBB000068000020B801002002E008C8CE
:10474000121F08C1002AFAD170477047002001E00B
:1047500001C1121F002AFBD17047000010B50121D2
:104760008AB00802FCF71EFF00244FF48030CDE928
:104770000640089406A80994FBF7EAFD8DF804406A
:1047800000948DF80540029404940120064C8DF8A5
:10479000140069462046FBF7FBFD01212046FBF78C
:1047A000CDFD0AB010BD00000020014000204FF4F4
:1047B000FA71401C00B28842FBDB704710B52F4CE9
:1047C0002078002858D0FFF799F9FFF797F9FFF7FD
:1047D00095F9FFF793F9FFF791F9FFF78FF9FFF7D5
:1047E0008DF9FFF78BF9FFF789F9FFF787F9FFF7E5
:1047F00085F9FFF783F9FFF781F9FFF77FF9FFF7F5
:104800007DF9FFF77BF9FFF779F9FFF777F9FFF704
:1048100075F9FFF773F9FFF771F9FFF76FF9FFF714
:104820006DF9FFF76BF9FFF769F9FFF767F9FFF724
:1048300065F9FFF763F9FFF761F9FEF781FF0028DB
:104840001AD00020FCF7C0FD00B90A20FEF760FF77
:104850000B48007800280FD0E068401CE060642816
:1048600001D30020E060FFF7EFF81120FFF7DAF83E
:10487000BDE81040FFF7EEB810BD00004800002072
:104880006C00002001F0AEFCFFF798FFFCE7000091
:104890002DE9F047314C29272DED028BE0680528E2
:1048A00000DA05270026DFF8B8A01FE006EBC600F7
:1048B00000EB461900259FED2B8A0AEB890812E0D0
:1048C000A18801EB890000EB850080B2FCF738FD80
:1048D00000EE100A08EB85006D1CB8EEC00A20EE51
:1048E000080A80ED000ABD42EADB761C6088864239
:1048F000DCDBFCF729FF0025A04620E005EBC50224
:1049000002EB45179FED188A00240AEB870600BFCB
:1049100006EB840090ED000AB8F8040020EE080AC7
:1049200000EB870000EB840080B2BDEEC00A10EE01
:10493000101AFCF757FD641C292CE9DB6D1CB8F834
:10494000021040468D42D9DBC168002902DD491EB4
:10495000C8F80C10BDEC028BBDE8F087A401002064
:1049600018BB00200000803A00008044704700001F
:104970002DE9F0410E4C00250E4FE560628060602D
:1049800088B29EB24FF48068A060A0682844FCF70B
:1049900009FA78556D1C4545F7DB074D00243019A1
:1049A000FCF700FA2855641CFF2CF8DDBDE8F08107
:1049B000A401002020DB002020DF00201FB51020F4
:1049C000ADF8020040F2E73001900020ADF80000A1
:1049D000ADF8080001210846FCF7D8FD4FF08044EF
:1049E00069462046FEF72CFC012211462046FEF7C0
:1049F0001FFC01212046FEF702FC1C208DF80C0054
:104A000001208DF80F0003A8FCF758FD0021204677
:104A1000FEF7F8FB1FBD01218807FEF7F3BB00215D
:104A20004FF08040FEF7EEBB10B50B4C0121207813
:104A3000FCF740FB01216078FCF73CFB012120786A
:104A4000FCF7F2FB01216078FCF7EEFB00F01EF8AA
:104A5000BDE8104000F008B808010020014A1070BD
:104A6000517070470801002010B5074C0021607894
:104A7000FCF7DAFB01212078FCF7D6FB6078BDE873
:104A800010400121FCF7D0BB0801002010B5094CF3
:104A900001216078FCF7C8FB01212078FCF7C4FBFA
:104AA00000216078FCF7C0FB2078BDE810400021B1
:104AB000FCF7BABB0801002010B50C4C002160784F
:104AC000FCF7F8FA01212078FCF7AEFB6078FCF7E0
:104AD00005FB0128FAD000212078FCF7A5FB6078BF
:104AE000BDE810400121FCF7E5BA000008010020F4
:104AF00070B50D4E0546002405F080017078FCF776
:104B000093FB6806050E01213078FCF78DFB002130
:104B10003078FCF789FB641CE4B2082CECD3BDE8C8
:104B20007040FFF7C9BF00000801002010B54F4CCE
:104B300001216078FCF7BEFA0121A078FCF7BAFAEF
:104B40000121E078FCF7B6FA01212079FCF7B2FAEE
:104B500001216078FCF768FB0021A078FCF764FB7A
:104B600000212079FCF760FB0A20FEF7C3F92078CA
:104B7000002853D1AE2000F087F8002000F084F820
:104B8000102000F081F8402000F07EF8812000F035
:104B90007BF8CF2000F078F8A12000F075F8C8204D
:104BA00000F072F8A62000F06FF8A82000F06CF872
:104BB0003F2000F069F8D32000F066F8002000F0F4
:104BC00063F8D52000F060F8802000F05DF8D9206F
:104BD00000F05AF8F12000F057F8DA2000F054F80D
:104BE000122000F051F8DB2000F04EF8402000F0D9
:104BF0004BF8202000F048F8022000F045F88D2006
:104C000000F042F8142000F03FF8A42000F03CF837
:104C1000A62000F039F8AF2000F036F820780128FF
:104C200022D1AF2000F030F8402000F02DF8A02075
:104C300000F02AF8A62000F027F8A42000F024F8BD
:104C4000A22000F021F8C82000F01EF82F2000F06C
:104C50001BF8252000F018F8812000F015F8BDE8B9
:104C60001040252000F010B810BD00000A010020FF
:104C700030B5044C039D20706170A270E370257103
:104C800030BD00000A01002070B50F4C064600211F
:104C90002079FCF7C9FA0025300601D4002100E094
:104CA0000121A078FCF7C0FA00216078FCF7BCFA7B
:104CB0007006060E01216078FCF7B6FA6D1CEDB2A5
:104CC000082DE9D370BD00000A01002070B50F4C1B
:104CD000064601212079FCF7A7FA0025300601D409
:104CE000002100E00121A078FCF79EFA0021607805
:104CF000FCF79AFA7006060E01216078FCF794FA28
:104D00006D1CEDB2082DE9D370BD00000A01002032
:104D100010B5FFF789FEAE2000F055F8002000F036
:104D200052F8102000F04FF8402000F04CF881209D
:104D300000F049F8CF2000F046F8A12000F043F839
:104D4000C82000F040F8A62000F03DF8A82000F0B0
:104D50003AF83F2000F037F8D32000F034F8002074
:104D600000F031F8D52000F02EF8802000F02BF86C
:104D7000D92000F028F8F12000F025F8DA2000F022
:104D800022F8122000F01FF8DB2000F01CF8402071
:104D900000F019F8202000F016F8022000F013F8B7
:104DA0008D2000F010F8142000F00DF8A42000F081
:104DB0000AF8A62000F007F8BDE81040AF2000F088
:104DC00002B8FFF74BBE10B50446FFF75FFE782030
:104DD000FFF78EFE0020FFF78BFE2046FFF788FED0
:104DE000BDE81040FFF740BE10B50446FFF74EFE89
:104DF0007820FFF77DFE4020FFF77AFE2046FFF780
:104E000077FEBDE81040FFF72FBE0000624B10B5E3
:104E1000604A1A60624B614A1A60624AC2E9030141
:104E2000362000F023F9002000F012F93A2000F0BB
:104E30001DF9052000F00CF9B22000F017F90C2044
:104E400000F006F90C2000F003F9002000F000F952
:104E5000332000F0FDF8332000F0FAF8B72000F01E
:104E600005F9352000F0F4F8BB2000F0FFF8192018
:104E700000F0EEF8C02000F0F9F82C2000F0E8F87F
:104E8000C22000F0F3F8012000F0E2F8C32000F0A7
:104E9000EDF8122000F0DCF8C42000F0E7F8202044
:104EA00000F0D6F8C62000F0E1F80F2000F0D0F8AE
:104EB000D02000F0DBF8A42000F0CAF8A12000F018
:104EC000C7F8E02000F0D2F8D02000F0C1F80420AC
:104ED00000F0BEF80D2000F0BBF8112000F0B8F88B
:104EE000132000F0B5F82B2000F0B2F83F2000F0BE
:104EF000AFF8542000F0ACF84C2000F0A9F81820CE
:104F000000F0A6F80D2000F0A3F80B2000F0A0F8A8
:104F10001F2000F09DF8232000F09AF8E12000F017
:104F2000A5F8D02000F094F8042000F091F80C20AF
:104F300000F08EF8112000F08BF8132000F088F8B4
:104F40002C2000F085F83F2000F082F8442000F08B
:104F50007FF8512000F07CF82F2000F079F81F2016
:104F600000F076F81F2000F073F8202000F070F8B1
:104F7000232000F06DF8212000F078F8112000F0D7
:104F800075F80A20FDF7B6FFBDE81040292000F0B3
:104F90006DB80000F950000888010020BD500008DD
:104FA0008C010020100100202DE9F04104461D462F
:104FB00016460F462A2000F059F8204600F036F831
:104FC000304600F033F82B2000F050F8384600F05F
:104FD0002DF8284600F02AF8BDE8F0412C2000F01A
:104FE00045B800002DE9F0410F4C07460021208A0A
:104FF000401E83B2A089401E82B20846FFF7D4FF4C
:1050000000260BE0002504E0384600F00FF86D1C88
:10501000ADB220698542F7DB761CB6B2E068864205
:10502000F0DBBDE8F08100001001002010B504465F
:10503000064801214079FCF7F7F8200A00F024F82F
:10504000E0B2BDE8104000F01FB8000010010020E1
:1050500010B50446044801214079FCF7E5F82046E4
:10506000BDE8104000F010B81001002010B5044653
:10507000044800214079FCF7D7F82046BDE81040ED
:1050800000F002B81001002070B50B4E0546002458
:105090000021F078FCF7C8F805F08001B078FCF743
:1050A000C3F80121F078FCF7BFF86806641C050E10
:1050B000E4B2082CECD370BD1001002010B50D4CEB
:1050C0006278002A14D1002812DBE26890420FDADD
:1050D00000290DDB226991420ADA8BB282B289B2D1
:1050E00080B2FFF761FF2089BDE81040FFF79EBF47
:1050F00010BD00001001002010B50D4C2278002AD0
:1051000014D1002812DBE26890420FDA00290DDB8F
:10511000226991420ADA8BB282B289B280B2FFF779
:1051200043FFE088BDE81040FFF780BF10BD0000DE
:1051300010010020014A51701081704710010020B9
:10514000014A1170D08070471001002010B5034C47
:10515000A070E1702271637110BD00001001002089
:1051600010B5FCF7DDF90A20FDF7C4FE302000F091
:1051700031F80A20FDF7BEFE302000F02BF80A209F
:10518000FDF7B8FE0C2000F025F80A20FDF7B2FE6E
:10519000012000F01FF80A20FDF7ACFE062000F009
:1051A00019F86420FDF7A6FE342000F013F80A2059
:1051B000FDF7A0FE362000F00DF8BDE810400A20F3
:1051C000FDF798BE024B187059709A707047000036
:1051D0002401002070B5214C064601216078FCF7BF
:1051E00023F8FFF7E3FA00250121A078FCF71CF86B
:1051F000FFF7DCFA0021A078FCF716F8FFF7D6FAE3
:105200006D1CEDB2052DEFD300216078FCF70CF892
:10521000FFF7CCFA0121A078FCF706F8FFF7C6FAF1
:105220000021A078FCF700F8FFF7C0FA00216078B1
:10523000FBF7FAFFFFF7BAFA0121A078FBF7F4FFBA
:10524000FFF7B4FA0021A078FBF7EEFFFFF7AEFA04
:105250003046BDE87040FDF717BD00002401002076
:1052600070B5204C064601216078FBF7DDFF002574
:105270000121A078FBF7D8FFFFF798FA0021A0786A
:10528000FBF7D2FFFFF792FA6D1CEDB2052DEFD3BD
:1052900000216078FBF7C8FFFFF788FA0121A078AA
:1052A000FBF7C2FFFFF782FA0021A078FBF7BCFFF3
:1052B000FFF77CFA01216078FBF7B6FFFFF776FA7B
:1052C0000121A078FBF7B0FFFFF770FA0021A0786A
:1052D000FBF7AAFFFFF76AFA3046BDE87040FDF71A
:1052E000D3BC000024010020004870476C62000815
:1052F00041207047704772B6704762B67047000031
:10530000FEB5044601210846FCF734F901211020BE
:10531000FCF748F91E4E072209213046FBF7AAFD8B
:1053200007220A213046FBF7A5FD4FF4C06000902C
:1053300002208DF804008DF8050000208DF806008D
:1053400001258DF8075069463046FBF742FD21469E
:10535000104C204600F078FF01212046FEF763FA4A
:1053600040212046FEF75CFA012240F225512046FA
:10537000FEF789FA25208DF8080003208DF8090032
:105380008DF80A008DF80B5002A8FCF797F8FEBDC7
:105390000000024000100140012802D1014800F045
:1053A00053BF70470010014010B50246FEF7E4F904
:1053B000BDE810401046FFF7A3BF10B5044602E059
:1053C000641C00F015F820780028F9D110BD70B5E4
:1053D00014460D4601280AD11A4621462846FEF7F2
:1053E000F9F9BDE870404FF4E130FFF789BF70BDB7
:1053F00001460120AFF3008010B5012809D1054C0A
:105400002046FEF7B3FA40212046FEF716FA0028A0
:10541000F9D010BD001001400648C16A491CC162A4
:10542000C16A491CC162C16A491CC162C16A491C86
:10543000C16270471000002070B50C46064600257A
:1054400001213046FBF7F0FE20020AD4FFF7E4FF0B
:1054500000213046FBF7E8FEFFF7DEFFFFF7DCFF39
:1054600009E0FFF7D9FFFFF7D7FFFFF7D5FF0021CE
:105470003046FBF7D9FEFFF7CFFF6D1C64006DB21D
:10548000182DDDDB70BD000030B5074A0021074C48
:10549000536CB2F9282003E05D18491C605509B22D
:1054A0009142F9DB30BD000028010020B801002046
:1054B0000149C8657047000028010020014988653E
:1054C000704700002801002001494865704700002E
:1054D00028010020034B83F8210003F81F1F5A7096
:1054E000704700002801002030B5064C039D208540
:1054F0000548206605486066C4E91115C4E9132310
:1055000030BD0000280100207D550008115500081D
:10551000064AD36D002B07DB00D101E04FF00103F9
:1055200082F8223000F05CB87047000028010020AB
:1055300010B500281CDB0F4AD36C984218DA0029FA
:1055400016DB136D994213DA4BB2DC1703EB54747C
:1055500024F007041B1B946CC1F3CC0101FB040075
:10556000516C80B208440449085CD840C00700D0A0
:10557000012010BD28010020B8010020064A936DCB
:10558000002B07DB00D101E04FF0010382F822304D
:1055900000F026B8704700002801002070B5C1F364
:1055A000CC020D4B49B20D4D9C6CCE1702FB040092
:1055B0005A6C80B2141801EB567626F007062A5D65
:1055C00093F822300120891B884013B11043C2B2E6
:1055D00000E082432A5570BD28010020B801002058
:1055E0002DE9F0430E4605003BD41F4CE16C8D4283
:1055F00037DA002E35DB206D864232DAE27F0AB1DF
:105600004D1B6D1E94F8201009B1861B761E94F870
:10561000210010B1284635460646606D012803D1A9
:1056200031462846FFF7BAFF606D012819DB00EB11
:10563000D070A6EB6008A5EB600900260EE04D4691
:10564000002705E041462846FFF7A8FF6D1C7F1C98
:10565000606D8742F6D308F10108761C606D8642C2
:10566000EDD3BDE8F08300002801002010B50C4AFE
:1056700003460A4C92F91E00235404F10A031954FC
:105680000A33002143F820102833012119540A332A
:1056900019540A331954411C917710BDFCB90020EC
:1056A00028010020014951F82000704710BA00205D
:1056B0002DE9F047DFF88480002408F13C0606F16C
:1056C0000A09A6F1320AA6F10A051D4F30E01B486F
:1056D0000A38005DFBF702FD295D51EA000203D0A4
:1056E00021B3012809D021E018F80400FBF7F6FCEB
:1056F000305501202855BDE8F08718F80400FBF765
:10570000EDFC09F80400315D012901D029B10BE05D
:1057100050B95AF82410491C04E0012804D15AF861
:105720002410491E4AF8241000202855641CE4B2B5
:1057300097F91E008442CADBDDE7000006BA0020AC
:105740002801002070B50546FFF7D5FD0021284649
:10575000FBF76AFD1220FDF7CDFB01212846FBF780
:1057600063FD0320FDF7B2FB00212846FBF7A2FCF6
:105770002846FBF7B3FC0128FAD02846FBF7AEFC1D
:105780000028FAD02846FBF7A9FC0128FAD02846C1
:1057900000F01AF80402284600F016F8204404022B
:1057A000284600F011F820440402284600F00CF8C6
:1057B0000444284600F008F8FFF79FFD0121284621
:1057C000FBF778FC204670BD70B5002406462546E0
:1057D0006006040E3046FBF781FC0028FAD0052055
:1057E000FDF774FB3046FBF779FC012806D144F045
:1057F00001043046FBF772FC0128FAD06D1CEDB2B3
:10580000082DE5D3204670BD70B506460024FFF78D
:1058100072FD002500213046FBF706FDFFF7FCFD79
:10582000FFF7FAFD01213046FBF7FEFC0021304670
:10583000FBF740FC64080120FDF748FB3046FBF70E
:105840004DFC012801D144F080040520FDF73EFB0A
:1058500001213046FBF72EFC0120FDF737FB6D1CC4
:105860006DB2082DD6DBFFF748FD204670BD10B5A0
:105870000446FFF740FD00212046FBF7D5FC182029
:10588000FDF724FB1820FDF721FB1820FDF71EFB78
:1058900001212046FBF7C8FC0420FDF717FB00217F
:1058A0002046FBF707FC1920FDF710FB01212046DD
:1058B000FBF700FCBDE81040FFF71FBD70B50D46BB
:1058C0000646FFF718FD002400213046FBF7ACFC2C
:1058D000FFF7A2FDFFF7A0FD05F001013046FBF741
:1058E000A3FC6D080920FDF7F1FA01213046FBF712
:1058F0009BFCFFF791FDFFF78FFDFFF78DFDFFF795
:105900008BFDFFF789FDFFF787FDFFF785FD641C21
:1059100064B2082CD8DBBDE87040FFF7EEBC000095
:105920002DE9FF4F85B0144611F47F0000D001200F
:105930005FEA00094FF000008EB2039003D0301DE3
:10594000FBF730FA02E0424830440079C008029088
:1059500020B20090B9F1000F03D0B01CFBF722FA7F
:1059600002E03B4830448078019000206AE00898CB
:10597000DA4605B200205AE0B9F1000F06D006EB76
:105980000A000930FBF70EFA044604E0304806EB43
:105990000A010844447A059820B1012814D002284D
:1059A00022D034E00027E0072A4A0098294601D097
:1059B000126E00E0526E90476D1C7F1C6408FFB2AF
:1059C0002DB2082FEFD322E00027E00704D0214AB0
:1059D00029460098526E90476D1C7F1C6408FFB2E8
:1059E0002DB2082FF1D312E00027E00708D0294696
:1059F0000098FBF731F818B1012009B0BDE8F08F2D
:105A00006D1C7F1C6408FFB22DB2082FEDD3B9F1D5
:105A1000000F03D0B01CFBF7C5F902E00C4830447E
:105A2000807850441FFA80FA08F1010080B2029990
:105A300080468842A0D30098401C00B200900BF131
:105A40000100C0B201998346884290D30398D4E7FD
:105A5000B8010020280100202DE9FF4F1FFA81F82E
:105A600083B008F10200FBF79DF9044608F103003A
:105A7000FBF798F904EB002080B2029008F10400D3
:105A8000FBF790F90190410702D108B1C00802E08C
:105A9000012101EBD0000090002035E0059800279F
:105AA00058441FFA80F9109C24E000BF08EB09005D
:105AB0000930FBF777F9054610990198002601EBAC
:105AC000000AE807144A0698214601D0126E00E049
:105AD000526E9047641C6D0824B2A24503DD761C0B
:105AE000F6B2082EEDD302997F1C09EB01001FFAD4
:105AF00080F9FFB200988742D8D30698401C00B2C4
:105B000006900BF10100C0B2039983468842C5DBC1
:105B100007B0BDE8F08F00002801002002490122F3
:105B20008A75C875704700002801002005480021CB
:105B300001228175017641768276FF2202774177D4
:105B400070470000280100200148007F70470000D6
:105B50002801002070B51F4CA07D002838D0207E81
:105B6000002588B1607E401CC0B26076C8280BD981
:105B7000E5766576607F401CC0B26077052803D368
:105B800025766577FF2022E0E07DFBF7A7FAA17E6E
:105B9000A07601291CD100281AD16577617E65762F
:105BA00001202076E07E401CC0B2E07601280FD0B4
:105BB00002280DD0226C52082264102902D342F030
:105BC00000412164222803D1E576206C000C207767
:105BD00070BD000028010020084AD0744FF6FF7005
:105BE00000EA410040F4C060D08400205075D063CA
:105BF000012010750520FDF77DB900002801002067
:105C000010B5104C207D00281BD0E06B42F6B1018E
:105C100000F57A70E063884213D3401AE06394F889
:105C2000260000F00101E07CFBF7FEFAE08C400862
:105C3000E084607D401CC0B260750B2801D100205B
:105C4000207510BD280100202DE9F04708AC184D43
:105C500094E8C016DFF8548015F9244F48F8240062
:105C600008F1140040F82410143040F824201430B7
:105C700040F82430143000F1140140F8246028303A
:105C800041F8247040F8249014303C3140F824A0AE
:105C900041F824C01431002021F81400641C05F8D8
:105CA000014901202870BDE8F087000058BA0020A3
:105CB00028010020044BA3F1680292F92420985493
:105CC000581D8154704700009001002003480021B6
:105CD00080F8241080F8231070470000280100206D
:105CE00070B5084D95F8230000280AD0002404E080
:105CF000204600F009F8641C64B295F9240084423F
:105D0000F6DB70BD280100202DE9FC5F04466448E5
:105D100050F824106348415C5FEA010A7ED0604974
:105D200005465F481431143851F8241030F8240027
:105D30006F5C80B2FBF704FB00905948283830F8BC
:105D4000240080B2FBF7FCFA01905548283050F847
:105D500024002E5C52483C3050F8240015F8008096
:105D60004F48503050F8240015F800904C486430EB
:105D700030F8240080B2FBF7D3FA05B248487830F7
:105D800030F8240080B2FBF7CBFADFF814B100B290
:105D90000BF18C0BBEB1B8F1000F06D0854202DAD0
:105DA0006D1C2DB201E04FF0000837B9B9F1000FBA
:105DB00003D0012D01DD6D1E2DB23BF814102944D6
:105DC0002BF8141004E03BF8142010442BF81400B6
:105DD00033482946643030F8240080B2FBF7FAFAE1
:105DE0002F48304E3C3042F2107250F8240006F832
:105DF00000803BF9140090424ADB801A2BF8140013
:105E000027BB019800283EDD471E25483946283823
:105E100030F8240080B2FBF7E5FA00E038E0B9F191
:105E2000000F13D115FB05F044F6206190FBF1F053
:105E300087420BDA1A4A00213C32012052F8242012
:105E4000B1541749503151F8241070541648BAF122
:105E5000010F005D1ED00121FBF7E6F90099491EF4
:105E60000F48143830F8240080B2FBF7BBFA0E4D0F
:105E700001216D1D285DFBF7D7F9285DBDE8FC5FAA
:105E80000021FBF7D1B90649002051F824107054C5
:105E9000BDE8FC9F0021FBF7C7F90099491CDFE72B
:105EA00080BA0020B8010020900100202DE9F041C7
:105EB00017460E468046FFF71EFA00240A4D09E0F9
:105EC000381941198B784A78295C404600F023F84C
:105ED000E41C24B2B442F3DBFFF70FFABDE8F04153
:105EE0000A20FCF7F3BF0000B80100202DE9F041C3
:105EF0001C4615460E460746FFF7FDF923462A467F
:105F00003146384600F007F8FFF7F7F9BDE8F041F1
:105F10000A20FCF7DBBF01EB022103EB0121FFF7B5
:105F20008BBA000010B5084B00241C705C7100F0A7
:105F3000A7F81C75FFF7FAFD9C77FEF717FDBDE883
:105F40001040FFF7C3BE00002801002070B5094CC7
:105F5000049E1425E0710120607125723C25657254
:105F60000025A572E07225736073A173E273237438
:105F7000667470BD2801002070B5224C607900283D
:105F80003FD0A079401CC0B2A071E179884238D3DB
:105F90000020A07194F90400642190FBF1F201FB50
:105FA0001201217159B10025164894F90820807B0F
:105FB000914206DB0021FBF737F9002106E00125BD
:105FC000F2E735B1A17AFBF72FF9E17AE07BFBF735
:105FD0002BF994F9040094F90910884205DB00219B
:105FE000207CFBF721F9002105E03DB1217B207CDD
:105FF000FBF71AF9617B607CFBF716F92079401CEE
:10600000207170BD2801002070B5054CDDE90456F3
:1060100020726172A272E3722573667370BD000014
:106020002801002010B500F03DF800F077F8FFF7E8
:10603000E7FD0A480178491CC9B201700A290BD34F
:1060400000210170FFF798FFFFF784FDFFF730FB99
:10605000BDE81040FFF744BE10BD0000280100203D
:10606000034B01229A7403F172021154704700002D
:1060700028010020014A42F820107047DCB90020B6
:106080000749FF20087048708870C870087148710F
:106090008871C87100207239886388747047000065
:1060A0009A01002070B5174CA07C002828D0626BA4
:1060B0002046521C6263816B04F17205FA2A685C07
:1060C00008D0FF281CD0104B53F82110914217D153
:1060D000002111E0FF2802D00021FBF7A5F80021E4
:1060E0006163A06B401CA063082800D1A163A06B72
:1060F000285CFF2804D00121BDE87040FBF794B86C
:1061000070BD000028010020DCB9002002490022F7
:106110008A70C870704700002801002010B50B4C31
:10612000A07800280FD0E06A0A30E062216B884234
:1061300009DB401AE0626178E078FBF775F8607877
:1061400010B10020607010BD0120FBE72801002085
:106150000249086301208870704700002801002070
:106160000149002088707047280100202DE9F04186
:1061700000250F4606462C46FFF7BDF801213046A4
:10618000FBF752F80120FCF7A1FE00213046FBF797
:106190004BF84CF2503602E0641CB44204DA384644
:1061A000FAF79CFF0028F7D0FDF7DEFA44F62064EA
:1061B00009E000BFFDF7B8FA0546FDF7B3FAB5FBF5
:1061C000F0F5A54204D83846FAF788FF0128F1D047
:1061D000FFF793F805EB05104000C821B0FBF1F084
:1061E000BDE8F08110B5FFF788F8FBF7B9F9FFF7C4
:1061F00081F8FCF77EFEFAF7D0FDFDF771FAFEF7A5
:10620000DDFBFBF73DF8BDE810404FF47A70FCF77A
:1062100071BE000010B528B1C1B2BDE810405220D7
:10622000FAF7F7BC064C074A618A505C491C89B2F0
:106230006065515CA165FFF799FF206410BD000007
:1062400068000020B80100201FB500910021ADF8C2
:106250000410ADF80610ADF80810ADF80C100C21C4
:10626000ADF80A106946FDF727FB1FBD4350553AAC
:1062700053544D333246343035524754362C4652FF
:1062800045513A3136382C43433A3100B0B300001F
:10629000B062000800000020B8010000E60200081B
:1062A000C0620008B801002068E200004C47000806
:1062B000412D010203040405FF0607080901A90096
:040000050800018965
:00000001FF
