:020000040800F2
:10000000784D00204501000855110008610C0008DA
:10001000450F00089D050008E923000800000000C6
:100020000000000000000000000000002918000887
:100030004D09000800000000B11200087D1C0008F6
:100040005F0100085F0100085F0100085F01000810
:100050005F0100085F0100085F0100085F01000800
:100060005F0100085F0100085F0100085F010008F0
:100070005F0100085F0100085F0100085F010008E0
:100080005F0100085F0100085F0100085F010008D0
:100090005F0100085F0100085F0100085F010008C0
:1000A0005F0100085F0100085F0100085F010008B0
:1000B000511E00085F0100085F0100085F01000891
:1000C0005F0100085F0100085F0100085F01000890
:1000D0005F0100083521000871210008A9210008EE
:1000E0005F0100085F0100085F0100085F01000870
:1000F0005F0100085F0100085F0100085F01000860
:100100005F0100085F0100085F0100085F0100084F
:100110005F0100085F0100085F0100085F0100083F
:100120005F0100085F0100085F0100085F0100082F
:10013000DFF80CD000F07AF80048004739310008A9
:10014000784D00200648804706480047FEE7FEE756
:10015000FEE7FEE7FEE7FEE7FEE7FEE7FEE7FEE777
:10016000691D0008310100082DE9F0410024061B3B
:10017000254671F1000605DA01240027D0EB0700BF
:1001800067EB0101161E73F1000605DA0027D2EBBA
:100190000702012567EB030300F017F886460E46B9
:1001A00017469C46AC4204D00025D0EB050E65EB0B
:1001B000010624B10020D2EB000760EB030C70466F
:1001C00031463A466346BDE8F0812DE9F05F0546C9
:1001D000002092469B4688460646814640241BE006
:1001E000284641464746224600F041F853465A46C3
:1001F000C01A914110D311461846224600F028F843
:100200002D1A67EB01084F4622460120002100F01D
:100210001FF817EB00094E41201EA4F10104DFDC9A
:10022000484631462A464346BDE8F09F064C074DF6
:1002300006E0E06840F0010394E8070098471034B6
:10024000AC42F6D3FFF778FFA44E0008C44E000876
:10025000202A04DB203A00FA02F100207047914086
:10026000C2F1200320FA03F3194390407047202A7B
:1002700004DB203A21FA02F00021704721FA02F350
:10028000D040C2F12002914008431946704730B572
:100290008C1810F8012B12F00F0301D110F8013B5C
:1002A000120906D110F8012B03E010F8015B01F8E8
:1002B000015B5B1EF9D101E001F8013B521EFBD14D
:1002C000A142E6D3002030BD0029816802D041F070
:1002D000010101E021F00101816070470D4910B575
:1002E000884202D1012144150AE00B49884202D11B
:1002F0000121041504E0094988420AD10121CC03F7
:10030000204600F0FBFF2046BDE81040002100F031
:10031000F5BF10BD0024014000280140003C014011
:10032000014600208968490700D501207047C06C4C
:1003300080B270470246002012680A4200D00120B5
:100340007047014600208968090700D501207047E1
:1003500010B542680E4B0C791A400B6842EA042231
:100360001343436083680B4A1340D1E9024222439E
:100370004C7943EA44031A438260C26A097C22F43E
:100380007002491EC9B242EA0151C16210BD0000AB
:10039000FFFEF0FFFDF7F1FF70B5072409290AD928
:1003A000C568A1F10A0606EB4606B440A543B34072
:1003B0001D43C56007E0056901EB4106B440A54354
:1003C000B3401D4305611F23072A09D2446B521E07
:1003D00002EB820293409C4391400C43446370BD06
:1003E0000D2A09D2046BD21F02EB820293409C4378
:1003F00091400C43046370BDC46A0D3A02EB820263
:1004000093409C4391400C43C46270BD10B50446B8
:1004100000F00EF82046FFF794FF0028FAD120469E
:1004200000F015F82046FFF77BFF0028FAD110BD39
:10043000816841F00801816070470029816802D01D
:1004400041F4A00101E021F4A001816070478168BE
:1004500041F0040181607047F8B54E4D014605F545
:100460008074B5F84200A4F1800609297ED2DFE845
:1004700001F0052B43484D526272840000F090FD5C
:10048000A06135F8420F801C80B200F0CDFDB0674E
:100490002888801D80B200F093FD206228880A30F1
:1004A00080B200F08DFD606228880E3080B200F0CE
:1004B00077FDA06200B20090D4E90823208BB16FD1
:1004C00000B203F0C9FBF8BD00F06AFD46F8740FF6
:1004D00035F8420F401C80B200F0A6FD70602888FD
:1004E000801C80B200F06CFDB060C2B2317930780F
:1004F000BDE8F84003F0A6BB00F062FDA0617062A9
:10050000F8BD00F05DFDA061B062F8BD00F058FDDF
:10051000A061F062F8BD00F053FDA061B5F84200A3
:10052000001D80B200F04CFD0146E061A069BDE80D
:10053000F84003F0DDBB00F043FDA061B5F84200D8
:10054000001D80B200F03CFD0146E061A069BDE8FD
:10055000F84003F097BB00F033FDA061B5F842000E
:10056000001D80B200F02CFD014600E00CE0E061CF
:10057000A06903F097FBA866F8BD0749085C70679F
:10058000BDE8F84003F04ABBBDE8F840C9B25220CC
:1005900000F0DDB9000000203E030020FEE700006F
:1005A0002DE9F0410F46044600250E4E15E000BF30
:1005B00014F8010B14F8011B14F8022B090214F8AB
:1005C000013C01EB024101EB03610144706B04F05B
:1005D00007FB706B001D2D1D7063BD42E8D3BDE8A5
:1005E000F08100000001002002490020486304F06F
:1005F000E3BA00000001002070B50C480024046339
:10060000AA2003F007FB022003F004FB002003F004
:1006100001FBF32003F0FEFA054D95F8410040354B
:1006200003F0F8FA00F068FC2C7070BD00010020A7
:100630000000002010B5124C0100B4F8420007D0B1
:10064000012912D0BDE81040C9B2522000F07FB994
:100650000C490B4B0A5C8033401C80B25A67095C22
:100660001046996703F0C0FB07E000F0B9FC0649AB
:100670008861064940B251F82000A06610BD000014
:10068000000000203E03002000010020380200206E
:1006900010B528B1C1B2BDE81040522000F057B9E2
:1006A000054C0649B4F84200085C04F18001486733
:1006B00003F000FCA06610BD000000203E030020F7
:1006C00010B5154C03001549B4F8420004F180023E
:1006D00009D0012B0DD0022B16D0BDE81040D9B2A5
:1006E000522000F034B9085C5067BDE8104003F0B8
:1006F0008ABC0B5C401C80B25367095C9167BDE803
:100700001040184603F0A2BC00F06AFC5067C0B26B
:1007100003F049FCA06610BD000000203E0300204D
:1007200003F0C0BA70B5274C0025226B521C22631F
:10073000012A0BD0A4F58071022A0BD00B46032AA4
:10074000B3F8623009D0042A0AD00BE0AA2800D0FE
:10075000256370BDA1F8620070BD03EB0020F9E7CE
:1007600081F83F0091F83D202AB191F83F20FF2AFF
:10077000EED1012BECD191F83F10F22915D004DC19
:10078000F0290AD0F12904D10BE0F32911D0FF2977
:1007900013D0502000F0DBF8DAE7BDE8704001F03C
:1007A000F1B8BDE8704001F02FBABDE8704000F02C
:1007B00035BEBDE87040FFF71FBFBDE8704002F0D6
:1007C0009DBB00000001002010B51A287ED2DFE892
:1007D00000F0870D12171C21262B30353A3F444973
:1007E0004E53585D62676C71767B8782BDE810401E
:1007F000084600F057BEBDE81040084600F032BA87
:10080000BDE81040084600F05FBFBDE81040084654
:1008100000F0D8BEBDE81040084601F059B9BDE867
:100820001040084600F038BCBDE81040084601F012
:1008300079B8BDE81040084600F0D0BFBDE81040D0
:10084000084602F0D1BBBDE81040084602F0A4BB48
:10085000BDE810400846FFF733BFBDE8104008462A
:10086000FFF716BFBDE81040084600F02DBBBDE8FD
:100870001040084604F04EB9BDE810400846FFF7A6
:10088000D9BEBDE810400846FFF7E6BDBDE8104000
:10089000084600F077B9BDE81040084600F0A4B95A
:1008A000BDE81040084601F045BDBDE810400846CF
:1008B00001F038B9BDE81040084600F0A7BCBDE81B
:1008C0001040084600F0CABC084600E008E0BDE859
:1008D000104002F0ADBBBDE81040084600F060BF1C
:1008E000C1B2522000F033F80249002081F83D00E7
:1008F00010BD0000000000200146000AC9B203D06C
:10090000C82804D2FFF760BF084601F0B9B97047A4
:1009100010B50446AA2003F07DF9052003F07AF90A
:10092000002003F077F9FD2003F074F9E0B203F042
:1009300071F9C4F3072003F06DF9C4F3074003F025
:1009400069F9200EBDE8104003F064B9704770B536
:1009500005460C46AA2003F05DF9032003F05AF97E
:10096000002003F057F9FE2003F054F9E8B203F039
:1009700051F9E0B2BDE8704003F04CB970B50546DE
:100980004FF43026304600F059F8042811D1094CB4
:10099000206940F0020020616561206940F040005C
:1009A0002061304600F04AF8216941F6FD7211409D
:1009B000216170BD0020024008490420CA68D207A6
:1009C00001D001207047CA68520701D50220704744
:1009D000C968C906FBD5032070470000002002400B
:1009E0000248016941F08001016170470020024026
:1009F000F0B506464FF400570D46384600F01EF895
:100A000004280CD1064C206940F00100206135809B
:100A1000384600F013F82169BA1E11402161F0BD7B
:100A20000020024003480249416003494160704789
:100A30002301674500200240AB89EFCD00B5034696
:100A4000FFF7BAFF03E000BFFFF7B6FF5B1E012808
:100A500003D0002B00D1052000BD002BF4D1FAE714
:100A60000149C96E085C704700000020F0B5CA78E3
:100A7000002502F00F03D20601D58A7813430A78C5
:100A80004FF00F0E12F0FF0F4FF001021CD0046860
:100A90000F8802FA05F63740B74211D14FEA850CAC
:100AA0000EFA0CF724EA070703FA0CF43C43CF785C
:100AB000282F02D0482F02D002E0466100E00661F4
:100AC0006D1C082DE4D304600C88FF2C1ED94468EB
:100AD0005FF0000606F1080702FA07F50F882F40BD
:100AE000AF420FD14FEA860C0EFA0CF7BC4303FA63
:100AF0000CF73C43CF78282F00D14561CF78482FA1
:100B000000D10561761C082EE4D34460F0BD0000DE
:100B1000F0B5144C002801DAE36900E06368420D87
:100B2000120185B2C0F301579540C0F30346032F6D
:100B300005D0C2020AD50322B240934307E023F056
:100B40007062636823F07063636002E0AB4343F05C
:100B5000706201B12A43002801DAE261F0BD6260EF
:100B6000F0BD0000000001400246002092680A42E9
:100B700000D00120704702460020D2680A4200D00F
:100B80000120704770B5012805D0BDE87040C1B2A2
:100B90005220FFF7DCBE124C1249114D34F8420FBF
:100BA0008035095C401C80B2696700F03DFAA86797
:100BB0002088401D80B200F003FA05F18006B06184
:100BC0002088093080B200F0FBF9F061034695F807
:100BD0007400B269A96F03F05BFAC4F8260070BD17
:100BE000000000203E030020F8B5012805D0BDE834
:100BF000F840C1B25220FFF7AABE174C34F8420F9A
:100C000000F0EEF9154DA8612088401C80B200F07C
:100C10000BFAA5F1800670672088401D80B200F0B5
:100C2000E9F9B0672088C01D80B200F0B9F9E86129
:100C30002088093080B200F0B3F9286200B2009039
:100C4000B6F87800716F82B2A88B03B2287E40B2EA
:100C500003F0B4FAF8BD00000000002000010020FD
:100C6000FEE700002DE9F047284D0100A5F18002C4
:100C7000274EB2F842004FF0000409D0012912D0EB
:100C800002291BD0BDE8F047C9B25220FFF75FBE72
:100C9000325C401C80B26A67315CA967BDE8F047EE
:100CA000104602F04EBC00F09BF918498031886173
:100CB00082F83B00BDE8F04702F0EABB914600F045
:100CC000B3F9686785B200274FEA060804F1B0005F
:100CD000C0B202F038FC99F83B0002F034FC10205E
:100CE00002F031FC641CE4B25FF0000618F8050065
:100CF00002F03AFC6D1C761CF6B2ADB2802EF5D334
:100D00007F1CFFB2082FE1D3BDE8F08780000020F0
:100D10003E03002010B50446002301220848FFF7D7
:100D20003BFB01212046FFF788FB02212046FFF70D
:100D300001FB0028F9D02046BDE81040FFF7F7BAC4
:100D400000240140084A61B11021D170074931F8EF
:100D5000101011800549623151F820000249FFF757
:100D600085BE4821F1E700004001002052480020E4
:100D70000449044A623231F8101052F82000FFF79B
:100D8000F3BE000052480020F0B587B001210420D6
:100D900000F0A8FA0121082000F0A4FA0121102097
:100DA00000F0A0FA0121202000F09CFA012140204F
:100DB00000F098FA0121802000F094FA0121080245
:100DC00000F090FA274C03202E4DA0704820E070D0
:100DD0002548009025480190254802902548039019
:100DE00025480490254805902548012106900020BB
:100DF0004FF6FF726B4605F1620600BF25F8101032
:100E000012EA410100D10121070953F8277046F881
:100E10002070401CC0B23028F0D30027114935F8AB
:100E20001700208056F82700FFF720FE7F1CFFB236
:100E3000302FF3D30121084600F054FA0121124863
:100E4000FFF766FE1148FFF749FA02F02DF900217D
:100E50004FF47A7000F0B0FFC8210D4801F086F819
:100E600007B0F0BD4001002000080140000C014027
:100E7000001001400014014000180140001C014016
:100E800000200140524800200002300000240140B0
:100E9000002C01400449044A623231F8101052F823
:100EA0002000FFF768BE000052480020054A02F10A
:100EB000620332F8102053F8200009B10261704734
:100EC0004261704752480020094928B101280CD0DE
:100ED000C1B25220FFF73BBDB1F842000549085CA2
:100EE00003498031486703F0CFB9C87F88667047EF
:100EF000000000203E03002010B503F067FC01F065
:100F0000C9F803F035FF01F0BBFA0D48002180F865
:100F10003E1080F83D10C26E1278032A0ED10122D5
:100F200080F83D2000F58070C16201F085F80A204C
:100F300001F08AF8BDE8104003F034BE10BD000097
:100F400000000020FEE700000020044902464FF4A4
:100F500088430A54401C9842FBD370473E0300204C
:100F600005494FF6FF73C96E0A18085C527803EA08
:100F70000222104480B2704700000020074910B5DB
:100F8000CA6E1118105CCB788C78497804EB032377
:100F900001EB032100EB012010BD00000000002048
:100FA00005490A18085C527800EB0220010401D5BB
:100FB00002490843704700003E0300200000FFFF85
:100FC000064A10B51118105CCB788C78497804EB80
:100FD000032301EB032100EB012010BD3E030020A1
:100FE0000349085C010601D560F0FF00704700006E
:100FF0003E03002005494FF6FF730A18085C52783B
:1010000003EA0222104480B2704700003E03002031
:10101000044A1118105C8B78497801EB032100EB2E
:10102000012070473E030020064A10B51118105CDD
:10103000CB788C78497804EB032301EB032100EB98
:10104000012010BD3E030020024A11541044090A39
:10105000417070473E030020044A1154090A0244BB
:10106000080A51709070000AD07070473E0300204B
:10107000024A11541044090A417070473E0300208F
:10108000044A1154090A0244080A51709070000A77
:10109000D07070473E030020FEB52C4F010007F5CD
:1010A00080752B4CB7F84200A5F1800608D00129C5
:1010B00025D003B0C9B2BDE8F0405220FFF747BCCD
:1010C000FFF77EFFA861B7F842C00CF1040189B2B6
:1010D0000CF10502615C92B271670CF10603A25C2F
:1010E0009BB2B267E35C0CF1070CF3671FFA8CF656
:1010F000A45D2C60009403F095FBB866FEBD411C16
:10110000275C89B27767615C821C92B2B167A25C8E
:10111000F267C31C9BB2061DE35CB6B200F1050C7E
:101120002B60A65D1FFA8CFC6E60801D14F80CC04D
:1011300080B2C5F808C0205CE8600096CDE901C027
:1011400052B249B2384603F0F3FBFEBD0000002066
:101150003E0300207047000070B50F23C47801786B
:101160000122F4B1144C2468457804F4E064C4F519
:10117000E064240AC4F10406E3408478B5401C40CE
:101180002C4301F1E021230181F80034007800F0C4
:101190001F018A404009800000F1E020C0F80021D2
:1011A00070BD01F01F0082404809800000F1E0207E
:1011B000C0F8802170BD00000CED00E0024908433A
:1011C00002490860704700000000FA050CED00E0DD
:1011D00010B50D4C0121607BFFF7B4FD0121A07B10
:1011E000FFF7B0FD0121E07BFFF7ACFD0121607B43
:1011F000FFF75CFE0121A07BFFF758FEE07BBDE816
:1012000010400021FFF752BE0000002070B5114CC5
:10121000114D04F18003B4F8422038B1012813D0F5
:10122000BDE87040C1B25220FFF791BBA85C511CD1
:1012300089B25867921C695C92B29967AA5CDA67B6
:10124000BDE8704003F07EB8A85C586703F082F8F0
:10125000A06670BD000000203E03002070B5114C58
:10126000114B04F18002B4F8421038B1012808D0C3
:10127000BDE87040C1B25220FFF769BB585C5067AF
:1012800070BD585C491C506788B2FFF799FE074D46
:10129000E861B4F84200401D80B2FFF791FE286279
:1012A00070BD0000000000203E030020000100206F
:1012B00070470000044900200863A1F5807101F81F
:1012C0003F0F88704870704700010020044A0029D1
:1012D000D16901D0014300E08143D1617047000032
:1012E00000100240044A0029916901D0014300E046
:1012F000814391617047000000100240044A0029B8
:10130000D16801D0014300E08143D1607047000003
:101310000010024030B51F494A6812F00C031E4A03
:1013200003D0042B01D0082B21D002604A680F2380
:101330001A4C03EA1212A35C0268DA4042604B685E
:10134000072505EA1323E35C22FA03F383604B6865
:1013500005EAD323E35CDA40C2604968032303EA69
:101360009131231F595CB2FBF1F1016130BD4A6834
:101370004B6802F470124FF0020413F4803F04EB48
:10138000924202D04B689B0301D5054B00E0024B13
:101390005A43CAE70010024000127A00740100208C
:1013A00000093D0010B5C1B2C0F307200C4C012864
:1013B00009D002280BD004280DD00121BDE810402F
:1013C0005320FFF7C4BA0846FFF764FD06E008465D
:1013D000FFF7CEFC02E0084603F02CFCA06610BD2F
:1013E00000000020C2B2C0F3072048B101280BD092
:1013F000032811D004280BD001215320FFF7A7BAEE
:10140000C9B21046FFF79EBCC9B21046FFF74EBDE9
:10141000C9B2104603F0FABB7047000070B5154919
:101420000A6B042A21D0A1F58073052A1ED0062A52
:101430001BD193F8662000EB022085B200200863E0
:10144000AA2002F0E7FB012002F0E4FB012002F0F9
:10145000E1FBF22002F0DEFB00242819FFF700FB7D
:1014600002F0D8FB641CFF2CF7D970BDA3F866000E
:1014700070BD0000000100200348816E0A0402D5FF
:10148000024A114381667047000000200000FFFF00
:101490000349886E020602D560F0FF008866704737
:1014A000000000202DE9F843444D010005F18004BF
:1014B000A4F58073424EB3F842004FF000070BD002
:1014C000012921D0022928D003294CD0BDE8F843B6
:1014D000C9B25220FFF73BBA375C411C89B2821C6B
:1014E0006F67715C92B2C31CA967B25C9BB2EA677A
:1014F000001DF35C80B22360305C60600090384671
:1015000001F076FFBDE8F883FFF76AFDA06183F87C
:101510003A00BDE8F84301F0C9BE9946FFF784FDE3
:10152000686784B20025B04607F1B000C0B201F090
:101530006BFF99F83A0001F067FF102001F064FF9B
:101540007F1CFFB25FF0000618F8040001F07EFF78
:10155000641C761CF6B2A4B2802EF5D36D1CEDB2DD
:10156000082DE1D3CEE7FFF71BFDA061B3F84200E1
:101570003A33801C80B2FFF713FD93F90010084442
:10158000E0611889001D80B2305C6867207EB03051
:10159000C0B201F039FF207F00F00F0001F034FFEE
:1015A000207FC0F3031040F0100001F02DFF95F8EC
:1015B0007400BDE8F84301F049BF0000800000203E
:1015C0003E0300202DE9F0413D4E01463D4F06F11E
:1015D0008005B6F8420005F18004072969D2DFE8EA
:1015E00001F004172737474E5B003E5C411C89B26F
:1015F000821C6E67795C92B2A967C01CBA5C80B22B
:10160000EA673B5C30462360BDE8F04102F05AB91E
:10161000FFF7D6FCA061B6F84200001D80B2FFF7CC
:10162000CFFC0146E061A069BDE8F04101F0AEBF2A
:10163000FFF7C6FCA061B6F84200001D80B2FFF7BC
:10164000BFFC0146E061A069BDE8F04102F00CB9C1
:10165000FFF7B6FCA061B6F84200001D80B2FFF7AC
:10166000AFFC0146E061A069BDE8F04102F0DEB8E0
:10167000FFF7C0FC6867BDE8F04102F06BB8FFF708
:10168000B9FC6867B6F84210891C89B2795CA96711
:10169000BDE8F04102F00EB9FFF7ACFC6867B6F8A0
:1016A0004210891C89B2795CA967BDE8F04102F05B
:1016B000F9B8BDE8F041C9B25220FFF748B90000BF
:1016C000000000203E0300202DE9F047314A0100D0
:1016D000314FB2F842004FF470754FF0800902F1BB
:1016E000800409D0012916D002291ED0BDE8F04798
:1016F000C9B25220FFF72BB93B5C411C89B263672A
:10170000801C795C80B2A1673A5CE267BDE8F04773
:10171000184602F013B9FFF763FC2049886182F88C
:101720003C00BDE8F04702F0D7B8FFF77DFC00268B
:10173000B8466067484602F009F9802002F006F9D1
:101740000027606F411918F8010002F045F9403D8B
:101750007F1CFFB2ADB2102FF3D305F58465ADB297
:101760000027606F411918F8010002F035F9403D7B
:101770007F1CFFB2ADB2102FF3D3761C05F2E1351A
:1017800009F10100F6B2ADB200F0FF09202ED1D36D
:10179000BDE8F087000000203E030020000100208B
:1017A00010B50C4B38B1012810D0C1B2BDE81040C3
:1017B0005220FFF7CCB8B3F842000749085C05494E
:1017C00080314867BDE8104002F016BE02F0F8FD17
:1017D000986610BD000000203E03002070B528B1BF
:1017E000BDE87040C1B25220FFF7B1B80C4D0D4EAC
:1017F0000B4C35F8420F8034315C401C80B261677D
:10180000FFF7DEFB04F1800188612888401D80B26B
:10181000315CA16794F87400BDE8704002F00CBE22
:10182000000000203E0300207047000070B53C4DD2
:1018300004460021A87BFFF739FB01F05FFC012182
:10184000E87BFFF733FB01F059FC0021E87BFFF751
:101850002DFB01F053FC002604F08001A87BFFF76C
:1018600025FB6006040E0121E87BFFF71FFB01F05A
:1018700045FC0021E87BFFF719FB01F03FFC761CDB
:10188000F6B2042EE8D30021A87BFFF70FFB01F08E
:1018900035FC00260121E87BFFF708FB01F02EFC58
:1018A0000021E87BFFF702FB01F028FC761CF6B272
:1018B000042EEFD35FF0000604F08001A87BFFF751
:1018C000F5FA6006040E0121E87BFFF7EFFA01F05C
:1018D00015FC0021E87BFFF7E9FA01F00FFC761C0C
:1018E000F6B2042EE8D30021A87BFFF7DFFA01F05F
:1018F00005FC00240121E87BFFF7D8FA01F0FEFB8C
:101900000021E87BFFF7D2FA01F0F8FB641CE4B297
:10191000042CEFD3A87BBDE870400121FFF7C6BAC5
:101920000000002010B51349134B01F18004B1F8F9
:1019300042104A1C38B101280ED0C1B2BDE8104097
:101940005220FFF704B8585C91B26067595CA167F8
:10195000BDE8104003F02EB8585C606790B2FFF706
:101960002FFB0649064A886194F8741042F821005A
:1019700010BD0000000000203E03002000010020F8
:1019800004020020134B10B51A6B042A20D0A3F5D3
:101990008071052A1AD0062A1AD131F8642F02EB79
:1019A000002008800020186301F8230CFEF71CFEBD
:1019B000AA2002F02FF9012002F02CF9002002F0F9
:1019C00029F9BDE81040F02002F024B9A1F8640024
:1019D00010BD0000000100200CB500212648019137
:1019E0000091026842F4803202604FF4A063026802
:1019F00002F400320092019A521C0192009A12B92C
:101A0000019A9A42F3D10268920333D501210091E1
:101A10001A490A6842F010020A600A6822F00302BA
:101A20000A600A6842F002020A6041684160416847
:101A30004160416841F480614160416821F47C115A
:101A40004160416841F4E8114160016841F08071F2
:101A5000016001688901FCD5416821F00301416002
:101A6000416841F0020141604168C1F381010229EE
:101A7000FAD10CBD00910CBD0010024000200240C4
:101A800000B5024607E000BF00F0EAFA00F0BEFA37
:101A90000A28FBD3521E002AF6DC00BD00B5024620
:101AA00000F0DEFA00F0B2FA9042FBD300BD000075
:101AB00000B502464FF47A7307E000BF00F0D0FA99
:101AC00000F0A4FA9842FBD3521E002AF6DC00BDB7
:101AD000114A10B50100B2F8420009D0012910D016
:101AE000022916D0BDE81040C9B25220FEF72FBF20
:101AF0000A49085C084980314867BDE8104002F097
:101B0000ABBFFFF75DFA06498861BDE8104002F0FF
:101B1000C5BF0020D07410BD000000203E0300208F
:101B20000001002070B5354C02003549B4F8420080
:101B300086B004F180060AD0012A14D0022A58D0B7
:101B400006B0D1B2BDE870405220FEF700BF0A5C7B
:101B5000401C80B27267095CB16706B01046BDE8F0
:101B6000704002F0DDBCFFF73BFA706734F8420FBB
:101B7000001D80B2FFF758FAB0672088083080B2A5
:101B8000FFF752FAF06720880C3080B2FFF74CFA6A
:101B90001C4D28602088103080B2FFF745FA68603D
:101BA0002088143080B2FFF73FFAA86020881830F0
:101BB00080B2FFF739FAE86020881C3080B2FFF766
:101BC00033FA28612088203080B2FFF72DFA05F122
:101BD000080168610EC9CDE90330CDE901126868DA
:101BE000009074362B6896E8070002F063FC06B09C
:101BF00070BD085C706784F82800F8E700000020DA
:101C00003E03002000010020154A10B5146B00238C
:101C1000A2F58071042C1DD011F8414F44400C7086
:101C2000104CD16B6054491CD163906B814216D12A
:101C300020461363FEF7B4FCAA2001F0EBFF01205D
:101C400001F0E8FF002001F0E5FFBDE81040F120C1
:101C500001F0E0BFB1F86200401EC2E90E0310BD02
:101C600000010020524700200146002002E0401CF5
:101C7000C0B2491C0A78002AF9D1704770470000A9
:101C80002DE9F041364E0146A6F58075354FB5F881
:101C9000420005F180040F295CD2DFE801F05B0807
:101CA0005B171E2E5B5B5B5B353E5B441500FFF7ED
:101CB00087F9B061B5F84210091D89B21128795C25
:101CC000A16701D185F83510BDE8F081FFF7ACF9C7
:101CD000B061BDE8F041FEF71BBEFFF7A5F96067F4
:101CE000B5F84200001D80B2FFF79EF90146A067DB
:101CF000606FBDE8F041FFF775BBFFF795F96067CE
:101D0000BDE8F041FFF74EBB385C0021606701E0A1
:101D1000491CC9B28142FBD3D6E7385C6067BDE895
:101D2000F041FFF7ADBEFFF77FF9606735F8420F6E
:101D3000001D80B2FFF778F9A0672888083080B2CC
:101D4000FFF758F9E06728880A3080B2FFF76CF98E
:101D50003060B9E7BDE8F0413739C8B202F082BF60
:101D6000000100203E0300200F4810B5016841F03B
:101D70000101016041680D4A1140416001680C4A4F
:101D800011400160016821F480210160416821F463
:101D9000FE0141604FF41F018160FFF71DFE054900
:101DA0004FF00060086010BD001002400000FFF816
:101DB000FFFFF6FE08ED00E030B50C4605460121B8
:101DC00089B0C802FFF78EFA01210420FFF78AFAD2
:101DD0004FF48070ADF81C0018208DF81F00032010
:101DE0008DF81E0007A91848FEF740FEADF8145004
:101DF000ADF810400024154DADF81640ADF8124076
:101E000004A9284600F0B4F87020ADF800000120C5
:101E1000ADF80200ADF80640ADF808406946284626
:101E200000F05EF80121284600F03AF80821284623
:101E300000F096F80121284600F01BF80121284601
:101E400000F024F809B030BD00080140002C01402A
:101E500010B501218C07204600F02DF8002807D08E
:101E60000121204600F00FF8BDE8104002F072BDDD
:101E700010BD0029018802D041F0800101E021F06D
:101E8000800101807047C9430182704700290188A1
:101E900002D041F0010101E021F001010180704711
:101EA000002930F8441F02D041F4004101E0C1F3A1
:101EB0000E010180704702460020138A92890B426E
:101EC00002EA010202D0002A00D001207047002A55
:101ED000828901D00A4300E08A4382817047000072
:101EE00030B5028C22F001020284028C8388048BBC
:101EF00022F0020224F073050C882C430D8915434F
:101F00004A882A43114DA8420BD0114DA84208D04F
:101F1000104DA84205D0104DA84202D00F4DA84246
:101F20000DD122F008054A8923F440732A4322F098
:101F300004058A882A438D891D43CB892B438380DE
:101F40000483C9888186028430BD0000002C0140D2
:101F5000003401400040014000440140004801407D
:101F6000028B22F008020A43028370478186704781
:101F700030B502881B4B1C4C98420DD0A0420BD0B0
:101F8000B0F1804F08D0194DA84205D0184DA84295
:101F900002D0184DA84203D122F070054A882A4386
:101FA000154DA84206D0154DA84203D022F4407525
:101FB000CA882A4302808A8882850A8802859842D4
:101FC0000AD0A04208D00E4A904205D00D4A904255
:101FD00002D00D4A904201D1097A01860121818205
:101FE00030BD0000002C01400034014000040040DE
:101FF00000080040000C00400010004000140040A9
:1020000000400140004401400048014000B502F09A
:102010003AFE0449496C401A20F07F404821B0FB49
:10202000F1F000BD8000002002480021C16301647E
:10203000704700008000002000B502F01FFE01493B
:10204000086400BD80000020034948430349C86379
:102050000A6C104408647047401901008000002099
:1020600000B502F010FE0149486400BD8000002068
:1020700000B502F003FE06490A6CC96B101A20F085
:102080007F40884201D9012000BD002000BD000032
:1020900080000020084A10B50020014602F1140417
:1020A00002F1280322F8101024F810101954401CD3
:1020B000C0B20A28F6D310BD9801002070B5401CAC
:1020C000114C43B20E4634F9130000281BDD04F115
:1020D000140535F81300FEF763FFA4F1140100B2F4
:1020E00031F8131004F5D3720244401C8E5401B22F
:1020F00034F91300884200DC002135F81300BDE8F4
:102100007040FEF7A1BF70BD9801002010B5401CC3
:10211000074C40B224F8101004F1140121F81020EB
:10212000143104F13C0221F810300121115410BD8A
:102130008401002070B50D4C40F22551204600F07E
:1021400063F8012811D12546204600F0EBF8C4B20F
:102150004021284600F044F82046FEF7E3FA2146E5
:10216000BDE870400120FFF7A9BF70BD00380140F5
:1021700070B50C4C40F22551204600F045F801287E
:102180000ED12546204600F0CDF8C4B240212846A5
:1021900000F026F82146BDE870400220FFF78EBF10
:1021A00070BD00000044004070B50C4C40F2255159
:1021B000204600F029F801280ED12546204600F0DF
:1021C000B1F8C4B24021284600F00AF82146BDE823
:1021D00070400320FFF772BF70BD00000048004050
:1021E000C943018070470029818902D041F4005120
:1021F00001E021F4005181817047024600201288DD
:102200000A4200D00120704730B501F01F020124BE
:102210000025C1F3421304FA02F2012B0FD0022B66
:102220000FD0838A4FEA11210088134204FA01F487
:1022300000EA040001D000B10125284630BD8389A1
:10224000F0E7038AEEE710B5C1F3421301F01F0473
:102250000121A140012B07D0022B07D01430002A06
:10226000026805D00A4304E00C30F8E71030F6E7C6
:102270008A43026010BD000030B50446008A85B074
:102280000D464CF6FF710840E98801432182A1897F
:102290004EF6F3100140A8882A8910436A890A4340
:1022A0001043A081A08A4FF6FF410840A98901434D
:1022B000A1826846FFF72EF81948844201D103989D
:1022C00000E00298A189090400EBC00101EB0010B5
:1022D000296801D5490000E08900B0FBF1F06422D3
:1022E000B0FBF2F109010B096FF018056B4300EB2D
:1022F0008300A3891D044FF0320306D503EBC00011
:10230000B0FBF2F000F0070005E003EB0010B0FBBB
:10231000F2F000F00F000843208105B030BD00004E
:10232000003801408088C0F308007047C1F30801FD
:102330008180704770B52A4C04F58075B4F842105E
:1023400004F1800648B1012828D0022838D0BDE821
:102350007040C1B25220FEF7FABA0846FEF740FEBE
:10236000A86134F8420F401C80B2FEF75DFEB067F2
:102370002088401D80B2FEF713FE28622088C01D11
:1023800080B2FEF71DFE03466862288CB16F02B270
:10239000287EBDE8704040B2FFF7B8BE0846FEF7A1
:1023A0001FFEA861B4F84200401C80B2FEF708FE90
:1023B0000146E861287EBDE8704040B202F068BC8A
:1023C0000846FEF70DFEA861B4F84210054A491C04
:1023D00089B240B2515CB167BDE8704002F084BC84
:1023E000000000203E030020FEE700000949084AE3
:1023F00091F83830D05491F83800401C81F83800FA
:1024000091F83800142802D1002081F83800704774
:102410003E47002000000020174810B590F8391002
:1024200090F83820914226D000F18004134BB0F888
:102430005810226D5A54491E89B2120A5A54491E24
:1024400089B2120A5A54491EA0F85810002180F887
:10245000361003F5884290F83930D25C920022653C
:1024600090F83920521C80F8392090F83920142A2D
:1024700001D180F8391010BD000000203E0300207B
:1024800030B519480024A0F180050465A5F8424044
:10249000A5F85440A5F85640A5F84E40A5F8504080
:1024A000A5F85240846444F2FF31C464A5F8581082
:1024B00085F8314005F8324F2C856C85446584657C
:1024C0006C70AC70AC85EC85C4650466C5F83640AC
:1024D00044668466C4662C710467EC70FEF734FDB4
:1024E0006C71AC71EC7130BD800000202DE9F04FB3
:1024F0001C4D89B00420A5F180042867E76E2E6D7D
:102500002346DFF86490B859B3F856100891B3F831
:10251000581000F0FF0C8E46491E89B207910EF14B
:10252000010189B20691996E000A0AB202924A42EA
:1025300001924A1E0592B3F854204FEA812893462F
:10254000521CCDF8108092B24FEAE1780092CDF89B
:102550000C80B3F842301FFA81FACAB2BCF1F00F16
:1025600004D204E0800000203E030020EFE35FEA95
:102570008C08F844D8F80680C74400006C090000B5
:10258000C0030000D003000028080000E2030000A0
:102590000E04000006040000D6030000DE03000065
:1025A0005E0900006C0900006C0900006C09000065
:1025B000320400004C04000070040000DC04000041
:1025C000E4040000EC0400003A0600003E060000AF
:1025D000460600004E060000520600005E0900009C
:1025E000740600008C060000E406000038070000B6
:1025F0007C07000096070000AA070000BE07000045
:10260000D4070000DC0700003C080000440800007C
:102610004C0800005E090000520800005608000047
:102620005C08000062080000720800007E080000DC
:102630005E0900008A0800006A08000030080000F7
:1026400036080000560900009208000092080000B9
:10265000920800009A0800009A080000A0080000F4
:10266000A8080000BC080000D2080000E408000030
:1026700004090000F80800003805000040050000CB
:102680005E0900006C0900003009000030090000FC
:10269000300900001A0900005E090000240900004A
:1026A00030090000380900005E09000048090000F8
:1026B0005E0900005E0900005E0900005E0900007E
:1026C000F0040000FE0400005E0900000E0500009A
:1026D0001E050000220500005E0900003005000014
:1026E000FC050000FC050000FC0500008005000062
:1026F0005E0900008A050000940500009E050000A8
:102700005E090000A80500000406000004060000A1
:1027100004060000BA0500005E090000C6050000BE
:10272000D0050000DC0500005E090000E6050000A1
:10273000F0050000F0050000F0050000F6050000BF
:102740005E09000054050000F0050000620500006D
:102750005E0900006E0500007605000076050000A9
:10276000760500007E0500005E0900008805000077
:10277000920500009C0500005E090000A60500000F
:10278000B0050000B0050000B0050000B80500006D
:102790005E090000C4050000CE050000DA05000057
:1027A0005E090000E40500005C0500005C05000017
:1027B0005C0500004C0500005E09000052050000A9
:1027C0005C050000600500005E0900006C0500006B
:1027D000BE040000CC040000D4040000A4080000E3
:1027E0004E0600005E0900004E0600006006000074
:1027F000680600005E090000700600007006000018
:10280000700600005E090000700600007C060000F3
:102810005E090000840600008406000084060000B3
:102820005E09000084060000A00600005E090000AA
:10283000AE060000BA060000BA0600005E090000FD
:10284000BA060000F40600005E090000060700005A
:1028500010070000100700005E09000010070000CC
:102860004C0700005E0900006207000070070000CE
:10287000700700005E0900007007000026060000D7
:10288000260600002A060000300600003006000080
:102890003406000038050000400500005E09000015
:1028A0006C0900006C0900006C0900006C09000054
:1028B00076040000900400008004000088040000FA
:1028C000900400008E070000A2070000B607000079
:1028D000CA070000D4070000DC070000260600003D
:1028E0002A0600005E0900006C0900005C0400007C
:1028F000660400001E060000C00600001807000065
:102900000C080000960400009C040000B8040000BD
:10291000A8040000B0040000B80400005E09000034
:1029200022060000EA0700001E0800000C06000056
:1029300014060000580600005C0600000898A4F881
:102940004200B8194068FDF7D7FF69E0A4F84200DB
:10295000CAE21844A4F856009AE2181AF6E7089951
:1029600024F8421F361D09F80E600799320A09F84B
:102970000120491E89B2120A09F80120491EE1828C
:1029800010E262B6012084F83600069819F800209B
:10299000401C80B219F80030401C80B2A4F85800E6
:1029A00019F8000003EB022200EB0220FAE106987E
:1029B00019F80020401C80B2A4F8580019F8000053
:1029C00000EB0220C2E700BF09F80E3007981A0A90
:1029D00009F80020401E34E0002084F8360072B66A
:1029E00082E2012084F8360062B67DE2B8190079EF
:1029F00002E0B819808880B2A06611E0B8190079A9
:102A000040B2F9E7B819808800B2F5E7B819406814
:102A1000F2E7B819007902E0B819808880B26866D8
:102A20000820C1E1B819007940B2F8E7B8198088E8
:102A300000B2F4E7B8194068F1E7184480B2FEF735
:102A4000D9FAA4F858004FE2184480B271462AE03F
:102A500080B2FEF7DDFAA5E1B81940681844CBE76B
:102A60006A6E02FB0010DBE10844D9E1686E10F4E5
:102A70007F0F6FD080B2385CD2E1686E10F47F0FA8
:102A80003CD080B2FEF76CFACAE1686E10F47F0F9A
:102A900039D080B2FEF772FAC2E1696E11E089B2F4
:102AA000B5F8640066E0FEF7E3FA1DE2B5F86400ED
:102AB0000EE000BFFEF7ECFC16E200BFFEF7DCFC08
:102AC00012E209F801200FE289B2184452E01844DA
:102AD00080B2FEF7D5FA07E21918F2E7184480B27F
:102AE0000299FEF7B1FAFFE1184480B2FEF7B4FA9A
:102AF000FAE1191819F8010092E1184480B2FEF7C2
:102B000079FA8DE1184480B2FEF78EFA88E1184414
:102B100080B2FEF765FA83E1184480B2FEF740FA0E
:102B20007EE1184480B2FEF74BFA79E1191819F8E2
:102B3000010003E0184480B2FEF75CFA6866D3E156
:102B4000184480B2FEF770FAF8E7184480B2FEF736
:102B500047FAF3E710E0184480B2FEF721FAEDE7F8
:102B6000184480B2FEF72CFAE8E700BF09F800200D
:102B7000BAE189B280B296E719F8000050E100BFCF
:102B800019F80000DAE700BFFEF782FC02E000BFA0
:102B9000FEF772FCA06E800242E1049840E18812C8
:102BA0003EE1A266A0E1C4F868A09DE1A26681E7CB
:102BB000C4F868A082E771B3D3E069B3686E50BB14
:102BC000CFE0686E014326D1CBE0019828E10029CF
:102BD000FBDB89E1491C2CE0059821E195F86400B4
:102BE000084443E0B5F86400084448E0686E3BE7F9
:102BF00095F86400081A39E0B5F86400081A3EE058
:102C0000686E081A0CE100BF95F864004243C5E9FC
:102C10001A20D0B204E1A2E0A3E000BFB5F864102E
:102C200089B20AFB01F0E96628E0686EE866414374
:102C300014E1A16658E1686E4143FAE7686EAE4E52
:102C4000A1FB007C039BC217C6E91A0203FB00C06C
:102C500001FB0201B80A40EA8150891226E000BF58
:102C600095F86400E866B2FBF0F0A866C0B2D7E061
:102C7000B5F8641089B2BAFBF1F0E966A86680B2D3
:102C8000CEE0686EE866B1FBF0F0BAE0686E91FBEA
:102C9000F0F0C5E0984E6A6E8F0DD317C6E91A237F
:102CA000039847EA80210498FDF75EFAC6E9180107
:102CB000B6E000BF95F86400E866B2FBF0F100FBF7
:102CC0001120A86640B2ABE0B5F8641089B2BAFB37
:102CD000F1F201FB12A0C5E91A0100B2A0E0686E92
:102CE000E866B1FBF0F200FB12108AE0686E91FB1F
:102CF000F0F200FB121093E0A966686EE86681426C
:102D000001D901207DE000207BE0686E814226DC55
:102D100027E0A966686EE8668142F4D3F1E7686E41
:102D200081421CDA1DE0A966686EE8668142EAD23B
:102D3000E7E7686E814212DB13E0A966686EE86619
:102D40008142E0D8DDE7686E814208DD09E0C4E039
:102D5000686E814203D004E0686E814201D0012098
:102D60005EE000205CE0B91952464E6808212967F0
:102D70000023C4F868A019466C6E09E002EB010C50
:102D800017F80CC0A44501D16966ADE0491C89B2B1
:102D90008142F3D383BB2E6505E0696E0AEB8100A7
:102DA000A06638582865002028679DE00129F9D0E1
:102DB0009AE00029F6D097E081F0010021E000BF01
:102DC00081F0FF001DE000BF4FF6FF7009E0C8432F
:102DD00017E0686EE86640E0686EE8662AE0686EB4
:102DE000E86641403AE0686EE866C14036E0686EE9
:102DF000E8668140C8B204E076E0686EE86681402B
:102E000088B2A8660CE0686EE866814026E0014161
:102E100001F0010004E00141C8B201E0014188B2C3
:102E2000A06661E001228240D0B280F0FF0209E09A
:102E3000114013E0014311E00122824090B24FF6AD
:102E4000FF724240A9666B6E002BF3D1F0E70122BE
:102E5000A96682406B6ED043C3B90140A966E8E61B
:102E60006A6EEA668240FF2383404FF6FF7043405C
:102E700019400BE06A6EEA6682404FF6FF7303E08A
:102E80006A6EEA668240FF23834099431143E5E777
:102E9000A4F8540028E089B25846FEF7E9F80DE09E
:102EA0005846FEF7EDF810E020801DE009F80B20F1
:102EB0000098EDE758460299FEF7C6F834F8540F2B
:102EC000801CF1E75846FEF7C7F834F8540F001D90
:102ED000EAE700293FF454AD7EE6002084F83D0087
:102EE00061465120FDF733FD296F286D08442865A0
:102EF00009B0BDE8F08F00000001002070B5234844
:102F0000002404632248FEF7AFFE0546AA2000F025
:102F100081FE0E35E8B200F07DFE002000F07AFE62
:102F2000FF2000F077FE022000F074FE322000F057
:102F300071FE112000F06EFE2C2000F06BFE41208F
:102F400000F068FE204600F065FE442000F062FEBE
:102F5000204600F05FFE204600F05CFE204600F0B8
:102F600059FEB02000F056FE204600F053FE2046E9
:102F700000F050FE064800F043FE01F017FE054841
:102F8000012100F83D4FC17070BD0000000100201C
:102F9000804E00080000002070B528B1BDE87040E8
:102FA000C1B25220FDF7D3BC0D4D0E490C4C35F883
:102FB000420F8034095C401C44F8741F80B2FEF755
:102FC00019F860602888C01C80B2FEF72DF8024610
:102FD000A060A08881B22078BDE8704001F0A2BB5B
:102FE000000000203E03002030B420B1C1B230BC4C
:102FF0005220FDF7ACBC0C480C4C0B4DB0F84230E5
:103000008035591CE05C89B29A1C6867615C92B299
:10301000A967DB1CA25C9BB2EA67E35C05F1800454
:10302000236030BC01F09CBB000000203E03002068
:1030300070B5124D0100B5F8420009D0012910D039
:10304000022919D0BDE87040C9B25220FDF77FBCFB
:103050000B49085C094980314867BDE8704001F0C0
:1030600099BBFDF7ADFF074CA061B5F84200001D0C
:1030700080B2FDF7A5FFE06170BD000000000020F8
:103080003E0300200001002002E008C8121F08C112
:10309000002AFAD170477047002001E001C1121FD9
:1030A000002AFBD17047000010B5012186B048020C
:1030B000FEF718F900214FF46020CDE902018DF8E8
:1030C000041001200C4C00918DF805108DF81000B3
:1030D00069462046FDF73CF90023012219462046A7
:1030E000FDF75AF901212046FDF7EEF82046FDF7DD
:1030F0008DF906B010BD00000024014000204FF4FF
:10310000FA71401C00B28842FBDB7047094B00B5E6
:10311000D86AB0F5FA6F01D3012000BDFEF7A8FF11
:1031200028B10A20FEF790FFD86A0A30D862002042
:1031300000BD00000001002001F06EFE01F04CFE19
:10314000FCE7000010B50D4C01212078FDF7FAFDD9
:1031500001216078FDF7F6FD01212078FDF7A6FE3C
:1031600001216078FDF7A2FE00F028F800F00EF8CB
:10317000BDE810403220FEF79BBC0000000000209C
:10318000014A1070517070470000002010B50A4CC1
:1031900000216078FDF78AFE01212078FDF786FE88
:1031A0000520FEF77BFC01216078FDF77FFEBDE87E
:1031B00010400520FEF772BC0000002010B50E4C38
:1031C00001216078FDF772FE01212078FDF76EFE87
:1031D0000520FEF763FC00216078FDF767FE0520FF
:1031E000FEF75CFC00212078FDF760FEBDE8104092
:1031F0000520FEF753BC00000000002070B500253C
:103200000520FEF74BFC144C00216078FDF79AFD79
:103210000520FEF743FC01212078FDF747FE322010
:10322000FEF73CFC0D4E00E06D1C6078FDF7A0FD44
:10323000012801D1B542F7D300212078FDF736FEF1
:103240000520FEF72BFC01216078FDF77BFDBDE832
:1032500070400520FEF722BC0000002040420F0015
:1032600070B5114E0546002405F080017078FDF719
:103270001DFE6806050E0520FEF710FC01213078C2
:10328000FDF714FE0520FEF709FC00213078FDF75C
:103290000DFE0520FEF702FC641CE4B2082CE3D30B
:1032A000BDE87040FFF7AABF0000002010B54F4CEA
:1032B0000121E078FDF746FD01212079FDF742FD6F
:1032C00001216079FDF73EFD0121A079FDF73AFD6E
:1032D0000121E078FDF7EAFD00212079FDF7E6FD08
:1032E0000021A079FDF7E2FD0A20FEF7E1FBA078BE
:1032F000002853D1AE2000F087F8002000F084F8B9
:10330000102000F081F8402000F07EF8812000F0CD
:103310007BF8CF2000F078F8A12000F075F8C820E5
:1033200000F072F8A62000F06FF8A82000F06CF80A
:103330003F2000F069F8D32000F066F8002000F08C
:1033400063F8D52000F060F8802000F05DF8D92007
:1033500000F05AF8F12000F057F8DA2000F054F8A5
:10336000122000F051F8DB2000F04EF8402000F071
:103370004BF8202000F048F8022000F045F88D209E
:1033800000F042F8142000F03FF8A42000F03CF8D0
:10339000A62000F039F8AF2000F036F8A078012818
:1033A00022D1AF2000F030F8402000F02DF8A0200E
:1033B00000F02AF8A62000F027F8A42000F024F856
:1033C000A22000F021F8C82000F01EF82F2000F005
:1033D0001BF8252000F018F8812000F015F8BDE852
:1033E0001040252000F010B810BD000000000020A3
:1033F00030B5044C039DA070E17022716371A5711A
:1034000030BD00000000002070B50F4C06460021C2
:10341000A079FDF74BFD0025300601D4002100E026
:1034200001212079FDF742FD0021E078FDF73EFD06
:103430007006060E0121E078FDF738FD6D1CEDB237
:10344000082DE9D370BD00000000002070B50F4CBE
:1034500006460121A079FDF729FD0025300601D49B
:10346000002100E001212079FDF720FD0021E07816
:10347000FDF71CFD7006060E0121E078FDF716FD34
:103480006D1CEDB2082DE9D370BD000000000020D6
:1034900010B5FFF757FEAE2000F055F8002000F001
:1034A00052F8102000F04FF8402000F04CF8812036
:1034B00000F049F8CF2000F046F8A12000F043F8D2
:1034C000C82000F040F8A62000F03DF8A82000F049
:1034D0003AF83F2000F037F8D32000F034F800200D
:1034E00000F031F8D52000F02EF8802000F02BF805
:1034F000D92000F028F8F12000F025F8DA2000F0BB
:1035000022F8122000F01FF8DB2000F01CF8402009
:1035100000F019F8202000F016F8022000F013F84F
:103520008D2000F010F8142000F00DF8A42000F019
:103530000AF8A62000F007F8BDE81040AF2000F020
:1035400002B8FFF71DBE10B50446FFF737FE78201E
:10355000FFF786FE0020FFF783FE2046FFF780FE80
:10356000BDE81040FFF712BE10B50446FFF726FE77
:103570007820FFF775FE4020FFF772FE2046FFF728
:103580006FFEBDE81040FFF701BE0000614A00B5C4
:103590005F4B1363604B5363803AC2E91C013620D2
:1035A00000F01CF9002000F00BF93A2000F016F9A9
:1035B000052000F005F9B22000F010F90C2000F011
:1035C000FFF80C2000F0FCF8002000F0F9F83320A0
:1035D00000F0F6F8332000F0F3F8B72000F0FEF822
:1035E000352000F0EDF8BB2000F0F8F8192000F0CD
:1035F000E7F8C02000F0F2F82C2000F0E1F8C2203B
:1036000000F0ECF8012000F0DBF8C32000F0E6F851
:10361000122000F0D5F8C42000F0E0F8202000F0DF
:10362000CFF8C62000F0DAF80F2000F0C9F8D0205B
:1036300000F0D4F8A42000F0C3F8A12000F0C0F8F6
:10364000E02000F0CBF8D02000F0BAF8042000F021
:10365000B7F80D2000F0B4F8112000F0B1F81320F5
:1036600000F0AEF82B2000F0ABF83F2000F0A8F8F7
:10367000542000F0A5F84C2000F0A2F8182000F02B
:103680009FF80D2000F09CF80B2000F099F81F2007
:1036900000F096F8232000F093F8E12000F09EF867
:1036A000D02000F08DF8042000F08AF80C2000F003
:1036B00087F8112000F084F8132000F081F82C2006
:1036C00000F07EF83F2000F07BF8442000F078F80E
:1036D000512000F075F82F2000F072F81F2000F044
:1036E0006FF81F2000F06CF8202000F069F823200C
:1036F00000F066F8212000F071F8112000F06EF85B
:103700000A20FEF7D5F929205DF804EB00F066B831
:1037100069380008800000202D380008F0B5044604
:103720001D4616460F462A2000F058F8204600F0A5
:1037300035F8304600F032F82B2000F04FF83846CC
:1037400000F02CF8284600F029F8BDE8F0402C20C5
:1037500000F044B8F0B5104C07460021B4F87400EE
:10376000401E83B2B4F87000401E82B20846FFF7D4
:10377000D5FF00260BE0002504E0384600F00EF8E7
:103780006D1CADB2606F8542F7DB761CB6B2206F60
:103790008642F0DBF0BD00000000002010B50446BA
:1037A00006480121007BFDF781FB200A00F024F888
:1037B000E0B2BDE8104000F01FB80000000000209B
:1037C00010B5044604480121007BFDF76FFB20463D
:1037D000BDE8104000F010B80000002010B504460D
:1037E00004480021007BFDF761FB2046BDE8104046
:1037F00000F002B80000002070B50B4E0546002412
:103800000021B07AFDF752FB05F08001707AFDF7D8
:103810004DFB0121B07AFDF749FB6806641C050EDB
:10382000E4B2082CECD370BD0000002010B50D4CA4
:10383000227A002A15D1002813DB226F904210DA79
:1038400000290EDB626F91420BDA8BB282B289B231
:1038500080B2FFF763FFB4F84600BDE81040FFF701
:103860009DBF10BD0000002010B50D4CE279002A6C
:1038700015D1002813DB226F904210DA00290EDBED
:10388000626F91420BDA8BB282B289B280B2FFF7DB
:1038900045FFB4F84400BDE81040FFF77FBF10BDFE
:1038A00000000020024A1172A2F846007047000092
:1038B00000000020024AD171A2F8440070470000C5
:1038C0000000002010B5034C6072A172E2722373F5
:1038D00010BD00000000002010B5FDF779FC0A20A3
:1038E000FEF7E6F8302000F031F80A20FEF7E0F8A5
:1038F000302000F02BF80A20FEF7DAF80C2000F058
:1039000025F80A20FEF7D4F8012000F01FF80A205D
:10391000FEF7CEF8062000F019F86420FEF7C8F88C
:10392000342000F013F80A20FEF7C2F8362000F029
:103930000DF8BDE810400A20FEF7BAB8024B5873E4
:103940009973DA73704700000000002070B5214CB5
:1039500006460121A07BFDF7A9FAFFF7CFFB002562
:103960000121E07BFDF7A2FAFFF7C8FB0021E07B15
:10397000FDF79CFAFFF7C2FB6D1CEDB2052DEFD3EE
:103980000021A07BFDF792FAFFF7B8FB0121E07B55
:10399000FDF78CFAFFF7B2FB0021E07BFDF786FA1A
:1039A000FFF7ACFB0021A07BFDF780FAFFF7A6FB39
:1039B0000121E07BFDF77AFAFFF7A0FB0021E07B15
:1039C000FDF774FAFFF79AFB3046BDE87040FDF74B
:1039D0002DBF00000000002070B5204C06460121DC
:1039E000A07BFDF763FA00250121E07BFDF75EFA7D
:1039F000FFF784FB0021E07BFDF758FAFFF77EFB21
:103A00006D1CEDB2052DEFD30021A07BFDF74EFA22
:103A1000FFF774FB0121E07BFDF748FAFFF76EFB2F
:103A20000021E07BFDF742FAFFF768FB0121A07B54
:103A3000FDF73CFAFFF762FB0121E07BFDF736FA68
:103A4000FFF75CFB0021E07BFDF730FAFFF756FB48
:103A50003046BDE87040FDF7E9BE000000000020E0
:103A60007CB5012144F20400FDF73CFC4FF40070EA
:103A7000ADF8000003248DF802401820174D8DF892
:103A8000030069462846FCF7F1FF2815ADF8000051
:103A900004208DF8030069462846FCF7E7FF104D27
:103AA000012240F225512846FEF7CDFB0121284690
:103AB000FEF799FB4FF4E060FDF780FB25208DF8C1
:103AC00004008DF8054002208DF8060001208DF8D5
:103AD000070001A8FDF740FB7CBD00000008014085
:103AE000003801407CB501210846FDF7FBFB0121B0
:103AF0000420FDF7F7FB01214804FDF7E7FB042450
:103B0000ADF8004003208DF802001820164D8DF806
:103B1000030069462846FCF7A9FF0820ADF800001D
:103B20008DF8034069462846FCF7A0FF0F4C0122A0
:103B300040F225512046FEF786FB01212046FEF784
:103B400052FB4FF4E060FDF739FB26208DF80400AE
:103B500000208DF805008DF8060001208DF8070083
:103B600001A8FDF7F9FA7CBD0008014000440040BF
:103B70007CB501210846FDF7B5FB01210820FDF7C2
:103B8000B1FB01218804FDF7A1FB4FF48060ADF883
:103B9000000003248DF802401820174D8DF8030013
:103BA00069462846FCF762FFE814ADF800000420DF
:103BB0008DF8030069462846FCF758FF0F4D012297
:103BC00040F225512846FEF73EFB01212846FEF72C
:103BD0000AFB4FF4E060FDF7F1FA27208DF80400AE
:103BE0008DF8054002208DF8060001208DF80700B1
:103BF00001A8FDF7B1FA7CBD000C0140004800406F
:103C000010B5044602E0641C00F004F82078002897
:103C1000F9D110BD0146012001F066B830B5074A60
:103C20000021074C5369803AB2F94A2003E05D183D
:103C3000491C605509B29142F9DB30BD800000207B
:103C40003E030020034B83F8240003F8221F5A7020
:103C5000704700000000002030B5074D039CA5F818
:103C60004A0005F18000C0E90514044901630449D4
:103C70004163C0E9072330BD00000020F13C00088B
:103C8000853C0008064AD36A803A002B07DB00D146
:103C900001E04FF0010382F8253000F05DB8704775
:103CA0008000002010B500281CDB0F4AD369984221
:103CB00018DA002916DB136A994213DA4BB2DC17C3
:103CC00003EB547424F007041B1B9469C1F3CC016B
:103CD00001FB0400516980B208440449085CD840E3
:103CE000C00700D0012010BD800000203E0300204E
:103CF000064A936A803A002B07DB00D101E04FF0BF
:103D0000010382F8253000F027B8704780000020BA
:103D100070B5C1F3CC020E4B49B2CE179C6901EBD2
:103D2000567602FB04005A6980B213180848094C01
:103D3000803826F0070690F82550E25C0120891BA8
:103D4000884015B11043C2B200E08243E25470BD16
:103D5000800000203E0300202DE9F0430D460400C2
:103D60003ED4204EF26994423ADA002D38DB316AB3
:103D70008D4235DAA6F1800090F822300BB1141B89
:103D8000641E90F823200AB14D1B6D1E90F824008C
:103D900010B120462C460546706A012803D12946F9
:103DA0002046FFF7B5FF706A012819DB00EBD070E1
:103DB000A5EB6008A4EB600900250EE04C46002747
:103DC00005E041462046FFF7A3FF641C7F1C706A94
:103DD0008742F6D308F101086D1C706A8542EDD365
:103DE000BDE8F0838000002010B50C4A03460A4C61
:103DF00012F9210F235404F10A0319540A33002144
:103E000043F820102833012119540A3319540A3376
:103E10001954411C117010BD240200200000002024
:103E20002DE9F047DFF88480002408F13C0606F114
:103E30000A09A6F1320AA6F10A051D4F30E01B4817
:103E40000A38005DFCF794FF295D51EA000203D0B7
:103E500021B3012809D021E018F80400FCF788FFFD
:103E6000305501202855BDE8F08718F80400FCF70C
:103E70007FFF09F80400315D012901D029B10BE071
:103E800050B95AF82410491C04E0012804D15AF80A
:103E90002410491E4AF8241000202855641CE4B25E
:103EA00097F921008442CADBDDE700002E020020E2
:103EB0000000002070B5054672B60021FCF7F6FF41
:103EC0001220FDF7F5FD01212846FCF7EFFF032046
:103ED000FDF7D6FD00212846FCF734FF284600F008
:103EE00050F8284600F03BF8284600F04AF82846EB
:103EF00000F019F80402284600F015F820440402E6
:103F0000284600F010F820440402284600F00BF880
:103F10000444284600F007F862B601212846FCF761
:103F200011FF204670BD70B5002406462546600688
:103F3000040E304600F013F80520FDF7A1FD3046D1
:103F4000FCF716FF012804D144F00104304600F0CC
:103F500018F86D1CEDB2082DE9D3204670BD70B580
:103F60000646002442F2107503E00120FDF796FD9D
:103F7000641C3046FCF7FCFE002801D1AC42F4D3AF
:103F800070BD70B50646002442F2107503E00120B2
:103F9000FDF784FD641C3046FCF7EAFE012801D1E0
:103FA000AC42F4D370BD70B50646002472B6254607
:103FB00000213046FCF77AFF0120FDF76FFD01215B
:103FC0003046FCF773FF00213046FCF7BBFE640867
:103FD0000120FDF755FD3046FCF7CAFE012801D14E
:103FE00044F080040520FDF74BFD01213046FCF72D
:103FF000A9FE0120FDF744FD6D1C6DB2082DD7DB35
:1040000062B6204670BD10B5044672B60021FCF7BA
:104010004DFF1820FDF734FD1820FDF731FD182065
:10402000FDF72EFD01212046FCF740FF0420FDF79F
:1040300027FD00212046FCF785FE1920FDF720FD15
:1040400001212046FCF77EFE62B610BD70B50D461C
:10405000064672B6002400213046FCF727FF0120F7
:10406000FDF71CFD05F001013046FCF71FFF6D0850
:104070000920FDF705FD01213046FCF717FF03205D
:10408000FDF70CFD641C64B2082CE4DB62B670BD65
:104090002DE9FF4F85B011F47F0F01D0012300E01F
:1040A000002300200390434801938EB2C06E002B82
:1040B00002D000EB060101E03F49314409794FEAA3
:1040C000D10B11B2009100D13B483044807802906E
:1040D0004FF0000067E00898D14605B24FF00000AD
:1040E00057E000BF019806EB090110B13148C06EDE
:1040F00000E031480844447A059820B1012816D0E0
:10410000022825D037E00027E0072A4A00982946F0
:1041100002F1800201D0126B00E0526B90476D1CDF
:104120007F1C6408FFB22DB2082FEDD323E00027D7
:10413000E00705D01F4A294680320098526B90470D
:104140006D1C7F1C6408FFB22DB2082FF0D312E063
:104150000027E00708D029460098FCF7E1FA18B1DB
:10416000012009B0BDE8F08F6D1C7F1C6408FFB210
:104170002DB2082FEDD3019810B10E48C06E00E0AB
:104180000D483044807848441FFA80F908F1010056
:1041900080B280465845A5D30098401C00B20090DC
:1041A0000AF10100C0B202998246884293D3039873
:1041B000D7E70000000000203E0300202DE9FF4F5C
:1041C0001FFA81F883B008F10200FCF749FC0246AF
:1041D00008F10300FCF744FC02EB002080B20290DF
:1041E0002848C16E01EB080000790190410702D117
:1041F00008B1C00802E0012101EBD00000900020CE
:1042000038E00599002601EB0B001FFA80F9109C9D
:1042100026E000BF1B4808EB09010025C06E0844DA
:104220001099477A019801EB000AF807154A069899
:10423000214602F1800201D0126B00E0526B9047E0
:10424000641C7F0824B2A24503DD6D1CEDB2082D6D
:10425000EBD30299761C09EB01001FFA80F9F6B244
:1042600000988642D6D30698401C00B206900BF107
:104270000100C0B2834603988345C2DB07B0BDE8A6
:10428000F08F000000000020024901224A76887663
:1042900070470000000000200548002101224176FF
:1042A000C17601774277FF22C27780F820107047ED
:1042B0000000002070B5224C607E00283ED0E07ED9
:1042C0000025A0B1207F401CC0B22077C8280ED99D
:1042D000A577257794F82000401CC0B284F8200010
:1042E000052804D3E57684F82050FF2025E0A07E41
:1042F000FCF73EFD617F607701291FD100281DD1A9
:1043000084F82050227F25770120E076A07F401C92
:10431000C1B2A177012911D002290FD008488030FD
:1043200003695B080361102A02D343F00042026173
:10433000222903D1A5770069000CE07770BD000049
:1043400000000020024B03F8290F59709A70704743
:10435000000000202DE9F0410025184C07462E46AC
:10436000F80728D05FF0010194F82900FCF79EFDC2
:104370000520FDF793FB7F08002194F82A00FCF745
:1043800095FD0520FDF78AFB6D0894F82B00FCF7DE
:10439000EFFC08B145F08005012194F82A00FCF7F4
:1043A00085FD0520FDF77AFB761CF6B2082ED7D3E3
:1043B0002846BDE8F0810021D6E70000000000207B
:1043C000002072B6064991F8302032B9B1F84C207D
:1043D0001AB110460022A1F84C2062B670470000C6
:1043E000000000200348002100F82E1F8170C183C7
:1043F0007047000000000020034981F82F000120D1
:1044000081F82E00704700000000002010B5094C14
:1044100094F82E0000280BD094F82F00FCF7A8FC8D
:1044200020B1B4F84C10491CA4F84C1084F83000AA
:1044300010BD000000000020094A90754FF6FF7083
:1044400000EA410040F4C060A2F84800002002F1F8
:1044500080011076C8600120D0750520FDF728BBCB
:104460000000002010B5124CE07D00281FD004F1A0
:10447000800142F6B102C86800F57A70C8609042C7
:1044800015D3801AC86094F8480000F00101A07D9F
:10449000FCF70CFDB4F848004008A4F84800207E62
:1044A000401CC0B220760B2801D10020E07510BD61
:1044B000000000202DE9F04708AC184D94E8C01624
:1044C000DFF8548015F9274F48F8240008F114004C
:1044D00040F82410143040F82420143040F82430E0
:1044E000143000F1140140F82460283041F82470A1
:1044F00040F8249014303C3140F824A041F824C006
:104500001431002021F81400641C05F80149012031
:104510002870BDE8F0870000800200200000002025
:10452000044BA3F5A47292F927209854581D815486
:1045300070470000480100200348002180F8271040
:1045400000F8261F817070470000002070B5084DEC
:1045500095F8260000280AD0002404E0204600F048
:1045600009F8641C64B295F927008442F6DB70BD3B
:10457000000000202DE9F84F0446674850F8241049
:104580009630415C5FEA01097ED0A0F182010546C8
:1045900051F82410465CAA3830F8240080B2FCF7A9
:1045A0000FFD83465C48283830F8240080B2FCF7C1
:1045B00007FD00905848283050F8240015F800A056
:1045C00055483C3050F8240015F8008052485030CF
:1045D00050F824002F5C5048643030F8240080B23A
:1045E000FCF7DEFC03B24C48783030F8240080B28F
:1045F000FCF7D6FC5FEA0A01DFF81CA100B20AF161
:104600008C0A15D0B8F1000F06D0834202DA5B1C89
:104610001BB201E04FF0000826B91FB1012B01DDEC
:104620005B1E1BB23AF8141019442AF8141004E067
:104630003AF8142010442AF8140037481946643018
:1046400030F8240080B2FCF7FFFC334842F21072CD
:104650003C3050F8240005F800803AF914009042EC
:104660004CDB801A2AF814000EBB0098002840DDAD
:10467000461E29483146283830F8240080B2FCF71D
:10468000EBFCA7B95B4300E038E044F6206093FB05
:10469000F0F086420BDA204A00213C32012052F829
:1046A0002420A9541C49503151F8241068541B4847
:1046B000B9F1010F005D23D00121FCF7F7FBABF14D
:1046C00001011548143830F8240080B2FCF7C4FC0E
:1046D0001348124D90F828006D1D0028285D15D054
:1046E000FCF7D8FBC043C1B2285DBDE8F84FFCF72A
:1046F000DDBB0949002051F824106854BDE8F88F4B
:104700000021FCF7D3FB0BF10101DAE70121FCF7F3
:10471000CDFB285D0021E8E7A80200204801002029
:10472000000000202DE9F04117460E46804672B683
:1047300000240A4D09E0381941198B784A78295C20
:10474000404600F017F8E41C24B2B442F3DB62B632
:104750000A20BDE8F041FDF793B900003E030020B8
:1047600000B572B600F006F862B60A205DF804EBF8
:10477000FDF786B901EB022103EB012100F006BB36
:104780000349002081F82D008031886370470000C4
:1047900000000020024901F82C0F012048707047EA
:1047A00000000020084890F82D0000280AD0064993
:1047B0004EF660228031886B401C8863904201DD98
:1047C00000208863704700000000002030B50A4CCC
:1047D00000252574657400F011F800F0F5F8E57512
:1047E000FFF75AFD84F82150FFF7A6FEFFF7C8FF38
:1047F000BDE83040FFF7F6BD00000020074800216B
:10480000074A0160084600BFC0EBC003401CC0B2AD
:1048100002F813100428F7D370470000800000202E
:10482000CA010020F0B5104E0546DDF814C034680A
:104830000E4FE0B2641C3460C0EBC00607EB4604C8
:10484000E570012507F81650142626713C2666717E
:104850000026A671E57126726572A172E272237359
:1048600084F80DC0F0BD000080000020CA010020C7
:104870002DE9F04100252C4E2C4F50E0C5EBC50032
:1048800016F81010D1B306EB4004A078401CC0B25B
:10489000A070E178884240D30020A07094F9010014
:1048A000642190FBF1F201FB1200607060B1002105
:1048B00094F904208846904208DBA07A0021FCF796
:1048C000F5FAE07A00210AE00121F1E7B8F1000FE2
:1048D00007D0A179A07AFCF7E9FAE179E07AFCF750
:1048E000E5FA94F9010094F90510884207DB207B72
:1048F0000021FCF7DBFA607B002109E00DE0B8F154
:10490000000F07D0217A207BFCF7D0FA617A607B18
:10491000FCF7CCFA6078401C60706D1CEDB2386812
:104920008542ABDBBDE8F081CA0100208000002099
:10493000F0B505AF97E87000C0EBC007044800EB86
:104940004700017142718371C47105724672F0BDF6
:10495000CA01002070B500F024F8094C207C401CEE
:10496000C0B220740A280AD30025257400F00AF882
:10497000607C401CC0B260740A2800D3657470BDAE
:104980000000002010B5FFF773FFFFF793FCFFF75F
:1049900047FAFFF7DBFDFFF705FFBDE81040FFF723
:1049A00035BD00B500F022F800F05EF85DF804EBCC
:1049B000FFF758BD034B01225A7503F5A972115434
:1049C00070470000000000200749FF200870487071
:1049D0008870C870087148718871C871D239002018
:1049E00088608039487570475201002030B51848FA
:1049F000407D00282BD0164C803404F1D20561682C
:104A0000491C6160FA290AD0A268A85CFF281ED060
:104A1000104B53F822208A4219D1002113E0A068DC
:104A2000285CFF2802D00021FCF740FA00216160D9
:104A3000A068401CA060082800D1A160A068285C84
:104A4000FF2804D00121BDE83040FCF72FBA30BD6B
:104A5000000000200402002002490022CA740875E8
:104A6000704700000000002010B50B4CE07C0028CF
:104A70000FD0A06F0A30A067E16F884209DB401AAF
:104A8000A067A17C207DFCF711FAA07C10B100206A
:104A9000A07410BD0120FBE7000000200249C86798
:104AA0000120C87470470000000000202DE9F0418B
:104AB00000240F460646254672B60121FCF7F6F99A
:104AC0000120FCF7DDFF00213046FCF7EFF94CF246
:104AD000503602E06D1CB54204DA3846FCF748F95E
:104AE0000028F7D044F620653846FCF741F9012844
:104AF00008D062B604EB04104000C821B0FBF1F00E
:104B0000BDE8F0810120FCF7C9FF641CAC42EBD981
:104B1000EFE7000010B528B1C1B2BDE81040522047
:104B2000FBF715BF074C084A04F18003B4F84210A4
:104B3000505C491C89B25867515C9967FFF7B6FF12
:104B4000A06610BD000000203E0300201FB510200D
:104B5000ADF8020040F2CF20ADF804000020ADF81F
:104B6000000001210846FCF7B1FB4FF08044694684
:104B70002046FDF7FDF9012211462046FDF7A7F971
:104B800001212046FDF77FF91C208DF80C00012043
:104B90008DF80F0003A8FCF7DFFA00212046FDF78F
:104BA00075F91FBD01218807FDF770B900214FF08D
:104BB0008040FDF76BB9000070B5FBF733FF074D80
:104BC000002400BF05EB8420FBF7D8FE641CE4B290
:104BD0002C2CF7D3BDE87040FBF702BF0050000853
:104BE00070B50C460546FBF71DFF0748A1B22844E7
:104BF000FBF7FEFE0448210C801C2844FBF7F8FE5E
:104C0000BDE87040FBF7ECBE00500008074931F8E2
:104C1000102007490A8003228A700022CA700349C3
:104C2000623151F820000249FBF720BF52480020B2
:104C30004001002010B5A0F11001012901D8083869
:104C400004E0A0F12001052901D81638C0B20146C0
:104C50000348FCF75FF8C11700EB9170801010BD9E
:104C60000024014010B501465520FBF770FE0249B3
:104C7000002081F83D0010BD000000204FF0E02032
:104C80008069C04370474FF0E0208069C04370479F
:104C90001FB500910021ADF80410ADF80610ADF875
:104CA0000810ADF80C100C21ADF80A1001280AD03C
:104CB00002280DD0032805D1FEF75AFF69460748A0
:104CC000FDF7DAFA1FBDFEF7CBFE69460448F7E7A9
:104CD000FEF708FF69460348F2E70000004800407D
:104CE000003801400044004010B501280ED00228D1
:104CF00017D0032809D1104C2046FDF717FB40219F
:104D00002046FDF77AFA0028F9D010BD0B4C20465A
:104D1000FDF70CFB40212046FDF76FFA0028F9D083
:104D200010BD074C2046FDF701FB40212046FDF752
:104D300064FA0028F9D010BD004800400038014056
:104D40000044004010B5FCF71FF8FFF7FFFE4FF0DE
:104D5000E02005494161054AF02182F8141D002137
:104D600081610721016110BDFEFFFF000FE000E03F
:104D70004FF4E1310120FFF78BBF00000248416C86
:104D8000491C4164704700000001002070B5114EBD
:104D90000B460446002206F1620500BF55F82410B8
:104DA00036F812000861180207D455F8241036F8B6
:104DB00012004861FFF7E2FF06E0FFF7DFFF55F85A
:104DC000241036F812004861521C5B0052B2182AB7
:104DD000E4DB70BD5248002010B50E4C94F83D0045
:104DE000002816D0FEF792F9002812D094F835006A
:104DF00058B1FDF73DF900280BD00020FCF7E0F892
:104E000000B9642080B2FDF71FF9BDE8104000F042
:104E100019B810BD0000002010B562B6FCF74AFAC0
:104E2000FFF790FF05490020486480390448C866B0
:104E3000FDF7FAF8BDE81040FCF75EB880000020EE
:104E4000005000080C4810B590F8351051B190F89A
:104E5000361039B1002180F837101120FDF7C6FA5D
:104E6000FDF7DAFA054C00BFFDF740FB207900287A
:104E7000FAD00020207110BD000000203E03002069
:104E80004350553A53544D333246313033433854FE
:104E9000362C465245513A64656661756C742C43F4
:104EA000433A3000C44E0008000000208401000096
:104EB0008E020008DC4E000884010020F44B000044
:104EC0009830000801FF017355020406081D010215
:0C4ED000030401020304060708090000A7
:0400000508000131BD
:00000001FF
