:020000040800F2
:10000000001E002065010008DD110008690A0008D3
:10001000D90E0008B90400080D23000800000000F4
:10002000000000000000000000000000A51900080A
:10003000F1080008000000002D130008611E0008F0
:100040007F0100087F0100087F0100087F01000890
:100050007F0100087F0100087F0100087F01000880
:100060007F0100087F0100087F0100087F01000870
:100070007F0100087F0100087F0100087F01000860
:100080007F0100087F010008000000008D200008AB
:100090007F0100087F0100087F0100087F01000840
:1000A0007F0100087F0100087F010008FD21000892
:1000B0007F010008000000007F0100080000000030
:1000C0007F010008000000007F0100080000000020
:1000D0000000000000000000000000000000000020
:1000E00000000000000000007F0100080000000088
:1000F0000000000000000000000000000000000000
:100100007F01000800000000000000000000000067
:1001100000000000000000000000000000000000DF
:1001200000000000000000000000000000000000CF
:1001300000000000000000000000000000000000BF
:100140000000000000000000000000007F01000827
:10015000DFF80CD000F07AF800480047714400083E
:10016000001E00200648804706480047FEE7FEE7DD
:10017000FEE7FEE7FEE7FEE7FEE7FEE7FEE7FEE757
:10018000C91F0008510100082DE9F0410024061B99
:10019000254671F1000605DA01240027D0EB07009F
:1001A00067EB0101161E73F1000605DA0027D2EB9A
:1001B0000702012567EB030300F017F886460E4699
:1001C00017469C46AC4204D00025D0EB050E65EBEB
:1001D000010624B10020D2EB000760EB030C70464F
:1001E00031463A466346BDE8F0812DE9F05F0546A9
:1001F000002092469B4688460646814640241BE0E6
:10020000284641464746224600F041F853465A46A2
:10021000C01A914110D311461846224600F028F822
:100220002D1A67EB01084F4622460120002100F0FD
:100230001FF817EB00094E41201EA4F10104DFDC7A
:10024000484631462A464346BDE8F09F064C074DD6
:1002500006E0E06840F0010394E807009847103496
:10026000AC42F6D3FFF778FFB0740008D0740008F2
:10027000202A04DB203A00FA02F100207047914066
:10028000C2F1200320FA03F3194390407047202A5B
:1002900004DB203A21FA02F00021704721FA02F330
:1002A000D040C2F12002914008431946704730B552
:1002B0008C1810F8012B12F00F0301D110F8013B3C
:1002C000120906D110F8012B03E010F8015B01F8C8
:1002D000015B5B1EF9D101E001F8013B521EFBD12D
:1002E000A142E6D3002030BD38B50446092C71D2B6
:1002F000DFE804F0053B5A65717C91A6BD006449B6
:10030000088800F021FE6349086061490988891C5A
:1003100088B200F06BFE604908605D490988891D5C
:1003200088B200F023FE5D490860594909880A3106
:1003300088B200F01BFE5A490860554909880E3101
:1003400088B200F001FE574908600846008800B2F4
:10035000009053480368514802684F4801684D486F
:10036000008800B205F080F990E04949088800F063
:10037000EBFD4D49086046490988491C88B200F0E8
:1003800035FE4549086042490988891C88B200F059
:10039000EDFD464908600B461A783F4B1978424BF1
:1003A000187805F053F971E03949088800F0DEFD4E
:1003B000384908600846006805F042F966E03449AB
:1003C000088800F0D3FD334908600846006805F04E
:1003D00031F95BE055E02E49088800F0C7FD2D4952
:1003E00008600846006805F01FF94FE028490888B2
:1003F00000F0BCFD2749086025490988091D88B21D
:1004000000F0B4FD2A4908600846016821480068E8
:1004100005F0A6F93AE01E49088800F0A7FD1D493D
:1004200008601B490988091D88B200F09FFD20491A
:100430000860084601681748006805F03BF925E0A8
:100440001349088800F092FD124908601049098894
:10045000091D88B200F08AFD154908600846016848
:100460000C48006805F042F9124908600EE008499E
:10047000088800F0CFFD0C490860087805F0BEF848
:1004800004E0E1B2522000F034FA00BF00BF38BDF2
:100490000000002054010020300100205C010020F9
:1004A00060010020640100202C01002034010020A4
:1004B000580100200400002000BFFEE72DE9F047AE
:1004C00004460D4600261CE02778641C94F8008042
:1004D000641C94F80090641C94F800A0641C4FEA1B
:1004E000082000EB094000EB0A6007443946074842
:1004F000006806F0DDFD05480068001D034908603E
:10050000361DAE42E0D3BDE8F08700009401002024
:1005100010B500200249086006F0AEFD10BD0000D5
:100520009401002010B5044600200D490860AA205F
:1005300005F05DF8022005F05AF8002005F057F8A4
:10054000F32005F054F80748007805F050F806F05D
:10055000AEFD00F097FC00200349087010BD0000BC
:1005600088010020910100209001002010B5044670
:1005700014B1012C25D116E01549088800F04AFD78
:100580001449086012490988491C88B200F042FDEC
:10059000114908600A4611780E4A107805F092F960
:1005A0000E49086012E00A49088800F0F3FC0C4983
:1005B00008600846007840B205F0C0F907490860B5
:1005C00004E0E1B2522000F094F900BF00BF10BD7A
:1005D000000000202C010020300100200400002039
:1005E0005401002010B504465CB90949088800F0A0
:1005F00011FD08490860087805F006FA0649086008
:1006000004E0E1B2522000F074F900BF00BF10BD59
:10061000000000202C0100200400002010B504463A
:1006200024B1012C0CD0022C2BD11EE018490888D3
:1006300000F0F0FC17490860087805F097FA25E00B
:100640001349088800F0E6FC12490860104909883F
:10065000491C88B200F0DEFC0F4908600A46117898
:100660000C4A107805F0A8FA10E00949088800F053
:1006700091FC08490860087805F045FA07490860C8
:1006800004E0E1B2522000F034F900BF00BF10BD19
:10069000000000202C010020300100200400002078
:1006A00030B504460D462946204605F01FF830BDFA
:1006B00010B5044631480068401C304908600846BF
:1006C0000068012804D1AA2C01D00020086010BDC8
:1006D0002A480068022802D129480480F7E7274801
:1006E0000068032806D12648008800EB042024492E
:1006F0000880ECE721480068042801D121480470F3
:100700002148007858B11F480078FF2803D11C48C1
:100710000088012803D0002018490860D7E719484D
:100720000078F22812D004DCF02807D0F12819D183
:1007300008E0F3280ED0FF2814D10FE0204601F086
:1007400003FA18E0204601F03BFB14E0204600F0DD
:1007500055FE10E02046FFF7E5FE0CE0204603F0D2
:100760005FFA08E007480178502000F0C2F8002046
:100770000249086000BF00BF00BFA8E78801002051
:100780008E0100208C0100208001002070B50446FD
:100790000D461A2C6ED2DFE804F06D0D1115191DEF
:1007A0002125292D3135393D4145494D5155595D59
:1007B00061656D69284600F07BFE63E0284600F025
:1007C00055F95FE0284601F009F85BE0284600F0A3
:1007D00045FF57E0284601F01FFA53E0284600F095
:1007E00057FC4FE0284601F06FF94BE0284601F036
:1007F000A9F847E0284603F0A5FA43E0284603F0AD
:100800006FFA3FE02846FFF709FF3BE02846FFF775
:10081000E9FE37E0284600F013FB33E0284606F0F7
:100820003BFB2FE02846FFF7A1FE2BE02846FFF711
:100830005BFD27E0284600F085F823E0284600F01D
:10084000C3F81FE0284601F0EFFC1BE0284601F04A
:1008500011FA17E0284600F0E9FC13E0284600F002
:1008600027FD0FE0284603F0ABFA0BE0284601F025
:1008700047F807E0E1B2522000F03BF800200249BF
:10088000087000BF00BF70BD8001002070B5044635
:10089000250AE6B21DB9F0B201F0E4FA0AE0C82D6B
:1008A00004D231462846FFF771FF03E0314628465F
:1008B00006F08AFC70BD10B50446AA2004F097FE2D
:1008C000052004F094FE002004F091FEFD2004F0C9
:1008D0008EFEE0B204F08BFEC4F3072004F087FE26
:1008E000C4F3074004F083FE200E04F080FE10BD28
:1008F000704770B504460D46AA2004F078FE032028
:1009000004F075FE002004F072FEFE2004F06FFE7D
:10091000E0B204F06CFEE8B204F069FE70BD4FF482
:10092000F0407047014602480068405C7047000094
:100930000800002001460248006840587047000047
:100940000800002010B50446012C2AD11849088857
:1009500000F060FB1749086015490988491C88B2F6
:1009600000F044FB1449086011490988491D88B208
:1009700000F0FCFA114908600D490988093188B274
:1009800000F0F4FA0E4908600A4908780C490B682F
:100990000A490A680849096805F034F909490860F4
:1009A00004E0E1B25220FFF7A4FF00BF00BF10BD7A
:1009B000000000202C010020300100205401002004
:1009C000580100200400002038B50446012C37D11E
:1009D0001F49088800F0DEFA1E4908601C49098892
:1009E000491C88B200F002FB1B49086018490988BD
:1009F000491D88B200F0DAFA1849086014490988DC
:100A0000C91D88B200F0A0FA15490860104909888C
:100A1000093188B200F098FA124908600846008847
:100A200000B200900D48008882B20D48008803B2E1
:100A3000094801680748007840B205F0ABF904E0C6
:100A4000E1B25220FFF755FF00BF00BF38BD0000E4
:100A500000000020540100202C0100203001002063
:100A6000580100205C01002000BFFEE72DE9F041A5
:100A700004460027B84624B1012C17D0022C52D1CD
:100A800022E02D49088800F0C5FA2C4908602A495F
:100A90000988491C88B200F0BDFA294908600A4655
:100AA0001178264A107804F059FA41E02249088862
:100AB00000F070FA234908600846007840B22249E5
:100AC000087004F0F1F933E01B49088800F08EFA51
:100AD0001A4908600027084600881FFA80F8002598
:100AE0001EE007F1B001C8B204F041FA16490878D7
:100AF00004F03DFA102004F03AFA781CC7B2002640
:100B00000AE0124911F8080004F041FA08F1010066
:100B10001FFA80F8701CC6B2802EF2DB681CC5B2CA
:100B2000082DDEDB04E0E1B25220FFF7E2FE00BF59
:100B300000BFBDE8F0810000000000202C01002073
:100B400030010020540100207E01002062030020BB
:100B500070B504460D46E5B91C4951F824301C49CE
:100B600051F824000122002103F0FDFB174951F840
:100B70002430174951F824000322002103F022FCFD
:100B8000124A52F82410124A52F8240003F0DFFBF4
:100B90001BE00E4951F824300D4951F82400002281
:100BA000012103F0E0FB094951F82430084951F8CC
:100BB00024000322002103F005FC044A52F824100B
:100BC000034A52F8240003F0C2FB70BD0018002055
:100BD0000019002010B50446044A52F82410044AB3
:100BE00052F8240003F0B7FB10BD000000180020ED
:100BF0000019002010B501206A49086002204860F1
:100C0000042088600820C860102008612020486106
:100C1000402088618020C86140000862400048622E
:100C2000400088624000C86240000863400048639A
:100C3000400088634000C8630120086402204864C3
:100C4000042088640820C8641020086520204865B6
:100C5000402088658020C8654000086640004866DE
:100C6000400088664000C86640000867400048674A
:100C7000400088674000C8670120C1F8800002205A
:100C8000C1F884000420C1F888000820C1F88C0055
:100C90001020C1F890002020C1F894004020C1F835
:100CA00098008020C1F89C004000C1F8A0004000DE
:100CB000C1F8A4004000C1F8A8004000C1F8AC0091
:100CC0004000C1F8B0004000C1F8B4004000C1F8D5
:100CD000B8004000C1F8BC000120C1F8C0000220EB
:100CE000C1F8C4000420C1F8C8000820C1F8CC0035
:100CF0001020C1F8D0002020C1F8D4004020C1F855
:100D0000D8008020C1F8DC004000C1F8E0004000BD
:100D1000C1F8E4004000C1F8E8004000C1F8EC0070
:100D20004000C1F8F0004000C1F8F4004000C1F8F4
:100D3000F8004000C1F8FC0000242BE0102C09DA78
:100D40004FF09040184941F8240040F2115003F050
:100D50006BFE1DE0202C08DA1448134941F82400EA
:100D600040F2125003F060FE12E0302C08DA104816
:100D70000D4941F8240040F2135003F055FE07E0FE
:100D80000C48094941F8240040F2145003F04CFE8D
:100D9000601CC4B2402CD1DB03F03CFE03F0A8F889
:100DA00010BD0000001800200019002000040048B9
:100DB00000080048000C004810B50446044A52F8E8
:100DC0002410044A52F8240003F0F4FA10BD000085
:100DD000001800200019002070B504460D4645B9E2
:100DE000084A52F82410084A52F8240003F0AFFAD7
:100DF00007E0044A52F82410034A52F8240003F092
:100E0000A8FA70BD0018002000190020034951F80D
:100E10002010034A52F820209162704700180020E9
:100E200000190020034951F82010034A52F82020ED
:100E300091617047001800200019002070470000E1
:100E400010B5044614B1012C0FD109E00A490888F5
:100E500000F0E0F809490860087805F01BF809E09F
:100E600005F040F80649086004E0E1B25220FFF7BF
:100E700040FD00BF00BF10BD000000202C0100207D
:100E80000400002010B505F001FC01F059F906F04E
:100E90000DF906F0C9F901F09FFA00200B4908701E
:100EA0000B490870FFF746FD0446E4B2032C0CD151
:100EB00001200749087000200649086001F00AF97E
:100EC0000A2001F00FF906F0C7F810BD81010020DB
:100ED000800100208401002000BFFEE7002003E025
:100EE0000021044A1154401C41F288318842F7D352
:100EF000704700006203002000B50346581CFFF74E
:100F000011FD02464FF6FF7000EA02221846FFF775
:100F100009FD104482B2104600BD00B50346D81C3E
:100F2000FFF700FD02461202981CFFF7FBFC02448B
:100F30001202581CFFF7F6FC024412021846FFF793
:100F4000F1FC0244104600BD0146064B4A1C985C69
:100F500000021A46525C104400F400420AB1024AF0
:100F600010437047620300200000FFFF0146084B5A
:100F7000CA1C985C00028A1C9A5C104400024A1C3D
:100F80009A5C104400021A46525C104470470000FC
:100F9000620300200146044A505C00F080020AB15E
:100FA00060F0FF0070470000620300200146064B1E
:100FB0004A1C985C4FF6FF7202EA00201A46525C07
:100FC000024490B270470000620300200146064BC5
:100FD0008A1C985C00024A1C9A5C104400021A4663
:100FE000525C104470470000620300200146084B29
:100FF000CA1C985C00028A1C9A5C104400024A1CBD
:101000009A5C104400021A46525C1044704700007B
:101010006203002001460148405C704762030020E3
:1010200030B50A46034C2254120A2546431CEA54A2
:1010300030BD00006203002030B502460846064C71
:10104000A054000A2546531CE854000A931CE85497
:10105000000AD31CE05430BD6203002010B5034BDE
:10106000195409121C46421CA15410BD62030020F1
:1010700010B5064B1954090A1C46421CA154090A12
:10108000821CA154090AC21C995410BD620300209D
:101090003EB5044614B1012C7ED135E0454908889F
:1010A000FFF764FF4449086042490988091D88B276
:1010B000FFF7B0FF414908603E490988491D88B2E1
:1010C000FFF7A8FF3E4908603A490988891D88B2A0
:1010D000FFF7A0FF3B49086036490988C91D88B25F
:1010E000FFF798FF384908600846007800903548B7
:1010F000037833480278314801782F48006805F0BA
:10110000F9FA3249086052E02A490888FFF782FF5D
:101110002A49086027490988491C88B2FFF77AFFE5
:101120002749086023490988891C88B2FFF772FFA4
:10113000244908601F490988C91C88B2FFF76AFF63
:10114000214908601B490988091D88B2FFF762FF21
:101150001F49086017490988491D88B2FFF75AFFDF
:101160001C49086013490988891D88B2FFF752FF9E
:10117000194908600846007816490978144A127817
:10118000CDE90021029010490B780C4908780D49EF
:1011900009784AB20A4900E004E0097849B205F04A
:1011A000DDFB04E0E1B25220FFF7A3FB00BF00BF6C
:1011B0003EBD000000000020540100202C01002052
:1011C00030010020340100203801002004000020FC
:1011D0003C01002040010020440100207047000035
:1011E00010B501210E480078FFF7B2FC01210D482F
:1011F0000078FFF7ADFC01210B480078FFF7A8FC51
:10120000012107480078FFF7E7FD01210548007834
:10121000FFF7E2FD002104480078FFF7DDFD10BD77
:1012200028000020290000202A00002010B50446D4
:1012300014B1012C2BD11EE018490888FFF7EAFEF3
:101240001749086015490988491C88B2FFF7E2FE72
:101250001449086011490988891C88B2FFF7DAFE31
:10126000114908600B461A780E4B19780C4B187808
:1012700004F0BAFE10E009490888FFF7CBFE0849E0
:101280000860087804F0BEFE0849086004E0E1B296
:101290005220FFF72EFB00BF00BF10BD0000002052
:1012A0002C01002030010020340100200400002027
:1012B00010B5044614B1012C29D109E0174908885A
:1012C000FFF7A8FE16490860087805F032FF23E012
:1012D00012490888FFF79EFE114908600F490988E6
:1012E000491C88B2FFF742FE0E4908600B49098885
:1012F000491D88B2FFF73AFE0B4908600849087893
:1013000009490A680749096805F012FF04E0E1B2DB
:101310005220FFF7EEFA00BF00BF10BD0000002012
:101320002C010020580100205C01002070470000C3
:101330000020044908600449087004490870044901
:1013400008707047880100208C0100209101002066
:101350009001002070B50446E5B2C4F30726012EC3
:1013600004D0022E08D0042E12D10BE02846FFF73D
:1013700023FD0B49086010E02846FFF72BFC0849C5
:1013800008600AE0284605F0BDFE0549086004E053
:1013900001215320FFF7ADFA00BF00BF70BD000070
:1013A000040000202DE9F04105460C46EEB2C5F3DD
:1013B000072737B1012F09D0032F0CD0042F14D1E8
:1013C0000EE0E1B23046FFF7C3FB13E0E1B2304676
:1013D000FFF702FD0EE0E1B23046FFF72FFD09E016
:1013E000E1B2304605F07CFE04E001215320FFF716
:1013F00080FA00BF00BFBDE8F08100002DE9F04198
:10140000054619480068042801D1BDE8F081164856
:101410000068052802D115480580F6E712480068E3
:1014200006281ED11148007805EB002086B2002066
:101430000D490860AA2004F0DAF8012004F0D7F87A
:10144000012004F0D4F8F22004F0D1F8002406E0E2
:101450003019FFF767FA074604F0C9F8641CFF2C3F
:10146000F6D900BFD1E70000880100209A010020D2
:101470000548008800F4004028B10348006803498B
:101480000843014908607047040000200000FFFF86
:10149000704700000548007800F0800028B103483C
:1014A000006860F0FF0001490860704704000020F8
:1014B0002DE9F84304460027B84634B1012C40D04A
:1014C000022C4CD0032C79D179E05A490888FFF7D7
:1014D000A1FD5949086057490988491C88B2FFF79E
:1014E00099FD5649086053490988891C88B2FFF75D
:1014F00091FD534908604F490988C91C88B2FFF71C
:1015000089FD504908604B490988091D88B2FFF7D9
:1015100081FD4D49086008460078DFF828C1009039
:101520009CF80030DFF818C19CF80020DFF80CC1EF
:101530009CF80010DFF800C19CF8000003F040FCAC
:1015400075E03C490888FFF725FD404908600846DA
:10155000007840B23E49087003F072FB67E03549FD
:101560000888FFF743FD34490860002708460088D3
:101570001FFA80F800251EE007F1B001C8B203F0A1
:1015800037FC3349087803F033FC102003F030FCBB
:10159000781CC7B200260AE02E4911F8080003F0B3
:1015A00055FC08F101001FFA80F8701CC6B2802EAD
:1015B000F2DB681CC5B2082DDEDB38E032E01D49E5
:1015C0000888FFF7C1FC214908601A490988891C6D
:1015D00088B2FFF7B9FC1E4991F9001008441E4972
:1015E000086014490988091D88B2FFF713FD1249E4
:1015F000086016490978B031C8B203F0F9FB164902
:10160000097801F00F0003F0F3FB13490978C1F3E7
:10161000031141F0100003F0EBFB0749087803F0D9
:1016200015FC04E0E1B25220FFF763F900BF00BFF0
:10163000BDE8F883000000202C01002030010020CC
:1016400034010020380100203C010020540100201A
:101650007D010020620300205801002070B504467F
:10166000072C78D2DFE804F0042D42576C788E0006
:1016700053490888FFF7CEFC524908605049098851
:10168000491C88B2FFF7C6FC4F4908604C490988DD
:10169000891C88B2FFF7BEFC4C490860484909889C
:1016A000C91C88B2FFF7B6FC494908600D462B7883
:1016B000464D2A78444D2978424D287803F046FE5D
:1016C0007BE03F490888FFF751FC424908603C49EC
:1016D0000988091D88B2FFF749FC3F4908600846A0
:1016E00001683C48006803F063FC66E03449088800
:1016F000FFF73CFC3749086031490988091D88B269
:10170000FFF734FC34490860084601683148006836
:1017100003F0DCFD51E02A490888FFF727FC2D493A
:10172000086027490988091D88B2FFF71FFC2A496C
:101730000860084601682748006803F09DFD3CE00A
:101740001F490888FFF732FC1E490860098888B2E3
:1017500003F020FD31E02BE019490888FFF726FC53
:101760001849086016490988891C88B2FFF752FC9D
:10177000154908600A461178124A128890B203F09F
:10178000D9FD1AE00E490888FFF710FC0D490860E2
:101790000B490988891C88B2FFF73CFC0A4908609C
:1017A0000A461178074A128890B203F0B9FD04E0A6
:1017B000E1B25220FFF79DF800BF00BF70BD0000EE
:1017C000000000202C010020300100203401002006
:1017D0003801002054010020580100202DE9F0417B
:1017E00006464FF470744FF0800826B1012E21D0C8
:1017F000022E6FD12CE03B490888FFF70BFC3A49D9
:10180000086038490988491C88B2FFF703FC37494A
:10181000086034490988891C88B2FFF7FBFB34490A
:1018200008600B461A78314B19782F4B187803F063
:10183000D1FD54E02B490888FFF7ACFB2D49086027
:101840000846007840B22C49087003F091FD46E04C
:1018500024490888FFF7CAFB234908604FF47074D5
:101860004FF08008002731E0404603F0C1FD8020A2
:1018700003F0BEFD00250BE01B49096821441F4A07
:10188000505C03F005FEA4F1400084B2681CC5B2B0
:10189000102DF1DB04F5846084B200250BE01249C1
:1018A00009682144154A505C03F0F2FDA4F14000A0
:1018B00084B2681CC5B2102DF1DB04F2E13084B2B1
:1018C00008F1010000F0FF08781CC7B2202FCBDB25
:1018D00005E0FFE7F1B25220FFF70BF800BF00BFB1
:1018E000BDE8F081000000202C0100203001002024
:1018F00034010020540100207F01002062030020F9
:1019000010B5044614B1012C0FD109E00A4908882A
:10191000FFF780FB09490860087804F0D3FB09E071
:1019200004F0ACFB0649086004E0E1B25220FEF787
:10193000E0FF00BF00BF10BD000000202C01002010
:101940000400002010B50446E4B912490888FFF7E6
:1019500061FB114908600F490988491C88B2FFF7EB
:1019600005FB0E4908600B490988491D88B2FFF73D
:1019700051FB0B4908600A461178074A107804F0B9
:10198000CDFB04E0E1B25220FEF7B3FF00BF00BF81
:1019900010BD0000000000202C0100205401002098
:1019A000300100207047000070B505460021444812
:1019B0000078FFF711FA02F009FC01214148007894
:1019C000FFF70AFA02F002FC00213E480078FFF718
:1019D00003FA02F0FBFB002417E005F08001384811
:1019E0000078FFF7F9F96806050E012135480078FF
:1019F000FFF7F2F902F0EAFB002132480078FFF726
:101A0000EBF902F0E3FB601CC4B2042CE5DB00211F
:101A10002B480078FFF7E0F902F0D8FB00240FE034
:101A2000012128480078FFF7D7F902F0CFFB002109
:101A300024480078FFF7D0F902F0C8FB601CC4B25C
:101A4000042CEDDB002417E005F080011C48007831
:101A5000FFF7C2F96806050E01211A480078FFF762
:101A6000BBF902F0B3FB002116480078FFF7B4F988
:101A700002F0ACFB601CC4B2042CE5DB0021104872
:101A80000078FFF7A9F902F0A1FB00240FE0012183
:101A90000C480078FFF7A0F902F098FB00210948F4
:101AA0000078FFF799F902F091FB601CC4B2042C96
:101AB000EDDB012102480078FFF78EF970BD0000D0
:101AC000290000202A00002010B5044614B1012C82
:101AD0002AD114E018490888FFF79CFA17490860D2
:101AE00015490988491C88B2FFF794FA144908601F
:101AF0000A461178114A107804F096FF19E00E4951
:101B00000888FFF787FA0D4908600B490988491CC6
:101B100088B2FFF72BFA0B49086008490878094991
:101B2000096804F08BFF04E0E1B25220FEF7E1FE09
:101B300000BF00BF10BD0000000000202C010020ED
:101B4000300100205401002010B5044615480068FB
:101B5000042800D110BD13480068052802D112489E
:101B60000480F7E70F480068062818D10E4800885F
:101B700000EB04200C49088000200A4908600B494A
:101B80000870FEF7C5FCAA2003F031FD012003F028
:101B90002EFD002003F02BFDF02003F028FD00BFF8
:101BA000D8E7000088010020980100209101002062
:101BB00000B50246002308E000F0A6FA00BF00F0DE
:101BC0006FFA03460A2BFAD3521E002AF4DC00BD3A
:101BD00000B50246002300F097FA00BF00F060FA5B
:101BE00003469342FAD300BD0020014908607047C4
:101BF000C800002000B50246002309E000F084FA86
:101C000000BF00F04DFA0346B3F57A7FF9D3521EB8
:101C1000002AF3DC00BD000010B5044624B1012CFD
:101C20000CD0022C18D114E00F490888FFF7F2F904
:101C30000E490860087804F077FF12E00A49088826
:101C4000FFF794F90A4908600846006804F0AAFF03
:101C500007E004F0B1FF04E0E1B25220FEF749FED4
:101C600000BF00BF10BD0000000000202C010020BC
:101C70005401002010B586B0044624B1012C17D0C1
:101C8000022C75D175E044490888FFF7C3F9434930
:101C9000086041490988491C88B2FFF7BBF94049EF
:101CA00008600A4611783D4A107804F027FB6FE07F
:101CB00039490888FFF76EF93849086036490988BC
:101CC000091D88B2FFF792F9354908603249098841
:101CD000083188B2FFF78AF9324908602E4909882D
:101CE0000C3188B2FFF782F92F4908602A49098828
:101CF000103188B2FFF77AF92C4908602649098823
:101D0000143188B2FFF772F929490860224909881D
:101D1000183188B2FFF76AF9264908601E49098818
:101D20001C3188B2FFF762F9234908601A49098813
:101D3000203188B2FFF75AF9204908600846006848
:101D40001D4909681B4A1268194B1B68CDE901320D
:101D5000CDE9031015480068009013480368114846
:101D600002680F4801680D48006804F03DFA0FE072
:101D700009E009490888FFF74DF908490860087823
:101D800004F0B6FA04E0E1B25220FEF7B2FD00BF63
:101D900000BF06B010BD0000000000202C01002094
:101DA0003001002034010020380100203C010020D7
:101DB0004001002044010020480100204C01002087
:101DC00010B504461B480068042808D11A4800884A
:101DD000401E1A49086000201949086010BD1948C2
:101DE000007860401749087017481549096844543D
:101DF00013480068401C12490860084600680F49F3
:101E00000968884213D100200A4908600C4801681B
:101E10000D48FEF753FBAA2003F0E9FB012003F075
:101E2000E6FB002003F0E3FBF12003F0E0FB00BF42
:101E3000D4E70000880100208E0100209C010020D2
:101E4000A001002091010020FE1600200146002084
:101E500002E0491C421CD0B20A78002AF9D170472E
:101E60007047000070B504460F2C7DD2DFE804F007
:101E7000960896222D42969696964D5C966793000C
:101E80004A490888FFF772F84949086047490988B4
:101E9000091D88B2FFF7BEF846490860444800684B
:101EA000112804D1084600784349087000E000BFBB
:101EB00000BF79E03D490888FFF798F83C49086081
:101EC00008460068FEF7F7FC6EE038490888FFF71F
:101ED0008DF83A49086035490988091D88B2FFF72D
:101EE00085F8344908600846016834480068FFF7FF
:101EF00059FA59E02D490888FFF778F82F4908600A
:101F000008460068FFF726FA4EE028490888FFF7E0
:101F100081F82A490860002501E0681CC5B22748FD
:101F200000688542F9D33FE020490888FFF772F83E
:101F30002249086008460068FFF73AFE34E01B4972
:101F40000888FFF753F81D49086018490988091DDA
:101F500088B2FFF74BF8174908601449098808311F
:101F600088B2FFF723F800E018E0154908600F4930
:101F700009880A3188B2FFF739F812490860104819
:101F8000008882B2084603680A4801680B48006866
:101F900002F07CFD08E002F077FD05E0A4F13701D6
:101FA000C8B205F0C7F800BF00BF70BD0000002038
:101FB0005401002030010020240100202C010020C9
:101FC000340100203801002010B52A48006840F490
:101FD0007000284908602848006840F00100264940
:101FE000086000BF2448006800F002000028F9D013
:101FF00021484068214908401F4948600846406818
:102000001F4908401C494860084600681D490840AF
:10201000194908600846C06A1B4908401649C86249
:102020000846006B40F203118843134908630846D1
:10203000006B20F4803008630846006B20F00040FD
:1020400008630846406B20F0010048630A48C0302E
:10205000006820F48030C1F8C00000208860064984
:10206000CC31086004F04AFE00214FF0006002F01D
:1020700065FA10BD88ED00E0001002400C00FF087A
:10208000FFFFC277FFFFF2FEF0FFFF3F10B5012117
:10209000024804F0FDFE04F087FC10BD0020004063
:1020A00000B505F06DF805490968401A20F07F4138
:1020B00005F06BF8B1FBF0F000BD0000C800002097
:1020C000002002490860024908607047C0000020F3
:1020D000C400002000B505F049F80149086000BDC2
:1020E000C400002000B5014605F046F84843044A04
:1020F00010600448006812681044024A106000BD75
:10210000C0000020C400002000B505F039F80149E6
:10211000086000BDC800002000B505F027F8064A99
:102120001268101A20F07F4104480068814201D9EA
:10213000012000BD0020FCE7C4000020C0000020FA
:10214000002000BF0AE00021064A22F81010064ACB
:1021500022F81010054A1154411CC8B20A28F2DBBB
:1021600070470000BC010020D0010020E4010020E5
:1021700070B504460E46601C44B2104830F9140095
:1021800000281ADD0E4931F81400FEF7DDFE05B215
:102190000C4830F8140028440B490E54681C05B252
:1021A000064830F91400A84200DC0025044931F843
:1021B00014002946FEF734FF00BF70BDBC010020AB
:1021C000D0010020A80100206203002030B5441C8B
:1021D00060B2064D25F81010054C24F81020054D6E
:1021E00025F810300124044D2C5430BDA8010020E6
:1021F000BC010020D0010020E401002010B50849F6
:10220000084804F0FCFE50B1064804F0ADFEC4B22C
:102210002046FEF74DFA21460020FFF7A9FF10BD2A
:10222000050005070038014010B5044624B1012C13
:102230002DD0022C57D140E02E490888FEF7AAFE87
:102240002D4908602B490988491C88B2FEF7CEFE4B
:102250002A49086027490988491D88B2FEF774FE9B
:102260002749086023490988C91D88B2FEF77EFE08
:1022700024490860084603682148008802B21F48C4
:1022800001681D48007840B2FFF7A0FF30E019490F
:102290000888FEF77FFE1849086016490988491C1E
:1022A00088B2FEF763FE18490860084601681248C4
:1022B000007840B204F06BFF1AE00E490888FEF780
:1022C00069FE0D4908600B490988491C88B2FEF770
:1022D000A1FE0A490860084601780748007840B224
:1022E00004F05EFF04E0E1B25220FEF702FB00BF03
:1022F00000BF10BD0000002054010020300100206C
:102300005C010020600100205801002000BFFEE7B2
:102310000749084A1278885406490978491C054A31
:10232000117011460978142901D1002111707047EC
:10233000EA1600202701002000200149087070479C
:102340002601002010B51D4A12781D4B1B789A42B9
:1023500033D01C4A10681C4B1C4C248818551B4A4F
:102360001288521E194B1A80000A174B174C2488EA
:102370001855164A1288521E144B1A80000A124B26
:10238000124C24881855114A1288521E0F4B1A807D
:1023900000220F4B1A700F4A084B1B78D15C8A0041
:1023A000084B1A60054A1278521C044B1A701A46E0
:1023B0001278142A01D100221A7010BD28010020C1
:1023C00027010020DC00002062030020E400002040
:1023D00025010020EA16002000B5002023490860EE
:1023E000234908802349088023490880234908801D
:1023F000234908802349088023490860234908604D
:1024000041F2873022490880002022490870224981
:102410000870224908802249088022490860224920
:102420000860224908702249087022490880224920
:102430000880224908602249086022490860224930
:102440000860224908602249086022490870224930
:10245000086022490870FEF741FD002020490870FD
:10246000204908702049087000BD0000DC000020F1
:1024700000000020E0000020E2000020CC0000204E
:10248000CE000020D0000020D4000020D800002082
:10249000E4000020E6000020E7000020E800002023
:1024A000EA000020EC000020F0000020F4000020F2
:1024B000F5000020F6000020F8000020FC000020BD
:1024C0000001002004000020040100200801002079
:1024D0000C01002025010020200100202401002003
:1024E0002601002027010020280100202DE9F04FBF
:1024F00085B004200849086008480068FEF71AFA09
:1025000004900498C0B203900498040A0398F02839
:1025100081F0608304E0000020010020DC00002046
:10252000810000BF794449688F440000C403000063
:10253000C6030000E8030000EE0300001A040000D8
:10254000760400006A040000FA0300000E04000094
:10255000A81600006C0600009E060000C0030000E4
:10256000BA040000EC040000540500000407000059
:102570002007000032070000AA0B0000C00B00007B
:10258000EC0B0000080C00002C0C0000A81600004A
:10259000C60C0000340D0000340E00003A0F00009D
:1025A0002E10000074100000BA100000001100008E
:1025B00046110000601100003612000052120000A7
:1025C0006E120000A81600008E120000A812000073
:1025D000CE120000F4120000401300006C13000043
:1025E000A81600009A1300001A1300001012000031
:1025F000241200008A160000C0130000F01300002F
:10260000061400001C1400002E14000040140000EA
:10261000541400008C140000C814000000150000C1
:102620008615000044150000280800002E08000050
:10263000A816000034080000C6150000DE150000D2
:10264000F615000026160000A8160000401600002F
:102650000E16000058160000A816000072160000A2
:10266000A8160000A8160000A8160000A816000072
:102670003E07000066070000A81600009007000053
:10268000F807000006080000A8160000180800005F
:10269000360A0000400A00004A0A0000540A0000FE
:1026A000A8160000600A00006C0A0000780A00000A
:1026B000A8160000840A0000900A00009A0A000090
:1026C000A40A0000AE0A0000A8160000BA0A000022
:1026D000C60A0000D20A0000A8160000DE0A0000A8
:1026E000DA090000E4090000EE090000020A000017
:1026F000A81600001E0A0000F8090000100A0000D9
:10270000A81600002A0A0000C6080000D60800002B
:10271000E6080000F6080000A816000008090000FE
:102720001A0900002C090000A81600003E0900004C
:1027300050090000600900007009000080090000D5
:10274000A816000092090000A4090000B6090000C4
:10275000A8160000C80900003A0800004A08000056
:102760005A0800007A080000A8160000B40800000B
:102770006A0800008E080000A8160000A2080000E9
:10278000C8060000DA060000F2060000EC060000B1
:10279000140C0000A8160000200C0000580C0000CB
:1027A0006E0C0000A8160000860C0000960C0000BD
:1027B000A60C0000A8160000B60C0000DC0C0000FF
:1027C000A8160000F40C0000040D0000140D000019
:1027D000A8160000240D0000620D0000A8160000DD
:1027E000960D0000BC0D0000CC0D0000A8160000E6
:1027F000DC0D0000640E0000A81600009A0E000018
:10280000C20E0000D40E0000A8160000E60E000064
:102810006E0F0000A8160000A80F0000EC0F0000CB
:1028200002100000A8160000181000005E0B000047
:10283000680B0000720B00007E0B00008C0B000088
:102840009A0B0000380B00003E0B0000A816000099
:10285000440B0000EA0A0000EC0A0000EE0A000047
:102860006C050000840500009A050000B205000018
:10287000CA0500005C100000A2100000E810000073
:102880002E1100004811000062110000460B0000EC
:10289000500B0000A81600005C0B00003205000081
:1028A0003E050000180B0000EC0D0000F80E0000C3
:1028B0004A050000E0050000F805000010060000D1
:1028C000260600003E06000056060000A81600007E
:1028D000280B00007A110000E2110000F00A00004D
:1028E000040B0000400C00004C0C000001F07AB911
:1028F000FCE7F9480088F9490880F9480068001D9C
:10290000FEF718F800900098FDF7C0FF0820F54981
:102910000860EBE7F1490C80E8E7F148046000202B
:10292000F0490860E2E7ED4800882044EA49088061
:1029300008460088EC490880D8E7E8480088001B72
:10294000E6490880D2E7E4480088E4490880E44882
:102950000068061DE548E64A12888654E448008867
:10296000401EE3490880360AE0480A461288865429
:1029700008460088401E0880360ADC480A4612884D
:10298000865408460088401E0880D5480460002010
:10299000D4490860AAE704F0E7FB0120D549087094
:1029A00000BFD3480088401CD1490880CF4809881F
:1029B000465CCF480088401CCD4908803602CB4891
:1029C0000988405C0644CA480088401CC849088001
:1029D0003602C6480988405C0644C14806600020AB
:1029E000C049086082E7C2480088401CC04908808E
:1029F000BE480988405C0002B8490880BC4800888D
:102A0000401CBB490880B9480988405CB349098823
:102A10000844B249088069E7B0490888C11700EB4B
:102A200011610912A0EB0121CAB2B049B04B1B8859
:102A3000CA54AF480088401EAD490880A74908889D
:102A4000C11700EB1161C1F30721A84AA84B1B88ED
:102A5000D154A7480088401EA549088046E70020B9
:102A6000A449087004F07EFB40E70120A1490870EA
:102A700004F07AFB3AE7A0480068A049086035E70F
:102A800097480068001DFDF755FFC0B29A490860DD
:102A900008209449086029E791480068001DFDF767
:102AA00049FF80B29449086008208E4908601DE7FC
:102AB0008B480068001DFDF73DFF8F490860082026
:102AC0008849086012E786480068001DFDF732FF5C
:102AD00040B28949086008208249086006E78048BA
:102AE0000068001DFDF726FF00B28349086008203A
:102AF0007C490860FAE67A480068001DFDF71AFF75
:102B00007D490860082077490860EFE6744800684E
:102B1000001DFDF70FFFC0B2784908600820714919
:102B20000860E3E66E480068001DFDF703FF80B211
:102B30007249086008206B490860D7E66848006859
:102B4000001DFDF7F7FE6D49086008206549086023
:102B5000CCE663480068001DFDF7ECFE40B2674913
:102B6000086008205F490860C0E65D480068001DF5
:102B7000FDF7E0FE00B2614908600820594908608D
:102B8000B4E657480068001DFDF7D4FE5B490860B5
:102B9000082054490860A9E6504800885849088030
:102BA00051480088574908804B480088564908809A
:102BB0005148006855490860504800685449086009
:102BC0004FF47A604549088090E64D4800884349B3
:102BD00008804C480088444908804B4800883E499A
:102BE00008804A48006844490860494800684349E9
:102BF00008607BE639490988214488B2FEF7D6F996
:102C00003B49088072E635490988214488B2384931
:102C10000988FEF723FA69E63748046066E6A0B241
:102C2000FEF7D4F92E49086000202E4908605DE6C1
:102C30002B480068001DFDF77DFE284909880844DF
:102C40002D4908600820274908604FE62A48006897
:102C50002A49096801FB04002749086046E626481E
:102C6000006820442449086040E62448006800F4D5
:102C70007F0030B91D4821490968405C1E49086041
:102C800006E01E49098888B2FDF74CFE1A49086023
:102C90002CE61A48006800F47F0038B91749098803
:102CA00088B2FEF783F91449086006E013490988E1
:102CB00088B2FEF721F91049086017E60F4800684E
:102CC00000F47F0038B90D49098888B2FEF78EF903
:102CD0000949086025E01DE0E20000200000002016
:102CE000DC00002020010020E00000206203002022
:102CF000E400002025010020040000200401002041
:102D0000CC000020CE000020D0000020D400002005
:102D1000D8000020FA49098888B2FEF7FEF8F94980
:102D20000860E3E5F7480178F748F54A12688154EE
:102D3000DCE5F44A128891B2F14A128890B2FEF7AB
:102D40008DF9D3E5EE49098888B2EE490968FEF7A6
:102D50008FF9CBE5FEF79EFBC8E5FEF789FBC5E5DD
:102D6000FEF796FBC2E5E7480078E8490988214468
:102D7000E54A5054BAE5E3480078E449098821441B
:102D8000E14A5054B2E5DF480078E049098821441F
:102D9000DD4A5054AAE5DB480078DC490988214423
:102DA000D94A5054A2E5D74A128891B2D74A12881C
:102DB000224490B2FEF752F998E5D449098821449B
:102DC00088B2D049098809B2FEF72AF98EE5CF49C1
:102DD0000988214488B2CB490968FEF72DF985E5B9
:102DE000CA490988214488B2C6490968FEF740F9F2
:102DF0007CE5C64800882044C349085CC149086096
:102E000074E5C24800882044BF49085CBD49086099
:102E10006CE5BE4800882044BB49085CB94908609D
:102E200064E5BA490988214488B2FEF7BFF8B5497C
:102E300008605BE5B5490988214488B2FEF7D6F8F9
:102E4000B049086052E5B1490988214488B2FEF7CB
:102E5000A1F8AC49086049E5AC490988214488B229
:102E6000FEF772F8A749086040E5A849098821449F
:102E700088B2FEF77BF8A349086037E5A3480088CD
:102E80002044A149085C9E4908602FE59F480088BE
:102E900020449D49085C9A49086027E59B480088C2
:102EA00020449949085C964908601FE597490988BC
:102EB000214488B2FEF77AF89149086016E59349F3
:102EC0000988214488B2FEF791F88D4908600DE524
:102ED0008E490988214488B2FEF75CF88849086069
:102EE00004E58A490988214488B2FEF72DF884490F
:102EF0000860FBE485490988214488B2FEF736F86A
:102F00007F490860F2E47F4800787F490855EDE486
:102F10007C4800787C490855E8E47A4800787A498A
:102F20000855E3E47748007877490855DEE4754AA8
:102F3000128891B2A0B2FEF791F8D7E4A0B271491D
:102F4000098809B2FEF76CF8D0E4A0B26D490968AF
:102F5000FEF78EF8CAE4A0B26A490968FEF76CF879
:102F6000C4E46948005D67490860BFE46648005DE5
:102F700064490860BAE46448005D62490860B5E4E9
:102F8000A0B2FEF713F85F490860AFE4A0B2FEF705
:102F90002DF85C490860A9E4A0B2FDF7FBFF594990
:102FA0000860A3E4A0B2FDF7CFFF564908609DE496
:102FB000A0B2FDF7DBFF5349086097E45248005D7B
:102FC0004F49086092E45048005D4D4908608DE427
:102FD0004D48005D4A49086088E4A0B2FDF7E6FF6D
:102FE0004749086082E4A0B2FEF700F8444908604F
:102FF0007CE4A0B2FDF7CEFF4149086076E4A0B2C0
:10300000FDF7A2FF3E49086070E4A0B2FDF7AEFFF5
:103010003B4908606AE469E468E467E4FEF73AFA69
:1030200038480068800237490860FEF731FA5DE4ED
:10303000FEF71EFA33480068800232490860FEF746
:1030400027FA53E42F48006880022E490860FEF7F3
:103050001FFA4BE42B48006880122A490860FEF7EB
:1030600017FA43E4FEF716FA40E4FEF701FA3DE4EE
:103070003CE4244800782349086037E4214800886C
:1030800080B22049086031E430E41E4800781D49D0
:1030900008602BE41B4800781A49086026E41948A8
:1030A000008880B21749086020E416480078154966
:1030B0000860FEF7EFF919E412480078114908603A
:1030C000FEF7E8F912E40F48008880B20D49086065
:1030D000FEF7CEF90AE40B48006818B90120094947
:1030E000086002E000200749086012E40548006813
:1030F00070B10348006858B10120024908600AE035
:1031000004010020040000206203002000000020D1
:103110000020FB49086005E4F948006810B9F94847
:10312000006818B10120F649086002E00020F44967
:10313000086007E4F24800684042F149086029E469
:10314000EF4800684042EE49086023E4EC4800681C
:103150004042EB4908601DE4E9480068002804DAB1
:10316000E74800684042E649086013E4E448006824
:10317000401CE34908600DE4E1480068401EE04956
:10318000086007E4DE480068DE4909680844DC4955
:10319000086008460078086024E4D9480068D949E6
:1031A00009680844D64908600846008880B208606B
:1031B00018E4D3480068D34909680844D049086036
:1031C00010E4CF480068CF4909680844CC4908603A
:1031D00008E4CB480068CB4909680844C84908603E
:1031E00019E4C7480068C74909680844C449086029
:1031F00011E4C3480068C3490968401AC04908601F
:1032000008460078086006E4BD480068BD490968C2
:10321000401ABB4908600846008880B208601DE477
:10322000B7480068B7490968401AB549086015E40D
:10323000B3480068B3490968401AB14908600DE411
:10324000AF480068AF490968401AAD49086005E415
:10325000AB480068AB490968401AA949086009E40D
:10326000A7480078A8490860A6480078A7490860E0
:10327000A548006809684843A349086008460078E3
:1032800040B29F4908600846007808600FE49C48F7
:10329000008880B29C4908609A48008880B29B49A7
:1032A00008609948006809684843974908600846DB
:1032B000008800B2924908600846008880B2086021
:1032C0000CE48F480068904908608E4800688F4978
:1032D00008608D480068096848438B4908600846C3
:1032E00000688749086005E48548006885490968E1
:1032F00048438349086008E48148006881490968B7
:1033000048437F4908600CE47D4800687D490968AE
:1033100048437B49086004E479480068C1177C4A47
:1033200003C278480068C1177A4A03C2784905C9C0
:103330007849D1E90031A0FB03CE02FB03E200FB98
:1033400001207349C1E900C003C9800A40EA8150E5
:1033500089126F4A03C26E480068694908600FE429
:1033600067480078684908606648007867490860DF
:10337000654800680968B0FBF1F0634908600846D9
:10338000007840B25E4908600846007808601BE497
:103390005B48008880B25C4908605A48008880B267
:1033A0005A490860584800680968B0FBF1F056496E
:1033B00008600846008800B2514908600846008845
:1033C00080B2086015E44E4800684F4908604D48D7
:1033D00000684E4908604C4800680968B0FBF1F08D
:1033E000494908600846006845490860FAE34448CE
:1033F00000684449096890FBF1F041490860F1E335
:103400003F4800683F49096890FBF1F03C4908607B
:10341000E8E33B4800683B49096890FBF1F0384914
:103420000860DFE336480068C117394A03C23548EF
:103430000068C117374A03C23548D0E9001080023E
:1034400040EA91508902324AC2E9001031483049BD
:103450000CC803C9FCF798FE2D4A03C22C4800682B
:1034600027490860BEE326480078274908602548B8
:10347000007826490860244800680968B0FBF1F22A
:1034800001FB1200204908601D4800781C490860B3
:103490001D48007840B20860A4E31948008880B253
:1034A000194908601748008880B218490860164812
:1034B00000680968B0FBF1F201FB120012490860D4
:1034C0000F48008880B20E4908600F48008800B29B
:1034D000086087E30A4800680B49086009480068EB
:1034E0000A490860084800680968B0FBF1F201FB6E
:1034F000120005490860084600680149086071E348
:103500000400002004010020080100200C0100201C
:103510001001002018010020FA480068FA490968E3
:1035200090FBF1F201FB1200F64908605AE3F548FE
:103530000068F549096890FBF1F201FB1200F149BE
:1035400008604FE3EF480068EF49096890FBF1F22B
:1035500001FB1200EB49086044E3EA480068EB49CC
:103560000860E9480068EA490860E84800680968B6
:10357000884201D9012000E00020E44908600846A3
:103580000068E04908602DE3DE480068DE4909680C
:10359000884201DD012000E00020DA49086021E3D3
:1035A000D8480068D9490860D7480068D8490860F9
:1035B000D64800680968884201D3012000E0002055
:1035C000D249086008460068CE4908600AE3CD4841
:1035D0000068CD490968884201DB012000E0002035
:1035E000C8490860FEE2C7480068C8490860C64884
:1035F0000068C7490860C54800680968884201D268
:10360000012000E00020C149086008460068BD496B
:103610000860E7E2BB480068BB490968884201DAF4
:10362000012000E00020B7490860DBE2B5480068EF
:10363000B6490860B4480068B5490860B3480068F6
:103640000968884201D8012000E00020AF490860E5
:1036500008460068AB490860C4E2AA480068AA4965
:103660000968884201DC012000E00020A5490860CB
:10367000B8E200BFA3480068A3490968884201D1A5
:10368000012000E000209F490860ABE200BF9D4898
:1036900000689D490968884201D0012000E00020AF
:1036A000984908609EE29B480068001DFDF742F9BA
:1036B00002900820984908600020019091480088F5
:1036C00080B2904908604FF0000A14E08D49096803
:1036D00001EB0A00FDF726F983468B4909688B4503
:1036E00005D18948C0F800A00120019005E00AF149
:1036F00001001FFA80FAA245E8D300BF019828B95B
:103700008449029808600020834908606AE27D4885
:10371000008880B27B490860084600687A490968D9
:1037200000EB81007749086008460068FDF702F960
:103730007849086000207849086053E271480068C1
:10374000012804D17348046000207349086049E2ED
:103750006C48006820B96F48046000206E4908601A
:1037600040E268480068694908600846006880F0DF
:1037700001000860084600686249086032E261485A
:103780000068624908600846006880F0FF00086031
:10379000084600685B49086024E25A4800685B49B3
:1037A0000860084600684FF6FF71484057490860B6
:1037B000084600685349086014E2524800685349BB
:1037C000086008460068C0430860084600684D4924
:1037D000086007E24B4800684C4908604A480068A6
:1037E0004B49086049480068096808404749086033
:1037F0000846006843490860F4E1424800684349CC
:10380000086041480068424908604048006809680B
:1038100008433E490860084600683A490860E1E10B
:1038200038480068394908603748006838490860F6
:10383000364800680968484034490860084600680E
:1038400030490860CEE12F480068304908602E48B2
:1038500000682F4908602D4800680978C8402B4946
:1038600008600846006827490860BBE125480068F1
:1038700026490860244800682549086023480068F4
:1038800009788840214908600846007808600846A1
:1038900000681C490860A5E11A4800681B490860D7
:1038A000194800681A490860184800680978884073
:1038B000164908600846008880B20860084600681B
:1038C000104908608EE10F480068104908600E48F2
:1038D00000680F4908600D480068097888400B4966
:1038E000086008460068074908607BE105480068F1
:1038F0002041044908600846007800F00100086093
:1039000070E10000040000200401002008010020F4
:103910000C010020DC00002020010020B7480068D6
:103920002041B64908600846007800F001000860B0
:1039300058E1B24800682041B04908600846007864
:1039400000F0010008604DE1AC4800682041AB493F
:10395000086008460078086044E1A84800682041F3
:10396000A64908600846007808603BE1A348006863
:103970002041A24908600846008880B2086031E111
:103980000120A040C5B285F0FF089C4800689C4912
:1039900008609C48006828B90846006800EA0800EA
:1039A000086004E0964800682843954908609448F8
:1039B00000689249086015E10120A04085B24FF6E9
:1039C000FF7085EA00088D4800688D4908608D48C1
:1039D000006828B90846006800EA0800086004E0AA
:1039E00087480068284386490860854800688349FD
:1039F0000860F7E0012000FA04F56FEA05087F4847
:103A000000687F4908607F48006828B90846006858
:103A100000EA0800086004E0794800682843784913
:103A200008607748006875490860DBE027467548FC
:103A3000006875490860084600683C4600FA04F5CD
:103A4000FF20A0404FF6FF7180EA01096B48006833
:103A50006B4908600846006800EA090008600846EB
:103A60000068284308600846006864490860B9E0B7
:103A700027466448006864490860084600683C4678
:103A800000FA04F54FF6FF70A0406FEA00095B48AA
:103A900000685B4908600846006800EA09000860A1
:103AA00008460068284308600846006853490860D3
:103AB00098E0274653480068534908600846006864
:103AC0003C4600FA04F5FF20A0406FEA00094B488D
:103AD00000684B4908600846006800EA0900086071
:103AE00008460068284308600846006843490860A3
:103AF00078E0424800784549454A1288885444484D
:103B00000088401C424908806CE03C4800783F49EE
:103B10003F4A128888543E480088401C3C4908802F
:103B200060E0364800783949394A12888854384864
:103B30000088401C3649088054E0304800783349FA
:103B4000334A1288885432480088401C3049088023
:103B500048E02A48008881B22D480088FDF77EFAA7
:103B60002B480088801C2A4908803BE023480168D4
:103B700027480088FDF77CFA25480088001D244965
:103B800008802FE01D48008801B221480088FDF719
:103B900047FA1F480088801C1D49088022E017480A
:103BA00001681B480088FDF747FA19480088001D86
:103BB0001749088016E01148006828B915480460C4
:103BC00000201549086004E00C480068401E0B49BD
:103BD000086007E000201149087051200399FCF7A4
:103BE00088FE00BF00BF0B4800680B490968084405
:103BF0000849086005B0BDE8F08F0000040000200F
:103C000008010020040100200C01002062030020B4
:103C1000E0000020DC0000202001002080010020C6
:103C20002DE9F041074641F28834FCF778FE05465D
:103C30000020274908602748FEF708F90646AA2011
:103C400001F0D5FC06F10E01C8B201F0D0FC002055
:103C500001F0CDFCFF2001F0CAFC022001F0C7FCFE
:103C6000322001F0C4FCA00A01F0C1FCC5F387209A
:103C700001F0BDFC412001F0BAFCE0B201F0B7FC5C
:103C8000240A204601F0B3FC240A204601F0AFFCD0
:103C9000240A204601F0ABFCE8B201F0A8FC2D0A92
:103CA000E8B201F0A4FC2D0AE8B201F0A0FC2D0A54
:103CB000284601F09CFC074801F08EFC03F0D4F983
:103CC000002005490870012004490870BDE8F08112
:103CD000880100207C7400088001002090010020F1
:103CE00010B50446FCB913490888FDF793F9124949
:103CF000086010490988491C88B2FDF757F90F4937
:103D000008600C490988C91C88B2FDF76FF90C4995
:103D100008600A4A128891B2074A1078084A126865
:103D200002F02CFC04E0E1B25220FCF7E2FD00BFFF
:103D300000BF10BD000000202C0100203001002039
:103D40003401002070B5044644BB18490888FDF7CB
:103D500061F91749086015490988491C88B2FDF7BF
:103D600059F91449086011490988891C88B2FDF77E
:103D700051F9114908600D490988C91C88B2FDF73D
:103D800049F90E4908600D462B780B4D2A78094DEC
:103D90002978074D287802F016FC04E0E1B25220A1
:103DA000FCF7A7FD00BF00BF70BD000000000020B1
:103DB0002C010020300100203401002038010020B7
:103DC00010B5044624B1012C0CD0022C22D11EE0E7
:103DD00014490888FDF71EF913490860087802F0B5
:103DE00021FC1CE00F490888FDF7C0F80F49086066
:103DF0000C490988091D88B2FDF7B8F80C4908601C
:103E0000084601680948006802F03EFC07E002F03D
:103E10003CFC04E0E1B25220FCF76BFD00BF00BFA8
:103E200010BD0000000000202C01002054010020E3
:103E30005801002002E008C8121F08C1002AFAD168
:103E400070477047002001E001C1121F002AFBD11A
:103E5000704700000D48006840F008000B490860FA
:103E600000BF0A48006800F008000028F9D10748A0
:103E7000006840F004000549086000BF034800687E
:103E800000F004000028F9D1704700000824014028
:103E900010B5012802D0022825D110E0134A12687B
:103EA00022F47002114B1A601A4612684B1E4FF42E
:103EB000700404EA03531A430C4B1A6014E00B4AD3
:103EC0000C32126822F44012084B0C331A601A4666
:103ED00012684B1E4FF4401404EA03531A43034B79
:103EE0000C331A6000E000BF00BF10BD2C2401405D
:103EF00010B50121022000F029F94FF460210120C2
:103F000000F064F8002000F017F801210846FFF7E0
:103F1000BFFF0121084600F02FF84FF0807000F03D
:103F2000F1F800F01BF80520FDF764FEFFF792FFA3
:103F3000012000F0F5F810BD30B10749096841F4DF
:103F40000061054A116005E00349096821F4006138
:103F5000014A1160704700000824014005480068CC
:103F600000F0010028B90348006840F00100014951
:103F7000086070470824014091B100F001022AB1A5
:103F8000114A126842F480120F4B1A6000F00202CC
:103F9000C2B10D4A126842F400420B4B1A6011E0A4
:103FA00000F001022AB1084A126822F48012064B7E
:103FB0001A6000F002022AB1034A126822F4004299
:103FC000014B1A607047000008240140012802D00C
:103FD000022816D10AE00C4A126822F460220A4B29
:103FE0001A601A4612680A431A600BE0064A126801
:103FF00022F4E042044B1A601A4612680A431A601F
:1040000000E000BF00BF7047082401400249096872
:104010008143014A1160704700240140014600209D
:10402000024A12680A4002B1012070470024014090
:1040300070B5144606280ED2314D2A6800EB800672
:104040001F25B540AA4300EB800501FA05F52A4378
:104050002B4D2A602AE00C2812D2294D2D1F2A68E8
:10406000851F05EB85061F25B540AA43851F05EB77
:10407000850501FA05F52A43214D2D1F2A6015E01B
:10408000102813D21E4D083D2A68A0F10C0505EB3F
:1040900085061F25B540AA43A0F10C0505EB850553
:1040A00001FA05F52A43164D083D2A600A2910D267
:1040B000134D243D2B6801EB41060725B540AB436A
:1040C00001EB410504FA05F52B430D4D243D2B6012
:1040D00015E0132913D20A4D283D2B68A1F10A05DA
:1040E00005EB45060725B540AB43A1F10A0505EBF5
:1040F000450504FA05F52B43014D283D2B6070BDA5
:10410000342401400549096821F04071034A1160D7
:104110001146096801431160704700000424014002
:1041200000F0010129B10849096841F48001064AFB
:10413000116000F0020129B10349096841F400113E
:10414000014A11607047000008240140E9B100F401
:1041500080722AB11C4A126842F480721A4B1A60AB
:1041600000F480622AB1184A126842F48062164B49
:104170001A6000F002022AB3134A121D126842F0BC
:104180000202114B1B1D1A601CE000F480722AB160
:104190000D4A126822F480720B4B1A6000F48062A0
:1041A0002AB1094A126822F48062074B1A6000F0B3
:1041B00002023AB1044A121D126822F00202024BB6
:1041C0001B1D1A607047000004240140002001E01C
:1041D000411C08B2B0F5FA7FFADB7047034800696A
:1041E00040F0800001490861704700000020024053
:1041F00030B504464FF4702000F01EF80546B5B9FE
:104200000C48006940F002000A4908610846446110
:10421000006940F0400008614FF4702000F00CF895
:1042200005460448006920F002000249086128465A
:1042300030BD00000020024000B50346012200BF4F
:1042400000F00CF802465B1E012A01D1002BF7D1C9
:10425000012A00D10422104600BD000000200A49B6
:10426000C96801F0010109B101200CE00649C968E3
:1042700001F0100109B1032005E00349C96801F00C
:10428000040101B102207047002002400548006986
:1042900000F0800020B104480249486003484860AB
:1042A000704700000020024023016745AB89EFCD35
:1042B00070B504460D464FF47020FFF7BDFF06466B
:1042C0008EB90A48006940F001000849086125607C
:1042D0004FF47020FFF7B0FF06460448006920F055
:1042E000010002490861304670BD00000020024014
:1042F000F0B503461C6A5D6A00200DE00126864089
:1043000016403EB187000F26BE40B443860001FA36
:1043100006F63443461CB0B20828EFD3082011E05B
:104320000126864016405EB1A0F10806B7000F26B0
:10433000BE40B543A0F10806B60001FA06F63543C3
:10434000461CB0B21028EBD31C625D62F0BD8162E6
:1043500070478161704702461069084008B101202A
:1043600070470020FCE7F0B504460D46164621686C
:10437000E268002019E0012787401F409FB14FEA03
:10438000400C032707FA0CF7B943470005FA07F773
:1043900039434FEA400C032707FA0CF7BA434700AA
:1043A00006FA07F73A43471CB8B21028E3D3216056
:1043B000E260F0BD02465069084008B10120704734
:1043C0000020FCE7F0B504460E46012E03D16768D5
:1043D0001F43676002E067689F436760A1684FF60C
:1043E000FF77BA4216D1E56B00200EE00127874027
:1043F0001F4047B14FEA400C032707FA0CF7394337
:10440000012787403D43471CB8B21028EED3A16076
:10441000E56314E000200FE0012787401F404FB103
:104420004FEA400C032707FA0CF7B943470002FA9A
:1044300007F73943471CB8B21028EDD3A160F0BD8F
:1044400000B50A480068B0F5FA6F01D3012000BD3D
:10445000FDF762FE38B10A20FDF744FE034800680C
:104460000A30024908600020F1E7000084010020C2
:1044700002F0F4FF01E002F08BFFFCE72DE9F041D0
:1044800003460D46164600240027A046244800682F
:1044900000F4E060B0F5A06F15D006DCB0F5407F09
:1044A00018D0B0F5806F19D110E0B0F5C06F06D00C
:1044B000B0F5E06F12D100274FF0040815E0012796
:1044C0004FF0030811E00227B8460EE003274FF033
:1044D00001080AE004274FF0000806E04FF4A0604E
:1044E00000F022F80227B84600BF00BFC7F1040061
:1044F00005FA00F4C8F104010F20C840304004431D
:1045000024010848C45403F01F01012088405911B8
:10451000890001F1E021C1F80001BDE8F08100004F
:104520000CED00E000E400E002490143024A1160A2
:10453000704700000000FA050CED00E0024A0A4056
:104540000243024B1A60704780FFFF1F08ED00E036
:104550005049496821F440414E4A51601146096B67
:104560004D4A11404B4A11630A2871D2DFE800F02E
:1045700005111D273642535F717D4649096B21F4B1
:104580008031444A11631146096B21F48071116333
:104590007DE04049096B41F480313E4A1163114688
:1045A000096B21F48071116371E03A494968394A15
:1045B00051601146096B41F48071116367E0354920
:1045C0004968344A51601146096B41F0004111635A
:1045D0001146096B41F48071116358E02D49496817
:1045E00041F480412B4A51601146096B41F48071BE
:1045F00011634CE02749496841F48041254A5160E4
:104600001146096B41F0004111631146096B41F4F9
:10461000807111633BE01F49496841F400411D4A24
:1046200051601146096B41F4807111632FE0194903
:10463000496841F40041174A51601146096B41F045
:10464000004111631146096B41F4807111631EE052
:104650001CE01049496841F440410E4A516011463E
:10466000096B41F48071116311E00A49496841F412
:104670004041084A51601146096B41F00041116305
:104680001146096B41F48071116300E000BF00BF67
:104690007047000000100240FFFEFE7F2DE9F04F42
:1046A00092B006464FF00009CDF84490CDF8409006
:1046B0000024002000250022CDF83C900023CDF8F6
:1046C0003890CDF83490CDF830900021CDF82C9072
:1046D000CDF82890CDF82490CDF820908046002782
:1046E00084460FF2083999E8004CD9F80C90CDE9CE
:1046F00005BECDF810A0CDF81C900FF2F42ADAE92F
:10470000009ACDE9029A0FF2E82ADAE9009ACDE997
:10471000009ADFF8E892D9F80490C9F38109CDF83E
:104720004490DDF84490B9F1000F06D0B9F1010FC3
:1047300005D0B9F1020F61D103E0B14D60E0B04D99
:104740005EE0DFF8B892D9F80490C9F38341DFF84E
:10475000AC92D9F80490C9F3C069CDF82C90DFF879
:104760009C92D9F82C904FEAD979CDF82890DDF8B1
:104770002C90B9F1000F01D0113104E00F2901D1C3
:10478000491C00E0891CDDF82890B9F1010F00D127
:104790001F31DFF86892D9F80490C9F30049CDF8C9
:1047A0002490DFF85892D9F82C90C9F38079CDF88D
:1047B0002090DDF82490B9F1000F1AD0DFF83C9278
:1047C000D9F82C9009F00F0909F10108DDF82090C3
:1047D000B9F1000F06D1DFF82892B9FBF8F909FB0F
:1047E00001F50AE0DFF81C92B9FBF8F909FB01F5C5
:1047F00003E0DFF8149201FB09F501E0804D00BFF2
:1048000000BFDFF8F891D9F80490C9F303170DF150
:10481000100919F807C025FA0CF2DFF8E091D9F871
:104820000490C9F302270DF1080919F807C022FA0C
:104830000CF9CDF83C90DFF8C491D9F80490C9F395
:10484000C2271DF807C022FA0CF3072E6FD2DFE84B
:1048500006F00406080A0C8094002846C1E01046C1
:10486000BFE00F98BDE01846BBE0DFF89091D9F8A3
:10487000309009F48079B9F5807F12D0DFF87C910F
:10488000D9F8309009F48039B9F5803F04D0DFF8C9
:104890007C91CDF838905AE0DFF87491CDF83890DB
:1048A00055E0DFF85891D9F80490C9F38139CDF873
:1048B0004090DFF84891D9F830904FEAD974DDF88C
:1048C0004090B9F1000F09D0B9F1010F13D0B9F13F
:1048D000020F1DD0B9F1030F37D129E024B94FEAF7
:1048E0005309CDF8389005E04FF00309B2FBF9F910
:1048F000CDF838902AE024B94FEA9309CDF83890E2
:1049000005E04FF00509B2FBF9F9CDF838901DE04C
:1049100034B94FF00609B3FBF9F9CDF8389005E04A
:104920004FF00709B2FBF9F9CDF838900EE057E0E7
:1049300024B94FEAD309CDF8389005E04FF00909C2
:10494000B2FBF9F9CDF8389000E000BF00BF0E9837
:1049500047E0DFF8A890D9F8309009F04009B9F1A4
:10496000400F04D048F21209CDF8349003E04FF420
:104970000049CDF834900D9833E0DFF88090D9F8F5
:10498000309009F00309B9F1000F01D10C9325E033
:10499000DFF86890D9F8309009F00309B9F1010FF8
:1049A00001D10C951AE0DFF85490D9F8309009F055
:1049B0000309B9F1020F04D14FF40049CDF830904A
:1049C0000CE0DFF83890D9F8309009F00309B9F11C
:1049D000030F03D1DFF82890CDF830900C9800E059
:1049E00000BF00BF12B0BDE8F08F00000000000063
:1049F000000000000102030406070809001002403D
:104A000000127A00006CDC0200093D00809FD50096
:104A1000003FAB0110B540F2096000F005F8062038
:104A2000FFF796FD10BD0000064A02EB90110968E1
:104A300000F01F0301229A401143024B03EB901236
:104A40001160704700100240064A02EB901109689D
:104A500000F01F0301229A409143024B03EB901296
:104A60001160704700100240064A02EB901109687D
:104A700000F01F0301229A401143024B03EB9012F6
:104A80001160704700100240704770477047000087
:104A90001FB54FF4E160FFF7C7FF134802F032F98A
:104AA000092002905320ADF800000020ADF8060068
:104AB000ADF80200ADF804008DF80C0069460A4814
:104AC00002F08CF9032211461320FFF7D7FC0121D5
:104AD000054802F0DDF90121034802F0D5F902484A
:104AE00002F072F91FBD00000020004010B5012146
:104AF0000D480078FCF72CF801210C480078FCF7F1
:104B000027F8012108480078FCF766F901210748D9
:104B10000078FCF761F900F02BF800F013F8322070
:104B2000FDF768F810BD00000C0000200D0000200B
:104B3000024A1070024A1170704700000C000020F9
:104B40000D00002010B5002107480078FCF744F95B
:104B5000012106480078FCF73FF90121024800785E
:104B6000FCF73AF910BD00000D0000200C000020F9
:104B700010B5012109480078FCF72EF901210848F9
:104B80000078FCF729F9002104480078FCF724F9A3
:104B9000002103480078FCF71FF910BD0D0000202C
:104BA0000C00002010B50024002111480078FBF70C
:104BB000CFFF01210F480078FCF70EF93220FDF7F6
:104BC00007F800E0641C0A480078FCF703F80128A5
:104BD00002D109488442F5D3002106480078FCF749
:104BE000FBF8012102480078FBF7B2FF10BD00007E
:104BF0000D0000200C00002040420F0070B504465C
:104C0000002513E004F080010B480078FCF7E4F87D
:104C10006006040E012109480078FCF7DDF8002148
:104C200006480078FCF7D8F8681CC5B2082DE9DB07
:104C3000FFF7B8FF70BD00000D0000200C00002041
:104C400010B5012159480078FBF782FF012158482F
:104C50000078FBF77DFF012156480078FBF778FFCD
:104C6000012155480078FBF773FF01214F48007878
:104C7000FCF7B2F800214E480078FCF7ADF80021AF
:104C80004D480078FCF7A8F84C48007801280CD172
:104C9000002148480078FCF79FF80120FCF7AAFFA4
:104CA000012144480078FCF797F80A20FCF7A2FF9E
:104CB00042480078002853D1AE2000F099F8002037
:104CC00000F096F8102000F093F8402000F090F8E3
:104CD000812000F08DF8CF2000F08AF8A12000F0AC
:104CE00087F8C82000F084F8A62000F081F8A820FA
:104CF00000F07EF83F2000F07BF8D32000F078F839
:104D0000002000F075F8D52000F072F8802000F047
:104D10006FF8D92000F06CF8F12000F069F8DA2083
:104D200000F066F8122000F063F8DB2000F060F875
:104D3000402000F05DF8202000F05AF8022000F03A
:104D400057F88D2000F054F8142000F051F8A420FA
:104D500000F04EF8A62000F04BF8AF2000F048F825
:104D600016480078012820D1AF2000F041F84020FB
:104D700000F03EF8A02000F03BF8A62000F038F844
:104D8000A42000F035F8A22000F032F8C82000F08E
:104D90002FF82F2000F02CF8252000F029F8812092
:104DA00000F026F8252000F023F810BD0F000020A9
:104DB0001000002011000020120000200E00002032
:104DC00030B5039C054D2870054D2970054D2A709E
:104DD000054D2B70054D2C7030BD00000E000020DD
:104DE0000F00002010000020110000201200002001
:104DF00070B50446002112480078FBF7EDFF00254E
:104E00001BE004F0800028B900210E480078FBF771
:104E1000E3FF04E001210B480078FBF7DDFF0021F0
:104E200009480078FBF7D8FF6006040E0121064808
:104E30000078FBF7D1FF681CC5B2082DE1DB70BD1F
:104E400012000020100000200F00002070B5044662
:104E5000012112480078FBF7BFFF00251BE004F09A
:104E6000800028B900210E480078FBF7B5FF04E068
:104E700001210B480078FBF7AFFF002109480078BB
:104E8000FBF7AAFF6006040E012106480078FBF735
:104E9000A3FF681CC5B2082DE1DB70BD1200002025
:104EA000100000200F00002010B5FFF71FFE00F0DB
:104EB0005DF8AE2000F05BF8002000F058F81020FC
:104EC00000F055F8402000F052F8812000F04FF833
:104ED000CF2000F04CF8A12000F049F8C82000F0E5
:104EE00046F8A62000F043F8A82000F040F83F2044
:104EF00000F03DF8D32000F03AF8002000F037F839
:104F0000D52000F034F8802000F031F8D92000F0EE
:104F10002EF8F12000F02BF8DA2000F028F812200B
:104F200000F025F8DB2000F022F8402000F01FF808
:104F3000202000F01CF8022000F019F88D2000F06D
:104F400016F8142000F013F8A42000F010F8A620A2
:104F500000F00DF8AF2000F00AF810BD10B50346C0
:104F60000C4621461846FFF7E3FD10BD704710B50B
:104F70000446FFF7FDFD7820FFF740FE0020FFF715
:104F80003DFE2046FFF73AFEFFF7DCFD10BD10B5F1
:104F90000446FFF7EDFD7820FFF730FE4020FFF7D5
:104FA0002DFE2046FFF72AFEFFF7CCFD10BD0000C6
:104FB00070B505460C46624862490860624863491C
:104FC0000860634805606348046000F0BDF936205E
:104FD00000F024F9002000F013F93A2000F01EF947
:104FE000052000F00DF9B22000F018F90C2000F0B7
:104FF00007F90C2000F004F9002000F001F933203B
:1050000000F0FEF8332000F0FBF8B72000F006F9BE
:10501000352000F0F5F8BB2000F000F9192000F071
:10502000EFF8C02000F0FAF82C2000F0E9F8C220D8
:1050300000F0F4F8012000F0E3F8C32000F0EEF8EF
:10504000122000F0DDF8C42000F0E8F8202000F085
:10505000D7F8C62000F0E2F80F2000F0D1F8D020F9
:1050600000F0DCF8A42000F0CBF8A12000F0C8F894
:10507000E02000F0D3F8D02000F0C2F8042000F0C7
:10508000BFF80D2000F0BCF8112000F0B9F8132093
:1050900000F0B6F82B2000F0B3F83F2000F0B0F895
:1050A000542000F0ADF84C2000F0AAF8182000F0D1
:1050B000A7F80D2000F0A4F80B2000F0A1F81F20A5
:1050C00000F09EF8232000F09BF8E12000F0A6F805
:1050D000D02000F095F8042000F092F80C2000F0A9
:1050E0008FF8112000F08CF8132000F089F82C20A4
:1050F00000F086F83F2000F083F8442000F080F8AC
:10510000512000F07DF82F2000F07AF81F2000F0E9
:1051100077F81F2000F074F8202000F071F82320A9
:1051200000F06EF8212000F079F8112000F076F8F8
:105130000A20FCF75FFD292000F070F870BD000028
:10514000CD52000898000020795200089C000020F1
:1051500014000020180000202DE9F04107460C46FD
:1051600015461E462A2000F059F8384600F038F857
:10517000284600F035F82B2000F050F8204600F0CB
:105180002FF8304600F02CF82C2000F047F8BDE84E
:10519000F081000070B506460F480088401E83B2BB
:1051A0000E480088401E82B200210846FFF7D4FF57
:1051B00000240CE0002504E0304600F011F8681CE3
:1051C00085B2054800688542F6DB601C84B203485E
:1051D00000688442EEDB70BD18000020140000203F
:1051E00010B50446012105480078FBF7F5FD200ABB
:1051F00000F022F8E0B200F01FF810BD27000020F8
:1052000010B50446012104480078FBF7E5FD20466F
:1052100000F012F810BD00002700002010B5044671
:10522000002104480078FBF7D7FD204600F004F881
:1052300010BD00002700002070B50446002513E0D3
:1052400000210B480078FBF7C7FD04F080010948F6
:105250000078FBF7C1FD012105480078FBF7BCFD94
:105260006006040E681CC5B2082DE9DB70BD0000A5
:10527000250000202400002070B504460D460F488C
:10528000007800B170BD002C03DB0D48006884423B
:1052900000DBF7E7002D03DB0A480068854200DBEE
:1052A000F0E7ABB2A2B2A9B2A0B2FFF755FF064831
:1052B0000088FFF795FF00BFE4E700002000002012
:1052C00014000020180000202200002070B50446C1
:1052D0000D460F48007800B170BD002C03DB0D486F
:1052E0000068844200DBF7E7002D03DB0A48006812
:1052F000854200DBF0E7ABB2A2B2A9B2A0B2FFF7E1
:105300002BFF06480088FFF76BFF00BFE4E70000B3
:105310001C00002014000020180000201E000020A7
:10532000024A1170024A10807047000020000020DD
:1053300022000020024A1170024A108070470000CB
:105340001C0000201E0000207047000010B5044C17
:105350002070044C2170044C2270044C237010BD4A
:105360002400002025000020260000202700002027
:1053700010B5FBF735FF0A20FCF73CFC302000F0AD
:1053800037F80A20FCF736FC302000F031F80A200C
:10539000FCF730FC0C2000F02BF80A20FCF72AFC6C
:1053A000012000F025F80A20FCF724FC062000F07C
:1053B0001FF86420FCF71EFC342000F019F80A20C6
:1053C000FCF718FC362000F013F80A20FCF712FC5A
:1053D00010BD0000034B1870034B1970034B1A707B
:1053E0007047000028000020290000202A0000202B
:1053F00070B50546012124480078FBF7EDFCFEF767
:10540000E5FE00240FE0012120480078FBF7E4FCD2
:10541000FEF7DCFE00211D480078FBF7DDFCFEF7FF
:10542000D5FE601CC4B2052CEDDB002116480078C7
:10543000FBF7D2FCFEF7CAFE012114480078FBF707
:10544000CBFCFEF7C3FE002110480078FBF7C4FC3C
:10545000FEF7BCFE00210C480078FBF7BDFCFEF710
:10546000B5FE012109480078FBF7B6FCFEF7AEFE59
:10547000002106480078FBF7AFFCFEF7A7FE2846A0
:10548000FCF792FA70BD0000290000202A000020DD
:1054900070B50546012123480078FBF79DFC0024E8
:1054A0000FE0012120480078FBF796FCFEF78EFE06
:1054B00000211D480078FBF78FFCFEF787FE601C7B
:1054C000C4B2052CEDDB002116480078FBF784FC04
:1054D000FEF77CFE012114480078FBF77DFCFEF707
:1054E00075FE002110480078FBF776FCFEF76EFE93
:1054F00001210C480078FBF76FFCFEF767FE0121E5
:1055000009480078FBF768FCFEF760FE00210648BA
:105510000078FBF761FCFEF759FE2846FCF744FAD9
:1055200070BD0000290000202A00002010B50446AC
:1055300040F21150FFF778FA40F20E60FFF774FA6C
:105540004FF4007201214FF09040FEF7D1FE4FF46E
:10555000806201214FF09040FEF7CAFE4FF40073C5
:10556000012202214FF09040FEF7FDFE4FF4007340
:10557000012200214FF09040FEF724FF4FF480639A
:10558000012202214FF09040FEF7EDFE4FF48063C0
:10559000012200214FF09040FEF714FF0D4801F06A
:1055A000EDFC21460B4801F0A1FC0421094801F063
:1055B00042FD0821074801F046FD064801F0FEFCC7
:1055C000032211461B20FEF759FF0521014801F077
:1055D00009FD10BD0038014010B5044603E014F881
:1055E000010B00F004F820780028F8D110BD10B5A8
:1055F00004462146002001F0D3FD10BD01460020E5
:1056000006E0064A12680244054B9954421C10B247
:10561000044AB2F900209042F3DB7047700000208A
:1056200062030020780000200149086070470000F4
:105630009000002001490860704700008C000020A5
:10564000014908607047000088000020034B187073
:10565000034B1970034B1A7070470000860000203E
:10566000840000208500002070B5049C084D28802F
:10567000084D2960084D2A60084D2B60084D2C60AC
:10568000084D094E3560094D094E356070BD00006A
:1056900078000020700000207C00002080000020A6
:1056A000740000206157000898000020B5560008DB
:1056B0009C00002030B504460D460A4800680028CA
:1056C00000DA30BD0748006818B9002006490870A4
:1056D00002E00120044908702946204600F08EF8B7
:1056E00000BFEEE79000002094000020F0B50246D5
:1056F000002A09DB15480068824205DA002903DB2D
:1057000013480068814201DB0120F0BD48B2C71791
:1057100000EB5777FF10A0EBC7048BB21846DF17DA
:1057200003EB5777FD100B48006805FB002085B29E
:10573000094800682844094F3E5C264106F00100F4
:1057400008B10120E1E70020DFE700007C00002035
:105750008000002074000020700000206203002000
:1057600030B504460D460A480068002800DA30BD0E
:105770000748006818B900200649087002E00120B7
:10578000044908702946204600F038F800BFEEE7CB
:105790008C00002094000020F0B505464CB2E717BD
:1057A00004EB5777FF10A4EBC7068AB21446D7174D
:1057B00002EB5777FB100D4C246803FB0454A3B293
:1057C0000B4C24681C440B4F385D0B4C247824B1DF
:1057D0000124B4400443E0B202E00124B440A043F9
:1057E000034C24681C44034F3855F0BD740000205E
:1057F0007000002062030020940000202DE9F04397
:1058000005460C46002D09DB28480068854205DA6C
:10581000002C03DB26480068844201DBBDE8F083EE
:105820002448007818B121480068401E451B2248D2
:10583000007818B11E480068401E041B1F480078FD
:1058400018B128462546044600BF1D4800680128B7
:1058500003D121462846FFF79FFF19480068012819
:1058600000DADBE71649086800EBD071A5EB6108A8
:105870001349086800EBD071A4EB610400260FE027
:10588000C146002706E021464846FFF785FF09F19B
:1058900001097F1C0A4800688742F4D3641C761C07
:1058A000074800688642EBD300BFB7E77C000020C2
:1058B0008000002084000020850000208600002059
:1058C0008800002030B50246154B164C94F9004074
:1058D0001A55154B134C94F9004019550024134BDD
:1058E000104D95F9005043F825400123104C0D4D03
:1058F00095F90050635501240E4B0A4D95F900505F
:105900005C5501230C4C074D95F900506355054B30
:1059100093F900001B785B1C5BB2024C237030BD16
:10592000480200206E000020520200205C0200208D
:10593000840200208E0200209802002001460248C6
:1059400050F82100704700005C020020002001494F
:10595000087070476E00002070B500243EE02349B7
:10596000085DFBF737F905462148005D50B94DB990
:105970002049085DFBF72EF91F49085501201C49F5
:10598000085570BD1A48005D30B3012D24D1194966
:10599000085DFBF71FF9194908551748005D0128F4
:1059A00009D10846005D30B9154850F82400401C64
:1059B000134941F824001048005D50B90F48005DBC
:1059C000012806D10E4850F82400401E0C4941F829
:1059D0002400002006490855601CC4B2094890F90B
:1059E00000008442BBDB00BFCBE700004802002080
:1059F00084020020520200208E0200209802002023
:105A00005C0200206E00002070B50546002401F005
:105A1000A9FB00212846FBF7DFF91220FCF7EAF882
:105A200001212846FBF7D8F90320FCF7C1F8002133
:105A30002846FBF78DF8284600F053F8284600F07A
:105A40003FF8284600F04DF8284600F01CF80446C0
:105A50002402284600F017F804442402284600F0E7
:105A600012F804442402284600F00DF804442846A5
:105A700000F009F8064601F077FB01212846FBF704
:105A800067F8204670BD70B506460024002513E077
:105A90006006040E304600F013F80520FCF788F885
:105AA0003046FBF797F8012804D144F00104304652
:105AB00000F017F8681CC5B2082DE9DB204670BD60
:105AC00070B50546002403E00120FCF781F8641C52
:105AD0002846FBF77FF818B942F210708442F3D3DE
:105AE00070BD70B50546002403E00120FCF770F896
:105AF000641C2846FBF76EF8012803D142F21070AF
:105B00008442F2D370BD70B50646002401F02AFB32
:105B1000002525E000213046FBF75EF90120FCF767
:105B200057F801213046FBF757F900213046FBF7C3
:105B30000FF864100120FCF73BF83046FBF74AF8F9
:105B4000012801D144F080040520FCF731F801213F
:105B50003046FAF7FDFF0120FCF72AF8681C45B231
:105B6000082DD7DB01F000FB204670BD10B50446C0
:105B700001F0F8FA00212046FBF72EF91820FCF777
:105B800017F81820FCF714F81820FCF711F8012179
:105B90002046FBF721F90420FCF70AF800212046F3
:105BA000FAF7D6FF1920FCF703F801212046FAF78F
:105BB000CFFF01F0D9FA10BD70B506460C4601F0D2
:105BC000D1FA002518E000213046FBF705F9012045
:105BD000FBF7FEFF04F001013046FBF7FDF864100F
:105BE0000920FBF7E5FF01213046FBF7F5F803201C
:105BF000FBF7EEFF681C45B2082DE4DB01F0B4FAB8
:105C000070BD00002DE9FF4F87B080460C4604F4BC
:105C10007F0008B1012000E000208146A4B20020EE
:105C20000590B9F1000F08D0201DFAF77BFE02465F
:105C3000C01702EB5070C71006E0534A211D505C9C
:105C4000C11700EB5171CF104FF0000A099800B254
:105C50000490B9F1000F04D0A01CFAF763FE83464C
:105C600003E04949A01C11F800B00020039084E033
:105C7000DDF80CA00A9800B202900020019071E0BB
:105C8000B9F1000F07D004F1090101EB0A00FAF79E
:105C900049FE054604E004F1090050443A490D5C10
:105CA000B8F1000F18D1002614E005F0010028B16A
:105CB000364A029904981268904704E0344A0299DF
:105CC0000498126890476D100298401C00B2029030
:105CD000701CC6B2082EE8DBB8F1010F12D1002605
:105CE0000EE005F0010020B1294A029904981268DB
:105CF00090476D100298401C00B20290701CC6B212
:105D0000082EEEDBB8F1020F18D1002614E005F0E2
:105D1000010050B102990498FAF7C2FC28B10120A1
:105D2000059005980BB0BDE8F08F6D100298401CEF
:105D300000B20290701CC6B2082EE8DBB9F1000F69
:105D400004D0A01CFAF7EEFD069003E00E49A01C5B
:105D5000085C0690069850441FFA80FA0198401C8F
:105D600080B201900198B8428ADB0498401C00B2CE
:105D700004900398401CC0B2039003985845FFF666
:105D800077AF0598CEE7000062030020980000205E
:105D90009C0000202DE9FF4F85B082460D469846B5
:105DA000ADB2A81CFAF7BEFD0246E81CFAF7BAFD30
:105DB00002EB002080B20190281DFAF7B3FD0446E3
:105DC0002646E11704EB5171C910A4EBC10139B9A2
:105DD00034B12046E11704EB5171C1F3C70406E06A
:105DE0002046E11704EB5171C910491CCCB20027C1
:105DF00046E00798384480B20390DDF848904FF0B1
:105E0000000B35E005F10901039A8818FAF78AFDBD
:105E10000290002004901EE0029800F0010028B1DA
:105E200049464046194A1268904704E049464046B0
:105E3000174A1268904702984010029009F1010039
:105E40000FFA80F912983044484500DC06E00498C7
:105E5000401CC0B2049004980828DDDB00BF019903
:105E60000398084480B203900BF1010000F0FF0B8F
:105E7000A345C7DB08F101000FFA80F8781CC7B210
:105E80005745B6DB09B0BDE8F08F00009800002050
:105E90009C0000200121024A1170024908707047DD
:105EA00060000020610000200020084908700849B7
:105EB000087008490870012007490870FF20074949
:105EC000087000200649087070470000600000203C
:105ED0006200002063000020640000206C000020AD
:105EE0006D00002001480078704700006C00002021
:105EF00070B53448007800B970BD3348007808B3F5
:105F000032480078401C3149087008460078C8289B
:105F100018DD00202E4908702C4908702D480078A3
:105F2000401C2C4908700846007805280ADB002030
:105F3000274908702449087026490870FF2026491F
:105F40000870D9E725480078FAF744FE044624484B
:105F500005780470012D33D194BB00201D490870D1
:105F60001A4806780020194908700120164908705F
:105F700017480078401C1649087008460078012828
:105F800003D008460078022800D1B5E7154800681C
:105F9000400814490860102E04DB0846006840F0F1
:105FA000004008600A480078222809D100200849EA
:105FB0000870084908700B480068000C0649087012
:105FC00000BF99E76000002062000020630000200D
:105FD000650000206D0000206C00002061000020A2
:105FE0006400002068000020034B1870034B1970F8
:105FF000034B1A7070470000AD000020AE00002077
:10600000AF00002070B50446002500262BE004F008
:10601000010028B9002116480078FAF7DDFE04E0F7
:10602000012113480078FAF7D7FE0520FBF7D0FDD1
:10603000641000210F480078FAF7CEFE0520FBF728
:10604000C7FD6D100C480078FAF7C4FD08B145F0A3
:106050008005012107480078FAF7BEFE0520FBF70E
:10606000B7FD701CC6B2082ED1DB284670BD0000FB
:10607000AD000020AE000020AF00002000B50020E1
:1060800001F070F80649097839B90649098821B143
:10609000044908880021034A118001F065F800BD19
:1060A000BA000020BC00002000200349087003490A
:1060B0000870034908807047B8000020BA0000202B
:1060C000BC000020024908700121024A117070478B
:1060D000B9000020B800002010B50948007800B9C8
:1060E00010BD08480078FAF775FD044624B106484B
:1060F0000088401C044908800448047000BFEFE792
:10610000B8000020B9000020BC000020BA00002028
:1061100000200149087070475500002030B5054641
:106120000C460E4805700E48048000884FF6FF713B
:1061300001EA40000A4908800846008840F4C0602F
:1061400008800020074908700749086001200749B6
:1061500008700520FBF74EFD30BD00005400002004
:1061600056000020580000205C0000205500002050
:1061700010B51848007800B910BD1748006800F540
:106180007A70154908600846006842F6B1018842F5
:106190001DD311480068401A0F4908600F48007865
:1061A00000F001010E480078FAF716FE0B4800884F
:1061B00040100A4908800B480078401C09490870C3
:1061C000084600780B2802D100200249087000BF61
:1061D000D2E70000550000205C000020560000209F
:1061E00054000020580000202DE9F04708AC94E846
:1061F000F010DFF8CC80DFF8CC9099F9009048F8E7
:106200002900DFF8C480DFF8BC9099F9009048F8C5
:106210002910DFF8B880DFF8AC9099F9009048F8C1
:106220002920DFF8AC80DFF89C9099F9009048F8BD
:106230002930DFF8A080DFF88C9099F9009048F8B9
:106240002940DFF89480DFF87C9099F9009048F8B5
:106250002950DFF88880DFF86C9099F9009048F8B1
:106260002960DFF87C80DFF85C9099F9009048F8AD
:106270002970DFF87080DFF84C9099F9009048F8A9
:1062800029C04FF00008DFF86090DFF838A09AF9D5
:1062900000A029F81A80DFF82C8098F8008008F117
:1062A00001084FFA88F8DFF81C9089F800804FF059
:1062B0000108DFF8389089F80080BDE8F087000019
:1062C000A4020020A1000020B8020020CC0200207F
:1062D000E0020020F4020020080300201C0300203C
:1062E000300300204403002058030020A0000020B9
:1062F0000149087070470000A2000020054A064BC3
:1063000093F90030D054054A034B93F90030D1542F
:1063100070470000A3000020A1000020A80000207A
:10632000002003490870034908700349087070474A
:10633000A1000020A0000020A200002010B5094804
:10634000007800B910BD002404E0204600F00EF8EB
:10635000601C44B2044890F900008442F5DB00BFA1
:10636000F0E70000A0000020A10000202DE9FE4F72
:106370000446744850F8240073490F5C0FB9BDE817
:10638000FE8F724850F824006F4911F800B0704930
:1063900031F8241088B2FAF7E9FD80466D4931F8EA
:1063A000241088B2FAF7E2FD06466B4850F8240044
:1063B0006549085C0290694850F8240011F8009083
:1063C000674850F8240011F800A0664931F82410FD
:1063D00088B2FAF7B9FD05B2634931F8241088B2E2
:1063E000FAF7B2FD00B201900298E8B1B9F1000FDE
:1063F00007D00198854202DA681C05B201E04FF02F
:106400000009BBF1000F06D1BAF1000F03D0012D36
:1064100001DD681E05B2554830F81400284400B26A
:10642000524921F8140008E0504830F8141001983F
:10643000084400B24D4921F814004A4931F82410AB
:1064400088B22946FAF7ECFD444850F824003E494A
:1064500001F80090454830F9140042F2107188426A
:1064600000DA8CE7414830F81400A0F51C501038D1
:1064700000B23E4921F81400BBF1000F2DD1002ECF
:1064800023DD761E334931F8241088B23146FAF7FD
:10649000D3FDBAF1000F20D1284605FB00F144F6E8
:1064A000206291FBF2F086420EDA4FF0010A4FF0C3
:1064B00000092A4951F82410234A02F8019028497A
:1064C00051F8241002F801A007E02FB100271D4861
:1064D00050F824001C490F5451E7012F07D12449DB
:1064E000085D0021FAF778FC08F1010806E0204970
:1064F000085D0121FAF770FCA8F10108144931F890
:10650000241088B24146FAF797FD1A48007850B92E
:106510001949085D0121FAF75FFC1749085D002160
:10652000FAF75AFC0CE01449085DFAF745FC0090B4
:10653000009AD243D1B2104A105DFAF74DFC00BF69
:1065400000BF1CE7CC02002062030020E002002014
:10655000B8020020A4020020F4020020080300205A
:106560001C030020300300204403002058030020B7
:10657000A3000020A2000020A8000020F0B50746DC
:106580000E46154600F0EEFD002411E02819801C8F
:10659000DFF82CC01CF800302819401C1CF8002023
:1065A00028191CF80010384600F020F8E01C04B24E
:1065B000B442EBDB00F0D8FD0A20FBF7F9FAF0BD9E
:1065C000620300207047F0B504460D4616461F468C
:1065D00000F0C8FD3B4632462946204600F006F84A
:1065E00000F0C2FD0A20FBF7E3FAF0BD2DE9F0410F
:1065F00080460E4615461F462C462402344424028B
:106600003C442146404600F017FEBDE8F081000002
:10661000002002490870024908607047B10000205C
:10662000B400002000B5034608480370184600F087
:1066300080FD4EF66022064801680448007800F0AC
:1066400077FD01200349087000BD0000B000002064
:10665000B4000020B10000200948007800B970475C
:1066600008480068401C07490860084600684EF664
:106670006021884202DD00200249086000BFEEE789
:10668000B1000020B40000207047704700B5002022
:106690000C4908700C49087000F018F800F0D4F9A3
:1066A000FFF736FDFFF78EFFFFF7FEFBFFF74EF912
:1066B000FEF7EBF9FFF734FEFFF7AAFFFFF7F4FC54
:1066C00000BD00002C0000202D0000200021074A02
:1066D0001160002007E00021C0EBC002044B03F86A
:1066E0001210411CC8B20428F5DB70473C000020A2
:1066F000EE010020F0B50446059D264E3078366840
:10670000761C244F3E60C0EBC007DFF88CC00CEB5A
:106710004707FC700126C0EBC0070CF81760142671
:10672000C0EBC0070CEB47073E713C26C0EBC0072F
:106730000CEB47077E710026C0EBC0070CEB470748
:10674000BE710126C0EBC0070CEB4707FE710026A7
:10675000C0EBC0070CEB47073E720126C0EBC00739
:106760000CEB47077E72C0EBC006674607EB460698
:10677000B172C0EBC00607EB4606F272C0EBC00672
:1067800007EB46063373C0EBC00607EB460675738E
:10679000F0BD00003C000020EE01002070B5002498
:1067A000D1E0C4EBC4006B4911F8100000B9C8E097
:1067B000C4EBC400674901EB40008078401CC4EB87
:1067C000C401644A02EB41018870C4EBC400114665
:1067D00001EB40008078C4EBC40102EB4101C978B1
:1067E000884200DAADE00020C4EBC401594A02EB54
:1067F00041018870C4EBC400114601EB400090F9E0
:106800000100642190FBF1F201FB1200C4EBC40112
:10681000504A02EB41014870C4EBC400114601EB41
:106820004000407808B9012000E0002005462E46CF
:10683000C4EBC400474901EB400090F90100C4EBF0
:10684000C401444A02EB410191F90410884211DB72
:10685000C4EBC40102EB4101887A0021FAF7BCFACB
:10686000C4EBC4013B4A02EB4101C87A0021FAF7AC
:10687000B3FA0025CDB1C4EBC402364B03EB4202A0
:106880009179C4EBC40203EB4202907AFAF7A4FABE
:10689000C4EBC4022F4B03EB4202D179C4EBC40218
:1068A00003EB4202D07AFAF797FAC4EBC400294905
:1068B00001EB400090F90100C4EBC401254A02EB52
:1068C000410191F90510884211DBC4EBC40102EBD0
:1068D0004101087B0021FAF77FFAC4EBC4011D4A8D
:1068E00002EB4101487B0021FAF776FA0026CEB18F
:1068F000C4EBC402174B03EB4202117AC4EBC4028F
:1069000003EB4202107BFAF767FAC4EBC402114BA7
:1069100003EB4202517AC4EBC40203EB4202507B08
:10692000FAF75AFAC4EBC4000A4901EB4000407878
:10693000401C40B2C4EBC401064A02EB410148705E
:1069400000BF601CC4B2044800688442FFF629AF4F
:1069500070BD0000EE0100203C000020F0B505AC49
:1069600070CCC0EBC007DFF83CC00CEB47073971B7
:10697000C0EBC0070CEB47077A71C0EBC0070CEB0C
:106980004707BB71C0EBC0070CEB4707FC71C0EBBE
:10699000C0070CEB47073D72C0EBC0070CEB470785
:1069A0007E72F0BDEE01002010B500F034F8104802
:1069B0000078401C0E490870084600780A2800DA62
:1069C00010BD00200A49087000F017F80948007847
:1069D000401C08490870084600780A2800DAEFE7EA
:1069E00000200449087000F007F800BFE8E7000045
:1069F0002C0000202D000020704710B5FFF7CEFEC0
:106A0000FFF776FAFEF7A8FFFFF798FCFFF724FEE2
:106A1000FFF762FB10BD10B500F02CF800F08EF807
:106A2000FFF7A6FB10BD00000122024B1A70024ABC
:106A3000115470474400002045000020014A42F8EC
:106A40002010704728020020FF2007490870487076
:106A50008870C870087148718871C8710020034936
:106A6000086003490870704745000020500000206E
:106A70004400002010B52748007800B910BD264812
:106A80000068401C2449086008460068FA2816D0AF
:106A9000224823490968405CFF280FD0214820493B
:106AA000096850F821001C490968884206D11B4931
:106AB0001B4A1268885C0021FAF78EF9DEE7174856
:106AC00017490968405CFF2806D01449144A126827
:106AD000885C0021FAF780F900200F49086010480F
:106AE0000068401C0E49086008460068082801D16B
:106AF0000020086009480A490968405CFF2806D060
:106B00000649074A1268885C0121FAF765F900BF57
:106B1000B4E70000440000204000002045000020B1
:106B200050000020280200200021024A1170024972
:106B300008707047390000203A00002010B5144852
:106B4000007800B910BD134800680A301149086088
:106B50000846006810490968884216DB0D4800683D
:106B60000D490968401A0B4908600C4801780C4827
:106B70000078FAF731F90948007818B90120074977
:106B8000087002E000200549087000BFDAE7000045
:106B900039000020300000203400002038000020A0
:106BA0003A000020024908600121024A1170704732
:106BB000340000203900002000200149087070478F
:106BC000390000202DE9F04107460C46002500263B
:106BD00000F0C8FA01213846FAF7FEF80120FAF76A
:106BE000E7FF00213846FAF7F7F800E0761C4CF290
:106BF0005030864204DA2046F9F7ECFF0028F5D041
:106C0000FBF782FA07E0FBF74BFA054644F62060F3
:106C1000854200D904E02046F9F7DCFF0128F2D0D4
:106C200000BF00F0A1FA05EB05104000C821B0FB41
:106C3000F1F0BDE8F0810000002000212C4A12682C
:106C400042F480322A4B1A6000BF401C284A126866
:106C500002F4003111B9B0F5006FF6D1244A126880
:106C600002F4003202B97047214A5268204B5A6040
:106C70001A46526842F400525A601A46526842F468
:106C800080625A601A4652681A4B1A40184B5A6072
:106C90001A46D26A22F04042DA621A46D26A42F0BA
:106CA0000102DA621A465268134B1A43104B5A60BB
:106CB0001A46126842F080721A6000BF0C4A1268CD
:106CC00002F00072002AF9D0094A526822F0030249
:106CD000074B5A601A46526842F002025A6000BFDF
:106CE000034A526802F00802002AF9D000BFBAE74E
:106CF00000100240FFFFC2770000110810B5FFF737
:106D00009BFF10BD10B504462D49601A8C4214D06B
:106D100009DCB4F1804F19D02A482044F8B1B0F50D
:106D2000E05F49D124E0B0F5A05F2AD0B0F5C05FA4
:106D300030D0B0F5E05F3FD135E040F20B30FDF7E9
:106D400093FE40F20B30FDF77FFE36E04FF480609B
:106D5000FDF78AFE4FF48060FDF776FE2DE040F2ED
:106D60000140FDF781FE40F20140FDF76DFE24E099
:106D70004FF48160FDF778FE4FF48160FDF764FE0B
:106D80001BE04FF44470FDF76FFE4FF44470FDF7C5
:106D90005BFE12E040F21130FDF766FE40F211306A
:106DA000FDF752FE09E040F21230FDF75DFE40F2C1
:106DB0001230FDF749FE00E000BF00BF10BD00002B
:106DC000002C014000FCFFBF016821F001010160BF
:106DD0007047016841F00101016070470A888262D2
:106DE000234A904205D0B0F1804F02D0214A904210
:106DF0000BD1026822F07002026002684B881A43CD
:106E0000026002688B881A4302608A68C262184A6C
:106E1000904211D0B0F1804F0ED0164A90420BD064
:106E2000154A904208D0154A904205D0144A904223
:106E300002D0144A904207D1026822F440720260E4
:106E40000268CB881A430260094A904208D00B4A74
:106E5000904205D00A4A904202D00A4A904201D19B
:106E60000A7B0263426942F00102426170470000FE
:106E7000002C014000040040002000400040014080
:106E80000044014000480140C2680A43C2607047A4
:106E9000CA4302617047000010B50446B4B90F49F7
:106EA0000888FAF7B7F80E4908600C490988491CA8
:106EB00088B2FAF7AFF80B4908600A461178084A19
:106EC0001078FFF77FFE0849086004E0E1B2522025
:106ED000F9F70FFD00BF00BF10BD0000000000204B
:106EE0002C01002030010020040000202DE9F04793
:106EF00004460D460027B846B946002619482044E6
:106F000038B1B0F5744F09D10620FDF7C7FB07462D
:106F100005E00220FDF7C2FB074600E000BF00BF0E
:106F2000206800F4004070B1780000EB5500B0FB21
:106F3000F5F64FF6F07006EA0008C6F3420948EA93
:106F40000900E0600CE007EB5500B0FBF5F64FF6EA
:106F5000F07006EA000806F00F0948EA0900E06050
:106F6000BDE8F08700BCFFBF0146486AC0F30800D7
:106F70007047C1F3080282627047000010B50446F2
:106F80000D48204458B1B0F5744F11D140F20E3085
:106F9000FDF76AFD40F20E30FDF756FD09E040F2C4
:106FA0001140FDF761FD40F21140FDF74DFD00E09D
:106FB00000BF00BF10BD000000BCFFBF016841F072
:106FC00001010160704710B5024602EB91100068A4
:106FD00001F01F040123A340184008B1012010BD97
:106FE0000020FCE710B500EB9112126801F01F04BD
:106FF0000123A3401A4300EB91131A6010BD70B532
:10700000024600230024C1F38910105801F01F0626
:107010000125B54000EA050302EB91500068C1F379
:1070200004460125B54000EA050414B10BB1012066
:1070300070BD0020FCE7026822F0040202600268D2
:107040000A4302607047026822F008020260026888
:107050000A4302607047000010B50248FFF7B9FE0E
:1070600010BD00000020004010B50248FFF7ACFE44
:1070700010BD00000020004070B5FDF707F90024A6
:107080000CE009494A1402FB0410FDF7B1F805466B
:1070900015B15620FEF7ABFA601CC4B21E2CF0DB13
:1070A000FDF79CF870BD000000880008704770472D
:1070B00070B504460E46FDF7E9F8084960183146F8
:1070C000FDF7F6F805462DB13420FEF790FA284674
:1070D000FEF78DFAFDF782F870BD00000088000809
:1070E00070B504460D46054951F82430044951F85D
:1070F000240000220321FDF736F970BD001800209E
:107100000019002010B50446052221460020FCF796
:107110008FFF0220FCF77AFF00BF0220FCF77EFF02
:107120000128FAD10148006810BD00004C2401403C
:107130007047704710B5044600BF21465520F9F747
:10714000D8FB00200249087000BF00BF10BD00003E
:10715000800100200148024908607047008800084B
:107160000800002072B6704762B670474FF0E0200A
:107170008069C04370470000004870472048010004
:107180004FF0E0208069C04370475420704770B5CD
:1071900005460C4615B92046FEF7C8F970BD00003B
:1071A00070B504460D465CB929460648FFF7E1FE76
:1071B00000BF40F207710348FFF705FF0028F8D031
:1071C00070BD0000003801407047000070B56FF0DE
:1071D0007F41481EB0F1807F00D31BE0481E4FF076
:1071E000E022506150170F22002807DA13071D0E06
:1071F0000B4B00F00F04241F1D5503E013071C0E5A
:10720000084B1C5400BF00204FF0E0229061072083
:10721000106100BFF9F7EEFCFDF73AFC70BD00000D
:1072200018ED00E000E400E010B54FF4E13100207B
:10723000FFF7ADFF10BD000030B505460B4600243A
:10724000A0E02846F9F7EEFD03F40000002841D144
:107250004E480068401C4D4908602846F9F7D6FDA5
:107260004A480068401C4949086008460068401CBC
:10727000086008460068401C086008460068401C1A
:10728000086008460068401C086008460068401C0A
:10729000086008460068401C086008460068401CFA
:1072A000086008460068401C086008460068401CEA
:1072B000086008460068401C086008460068401CDA
:1072C000086008460068401C086008460068401CCA
:1072D000086054E02D480068401C2C4908600846AE
:1072E0000068401C086008460068401C08600846AA
:1072F0000068401C086008460068401C086008469A
:107300000068401C086008460068401C0860084689
:107310000068401C086008460068401C0860084679
:107320000068401C086008460068401C0860084669
:107330000068401C086008460068401C0860084659
:107340000068401C086008460068401C0860084649
:107350000068401C08602846F9F758FD0B48006893
:10736000401C0A49086008460068401C086008463E
:107370000068401C086008460068401C08605B000C
:10738000601C44B2182CFFF65CAF30BDA401002095
:1073900010B5FDF755F800B910BD2D48007800284C
:1073A00054D0FBF7A3F8FBF7A1F8FBF79FF8FBF726
:1073B0009DF8FBF79BF8FBF799F8FBF797F8FBF7BD
:1073C00095F8FBF793F8FBF791F8FBF78FF8FBF7CD
:1073D0008DF8FBF78BF8FBF789F8FBF787F8FBF7DD
:1073E00085F8FBF783F8FBF781F8FBF77FF8FBF7ED
:1073F0007DF8FBF77BF8FBF779F8FBF777F8FBF7FD
:1074000075F8FBF773F8FBF771F8FBF76FF8FBF70C
:107410006DF8FBF76BF80F480078B8B1FAF77CFE0F
:10742000A0B10020F9F7A2FDC4B204B90A24204695
:10743000FAF758FE0848007800B9ADE7FAF77CFF84
:107440001120FAF765FFFAF77DFF00BF00BFA3E741
:1074500080010020240100202501002010B5FFF745
:1074600083FEF9F765FFFFF7B1FEFAF7BDFBFFF703
:1074700071FEFAF725FEF9F705FD10BD4350553AA8
:107480004744333246333330433854362C46524522
:10749000513A64656661756C742C43433A30000060
:1074A000000000000001020304050607080902327B
:1074B000D074000800000020A8010000AE020008FF
:1074C000D4740008A8010020581C0000443E0008A5
:0474D00001FF01AB0C
:04000005080001519D
:00000001FF
