:020000040800F2
:1000000060870020AD010008A9080008B1050008BC
:1000100025070008F5010008E510000800000000B1
:10002000000000000000000000000000810C00083B
:10003000690300080000000011090008990E00087B
:10004000C7010008C7010008C7010008C701000870
:10005000C7010008C7010008C7010008C701000860
:10006000C7010008C7010008C7010008C701000850
:10007000C7010008C7010008C7010008C701000840
:10008000C7010008C7010008C70100080000000000
:10009000000000000000000000000000C701000890
:1000A000C7010008C7010008C7010008C701000810
:1000B000C7010008C7010008C7010008C701000800
:1000C000C7010008C7010008C7010008C7010008F0
:1000D000C7010008C70100085D0F0008000000000C
:1000E000C7010008C7010008C701000800000000A0
:1000F000000000000000000000000000C701000830
:1001000000000000C7010008C7010008C70100087F
:1001100000000000000000000000000000000000DF
:10012000C7010008C7010008C7010008C70100088F
:10013000C7010008000000000000000000000000EF
:10014000000000000000000000000000C7010008DF
:10015000C7010008C7010008C7010008C70100085F
:10016000C7010008C70100080000000000000000EF
:10017000000000000000000000000000000000007F
:1001800000000000C701000800000000000000009F
:10019000C7010008C7010008DFF80CD000F018F80C
:1001A00000480047051D000860870020064880477A
:1001B00006480047FEE7FEE7FEE7FEE7FEE7FEE74C
:1001C000FEE7FEE7FEE7FEE7A90E0008990100083A
:1001D000064C074D06E0E06840F0010394E8070094
:1001E00098471034AC42F6D3FFF7DAFF781D0008C9
:1001F000981D0008FEE70000044A034B118858547C
:10020000491C118070470000EC01002028000020EC
:1002100070B5084D47F23050074E28800024204624
:1002200000F060F93055641C2888E4B28442F6D3AB
:1002300070BD000028000020EC0100200149085C8E
:1002400070470000EC01002070B500F03CF900247C
:10025000064D074E05E0295D204600F049F9641C73
:10026000E4B230888442F6D370BD0000EC01002077
:100270002800002001490020088070472800002045
:1002800010B5074C0020A060AE2000F059FDA0780A
:1002900000F056FDFFF7D8FFBDE8104000F034BA7B
:1002A0001400002070B5174CA16801B96070617826
:1002B000AA290ED00025AB2919D0AC290DD0AD2923
:1002C00010D0AE2918D01048006800F04EF8A56094
:1002D00070BDBDE8704000F079BC2570BDE870408D
:1002E00000F03EBD2570BDE8704000F0B5BB257044
:1002F000BDE8704000F088BD2570BDE87040FFF794
:10030000BFBF000014000020681D000870B5012860
:1003100024D0032822D0124C0428618A08D0052852
:1003200015D0C1B20F480068BDE8704000F01DB89C
:10033000084600F06FFA0546608A001D80B200F0A2
:1003400069FA01462846BDE8704000F063BB0846E4
:1003500000F060FABDE8704000F03CBB70BD0000EA
:100360002C000020701D0008704770B504460D4633
:10037000EE2000F0E5FC204600F0E2FC2846BDE857
:10038000704000F0DDBC00000149086070470000CB
:100390000C3C024070B50646002529B1012927D042
:1003A000022928D04FF4407500F07EF809281ED1AC
:1003B000124C206820F440702060206828432060A0
:1003C000206820F0F8002060206846F00201084311
:1003D0002060206840F48030206000F065F82168DB
:1003E00021F002012160216821F0F801216070BD37
:1003F0004FF48075D8E74FF40075D5E7103C024004
:100400000D4909200A68D20301D5012070470A6806
:10041000D20601D5062070470A68D20501D5022010
:1004200070470A6812F0EF0F01D007207047096883
:100430008907FBD5082070470C3C02400248016840
:1004400041F0004101607047103C024070B50D461C
:10045000064600F029F8092811D1094C206820F43B
:100460004070206020682060206840F0010020601B
:10047000357000F019F8216821F00101216070BD8C
:10048000103C024005480068002805DA034804498A
:100490000C3801600349016070470000103C0240C5
:1004A00023016745AB89EFCD08B509208DF8000021
:1004B000FFF7A6FF8DF800009DF800000128F7D097
:1004C0009DF8000008BD10B5FFF7DCFFF320FFF733
:1004D0005BFF02215820FFF75DFFBDE81040FFF7EA
:1004E000ADBF000001494058C0B2704700000E087F
:1004F000FFF7ACBFF0B5002201274FF0030C0B68EB
:1005000007FA02F52B40AB422CD1066853000CFAD7
:1005100003F4A64306600E79D0F800E09E4046EA58
:100520000E0606600E79012E01D0022E12D18668C9
:10053000A64386604E79D0F808E09E4046EA0E0653
:1005400086604668AE43466045688E799640B6B28E
:1005500035434560C568A543C560CC799C40C368F8
:100560001C43C460521C102AC9D3F0BD4B07DB0EDC
:100570009A40C90810B500EB8100016A0F249C4025
:10058000A1430162016A1143016210BD02460020CD
:1005900012690A4200D001207047024600205269C9
:1005A0000A4200D0012070474183704701837047A1
:1005B000FEE7704700207047074A01B10121117121
:1005C000064931F8101011600449283151F8200013
:1005D0000149FFF78FBF000080000020E882002063
:1005E0000449044A283231F8101052F82000FFF76D
:1005F000CDBF0000E88200202DE9F041012108462E
:1006000000F088F90121022000F084F90121042082
:1006100000F080F9284F01203A46387102215171CB
:100620003B4600229A711A46244ED071082232802D
:10063000042373808502B580F28020243481102346
:100640007381B5810202F281420232828025758275
:100650004022B282F58232837483B083F183338483
:100660007084B18406F12805F08415482860154986
:100670006860C5E9020129616961C5E90610124A8D
:1006800005F14003C5E90802C5E90A10286368635B
:10069000A863E86383E807000024EA6436F81400DE
:1006A000386055F824000449FFF724FF641CE4B2C5
:1006B000142CF3D3BDE8F08180000020E8820020F4
:1006C0000000024000040240000802400449044ABD
:1006D000283231F8101052F82000FFF75EBF0000FA
:1006E000E88200200B000649024601F1280031F89B
:1006F000121050F8220001D0FFF758BFFFF754BF87
:10070000E88200207047000010B5FFF781FD00F07F
:1007100003FD034901200870BDE8104000F0F8BB5C
:1007200014000020FEE700000020054A014640F6C4
:10073000B8331154401C80B29842FAD3704700007D
:100740003077002070B50446401C80B2FFF776FD7C
:100750004FF6FF7101EA00252046FFF76FFD2844A0
:1007600080B270BD70B50446C01C80B2FFF766FD54
:100770000502A01C80B2FFF761FD28440502601C41
:1007800080B2FFF75BFD284405022046FFF756FDC7
:10079000284470BDFFF752BD054A4FF6FF7311188C
:1007A000105C497803EA0121084400B27047000058
:1007B00030770020064B10B51918185CCA788C7871
:1007C000497804EB022201EB022100EB012010BD6D
:1007D000307700200149085670470000307700202C
:1007E000054A4FF6FF731118105C497803EA01219E
:1007F000084480B27047000030770020044B19187D
:10080000185C8A78497801EB022100EB01207047DF
:1008100030770020064B10B51918185CCA788C7810
:10082000497804EB022201EB022100EB012010BD0C
:10083000307700200149085C7047000030770020C5
:10084000024A11541044090A417070473077002061
:10085000044A1154090A0244080A51709070000AAF
:10086000D070704730770020014A11547047000063
:1008700030770020024A11541044090A4170704731
:1008800030770020044A1154090A0244080A5170C2
:100890009070000AD070704730770020014A1154E0
:1008A00070470000307700207047000030B50F23FC
:1008B000C27801780125FAB1144A126801F1E021E9
:1008C00002F4E062C2F5E062C2F30722C2F104045E
:1008D000D3404278A24084781C401443220181F81E
:1008E0000024007800F01F018D404009800000F1D5
:1008F000E020C0F8005130BD01F01F0085404809DC
:10090000800000F1E020C0F8805130BD0CED00E027
:1009100070470000044A0029116801D0014300E03B
:10092000814311607047000030380240044A0029BA
:10093000116801D0014300E081431160704700005D
:100940004038024070B5204B1968204C11F00C0162
:1009500004D06610042903D0082903D004601BE0EA
:10096000066019E0184A121F1168C1F3805511681A
:1009700001F03F0115B1B6FBF1F101E0B4FBF1F17B
:1009800014681268C4F388146143C2F30142521C14
:100990005200B1FBF2F1016019680F2202EA111155
:1009A0000B4A545C0168E14041601C68072505EA78
:1009B0009424145D21FA04F484601B6805EA53331F
:1009C000D25CD140C16070BD083802400024F40000
:1009D0000000002070B50E4C05460020A072AA2031
:1009E000FFF760FCE8B2FFF75DFCC5F30720FFF7F7
:1009F00059FC0020FFF756FC0020FFF753FC0020B5
:100A0000FFF750FC0020FFF74DFC206D206470BD07
:100A10002C00002070B50D460E4904460120887256
:100A2000AA20FFF73FFCE0B2FFF73CFCC4F307202D
:100A3000FFF738FCE8B2FFF735FC2C0AE0B2FFF70D
:100A400031FC240AE0B2FFF72DFC200ABDE870401B
:100A5000FFF728BC2C00002070B50E4A9168491C95
:100A60009160012913D0022912D003290FD100214E
:100A700091601179002400EB012085B2281980B221
:100A8000FFF7DCFB00F05CF9641CFF2CF6D970BDAD
:100A9000908070BD140000202DE9F04100260A4F1F
:100AA00001253446B88D80B2FFF7C8FB05FB006610
:100AB000F86A641C401C2D02E4B2F862042CF1D3E5
:100AC0003046BDE8F08100002C0000202DE9F04107
:100AD00000260A4F01253446B88D80B2FFF7AEFBE1
:100AE00005FB0066F86A641C401C2D02E4B2F86243
:100AF000032CF1D33046BDE8F08100002C0000202B
:100B00002DE9F04100260A4F01253446B88D80B208
:100B1000FFF794FB05FB0066F86A641C401C2D027D
:100B2000E4B2F862042CF1D33046BDE8F081000055
:100B30002C0000202DE9F04100260A4F0125344603
:100B4000B88D80B2FFF77AFB05FB0066F86A2D02CC
:100B5000401C641CF86214F0FF04F1D03046BDE87C
:100B6000F08100002C0000200449086C020404D528
:100B70004FF6FF725040C043086470472C000020BD
:100B80000449086C020603D580F0FF00C0430864E6
:100B9000704700002C0000202DE9F04100260A4F8C
:100BA00001253446B88D80B2FFF748FB05FB00668F
:100BB000F86A641C401C2D02E4B2F862022CF1D3E6
:100BC0003046BDE8F08100002C00002070B5284BB5
:100BD00026499A688854521C9A60072A41D30020FB
:100BE0009860CD780C7948788A784B79897905EBCB
:100BF000042404EB034303EB01611E4B1C781E4BE2
:100C00001B68DCB132B1012A09D0032A0CD0042AB6
:100C10001BD10EE0BDE87040C9B2FFF7CDBCBDE806
:100C20007040C9B2FFF75EBDBDE87040C9B2FFF7C2
:100C300069BDBDE87040C9B2FFF7BBBC0F4C012ACB
:100C400009D0022A0AD0042A0CD0BDE87040012144
:100C50001846FFF78ABBFFF739FD01E0FFF7C0FC3C
:100C6000206070BDFFF7A6FCFAE7000088000020B6
:100C70001400002036000020741D00087C000020B5
:100C8000704700002DE9F0418046012188B00846F8
:100C9000FFF740FE01214804FFF748FE254F0722D9
:100CA00002213846FFF762FC072203213846FFF78E
:100CB0005DFC02208DF8150000248DF816400125FA
:100CC0008DF817500C268DF81400049604A93846A8
:100CD000FFF710FCADF80840ADF80A60164EADF80D
:100CE0000440CDF80080ADF80640ADF80C406946F0
:100CF000304600F09DF94021304600F04DF90121C9
:100D0000304600F04CF926208DF818008DF81B5065
:100D10008DF819508DF81A5006A8FFF7C7FD01226B
:100D200040F22551304600F06AF90448047008B0DA
:100D3000BDE8F081000002400044004010000020A7
:100D400070B5064D04468021284600F032F900288F
:100D5000F9D00248001D048070BD0000004400402E
:100D600010B504460A488168491C816001290ED0EB
:100D700002290CD1002181608170FFF77BFAAC2041
:100D8000FFF7DEFF2046BDE81040FFF7D9BF10BDDA
:100D9000140000201848016841F080510160174894
:100DA000016841F44041016013483838016801602E
:100DB00001680160016841F480510160021F10491F
:100DC0001160111F0A6842F080720A600A6892017D
:100DD000FCD50C4A40F202711160016821F0030158
:100DE0000160016841F0020101600168C1F3810105
:100DF0000229FAD1704700004038024000700040DC
:100E000010640107003C024070B5164DA968491CEA
:100E1000A960012917D0002302290ED0AA78124E0A
:100E20004240AA702A69B054521C2A61E868801CAA
:100E3000814208D10024AB600BE0E86010B94FF4A8
:100E40008070E8602B6170BD305DFFF7D5F9641CE0
:100E5000A4B228698442F7D3BDE87040AB20FFF705
:100E60006FBF000014000020EC000020401EB0F115
:100E7000807F01D3012070474FF0E0214861054A8F
:100E8000F02082F8140D00208861072008610020FE
:100E9000704700000FE000E002480168491E016051
:100EA0007047000012000020124810B5016841F49C
:100EB000700101601048016841F0010101600E4AB3
:100EC00000210832116002680C4B1A400260031DB9
:100ED0000B4A1A60026822F48022026006480C3035
:100EE0000160FFF757FF03494FF000608039086049
:100EF00010BD000088ED00E000380240FFFFF6FE64
:100F000010300024014900200880704712000020A2
:100F1000024908800248FFF7A9BF00001200002024
:100F200020A1070010B5064C20800648FFF79EFF61
:100F300020880028FCD14FF0E021086110BD00009E
:100F400012000020A08601000348008808B100209C
:100F500070470120704700001200002070B50C4D52
:100F600040F22551284600F02BF800280FD0094CFC
:100F700001202070284600F0B1F86070402128461A
:100F800000F00AF86078BDE87040FFF78BB970BDDB
:100F90000044004010000020C94301807047002930
:100FA000818902D041F4005101E021F40051818196
:100FB00070470246002012880A4200D00120704784
:100FC00070B501F01F0501260024C1F3421306FA93
:100FD00005F2012B0FD0022B0FD0838A4FEA11218B
:100FE0000088134206FA01F600EA060001D000B1BB
:100FF0000124204670BD8389F0E7038AEEE710B52F
:10100000C1F3421301F01F040121A140012B07D0BD
:10101000022B07D01430002A026805D00A4304E0EE
:101020000C30F8E71030F6E78A43026010BD00008C
:101030007FB50446008A0D46C98820F4405001431C
:101040002182A08941F20C618843A9882A89114331
:101050006A8902431143A181A08A20F44071A889C2
:101060000843A0826846FFF76DFC1A48844202D00C
:101070001948844201D1039800E00298A18909042B
:1010800000EBC00101EB0010296801D5490000E028
:101090008900B0FBF1F06422B0FBF2F109010B0909
:1010A0006FF018056B4300EB8300A3891D044FF01C
:1010B000320306D503EBC000B0FBF2F000F00700EE
:1010C00005E003EB0010B0FBF2F000F00F00084366
:1010D00020817FBD00100140001401408088C0F3D2
:1010E00008007047FEE700000749064ACB79D05454
:1010F000C879401CC871C879142801D10020C87172
:10110000704700001C7700202C00002001490020BF
:10111000887170472C00002070B5134C002540F6F4
:10112000B730E5626582A582E582A581E5812582E9
:101130006562A5622083257065706583A58325633C
:101140006563A570E570E5832584A563E563256483
:101150006564A564E56425716571FFF7E5FAA5711D
:10116000E5712572657270BD2C0000202DE9F047F5
:10117000094CE06A401CE062401E80B2FFF75EF856
:1011800001250026054F01464FF6FF784FF0FF0975
:10119000DE2805D205E000002C000020307700207A
:1011A000F4E382007A44526897440000A40A0000E5
:1011B0007803000086030000C0030000A4030000C1
:1011C000CA030000C60300008C030000980300005F
:1011D000A40A00003604000050040000A40A000025
:1011E000E8030000FE030000180400009A04000059
:1011F000A2040000B0040000E8060000F0060000B1
:10120000FC060000040700001E070000A40A0000FE
:101210004A0700006C070000B80700000C08000037
:101220007E0800009E080000B6080000CE080000FE
:10123000E6080000F008000018090000200900007E
:1012400028090000A40A0000300900003C09000041
:10125000460900004E090000620900007009000004
:10126000A40A00007E0900005809000000090000DF
:1012700010090000960A0000880900008809000093
:10128000880900009609000096090000A2090000E4
:10129000AE090000C8090000EA090000000A0000C9
:1012A000280A0000180A00001205000018050000B6
:1012B000A40A0000B00A00003C0A00003C0A00003A
:1012C0003C0A00004C0A0000A40A00005A0A000070
:1012D000640A0000760A0000A40A0000880A0000E0
:1012E000B8040000C4040000A40A0000D0040000F8
:1012F000DC040000E2040000A40A0000E80400008E
:10130000EE040000FA040000A40A00000C0500002E
:1013100036060000360600003606000042060000D1
:10132000A40A00004E0600005A06000066060000EF
:10133000A40A0000720600007E0600007E0600007F
:101340007E0600008A060000A40A0000960600003F
:10135000A2060000AE060000A40A0000BA060000C3
:10136000E4050000E4050000E4050000F0050000CD
:10137000A40A0000FE050000040600001606000096
:10138000A40A0000280600006805000068050000A7
:101390006805000072050000A40A00007C0500003A
:1013A0008605000090050000A40A00009A050000D0
:1013B000A4050000A4050000A4050000B20500007B
:1013C000A40A0000BC050000C6050000D00500000E
:1013D000A40A0000DA0500001E0500001E0500003A
:1013E0001E0500002E050000A40A000038050000BC
:1013F0004A05000054050000A40A00005E05000034
:1014000064040000760400008A04000084040000E4
:101410000E070000A40A00001A0700002A070000B7
:1014200036070000A40A0000420700002A07000057
:1014300036070000A40A000042070000560700001B
:10144000A40A0000640700004A07000056070000D5
:10145000A40A0000640700007C070000A40A000042
:101460008E07000098070000A4070000A40A0000EF
:10147000B0070000CA070000A40A0000E20700004D
:10148000EE070000F8070000A40A000002080000B0
:1014900024080000A40A00004008000050080000D2
:1014A00060080000A40A000070080000D2060000D6
:1014B000D2060000D8060000C6060000C6060000DE
:1014C000DE060000C6060000CC060000A40A0000EC
:1014D000B00A0000C6060000C6060000DE060000D6
:1014E0001E04000030040000240400002A04000050
:1014F0003004000094080000AC080000C40800009C
:10150000DC080000E6080000F0080000D206000039
:10151000D8060000A40A0000B00A00001004000071
:1015200014040000E08A6082FFF7EAFAFEF7EEFE9C
:1015300094E3FFF731FB09E0FFF72EFB618A0844D3
:10154000E08257E3FFF728FB618A081A608285E38F
:10155000E08A6082E06A0021C01C228B491CC9B26B
:10156000B854521E000A22830329F6D3FFF7AEFABD
:10157000A2E22571667100210846228B401C521C94
:1015800092B22283BA5CC0B202EB01210328F4D3E9
:10159000E16263E3208B401C80B2395C401C80B266
:1015A0002083385C00EB0120D0E7208B618A39541E
:1015B000401E80B2090A3954401E30E026714DE3C6
:1015C00025714BE3FFF768FA1EE2FFF765FA23E2A5
:1015D000FFF762FAFAE1FFF75FFA05E2FFF75CFA5C
:1015E00077E1608AA081A08AE081E08A2082206C75
:1015F0006062606CA0624FF4FA60A7E7A089608225
:10160000E089A082208AE082606A2064A06AA4E067
:10161000FFF7C2FA618A084480B2FFF7E1F820833D
:101620001CE3FFF7B9FA618A084480B2218B40E0DD
:10163000FFF74CFA4DE1FFF7AFFA618A084480B238
:10164000FFF7DCF838E2FFF727FA618A51E1FFF78C
:10165000A3FAD4E9101202FB00103AE1FFF79CFA5A
:10166000216C46E1B4F8440080B2FFF793F830E112
:10167000B4F8440080B2FFF765F82AE1B4F84400FA
:1016800080B2FFF76FF824E1B4F84400ABE0B4F89F
:101690004400AEE0B4F84400B1E0B4F8440094F87B
:1016A000401080B216E0B4F8400081B2B4F84400B3
:1016B00080B2FFF7DFF8D1E2B4F8440016E0FFF79C
:1016C0005FFACBE2FFF750FAC8E2FFF765FA618AEA
:1016D00008445FE0FFF7E2F8C0E2FFF75DFA618AD5
:1016E00008445DE0FFF758FA618A084480B2216C33
:1016F000FFF7C8F8B2E2FFF74FFA618A084459E0F1
:10170000FFF74AFA618A08445DE0FFF745FA618A0B
:10171000084461E0FFF740FA618A084463E0FFF79C
:101720003BFA618A084464E0FFF736FA618A0844AC
:1017300065E0FFF731FA618A084466E0FFF72CFAAA
:10174000618A084467E0FFF727FA618A084468E085
:10175000FFF722FA618A084469E060647EE2FFF7DD
:101760001BFA618A084468E0FFF716FA618A0844A8
:1017700069E0FFF711FA618A08446AE0FFF70CFAA2
:10178000618A08446BE0FFF707FA618A08446CE05D
:10179000FFF702FA80B294F840109BE7FFF7FCF9DC
:1017A000B4F8401080B289B283E7FFF7F5F99DE7FE
:1017B000FFF7F2F994F8401080B249B2FFF754F8FD
:1017C0004CE2FFF7E9F9B4F8401080B209B2FFF734
:1017D00037F843E2FFF7E0F980B2216CFFF738F801
:1017E0003CE2FFF7D9F980B2FFF724F871E0FFF788
:1017F000D3F980B2FEF7F4FF6BE0FFF7CDF980B2CA
:10180000FFF708F865E0FFF7C7F980B2FEF7E2FFDF
:101810005FE0FFF7C1F980B2FEF7BEFF59E0FFF7C6
:10182000BBF980B2FEF7C6FF53E0FFF7B5F980B20F
:10183000FFF700F891E7FFF7AFF980B2FEF7D0FFAE
:101840008BE7FFF7A9F980B2FEF7E4FF85E7FFF722
:10185000A3F980B2FEF7BEFF7FE7FFF79DF980B2E4
:10186000FEF79AFF79E7FFF797F980B2FEF7A2FF3C
:1018700073E794F840001EE0B4F8400020E094F8CC
:101880004000C1E0B4F84000C6E0B4F8400080B2C7
:10189000206417E7206C002839D005E1206C00286F
:1018A00001D0606C98BBFFE0D4E910010843F9E770
:1018B00094F840004042C0B203E0B4F84000404217
:1018C00080B22064FBE6206C02E0206C002887DAFE
:1018D00040422064C2E194F8400094F84410084467
:1018E00092E0B4F84000B4F84410084494E0D4E91D
:1018F00010010844EDE794F8400094F84410401AB1
:1019000082E0B4F84000B4F84410401A84E0C9E022
:10191000D4E91001401ADCE794F8401094F8440030
:10192000E06411FB00F024E0B4F84410B4F8400087
:1019300089B280B24843E16426E0D4E9100148430B
:10194000E16415E194F8400094F8441048435BE0EA
:10195000B4F84000B4F8441048435DE0D4E9100105
:101960004843B6E794F8401094F84400E064B1FBB3
:10197000F0F0A06448E0B4F8400081B2B4F844004C
:1019800080B2E064B1FBF0F0A06445E060E1D4E92E
:101990001010E064B1FBF0F0EAE0D4E9100190FB34
:1019A000F1F031E0D4E9100190FBF1F034E0D4E93A
:1019B000100190FBF1F08CE794F8400094F844108B
:1019C000B0FBF1F201FB1200C4E9120140B280E762
:1019D000B4F84000B4F8441080B289B2B0FBF1F220
:1019E00001FB1200C4E9120100B272E7D4E9100150
:1019F000B0FBF1F201FB1200E164B9E0D4E910019F
:101A000090FBF1F201FB1200C0B262E7D4E91001D1
:101A100090FBF1F201FB120080B25AE7D4E9100109
:101A200090FBF1F201FB120053E7216CA164606CA2
:101A3000E064814201D9A56400E0A664A06C48E797
:101A4000D4E9100188422DDC2EE0216CA164606C89
:101A5000E0648142F1D3EEE7D4E91001884221DA53
:101A600022E0216CA164606CE0648142E5D2E2E78F
:101A7000D4E91001884215DB16E0216CA164606C8A
:101A8000E0648142D9D8D6E7D4E91001884209DD63
:101A90000AE0D4E91001884204D005E0D4E910013D
:101AA000884201D02564D9E02664D7E0206C012863
:101AB0003FF45CADE06AC01CE062CFE0206C00281F
:101AC000F8D153E5206C80F0010051E0206C80F0EB
:101AD000FF004DE0206C80EA080001E0206CC0436C
:101AE000E16CB0FBF1F043E0D4E910010840E1649F
:101AF0003EE0D4E91001E16439E0D4E91001484046
:101B0000E16435E0D4E91001C840E16430E094F8C4
:101B10004010606CE0648140C8B229E0B4F8401025
:101B2000606CE064814088B222E0D4E91001884012
:101B3000E1641DE0FEF7FEFF216C014101F00100B0
:101B4000C7E6FEF7F7FF216C0141C8B2C1E6FEF718
:101B5000F1FF216C014188B2BBE6FEF7EBFF05FA0D
:101B600000F0C1B281F0FF021AE0104000E008432B
:101B7000A064AEE6FEF7DEFF216C05FA00F0A1647A
:101B800080B2636C80EA08021BB10143A164216446
:101B900064E01140FAE7FEF7CDFF05FA00F1CA4311
:101BA000206CA064636C002BE1D1DEE7FEF7C2FF7E
:101BB000616CE164814009FA00F2206C82EA08025B
:101BC0001040D4E7FEF7B6FF616CE164814008FA8B
:101BD00000F206E0FEF7AEFF616CE164814009FAB5
:101BE00000F2206C9043C2E794F84010A08AFEF700
:101BF00055FE13E0A08231E0B4F8400081B2A08A23
:101C0000FEF738FE13E0A08A216CFEF73BFE15E0DC
:101C100094F8400041B2A08AFEF726FEA08A401C3C
:101C2000E8E7B4F8400001B2A08AFEF709FEA08AF6
:101C3000801CDFE7A08A216CFEF70AFEA08A001D47
:101C4000D8E7206C00283FF43CAF401E206431E709
:101C50001548067015480068FEF787FB20790028B4
:101C600020D0607900281DD1207AE179884219D0EE
:101C70006571E16A0020228B401CC0B2B954521E2B
:101C8000090A22830328F6D30948217A405C8000A0
:101C9000E062207A6072207A401C2072207A142838
:101CA00000D12672BDE8F087140000206C1D0008EA
:101CB0001C77002002E008C8121F08C1002AFAD1D0
:101CC00070477047002001E001C1121F002AFBD1BC
:101CD000704700000A4810B5007800280FD0FFF7C1
:101CE00045FAFFF731F9002809D00120FFF710F974
:101CF000FFF70CFABDE810401120FFF7F5B910BD51
:101D000014000020FFF7FEF8FEF776FC4FF4E130F8
:101D1000FEF7B8FF4FF4FA70FFF704F90C4D0024FA
:101D200020212846FEF742FC6420FFF7FBF8202123
:101D30002846FEF739FC6420FFF7F4F8641CE4B28F
:101D4000142CEDD300F006F8FFF7C4FFFCE7000009
:101D50000000024010B5FEF7D7FC024900200870D1
:101D600010BD0000140000205000000051000000D1
:101D70005200000053000000981D000800000020E1
:101D800088000000B41C0008201E00088800002005
:101D9000D8860000C41C00080000000001020304F3
:101DA000010203040607080900000000000000000B
:101DB0000000000000000000000000000000000023
:101DC0000000000000000000000000000000000013
:101DD0000000000000000000000000000000000003
:101DE00000000000000000000000000000000000F3
:101DF00000000000000000000000000000000000E3
:101E000000000000000000000000000000000000D2
:101E100000000000000000000000000000000000C2
:040000050800019955
:00000001FF
