:020000020000FC
:040000000C9440001C
:0E008000F1E0E0E0A0E0F13021F4E03011F416
:0E008E000C944C00A1930C944300CFEFCDBF17
:0E009C00C8E0CEBFC0E0D1E00C94070880E0C1
:0E00AA0090E0A0E0B0E04C815D816E817F812E
:0E00B800EE27481709F0EFEF591709F0EFEFA8
:0E00C6006A1709F0EFEF7B1709F0EFEF4E2FEE
:0E00D40047FF0C9471004FEF48870C947300A7
:0E00E20044274887488159816A817B8149877C
:0E00F0005A876B877C8740E050E060E070E04C
:0E00FE0089859A85AB85BC85EFEF481709F020
:0E010C00EE27591709F0EE276A1709F0EE27C3
:0E011A007B1709F0EE274E2F47FF0C94A8002C
:0E012800E8940FF46894F89440912A008885BA
:0E01360087FF509887FD509A4AB140932A00E7
:0E0144000EF478940C9401040C94010441E034
:0E01520050E060E070E089859A85AB85BC8541
:0E016000EFEF481709F0EE27591709F0EE27C8
:0E016E006A1709F0EE277B1709F0EE274E2FD7
:0E017C0047FF0C94D500E8940FF46894F894B3
:0E018A0040912A00888587FF519887FD519A81
:0E0198004AB140932A000EF478940C940104AE
:0E01A6000C94010442E050E060E070E08985B6
:0E01B4009A85AB85BC85EFEF481709F0EE2762
:0E01C200591709F0EE276A1709F0EE277B1790
:0E01D00009F0EE274E2F47FF0C940201E89431
:0E01DE000FF46894F89440912A00888587FFFA
:0E01EC00529887FD529A4AB140932A000EF4B1
:0E01FA0078940C9401040C94010443E050E04E
:0E02080060E070E089859A85AB85BC85EFEFDC
:0E021600481709F0EE27591709F0EE276A176E
:0E02240009F0EE277B1709F0EE274E2F47FF5B
:100232000C942F01E8940FF46894F89440912A00EA
:10024200888587FF539887FD539A4AB140932A00C5
:0E0252000EF478940C9401040C94010444E022
:0E02600050E060E070E089859A85AB85BC8532
:0E026E00EFEF481709F0EE27591709F0EE27B9
:0E027C006A1709F0EE277B1709F0EE274E2FC8
:0E028A0047FF0C945C01E8940FF46894F8941C
:0E02980040912A00888587FF549887FD549A6C
:0E02A6004AB140932A000EF478940C9401049F
:0E02B4000C94010445E050E060E070E08985A4
:0E02C2009A85AB85BC85EFEF481709F0EE2753
:0E02D000591709F0EE276A1709F0EE277B1781
:0E02DE0009F0EE274E2F47FF0C948901E8949B
:0E02EC000FF46894F89440912A00888587FFEB
:0E02FA00559887FD559A4AB140932A000EF49C
:0E03080078940C9401040C94010446E050E03B
:0E03160060E070E089859A85AB85BC85EFEFCD
:0E032400481709F0EE27591709F0EE276A175F
:0E03320009F0EE277B1709F0EE274E2F47FF4C
:100340000C94B601E8940FF46894F89440912A0054
:10035000888587FF569887FD569A4AB140932A00B0
:0E0360000EF478940C9401040C94010447E010
:0E036E0050E060E070E089859A85AB85BC8523
:0E037C00EFEF481709F0EE27591709F0EE27AA
:0E038A006A1709F0EE277B1709F0EE274E2FB9
:0E03980047FF0C94E301E8940FF46894F89486
:0E03A60040912A00888587FF579887FD579A57
:0E03B4004AB140932A000EF478940C94010490
:0E03C2000C94010448E050E060E070E0898592
:0E03D0009A85AB85BC85EFEF481709F0EE2744
:0E03DE00591709F0EE276A1709F0EE277B1772
:0E03EC0009F0EE274E2F47FF0C941002E89404
:0E03FA000FF46894F89440912400888587FFE2
:0E040800209887FD209A44B1409324000EF402
:0E04160078940C9401040C94010449E050E029
:0E04240060E070E089859A85AB85BC85EFEFBE
:0E043200481709F0EE27591709F0EE276A1750
:0E04400009F0EE277B1709F0EE274E2F47FF3D
:10044E000C943D02E8940FF46894F89440912400C3
:10045E00888587FF219887FD219A44B14093240017
:0E046E000EF478940C9401040C9401044AE0FE
:0E047C0050E060E070E089859A85AB85BC8514
:0E048A00EFEF481709F0EE27591709F0EE279B
:0E0498006A1709F0EE277B1709F0EE274E2FAA
:0E04A60047FF0C946A02E8940FF46894F894EF
:0E04B40040912400888587FF229887FD229AB8
:0E04C20044B1409324000EF478940C9401048D
:0E04D0000C9401044BE050E060E070E0898580
:0E04DE009A85AB85BC85EFEF481709F0EE2735
:0E04EC00591709F0EE276A1709F0EE277B1763
:0E04FA0009F0EE274E2F47FF0C949702E8946E
:0E0508000FF46894F89440912400888587FFD2
:0E051600239887FD239A44B1409324000EF4ED
:0E05240078940C9401040C9401044CE050E017
:0E05320060E070E089859A85AB85BC85EFEFAF
:0E054000481709F0EE27591709F0EE276A1741
:0E054E0009F0EE277B1709F0EE274E2F47FF2E
:10055C000C94C402E8940FF46894F894409124002D
:10056C00888587FF249887FD249A44B14093240002
:0E057C000EF478940C9401040C9401044DE0EC
:0E058A0050E060E070E089859A85AB85BC8505
:0E059800EFEF481709F0EE27591709F0EE278C
:0E05A6006A1709F0EE277B1709F0EE274E2F9B
:0E05B40047FF0C94F102E8940FF46894F89459
:0E05C20040912400888587FF259887FD259AA3
:0E05D00044B1409324000EF478940C9401047E
:0E05DE000C9401044EE050E060E070E089856E
:0E05EC009A85AB85BC85EFEF481709F0EE2726
:0E05FA00591709F0EE276A1709F0EE277B1754
:0E06080009F0EE274E2F47FF0C941E03E894D6
:0E0616000FF46894F89440912700888587FFC0
:0E062400389887FD389A47B1409327000EF4AE
:0E06320078940C9401040C9401044FE050E005
:0E06400060E070E089859A85AB85BC85EFEFA0
:0E064E00481709F0EE27591709F0EE276A1732
:0E065C0009F0EE277B1709F0EE274E2F47FF1F
:10066A000C944B03E8940FF46894F8944091270093
:10067A00888587FF399887FD399A47B140932700C3
:0E068A000EF478940C9401040C94010440E1E9
:0E06980050E060E070E089859A85AB85BC85F6
:0E06A600EFEF481709F0EE27591709F0EE277D
:0E06B4006A1709F0EE277B1709F0EE274E2F8C
:0E06C20047FF0C947803E8940FF46894F894C2
:0E06D00040912700888587FF3A9887FD3A9A67
:0E06DE0047B1409327000EF478940C94010469
:0E06EC000C94010441E150E060E070E089856B
:0E06FA009A85AB85BC85EFEF481709F0EE2717
:0E070800591709F0EE276A1709F0EE277B1744
:0E07160009F0EE274E2F47FF0C94A503E89440
:0E0724000FF46894F89440912700888587FFB1
:0E0732003B9887FD3B9A47B1409327000EF499
:0E07400078940C9401040C94010442E150E002
:0E074E0060E070E089859A85AB85BC85EFEF91
:0E075C00481709F0EE27591709F0EE276A1723
:0E076A0009F0EE277B1709F0EE274E2F47FF10
:100778000C94D203E8940FF46894F89440912700FD
:10078800888587FF3C9887FD3C9A47B140932700AE
:0E0798000EF478940C9401040C94010443E1D7
:0E07A60050E060E070E089859A85AB85BC85E7
:0E07B400EFEF481709F0EE27591709F0EE276E
:0E07C2006A1709F0EE277B1709F0EE274E2F7D
:0E07D00047FF0C94FF03E8940FF46894F8942C
:0E07DE0040912700888587FF3D9887FD3D9A52
:0E07EC0047B1409327000EF478940C9401045A
:0E07FA000C9401040C940104089580E090E03A
:0E080800A0E0B0E04C815D816E817F81EE2723
:0E081600481709F0EFEF591709F0EFEF6A17D6
:0E08240009F0EFEF7B1709F0EFEF4E2F47FFC3
:0E0832000C941F044FEF48870C9421044427B8
:0E0840004887488159816A817B8149875A87A0
:0E084E006B877C8740E050E060E070E08985B9
:0E085C009A85AB85BC85EFEF481709F0EE27B3
:0E086A00591709F0EE276A1709F0EE277B17E1
:0E08780009F0EE274E2F47FF0C945604E8942B
:0E0886000FF46894F89440912B00888587FF4A
:0E089400589887FD589A4BB140932B000EF4F4
:0E08A20078940C94AF070C94AF0741E050E03F
:0E08B00060E070E089859A85AB85BC85EFEF2E
:0E08BE00481709F0EE27591709F0EE276A17C0
:0E08CC0009F0EE277B1709F0EE274E2F47FFAD
:1008DA000C948304E8940FF46894F89440912B00E4
:1008EA00888587FF599887FD599A4BB140932B0009
:0E08FA000EF478940C94AF070C94AF0742E014
:0E09080050E060E070E089859A85AB85BC8583
:0E091600EFEF481709F0EE27591709F0EE270A
:0E0924006A1709F0EE277B1709F0EE274E2F19
:0E09320047FF0C94B004E8940FF46894F89416
:0E09400040912B00888587FF5A9887FD5A9AB0
:0E094E004BB140932B000EF478940C94AF073D
:0E095C000C94AF0743E050E060E070E0898546
:0E096A009A85AB85BC85EFEF481709F0EE27A4
:0E097800591709F0EE276A1709F0EE277B17D2
:0E09860009F0EE274E2F47FF0C94DD04E89495
:0E0994000FF46894F89440912B00888587FF3B
:0E09A2005B9887FD5B9A4BB140932B000EF4DF
:0E09B00078940C94AF070C94AF0744E050E02D
:0E09BE0060E070E089859A85AB85BC85EFEF1F
:0E09CC00481709F0EE27591709F0EE276A17B1
:0E09DA0009F0EE277B1709F0EE274E2F47FF9E
:1009E8000C940A05E8940FF46894F89440912B004D
:1009F800888587FF5C9887FD5C9A4BB140932B00F4
:0E0A08000EF478940C94AF070C94AF0745E001
:0E0A160050E060E070E089859A85AB85BC8574
:0E0A2400EFEF481709F0EE27591709F0EE27FB
:0E0A32006A1709F0EE277B1709F0EE274E2F0A
:0E0A400047FF0C943705E8940FF46894F8947F
:0E0A4E0040912B00888587FF5D9887FD5D9A9B
:0E0A5C004BB140932B000EF478940C94AF072E
:0E0A6A000C94AF0746E050E060E070E0898534
:0E0A78009A85AB85BC85EFEF481709F0EE2795
:0E0A8600591709F0EE276A1709F0EE277B17C3
:0E0A940009F0EE274E2F47FF0C946405E894FE
:0E0AA2000FF46894F89440912B00888587FF2C
:0E0AB0005E9887FD5E9A4BB140932B000EF4CA
:0E0ABE0078940C94AF070C94AF0747E050E01B
:0E0ACC0060E070E089859A85AB85BC85EFEF10
:0E0ADA00481709F0EE27591709F0EE276A17A2
:0E0AE80009F0EE277B1709F0EE274E2F47FF8F
:100AF6000C949105E8940FF46894F89440912B00B7
:100B0600888587FF5F9887FD5F9A4BB140932B00DE
:0E0B16000EF478940C94AF070C94AF0748E0EF
:0E0B240050E060E070E089859A85AB85BC8565
:0E0B3200EFEF481709F0EE27591709F0EE27EC
:0E0B40006A1709F0EE277B1709F0EE274E2FFB
:0E0B4E0047FF0C94BE05E8940FF46894F894E9
:0E0B5C0040912500888587FF289887FD289AFC
:0E0B6A0045B1409325000EF478940C94AF072B
:0E0B78000C94AF0749E050E060E070E0898522
:0E0B86009A85AB85BC85EFEF481709F0EE2786
:0E0B9400591709F0EE276A1709F0EE277B17B4
:0E0BA20009F0EE274E2F47FF0C94EB05E89468
:0E0BB0000FF46894F89440912500888587FF23
:0E0BBE00299887FD299A45B1409325000EF431
:0E0BCC0078940C94AF070C94AF074AE050E009
:0E0BDA0060E070E089859A85AB85BC85EFEF01
:0E0BE800481709F0EE27591709F0EE276A1793
:0E0BF60009F0EE277B1709F0EE274E2F47FF80
:100C04000C941806E8940FF46894F8944091250025
:100C1400888587FF2A9887FD2A9A45B14093250045
:0E0C24000EF478940C94AF070C94AF074BE0DD
:0E0C320050E060E070E089859A85AB85BC8556
:0E0C4000EFEF481709F0EE27591709F0EE27DD
:0E0C4E006A1709F0EE277B1709F0EE274E2FEC
:0E0C5C0047FF0C944506E8940FF46894F89452
:0E0C6A0040912500888587FF2B9887FD2B9AE7
:0E0C780045B1409325000EF478940C94AF071C
:0E0C86000C94AF074CE050E060E070E0898510
:0E0C94009A85AB85BC85EFEF481709F0EE2777
:0E0CA200591709F0EE276A1709F0EE277B17A5
:0E0CB00009F0EE274E2F47FF0C947206E894D1
:0E0CBE000FF46894F89440912500888587FF14
:0E0CCC002C9887FD2C9A45B1409325000EF41C
:0E0CDA0078940C94AF070C94AF074DE050E0F7
:0E0CE80060E070E089859A85AB85BC85EFEFF2
:0E0CF600481709F0EE27591709F0EE276A1784
:0E0D040009F0EE277B1709F0EE274E2F47FF70
:100D12000C949F06E8940FF46894F894409125008F
:100D2200888587FF2D9887FD2D9A45B14093250030
:0E0D32000EF478940C94AF070C94AF074EE0CB
:0E0D400050E060E070E089859A85AB85BC8547
:0E0D4E00EFEF481709F0EE27591709F0EE27CE
:0E0D5C006A1709F0EE277B1709F0EE274E2FDD
:0E0D6A0047FF0C94CC06E8940FF46894F894BC
:0E0D780040912800888587FF409887FD409AAB
:0E0D860048B1409328000EF478940C94AF0707
:0E0D94000C94AF074FE050E060E070E08985FE
:0E0DA2009A85AB85BC85EFEF481709F0EE2768
:0E0DB000591709F0EE276A1709F0EE277B1796
:0E0DBE0009F0EE274E2F47FF0C94F906E8943B
:0E0DCC000FF46894F89440912800888587FF02
:0E0DDA00419887FD419A48B1409328000EF4DD
:0E0DE80078940C94AF070C94AF0740E150E0F4
:0E0DF60060E070E089859A85AB85BC85EFEFE3
:0E0E0400481709F0EE27591709F0EE276A1774
:0E0E120009F0EE277B1709F0EE274E2F47FF61
:100E20000C942607E8940FF46894F89440912800F5
:100E3000888587FF429887FD429A48B140932800F1
:0E0E40000EF478940C94AF070C94AF0741E1C8
:0E0E4E0050E060E070E089859A85AB85BC8538
:0E0E5C00EFEF481709F0EE27591709F0EE27BF
:0E0E6A006A1709F0EE277B1709F0EE274E2FCE
:0E0E780047FF0C945307E8940FF46894F89425
:0E0E860040912800888587FF439887FD439A96
:0E0E940048B1409328000EF478940C94AF07F8
:0E0EA2000C94AF0742E150E060E070E08985FB
:0E0EB0009A85AB85BC85EFEF481709F0EE2759
:0E0EBE00591709F0EE276A1709F0EE277B1787
:0E0ECC0009F0EE274E2F47FF0C948007E894A4
:0E0EDA000FF46894F89440912800888587FFF3
:0E0EE800449887FD449A48B1409328000EF4C8
:0E0EF60078940C94AF070C94AF0743E150E0E2
:0E0F040060E070E089859A85AB85BC85EFEFD3
:0E0F1200481709F0EE27591709F0EE276A1765
:0E0F200009F0EE277B1709F0EE274E2F47FF52
:100F2E000C94AD07E8940FF46894F894409128005F
:100F3E00888587FF459887FD459A48B140932800DC
:100F4E000EF478940C94AF070C94AF070C94AF0783
:100F5E000895488149834981442311F40C94C607AE
:0E0F6E004A9549834AE04A83FE013496DF012A
:100F7C004A814D93EF010E94C70724970C94B20746
:100F8C000895488149834981442311F40C94D7076F
:0E0F9C004A954983000000000000000000009C
:0E0FAA000C94C9070895488159816A817B81A2
:0E0FB8004C835D836E837F834C815D816E81EF
:0E0FC6007F81CA01DB01882341F4992331F4B5
:0E0FD400AA2321F4BB2311F40C940608019704
:0E0FE200A040B040AC01BD014C835D836E8326
:0E0FF0007F8344E64887FE013C96DF0148857A
:0E0FFE004D93EF010E94B0072C970C94E00772
:0E100C000895FE013096DF01EF010E941808E2
:0E101A002097FE013096DF01EF010E94400892
:0E10280020970C940E0808954DE050E060E013
:0E10360070E0488359836A837B8341E050E079
:0E10440060E070E04C835D836E837F83FE016D
:0E1052003896DF01488159816A817B814D9378
:0E1060005D936D937D934C815D816E817F81E8
:0E106E004D935D936D937D93EF010E945400AE
:0E107C00289708954DE050E060E070E0488352
:0E108A0059836A837B8341E050E060E070E0B0
:0E1098004C835D836E837F83FE013896DF01FB
:0E10A600488159816A817B814D935D936D93E2
:0E10B4007D934C815D816E817F814D935D93B4
:0E10C2006D937D93EF010E940204289744EF86
:0E10D00051E060E070E0488359836A837B83BF
:0E10DE00FE013896DF01488159816A817B81CD
:0E10EC004D935D936D937D93EF010E94D807A5
:0E10FA0028974DE050E060E070E04883598395
:0E1108006A837B8340E050E060E070E04C833F
:0E1116005D836E837F83FE013896DF01488182
:0E11240059816A817B814D935D936D937D931C
:0E1132004C815D816E817F814D935D936D9345
:0E1140007D93EF010E940204289744EF51E0D6
:0E114E0060E070E0488359836A837B83FE0172
:0E115C003896DF01488159816A817B814D936D
:0E116A005D936D937D93EF010E94D807289747
:0E117800089505E075956795579547950A957A
:0E118600D1F7089505E0B595A7959795879543
:0E1194000A95D1F708950AE09595879577950D
:0E11A2006795579547950A95C1F708950AE09D
:0E11B000B595A795979587950A9541F70895EF
:0E11BE000AE0440F551F661F771F0A95D1F7F0
:0E11CC000895EE24FF240AE0440F551F661F0D
:0E11DA00771FEE1CFF1C0A95C1F70895EF3F2A
:0E11E80011F4009503950895EF3F29F400954A
:0E11F6001095039509F413950895EF3F59F4F1
:0E1204000095109520953095039529F41395CB
:0E12120019F4239509F433950895EF3F11F474
:0E122000409543950895EF3F29F44095509571
:0E122E00439509F453950895EF3F59F4409508
:0E123C00509560957095439529F4539519F4DB
:0E124A00639509F4739508954095509543956A
:0E12580009F45395089540955095439509F477
:0E126600539508954095509560957095439569
:0E12740029F4539519F4639509F473950895C0
:0E12820080959095A095B095839529F493954D
:1012900019F4A39509F4B395089547FF0C945309E5
:0E12A000E09540954395089587FF0C945A09F8
:0E12AE00E09580958395089557FF0C94640990
:0E12BC00E09540955095439509F4539508959B
:0E12CA0097FF0C946E09E095809590958395A2
:0E12D80009F49395089577FF0C947E09E09534
:0E12E6004095509560957095439529F4539569
:1012F40019F4639509F473950895B7FF0C948E0956
:0E130400E09580959095A095B095839529F47D
:0E131200939519F4A39509F4B3950895489F97
:0E1320008001499F100D589F100D0895EE2773
:0E132E00489F800122273327499F100D211D63
:0E133C003E1F4A9F200D311D4B9F300D589FC4
:0E134A00100D211D3E1F599F200D311D5A9F71
:0E135800300D689F200D311D699F300D789F6C
:0E136600300D0895EE27EE24FF24FF2777FFB9
:101374000C94BF090E943509F095B7FF0C94C50978
:0E1384000E944109F095489F800122273327DF
:0E139200499F100D211D3E1FEE1EFE1E4A9F9C
:0E13A000200D311DEE1EFE1E4B9F300DE11C78
:0E13AE00FE1E589F100D211D3E1FEE1EFE1E3E
:0E13BC00599F200D311DEE1EFE1E5A9F300D52
:0E13CA00E11CFE1E5B9FE00CF11C689F200DD5
:0E13D800311DEE1EFE1E699F300DE11CFE1E33
:0E13E6006A9FE00CF11C6B9FF00C789F300D9D
:0E13F400E11CFE1E799FE00CF11C7A9FF00CAC
:10140200A801B901C7010E94CD08F7FF0C940C0A8C
:0E1412000E943509F0950895F8E0002708942F
:0E142000441F001F081B10F4080F4A95FA9590
:0E142E00B9F70895F0E1002711270894441F34
:0E143C00551F001F111F081B190B30F4080F5D
:0E144A00191F4A954F3F09F45A95FA9581F7FC
:0E1458000895F0E20027112722273327089479
:0E146600441F551F661F771F001F111F221FF6
:0E147400331F081B190B2A0B3B0B28F4080F23
:0E148200191F2A1F3B1F4A95FA9559F7089526
:0E149000DD24F0E30027112722273327CC2488
:0E149E000894441F551F661F771FEE1CFF1C8D
:0E14AC00001F111F221F331FCC1C081B190B21
:0E14BA002A0B3B0BCD0830F4080F191F2A1F18
:0E14C8003B1FCD1C4A95FA9531F70895E89F19
:0E14D6008001E99F100DF89F100D400F511F6F
:0214E400089569
:00000001FF
