:10000000020064FFFFFFFFFFFFFFFFFFFFFFFFFF97
:10001000FFFFFFFFFFFFFFFFFFFFFFFFFFFFFFFFF0
:10002000FFFFFFFFFFFFFFFFFFFFFFFFFFFFFFFFE0
:10003000FFFFFFFFFFFFFFFFFFFFFFFFFFFFFFFFD0
:10004000FFFFFFFFFFFFFFFFFFFFFFFFFFFFFFFFC0
:10005000FFFFFFFFFFFFFFFFFFFFFFFFFFFFFFFFB0
:10006000FFFFFFFF78007400F6D8FD75812A0200BB
:10007000D1E5257004A823E622852382852483E424
:100080009322A823E527F622E525700AA823E6F5A2
:10009000F008E6C5F022852382852483E493F5F0F9
:1000A000740193C5F022A823E527F608E528F62277
:1000B0002222752332E52370030200D01523752414
:1000C00064E52470030200CD15240200C10200B5CE
:1000D000227525FF852522752500E590A2E613F5FA
:1000E00026E5266525F4F5257526FFE5226526F427
:1000F000F526E5255526F525E52520E7030201121D
:10010000E590A2E413F5258525256325FFE5253334
:100110009294E590A2E613F5258525221200B202FD
:1001200000D722C2D530E704F404D2D5C5F030E7B9
:1001300004F404B2D5C5F08430D502F40422E6F507
:10014000F018E6F463F0FF04700205F022E7F5F022
:1001500019E7F463F0FF04700205F02219E6F5F0E8
:10016000E7A4FA0918E6F5F0E7A42AFA19E6F5F08B
:10017000E7A4C5F02AC5F022E6FF18E6FEE7FD1960
:10018000E7FC7B007A007910C3EE33FEEF33FFEA21
:1001900033FAEB33FBEAC39CF8EB9D40050EFB857D
:1001A0000002D9E4EE8FF022120178EA8BF022C22D
:1001B000D5E630E70A12013E7807FEAFF0D2D5E768
:1001C00030E70A12014D7905FCADF0B2D512017885
:1001D00030D509F463F0FF04700205F022E6F5F073
:1001E000E7B5F00C0809E6F5F0E7B5F00374FF2277
:1001F000E422E6F5F0E7B5F01E0809E6F5F0E7B50C
:10020000F0150809E6F5F0E7B5F00C0809E6F5F099
:10021000E7B5F00374FF22E422E7C3960809E796E6
:100220001322E7C3960809E7960809E7960809E745
:10023000961322E7C3960809E79622E7C3960809B2
:10024000E7960809E7960809E79622C3C5F013C5A3
:0F025000F013D8F722C333C5F033C5F0D8F72227
:00000001FF
