:100000006F30705413000000130000001300000054
:100010001300000013000000130000001300000094
:100020001300000013000000130000001300000084
:08003000130000007300100032
:100038006FF09FFC000000006F0000106F000010C0
:1000480000000000000000000000000000000000A8
:100058000000000000000000000000000000000098
:100068006FF09FF9000000006FF01FF9000000001A
:100078006FF09FF86FF05FF86FF01FF86FF0DFF721
:100088006FF09FF76FF05FF76FF01FF76FF0DFF615
:100098006FF09FF66FF05FF66FF01FF66FF0DFF509
:1000A8006FF09FF56FF05FF56FF01FF56FF0DFF4FD
:1000B8006FF09FF46FF05FF46FF01FF40000000022
:1000C8000000000000000000000000006FF0DFF2F8
:1000D8006FF09FF26FF05FF26FF01FF26FF0DFF1D9
:1000E8006FF09FF16FF05FF16FF01FF16FF0DFF0CD
:1000F8006FF09FF06FF05FF06FF01FF06FF0DFEFC1
:100108006FF09FEF6F1080556FF01FEF6FF0DFEE0D
:100118006FF09FEE6FF05FEE6FF01FEE6FF0DFEDA8
:1001280000000000000000000000000000000000C7
:080138000000000000000000BF
:100140007300203001A0411122C437440140AA8528
:100150001305048006C613040480EF30B07F9305B6
:1001600000082285EF4040007DD9B2402244410181
:1001700082809377F50013971700B71700209387B5
:100180004727BA9783D70700011111812312F10085
:10019000C1473EC68D473EC4B71700209387472608
:1001A0000A053E9508414C0006CEEF30B041F240C2
:1001B0000561828037170020B7170020371600200E
:1001C000130707259387C723814613060623A945EE
:1001D0003305D600231007002390070023000500F5
:1001E000850609078907E395B6FE82802384A18CE2
:1001F00085472380F1925148238E01951308C0034F
:10020000A38E019523810186A381F1862382018635
:10021000A382F1862388B188A388C1882389D188E5
:10022000A389E18882809387C1897D5798C3D8C309
:1002300023AE018AA389019282808605238AA18C3C
:1002400093E505602399B18CA38A018C23AC018CC2
:1002500005472388E18C8280238A0186A38A018650
:100260000547238B0186A388E1867D572389E18694
:10027000A389018682801387418F03050700B71782
:1002800000209387472993162500B69723A00700DF
:10029000B71700209387872CAA9785462380D7001D
:1002A000930715002300F7008280239CA18423AAD2
:1002B000B18423A6C18423A2D18423AEE184B707ED
:1002C00000009387073E23A6F186B70700009387B7
:1002D000473F23A4F18682801397050183A7C18538
:1002E00041830D83B387E702E205E185B70600206D
:1002F00003C6518F13878624938686243E9583A751
:100300004185420541813E95A147B3E5F502854708
:100310002A9703070700B397B700E207E18701CAEE
:10032000D98F93F7F70F36952300F500828093C796
:10033000F7FFF98FFDB76344050A03A7C1840111D4
:1003400022CC06CE26CA4AC84EC652C456C25AC08D
:100350002A84635CE506AE8463C9050683A74184ED
:1003600063D5F50683C6118581C67D173304A74082
:1003700003C7218501C7FD17B384974083C7018553
:1003800081C7A2872684BE8403A981848547631C14
:10039000F902A685228589378945B345B902814985
:1003A000B305B0402E94AE94330B2401B38A3401CC
:1003B000638D2901228A5285D685050A313FE31CC7
:1003C0004BFF8509E5B7E34920FDF2406244D24482
:1003D0004249B249224A924A024B05618280828098
:1003E00083A7018463C70700B337F000A38AF18EA7
:1003F00099B7828083A7C18363C70700B337F00032
:10040000A38AF18E0DBF82800547634A050483A746
:10041000C18405476355F50463C3050483A741847C
:1004200063DFF5029397050103A7C185C1838D831F
:10043000B387E702E205E185AA9703A54185C207D4
:10044000C183AA972145B3E5A5023707002013070A
:100450008724BA9703C707003357B740058B3A85FF
:100460008280039681853707002083A54185130785
:100470008724814793960701C18663C3C6008280A3
:10048000B386F500BA962380A6008507E5B71D71EF
:10049000A6CACAC8B704FF001399050162DC135944
:1004A000090186CEA2CCCEC6D2C4D6C2DAC05EDEE8
:1004B00066DA6AD86ED632C8ED8C2A8C930749006A
:1004C000A5CC03A70197BA9783C70700130B290090
:1004D0008D833EC0BDC483A70197DA9783C7070009
:1004E000B70B0020014A3EC293970601C1873ECA5E
:1004F00093878B243EC4DA973ECCC247931A0A01F5
:1005000093DA0A0112473384FA0042049377FA0F10
:10051000418463EDE7028146F6406644D64446498D
:10052000B649264A964A064BF25B625CD25C425D53
:10053000B25D368525618280370700201307872446
:1005400059B7B70700209387872441BFD24D81490F
:10055000824763943701050A4DB7130799005697F0
:10056000A5C083A601973697834B070063100C063E
:1005700093868D0093970601C1873EC693F61B00B4
:10058000B9C283A6C186EE852285829693871D0017
:10059000939D0701B24793DD0D4193DB1B00E39F61
:1005A000FDFCD5C003A701975A9703470700BA9AE5
:1005B0008509C20AC20993DA0A0193D9090149BF20
:1005C000A2473E9755B783A6818675BF8546631BB4
:1005D000DC0293868D00C206C18613F61B0001CA99
:1005E00003A68186EE85228536C60296B24693879B
:1005F0001D00939D070193DD0D4193DB1B00E39EDE
:10060000B6FD45B78946E31EDCF813868D00420629
:10061000418293F61B0036CE89CAEE85228532C60A
:10062000E5333246F246E31905EE93871D009396B3
:100630000701C182939D060193DB1B0093DD0D41F1
:10064000E319D6FCB9BFE24703C707008DB79397FC
:1006500005011D71C183D2C43EC45EDE83A701972C
:10066000BA8B224766DA86CEBA97A2CCA6CACAC887
:10067000CEC6D6C2DAC062DC6AD86ED683C4370072
:1006800003C7270003C94700A204BA9413970401C3
:1006900041832AC836CA3AC693777900935C3900F9
:1006A000138A019799E36316090093881C0093FC51
:1006B000F80FB3872B01014C3ECCD247424713744D
:1006C000FC0FB309FC00C2099377FC0F93D90941D1
:1006D00063C1E702F6406644D6444649B649264A15
:1006E000964A064BF25B625CD25C425DB25D25616C
:1006F00082803294420441805E89814463949401F3
:10070000050C65BF83260A00A247930A8900A296BA
:10071000BE9603CB9600C20A93DA0A0193761B00B9
:1007200032CEA1C283A6C186CA854E858296930722
:10073000190093960701C182E247139906011359E4
:1007400009417246135B1B006354F900E398DAFC1D
:10075000B247138714009374F70F3E94420441800C
:1007600071BF83A68186C9B7A38A018A238B018AB8
:100770002387018C8280938E518B038E0E00138F02
:1007800001A113132E001A9F2320AF001385819916
:100790001A950CC19385C19A9A9590C11386C19FF1
:1007A0001A9614C2938641989A9698C2138741A2CA
:1007B0001A971CC39387019C9A9723A007019387DC
:1007C000819E9A9723A017019387419D3E9382476C
:1007D00013171E00050E2320F300B7170020938780
:1007E000C72BBA972390070005472380CE01238BA0
:1007F000E18A8280238F018C23A0018E8280A384D2
:10080000019241112385019206C623800192213C69
:100810002388018C9134238A018EB937B24041017B
:10082000D1BF23A6018E23A4018E23A8018E82802E
:1008300023A6A18E9387818E98432A9798C382809E
:100840009387618883C60700371700201307871E28
:1008500036972300A70003C70700D1460507137783
:10086000F70F2380E70003C707006394E6002380A7
:10087000070082809387818098439376070881C61A
:10088000136707F098C382809387818098439316FB
:10089000070163D50600C176558F98C38280938780
:1008A000718883C6070003C761881377F70F630059
:1008B000D7081388C18D035708001385819610410E
:1008C000B706002093858624B306B7002380C600B0
:1008D0009306F7FFC206C182AE9693588600238026
:1008E00016019306E7FFC206C182AE9675174182D4
:1008F0002380C6002310E80083C60700A382019668
:10090000371700201307871E369703470700D14685
:100910000A0718C103C7070005071377F70F2380DD
:10092000E70003C707006394E60023800700828086
:10093000B70600200567814793868624130707FAC8
:100940003386D700230006008507E39BE7FE8280FD
:1009500023A40196239001862395018C2396018C74
:1009600023900188239101882392018823AC01867A
:1009700023AE018685679387F7F9239EF18C238C3C
:1009800001802380018223990180239D018023AA75
:10099000018023AE018023880182238C018223946D
:1009A00001822399018223A6018223AA018223A422
:1009B000018023A0019623A6018023A20182A382A5
:1009C0000196411123AA018806C6A38001928D37A2
:1009D00023880180B24023830188A38301884101D9
:1009E000828083A701973E95834715000345050044
:1009F000A2073E9542054181828083A70197AA976D
:100A000003C5370003C7270022052A97131587005F
:100A100003C717002A9703C5070022073A9582806B
:100A2000B7070020938787243E952300B500A18156
:100A3000A300B5008280B7070020938787243E95E6
:100A400093D785002300B500A300F50093D70501D7
:100A5000E1812301F500A301B5008280B7070020E2
:100A6000938787243E958347150003450500A20719
:100A70003E95420541818280B707002093878724F5
:100A8000AA9703C727001315870003C717002A97E3
:100A900003C5070022073A958280B7070020938795
:100AA0008724AA9703C5370003C7270022052A9782
:100AB0001315870003C717002A9703C507002207ED
:100AC0003A958280B7070020938787243E952300BC
:100AD000B500A181A300B5008280B70700209387ED
:100AE00087243E9593D785002300B500A300F50029
:100AF00093D70501E1812301F500A301B5008280B0
:100B0000B7070020938787243E9503450500931778
:100B10008501E18763D40700136505F08280B7077C
:100B20000020938787243E958347150003450500E1
:100B3000A2073E959317050163D40700C1775D8D29
:100B40008280011122CC1304150062046184B7175E
:100B50000020060493870725A2974EC683990700B5
:100B600006CE26CA4AC8635D3005B71700209387B2
:100B7000C723A29703D90700AE844A854D37B7171C
:100B800000209387C7213E94835704001317050163
:100B90004187BA973707002013078724930515006C
:100BA000BA97C20523809700C18563C3350181458B
:100BB0006244F240D244B2494A854249056119B7BC
:100BC000F2406244D2444249B24905618280B7078B
:100BD000002093878724AA9703C5370003C72700FF
:100BE00022052A971315870003C717002A9703C504
:100BF000070022073A95828021811375F50F09C9F4
:100C0000894763F5A70091476314F50023A4018089
:100C1000828085476307F50209C589476304F504A7
:100C2000828083D701863707002013078724BA976D
:100C300083C7070023AEF192238A01922380F18CAF
:100C40008280411122C42A8403D5018606C6413719
:100C500023ACA18E23ACA192238A8192B24022447C
:100C600041018280238A0192828009C585476308F9
:100C7000F5068280411122C403D4018606C622856E
:100C8000B9371307440023ACA18E4207B7070020F1
:100C90009387872441833E9783450700B24023AE64
:100CA000B19213075400420741833E970346070061
:100CB00023A0C19413076400420741833E971D049B
:100CC00083460700420441803E9423A2D194034707
:100CD0000400224423A4E19441016FF02FD183D773
:100CE00001863707002013078724B386E70003C86F
:100CF000060023AE019393861700C206C182BA96FE
:100D000003C5060023A0A19493862700C206C182D2
:100D1000BA9683C5060023A2B19493863700C20613
:100D2000C182BA9603C6060023A4C19493864700E5
:100D30009507C207C183BA9783C70700C206C1825D
:100D4000BA9623A8F194238E019583C60600A38E3C
:100D5000A1942381B186A381C1862382D18623A653
:100D6000D194A382F186828009C585476300F5048A
:100D7000828083D701863707002013078724B38634
:100D8000E7008507C207C183BA9703C7070083C678
:100D9000060023AED19223A0E1940546A389C19217
:100DA0009387C189B6972380E700828003D50186A7
:100DB000B707002041119387872406C622C4AA974B
:100DC00003C4070005054205418123AE8192013528
:100DD00023ACA18EB71700200A049387C71FA297E0
:100DE000B240224488C34101828029E9411122C4D2
:100DF00003D4018626C2B70400209384842406C647
:100E00004AC0B307940003C9070013051400150472
:100E1000420542044181418023AE21932694453B03
:100E200083450400224423ACA18EB24092444A85FB
:100E3000024923A0B19441016FF02FC0828039E5AF
:100E400083D701863707002013078724B386E7007E
:100E500003C6060023AEC19293861700C206C18264
:100E6000BA9603C6060023A0C194938627008D0777
:100E7000C206C207C182C183BA96BA9703C60600EA
:100E800003C7070023A2C19423A4E194828039E917
:100E9000411122C403D40186B70700209387872419
:100EA00006C626C2A29703C7070013051400420511
:100EB000418123AEE1925D3623A0A194AA8413055B
:100EC000340042054181D13E23A2A194814763C7EA
:100ED0009700B24022449244410182808D07C207AC
:100EE000C187F5B7828009C585476302F502828014
:100EF00083D701863707002013078724BA9703C7D3
:100F0000070023AEE1920547238AE186828003C76A
:100F1000218723A4E1808280411106C619C5854737
:100F2000630EF502B2404101828083D70186370704
:100F3000002013078724B386E7008507C207C18313
:100F4000BA9703C5060083C5070023A0B19423AE5A
:100F5000A192EFF04FB223A4A180E9B703D5018697
:100F6000453623ACA18E62056185B71700209387B3
:100F700047290A053E95184123A4E18065B7A1479A
:100F800063E3A71C91679387C75E0A053E951841E6
:100F9000011106CE22CC26CA4AC893870186028751
:100FA00003D407002285EFF09FB7AA8423ACA18E5B
:100FB0001305240042054181EFF03FAE23A0A19428
:100FC0002AC61305640042054181113123A0A19076
:100FD0002AC41305A40042054181D53E23A2A19055
:100FE0002AC21305E40042054181EFF05FB3624479
:100FF00023A4A1901317050192462246B2451395EA
:101000000401F240D24442494187418505616FF0B5
:10101000CFA903D407002285EFF07FB023AEA192C1
:101020002A891305140042054181EFF01FA723A070
:10103000A194AA841305240042054181493E23A2BC
:10104000A19423882185A38891842389A184F240D7
:101050006244D24442490561828003D50700EFF023
:101060001FB723ACA18E23A4A184D5B703D5070055
:10107000EFF0FFB523ACA18E23A0A184C9BF03D597
:101080000700EFF0DFB423ACA18E23AEA182C1B77D
:1010900003D407002285EFF09FB3AA8423ACA18E6E
:1010A0001305440042054181EFF07FB2624423AE54
:1010B000A18EF2404249AA852685D24405616FF08F
:1010C0002FB203D407002285EFF07FB0AA8423ACAF
:1010D000A18E1305440042054181EFF05FAF6244E9
:1010E00023AEA18EF2404249AA852685D2440561ED
:1010F0006FF04FB003D407002285EFF05FAD23AC53
:10110000A18EAA841305440042054181EFF03FAC53
:1011100023AEA18EAA852685EFF00FAF23A4A18070
:101120003DB783D707003707002013078724BA97F6
:1011300003C507006244F240D244424923AEA19263
:1011400005616FF00FB2828085476318F5060111C3
:1011500022CC03D40186B70700209387872406CECC
:1011600026CAA29783C407001305140042054181D3
:1011700023AE9192EFF07F9223A0A1942AC613058B
:10118000540042054181EFF09FA423ACA18E2AC4F4
:101190001305940042054181EFF07FA32246B2453A
:1011A00023AEA18EAA862685EFF06FAEF240624490
:1011B00023A4A180D2440561828082808547631484
:1011C000F508011122CC03D4018606CE26CA228559
:1011D0004AC8EFF0FF92AA8423ACA18E1305140035
:1011E00042054181EFF07F8B23AEA1922AC6130501
:1011F000540042054181EFF07F8623A0A1942AC4C8
:101200001305740042054181EFF07F912A8923AED6
:10121000A18E1305940042054181EFF05F90624476
:1012200023A0A19013170501931609012246B24588
:1012300013958401F240D24442494187C1866185B9
:1012400005616FF0CFC0828085476308F50409C54A
:101250008947630AF510828083D70186370700200B
:1012600013078724B386E700850783C50600C207F6
:10127000C183BA9723AEB19283C6070023A0D1944D
:101280000386518B1387018B9387818A3297B2979C
:101290002300B7002380D7008280397122DC03D479
:1012A000018606DE26DA2285EFF09F85AA8423AE2A
:1012B000A1921305440042054181EFF00FFE23A0E7
:1012C000A1942AD61305840042054181EFF0EFFC7A
:1012D00023A2A1942AD41305C40042054181EFF052
:1012E000CFFB23A4A1942AD2130504014205418116
:1012F000EFF0AFFA23A6A1942AD0130544014205CA
:101300004181EFF08FF9AA8723A8F1941305840196
:10131000420541813ECEEFF04FF82A8823AA01957D
:101320001305C4014205418142CCEFF00FF7AA88B2
:1013300023AC1195130504024205418146CAEFF022
:10134000CFF5D2486248F247025792562256B2551C
:101350002AC023ACA1962685EFF0EFC1F25062546B
:10136000D2542161828083D701863707002013077A
:101370008724BA9783C7070023AEF1922387F18CA5
:10138000828009C58547630FF500828083D7018677
:101390003707002013078724BA9703C7070023AE37
:1013A000E1928280411122C403D40186B707002054
:1013B0009387872406C6A29703C707001305140066
:1013C0004205418123AEE192EFF07F8023AEA18EF2
:1013D0001305540042054181EFF06FFFB2402244F3
:1013E00023A0A1904101828009C585476304F502CD
:1013F000828083D701863707002013078724BA9796
:1014000083C7070023AEF192A38FF18C0547238F8A
:10141000E18C8280411122C403D4018606C6228554
:10142000EFF0EFFA23ACA18E130544004205418191
:10143000EFF0EFF9B240224423AEA18E4101828049
:10144000397126DA1165AE84854506DE22DCEF208F
:10145000D03B93070020231AF100371401408D4739
:101460003ECC4C08E147130504803ECEEF2090159A
:1014700093070040231AF1004C089147130504809C
:101480003ECE37440140EF20F013B7070C000C109C
:10149000130504803ED426D002D223160102EF2089
:1014A000B03805469305505213050480EF203047AD
:1014B000930750132316F10085472307F1006800B6
:1014C00085473EC8EF20301D130504808545EF2079
:1014D0005043F2506254D25421618280F165938569
:1014E00005200545B1BF411106C6EFF04FB1EFE051
:1014F0007FCCED37EFF0CFC5238A019603A7019784
:101500009387C19623800700834607000D47639E9B
:10151000E60005472380E70023A2018CB24023A404
:10152000018E294541016FF0AFB0B2404101828088
:1015300085476315F5002E856FE0FFC0828001119D
:101540004AC806CE22CC26CA4EC652C405496302FA
:10155000250B01CD8947630AF50CF2406244D24461
:101560004249B249224A0561828083D40186268598
:10157000EFF00FD923ACA18E2A8413851400420505
:101580004181EFF08FD123A0A1942A8A13855400C2
:1015900042054181EFF0AFD823A0A190AA8913851D
:1015A000740042054181EFF08FE20504620461841A
:1015B00023A2A19037170020B7170020931614001C
:1015C0001307C7219387C7233697B6972310470180
:1015D0002390A70037170020B7170020130707250F
:1015E0009387072336973E94231037012300240165
:1015F000ADB703D401862285EFF08FD0AA8423AC47
:10160000A18E1305140042054181EFF04FDC6244C6
:1016100023AEA18EF2404249B249224AAA851395CF
:101620008401D2446185056121BD03D401862285F0
:10163000EFF00FCD050423ACA18E4204B7070020C4
:101640009387872441803E94834504006244F2409E
:10165000D2444249B249224A23A0B194620561852D
:101660000561F9B5411122C6374401409305505236
:1016700013050480EF20103011C913050480EF20FA
:10168000102E9375F50F0545EFF0AFCB32444101B5
:1016900073002030411137170140B717002006C6EC
:1016A000938747269306078094C398C7930607C07D
:1016B00013070740D4C3D8C7B71700203707020065
:1016C00093874727050798C3370708001107D8C332
:1016D00037072000410798C7370780001307070422
:1016E000D8C7370700021307071098CB3707000841
:1016F00013070740D8CB3717002098CF3747008013
:10170000D8CF85451145EF20501085452145EF2064
:10171000D00F85454145EF20500FB2408545130558
:10172000000241016F20700E411106C6A537956772
:10173000938787A723A8F196EFF0AF8EB2404101BF
:101740006FF07FDA1377F500931717003717002033
:10175000130747273E971181B71700200A05938783
:1017600047263E953336B0000841835507006F2069
:101770008071411126C29384719603C5040022C46E
:10178000854506C613846196753F0345040085456B
:10179000553F03C5040081457537034504002244C5
:1017A000B24092448145410171BF411122C413846A
:1017B000719603450400814506C6693703C56196E5
:1017C00085454937034504002244B240854541011F
:1017D00095BF411126C29384619603C5040022C4BB
:1017E00006C613847196EFE0DF9803450400EFE02E
:1017F0005F9803C504008545B1370345040085455E
:101800009137853F2244B2409244410179BF011192
:1018100026CAAA8403C54196814522CC4EC652C42D
:1018200006CE4AC82144393F93978401E18703C516
:10183000418A814563D30700854529371389D196AD
:101840000345090081457D14F53D034509008604E3
:1018500085451374F40F93F4F40FED3571F4F240F1
:101860006244D2444249B249224A05618280411110
:101870004AC01389D1960345090026C206C622C470
:101880009384418AEFE0FF8E03C5040013844196E0
:10189000EFE03F8E03C5A185EFE0BF8D0345040057
:1018A000EFE03F8D034509008545EFF0BFE903C533
:1018B00004008145EFF01FE9034504008145EFF086
:1018C0007FE803C7F18C1384F18C6314070A1305B6
:1018D000E00A353F0145253F4145153F130500040A
:1018E0003D371305100825371305F00C0D37130588
:1018F000100A313F1305800C193F1305600A013FA0
:101900001305800A29371305F00311371305300D2D
:10191000FD3D0145ED3D1305500DD53D1305000876
:10192000FD351305900DE5351305100FCD35130565
:10193000A00DF13D4945E13D1305B00DC93D13052D
:101940000004F13513050002D9350945C9351305E1
:10195000D008753D5145EFF09FEB1305400AEFF0BD
:101960001FEB1305600AEFF09FEA1305F00AEFF092
:101970001FEA0347040085476313F7061305F00ABF
:10198000EFF0FFE813050004EFF07FE81305000A0D
:10199000EFF0FFE71305600AEFF07FE71305400A59
:1019A000EFF0FFE61305200AEFF07FE61305800C49
:1019B000EFF0FFE51305F002EFF07FE513055002AD
:1019C000EFF0FFE413051008EFF07FE42244B2408B
:1019D000924402491305500241016FF05FE3B240A7
:1019E00022449244024941018280011126CAAA84FC
:1019F00003C54196854522CC4EC652C406CE4AC880
:101A00002144EFF03FD493978401E18703C5418AD5
:101A1000814563D307008545EFF0DFD21389D19666
:101A20000345090081457D14EFF0DFD1034509002E
:101A3000860485451374F40F93F4F40FEFF09FD0F0
:101A400079F0F2406244D2444249B249224A0561E7
:101A50008280011106CE22CC26CA4AC84EC652C484
:101A600056C28547630CF50805C18947630AF50A24
:101A70008D47630DF510F2406244D2444249B249A9
:101A8000224A924A0561828083D701863707002067
:101A900013078724B386E70003C5060023AEA1928F
:101AA00093861700C206C182BA9683C5060023A09A
:101AB000B19493862700C206C182BA9603C6060077
:101AC00023A2C194938637009107C207C183BA97B6
:101AD00083C70700C206C182BA9623A6F19483C6C3
:101AE0000600A387A18CA386B1962382C18A238D89
:101AF000D18423A4D1942382F196B5BF03D5018666
:101B0000EFF00F80624423ACA18EF240D2444249F0
:101B1000B249224A924AA38BA18A05616FF03FD550
:101B200003D50186B70900201309000BEFE0FFF68B
:101B300023AEA19213050508131405014180938972
:101B40008924130A800B4A85EFF07FCC03C5718B83
:101B5000930404F8C204EFF09FCB4145C180EFF03D
:101B60001FCBB387340103C507008504C204C180BD
:101B7000EFF0BFE7E39784FE05091304040842046D
:101B80001379F90F4180E31049FDF5B503D40186BF
:101B90009384C18F2285EFE09FF8AA8923ACA18EA0
:101BA0001305240042054181EFE07FF78387718BA5
:101BB000110442043E95B707002093878724418093
:101BC0003E948347040088C0138509FB1389C193A1
:101BD0001375F50F2320F900EFF07FC388403D898E
:101BE000EFF0FFC203C50400118113650501EFF09A
:101BF0001FC2624403450900F240D2444249B2493F
:101C0000224A924A05616FF05FDE011122CC26CA9A
:101C10004EC652C406CE4AC8AA84214413892192D2
:101C20000345090081457D14EFF0DFB103C5419202
:101C300093F504081374F40FEFF0DFB003450900C7
:101C400085458604EFF01FB093F4F40F61F8F2407D
:101C50006244D2444249B249224A0561828041111C
:101C600022C42A8403C53192854506C6EFF09FAD94
:101C700022852244B24041016FF03FF9411122C454
:101C80002A8403C53192854506C6EFF0BFAB1355D4
:101C90008400EFF09FF71375F40F2244B240410126
:101CA0006FF0BFF6411122C42A8403C531928145E9
:101CB00006C6EFF03FA922852244B24041016FF0F1
:101CC000DFF4B7270000938727F523A6F186B7270F
:101CD0000000938767F923A4F186411123A6A18808
:101CE0001305600306C623A4B188EFF0BFFB0145CE
:101CF000EFF0FFF61305A003EFF0DFFA1545EFF064
:101D00001FF61305200BEFF0FFF93145EFF03FF51B
:101D10003145EFF0DFF40145EFF07FF413053003B8
:101D2000EFF0FFF313053003EFF07FF31305700BB3
:101D3000EFF05FF713055003EFF07FF21305B00BE0
:101D4000EFF05FF66545EFF09FF11305000CEFF043
:101D50007FF51305C002EFF09FF01305200CEFF0A4
:101D60007FF40545EFF0BFEF1305300CEFF09FF364
:101D70004945EFF0DFEE1305400CEFF0BFF213051D
:101D80000002EFF0DFED1305600CEFF0BFF13D4511
:101D9000EFF0FFEC1305000DEFF0DFF01305400A44
:101DA000EFF0FFEB1305100AEFF07FEB1305000EC9
:101DB000EFF05FEF1305000DEFF07FEA1145EFF054
:101DC0001FEA3545EFF0BFE94545EFF05FE94D45C6
:101DD000EFF0FFE81305B002EFF07FE81305F00322
:101DE000EFF0FFE713054005EFF07FE71305C004B0
:101DF000EFF0FFE66145EFF09FE63545EFF03FE697
:101E00002D45EFF0DFE57D45EFF07FE5130530026E
:101E1000EFF0FFE41305100EEFF0DFE81305000DFF
:101E2000EFF0FFE31145EFF09FE33145EFF03FE3C3
:101E30004545EFF0DFE24D45EFF07FE21305C002CC
:101E4000EFF0FFE11305F003EFF07FE1130540042D
:101E5000EFF0FFE013051005EFF07FE01305F0024F
:101E6000EFF0FFDF7D45EFF09FDF7D45EFF03FDFD7
:101E700013050002EFF0BFDE13053002EFF03FDE86
:101E800013051002EFF01FE24545EFF0BFE1B2404D
:101E90001305900241016FF0FFE0011122CC2A846A
:101EA0001305A00206CE36C22EC632C4EFF09FDF65
:101EB0002285EFF0BFDC22463285EFF03FDC1305D0
:101EC000B002EFF03FDEB2452E85EFF03FDB9246E9
:101ED0003685EFF0BFDA6244F2401305C0020561B7
:101EE0006FF05FDC011126CA4EC683A6818803A667
:101EF000C18852C4FD167D16C20642062A8AC182D6
:101F000041828145014522CC4AC806CE0144EFF00A
:101F1000DFF8938981881389C18883270900634882
:101F2000F402F2406244D2444249B249224A056175
:101F3000828085045285C204EFF05FD4C18083A7FC
:101F40000900E3C8F4FE050442044180F9B7814466
:101F5000FDB783C721939DEF634E050283A7C18818
:101F6000635AF50263C8050283A7818863D4F5022A
:101F700013160501939605014182C18241113285F4
:101F8000B68506C6EFF07FF1B24003D5019341015B
:101F90006FF0DFCE828083C7E1929DEF634E050232
:101FA00083A7C188635AF50263C8050283A78188A5
:101FB00063D4F50213160501939605014182C1828F
:101FC00041113285B68506C6EFF03FEDB24003D52C
:101FD000C19241016FF09FCA8280994763E6A718BA
:101FE0009167938707610A053E951841411106C61E
:101FF00022C426C293870186028783D7070037074A
:10200000002013078724B386E70083C5060023AEAC
:10201000B19293861700C206C182BA9603C6060023
:1020200023A0C194938627008D07C207C183BA9766
:1020300083C70700C206C182BA9683C6060023A4DE
:10204000F1942382B1922381C192A382D19223A2DF
:10205000D194A381F192B240224492444101828002
:1020600003D407002285EFE09FB6AA8423ACA18E9B
:102070001305440042054181EFE07FB5224423AEC1
:10208000A18EB240AA852685924441016FF07FC39C
:1020900003D407002285EFE09FB3AA8423ACA18E6E
:1020A0001305440042054181EFE07FB2224423AE94
:1020B000A18EB240AA852685924441016FF07FE946
:1020C00003D407002285EFE09FB0AA8423ACA18E41
:1020D0001305440042054181EFE07FAF224423AE67
:1020E000A18EB240AA852685924441016FF0BFEAD5
:1020F00003D50700EFE09F962244B240924423AEFE
:10210000A19241016FF01FDE03D407002285EFE0AA
:10211000FF94090423AEA1924204B70700209387DD
:10212000872441803E948347040023A0F1942389AF
:10213000F1922398A19205B703D407002285EFE01E
:10214000FF91090423AEA1924204B70700209387B0
:10215000872441803E948347040023A0F194238781
:10216000F1922396A192C5BD828041114AC0138984
:1021700061920345090026C206C622C49384819257
:10218000EFD03FFF03C5040013847192EFD07FFEB0
:1021900003450400EFD0FFFD034509008545EFF03E
:1021A0006FDA03C504008545EFF0CFD9034504007D
:1021B0002244B24092440249814541016FF08FD8D8
:1021C00001114AC826CAAA8403C5819222CC81453E
:1021D00006CE4EC693897192EFF0CFD603C50900A3
:1021E000854513898192EFF0EFD503C5090081453C
:1021F0009149EFF02FD5138471920345090093F5AF
:102200000408FD19EFF00FD403450400854586044A
:10221000EFF04FD303450400814593F9F90F93F490
:10222000F40FEFF02FD2E39A09FC03450900814532
:102230009149EFF02FD1034504008545FD19EFF0DA
:102240006FD003450400814593F9F90FEFF08FCF6C
:10225000E39309FE91490345090093F50408FD192C
:10226000EFF04FCE0345040085458604EFF08FCD97
:1022700003450400814593F9F90F93F4F40FEFF04F
:102280006FCCE39A09FC0345090081459144EFF0C6
:102290006FCB034504008545FD14EFF0AFCA03453D
:1022A0000400814593F4F40FEFF0CFC9FDF06244D0
:1022B00003450900F240D2444249B24985450561CF
:1022C0006FF04FC8011126CA4EC6AA8903C5819274
:1022D00085454AC852C406CE22CC1549EFF08FC6B8
:1022E00093848192138471920345040085457D197E
:1022F000EFF04FC50345040081451379F90FEFF066
:102300006FC4E31109FE03C504008145EFF08FC3DC
:10231000034504008545EFF0EFC203450400814505
:10232000EFF04FC203C504008145EFF0AFC1034594
:1023300004008545EFF00FC1034504008145EFF02F
:102340006FC06244F240D2444249224A4E85B249AB
:1023500005616FF0FFE6411106C6EFF01FE11305BE
:102360000003EFF03FF613050003EFF0BFF5314532
:10237000EFF05FF50545EFF0FFF41945EFF09FF43E
:1023800013054003EFF01FF4B24013056003410151
:102390006FF05FF3011126CA4EC6AA8903C5819268
:1023A00085454AC852C406CE22CC1549EFF08FB9F4
:1023B00093848192138471920345040085457D19AD
:1023C000EFF04FB80345040081451379F90FEFF0A2
:1023D0006FB7E31109FE03C504008145EFF08FB626
:1023E000034504008545EFF0EFB503450400814542
:1023F000EFF04FB503C504008545EFF0AFB40345DA
:1024000004008545EFF00FB4034504008145EFF06B
:102410006FB36244F240D2444249224A4E85B249E7
:1024200005616FF0FFD9011106CE22CC26CA4AC839
:102430004EC652C485476302F50601CD8947630F36
:10244000F506F2406244D2444249B249224A05614B
:10245000828083D701863707002013078724B3863D
:10246000E70003C6060023AEC192938617008907D2
:10247000C207C183BA97C20683C70700C182BA9652
:1024800083C6060023A2F1942383C1922384D192B0
:1024900023A0D194A383F1926DB703D50186EFE019
:1024A0002FE6624423ACA18EF240D2444249B249A5
:1024B000224A238CA18A05616FF0FFE903D50186CA
:1024C0004164EFE08FDD370A002023AEA1921309AB
:1024D00004FC9389C1930114130A8A24130504FA96
:1024E0001375F50F9304043EEFF0DFDDC20413050E
:1024F0000008C180EFF01FDD83A70900A697D297DF
:1025000003C50700938404FCC204C180EFF09FE878
:10251000E39424FF93040440C204C18083A709000C
:10252000A697D29703C50700938404FCC204C18018
:10253000EFF05FE6E31494FE050442040509420946
:1025400041801359090159F8EDBD4111814506C675
:1025500022C42A84EFF00F9F22858545EFF08F9EDD
:102560002285EFD01FC122852244B24041016FD0A5
:102570005FC0411122C4138471960345040026C232
:1025800006C693846196EFD0DFBE03C5040085457F
:10259000EFF04F9B03C50400814523A2018EEFF0AD
:1025A0006F9A034504002244B240924441016FD027
:1025B0005FBC011122CC26CA4EC652C406CE4AC800
:1025C000AA84214403C5719693F504081389619682
:1025D000EFF04F970345090085457D14EFF08F9686
:1025E00003450900860481451374F40F93F4F40F36
:1025F000EFF04F9561F86244F240D2444249B2494B
:10260000224A05616FF0FFF6411106C622C42A84F2
:10261000EFF02F9613058007EFF0BFF90145EFF0BB
:102620005FF92285EFF0FFF82244B24041016FF0DC
:10263000CF97411106C6EFF0CF991305E00AEFF0EE
:10264000BFFC0145EFF05FFC4145EFF0FFFB1305D8
:102650000004EFF07FFB13051008EFF0FFFA1305FD
:10266000F00CEFF07FFA1305100AEFF0FFF91305F5
:10267000800CEFF07FF91305600AEFF0FFF8130507
:10268000800AEFF07FF81305F003EFF0FFF7130572
:10269000300DEFF07FF70145EFF01FF71305500DF8
:1026A000EFF09FF613050008EFF01FF61305900DED
:1026B000EFF09FF51305100FEFF01FF51305A00DB8
:1026C000EFF09FF44945EFF03FF41305B00DEFF044
:1026D000BFF313050004EFF03FF313050002EFF022
:1026E000BFF20945EFF05FF21305D008EFF0DFF11C
:1026F0005145EFF07FF11305400AEFF0FFF01305AD
:10270000600AEFF07FF0B2401305F00A41016FF06C
:10271000BFEF411106C622C42A84EFF08F8513054E
:102720008007EFF01FE913050004EFF09FE8228512
:10273000EFF03FE82244B24041016FF00F870111F2
:1027400006CE22CC26CA4AC84EC652C456C28547B7
:102750006308F50409CD89476306F506F240624433
:10276000D2444249B249224A924A0561828083D7C3
:1027700001863707002013078724B386E700850703
:10278000C207C183BA9783C7070083C6060023A088
:10279000F1942383D19623AED192A383F1967DBF8A
:1027A00003D50186EFE0CFB5624423ACA18EF240A1
:1027B000D2444249B249224A924A2388A1860561FD
:1027C0006FF03FE703D50186B70900201309000B1E
:1027D000EFE0AFAC23AEA192130505081314050179
:1027E000418093898924130A800B4A85EFF0DFE149
:1027F00003C50187930404F8C204EFF0FFE04145EC
:10280000C180EFF07FE0B387340103C50700850482
:10281000C204C180EFF0FFEFE39784FE05091304C3
:10282000040842041379F90F4180E31049FD3DB7D4
:102830004111814506C622C42A84EFE0BFF08545D8
:102840002285EFE03FF02285EFD0BF922285EFD0C6
:102850005F92B24022440145410182800DE583D759
:1028600001863707002041111307872406C6BA974F
:1028700003C5070023AEA192EFF09FFBB24023A453
:10288000A1804101828082804111854506C622C413
:102890002A84EFE03FEB22858145EFE0BFEAB240BA
:1028A000224423A8018E01454101828015ED83D782
:1028B00001863707002013078724B386E7008507C2
:1028C000C2074111C18306C6BA9703C5060083C576
:1028D000070023A0B19423AEA192EFF0FFFAB2401B
:1028E00023A4A180410182808280011122CC26CACA
:1028F0004EC652C406CE4AC8AA84214493F7140097
:1029000003C59189814591C38545EFE0BFE31389F4
:1029100081890345090081457D14EFE0BFE203454D
:10292000090085451374F40F8580EFE0BFE179F469
:10293000F2406244D2444249B249224A014505610B
:10294000828009C585476307F504828083D70186A5
:102950003707002013078724B386E70003C6060065
:1029600023AEC192938617008907C207C183BA9725
:10297000C20683C70700C182BA9683C6060023A297
:10298000F194A38CC188238CD18823A0D194238D6A
:10299000F188828083D70186370700204111130711
:1029A000872406C6BA9703C5070023AEA192EFF0AD
:1029B000DFF3B24023A4A18041018280AA87A183D2
:1029C00093F7F70F1375F50F89C705476385E70080
:1029D00082806FD00FFA93F5F50F6FE0BFD67D15AB
:1029E0001375F50FB54763E4A71091679387C76226
:1029F0000A053E951C41411106C622C426C28287A3
:102A000003D401862285EFE08F9C110423ACA18EB4
:102A10004204B70700209387872441803E94834770
:102A2000040023A0F19445476314E500A380F192CC
:102A3000B240224492444101828003D50186EFE0F6
:102A4000CF8523ACA18EEDB703D401862285EFE0BC
:102A5000CF84AA8423AEA19213054400420541818C
:102A6000EFE0AF83224423A0A194B240AA8526853B
:102A7000924441016FF09FF403D50186EFE0EF81AE
:102A80002244B240924423AEA19241016FE0CF961E
:102A900083D701863707002013078724BA9703C717
:102AA000070023AEE19269B703D401862285EFD0F7
:102AB000DFFE23AEA1921305440042054181EFD011
:102AC000DFFD23A0A1941305840042054181EFD0CE
:102AD000FFF823A2A1941305A40042054181EFD081
:102AE000DFFB23A4A194A9B72386019691B723867F
:102AF00001968280411122C426C24AC006C6AA8419
:102B00002E89214481452685EFE0DFC393751900A6
:102B10002685EFE03FC37D14854526851374F40FA9
:102B200013591900EFE01FC271FCB24022449244D5
:102B3000024941018280411122C426C206C6AA84EC
:102B4000214481452685EFE0FFBF85452685EFE0DE
:102B50007FBF2685EFD0EFE17D1426851374F40F37
:102B6000EFD02FE179FCB24022449244014541016B
:102B7000828085476304F50209C589476306F50429
:102B8000828083D701863707002013078724BA97EE
:102B900003C5070023AEA1926FF03F9B83D7018648
:102BA0003707002013078724B386E7008507C2078D
:102BB000C183BA9703C5060083C5070023AEA1925F
:102BC00023A0B1946FF01FF303D50186411106C60F
:102BD000EFD01FF323AEA1921375F50FEFF0BFF501
:102BE000B24023A4A180410182807D15D94763E8CA
:102BF000A7069167938747660A053E951C412E8577
:102C000082876FE01FE56FF09FB36FF0DF816FF099
:102C1000CFBC6FE00F806FE04F856FE0EF946FE007
:102C2000CF9C6FE0CFA16FE08FA66FF09FF46FF0A5
:102C3000FFC26FE04FAB6FF07FC76FE0EFAD6FE0AB
:102C40000FB46FE06FD06FE06FD76FE05F8F6FE012
:102C5000AFDF6FF01FCF6FE0CFF26FE0EFF82386AA
:102C6000019682809357850089E71375F50F6FF001
:102C70001FD71307700C6367F7009375F50F3E8538
:102C80006FF0BFF682804111914722C423AAF188D8
:102C900026C283A6819603A6019706C64AC0B3073B
:102CA000D60098439305B00E1384418913558700CD
:102CB0001377F70F9384819663F4E5006F007070CB
:102CC00091650A079385056C2E971843028783D672
:102CD000C18CC8432390D186EFF0DFF8A1471CC018
:102CE0009C401840B2402244BA979CC0024992448A
:102CF000410182802390A186E5B788C0232004008B
:102D0000C5B783D701863E95420541812396A18CA4
:102D10002395A18CF1B79387018603D7070033056C
:102D2000A7402390A7006DBF03D7C18C9385C18DA9
:102D30002390E18603D7050093874600B70600205D
:102D400013868624B306C7002380F6009306F7FF98
:102D5000C206C182B29613D887002380060193066B
:102D6000E7FFC206C182B296C18375172380F600C1
:102D70002390E50088C0232004009DB70547A38267
:102D8000E1969385C18D83D70500B7060020938611
:102D9000862413871700420741831386270036973E
:102DA00003470700420641828D073696C207131576
:102DB0008700C183034706002390F500B69783C7B9
:102DC00007002A9722073E9798C02320040009BFD6
:102DD0001386C18D83570600B7060020938686248C
:102DE00013871700420789074183C207C1833697BB
:102DF000034707002310F600B69783C70700220792
:102E0000BA972390F186E9BD9386C18D03D60186DA
:102E100083D7060037070020930587243387B70040
:102E20002300C7001387F7FF420741832E972182B3
:102E3000F9172300C7002390F6005DB5A382019621
:102E400045B50547A382E19661BD03A7818023A014
:102E5000E19679B503C7470023A4E180A1471CC0D0
:102E600041B503D7470023A4E180A1471CC08DBD15
:102E7000D84323A4E180A1471CC09DB50387470028
:102E800023A4E180A1471CC0A1BD0397470023A450
:102E9000E180A1471CC0A9B5D84323A4E180A14784
:102EA0001CC03DBD03C7470023A0E196A1471CC03D
:102EB00005BD03D7470023A0E196A1471CC00DB56F
:102EC000D84323A0E196A1471CC019BD0387470042
:102ED00023A0E196A1471CC021B50397470023A07A
:102EE000E196A1471CC0EDBBD84323A0E196A147C2
:102EF0001CC0FDB383D701863E9542054181EFD0CA
:102F0000FFB5239EA18CE9BB83D701863E9583D56F
:102F1000C18D42054181EFD0BFB0D9B323A4A180B8
:102F2000C1B342054181EFD03FB588C023200400E2
:102F300045BBDC4303D70186BA9723A4F180A147A0
:102F40001CC079BB83A70196138781803305F502E6
:102F50001C433E9508C369B39387818098433A9593
:102F600088C3BDBB83A70196B706FF00FD8E1387FC
:102F7000818091EAB706002093868624B69783C79E
:102F800007001CC3B1BBC207C183B29783C7070048
:102F90001CC3B9B383A701963707FF001395070138
:102FA000F98F41811389818091E7EFD03FAB2320D6
:102FB000A9003DB3EFD0FFA22320A90015B383A73A
:102FC00001963707FF0013950701F98F4181138997
:102FD000818091E7EFD07FAC2320A90011B3EFD01F
:102FE000DFA12320A900EDB983A7019637070020B0
:102FF00013078724BA9703A781802380E700CDB108
:1030000083D5818003D50196EFD09FA1D1B983A547
:10301000818003D50196EFD01FA2D9B1EFD09F8553
:10302000C1B1EFD07F866DB983D701863E95B707D2
:103030000020938787243E9583A781802300F50095
:1030400045B183D701863E95B70700209387872433
:103050003E9583A781802300F50059B183D701866F
:103060003E95B7070020938787243E9583A78180EC
:103070002300F500B5B183D701863E9583D58180C5
:1030800042054181EFD0DF99A1B983D701863E95F2
:1030900083A5818042054181EFD0FF9991B183D70B
:1030A00001863E95B7070020938787243E9583A726
:1030B00081802300F5002DB183D701863E9583954D
:1030C000818042054181EFD0FF9F19B983D70186E6
:1030D0003E9583A5818042054181EFD01FA009B1B3
:1030E00083D701863E95B7070020938787243E95B6
:1030F0000347050023A4E180E5B683D701863E950A
:10310000B7070020938787243E950347050023A433
:10311000E180F9B683D701863E95B70700209387F3
:1031200087243E950347050023A4E18055BE83D73D
:1031300001863E9542054181EFD05F9223A4A18094
:1031400045B683D701863E9542054181EFD0FF9475
:1031500023A4A18071B683D701863E9542054181A3
:10316000EFD01F9A23A4A180A5BE83D701863E95E8
:1031700042054181EFD0BF9A23A4A18095B683D7A1
:1031800001863E9542054181EFD07FA423A4A18012
:1031900081BE83D701863E95B70700209387872499
:1031A0003E950347050023A0E1961DBE83D7018607
:1031B0003E95B7070020938787243E950347050077
:1031C00023A0E19631BE83D701863E95B707002044
:1031D000938787243E950347050023A0E19609B60F
:1031E00083D701863E9542054181EFD03F8723A0DA
:1031F000A196FDB483D701863E9542054181EFD06B
:10320000DF8923A0A196E9BC83D701863E954205BC
:103210004181EFD0FF8E23A0A196D9B483D7018638
:103220003E9542054181EFD09F8F23A0A1964DBCD2
:1032300083D701863E9542054181EFD05F9923A057
:10324000A19679BC83D5818042054181EFD04FFDA5
:1032500041BC83A5818042054181EFD0CFFD49B4B7
:10326000B7070020938787243E9583A7818023009A
:10327000F500BDB48395818042054181EFD09F84E4
:1032800085B483A5818042054181EFD01F8589BC2B
:10329000B7070020938787243E950347050023A4A2
:1032A000E1803DBC42054181EFD04FFB23A4A180CA
:1032B00005BC42054181EFD04FFE23A4A1806FF0F1
:1032C0003FA242054181EFD0BF8323A4A1806FF0CC
:1032D0003FA142054181EFD09F8423A4A1806FF0DC
:1032E0003FA042054181EFD09F8E23A4A1806FF0C3
:1032F0003F9FB7070020938787243E95034705002B
:1033000023A0E1966FF0DF9D42054181EFD00FF5DC
:1033100023A0A1966FF0DF9C42054181EFD0EFF72B
:1033200023A0A1966FF0DF9B42054181EFD04FFDB6
:1033300023A0A1966FF0DF9A42054181EFD02FFEC6
:1033400023A0A1966FF0DF9942054181EFD03F881D
:1033500023A0A1966FF0DF989387818098432A0776
:1033600098C36FF0FF97938781809843298798C30C
:103370006FF01F979387818003C7070098C36FF092
:103380003F969387818003D7070098C36FF05F95BE
:103390009387818003C7070098C3EFD0AFCD6FF04C
:1033A0003F949387818003D7070098C3EFD0CFCD98
:1033B0006FF01F9383A7818081EF054723A4E180ED
:1033C0006FF01F9283A7818081C783A70196F5F7CD
:1033D00023A401806FF0DF9083A7818003A701966B
:1033E000D98FE1FF6FF0DF8F938781809843330798
:1033F000E04098C36FF0DF8E938781809843E3515C
:10340000078E3307E04098C36FF09F8D138781804C
:103410001C4383A60196B69793F7F70F1CC36FF072
:103420003F8C138781801C4383A60196B697C20701
:10343000C1831CC36FF0DF8A93878180984383A682
:103440000196369798C36FF0BF89138781801C431C
:1034500083A60196958F93F7F70F1CC36FF05F88D3
:10346000138781801C4383A60196958FC207C18371
:103470001CC36FF0FF8693878180984383A60196D3
:10348000158F98C36FF0DF851387818083C60196FF
:103490008347070023A2D182B387D70223A6F180F6
:1034A00093F7F70F1CC36FF0BF83938681809C4214
:1034B00003A6019641677D17798EF98FB387C702FE
:1034C00023A2C18223A6F180C207C187F98F9CC2C3
:1034D0006FF01F819387818083A60196984323A272
:1034E000D1823307D70223A6E18098C36FF04FFF44
:1034F00093878180984383A601963307D70298C3A8
:103500006FF00FFE03A60196938681809C4213877D
:1035100081919355F64110C34CC33387C702B397CB
:10352000C702298313966701518F13860191A987DA
:1035300018C25CC298C26FF0AFFA9387818083C6CD
:10354000019603C7070023A2D1823357D70223A6CF
:10355000E18098C36FF0CFF8938681809C4203A6E8
:10356000019641677D17798EF98FB3D7C70223A2E1
:10357000C18223A6F180C207C187F98F9CC26FF078
:103580002FF69387818083A60196984323A2D18248
:103590003357D70223A6E18098C36FF06FF4938767
:1035A0008180984383A601963347D70298C36FF072
:1035B0002FF393878180984383A601963347D702E0
:1035C00098C36FF0EFF193878180984383A60196AB
:1035D0003347D70298C36FF0AFF01389818003257A
:1035E000090003A601961357F541938781919356DD
:1035F000F641935565012A0790C3D4C32A05D98D96
:10360000EF0030419387019188C3CCC32320A900E8
:103610006FF00FED1387818083C601968347070003
:1036200023A2D182B3F7D70223A6F180E207E18774
:103630001CC36FF0EFEAC1661386F6FF1387818023
:103640001C4383A60196F18FF18EB3F7D70223A214
:10365000D18223A6F180C207C1871CC36FF04FE857
:103660009387818083A60196984323A2D1823377E2
:10367000D70223A6E18098C36FF08FE693878180FD
:10368000984383A601963367D70298C36FF04FE53E
:1036900093878180984383A601963367D70298C3A6
:1036A0006FF00FE493878180984383A60196336778
:1036B000D70298C36FF0CFE29387818083A60196EB
:1036C000984323A2D18233B7E60023A6E18098C3B2
:1036D0006FF00FE193878180984383A6019633A70B
:1036E000E60098C36FF0CFDF1387818083A6019631
:1036F0001C4323A2D182B3B7D70093C7170023A6D8
:10370000F1801CC36FF0CFDD138781801C4383A63B
:103710000196B3A7D70093C717001CC36FF04FDC07
:103720009387818083A60196984323A2D182333761
:10373000D70023A6E18098C36FF08FDA938781804A
:10374000984383A601963327D70098C36FF04FD9CB
:103750001387818083A601961C4323A2D182B3B72D
:10376000F60093C7170023A6F1801CC36FF04FD754
:10377000138781801C4383A60196B3A7F60093C7E5
:1037800017001CC36FF0CFD5138781801C4383A61D
:103790000196958F93B717001CC36FF06FD41387F2
:1037A00081801C4383A60196958FB337F0001CC31C
:1037B0006FF00FD3CC4313878180A1471CC0835780
:1037C000070003A801961CC3938601960147B29790
:1037D0006367A7008CC0232004006FF06FD033868E
:1037E000E700034606006315060198C26FF04FCF4D
:1037F000050742074183E9BF1387818083A60196AD
:10380000835707008A06B6971CC3B2979C432320B0
:1038100004009CC06FF0CFCC03A781808547631163
:10382000F7CC88C0232004006FF08FCB83A7818062
:10383000639807CA88C0232004006FF06FCA93877B
:10384000818098431347170023A6E18098C36FF047
:103850002FC99387818098431347F70F23A6E180F0
:1038600098C36FF0EFC7938781809843C166FD16B8
:10387000358F23A6E18098C36FF08FC69387818030
:1038800098431347F7FF23A6E18098C36FF04FC515
:103890009387818083A60196984323A2D182758F56
:1038A00023A6E18098C36FF0AFC39387818083A67E
:1038B0000196984323A2D182558F23A6E18098C315
:1038C0006FF00FC29387818083A60196984323A24D
:1038D000D182358F23A6E18098C36FF06FC09387A4
:1038E000818083A60196984323A2D1823357D700C3
:1038F00023A6E18098C36FF0AFBE1387818083A6B3
:1039000001961C4323A2D182B397D70093F7F70FF8
:1039100023A6F1801CC36FF0AFBC1387818083A600
:1039200001961C4323A2D182B397D700C207C1835B
:1039300023A6F1801CC36FF0AFBA9387818083A662
:103940000196984323A2D1823317D70023A6E180A2
:1039500098C36FF0EFB8138781801C4333D5A7401D
:10396000058908C36FF0CFB7138781801C4333D517
:10397000A7401375F50F08C36FF08FB613878180CA
:103980001C4333D5A7404205418108C36FF04FB5B2
:1039900083A6019685473395A70003A78180938767
:1039A000818099EA1345F5FF798D1375F50F23A6EC
:1039B000A18088C36FF0CFB21375F50F598DC5BFC5
:1039C00003A6019685473395A700416783A68180AA
:1039D0007D179387818011EA1345F5FF758D798DE9
:1039E00023A6A18088C36FF0AFAF798D558DCDBF71
:1039F00085473395A70083A6818003A60196938708
:103A0000818033E7A60009E61345F5FF3377D5003B
:103A100023A6E18098C36FF0AFAC83A601964167FF
:103A200023A2D1829307F00FB397A7007D17B98F18
:103A30001387818010433395A600F18F5D8D23A6F7
:103A4000A18008C36FF0CFA983A601961387818058
:103A500023A2D182C1671043FD17B397A70093C774
:103A6000F7FFF18F3395A6005D8D23A6A18008C3D3
:103A70006FF00FA783A6019613878180104323A2BE
:103A8000D1829307F00FB397A70093C7F7FFF18F89
:103A90003395A6005D8D23A6A18008C36FF04FA4C7
:103AA0001387A18C83560700B707002003A68180E7
:103AB00093878724B69785062380C7002310D700F5
:103AC0006FF00FA21387A18C83560700B707002061
:103AD00003A6818093878724B69785062380C70035
:103AE0002310D7006FF0CF9F1387A18C8356070058
:103AF000B707002003A6818093878724B6978506A1
:103B00002380C7002310D7006FF08F9D1389A18CED
:103B100083D5818003550900EFC09FF083570900CA
:103B200089072310F9006FF0AF9B1389A18C83A53F
:103B3000818003550900EFC01FF0835709009107EA
:103B40002310F9006FF0CF991387A18C83560700DB
:103B5000B707002003A6818093878724B697850640
:103B60002380C7002310D7006FF08F971389A18C93
:103B70008395818003550900EFC0DFF48357090066
:103B800089072310F9006FF0AF951389A18C83A5E5
:103B9000818003550900EFC05FF483570900910746
:103BA0002310F9006FF0CF9393878180984311E73A
:103BB00088C0232004006FF0AF927D1798C36FF088
:103BC0002F92238601966FF0AF9183C71192411116
:103BD00006C622C499CB83C7519681CB454523881D
:103BE0000180EFC0FFC5EFC09FCB37040020130456
:103BF0008424EFF04F8983474400E5DF230204006B
:103C0000B24022444101828083C7C19689CF938705
:103C1000418C98439306F07C63E5E600290798C33E
:103C200082806FF09FFA82804111094506C68D247B
:103C30006123EFD07FAFEFF03FFD29455D23E5BF66
:103C4000B71702409843B706FFF8411113671700F2
:103C500098C3D84337060200758FD8C39843B70678
:103C6000F7FEFD16758F98C39843B706FCFFFD1647
:103C7000758F98C3D843B70681FFFD16758FD8C3DB
:103C800037079F0098C702C402C69843C166558F84
:103C900098C3B7160240130700509C42F18F3EC6EE
:103CA000A24785073EC4B24781E7A247E397E7FEF4
:103CB000B71702409C431397E700635407088547F2
:103CC0003EC632478547631CF706B7270240984334
:103CD000B706C1FFFD161367070198C39843719B90
:103CE00098C398431367270098C3B7170240D84377
:103CF000D8C3D843D8C3D84313670740D8C3D843E1
:103D0000758FD8C3D843B7061D00558FD8C39843C5
:103D1000B7060001558F98C3984393166700E3DDFB
:103D200006FED843B7160240719BD8C3D843136729
:103D30002700D8C32147DC42B18BE39EE7FE410157
:103D4000828002C6BDBF97D1FF1F9381A1AC17111E
:103D500000201301212B17B50000130565E297C55C
:103D6000FF1F9385252A1386818063FAC50083226D
:103D7000050023A0550011059105E3EAC5FE138552
:103D8000818097D5FF1F938525556377B500232044
:103D900005001105E36DB5FE9302800873A00230A3
:103DA00097C2FFFF9382822993E2120073905230F0
:103DB000EFF01FE997020000938242E773901234FC
:103DC000730020309C4513F7070113F8F70001C773
:103DD000D8413368E80083D5050013F7F50F39C3E0
:103DE00018418146854E3D4F930F80029302800417
:103DF000214E3396DE00B3F8C50063111603939885
:103E0000260033131F011343F3FF3377E300B31886
:103E1000180133E7E800639FF70550C98506E39A68
:103E2000C6FD18C11307F00F6375B704544121464E
:103E3000854E3D4F930F800293028004414EB3980C
:103E4000CE0033F715016392E8021317260001171D
:103E50003313EF001343F3FFB376D3003317E800B7
:103E6000D98E639DF701232A15010506E319C6FDC6
:103E700054C18280E39457FA10C94DB7E39757FEB7
:103E800023281501DDB719C20CC982804CC9828074
:103E900023AEA19682809387C19794430347050080
:103EA00089E683472500920731A89443054663912C
:103EB000C604834725000346150092076314D60005
:103EC00093E707F8B7E600E093F7F70FBA96238079
:103ED000F6408546935757003397E6005441ADC6E8
:103EE000938707048A07B7E600E0B69798C38280F5
:103EF0008C4389466393D50283461500834725008A
:103F00006365D6008A06B69779BF9386E6038A066C
:103F1000B69793F7F70F920765B790438D46631EE8
:103F2000D60083461500834725006364D6008606C5
:103F3000D9BF9386C6078606E1BF94439147E39AAB
:103F4000F6F88347150085B79387070661BF3717D3
:103F500002405C439146B18B6385D700A1466386DE
:103F6000D706B7177A00938707201CC1371602407F
:103F70005C4237070020130707009183BD8BBA9777
:103F800083C607001C41B3D7D7005CC15442A1824D
:103F90009D8ABA9683C60600B3D6D70014C554428C
:103FA000AD829D8A369703470700B3D7E7005CC50B
:103FB00058423983937637001387418036970347F9
:103FC0000700B3D7E7021CC982805C435443C9830E
:103FD000BD8B1396F6008907634D060037470240F4
:103FE00003270780418B19CB37177A001307072067
:103FF00011A858439316E700E3D806FE37173D0093
:1040000013070790B387E7028DB799C537170240AA
:104010001C4F5D8D08CF8280B7170240984F134523
:10402000F5FF798D88CF828083560501F577FD17DE
:10403000F58F83D66500397122DC06DED58F03D774
:10404000C5002318F5008356C500FD779387379F79
:10405000F58F83D645002A842EC6D58F83D685005A
:10406000D58F83D6A500D58F2316F500835745013C
:10407000C207C18393F7F7CFD98F231AF5006808D9
:10408000EFF0FFECB747014093870780B245631E0E
:10409000F404A2578356C4006547B387E702C206FB
:1040A000C186984163D5060406070356C40042063C
:1040B000B3D7E702130740064186B3D6E702B3F74A
:1040C000E7029206635706028E0793872703B3D74A
:1040D000E70213F77700B367D700C207C183231441
:1040E000F400F250625421618280925765B70A074A
:1040F0006DBF920793872703B3D7E702BD8BD58F98
:10410000E9BF81C98357C5000967D98F2316F50018
:1041100082800357C500F977FD17F98FC5BF13F7E4
:10412000F50F85471583B395B7006319F70093071B
:10413000C500984301CED98D8CC3828089469307F0
:104140004501E318D7FE93070501E5B793C5F5FFD1
:10415000F98DDDB793F5F51F2312B5008280035565
:1041600045001375F51F8280035505006D8D3335AD
:10417000A000828013F7F50F85461583B397B6002C
:104180006313D7020357C500F98F03570500014594
:104190004207418381CB0545A181B315B5006D8FE1
:1041A0003335E000828089466315D7000357050147
:1041B000E1BF03574501C9BFB707002083A7070127
:1041C00037177A0013070720B3D7E70293F7F70FE3
:1041D0002381F1981307803EB387E7022390F1987B
:1041E0008280B7F700E023A0070003D7019823825D
:1041F0000700A3820700238307003305A702A383D8
:104200000700054798C337F700E05C43E37FF5FEFE
:104210008280014863C6050E63DB06003306C0409A
:10422000B337C000B306D0401348F8FF9D8EB68761
:104230003283AA8EAE886391061863FCC50C416771
:104240006361E61EB70700016365F6369356860183
:10425000E14717B700001307A78236970347070007
:10426000BA97130700021D8F19CBB395E500B3571A
:10427000F5003313E600B3E8B700B31EE5001356AC
:104280000301B3D7C80293160301C18213D70E01ED
:10429000B3F5C8023385F602C205B3E8E50063FA58
:1042A000A8009A981387F7FF63E4680063E9A832CF
:1042B000BA87B388A840B3D5C802C20E93DE0E01F8
:1042C000B3F8C802B386B602C208B3E8D80163FBEC
:1042D000D8009A981387F5FF63E56800F91563E342
:1042E000D800BA85139507014D8D814563090800F3
:1042F0003305A040B337A000B305B0409D8D828048
:104300003305A040B337A000B305B0409D8D7D5864
:1043100021B701E605433353D3024167636AE30ED5
:10432000B7070001636BF32893568301E14717A792
:1043300000001307E774369703470700BA9713077F
:1043400000021D8F65EB93180301B3866540135F70
:10435000030193D80801854513D70E01B3D7E603AF
:10436000B3F6E60333861703C206558F637AC70098
:104370001A979386F7FF636467006365C726B6875D
:10438000118FB356E703C20E93DE0E013377E703B6
:10439000B388160342073367D701637B17011A9767
:1043A0001386F6FF63656700F91663631701B2862B
:1043B00013950701558D1DBF63E1D504C16763E106
:1043C000F604B707000163E2F61E93D88601614741
:1043D00097A700009387C76AC69703C30700930790
:1043E00000023A93B3876740E9EB63ECB61C3335C0
:1043F000C500134515008145D5BD81450145FDB575
:104400009307F00F63F2D71C93D886002147C9B7F2
:104410001307F00F9A86E37C67F093568300A14759
:1044200039B71307F00FB286E375C7E293568600DB
:10443000A14705B53313E30033D6F500135F03013D
:10444000335EE603B396E500B357F500DD8E9318AF
:10445000030193D80801B31EE50093D50601B37795
:10446000E6033387C803C207CD8F63FBE7009A9743
:104470001306FEFF63E3671663F1E716791E9A974A
:10448000998F33D6E703139706014183B3F7E70308
:104490003385C80293960701D98E63FBA6009A96CE
:1044A0009307F6FF63E7661263F5A61279169A96EC
:1044B00093150E01898ED18D45B533576600B3969D
:1044C000F600D98EB3D8650013DF0601B3DEE8032A
:1044D000139E060133536500135E0E01B395F5007C
:1044E000B365B30013D705013316F600B3F8E8033C
:1044F0003303DE03C20833E7E800637B67003697C7
:104500009388FEFF6369D70C6377670CF91E3697B3
:10451000330767403353E703C205C1813377E703AD
:10452000B3086E024207D98D63FB1501B6951307D8
:10453000F3FF63EED50863FC15097913B695C20E37
:10454000416FB3EE6E001307FFFFB3F6EE0013D317
:104550000E01718F4182338EE602B3851541B38619
:10456000C60293580E013307E302BA96C696330685
:10457000C30263F3E6007A9613D306011A9663E248
:10458000C5026385C500768581458DB341677D177A
:10459000F98EC206337EEE00B317F500F296E3F40F
:1045A000D7FE1385FEFF814591B393D8060141479D
:1045B00005B593560601C14769B993560301C14732
:1045C000BDB3814505451DB3B688014711B53A8392
:1045D000BDB73E86F1BDC68E25BF328E55B5F917E3
:1045E0009A98C1B9F9171A9761BB0000A00F000093
:1045F000121000005A1000006C1000007E10000025
:1046000090100000C2100000F41000002211000001
:10461000FA1F00006020000090200000C020000071
:10462000F02000000821000038210000002A0000CE
:10463000E82A00003A2A0000482A0000782A0000F0
:10464000E82A0000E82A0000E82A0000E82A000022
:10465000902A0000902A0000E82A0000A82A000002
:10466000302A0000022C0000062C00000A2C00005A
:104670000E2C0000122C0000162C00001A2C00003A
:104680001E2C0000222C0000262C00002A2C0000EA
:104690002E2C0000322C0000362C00003A2C00009A
:1046A0003E2C0000422C0000462C00004A2C00004A
:1046B0004E2C0000522C0000562C00005A2C0000FA
:1046C000E02C0000CE2C0000F42C0000FA2C00009E
:1046D000282D0000822D00007C2D0000022D0000FE
:1046E000162D0000C23B0000E02C0000E02C000072
:1046F000E02C0000D02D0000082E0000542E0000F9
:10470000322F0000442F0000582F0000B433000067
:10471000C4330000D8330000E8330000F833000051
:10472000C23B00004A340000883400003A350000E3
:1047300014360000B8360000E836000020370000CC
:1047400050370000883700009E3700003E380000D8
:104750005238000066380000C23B00007C38000080
:1047600090380000AA380000C4380000FA38000071
:104770001A390000C23B00003A390000DE38000060
:10478000183800002C380000A83B00005639000003
:1047900056390000563900006839000068390000B9
:1047A0007C39000090390000C0390000F039000069
:1047B0001A3A0000743A0000483A00001C30000029
:1047C00022300000C23B0000E02C0000A03A0000B4
:1047D000C43A0000E83A00000C3B0000C23B000075
:1047E0002A3B0000483B00006C3B0000C23B00003D
:1047F0008A3B0000C23B0000C23B0000C23B0000FD
:10480000C23B0000642F0000942F0000C23B000058
:10481000BE2F0000E82F000000300000C23B000067
:104820000E30000090320000903200009032000004
:10483000A4320000C23B0000B2320000C2320000CD
:10484000D2320000C23B0000E2320000F23200002F
:10485000F2320000F232000008330000C23B0000D8
:10486000183300002833000038330000C23B00003A
:104870004833000060320000603200006032000007
:1048800044320000C23B000052320000603200009F
:1048900074320000C23B000082320000E0300000B1
:1048A000FA300000143100002E310000C23B00003D
:1048B00042310000563100006A310000C23B000066
:1048C0007E31000092310000AC310000C6310000A2
:1048D000E0310000C23B0000F4310000083200006B
:1048E0001C320000C23B00003032000028300000C3
:1048F000423000005C30000076300000C23B000017
:104900008A3000009E300000B8300000C23B00003A
:10491000CC300000F42E0000082F0000222F0000F1
:104920001C2F0000E8330000C23B0000E833000009
:104930000C34000022340000C23B00003834000078
:104940003834000038340000C23B00003834000026
:1049500060340000C23B0000763400007634000072
:1049600076340000C23B000076340000AA34000018
:10497000C23B0000D4340000F0340000F0340000EA
:10498000C23B0000F034000058350000C23B00007C
:10499000823500009E350000B2350000C23B0000A9
:1049A000C635000036360000C23B0000603600000D
:1049B0007C36000090360000C23B0000A4360000A8
:1049C0007433000074330000823300009033000021
:1049D00090330000A23300001C30000022300000A1
:1049E000C23B0000E02C0000E02C0000E02C0000A6
:1049F000E02C0000622E0000702E00007C2E0000D3
:104A00008A2E0000982E0000D436000008370000DF
:104A10003C37000070370000883700009E370000E8
:104A20007433000082330000C23B0000E02C000021
:104A30003C2E0000422E00005833000004350000D8
:104A4000DA3500004A2E0000A42E0000B22E00002D
:104A5000C02E0000CC2E0000DA2E0000E82E000050
:104A6000C23B000066330000B4370000F837000096
:104A70006C696E6B626F793A000000000400000000
:104A8000080000000C0000001000000014000000EE
:104A9000180000001C00000020000000240000009E
:104AA000280000002C00000030000000340000004E
:104AB000380000003C0000004000000044000000FE
:104AC000480000004C0000005000000054000000AE
:104AD000580000005C00000060000000640000005E
:104AE000680000006C00000070000000740000000E
:104AF000780000007C0000008000000084000000BE
:104B0000880000008C00000090000000940000006D
:104B1000980000009C000000A0000000A40000001D
:104B2000A8000000AC000000B0000000B4000000CD
:104B3000B8000000BC000000C0000000C40000007D
:104B4000C8000000CC000000D0000000D40000002D
:104B5000D8000000DC000000E0000000E4000000DD
:104B6000E8000000EC000000F0000000F40000008D
:104B7000F8000000FC00000000010000040100003B
:104B8000080100000C0100001001000014010000E9
:104B9000180100001C010000200100002401000099
:104BA000280100002C010000300100003401000049
:104BB000380100003C0100004001000044010000F9
:104BC000480100004C0100005001000054010000A9
:104BD000580100005C010000600100006401000059
:104BE000680100006C010000700100007401000009
:104BF000780100007C0100008001000084010000B9
:104C0000880100008C010000900100009401000068
:104C1000980100009C010000A0010000A401000018
:104C2000A8010000AC010000B0010000B4010000C8
:104C3000B8010000BC010000C0010000C401000078
:104C4000C8010000CC010000D0010000D401000028
:104C5000D8010000DC010000E0010000E4010000D8
:104C6000E8010000EC010000F0010000F401000088
:104C7000F8010000FC010000000200000402000036
:104C8000080200000C0200001002000014020000E4
:104C9000180200001C020000200200002402000094
:104CA000280200002C020000300200003402000044
:104CB000380200003C0200004002000044020000F4
:104CC000480200004C0200005002000054020000A4
:104CD000580200005C020000600200006402000054
:104CE000680200006C020000700200007402000004
:104CF000780200007C0200008002000084020000B4
:104D0000880200008C020000900200009402000063
:104D1000980200009C020000A0020000A402000013
:104D2000A8020000AC020000B0020000B4020000C3
:104D3000B8020000BC020000C0020000C402000073
:104D4000C8020000CC020000D0020000D402000023
:104D5000D8020000DC020000E0020000E4020000D3
:104D6000E8020000EC020000F0020000F402000083
:104D7000F8020000FC020000000300000403000031
:104D8000080300000C0300001003000014030000DF
:104D9000180300001C03000020030000240300008F
:104DA000280300002C03000030030000340300003F
:104DB000380300003C0300004003000044030000EF
:104DC000480300004C03000050030000540300009F
:104DD000580300005C03000060030000640300004F
:104DE000680300006C0300007003000074030000FF
:104DF000780300007C0300008003000084030000AF
:104E0000880300008C03000090030000940300005E
:104E1000980300009C030000A0030000A40300000E
:104E2000A8030000AC030000B0030000B4030000BE
:104E3000B8030000BC030000C0030000C40300006E
:104E4000C8030000CC030000D0030000D40300001E
:104E5000D8030000DC030000E0030000E4030000CE
:104E6000E8030000EC030000F0030000F40300007E
:104E7000F8030000FC03000000040000040400002C
:104E8000080400000C0400001004000014040000DA
:104E9000180400001C04000020040000240400008A
:104EA000280400002C04000030040000340400003A
:104EB000380400003C0400004004000044040000EA
:104EC000480400004C04000050040000540400009A
:104ED000580400005C04000060040000640400004A
:104EE000680400006C0400007004000074040000FA
:104EF000780400007C0400008004000084040000AA
:104F0000880400008C040000900400009404000059
:104F1000980400009C040000A0040000A404000009
:104F2000A8040000AC040000B0040000B4040000B9
:104F3000B8040000BC040000C0040000C404000069
:104F4000C8040000CC040000D0040000D404000019
:104F5000D8040000DC040000E0040000E4040000C9
:104F6000E8040000EC040000F0040000F404000079
:104F7000F8040000FC040000000500000405000027
:104F8000080500000C0500001005000014050000D5
:104F9000180500001C050000200500002405000085
:104FA000280500002C050000300500003405000035
:104FB000380500003C0500004005000044050000E5
:104FC000480500004C050000500500005405000095
:104FD000580500005C050000600500006405000045
:104FE000680500006C0500007005000074050000F5
:104FF000780500007C0500008005000084050000A5
:10500000880500008C050000900500009405000054
:10501000980500009C050000A0050000A405000004
:10502000A8050000AC050000B0050000B4050000B4
:10503000B8050000BC050000C0050000C405000064
:10504000C8050000CC050000D0050000D405000014
:10505000D8050000DC050000E0050000E4050000C4
:10506000E8050000EC050000F0050000F405000074
:10507000F8050000FC050000000600000406000022
:10508000080600000C0600001006000014060000D0
:10509000180600001C060000200600002406000080
:1050A000280600002C060000300600003406000030
:1050B000380600003C0600004006000044060000E0
:1050C000480600004C060000500600005406000090
:1050D000580600005C060000600600006406000040
:1050E000680600006C0600007006000074060000F0
:1050F000780600007C0600008006000084060000A0
:10510000880600008C06000090060000940600004F
:10511000980600009C060000A0060000A4060000FF
:10512000A8060000AC060000B0060000B4060000AF
:10513000B8060000BC060000C0060000C40600005F
:10514000C8060000CC060000D0060000D40600000F
:10515000D8060000DC060000E0060000E4060000BF
:10516000E8060000EC060000F0060000F40600006F
:10517000F8060000FC06000000070000040700001D
:10518000080700000C0700001007000014070000CB
:10519000180700001C07000020070000240700007B
:1051A000280700002C07000030070000340700002B
:1051B000380700003C0700004007000044070000DB
:1051C000480700004C07000050070000540700008B
:1051D000580700005C07000060070000640700003B
:1051E000680700006C0700007007000074070000EB
:1051F000780700007C07000080070000840700009B
:10520000880700008C07000090070000940700004A
:10521000980700009C070000A0070000A4070000FA
:10522000A8070000AC070000B0070000B4070000AA
:10523000B8070000BC070000C0070000C40700005A
:10524000C8070000CC070000D0070000D40700000A
:10525000D8070000DC070000E0070000E4070000BA
:10526000E8070000EC070000F0070000F40700006A
:10527000F8070000FC070000000800000408000018
:10528000080800000C0800001008000014080000C6
:10529000180800001C080000200800002408000076
:1052A000280800002C080000300800003408000026
:1052B000380800003C0800004008000044080000D6
:1052C000480800004C080000500800005408000086
:1052D000580800005C080000600800006408000036
:1052E000680800006C0800007008000074080000E6
:1052F000780800007C080000800800008408000096
:10530000880800008C080000900800009408000045
:10531000980800009C080000A0080000A4080000F5
:10532000A8080000AC080000B0080000B4080000A5
:10533000B8080000BC080000C0080000C408000055
:10534000C8080000CC080000D0080000D408000005
:10535000D8080000DC080000E0080000E4080000B5
:10536000E8080000EC080000F0080000F408000065
:10537000F8080000FC080000000900000409000013
:10538000080900000C0900001009000014090000C1
:10539000180900001C090000200900002409000071
:1053A000280900002C090000300900003409000021
:1053B000380900003C0900004009000044090000D1
:1053C000480900004C090000500900005409000081
:1053D000580900005C090000600900006409000031
:1053E000680900006C0900007009000074090000E1
:1053F000780900007C090000800900008409000091
:10540000880900008C090000900900009409000040
:10541000980900009C090000A0090000A4090000F0
:10542000A8090000AC090000B0090000B4090000A0
:10543000B8090000BC090000C0090000C409000050
:10544000C8090000CC090000D0090000D409000000
:10545000D8090000DC090000E0090000E4090000B0
:10546000E8090000EC090000F0090000F409000060
:10547000F8090000FC090000000A0000040A00000E
:10548000080A00000C0A0000100A0000140A0000BC
:10549000180A00001C0A0000200A0000240A00006C
:1054A000280A00002C0A0000300A0000340A00001C
:1054B000380A00003C0A0000400A0000440A0000CC
:1054C000480A00004C0A0000500A0000540A00007C
:1054D000580A00005C0A0000600A0000640A00002C
:1054E000680A00006C0A0000700A0000740A0000DC
:1054F000780A00007C0A0000800A0000840A00008C
:10550000880A00008C0A0000900A0000940A00003B
:10551000980A00009C0A0000A00A0000A40A0000EB
:10552000A80A0000AC0A0000B00A0000B40A00009B
:10553000B80A0000BC0A0000C00A0000C40A00004B
:10554000C80A0000CC0A0000D00A0000D40A0000FB
:10555000D80A0000DC0A0000E00A0000E40A0000AB
:10556000E80A0000EC0A0000F00A0000F40A00005B
:10557000F80A0000FC0A0000000B0000040B000009
:10558000080B00000C0B0000100B0000140B0000B7
:10559000180B00001C0B0000200B0000240B000067
:1055A000280B00002C0B0000300B0000340B000017
:1055B000380B00003C0B0000400B0000440B0000C7
:1055C000480B00004C0B0000500B0000540B000077
:1055D000580B00005C0B0000600B0000640B000027
:1055E000680B00006C0B0000700B0000740B0000D7
:1055F000780B00007C0B0000800B0000840B000087
:10560000880B00008C0B0000900B0000940B000036
:10561000980B00009C0B0000A00B0000A40B0000E6
:10562000A80B0000AC0B0000B00B0000B40B000096
:10563000B80B0000BC0B0000C00B0000C40B000046
:10564000C80B0000CC0B0000D00B0000D40B0000F6
:10565000D80B0000DC0B0000E00B0000E40B0000A6
:10566000E80B0000EC0B0000F00B0000F40B000056
:10567000F80B0000FC0B0000000C0000040C000004
:10568000080C00000C0C0000100C0000140C0000B2
:10569000180C00001C0C0000200C0000240C000062
:1056A000280C00002C0C0000300C0000340C000012
:1056B000380C00003C0C0000400C0000440C0000C2
:1056C000480C00004C0C0000500C0000540C000072
:1056D000580C00005C0C0000600C0000640C000022
:1056E000680C00006C0C0000700C0000740C0000D2
:1056F000780C00007C0C0000800C0000840C000082
:10570000880C00008C0C0000900C0000940C000031
:10571000980C00009C0C0000A00C0000A40C0000E1
:10572000A80C0000AC0C0000B00C0000B40C000091
:10573000B80C0000BC0C0000C00C0000C40C000041
:10574000C80C0000CC0C0000D00C0000D40C0000F1
:10575000D80C0000DC0C0000E00C0000E40C0000A1
:10576000E80C0000EC0C0000F00C0000F40C000051
:10577000F80C0000FC0C0000000D0000040D0000FF
:10578000080D00000C0D0000100D0000140D0000AD
:10579000180D00001C0D0000200D0000240D00005D
:1057A000280D00002C0D0000300D0000340D00000D
:1057B000380D00003C0D0000400D0000440D0000BD
:1057C000480D00004C0D0000500D0000540D00006D
:1057D000580D00005C0D0000600D0000640D00001D
:1057E000680D00006C0D0000700D0000740D0000CD
:1057F000780D00007C0D0000800D0000840D00007D
:10580000880D00008C0D0000900D0000940D00002C
:10581000980D00009C0D0000A00D0000A40D0000DC
:10582000A80D0000AC0D0000B00D0000B40D00008C
:10583000B80D0000BC0D0000C00D0000C40D00003C
:10584000C80D0000CC0D0000D00D0000D40D0000EC
:10585000D80D0000DC0D0000E00D0000E40D00009C
:10586000E80D0000EC0D0000F00D0000F40D00004C
:10587000F80D0000FC0D0000000E0000040E0000FA
:10588000080E00000C0E0000100E0000140E0000A8
:10589000180E00001C0E0000200E0000240E000058
:1058A000280E00002C0E0000300E0000340E000008
:1058B000380E00003C0E0000400E0000440E0000B8
:1058C000480E00004C0E0000500E0000540E000068
:1058D000580E00005C0E0000600E0000640E000018
:1058E000680E00006C0E0000700E0000740E0000C8
:1058F000780E00007C0E0000800E0000840E000078
:10590000880E00008C0E0000900E0000940E000027
:10591000980E00009C0E0000A00E0000A40E0000D7
:10592000A80E0000AC0E0000B00E0000B40E000087
:10593000B80E0000BC0E0000C00E0000C40E000037
:10594000C80E0000CC0E0000D00E0000D40E0000E7
:10595000D80E0000DC0E0000E00E0000E40E000097
:10596000E80E0000EC0E0000F00E0000F40E000047
:10597000F80E0000FC0E0000000F0000040F0000F5
:10598000080F00000C0F0000100F0000140F0000A3
:10599000180F00001C0F0000200F0000240F000053
:1059A000280F00002C0F0000300F0000340F000003
:1059B000380F00003C0F0000400F0000440F0000B3
:1059C000480F00004C0F0000500F0000540F000063
:1059D000580F00005C0F0000600F0000640F000013
:1059E000680F00006C0F0000700F0000740F0000C3
:1059F000780F00007C0F0000800F0000840F000073
:105A0000880F00008C0F0000900F0000940F000022
:105A1000980F00009C0F0000A00F0000A40F0000D2
:105A2000A80F0000AC0F0000B00F0000B40F000082
:105A3000B80F0000BC0F0000C00F0000C40F000032
:105A4000C80F0000CC0F0000D00F0000D40F0000E2
:105A5000D80F0000DC0F0000E00F0000E40F000092
:105A6000E80F0000EC0F0000F00F0000F40F000042
:105A7000F80F0000FC0F00000010000004100000F0
:105A8000081000000C10000010100000141000009E
:105A9000181000001C10000020100000241000004E
:105AA000281000002C1000003010000034100000FE
:105AB000381000003C1000004010000044100000AE
:105AC000481000004C10000050100000541000005E
:105AD000581000005C10000060100000641000000E
:105AE000681000006C1000007010000074100000BE
:105AF000781000007C10000080100000841000006E
:105B0000881000008C10000090100000941000001D
:105B1000981000009C100000A0100000A4100000CD
:105B2000A8100000AC100000B0100000B41000007D
:105B3000B8100000BC100000C0100000C41000002D
:105B4000C8100000CC100000D0100000D4100000DD
:105B5000D8100000DC100000E0100000E41000008D
:105B6000E8100000EC100000F0100000F41000003D
:105B7000F8100000FC1000000011000004110000EB
:105B8000081100000C110000101100001411000099
:105B9000181100001C110000201100002411000049
:105BA000281100002C1100003011000034110000F9
:105BB000381100003C1100004011000044110000A9
:105BC000481100004C110000501100005411000059
:105BD000581100005C110000601100006411000009
:105BE000681100006C1100007011000074110000B9
:105BF000781100007C110000801100008411000069
:105C0000881100008C110000901100009411000018
:105C1000981100009C110000A0110000A4110000C8
:105C2000A8110000AC110000B0110000B411000078
:105C3000B8110000BC110000C0110000C411000028
:105C4000C8110000CC110000D0110000D4110000D8
:105C5000D8110000DC110000E0110000E411000088
:105C6000E8110000EC110000F0110000F411000038
:105C7000F8110000FC1100000012000004120000E6
:105C8000081200000C120000101200001412000094
:105C9000181200001C120000201200002412000044
:105CA000281200002C1200003012000034120000F4
:105CB000381200003C1200004012000044120000A4
:105CC000481200004C120000501200005412000054
:105CD000581200005C120000601200006412000004
:105CE000681200006C1200007012000074120000B4
:105CF000781200007C120000801200008412000064
:105D0000881200008C120000901200009412000013
:105D1000981200009C120000A0120000A4120000C3
:105D2000A8120000AC120000B0120000B412000073
:105D3000B8120000BC120000C0120000C412000023
:105D4000C8120000CC120000D0120000D4120000D3
:105D5000D8120000DC120000E0120000E412000083
:105D6000E8120000EC120000F0120000F412000033
:105D7000F8120000FC1200000013000004130000E1
:105D8000081300000C13000010130000141300008F
:105D9000181300001C13000020130000241300003F
:105DA000281300002C1300003013000034130000EF
:105DB000381300003C13000040130000441300009F
:105DC000481300004C13000050130000541300004F
:105DD000581300005C1300006013000064130000FF
:105DE000681300006C1300007013000074130000AF
:105DF000781300007C13000080130000841300005F
:105E0000881300008C13000090130000941300000E
:105E1000981300009C130000A0130000A4130000BE
:105E2000A8130000AC130000B0130000B41300006E
:105E3000B8130000BC130000C0130000C41300001E
:105E4000C8130000CC130000D0130000D4130000CE
:105E5000D8130000DC130000E0130000E41300007E
:105E6000E8130000EC130000F0130000F41300002E
:105E7000F8130000FC1300000014000004140000DC
:105E8000081400000C14000010140000141400008A
:105E9000181400001C14000020140000241400003A
:105EA000281400002C1400003014000034140000EA
:105EB000381400003C14000040140000441400009A
:105EC000481400004C14000050140000541400004A
:105ED000581400005C1400006014000064140000FA
:105EE000681400006C1400007014000074140000AA
:105EF000781400007C14000080140000841400005A
:105F0000881400008C140000901400009414000009
:105F1000981400009C140000A0140000A4140000B9
:105F2000A8140000AC140000B0140000B414000069
:105F3000B8140000BC140000C0140000C414000019
:105F4000C8140000CC140000D0140000D4140000C9
:105F5000D8140000DC140000E0140000E414000079
:105F6000E8140000EC140000F0140000F414000029
:105F7000F8140000FC1400000015000004150000D7
:105F8000081500000C150000101500001415000085
:105F9000181500001C150000201500002415000035
:105FA000281500002C1500003015000034150000E5
:105FB000381500003C150000401500004415000095
:105FC000481500004C150000501500005415000045
:105FD000581500005C1500006015000064150000F5
:105FE000681500006C1500007015000074150000A5
:105FF000781500007C150000801500008415000055
:10600000881500008C150000901500009415000004
:10601000981500009C150000A0150000A4150000B4
:10602000A8150000AC150000B0150000B415000064
:10603000B8150000BC150000C0150000C415000014
:10604000C8150000CC150000D0150000D4150000C4
:10605000D8150000DC150000E0150000E415000074
:10606000E8150000EC150000F0150000F415000024
:10607000F8150000FC1500000016000004160000D2
:10608000081600000C160000101600001416000080
:10609000181600001C160000201600002416000030
:1060A000281600002C1600003016000034160000E0
:1060B000381600003C160000401600004416000090
:1060C000481600004C160000501600005416000040
:1060D000581600005C1600006016000064160000F0
:1060E000681600006C1600007016000074160000A0
:1060F000781600007C160000801600008416000050
:10610000881600008C1600009016000094160000FF
:10611000981600009C160000A0160000A4160000AF
:10612000A8160000AC160000B0160000B41600005F
:10613000B8160000BC160000C0160000C41600000F
:10614000C8160000CC160000D0160000D4160000BF
:10615000D8160000DC160000E0160000E41600006F
:10616000E8160000EC160000F0160000F41600001F
:10617000F8160000FC1600000017000004170000CD
:10618000081700000C17000010170000141700007B
:10619000181700001C17000020170000241700002B
:1061A000281700002C1700003017000034170000DB
:1061B000381700003C17000040170000441700008B
:1061C000481700004C17000050170000541700003B
:1061D000581700005C1700006017000064170000EB
:1061E000681700006C17000070170000741700009B
:1061F000781700007C17000080170000841700004B
:10620000881700008C1700009017000094170000FA
:10621000981700009C170000A0170000A4170000AA
:10622000A8170000AC170000B0170000B41700005A
:10623000B8170000BC170000C0170000C41700000A
:10624000C8170000CC170000D0170000D4170000BA
:10625000D8170000DC170000E0170000E41700006A
:10626000E8170000EC170000F0170000F41700001A
:10627000F8170000FC1700000018000004180000C8
:10628000081800000C180000101800001418000076
:10629000181800001C180000201800002418000026
:1062A000281800002C1800003018000034180000D6
:1062B000381800003C180000401800004418000086
:1062C000481800004C180000501800005418000036
:1062D000581800005C1800006018000064180000E6
:1062E000681800006C180000701800007418000096
:1062F000781800007C180000801800008418000046
:10630000881800008C1800009018000094180000F5
:10631000981800009C180000A0180000A4180000A5
:10632000A8180000AC180000B0180000B418000055
:10633000B8180000BC180000C0180000C418000005
:10634000C8180000CC180000D0180000D4180000B5
:10635000D8180000DC180000E0180000E418000065
:10636000E8180000EC180000F0180000F418000015
:10637000F8180000FC1800000019000004190000C3
:10638000081900000C190000101900001419000071
:10639000181900001C190000201900002419000021
:1063A000281900002C1900003019000034190000D1
:1063B000381900003C190000401900004419000081
:1063C000481900004C190000501900005419000031
:1063D000581900005C1900006019000064190000E1
:1063E000681900006C190000701900007419000091
:1063F000781900007C190000801900008419000041
:10640000881900008C1900009019000094190000F0
:10641000981900009C190000A0190000A4190000A0
:10642000A8190000AC190000B0190000B419000050
:10643000B8190000BC190000C0190000C419000000
:10644000C8190000CC190000D0190000D4190000B0
:10645000D8190000DC190000E0190000E419000060
:10646000E8190000EC190000F0190000F419000010
:10647000F8190000FC190000001A0000041A0000BE
:10648000081A00000C1A0000101A0000141A00006C
:10649000181A00001C1A0000201A0000241A00001C
:1064A000281A00002C1A0000301A0000341A0000CC
:1064B000381A00003C1A0000401A0000441A00007C
:1064C000481A00004C1A0000501A0000541A00002C
:1064D000581A00005C1A0000601A0000641A0000DC
:1064E000681A00006C1A0000701A0000741A00008C
:1064F000781A00007C1A0000801A0000841A00003C
:10650000881A00008C1A0000901A0000941A0000EB
:10651000981A00009C1A0000A01A0000A41A00009B
:10652000A81A0000AC1A0000B01A0000B41A00004B
:10653000B81A0000BC1A0000C01A0000C41A0000FB
:10654000C81A0000CC1A0000D01A0000D41A0000AB
:10655000D81A0000DC1A0000E01A0000E41A00005B
:10656000E81A0000EC1A0000F01A0000F41A00000B
:10657000F81A0000FC1A0000001B0000041B0000B9
:10658000081B00000C1B0000101B0000141B000067
:10659000181B00001C1B0000201B0000241B000017
:1065A000281B00002C1B0000301B0000341B0000C7
:1065B000381B00003C1B0000401B0000441B000077
:1065C000481B00004C1B0000501B0000541B000027
:1065D000581B00005C1B0000601B0000641B0000D7
:1065E000681B00006C1B0000701B0000741B000087
:1065F000781B00007C1B0000801B0000841B000037
:10660000881B00008C1B0000901B0000941B0000E6
:10661000981B00009C1B0000A01B0000A41B000096
:10662000A81B0000AC1B0000B01B0000B41B000046
:10663000B81B0000BC1B0000C01B0000C41B0000F6
:10664000C81B0000CC1B0000D01B0000D41B0000A6
:10665000D81B0000DC1B0000E01B0000E41B000056
:10666000E81B0000EC1B0000F01B0000F41B000006
:10667000F81B0000FC1B0000001C0000041C0000B4
:10668000081C00000C1C0000101C0000141C000062
:10669000181C00001C1C0000201C0000241C000012
:1066A000281C00002C1C0000301C0000341C0000C2
:1066B000381C00003C1C0000401C0000441C000072
:1066C000481C00004C1C0000501C0000541C000022
:1066D000581C00005C1C0000601C0000641C0000D2
:1066E000681C00006C1C0000701C0000741C000082
:1066F000781C00007C1C0000801C0000841C000032
:10670000881C00008C1C0000901C0000941C0000E1
:10671000981C00009C1C0000A01C0000A41C000091
:10672000A81C0000AC1C0000B01C0000B41C000041
:10673000B81C0000BC1C0000C01C0000C41C0000F1
:10674000C81C0000CC1C0000D01C0000D41C0000A1
:10675000D81C0000DC1C0000E01C0000E41C000051
:10676000E81C0000EC1C0000F01C0000F41C000001
:10677000F81C0000FC1C0000001D0000041D0000AF
:10678000081D00000C1D0000101D0000141D00005D
:10679000181D00001C1D0000201D0000241D00000D
:1067A000281D00002C1D0000301D0000341D0000BD
:1067B000381D00003C1D0000401D0000441D00006D
:1067C000481D00004C1D0000501D0000541D00001D
:1067D000581D00005C1D0000601D0000641D0000CD
:1067E000681D00006C1D0000701D0000741D00007D
:1067F000781D00007C1D0000801D0000841D00002D
:10680000881D00008C1D0000901D0000941D0000DC
:10681000981D00009C1D0000A01D0000A41D00008C
:10682000A81D0000AC1D0000B01D0000B41D00003C
:10683000B81D0000BC1D0000C01D0000C41D0000EC
:10684000C81D0000CC1D0000D01D0000D41D00009C
:10685000D81D0000DC1D0000E01D0000E41D00004C
:10686000E81D0000EC1D0000F01D0000F41D0000FC
:10687000F81D0000FC1D0000001E0000041E0000AA
:10688000081E00000C1E0000101E0000141E000058
:10689000181E00001C1E0000201E0000241E000008
:1068A000281E00002C1E0000301E0000341E0000B8
:1068B000381E00003C1E0000401E0000441E000068
:1068C000481E00004C1E0000501E0000541E000018
:1068D000581E00005C1E0000601E0000641E0000C8
:1068E000681E00006C1E0000701E0000741E000078
:1068F000781E00007C1E0000801E0000841E000028
:10690000881E00008C1E0000901E0000941E0000D7
:10691000981E00009C1E0000A01E0000A41E000087
:10692000A81E0000AC1E0000B01E0000B41E000037
:10693000B81E0000BC1E0000C01E0000C41E0000E7
:10694000C81E0000CC1E0000D01E0000D41E000097
:10695000D81E0000DC1E0000E01E0000E41E000047
:10696000E81E0000EC1E0000F01E0000F41E0000F7
:10697000F81E0000FC1E0000001F0000041F0000A5
:10698000081F00000C1F0000101F0000141F000053
:10699000181F00001C1F0000201F0000241F000003
:1069A000281F00002C1F0000301F0000341F0000B3
:1069B000381F00003C1F0000401F0000441F000063
:1069C000481F00004C1F0000501F0000541F000013
:1069D000581F00005C1F0000601F0000641F0000C3
:1069E000681F00006C1F0000701F0000741F000073
:1069F000781F00007C1F0000801F0000841F000023
:106A0000881F00008C1F0000901F0000941F0000D2
:106A1000981F00009C1F0000A01F0000A41F000082
:106A2000A81F0000AC1F0000B01F0000B41F000032
:106A3000B81F0000BC1F0000C01F0000C41F0000E2
:106A4000C81F0000CC1F0000D01F0000D41F000092
:106A5000D81F0000DC1F0000E01F0000E41F000042
:106A6000E81F0000EC1F0000F01F0000F41F0000F2
:106A7000F81F0000FC1F00000020000004200000A0
:106A8000082000000C20000010200000142000004E
:106A9000182000001C2000002020000024200000FE
:106AA000282000002C2000003020000034200000AE
:106AB000382000003C20000040200000442000005E
:106AC000482000004C20000050200000542000000E
:106AD000582000005C2000006020000064200000BE
:106AE000682000006C20000070200000742000006E
:106AF000782000007C20000080200000842000001E
:106B0000882000008C2000009020000094200000CD
:106B1000982000009C200000A0200000A42000007D
:106B2000A8200000AC200000B0200000B42000002D
:106B3000B8200000BC200000C0200000C4200000DD
:106B4000C8200000CC200000D0200000D42000008D
:106B5000D8200000DC200000E0200000E42000003D
:106B6000E8200000EC200000F0200000F4200000ED
:106B7000F8200000FC20000000210000042100009B
:106B8000082100000C210000102100001421000049
:106B9000182100001C2100002021000024210000F9
:106BA000282100002C2100003021000034210000A9
:106BB000382100003C210000402100004421000059
:106BC000482100004C210000502100005421000009
:106BD000582100005C2100006021000064210000B9
:106BE000682100006C210000702100007421000069
:106BF000782100007C210000802100008421000019
:106C0000882100008C2100009021000094210000C8
:106C1000982100009C210000A0210000A421000078
:106C2000A8210000AC210000B0210000B421000028
:106C3000B8210000BC210000C0210000C4210000D8
:106C4000C8210000CC210000D0210000D421000088
:106C5000D8210000DC210000E0210000E421000038
:106C6000E8210000EC210000F0210000F4210000E8
:106C7000F8210000FC210000002200000422000096
:106C8000082200000C220000102200001422000044
:106C9000182200001C2200002022000024220000F4
:106CA000282200002C2200003022000034220000A4
:106CB000382200003C220000402200004422000054
:106CC000482200004C220000502200005422000004
:106CD000582200005C2200006022000064220000B4
:106CE000682200006C220000702200007422000064
:106CF000782200007C220000802200008422000014
:106D0000882200008C2200009022000094220000C3
:106D1000982200009C220000A0220000A422000073
:106D2000A8220000AC220000B0220000B422000023
:106D3000B8220000BC220000C0220000C4220000D3
:106D4000C8220000CC220000D0220000D422000083
:106D5000D8220000DC220000E0220000E422000033
:106D6000E8220000EC220000F0220000F4220000E3
:106D7000F8220000FC220000002300000423000091
:106D8000082300000C23000010230000142300003F
:106D9000182300001C2300002023000024230000EF
:106DA000282300002C23000030230000342300009F
:106DB000382300003C23000040230000442300004F
:106DC000482300004C2300005023000054230000FF
:106DD000582300005C2300006023000064230000AF
:106DE000682300006C23000070230000742300005F
:106DF000782300007C23000080230000842300000F
:106E0000882300008C2300009023000094230000BE
:106E1000982300009C230000A0230000A42300006E
:106E2000A8230000AC230000B0230000B42300001E
:106E3000B8230000BC230000C0230000C4230000CE
:106E4000C8230000CC230000D0230000D42300007E
:106E5000D8230000DC230000E0230000E42300002E
:106E6000E8230000EC230000F0230000F4230000DE
:106E7000F8230000FC23000000240000042400008C
:106E8000082400000C24000010240000142400003A
:106E9000182400001C2400002024000024240000EA
:106EA000282400002C24000030240000342400009A
:106EB000382400003C24000040240000442400004A
:106EC000482400004C2400005024000054240000FA
:106ED000582400005C2400006024000064240000AA
:106EE000682400006C24000070240000742400005A
:106EF000782400007C24000080240000842400000A
:106F0000882400008C2400009024000094240000B9
:106F1000982400009C240000A0240000A424000069
:106F2000A8240000AC240000B0240000B424000019
:106F3000B8240000BC240000C0240000C4240000C9
:106F4000C8240000CC240000D0240000D424000079
:106F5000D8240000DC240000E0240000E424000029
:106F6000E8240000EC240000F0240000F4240000D9
:106F7000F8240000FC240000002500000425000087
:106F8000082500000C250000102500001425000035
:106F9000182500001C2500002025000024250000E5
:106FA000282500002C250000302500003425000095
:106FB000382500003C250000402500004425000045
:106FC000482500004C2500005025000054250000F5
:106FD000582500005C2500006025000064250000A5
:106FE000682500006C250000702500007425000055
:106FF000782500007C250000802500008425000005
:10700000882500008C2500009025000094250000B4
:10701000982500009C250000A0250000A425000064
:10702000A8250000AC250000B0250000B425000014
:10703000B8250000BC250000C0250000C4250000C4
:10704000C8250000CC250000D0250000D425000074
:10705000D8250000DC250000E0250000E425000024
:10706000E8250000EC250000F0250000F4250000D4
:10707000F8250000FC250000002600000426000082
:10708000082600000C260000102600001426000030
:10709000182600001C2600002026000024260000E0
:1070A000282600002C260000302600003426000090
:1070B000382600003C260000402600004426000040
:1070C000482600004C2600005026000054260000F0
:1070D000582600005C2600006026000064260000A0
:1070E000682600006C260000702600007426000050
:1070F000782600007C260000802600008426000000
:10710000882600008C2600009026000094260000AF
:10711000982600009C260000A0260000A42600005F
:10712000A8260000AC260000B0260000B42600000F
:10713000B8260000BC260000C0260000C4260000BF
:10714000C8260000CC260000D0260000D42600006F
:10715000D8260000DC260000E0260000E42600001F
:10716000E8260000EC260000F0260000F4260000CF
:10717000F8260000FC26000000270000042700007D
:10718000082700000C27000010270000142700002B
:10719000182700001C2700002027000024270000DB
:1071A000282700002C27000030270000342700008B
:1071B000382700003C27000040270000442700003B
:1071C000482700004C2700005027000054270000EB
:1071D000582700005C27000060270000642700009B
:1071E000682700006C27000070270000742700004B
:1071F000782700007C2700008027000084270000FB
:10720000882700008C2700009027000094270000AA
:10721000982700009C270000A0270000A42700005A
:10722000A8270000AC270000B0270000B42700000A
:10723000B8270000BC270000C0270000C4270000BA
:10724000C8270000CC270000D0270000D42700006A
:10725000D8270000DC270000E0270000E42700001A
:10726000E8270000EC270000F0270000F4270000CA
:10727000F8270000FC270000002800000428000078
:10728000082800000C280000102800001428000026
:10729000182800001C2800002028000024280000D6
:1072A000282800002C280000302800003428000086
:1072B000382800003C280000402800004428000036
:1072C000482800004C2800005028000054280000E6
:1072D000582800005C280000602800006428000096
:1072E000682800006C280000702800007428000046
:1072F000782800007C2800008028000084280000F6
:10730000882800008C2800009028000094280000A5
:10731000982800009C280000A0280000A428000055
:10732000A8280000AC280000B0280000B428000005
:10733000B8280000BC280000C0280000C4280000B5
:10734000C8280000CC280000D0280000D428000065
:10735000D8280000DC280000E0280000E428000015
:10736000E8280000EC280000F0280000F4280000C5
:10737000F8280000FC280000002900000429000073
:10738000082900000C290000102900001429000021
:10739000182900001C2900002029000024290000D1
:1073A000282900002C290000302900003429000081
:1073B000382900003C290000402900004429000031
:1073C000482900004C2900005029000054290000E1
:1073D000582900005C290000602900006429000091
:1073E000682900006C290000702900007429000041
:1073F000782900007C2900008029000084290000F1
:10740000882900008C2900009029000094290000A0
:10741000982900009C290000A0290000A429000050
:10742000A8290000AC290000B0290000B429000000
:10743000B8290000BC290000C0290000C4290000B0
:10744000C8290000CC290000D0290000D429000060
:10745000D8290000DC290000E0290000E429000010
:10746000E8290000EC290000F0290000F4290000C0
:10747000F8290000FC290000002A0000042A00006E
:10748000082A00000C2A0000102A0000142A00001C
:10749000182A00001C2A0000202A0000242A0000CC
:1074A000282A00002C2A0000302A0000342A00007C
:1074B000382A00003C2A0000402A0000442A00002C
:1074C000482A00004C2A0000502A0000542A0000DC
:1074D000582A00005C2A0000602A0000642A00008C
:1074E000682A00006C2A0000702A0000742A00003C
:1074F000782A00007C2A0000802A0000842A0000EC
:10750000882A00008C2A0000902A0000942A00009B
:10751000982A00009C2A0000A02A0000A42A00004B
:10752000A82A0000AC2A0000B02A0000B42A0000FB
:10753000B82A0000BC2A0000C02A0000C42A0000AB
:10754000C82A0000CC2A0000D02A0000D42A00005B
:10755000D82A0000DC2A0000E02A0000E42A00000B
:10756000E82A0000EC2A0000F02A0000F42A0000BB
:10757000F82A0000FC2A0000002B0000042B000069
:10758000082B00000C2B0000102B0000142B000017
:10759000182B00001C2B0000202B0000242B0000C7
:1075A000282B00002C2B0000302B0000342B000077
:1075B000382B00003C2B0000402B0000442B000027
:1075C000482B00004C2B0000502B0000542B0000D7
:1075D000582B00005C2B0000602B0000642B000087
:1075E000682B00006C2B0000702B0000742B000037
:1075F000782B00007C2B0000802B0000842B0000E7
:10760000882B00008C2B0000902B0000942B000096
:10761000982B00009C2B0000A02B0000A42B000046
:10762000A82B0000AC2B0000B02B0000B42B0000F6
:10763000B82B0000BC2B0000C02B0000C42B0000A6
:10764000C82B0000CC2B0000D02B0000D42B000056
:10765000D82B0000DC2B0000E02B0000E42B000006
:10766000E82B0000EC2B0000F02B0000F42B0000B6
:10767000F82B0000FC2B0000002C0000042C000064
:10768000082C00000C2C0000102C0000142C000012
:10769000182C00001C2C0000202C0000242C0000C2
:1076A000282C00002C2C0000302C0000342C000072
:1076B000382C00003C2C0000402C0000442C000022
:1076C000482C00004C2C0000502C0000542C0000D2
:1076D000582C00005C2C0000602C0000642C000082
:1076E000682C00006C2C0000702C0000742C000032
:1076F000782C00007C2C0000802C0000842C0000E2
:10770000882C00008C2C0000902C0000942C000091
:10771000982C00009C2C0000A02C0000A42C000041
:10772000A82C0000AC2C0000B02C0000B42C0000F1
:10773000B82C0000BC2C0000C02C0000C42C0000A1
:10774000C82C0000CC2C0000D02C0000D42C000051
:10775000D82C0000DC2C0000E02C0000E42C000001
:10776000E82C0000EC2C0000F02C0000F42C0000B1
:10777000F82C0000FC2C0000002D0000042D00005F
:10778000082D00000C2D0000102D0000142D00000D
:10779000182D00001C2D0000202D0000242D0000BD
:1077A000282D00002C2D0000302D0000342D00006D
:1077B000382D00003C2D0000402D0000442D00001D
:1077C000482D00004C2D0000502D0000542D0000CD
:1077D000582D00005C2D0000602D0000642D00007D
:1077E000682D00006C2D0000702D0000742D00002D
:1077F000782D00007C2D0000802D0000842D0000DD
:10780000882D00008C2D0000902D0000942D00008C
:10781000982D00009C2D0000A02D0000A42D00003C
:10782000A82D0000AC2D0000B02D0000B42D0000EC
:10783000B82D0000BC2D0000C02D0000C42D00009C
:10784000C82D0000CC2D0000D02D0000D42D00004C
:10785000D82D0000DC2D0000E02D0000E42D0000FC
:10786000E82D0000EC2D0000F02D0000F42D0000AC
:10787000F82D0000FC2D0000002E0000042E00005A
:10788000082E00000C2E0000102E0000142E000008
:10789000182E00001C2E0000202E0000242E0000B8
:1078A000282E00002C2E0000302E0000342E000068
:1078B000382E00003C2E0000402E0000442E000018
:1078C000482E00004C2E0000502E0000542E0000C8
:1078D000582E00005C2E0000602E0000642E000078
:1078E000682E00006C2E0000702E0000742E000028
:1078F000782E00007C2E0000802E0000842E0000D8
:10790000882E00008C2E0000902E0000942E000087
:10791000982E00009C2E0000A02E0000A42E000037
:10792000A82E0000AC2E0000B02E0000B42E0000E7
:10793000B82E0000BC2E0000C02E0000C42E000097
:10794000C82E0000CC2E0000D02E0000D42E000047
:10795000D82E0000DC2E0000E02E0000E42E0000F7
:10796000E82E0000EC2E0000F02E0000F42E0000A7
:10797000F82E0000FC2E0000002F0000042F000055
:10798000082F00000C2F0000102F0000142F000003
:10799000182F00001C2F0000202F0000242F0000B3
:1079A000282F00002C2F0000302F0000342F000063
:1079B000382F00003C2F0000402F0000442F000013
:1079C000482F00004C2F0000502F0000542F0000C3
:1079D000582F00005C2F0000602F0000642F000073
:1079E000682F00006C2F0000702F0000742F000023
:1079F000782F00007C2F0000802F0000842F0000D3
:107A0000882F00008C2F0000902F0000942F000082
:107A1000982F00009C2F0000A02F0000A42F000032
:107A2000A82F0000AC2F0000B02F0000B42F0000E2
:107A3000B82F0000BC2F0000C02F0000C42F000092
:107A4000C82F0000CC2F0000D02F0000D42F000042
:107A5000D82F0000DC2F0000E02F0000E42F0000F2
:107A6000E82F0000EC2F0000F02F0000F42F0000A2
:107A7000F82F0000FC2F0000003000000430000050
:107A8000083000000C3000001030000014300000FE
:107A9000183000001C3000002030000024300000AE
:107AA000283000002C30000030300000343000005E
:107AB000383000003C30000040300000443000000E
:107AC000483000004C3000005030000054300000BE
:107AD000583000005C30000060300000643000006E
:107AE000683000006C30000070300000743000001E
:107AF000783000007C3000008030000084300000CE
:107B0000883000008C30000090300000943000007D
:107B1000983000009C300000A0300000A43000002D
:107B2000A8300000AC300000B0300000B4300000DD
:107B3000B8300000BC300000C0300000C43000008D
:107B4000C8300000CC300000D0300000D43000003D
:107B5000D8300000DC300000E0300000E4300000ED
:107B6000E8300000EC300000F0300000F43000009D
:107B7000F8300000FC30000000310000043100004B
:107B8000083100000C3100001031000014310000F9
:107B9000183100001C3100002031000024310000A9
:107BA000283100002C310000303100003431000059
:107BB000383100003C310000403100004431000009
:107BC000483100004C3100005031000054310000B9
:107BD000583100005C310000603100006431000069
:107BE000683100006C310000703100007431000019
:107BF000783100007C3100008031000084310000C9
:107C0000883100008C310000903100009431000078
:107C1000983100009C310000A0310000A431000028
:107C2000A8310000AC310000B0310000B4310000D8
:107C3000B8310000BC310000C0310000C431000088
:107C4000C8310000CC310000D0310000D431000038
:107C5000D8310000DC310000E0310000E4310000E8
:107C6000E8310000EC310000F0310000F431000098
:107C7000F8310000FC310000003200000432000046
:107C8000083200000C3200001032000014320000F4
:107C9000183200001C3200002032000024320000A4
:107CA000283200002C320000303200003432000054
:107CB000383200003C320000403200004432000004
:107CC000483200004C3200005032000054320000B4
:107CD000583200005C320000603200006432000064
:107CE000683200006C320000703200007432000014
:107CF000783200007C3200008032000084320000C4
:107D0000883200008C320000903200009432000073
:107D1000983200009C320000A0320000A432000023
:107D2000A8320000AC320000B0320000B4320000D3
:107D3000B8320000BC320000C0320000C432000083
:107D4000C8320000CC320000D0320000D432000033
:107D5000D8320000DC320000E0320000E4320000E3
:107D6000E8320000EC320000F0320000F432000093
:107D7000F8320000FC320000003300000433000041
:107D8000083300000C3300001033000014330000EF
:107D9000183300001C33000020330000243300009F
:107DA000283300002C33000030330000343300004F
:107DB000383300003C3300004033000044330000FF
:107DC000483300004C3300005033000054330000AF
:107DD000583300005C33000060330000643300005F
:107DE000683300006C33000070330000743300000F
:107DF000783300007C3300008033000084330000BF
:107E0000883300008C33000090330000943300006E
:107E1000983300009C330000A0330000A43300001E
:107E2000A8330000AC330000B0330000B4330000CE
:107E3000B8330000BC330000C0330000C43300007E
:107E4000C8330000CC330000D0330000D43300002E
:107E5000D8330000DC330000E0330000E4330000DE
:107E6000E8330000EC330000F0330000F43300008E
:107E7000F8330000FC33000000340000043400003C
:107E8000083400000C3400001034000014340000EA
:107E9000183400001C34000020340000243400009A
:107EA000283400002C34000030340000343400004A
:107EB000383400003C3400004034000044340000FA
:107EC000483400004C3400005034000054340000AA
:107ED000583400005C34000060340000643400005A
:107EE000683400006C34000070340000743400000A
:107EF000783400007C3400008034000084340000BA
:107F0000883400008C340000903400009434000069
:107F1000983400009C340000A0340000A434000019
:107F2000A8340000AC340000B0340000B4340000C9
:107F3000B8340000BC340000C0340000C434000079
:107F4000C8340000CC340000D0340000D434000029
:107F5000D8340000DC340000E0340000E4340000D9
:107F6000E8340000EC340000F0340000F434000089
:107F7000F8340000FC340000003500000435000037
:107F8000083500000C3500001035000014350000E5
:107F9000183500001C350000203500002435000095
:107FA000283500002C350000303500003435000045
:107FB000383500003C3500004035000044350000F5
:107FC000483500004C3500005035000054350000A5
:107FD000583500005C350000603500006435000055
:107FE000683500006C350000703500007435000005
:107FF000783500007C3500008035000084350000B5
:10800000883500008C350000903500009435000064
:10801000983500009C350000A0350000A435000014
:10802000A8350000AC350000B0350000B4350000C4
:10803000B8350000BC350000C0350000C435000074
:10804000C8350000CC350000D0350000D435000024
:10805000D8350000DC350000E0350000E4350000D4
:10806000E8350000EC350000F0350000F435000084
:10807000F8350000FC350000003600000436000032
:10808000083600000C3600001036000014360000E0
:10809000183600001C360000203600002436000090
:1080A000283600002C360000303600003436000040
:1080B000383600003C3600004036000044360000F0
:1080C000483600004C3600005036000054360000A0
:1080D000583600005C360000603600006436000050
:1080E000683600006C360000703600007436000000
:1080F000783600007C3600008036000084360000B0
:10810000883600008C36000090360000943600005F
:10811000983600009C360000A0360000A43600000F
:10812000A8360000AC360000B0360000B4360000BF
:10813000B8360000BC360000C0360000C43600006F
:10814000C8360000CC360000D0360000D43600001F
:10815000D8360000DC360000E0360000E4360000CF
:10816000E8360000EC360000F0360000F43600007F
:10817000F8360000FC36000000370000043700002D
:10818000083700000C3700001037000014370000DB
:10819000183700001C37000020370000243700008B
:1081A000283700002C37000030370000343700003B
:1081B000383700003C3700004037000044370000EB
:1081C000483700004C37000050370000543700009B
:1081D000583700005C37000060370000643700004B
:1081E000683700006C3700007037000074370000FB
:1081F000783700007C3700008037000084370000AB
:10820000883700008C37000090370000943700005A
:10821000983700009C370000A0370000A43700000A
:10822000A8370000AC370000B0370000B4370000BA
:10823000B8370000BC370000C0370000C43700006A
:10824000C8370000CC370000D0370000D43700001A
:10825000D8370000DC370000E0370000E4370000CA
:10826000E8370000EC370000F0370000F43700007A
:10827000F8370000FC370000003800000438000028
:10828000083800000C3800001038000014380000D6
:10829000183800001C380000203800002438000086
:1082A000283800002C380000303800003438000036
:1082B000383800003C3800004038000044380000E6
:1082C000483800004C380000503800005438000096
:1082D000583800005C380000603800006438000046
:1082E000683800006C3800007038000074380000F6
:1082F000783800007C3800008038000084380000A6
:10830000883800008C380000903800009438000055
:10831000983800009C380000A0380000A438000005
:10832000A8380000AC380000B0380000B4380000B5
:10833000B8380000BC380000C0380000C438000065
:10834000C8380000CC380000D0380000D438000015
:10835000D8380000DC380000E0380000E4380000C5
:10836000E8380000EC380000F0380000F438000075
:10837000F8380000FC380000003900000439000023
:10838000083900000C3900001039000014390000D1
:10839000183900001C390000203900002439000081
:1083A000283900002C390000303900003439000031
:1083B000383900003C3900004039000044390000E1
:1083C000483900004C390000503900005439000091
:1083D000583900005C390000603900006439000041
:1083E000683900006C3900007039000074390000F1
:1083F000783900007C3900008039000084390000A1
:10840000883900008C390000903900009439000050
:10841000983900009C390000A0390000A439000000
:10842000A8390000AC390000B0390000B4390000B0
:10843000B8390000BC390000C0390000C439000060
:10844000C8390000CC390000D0390000D439000010
:10845000D8390000DC390000E0390000E4390000C0
:10846000E8390000EC390000F0390000F439000070
:10847000F8390000FC390000003A0000043A00001E
:10848000083A00000C3A0000103A0000143A0000CC
:10849000183A00001C3A0000203A0000243A00007C
:1084A000283A00002C3A0000303A0000343A00002C
:1084B000383A00003C3A0000403A0000443A0000DC
:1084C000483A00004C3A0000503A0000543A00008C
:1084D000583A00005C3A0000603A0000643A00003C
:1084E000683A00006C3A0000703A0000743A0000EC
:1084F000783A00007C3A0000803A0000843A00009C
:10850000883A00008C3A0000903A0000943A00004B
:10851000983A00009C3A0000A03A0000A43A0000FB
:10852000A83A0000AC3A0000B03A0000B43A0000AB
:10853000B83A0000BC3A0000C03A0000C43A00005B
:10854000C83A0000CC3A0000D03A0000D43A00000B
:10855000D83A0000DC3A0000E03A0000E43A0000BB
:10856000E83A0000EC3A0000F03A0000F43A00006B
:10857000F83A0000FC3A0000003B0000043B000019
:10858000083B00000C3B0000103B0000143B0000C7
:10859000183B00001C3B0000203B0000243B000077
:1085A000283B00002C3B0000303B0000343B000027
:1085B000383B00003C3B0000403B0000443B0000D7
:1085C000483B00004C3B0000503B0000543B000087
:1085D000583B00005C3B0000603B0000643B000037
:1085E000683B00006C3B0000703B0000743B0000E7
:1085F000783B00007C3B0000803B0000843B000097
:10860000883B00008C3B0000903B0000943B000046
:10861000983B00009C3B0000A03B0000A43B0000F6
:10862000A83B0000AC3B0000B03B0000B43B0000A6
:10863000B83B0000BC3B0000C03B0000C43B000056
:10864000C83B0000CC3B0000D03B0000D43B000006
:10865000D83B0000DC3B0000E03B0000E43B0000B6
:10866000E83B0000EC3B0000F03B0000F43B000066
:10867000F83B0000FC3B0000003C0000043C000014
:10868000083C00000C3C0000103C0000143C0000C2
:10869000183C00001C3C0000203C0000243C000072
:1086A000283C00002C3C0000303C0000343C000022
:1086B000383C00003C3C0000403C0000443C0000D2
:1086C000483C00004C3C0000503C0000543C000082
:1086D000583C00005C3C0000603C0000643C000032
:1086E000683C00006C3C0000703C0000743C0000E2
:1086F000783C00007C3C0000803C0000843C000092
:10870000883C00008C3C0000903C0000943C000041
:10871000983C00009C3C0000A03C0000A43C0000F1
:10872000A83C0000AC3C0000B03C0000B43C0000A1
:10873000B83C0000BC3C0000C03C0000C43C000051
:10874000C83C0000CC3C0000D03C0000D43C000001
:10875000D83C0000DC3C0000E03C0000E43C0000B1
:10876000E83C0000EC3C0000F03C0000F43C000061
:10877000F83C0000FC3C0000003D0000043D00000F
:10878000083D00000C3D0000103D0000143D0000BD
:10879000183D00001C3D0000203D0000243D00006D
:1087A000283D00002C3D0000303D0000343D00001D
:1087B000383D00003C3D0000403D0000443D0000CD
:1087C000483D00004C3D0000503D0000543D00007D
:1087D000583D00005C3D0000603D0000643D00002D
:1087E000683D00006C3D0000703D0000743D0000DD
:1087F000783D00007C3D0000803D0000843D00008D
:10880000883D00008C3D0000903D0000943D00003C
:10881000983D00009C3D0000A03D0000A43D0000EC
:10882000A83D0000AC3D0000B03D0000B43D00009C
:10883000B83D0000BC3D0000C03D0000C43D00004C
:10884000C83D0000CC3D0000D03D0000D43D0000FC
:10885000D83D0000DC3D0000E03D0000E43D0000AC
:10886000E83D0000EC3D0000F03D0000F43D00005C
:10887000F83D0000FC3D0000003E0000043E00000A
:10888000083E00000C3E0000103E0000143E0000B8
:10889000183E00001C3E0000203E0000243E000068
:1088A000283E00002C3E0000303E0000343E000018
:1088B000383E00003C3E0000403E0000443E0000C8
:1088C000483E00004C3E0000503E0000543E000078
:1088D000583E00005C3E0000603E0000643E000028
:1088E000683E00006C3E0000703E0000743E0000D8
:1088F000783E00007C3E0000803E0000843E000088
:10890000883E00008C3E0000903E0000943E000037
:10891000983E00009C3E0000A03E0000A43E0000E7
:10892000A83E0000AC3E0000B03E0000B43E000097
:10893000B83E0000BC3E0000C03E0000C43E000047
:10894000C83E0000CC3E0000D03E0000D43E0000F7
:10895000D83E0000DC3E0000E03E0000E43E0000A7
:10896000E83E0000EC3E0000F03E0000F43E000057
:10897000F83E0000FC3E0000003F0000043F000005
:10898000083F00000C3F0000103F0000143F0000B3
:10899000183F00001C3F0000203F0000243F000063
:1089A000283F00002C3F0000303F0000343F000013
:1089B000383F00003C3F0000403F0000443F0000C3
:1089C000483F00004C3F0000503F0000543F000073
:1089D000583F00005C3F0000603F0000643F000023
:1089E000683F00006C3F0000703F0000743F0000D3
:1089F000783F00007C3F0000803F0000843F000083
:108A0000883F00008C3F0000903F0000943F000032
:108A1000983F00009C3F0000A03F0000A43F0000E2
:108A2000A83F0000AC3F0000B03F0000B43F000092
:108A3000B83F0000BC3F0000C03F0000C43F000042
:108A4000C83F0000CC3F0000D03F0000D43F0000F2
:108A5000D83F0000DC3F0000E03F0000E43F0000A2
:108A6000E83F0000EC3F0000F03F0000F43F000052
:108A7000F83F0000FC3F0000004000000440000000
:108A8000084000000C4000001040000014400000AE
:108A9000184000001C40000020400000244000005E
:108AA000284000002C40000030400000344000000E
:108AB000384000003C4000004040000044400000BE
:108AC000484000004C40000050400000544000006E
:108AD000584000005C40000060400000644000001E
:108AE000684000006C4000007040000074400000CE
:108AF000784000007C40000080400000844000007E
:108B0000884000008C40000090400000944000002D
:108B1000984000009C400000A0400000A4400000DD
:108B2000A8400000AC400000B0400000B44000008D
:108B3000B8400000BC400000C0400000C44000003D
:108B4000C8400000CC400000D0400000D4400000ED
:108B5000D8400000DC400000E0400000E44000009D
:108B6000E8400000EC400000F0400000F44000004D
:108B7000F8400000FC4000000041000004410000FB
:108B8000084100000C4100001041000014410000A9
:108B9000184100001C410000204100002441000059
:108BA000284100002C410000304100003441000009
:108BB000384100003C4100004041000044410000B9
:108BC000484100004C410000504100005441000069
:108BD000584100005C410000604100006441000019
:108BE000684100006C4100007041000074410000C9
:108BF000784100007C410000804100008441000079
:108C0000884100008C410000904100009441000028
:108C1000984100009C410000A0410000A4410000D8
:108C2000A8410000AC410000B0410000B441000088
:108C3000B8410000BC410000C0410000C441000038
:108C4000C8410000CC410000D0410000D4410000E8
:108C5000D8410000DC410000E0410000E441000098
:108C6000E8410000EC410000F0410000F441000048
:108C7000F8410000FC4100000042000004420000F6
:108C8000084200000C4200001042000014420000A4
:108C9000184200001C420000204200002442000054
:108CA000284200002C420000304200003442000004
:108CB000384200003C4200004042000044420000B4
:108CC000484200004C420000504200005442000064
:108CD000584200005C420000604200006442000014
:108CE000684200006C4200007042000074420000C4
:108CF000784200007C420000804200008442000074
:108D0000884200008C420000904200009442000023
:108D1000984200009C420000A0420000A4420000D3
:108D2000A8420000AC420000B0420000B442000083
:108D3000B8420000BC420000C0420000C442000033
:108D4000C8420000CC420000D0420000D4420000E3
:108D5000D8420000DC420000E0420000E442000093
:108D6000E8420000EC420000F0420000F442000043
:108D7000F8420000FC4200000043000004430000F1
:108D8000084300000C43000010430000144300009F
:108D9000184300001C43000020430000244300004F
:108DA000284300002C4300003043000034430000FF
:108DB000384300003C4300004043000044430000AF
:108DC000484300004C43000050430000544300005F
:108DD000584300005C43000060430000644300000F
:108DE000684300006C4300007043000074430000BF
:108DF000784300007C43000080430000844300006F
:108E0000884300008C43000090430000944300001E
:108E1000984300009C430000A0430000A4430000CE
:108E2000A8430000AC430000B0430000B44300007E
:108E3000B8430000BC430000C0430000C44300002E
:108E4000C8430000CC430000D0430000D4430000DE
:108E5000D8430000DC430000E0430000E44300008E
:108E6000E8430000EC430000F0430000F44300003E
:108E7000F8430000FC4300000044000004440000EC
:108E8000084400000C44000010440000144400009A
:108E9000184400001C44000020440000244400004A
:108EA000284400002C4400003044000034440000FA
:108EB000384400003C4400004044000044440000AA
:108EC000484400004C44000050440000544400005A
:108ED000584400005C44000060440000644400000A
:108EE000684400006C4400007044000074440000BA
:108EF000784400007C44000080440000844400006A
:108F0000884400008C440000904400009444000019
:108F1000984400009C440000A0440000A4440000C9
:108F2000A8440000AC440000B0440000B444000079
:108F3000B8440000BC440000C0440000C444000029
:108F4000C8440000CC440000D0440000D4440000D9
:108F5000D8440000DC440000E0440000E444000089
:108F6000E8440000EC440000F0440000F444000039
:108F7000F8440000FC4400000045000004450000E7
:108F8000084500000C450000104500001445000095
:108F9000184500001C450000204500002445000045
:108FA000284500002C4500003045000034450000F5
:108FB000384500003C4500004045000044450000A5
:108FC000484500004C450000504500005445000055
:108FD000584500005C450000604500006445000005
:108FE000684500006C4500007045000074450000B5
:108FF000784500007C450000804500008445000065
:10900000884500008C450000904500009445000014
:10901000984500009C450000A0450000A4450000C4
:10902000A8450000AC450000B0450000B445000074
:10903000B8450000BC450000C0450000C445000024
:10904000C8450000CC450000D0450000D4450000D4
:10905000D8450000DC450000E0450000E445000084
:10906000E8450000EC450000F0450000F445000034
:10907000F8450000FC4500000046000004460000E2
:10908000084600000C460000104600001446000090
:10909000184600001C460000204600002446000040
:1090A000284600002C4600003046000034460000F0
:1090B000384600003C4600004046000044460000A0
:1090C000484600004C460000504600005446000050
:1090D000584600005C460000604600006446000000
:1090E000684600006C4600007046000074460000B0
:1090F000784600007C460000804600008446000060
:10910000884600008C46000090460000944600000F
:10911000984600009C460000A0460000A4460000BF
:10912000A8460000AC460000B0460000B44600006F
:10913000B8460000BC460000C0460000C44600001F
:10914000C8460000CC460000D0460000D4460000CF
:10915000D8460000DC460000E0460000E44600007F
:10916000E8460000EC460000F0460000F44600002F
:10917000F8460000FC4600000047000004470000DD
:10918000084700000C47000010470000144700008B
:10919000184700001C47000020470000244700003B
:1091A000284700002C4700003047000034470000EB
:1091B000384700003C47000040470000444700009B
:1091C000484700004C47000050470000544700004B
:1091D000584700005C4700006047000064470000FB
:1091E000684700006C4700007047000074470000AB
:1091F000784700007C47000080470000844700005B
:10920000884700008C47000090470000944700000A
:10921000984700009C470000A0470000A4470000BA
:10922000A8470000AC470000B0470000B44700006A
:10923000B8470000BC470000C0470000C44700001A
:10924000C8470000CC470000D0470000D4470000CA
:10925000D8470000DC470000E0470000E44700007A
:10926000E8470000EC470000F0470000F44700002A
:10927000F8470000FC4700000048000004480000D8
:10928000084800000C480000104800001448000086
:10929000184800001C480000204800002448000036
:1092A000284800002C4800003048000034480000E6
:1092B000384800003C480000404800004448000096
:1092C000484800004C480000504800005448000046
:1092D000584800005C4800006048000064480000F6
:1092E000684800006C4800007048000074480000A6
:1092F000784800007C480000804800008448000056
:10930000884800008C480000904800009448000005
:10931000984800009C480000A0480000A4480000B5
:10932000A8480000AC480000B0480000B448000065
:10933000B8480000BC480000C0480000C448000015
:10934000C8480000CC480000D0480000D4480000C5
:10935000D8480000DC480000E0480000E448000075
:10936000E8480000EC480000F0480000F448000025
:10937000F8480000FC4800000049000004490000D3
:10938000084900000C490000104900001449000081
:10939000184900001C490000204900002449000031
:1093A000284900002C4900003049000034490000E1
:1093B000384900003C490000404900004449000091
:1093C000484900004C490000504900005449000041
:1093D000584900005C4900006049000064490000F1
:1093E000684900006C4900007049000074490000A1
:1093F000784900007C490000804900008449000051
:10940000884900008C490000904900009449000000
:10941000984900009C490000A0490000A4490000B0
:10942000A8490000AC490000B0490000B449000060
:10943000B8490000BC490000C0490000C449000010
:10944000C8490000CC490000D0490000D4490000C0
:10945000D8490000DC490000E0490000E449000070
:10946000E8490000EC490000F0490000F449000020
:10947000F8490000FC490000004A0000044A0000CE
:10948000084A00000C4A0000104A0000144A00007C
:10949000184A00001C4A0000204A0000244A00002C
:1094A000284A00002C4A0000304A0000344A0000DC
:1094B000384A00003C4A0000404A0000444A00008C
:1094C000484A00004C4A0000504A0000544A00003C
:1094D000584A00005C4A0000604A0000644A0000EC
:1094E000684A00006C4A0000704A0000744A00009C
:1094F000784A00007C4A0000804A0000844A00004C
:10950000884A00008C4A0000904A0000944A0000FB
:10951000984A00009C4A0000A04A0000A44A0000AB
:10952000A84A0000AC4A0000B04A0000B44A00005B
:10953000B84A0000BC4A0000C04A0000C44A00000B
:10954000C84A0000CC4A0000D04A0000D44A0000BB
:10955000D84A0000DC4A0000E04A0000E44A00006B
:10956000E84A0000EC4A0000F04A0000F44A00001B
:10957000F84A0000FC4A0000004B0000044B0000C9
:10958000084B00000C4B0000104B0000144B000077
:10959000184B00001C4B0000204B0000244B000027
:1095A000284B00002C4B0000304B0000344B0000D7
:1095B000384B00003C4B0000404B0000444B000087
:1095C000484B00004C4B0000504B0000544B000037
:1095D000584B00005C4B0000604B0000644B0000E7
:1095E000684B00006C4B0000704B0000744B000097
:1095F000784B00007C4B0000804B0000844B000047
:10960000884B00008C4B0000904B0000944B0000F6
:10961000984B00009C4B0000A04B0000A44B0000A6
:10962000A84B0000AC4B0000B04B0000B44B000056
:10963000B84B0000BC4B0000C04B0000C44B000006
:10964000C84B0000CC4B0000D04B0000D44B0000B6
:10965000D84B0000DC4B0000E04B0000E44B000066
:10966000E84B0000EC4B0000F04B0000F44B000016
:10967000F84B0000FC4B0000004C0000044C0000C4
:10968000084C00000C4C0000104C0000144C000072
:10969000184C00001C4C0000204C0000244C000022
:1096A000284C00002C4C0000304C0000344C0000D2
:1096B000384C00003C4C0000404C0000444C000082
:1096C000484C00004C4C0000504C0000544C000032
:1096D000584C00005C4C0000604C0000644C0000E2
:1096E000684C00006C4C0000704C0000744C000092
:1096F000784C00007C4C0000804C0000844C000042
:10970000884C00008C4C0000904C0000944C0000F1
:10971000984C00009C4C0000A04C0000A44C0000A1
:10972000A84C0000AC4C0000B04C0000B44C000051
:10973000B84C0000BC4C0000C04C0000C44C000001
:10974000C84C0000CC4C0000D04C0000D44C0000B1
:10975000D84C0000DC4C0000E04C0000E44C000061
:10976000E84C0000EC4C0000F04C0000F44C000011
:10977000F84C0000FC4C0000004D0000044D0000BF
:10978000084D00000C4D0000104D0000144D00006D
:10979000184D00001C4D0000204D0000244D00001D
:1097A000284D00002C4D0000304D0000344D0000CD
:1097B000384D00003C4D0000404D0000444D00007D
:1097C000484D00004C4D0000504D0000544D00002D
:1097D000584D00005C4D0000604D0000644D0000DD
:1097E000684D00006C4D0000704D0000744D00008D
:1097F000784D00007C4D0000804D0000844D00003D
:10980000884D00008C4D0000904D0000944D0000EC
:10981000984D00009C4D0000A04D0000A44D00009C
:10982000A84D0000AC4D0000B04D0000B44D00004C
:10983000B84D0000BC4D0000C04D0000C44D0000FC
:10984000C84D0000CC4D0000D04D0000D44D0000AC
:10985000D84D0000DC4D0000E04D0000E44D00005C
:10986000E84D0000EC4D0000F04D0000F44D00000C
:10987000F84D0000FC4D0000004E0000044E0000BA
:10988000084E00000C4E0000104E0000144E000068
:10989000184E00001C4E0000204E0000244E000018
:1098A000284E00002C4E0000304E0000344E0000C8
:1098B000384E00003C4E0000404E0000444E000078
:1098C000484E00004C4E0000504E0000544E000028
:1098D000584E00005C4E0000604E0000644E0000D8
:1098E000684E00006C4E0000704E0000744E000088
:1098F000784E00007C4E0000804E0000844E000038
:10990000884E00008C4E0000904E0000944E0000E7
:10991000984E00009C4E0000A04E0000A44E000097
:10992000A84E0000AC4E0000B04E0000B44E000047
:10993000B84E0000BC4E0000C04E0000C44E0000F7
:10994000C84E0000CC4E0000D04E0000D44E0000A7
:10995000D84E0000DC4E0000E04E0000E44E000057
:10996000E84E0000EC4E0000F04E0000F44E000007
:10997000F84E0000FC4E0000004F0000044F0000B5
:10998000084F00000C4F0000104F0000144F000063
:10999000184F00001C4F0000204F0000244F000013
:1099A000284F00002C4F0000304F0000344F0000C3
:1099B000384F00003C4F0000404F0000444F000073
:1099C000484F00004C4F0000504F0000544F000023
:1099D000584F00005C4F0000604F0000644F0000D3
:1099E000684F00006C4F0000704F0000744F000083
:1099F000784F00007C4F0000804F0000844F000033
:109A0000884F00008C4F0000904F0000944F0000E2
:109A1000984F00009C4F0000A04F0000A44F000092
:109A2000A84F0000AC4F0000B04F0000B44F000042
:109A3000B84F0000BC4F0000C04F0000C44F0000F2
:109A4000C84F0000CC4F0000D04F0000D44F0000A2
:109A5000D84F0000DC4F0000E04F0000E44F000052
:109A6000E84F0000EC4F0000F04F0000F44F000002
:109A7000F84F0000FC4F00000050000004500000B0
:109A8000085000000C50000010500000145000005E
:109A9000185000001C50000020500000245000000E
:109AA000285000002C5000003050000034500000BE
:109AB000385000003C50000040500000445000006E
:109AC000485000004C50000050500000545000001E
:109AD000585000005C5000006050000064500000CE
:109AE000685000006C50000070500000745000007E
:109AF000785000007C50000080500000845000002E
:109B0000885000008C5000009050000094500000DD
:109B1000985000009C500000A0500000A45000008D
:109B2000A8500000AC500000B0500000B45000003D
:109B3000B8500000BC500000C0500000C4500000ED
:109B4000C8500000CC500000D0500000D45000009D
:109B5000D8500000DC500000E0500000E45000004D
:109B6000E8500000EC500000F0500000F4500000FD
:109B7000F8500000FC5000000051000004510000AB
:109B8000085100000C510000105100001451000059
:109B9000185100001C510000205100002451000009
:109BA000285100002C5100003051000034510000B9
:109BB000385100003C510000405100004451000069
:109BC000485100004C510000505100005451000019
:109BD000585100005C5100006051000064510000C9
:109BE000685100006C510000705100007451000079
:109BF000785100007C510000805100008451000029
:109C0000885100008C5100009051000094510000D8
:109C1000985100009C510000A0510000A451000088
:109C2000A8510000AC510000B0510000B451000038
:109C3000B8510000BC510000C0510000C4510000E8
:109C4000C8510000CC510000D0510000D451000098
:109C5000D8510000DC510000E0510000E451000048
:109C6000E8510000EC510000F0510000F4510000F8
:109C7000F8510000FC5100000052000004520000A6
:109C8000085200000C520000105200001452000054
:109C9000185200001C520000205200002452000004
:109CA000285200002C5200003052000034520000B4
:109CB000385200003C520000405200004452000064
:109CC000485200004C520000505200005452000014
:109CD000585200005C5200006052000064520000C4
:109CE000685200006C520000705200007452000074
:109CF000785200007C520000805200008452000024
:109D0000885200008C5200009052000094520000D3
:109D1000985200009C520000A0520000A452000083
:109D2000A8520000AC520000B0520000B452000033
:109D3000B8520000BC520000C0520000C4520000E3
:109D4000C8520000CC520000D0520000D452000093
:109D5000D8520000DC520000E0520000E452000043
:109D6000E8520000EC520000F0520000F4520000F3
:109D7000F8520000FC5200000053000004530000A1
:109D8000085300000C53000010530000145300004F
:109D9000185300001C5300002053000024530000FF
:109DA000285300002C5300003053000034530000AF
:109DB000385300003C53000040530000445300005F
:109DC000485300004C53000050530000545300000F
:109DD000585300005C5300006053000064530000BF
:109DE000685300006C53000070530000745300006F
:109DF000785300007C53000080530000845300001F
:109E0000885300008C5300009053000094530000CE
:109E1000985300009C530000A0530000A45300007E
:109E2000A8530000AC530000B0530000B45300002E
:109E3000B8530000BC530000C0530000C4530000DE
:109E4000C8530000CC530000D0530000D45300008E
:109E5000D8530000DC530000E0530000E45300003E
:109E6000E8530000EC530000F0530000F4530000EE
:109E7000F8530000FC53000000540000045400009C
:109E8000085400000C54000010540000145400004A
:109E9000185400001C5400002054000024540000FA
:109EA000285400002C5400003054000034540000AA
:109EB000385400003C54000040540000445400005A
:109EC000485400004C54000050540000545400000A
:109ED000585400005C5400006054000064540000BA
:109EE000685400006C54000070540000745400006A
:109EF000785400007C54000080540000845400001A
:109F0000885400008C5400009054000094540000C9
:109F1000985400009C540000A0540000A454000079
:109F2000A8540000AC540000B0540000B454000029
:109F3000B8540000BC540000C0540000C4540000D9
:109F4000C8540000CC540000D0540000D454000089
:109F5000D8540000DC540000E0540000E454000039
:109F6000E8540000EC540000F0540000F4540000E9
:109F7000F8540000FC540000005500000455000097
:109F8000085500000C550000105500001455000045
:109F9000185500001C5500002055000024550000F5
:109FA000285500002C5500003055000034550000A5
:109FB000385500003C550000405500004455000055
:109FC000485500004C550000505500005455000005
:109FD000585500005C5500006055000064550000B5
:109FE000685500006C550000705500007455000065
:109FF000785500007C550000805500008455000015
:10A00000885500008C5500009055000094550000C4
:10A01000985500009C550000A0550000A455000074
:10A02000A8550000AC550000B0550000B455000024
:10A03000B8550000BC550000C0550000C4550000D4
:10A04000C8550000CC550000D0550000D455000084
:10A05000D8550000DC550000E0550000E455000034
:10A06000E8550000EC550000F0550000F4550000E4
:10A07000F8550000FC550000005600000456000092
:10A08000085600000C560000105600001456000040
:10A09000185600001C5600002056000024560000F0
:10A0A000285600002C5600003056000034560000A0
:10A0B000385600003C560000405600004456000050
:10A0C000485600004C560000505600005456000000
:10A0D000585600005C5600006056000064560000B0
:10A0E000685600006C560000705600007456000060
:10A0F000785600007C560000805600008456000010
:10A10000885600008C5600009056000094560000BF
:10A11000985600009C560000A0560000A45600006F
:10A12000A8560000AC560000B0560000B45600001F
:10A13000B8560000BC560000C0560000C4560000CF
:10A14000C8560000CC560000D0560000D45600007F
:10A15000D8560000DC560000E0560000E45600002F
:10A16000E8560000EC560000F0560000F4560000DF
:10A17000F8560000FC56000000570000045700008D
:10A18000085700000C57000010570000145700003B
:10A19000185700001C5700002057000024570000EB
:10A1A000285700002C57000030570000345700009B
:10A1B000385700003C57000040570000445700004B
:10A1C000485700004C5700005057000054570000FB
:10A1D000585700005C5700006057000064570000AB
:10A1E000685700006C57000070570000745700005B
:10A1F000785700007C57000080570000845700000B
:10A20000885700008C5700009057000094570000BA
:10A21000985700009C570000A0570000A45700006A
:10A22000A8570000AC570000B0570000B45700001A
:10A23000B8570000BC570000C0570000C4570000CA
:10A24000C8570000CC570000D0570000D45700007A
:10A25000D8570000DC570000E0570000E45700002A
:10A26000E8570000EC570000F0570000F4570000DA
:10A27000F8570000FC570000005800000458000088
:10A28000085800000C580000105800001458000036
:10A29000185800001C5800002058000024580000E6
:10A2A000285800002C580000305800003458000096
:10A2B000385800003C580000405800004458000046
:10A2C000485800004C5800005058000054580000F6
:10A2D000585800005C5800006058000064580000A6
:10A2E000685800006C580000705800007458000056
:10A2F000785800007C580000805800008458000006
:10A30000885800008C5800009058000094580000B5
:10A31000985800009C580000A0580000A458000065
:10A32000A8580000AC580000B0580000B458000015
:10A33000B8580000BC580000C0580000C4580000C5
:10A34000C8580000CC580000D0580000D458000075
:10A35000D8580000DC580000E0580000E458000025
:10A36000E8580000EC580000F0580000F4580000D5
:10A37000F8580000FC580000005900000459000083
:10A38000085900000C590000105900001459000031
:10A39000185900001C5900002059000024590000E1
:10A3A000285900002C590000305900003459000091
:10A3B000385900003C590000405900004459000041
:10A3C000485900004C5900005059000054590000F1
:10A3D000585900005C5900006059000064590000A1
:10A3E000685900006C590000705900007459000051
:10A3F000785900007C590000805900008459000001
:10A40000885900008C5900009059000094590000B0
:10A41000985900009C590000A0590000A459000060
:10A42000A8590000AC590000B0590000B459000010
:10A43000B8590000BC590000C0590000C4590000C0
:10A44000C8590000CC590000D0590000D459000070
:10A45000D8590000DC590000E0590000E459000020
:10A46000E8590000EC590000F0590000F4590000D0
:10A47000F8590000FC590000005A0000045A00007E
:10A48000085A00000C5A0000105A0000145A00002C
:10A49000185A00001C5A0000205A0000245A0000DC
:10A4A000285A00002C5A0000305A0000345A00008C
:10A4B000385A00003C5A0000405A0000445A00003C
:10A4C000485A00004C5A0000505A0000545A0000EC
:10A4D000585A00005C5A0000605A0000645A00009C
:10A4E000685A00006C5A0000705A0000745A00004C
:10A4F000785A00007C5A0000805A0000845A0000FC
:10A50000885A00008C5A0000905A0000945A0000AB
:10A51000985A00009C5A0000A05A0000A45A00005B
:10A52000A85A0000AC5A0000B05A0000B45A00000B
:10A53000B85A0000BC5A0000C05A0000C45A0000BB
:10A54000C85A0000CC5A0000D05A0000D45A00006B
:10A55000D85A0000DC5A0000E05A0000E45A00001B
:10A56000E85A0000EC5A0000F05A0000F45A0000CB
:10A57000F85A0000FC5A0000005B0000045B000079
:10A58000085B00000C5B0000105B0000145B000027
:10A59000185B00001C5B0000205B0000245B0000D7
:10A5A000285B00002C5B0000305B0000345B000087
:10A5B000385B00003C5B0000405B0000445B000037
:10A5C000485B00004C5B0000505B0000545B0000E7
:10A5D000585B00005C5B0000605B0000645B000097
:10A5E000685B00006C5B0000705B0000745B000047
:10A5F000785B00007C5B0000805B0000845B0000F7
:10A60000885B00008C5B0000905B0000945B0000A6
:10A61000985B00009C5B0000A05B0000A45B000056
:10A62000A85B0000AC5B0000B05B0000B45B000006
:10A63000B85B0000BC5B0000C05B0000C45B0000B6
:10A64000C85B0000CC5B0000D05B0000D45B000066
:10A65000D85B0000DC5B0000E05B0000E45B000016
:10A66000E85B0000EC5B0000F05B0000F45B0000C6
:10A67000F85B0000FC5B0000005C0000045C000074
:10A68000085C00000C5C0000105C0000145C000022
:10A69000185C00001C5C0000205C0000245C0000D2
:10A6A000285C00002C5C0000305C0000345C000082
:10A6B000385C00003C5C0000405C0000445C000032
:10A6C000485C00004C5C0000505C0000545C0000E2
:10A6D000585C00005C5C0000605C0000645C000092
:10A6E000685C00006C5C0000705C0000745C000042
:10A6F000785C00007C5C0000805C0000845C0000F2
:10A70000885C00008C5C0000905C0000945C0000A1
:10A71000985C00009C5C0000A05C0000A45C000051
:10A72000A85C0000AC5C0000B05C0000B45C000001
:10A73000B85C0000BC5C0000C05C0000C45C0000B1
:10A74000C85C0000CC5C0000D05C0000D45C000061
:10A75000D85C0000DC5C0000E05C0000E45C000011
:10A76000E85C0000EC5C0000F05C0000F45C0000C1
:10A77000F85C0000FC5C0000005D0000045D00006F
:10A78000085D00000C5D0000105D0000145D00001D
:10A79000185D00001C5D0000205D0000245D0000CD
:10A7A000285D00002C5D0000305D0000345D00007D
:10A7B000385D00003C5D0000405D0000445D00002D
:10A7C000485D00004C5D0000505D0000545D0000DD
:10A7D000585D00005C5D0000605D0000645D00008D
:10A7E000685D00006C5D0000705D0000745D00003D
:10A7F000785D00007C5D0000805D0000845D0000ED
:10A80000885D00008C5D0000905D0000945D00009C
:10A81000985D00009C5D0000A05D0000A45D00004C
:10A82000A85D0000AC5D0000B05D0000B45D0000FC
:10A83000B85D0000BC5D0000C05D0000C45D0000AC
:10A84000C85D0000CC5D0000D05D0000D45D00005C
:10A85000D85D0000DC5D0000E05D0000E45D00000C
:10A86000E85D0000EC5D0000F05D0000F45D0000BC
:10A87000F85D0000FC5D0000005E0000045E00006A
:10A88000085E00000C5E0000105E0000145E000018
:10A89000185E00001C5E0000205E0000245E0000C8
:10A8A000285E00002C5E0000305E0000345E000078
:10A8B000385E00003C5E0000405E0000445E000028
:10A8C000485E00004C5E0000505E0000545E0000D8
:10A8D000585E00005C5E0000605E0000645E000088
:10A8E000685E00006C5E0000705E0000745E000038
:10A8F000785E00007C5E0000805E0000845E0000E8
:10A90000885E00008C5E0000905E0000945E000097
:10A91000985E00009C5E0000A05E0000A45E000047
:10A92000A85E0000AC5E0000B05E0000B45E0000F7
:10A93000B85E0000BC5E0000C05E0000C45E0000A7
:10A94000C85E0000CC5E0000D05E0000D45E000057
:10A95000D85E0000DC5E0000E05E0000E45E000007
:10A96000E85E0000EC5E0000F05E0000F45E0000B7
:10A97000F85E0000FC5E0000005F0000045F000065
:10A98000085F00000C5F0000105F0000145F000013
:10A99000185F00001C5F0000205F0000245F0000C3
:10A9A000285F00002C5F0000305F0000345F000073
:10A9B000385F00003C5F0000405F0000445F000023
:10A9C000485F00004C5F0000505F0000545F0000D3
:10A9D000585F00005C5F0000605F0000645F000083
:10A9E000685F00006C5F0000705F0000745F000033
:10A9F000785F00007C5F0000805F0000845F0000E3
:10AA0000885F00008C5F0000905F0000945F000092
:10AA1000985F00009C5F0000A05F0000A45F000042
:10AA2000A85F0000AC5F0000B05F0000B45F0000F2
:10AA3000B85F0000BC5F0000C05F0000C45F0000A2
:10AA4000C85F0000CC5F0000D05F0000D45F000052
:10AA5000D85F0000DC5F0000E05F0000E45F000002
:10AA6000E85F0000EC5F0000F05F0000F45F0000B2
:10AA7000F85F0000FC5F0000006000000460000060
:10AA8000086000000C60000010600000146000000E
:10AA9000186000001C6000002060000024600000BE
:10AAA000286000002C60000030600000346000006E
:10AAB000386000003C60000040600000446000001E
:10AAC000486000004C6000005060000054600000CE
:10AAD000586000005C60000060600000646000007E
:10AAE000686000006C60000070600000746000002E
:10AAF000786000007C6000008060000084600000DE
:10AB0000886000008C60000090600000946000008D
:10AB1000986000009C600000A0600000A46000003D
:10AB2000A8600000AC600000B0600000B4600000ED
:10AB3000B8600000BC600000C0600000C46000009D
:10AB4000C8600000CC600000D0600000D46000004D
:10AB5000D8600000DC600000E0600000E4600000FD
:10AB6000E8600000EC600000F0600000F4600000AD
:10AB7000F8600000FC60000000610000046100005B
:10AB8000086100000C610000106100001461000009
:10AB9000186100001C6100002061000024610000B9
:10ABA000286100002C610000306100003461000069
:10ABB000386100003C610000406100004461000019
:10ABC000486100004C6100005061000054610000C9
:10ABD000586100005C610000606100006461000079
:10ABE000686100006C610000706100007461000029
:10ABF000786100007C6100008061000084610000D9
:10AC0000886100008C610000906100009461000088
:10AC1000986100009C610000A0610000A461000038
:10AC2000A8610000AC610000B0610000B4610000E8
:10AC3000B8610000BC610000C0610000C461000098
:10AC4000C8610000CC610000D0610000D461000048
:10AC5000D8610000DC610000E0610000E4610000F8
:10AC6000E8610000EC610000F0610000F4610000A8
:10AC7000F8610000FC610000006200000462000056
:10AC8000086200000C620000106200001462000004
:10AC9000186200001C6200002062000024620000B4
:10ACA000286200002C620000306200003462000064
:10ACB000386200003C620000406200004462000014
:10ACC000486200004C6200005062000054620000C4
:10ACD000586200005C620000606200006462000074
:10ACE000686200006C620000706200007462000024
:10ACF000786200007C6200008062000084620000D4
:10AD0000886200008C620000906200009462000083
:10AD1000986200009C620000A0620000A462000033
:10AD2000A8620000AC620000B0620000B4620000E3
:10AD3000B8620000BC620000C0620000C462000093
:10AD4000C8620000CC620000D0620000D462000043
:10AD5000D8620000DC620000E0620000E4620000F3
:10AD6000E8620000EC620000F0620000F4620000A3
:10AD7000F8620000FC620000006300000463000051
:10AD8000086300000C6300001063000014630000FF
:10AD9000186300001C6300002063000024630000AF
:10ADA000286300002C63000030630000346300005F
:10ADB000386300003C63000040630000446300000F
:10ADC000486300004C6300005063000054630000BF
:10ADD000586300005C63000060630000646300006F
:10ADE000686300006C63000070630000746300001F
:10ADF000786300007C6300008063000084630000CF
:10AE0000886300008C63000090630000946300007E
:10AE1000986300009C630000A0630000A46300002E
:10AE2000A8630000AC630000B0630000B4630000DE
:10AE3000B8630000BC630000C0630000C46300008E
:10AE4000C8630000CC630000D0630000D46300003E
:10AE5000D8630000DC630000E0630000E4630000EE
:10AE6000E8630000EC630000F0630000F46300009E
:10AE7000F8630000FC63000000640000046400004C
:10AE8000086400000C6400001064000014640000FA
:10AE9000186400001C6400002064000024640000AA
:10AEA000286400002C64000030640000346400005A
:10AEB000386400003C64000040640000446400000A
:10AEC000486400004C6400005064000054640000BA
:10AED000586400005C64000060640000646400006A
:10AEE000686400006C64000070640000746400001A
:10AEF000786400007C6400008064000084640000CA
:10AF0000886400008C640000906400009464000079
:10AF1000986400009C640000A0640000A464000029
:10AF2000A8640000AC640000B0640000B4640000D9
:10AF3000B8640000BC640000C0640000C464000089
:10AF4000C8640000CC640000D0640000D464000039
:10AF5000D8640000DC640000E0640000E4640000E9
:10AF6000E8640000EC640000F0640000F464000099
:10AF7000F8640000FC640000006500000465000047
:10AF8000086500000C6500001065000014650000F5
:10AF9000186500001C6500002065000024650000A5
:10AFA000286500002C650000306500003465000055
:10AFB000386500003C650000406500004465000005
:10AFC000486500004C6500005065000054650000B5
:10AFD000586500005C650000606500006465000065
:10AFE000686500006C650000706500007465000015
:10AFF000786500007C6500008065000084650000C5
:10B00000886500008C650000906500009465000074
:10B01000986500009C650000A0650000A465000024
:10B02000A8650000AC650000B0650000B4650000D4
:10B03000B8650000BC650000C0650000C465000084
:10B04000C8650000CC650000D0650000D465000034
:10B05000D8650000DC650000E0650000E4650000E4
:10B06000E8650000EC650000F0650000F465000094
:10B07000F8650000FC650000006600000466000042
:10B08000086600000C6600001066000014660000F0
:10B09000186600001C6600002066000024660000A0
:10B0A000286600002C660000306600003466000050
:10B0B000386600003C660000406600004466000000
:10B0C000486600004C6600005066000054660000B0
:10B0D000586600005C660000606600006466000060
:10B0E000686600006C660000706600007466000010
:10B0F000786600007C6600008066000084660000C0
:10B10000886600008C66000090660000946600006F
:10B11000986600009C660000A0660000A46600001F
:10B12000A8660000AC660000B0660000B4660000CF
:10B13000B8660000BC660000C0660000C46600007F
:10B14000C8660000CC660000D0660000D46600002F
:10B15000D8660000DC660000E0660000E4660000DF
:10B16000E8660000EC660000F0660000F46600008F
:10B17000F8660000FC66000000670000046700003D
:10B18000086700000C6700001067000014670000EB
:10B19000186700001C67000020670000246700009B
:10B1A000286700002C67000030670000346700004B
:10B1B000386700003C6700004067000044670000FB
:10B1C000486700004C6700005067000054670000AB
:10B1D000586700005C67000060670000646700005B
:10B1E000686700006C67000070670000746700000B
:10B1F000786700007C6700008067000084670000BB
:10B20000886700008C67000090670000946700006A
:10B21000986700009C670000A0670000A46700001A
:10B22000A8670000AC670000B0670000B4670000CA
:10B23000B8670000BC670000C0670000C46700007A
:10B24000C8670000CC670000D0670000D46700002A
:10B25000D8670000DC670000E0670000E4670000DA
:10B26000E8670000EC670000F0670000F46700008A
:10B27000F8670000FC670000006800000468000038
:10B28000086800000C6800001068000014680000E6
:10B29000186800001C680000206800002468000096
:10B2A000286800002C680000306800003468000046
:10B2B000386800003C6800004068000044680000F6
:10B2C000486800004C6800005068000054680000A6
:10B2D000586800005C680000606800006468000056
:10B2E000686800006C680000706800007468000006
:10B2F000786800007C6800008068000084680000B6
:10B30000886800008C680000906800009468000065
:10B31000986800009C680000A0680000A468000015
:10B32000A8680000AC680000B0680000B4680000C5
:10B33000B8680000BC680000C0680000C468000075
:10B34000C8680000CC680000D0680000D468000025
:10B35000D8680000DC680000E0680000E4680000D5
:10B36000E8680000EC680000F0680000F468000085
:10B37000F8680000FC680000006900000469000033
:10B38000086900000C6900001069000014690000E1
:10B39000186900001C690000206900002469000091
:10B3A000286900002C690000306900003469000041
:10B3B000386900003C6900004069000044690000F1
:10B3C000486900004C6900005069000054690000A1
:10B3D000586900005C690000606900006469000051
:10B3E000686900006C690000706900007469000001
:10B3F000786900007C6900008069000084690000B1
:10B40000886900008C690000906900009469000060
:10B41000986900009C690000A0690000A469000010
:10B42000A8690000AC690000B0690000B4690000C0
:10B43000B8690000BC690000C0690000C469000070
:10B44000C8690000CC690000D0690000D469000020
:10B45000D8690000DC690000E0690000E4690000D0
:10B46000E8690000EC690000F0690000F469000080
:10B47000F8690000FC690000006A0000046A00002E
:10B48000086A00000C6A0000106A0000146A0000DC
:10B49000186A00001C6A0000206A0000246A00008C
:10B4A000286A00002C6A0000306A0000346A00003C
:10B4B000386A00003C6A0000406A0000446A0000EC
:10B4C000486A00004C6A0000506A0000546A00009C
:10B4D000586A00005C6A0000606A0000646A00004C
:10B4E000686A00006C6A0000706A0000746A0000FC
:10B4F000786A00007C6A0000806A0000846A0000AC
:10B50000886A00008C6A0000906A0000946A00005B
:10B51000986A00009C6A0000A06A0000A46A00000B
:10B52000A86A0000AC6A0000B06A0000B46A0000BB
:10B53000B86A0000BC6A0000C06A0000C46A00006B
:10B54000C86A0000CC6A0000D06A0000D46A00001B
:10B55000D86A0000DC6A0000E06A0000E46A0000CB
:10B56000E86A0000EC6A0000F06A0000F46A00007B
:10B57000F86A0000FC6A0000006B0000046B000029
:10B58000086B00000C6B0000106B0000146B0000D7
:10B59000186B00001C6B0000206B0000246B000087
:10B5A000286B00002C6B0000306B0000346B000037
:10B5B000386B00003C6B0000406B0000446B0000E7
:10B5C000486B00004C6B0000506B0000546B000097
:10B5D000586B00005C6B0000606B0000646B000047
:10B5E000686B00006C6B0000706B0000746B0000F7
:10B5F000786B00007C6B0000806B0000846B0000A7
:10B60000886B00008C6B0000906B0000946B000056
:10B61000986B00009C6B0000A06B0000A46B000006
:10B62000A86B0000AC6B0000B06B0000B46B0000B6
:10B63000B86B0000BC6B0000C06B0000C46B000066
:10B64000C86B0000CC6B0000D06B0000D46B000016
:10B65000D86B0000DC6B0000E06B0000E46B0000C6
:10B66000E86B0000EC6B0000F06B0000F46B000076
:10B67000F86B0000FC6B0000006C0000046C000024
:10B68000086C00000C6C0000106C0000146C0000D2
:10B69000186C00001C6C0000206C0000246C000082
:10B6A000286C00002C6C0000306C0000346C000032
:10B6B000386C00003C6C0000406C0000446C0000E2
:10B6C000486C00004C6C0000506C0000546C000092
:10B6D000586C00005C6C0000606C0000646C000042
:10B6E000686C00006C6C0000706C0000746C0000F2
:10B6F000786C00007C6C0000806C0000846C0000A2
:10B70000886C00008C6C0000906C0000946C000051
:10B71000986C00009C6C0000A06C0000A46C000001
:10B72000A86C0000AC6C0000B06C0000B46C0000B1
:10B73000B86C0000BC6C0000C06C0000C46C000061
:10B74000C86C0000CC6C0000D06C0000D46C000011
:10B75000D86C0000DC6C0000E06C0000E46C0000C1
:10B76000E86C0000EC6C0000F06C0000F46C000071
:10B77000F86C0000FC6C0000006D0000046D00001F
:10B78000086D00000C6D0000106D0000146D0000CD
:10B79000186D00001C6D0000206D0000246D00007D
:10B7A000286D00002C6D0000306D0000346D00002D
:10B7B000386D00003C6D0000406D0000446D0000DD
:10B7C000486D00004C6D0000506D0000546D00008D
:10B7D000586D00005C6D0000606D0000646D00003D
:10B7E000686D00006C6D0000706D0000746D0000ED
:10B7F000786D00007C6D0000806D0000846D00009D
:10B80000886D00008C6D0000906D0000946D00004C
:10B81000986D00009C6D0000A06D0000A46D0000FC
:10B82000A86D0000AC6D0000B06D0000B46D0000AC
:10B83000B86D0000BC6D0000C06D0000C46D00005C
:10B84000C86D0000CC6D0000D06D0000D46D00000C
:10B85000D86D0000DC6D0000E06D0000E46D0000BC
:10B86000E86D0000EC6D0000F06D0000F46D00006C
:10B87000F86D0000FC6D0000006E0000046E00001A
:10B88000086E00000C6E0000106E0000146E0000C8
:10B89000186E00001C6E0000206E0000246E000078
:10B8A000286E00002C6E0000306E0000346E000028
:10B8B000386E00003C6E0000406E0000446E0000D8
:10B8C000486E00004C6E0000506E0000546E000088
:10B8D000586E00005C6E0000606E0000646E000038
:10B8E000686E00006C6E0000706E0000746E0000E8
:10B8F000786E00007C6E0000806E0000846E000098
:10B90000886E00008C6E0000906E0000946E000047
:10B91000986E00009C6E0000A06E0000A46E0000F7
:10B92000A86E0000AC6E0000B06E0000B46E0000A7
:10B93000B86E0000BC6E0000C06E0000C46E000057
:10B94000C86E0000CC6E0000D06E0000D46E000007
:10B95000D86E0000DC6E0000E06E0000E46E0000B7
:10B96000E86E0000EC6E0000F06E0000F46E000067
:10B97000F86E0000FC6E0000006F0000046F000015
:10B98000086F00000C6F0000106F0000146F0000C3
:10B99000186F00001C6F0000206F0000246F000073
:10B9A000286F00002C6F0000306F0000346F000023
:10B9B000386F00003C6F0000406F0000446F0000D3
:10B9C000486F00004C6F0000506F0000546F000083
:10B9D000586F00005C6F0000606F0000646F000033
:10B9E000686F00006C6F0000706F0000746F0000E3
:10B9F000786F00007C6F0000806F0000846F000093
:10BA0000886F00008C6F0000906F0000946F000042
:10BA1000986F00009C6F0000A06F0000A46F0000F2
:10BA2000A86F0000AC6F0000B06F0000B46F0000A2
:10BA3000B86F0000BC6F0000C06F0000C46F000052
:10BA4000C86F0000CC6F0000D06F0000D46F000002
:10BA5000D86F0000DC6F0000E06F0000E46F0000B2
:10BA6000E86F0000EC6F0000F06F0000F46F000062
:10BA7000F86F0000FC6F0000007000000470000010
:10BA8000087000000C7000001070000014700000BE
:10BA9000187000001C70000020700000247000006E
:10BAA000287000002C70000030700000347000001E
:10BAB000387000003C7000004070000044700000CE
:10BAC000487000004C70000050700000547000007E
:10BAD000587000005C70000060700000647000002E
:10BAE000687000006C7000007070000074700000DE
:10BAF000787000007C70000080700000847000008E
:10BB0000887000008C70000090700000947000003D
:10BB1000987000009C700000A0700000A4700000ED
:10BB2000A8700000AC700000B0700000B47000009D
:10BB3000B8700000BC700000C0700000C47000004D
:10BB4000C8700000CC700000D0700000D4700000FD
:10BB5000D8700000DC700000E0700000E4700000AD
:10BB6000E8700000EC700000F0700000F47000005D
:10BB7000F8700000FC70000000710000047100000B
:10BB8000087100000C7100001071000014710000B9
:10BB9000187100001C710000207100002471000069
:10BBA000287100002C710000307100003471000019
:10BBB000387100003C7100004071000044710000C9
:10BBC000487100004C710000507100005471000079
:10BBD000587100005C710000607100006471000029
:10BBE000687100006C7100007071000074710000D9
:10BBF000787100007C710000807100008471000089
:10BC0000887100008C710000907100009471000038
:10BC1000987100009C710000A0710000A4710000E8
:10BC2000A8710000AC710000B0710000B471000098
:10BC3000B8710000BC710000C0710000C471000048
:10BC4000C8710000CC710000D0710000D4710000F8
:10BC5000D8710000DC710000E0710000E4710000A8
:10BC6000E8710000EC710000F0710000F471000058
:10BC7000F8710000FC710000007200000472000006
:10BC8000087200000C7200001072000014720000B4
:10BC9000187200001C720000207200002472000064
:10BCA000287200002C720000307200003472000014
:10BCB000387200003C7200004072000044720000C4
:10BCC000487200004C720000507200005472000074
:10BCD000587200005C720000607200006472000024
:10BCE000687200006C7200007072000074720000D4
:10BCF000787200007C720000807200008472000084
:10BD0000887200008C720000907200009472000033
:10BD1000987200009C720000A0720000A4720000E3
:10BD2000A8720000AC720000B0720000B472000093
:10BD3000B8720000BC720000C0720000C472000043
:10BD4000C8720000CC720000D0720000D4720000F3
:10BD5000D8720000DC720000E0720000E4720000A3
:10BD6000E8720000EC720000F0720000F472000053
:10BD7000F8720000FC720000007300000473000001
:10BD8000087300000C7300001073000014730000AF
:10BD9000187300001C73000020730000247300005F
:10BDA000287300002C73000030730000347300000F
:10BDB000387300003C7300004073000044730000BF
:10BDC000487300004C73000050730000547300006F
:10BDD000587300005C73000060730000647300001F
:10BDE000687300006C7300007073000074730000CF
:10BDF000787300007C73000080730000847300007F
:10BE0000887300008C73000090730000947300002E
:10BE1000987300009C730000A0730000A4730000DE
:10BE2000A8730000AC730000B0730000B47300008E
:10BE3000B8730000BC730000C0730000C47300003E
:10BE4000C8730000CC730000D0730000D4730000EE
:10BE5000D8730000DC730000E0730000E47300009E
:10BE6000E8730000EC730000F0730000F47300004E
:10BE7000F8730000FC7300000074000004740000FC
:10BE8000087400000C7400001074000014740000AA
:10BE9000187400001C74000020740000247400005A
:10BEA000287400002C74000030740000347400000A
:10BEB000387400003C7400004074000044740000BA
:10BEC000487400004C74000050740000547400006A
:10BED000587400005C74000060740000647400001A
:10BEE000687400006C7400007074000074740000CA
:10BEF000787400007C74000080740000847400007A
:10BF0000887400008C740000907400009474000029
:10BF1000987400009C740000A0740000A4740000D9
:10BF2000A8740000AC740000B0740000B474000089
:10BF3000B8740000BC740000C0740000C474000039
:10BF4000C8740000CC740000D0740000D4740000E9
:10BF5000D8740000DC740000E0740000E474000099
:10BF6000E8740000EC740000F0740000F474000049
:10BF7000F8740000FC7400000075000004750000F7
:10BF8000087500000C7500001075000014750000A5
:10BF9000187500001C750000207500002475000055
:10BFA000287500002C750000307500003475000005
:10BFB000387500003C7500004075000044750000B5
:10BFC000487500004C750000507500005475000065
:10BFD000587500005C750000607500006475000015
:10BFE000687500006C7500007075000074750000C5
:10BFF000787500007C750000807500008475000075
:10C00000887500008C750000907500009475000024
:10C01000987500009C750000A0750000A4750000D4
:10C02000A8750000AC750000B0750000B475000084
:10C03000B8750000BC750000C0750000C475000034
:10C04000C8750000CC750000D0750000D4750000E4
:10C05000D8750000DC750000E0750000E475000094
:10C06000E8750000EC750000F0750000F475000044
:10C07000F8750000FC7500000076000004760000F2
:10C08000087600000C7600001076000014760000A0
:10C09000187600001C760000207600002476000050
:10C0A000287600002C760000307600003476000000
:10C0B000387600003C7600004076000044760000B0
:10C0C000487600004C760000507600005476000060
:10C0D000587600005C760000607600006476000010
:10C0E000687600006C7600007076000074760000C0
:10C0F000787600007C760000807600008476000070
:10C10000887600008C76000090760000947600001F
:10C11000987600009C760000A0760000A4760000CF
:10C12000A8760000AC760000B0760000B47600007F
:10C13000B8760000BC760000C0760000C47600002F
:10C14000C8760000CC760000D0760000D4760000DF
:10C15000D8760000DC760000E0760000E47600008F
:10C16000E8760000EC760000F0760000F47600003F
:10C17000F8760000FC7600000077000004770000ED
:10C18000087700000C77000010770000147700009B
:10C19000187700001C77000020770000247700004B
:10C1A000287700002C7700003077000034770000FB
:10C1B000387700003C7700004077000044770000AB
:10C1C000487700004C77000050770000547700005B
:10C1D000587700005C77000060770000647700000B
:10C1E000687700006C7700007077000074770000BB
:10C1F000787700007C77000080770000847700006B
:10C20000887700008C77000090770000947700001A
:10C21000987700009C770000A0770000A4770000CA
:10C22000A8770000AC770000B0770000B47700007A
:10C23000B8770000BC770000C0770000C47700002A
:10C24000C8770000CC770000D0770000D4770000DA
:10C25000D8770000DC770000E0770000E47700008A
:10C26000E8770000EC770000F0770000F47700003A
:10C27000F8770000FC7700000078000004780000E8
:10C28000087800000C780000107800001478000096
:10C29000187800001C780000207800002478000046
:10C2A000287800002C7800003078000034780000F6
:10C2B000387800003C7800004078000044780000A6
:10C2C000487800004C780000507800005478000056
:10C2D000587800005C780000607800006478000006
:10C2E000687800006C7800007078000074780000B6
:10C2F000787800007C780000807800008478000066
:10C30000887800008C780000907800009478000015
:10C31000987800009C780000A0780000A4780000C5
:10C32000A8780000AC780000B0780000B478000075
:10C33000B8780000BC780000C0780000C478000025
:10C34000C8780000CC780000D0780000D4780000D5
:10C35000D8780000DC780000E0780000E478000085
:10C36000E8780000EC780000F0780000F478000035
:10C37000F8780000FC7800000079000004790000E3
:10C38000087900000C790000107900001479000091
:10C39000187900001C790000207900002479000041
:10C3A000287900002C7900003079000034790000F1
:10C3B000387900003C7900004079000044790000A1
:10C3C000487900004C790000507900005479000051
:10C3D000587900005C790000607900006479000001
:10C3E000687900006C7900007079000074790000B1
:10C3F000787900007C790000807900008479000061
:10C40000887900008C790000907900009479000010
:10C41000987900009C790000A0790000A4790000C0
:10C42000A8790000AC790000B0790000B479000070
:10C43000B8790000BC790000C0790000C479000020
:10C44000C8790000CC790000D0790000D4790000D0
:10C45000D8790000DC790000E0790000E479000080
:10C46000E8790000EC790000F0790000F479000030
:10C47000F8790000FC790000007A0000047A0000DE
:10C48000087A00000C7A0000107A0000147A00008C
:10C49000187A00001C7A0000207A0000247A00003C
:10C4A000287A00002C7A0000307A0000347A0000EC
:10C4B000387A00003C7A0000407A0000447A00009C
:10C4C000487A00004C7A0000507A0000547A00004C
:10C4D000587A00005C7A0000607A0000647A0000FC
:10C4E000687A00006C7A0000707A0000747A0000AC
:10C4F000787A00007C7A0000807A0000847A00005C
:10C50000887A00008C7A0000907A0000947A00000B
:10C51000987A00009C7A0000A07A0000A47A0000BB
:10C52000A87A0000AC7A0000B07A0000B47A00006B
:10C53000B87A0000BC7A0000C07A0000C47A00001B
:10C54000C87A0000CC7A0000D07A0000D47A0000CB
:10C55000D87A0000DC7A0000E07A0000E47A00007B
:10C56000E87A0000EC7A0000F07A0000F47A00002B
:10C57000F87A0000FC7A0000007B0000047B0000D9
:10C58000087B00000C7B0000107B0000147B000087
:10C59000187B00001C7B0000207B0000247B000037
:10C5A000287B00002C7B0000307B0000347B0000E7
:10C5B000387B00003C7B0000407B0000447B000097
:10C5C000487B00004C7B0000507B0000547B000047
:10C5D000587B00005C7B0000607B0000647B0000F7
:10C5E000687B00006C7B0000707B0000747B0000A7
:10C5F000787B00007C7B0000807B0000847B000057
:10C60000887B00008C7B0000907B0000947B000006
:10C61000987B00009C7B0000A07B0000A47B0000B6
:10C62000A87B0000AC7B0000B07B0000B47B000066
:10C63000B87B0000BC7B0000C07B0000C47B000016
:10C64000C87B0000CC7B0000D07B0000D47B0000C6
:10C65000D87B0000DC7B0000E07B0000E47B000076
:10C66000E87B0000EC7B0000F07B0000F47B000026
:10C67000F87B0000FC7B0000007C0000047C0000D4
:10C68000087C00000C7C0000107C0000147C000082
:10C69000187C00001C7C0000207C0000247C000032
:10C6A000287C00002C7C0000307C0000347C0000E2
:10C6B000387C00003C7C0000407C0000447C000092
:10C6C000487C00004C7C0000507C0000547C000042
:10C6D000587C00005C7C0000607C0000647C0000F2
:10C6E000687C00006C7C0000707C0000747C0000A2
:10C6F000787C00007C7C0000807C0000847C000052
:10C70000887C00008C7C0000907C0000947C000001
:10C71000987C00009C7C0000A07C0000A47C0000B1
:10C72000A87C0000AC7C0000B07C0000B47C000061
:10C73000B87C0000BC7C0000C07C0000C47C000011
:10C74000C87C0000CC7C0000D07C0000D47C0000C1
:10C75000D87C0000DC7C0000E07C0000E47C000071
:10C76000E87C0000EC7C0000F07C0000F47C000021
:10C77000F87C0000FC7C0000007D0000047D0000CF
:10C78000087D00000C7D0000107D0000147D00007D
:10C79000187D00001C7D0000207D0000247D00002D
:10C7A000287D00002C7D0000307D0000347D0000DD
:10C7B000387D00003C7D0000407D0000447D00008D
:10C7C000487D00004C7D0000507D0000547D00003D
:10C7D000587D00005C7D0000607D0000647D0000ED
:10C7E000687D00006C7D0000707D0000747D00009D
:10C7F000787D00007C7D0000807D0000847D00004D
:10C80000887D00008C7D0000907D0000947D0000FC
:10C81000987D00009C7D0000A07D0000A47D0000AC
:10C82000A87D0000AC7D0000B07D0000B47D00005C
:10C83000B87D0000BC7D0000C07D0000C47D00000C
:10C84000C87D0000CC7D0000D07D0000D47D0000BC
:10C85000D87D0000DC7D0000E07D0000E47D00006C
:10C86000E87D0000EC7D0000F07D0000F47D00001C
:10C87000F87D0000FC7D0000007E0000047E0000CA
:10C88000087E00000C7E0000107E0000147E000078
:10C89000187E00001C7E0000207E0000247E000028
:10C8A000287E00002C7E0000307E0000347E0000D8
:10C8B000387E00003C7E0000407E0000447E000088
:10C8C000487E00004C7E0000507E0000547E000038
:10C8D000587E00005C7E0000607E0000647E0000E8
:10C8E000687E00006C7E0000707E0000747E000098
:10C8F000787E00007C7E0000807E0000847E000048
:10C90000887E00008C7E0000907E0000947E0000F7
:10C91000987E00009C7E0000A07E0000A47E0000A7
:10C92000A87E0000AC7E0000B07E0000B47E000057
:10C93000B87E0000BC7E0000C07E0000C47E000007
:10C94000C87E0000CC7E0000D07E0000D47E0000B7
:10C95000D87E0000DC7E0000E07E0000E47E000067
:10C96000E87E0000EC7E0000F07E0000F47E000017
:10C97000F87E0000FC7E0000007F0000047F0000C5
:10C98000087F00000C7F0000107F0000147F000073
:10C99000187F00001C7F0000207F0000247F000023
:10C9A000287F00002C7F0000307F0000347F0000D3
:10C9B000387F00003C7F0000407F0000447F000083
:10C9C000487F00004C7F0000507F0000547F000033
:10C9D000587F00005C7F0000607F0000647F0000E3
:10C9E000687F00006C7F0000707F0000747F000093
:10C9F000787F00007C7F0000807F0000847F000043
:10CA0000887F00008C7F0000907F0000947F0000F2
:10CA1000987F00009C7F0000A07F0000A47F0000A2
:10CA2000A87F0000AC7F0000B07F0000B47F000052
:10CA3000B87F0000BC7F0000C07F0000C47F000002
:10CA4000C87F0000CC7F0000D07F0000D47F0000B2
:10CA5000D87F0000DC7F0000E07F0000E47F000062
:10CA6000E87F0000EC7F0000F07F0000F47F000012
:10CA7000F87F0000FC7F00000080000004800000C0
:10CA8000088000000C80000010800000148000006E
:10CA9000188000001C80000020800000248000001E
:10CAA000288000002C8000003080000034800000CE
:10CAB000388000003C80000040800000448000007E
:10CAC000488000004C80000050800000548000002E
:10CAD000588000005C8000006080000064800000DE
:10CAE000688000006C80000070800000748000008E
:10CAF000788000007C80000080800000848000003E
:10CB0000888000008C8000009080000094800000ED
:10CB1000988000009C800000A0800000A48000009D
:10CB2000A8800000AC800000B0800000B48000004D
:10CB3000B8800000BC800000C0800000C4800000FD
:10CB4000C8800000CC800000D0800000D4800000AD
:10CB5000D8800000DC800000E0800000E48000005D
:10CB6000E8800000EC800000F0800000F48000000D
:10CB7000F8800000FC8000000081000004810000BB
:10CB8000088100000C810000108100001481000069
:10CB9000188100001C810000208100002481000019
:10CBA000288100002C8100003081000034810000C9
:10CBB000388100003C810000408100004481000079
:10CBC000488100004C810000508100005481000029
:10CBD000588100005C8100006081000064810000D9
:10CBE000688100006C810000708100007481000089
:10CBF000788100007C810000808100008481000039
:10CC0000888100008C8100009081000094810000E8
:10CC1000988100009C810000A0810000A481000098
:10CC2000A8810000AC810000B0810000B481000048
:10CC3000B8810000BC810000C0810000C4810000F8
:10CC4000C8810000CC810000D0810000D4810000A8
:10CC5000D8810000DC810000E0810000E481000058
:10CC6000E8810000EC810000F0810000F481000008
:10CC7000F8810000FC8100000082000004820000B6
:10CC8000088200000C820000108200001482000064
:10CC9000188200001C820000208200002482000014
:10CCA000288200002C8200003082000034820000C4
:10CCB000388200003C820000408200004482000074
:10CCC000488200004C820000508200005482000024
:10CCD000588200005C8200006082000064820000D4
:10CCE000688200006C820000708200007482000084
:10CCF000788200007C820000808200008482000034
:10CD0000888200008C8200009082000094820000E3
:10CD1000988200009C820000A0820000A482000093
:10CD2000A8820000AC820000B0820000B482000043
:10CD3000B8820000BC820000C0820000C4820000F3
:10CD4000C8820000CC820000D0820000D4820000A3
:10CD5000D8820000DC820000E0820000E482000053
:10CD6000E8820000EC820000F0820000F482000003
:10CD7000F8820000FC8200000083000004830000B1
:10CD8000088300000C83000010830000148300005F
:10CD9000188300001C83000020830000248300000F
:10CDA000288300002C8300003083000034830000BF
:10CDB000388300003C83000040830000448300006F
:10CDC000488300004C83000050830000548300001F
:10CDD000588300005C8300006083000064830000CF
:10CDE000688300006C83000070830000748300007F
:10CDF000788300007C83000080830000848300002F
:10CE0000888300008C8300009083000094830000DE
:10CE1000988300009C830000A0830000A48300008E
:10CE2000A8830000AC830000B0830000B48300003E
:10CE3000B8830000BC830000C0830000C4830000EE
:10CE4000C8830000CC830000D0830000D48300009E
:10CE5000D8830000DC830000E0830000E48300004E
:10CE6000E8830000EC830000F0830000F4830000FE
:10CE7000F8830000FC8300000084000004840000AC
:10CE8000088400000C84000010840000148400005A
:10CE9000188400001C84000020840000248400000A
:10CEA000288400002C8400003084000034840000BA
:10CEB000388400003C84000040840000448400006A
:10CEC000488400004C84000050840000548400001A
:10CED000588400005C8400006084000064840000CA
:10CEE000688400006C84000070840000748400007A
:10CEF000788400007C84000080840000848400002A
:10CF0000888400008C8400009084000094840000D9
:10CF1000988400009C840000A0840000A484000089
:10CF2000A8840000AC840000B0840000B484000039
:10CF3000B8840000BC840000C0840000C4840000E9
:10CF4000C8840000CC840000D0840000D484000099
:10CF5000D8840000DC840000E0840000E484000049
:10CF6000E8840000EC840000F0840000F4840000F9
:10CF7000F8840000FC8400000085000004850000A7
:10CF8000088500000C850000108500001485000055
:10CF9000188500001C850000208500002485000005
:10CFA000288500002C8500003085000034850000B5
:10CFB000388500003C850000408500004485000065
:10CFC000488500004C850000508500005485000015
:10CFD000588500005C8500006085000064850000C5
:10CFE000688500006C850000708500007485000075
:10CFF000788500007C850000808500008485000025
:10D00000888500008C8500009085000094850000D4
:10D01000988500009C850000A0850000A485000084
:10D02000A8850000AC850000B0850000B485000034
:10D03000B8850000BC850000C0850000C4850000E4
:10D04000C8850000CC850000D0850000D485000094
:10D05000D8850000DC850000E0850000E485000044
:10D06000E8850000EC850000F0850000F4850000F4
:10D07000F8850000FC8500000086000004860000A2
:10D08000088600000C860000108600001486000050
:10D09000188600001C860000208600002486000000
:10D0A000288600002C8600003086000034860000B0
:10D0B000388600003C860000408600004486000060
:10D0C000488600004C860000508600005486000010
:10D0D000588600005C8600006086000064860000C0
:10D0E000688600006C860000708600007486000070
:10D0F000788600007C860000808600008486000020
:10D10000888600008C8600009086000094860000CF
:10D11000988600009C860000A0860000A48600007F
:10D12000A8860000AC860000B0860000B48600002F
:10D13000B8860000BC860000C0860000C4860000DF
:10D14000C8860000CC860000D0860000D48600008F
:10D15000D8860000DC860000E0860000E48600003F
:10D16000E8860000EC860000F0860000F4860000EF
:10D17000F8860000FC86000000870000048700009D
:10D18000088700000C87000010870000148700004B
:10D19000188700001C8700002087000024870000FB
:10D1A000288700002C8700003087000034870000AB
:10D1B000388700003C87000040870000448700005B
:10D1C000488700004C87000050870000548700000B
:10D1D000588700005C8700006087000064870000BB
:10D1E000688700006C87000070870000748700006B
:10D1F000788700007C87000080870000848700001B
:10D20000888700008C8700009087000094870000CA
:10D21000988700009C870000A0870000A48700007A
:10D22000A8870000AC870000B0870000B48700002A
:10D23000B8870000BC870000C0870000C4870000DA
:10D24000C8870000CC870000D0870000D48700008A
:10D25000D8870000DC870000E0870000E48700003A
:10D26000E8870000EC870000F0870000F4870000EA
:10D27000F8870000FC870000008800000488000098
:10D28000088800000C880000108800001488000046
:10D29000188800001C8800002088000024880000F6
:10D2A000288800002C8800003088000034880000A6
:10D2B000388800003C880000408800004488000056
:10D2C000488800004C880000508800005488000006
:10D2D000588800005C8800006088000064880000B6
:10D2E000688800006C880000708800007488000066
:10D2F000788800007C880000808800008488000016
:10D30000888800008C8800009088000094880000C5
:10D31000988800009C880000A0880000A488000075
:10D32000A8880000AC880000B0880000B488000025
:10D33000B8880000BC880000C0880000C4880000D5
:10D34000C8880000CC880000D0880000D488000085
:10D35000D8880000DC880000E0880000E488000035
:10D36000E8880000EC880000F0880000F4880000E5
:10D37000F8880000FC880000008900000489000093
:10D38000088900000C890000108900001489000041
:10D39000188900001C8900002089000024890000F1
:10D3A000288900002C8900003089000034890000A1
:10D3B000388900003C890000408900004489000051
:10D3C000488900004C890000508900005489000001
:10D3D000588900005C8900006089000064890000B1
:10D3E000688900006C890000708900007489000061
:10D3F000788900007C890000808900008489000011
:10D40000888900008C8900009089000094890000C0
:10D41000988900009C890000A0890000A489000070
:10D42000A8890000AC890000B0890000B489000020
:10D43000B8890000BC890000C0890000C4890000D0
:10D44000C8890000CC890000D0890000D489000080
:10D45000D8890000DC890000E0890000E489000030
:10D46000E8890000EC890000F0890000F4890000E0
:10D47000F8890000FC890000008A0000048A00008E
:10D48000088A00000C8A0000108A0000148A00003C
:10D49000188A00001C8A0000208A0000248A0000EC
:10D4A000288A00002C8A0000308A0000348A00009C
:10D4B000388A00003C8A0000408A0000448A00004C
:10D4C000488A00004C8A0000508A0000548A0000FC
:10D4D000588A00005C8A0000608A0000648A0000AC
:10D4E000688A00006C8A0000708A0000748A00005C
:10D4F000788A00007C8A0000808A0000848A00000C
:10D50000888A00008C8A0000908A0000948A0000BB
:10D51000988A00009C8A0000A08A0000A48A00006B
:10D52000A88A0000AC8A0000B08A0000B48A00001B
:10D53000B88A0000BC8A0000C08A0000C48A0000CB
:10D54000C88A0000CC8A0000D08A0000D48A00007B
:10D55000D88A0000DC8A0000E08A0000E48A00002B
:10D56000E88A0000EC8A0000F08A0000F48A0000DB
:10D57000F88A0000FC8A0000008B0000048B000089
:10D58000088B00000C8B0000108B0000148B000037
:10D59000188B00001C8B0000208B0000248B0000E7
:10D5A000288B00002C8B0000308B0000348B000097
:10D5B000388B00003C8B0000408B0000448B000047
:10D5C000488B00004C8B0000508B0000548B0000F7
:10D5D000588B00005C8B0000608B0000648B0000A7
:10D5E000688B00006C8B0000708B0000748B000057
:10D5F000788B00007C8B0000808B0000848B000007
:10D60000888B00008C8B0000908B0000948B0000B6
:10D61000988B00009C8B0000A08B0000A48B000066
:10D62000A88B0000AC8B0000B08B0000B48B000016
:10D63000B88B0000BC8B0000C08B0000C48B0000C6
:10D64000C88B0000CC8B0000D08B0000D48B000076
:10D65000D88B0000DC8B0000E08B0000E48B000026
:10D66000E88B0000EC8B0000F08B0000F48B0000D6
:10D67000F88B0000FC8B0000008C0000048C000084
:10D68000088C00000C8C0000108C0000148C000032
:10D69000188C00001C8C0000208C0000248C0000E2
:10D6A000288C00002C8C0000308C0000348C000092
:10D6B000388C00003C8C0000408C0000448C000042
:10D6C000488C00004C8C0000508C0000548C0000F2
:10D6D000588C00005C8C0000608C0000648C0000A2
:10D6E000688C00006C8C0000708C0000748C000052
:10D6F000788C00007C8C0000808C0000848C000002
:10D70000888C00008C8C0000908C0000948C0000B1
:10D71000988C00009C8C0000A08C0000A48C000061
:10D72000A88C0000AC8C0000B08C0000B48C000011
:10D73000B88C0000BC8C0000C08C0000C48C0000C1
:10D74000C88C0000CC8C0000D08C0000D48C000071
:10D75000D88C0000DC8C0000E08C0000E48C000021
:10D76000E88C0000EC8C0000F08C0000F48C0000D1
:10D77000F88C0000FC8C0000008D0000048D00007F
:10D78000088D00000C8D0000108D0000148D00002D
:10D79000188D00001C8D0000208D0000248D0000DD
:10D7A000288D00002C8D0000308D0000348D00008D
:10D7B000388D00003C8D0000408D0000448D00003D
:10D7C000488D00004C8D0000508D0000548D0000ED
:10D7D000588D00005C8D0000608D0000648D00009D
:10D7E000688D00006C8D0000708D0000748D00004D
:10D7F000788D00007C8D0000808D0000848D0000FD
:10D80000888D00008C8D0000908D0000948D0000AC
:10D81000988D00009C8D0000A08D0000A48D00005C
:10D82000A88D0000AC8D0000B08D0000B48D00000C
:10D83000B88D0000BC8D0000C08D0000C48D0000BC
:10D84000C88D0000CC8D0000D08D0000D48D00006C
:10D85000D88D0000DC8D0000E08D0000E48D00001C
:10D86000E88D0000EC8D0000F08D0000F48D0000CC
:10D87000F88D0000FC8D0000008E0000048E00007A
:10D88000088E00000C8E0000108E0000148E000028
:10D89000188E00001C8E0000208E0000248E0000D8
:10D8A000288E00002C8E0000308E0000348E000088
:10D8B000388E00003C8E0000408E0000448E000038
:10D8C000488E00004C8E0000508E0000548E0000E8
:10D8D000588E00005C8E0000608E0000648E000098
:10D8E000688E00006C8E0000708E0000748E000048
:10D8F000788E00007C8E0000808E0000848E0000F8
:10D90000888E00008C8E0000908E0000948E0000A7
:10D91000988E00009C8E0000A08E0000A48E000057
:10D92000A88E0000AC8E0000B08E0000B48E000007
:10D93000B88E0000BC8E0000C08E0000C48E0000B7
:10D94000C88E0000CC8E0000D08E0000D48E000067
:10D95000D88E0000DC8E0000E08E0000E48E000017
:10D96000E88E0000EC8E0000F08E0000F48E0000C7
:10D97000F88E0000FC8E0000008F0000048F000075
:10D98000088F00000C8F0000108F0000148F000023
:10D99000188F00001C8F0000208F0000248F0000D3
:10D9A000288F00002C8F0000308F0000348F000083
:10D9B000388F00003C8F0000408F0000448F000033
:10D9C000488F00004C8F0000508F0000548F0000E3
:10D9D000588F00005C8F0000608F0000648F000093
:10D9E000688F00006C8F0000708F0000748F000043
:10D9F000788F00007C8F0000808F0000848F0000F3
:10DA0000888F00008C8F0000908F0000948F0000A2
:10DA1000988F00009C8F0000A08F0000A48F000052
:10DA2000A88F0000AC8F0000B08F0000B48F000002
:10DA3000B88F0000BC8F0000C08F0000C48F0000B2
:10DA4000C88F0000CC8F0000D08F0000D48F000062
:10DA5000D88F0000DC8F0000E08F0000E48F000012
:10DA6000E88F0000EC8F0000F08F0000F48F0000C2
:10DA7000F88F0000FC8F0000009000000490000070
:10DA8000089000000C90000010900000149000001E
:10DA9000189000001C9000002090000024900000CE
:10DAA000289000002C90000030900000349000007E
:10DAB000389000003C90000040900000449000002E
:10DAC000489000004C9000005090000054900000DE
:10DAD000589000005C90000060900000649000008E
:10DAE000689000006C90000070900000749000003E
:10DAF000789000007C9000008090000084900000EE
:10DB0000889000008C90000090900000949000009D
:10DB1000989000009C900000A0900000A49000004D
:10DB2000A8900000AC900000B0900000B4900000FD
:10DB3000B8900000BC900000C0900000C4900000AD
:10DB4000C8900000CC900000D0900000D49000005D
:10DB5000D8900000DC900000E0900000E49000000D
:10DB6000E8900000EC900000F0900000F4900000BD
:10DB7000F8900000FC90000000910000049100006B
:10DB8000089100000C910000109100001491000019
:10DB9000189100001C9100002091000024910000C9
:10DBA000289100002C910000309100003491000079
:10DBB000389100003C910000409100004491000029
:10DBC000489100004C9100005091000054910000D9
:10DBD000589100005C910000609100006491000089
:10DBE000689100006C910000709100007491000039
:10DBF000789100007C9100008091000084910000E9
:10DC0000889100008C910000909100009491000098
:10DC1000989100009C910000A0910000A491000048
:10DC2000A8910000AC910000B0910000B4910000F8
:10DC3000B8910000BC910000C0910000C4910000A8
:10DC4000C8910000CC910000D0910000D491000058
:10DC5000D8910000DC910000E0910000E491000008
:10DC6000E8910000EC910000F0910000F4910000B8
:10DC7000F8910000FC910000009200000492000066
:10DC8000089200000C920000109200001492000014
:10DC9000189200001C9200002092000024920000C4
:10DCA000289200002C920000309200003492000074
:10DCB000389200003C920000409200004492000024
:10DCC000489200004C9200005092000054920000D4
:10DCD000589200005C920000609200006492000084
:10DCE000689200006C920000709200007492000034
:10DCF000789200007C9200008092000084920000E4
:10DD0000889200008C920000909200009492000093
:10DD1000989200009C920000A0920000A492000043
:10DD2000A8920000AC920000B0920000B4920000F3
:10DD3000B8920000BC920000C0920000C4920000A3
:10DD4000C8920000CC920000D0920000D492000053
:10DD5000D8920000DC920000E0920000E492000003
:10DD6000E8920000EC920000F0920000F4920000B3
:10DD7000F8920000FC920000009300000493000061
:10DD8000089300000C93000010930000149300000F
:10DD9000189300001C9300002093000024930000BF
:10DDA000289300002C93000030930000349300006F
:10DDB000389300003C93000040930000449300001F
:10DDC000489300004C9300005093000054930000CF
:10DDD000589300005C93000060930000649300007F
:10DDE000689300006C93000070930000749300002F
:10DDF000789300007C9300008093000084930000DF
:10DE0000889300008C93000090930000949300008E
:10DE1000989300009C930000A0930000A49300003E
:10DE2000A8930000AC930000B0930000B4930000EE
:10DE3000B8930000BC930000C0930000C49300009E
:10DE4000C8930000CC930000D0930000D49300004E
:10DE5000D8930000DC930000E0930000E4930000FE
:10DE6000E8930000EC930000F0930000F4930000AE
:10DE7000F8930000FC93000000940000049400005C
:10DE8000089400000C94000010940000149400000A
:10DE9000189400001C9400002094000024940000BA
:10DEA000289400002C94000030940000349400006A
:10DEB000389400003C94000040940000449400001A
:10DEC000489400004C9400005094000054940000CA
:10DED000589400005C94000060940000649400007A
:10DEE000689400006C94000070940000749400002A
:10DEF000789400007C9400008094000084940000DA
:10DF0000889400008C940000909400009494000089
:10DF1000989400009C940000A0940000A494000039
:10DF2000A8940000AC940000B0940000B4940000E9
:10DF3000B8940000BC940000C0940000C494000099
:10DF4000C8940000CC940000D0940000D494000049
:10DF5000D8940000DC940000E0940000E4940000F9
:10DF6000E8940000EC940000F0940000F4940000A9
:10DF7000F8940000FC940000009500000495000057
:10DF8000089500000C950000109500001495000005
:10DF9000189500001C9500002095000024950000B5
:10DFA000289500002C950000309500003495000065
:10DFB000389500003C950000409500004495000015
:10DFC000489500004C9500005095000054950000C5
:10DFD000589500005C950000609500006495000075
:10DFE000689500006C950000709500007495000025
:10DFF000789500007C9500008095000084950000D5
:10E00000889500008C950000909500009495000084
:10E01000989500009C950000A0950000A495000034
:10E02000A8950000AC950000B0950000B4950000E4
:10E03000B8950000BC950000C0950000C495000094
:10E04000C8950000CC950000D0950000D495000044
:10E05000D8950000DC950000E0950000E4950000F4
:10E06000E8950000EC950000F0950000F4950000A4
:10E07000F8950000FC950000009600000496000052
:10E08000089600000C960000109600001496000000
:10E09000189600001C9600002096000024960000B0
:10E0A000289600002C960000309600003496000060
:10E0B000389600003C960000409600004496000010
:10E0C000489600004C9600005096000054960000C0
:10E0D000589600005C960000609600006496000070
:10E0E000689600006C960000709600007496000020
:10E0F000789600007C9600008096000084960000D0
:10E10000889600008C96000090960000949600007F
:10E11000989600009C960000A0960000A49600002F
:10E12000A8960000AC960000B0960000B4960000DF
:10E13000B8960000BC960000C0960000C49600008F
:10E14000C8960000CC960000D0960000D49600003F
:10E15000D8960000DC960000E0960000E4960000EF
:10E16000E8960000EC960000F0960000F49600009F
:10E17000F8960000FC96000000970000049700004D
:10E18000089700000C9700001097000014970000FB
:10E19000189700001C9700002097000024970000AB
:10E1A000289700002C97000030970000349700005B
:10E1B000389700003C97000040970000449700000B
:10E1C000489700004C9700005097000054970000BB
:10E1D000589700005C97000060970000649700006B
:10E1E000689700006C97000070970000749700001B
:10E1F000789700007C9700008097000084970000CB
:10E20000889700008C97000090970000949700007A
:10E21000989700009C970000A0970000A49700002A
:10E22000A8970000AC970000B0970000B4970000DA
:10E23000B8970000BC970000C0970000C49700008A
:10E24000C8970000CC970000D0970000D49700003A
:10E25000D8970000DC970000E0970000E4970000EA
:10E26000E8970000EC970000F0970000F49700009A
:10E27000F8970000FC970000009800000498000048
:10E28000089800000C9800001098000014980000F6
:10E29000189800001C9800002098000024980000A6
:10E2A000289800002C980000309800003498000056
:10E2B000389800003C980000409800004498000006
:10E2C000489800004C9800005098000054980000B6
:10E2D000589800005C980000609800006498000066
:10E2E000689800006C980000709800007498000016
:10E2F000789800007C9800008098000084980000C6
:10E30000889800008C980000909800009498000075
:10E31000989800009C980000A0980000A498000025
:10E32000A8980000AC980000B0980000B4980000D5
:10E33000B8980000BC980000C0980000C498000085
:10E34000C8980000CC980000D0980000D498000035
:10E35000D8980000DC980000E0980000E4980000E5
:10E36000E8980000EC980000F0980000F498000095
:10E37000F8980000FC980000009900000499000043
:10E38000089900000C9900001099000014990000F1
:10E39000189900001C9900002099000024990000A1
:10E3A000289900002C990000309900003499000051
:10E3B000389900003C990000409900004499000001
:10E3C000489900004C9900005099000054990000B1
:10E3D000589900005C990000609900006499000061
:10E3E000689900006C990000709900007499000011
:10E3F000789900007C9900008099000084990000C1
:10E40000889900008C990000909900009499000070
:10E41000989900009C990000A0990000A499000020
:10E42000A8990000AC990000B0990000B4990000D0
:10E43000B8990000BC990000C0990000C499000080
:10E44000C8990000CC990000D0990000D499000030
:10E45000D8990000DC990000E0990000E4990000E0
:10E46000E8990000EC990000F0990000F499000090
:10E47000F8990000FC990000009A0000049A00003E
:10E48000089A00000C9A0000109A0000149A0000EC
:10E49000189A00001C9A0000209A0000249A00009C
:10E4A000289A00002C9A0000309A0000349A00004C
:10E4B000389A00003C9A0000409A0000449A0000FC
:10E4C000489A00004C9A0000509A0000549A0000AC
:10E4D000589A00005C9A0000609A0000649A00005C
:10E4E000689A00006C9A0000709A0000749A00000C
:10E4F000789A00007C9A0000809A0000849A0000BC
:10E50000889A00008C9A0000909A0000949A00006B
:10E51000989A00009C9A0000A09A0000A49A00001B
:10E52000A89A0000AC9A0000B09A0000B49A0000CB
:10E53000B89A0000BC9A0000C09A0000C49A00007B
:10E54000C89A0000CC9A0000D09A0000D49A00002B
:10E55000D89A0000DC9A0000E09A0000E49A0000DB
:10E56000E89A0000EC9A0000F09A0000F49A00008B
:10E57000F89A0000FC9A0000009B0000049B000039
:10E58000089B00000C9B0000109B0000149B0000E7
:10E59000189B00001C9B0000209B0000249B000097
:10E5A000289B00002C9B0000309B0000349B000047
:10E5B000389B00003C9B0000409B0000449B0000F7
:10E5C000489B00004C9B0000509B0000549B0000A7
:10E5D000589B00005C9B0000609B0000649B000057
:10E5E000689B00006C9B0000709B0000749B000007
:10E5F000789B00007C9B0000809B0000849B0000B7
:10E60000889B00008C9B0000909B0000949B000066
:10E61000989B00009C9B0000A09B0000A49B000016
:10E62000A89B0000AC9B0000B09B0000B49B0000C6
:10E63000B89B0000BC9B0000C09B0000C49B000076
:10E64000C89B0000CC9B0000D09B0000D49B000026
:10E65000D89B0000DC9B0000E09B0000E49B0000D6
:10E66000E89B0000EC9B0000F09B0000F49B000086
:10E67000F89B0000FC9B0000009C0000049C000034
:10E68000089C00000C9C0000109C0000149C0000E2
:10E69000189C00001C9C0000209C0000249C000092
:10E6A000289C00002C9C0000309C0000349C000042
:10E6B000389C00003C9C0000409C0000449C0000F2
:10E6C000489C00004C9C0000509C0000549C0000A2
:10E6D000589C00005C9C0000609C0000649C000052
:10E6E000689C00006C9C0000709C0000749C000002
:10E6F000789C00007C9C0000809C0000849C0000B2
:10E70000889C00008C9C0000909C0000949C000061
:10E71000989C00009C9C0000A09C0000A49C000011
:10E72000A89C0000AC9C0000B09C0000B49C0000C1
:10E73000B89C0000BC9C0000C09C0000C49C000071
:10E74000C89C0000CC9C0000D09C0000D49C000021
:10E75000D89C0000DC9C0000E09C0000E49C0000D1
:10E76000E89C0000EC9C0000F09C0000F49C000081
:10E77000F89C0000FC9C0000009D0000049D00002F
:10E78000089D00000C9D0000109D0000149D0000DD
:10E79000189D00001C9D0000209D0000249D00008D
:10E7A000289D00002C9D0000309D0000349D00003D
:10E7B000389D00003C9D0000409D0000449D0000ED
:10E7C000489D00004C9D0000509D0000549D00009D
:10E7D000589D00005C9D0000609D0000649D00004D
:10E7E000689D00006C9D0000709D0000749D0000FD
:10E7F000789D00007C9D0000809D0000849D0000AD
:10E80000889D00008C9D0000909D0000949D00005C
:10E81000989D00009C9D0000A09D0000A49D00000C
:10E82000A89D0000AC9D0000B09D0000B49D0000BC
:10E83000B89D0000BC9D0000C09D0000C49D00006C
:10E84000C89D0000CC9D0000D09D0000D49D00001C
:10E85000D89D0000DC9D0000E09D0000E49D0000CC
:10E86000E89D0000EC9D0000F09D0000F49D00007C
:10E87000F89D0000FC9D0000009E0000049E00002A
:10E88000089E00000C9E0000109E0000149E0000D8
:10E89000189E00001C9E0000209E0000249E000088
:10E8A000289E00002C9E0000309E0000349E000038
:10E8B000389E00003C9E0000409E0000449E0000E8
:10E8C000489E00004C9E0000509E0000549E000098
:10E8D000589E00005C9E0000609E0000649E000048
:10E8E000689E00006C9E0000709E0000749E0000F8
:10E8F000789E00007C9E0000809E0000849E0000A8
:10E90000889E00008C9E0000909E0000949E000057
:10E91000989E00009C9E0000A09E0000A49E000007
:10E92000A89E0000AC9E0000B09E0000B49E0000B7
:10E93000B89E0000BC9E0000C09E0000C49E000067
:10E94000C89E0000CC9E0000D09E0000D49E000017
:10E95000D89E0000DC9E0000E09E0000E49E0000C7
:10E96000E89E0000EC9E0000F09E0000F49E000077
:10E97000F89E0000FC9E0000009F0000049F000025
:10E98000089F00000C9F0000109F0000149F0000D3
:10E99000189F00001C9F0000209F0000249F000083
:10E9A000289F00002C9F0000309F0000349F000033
:10E9B000389F00003C9F0000409F0000449F0000E3
:10E9C000489F00004C9F0000509F0000549F000093
:10E9D000589F00005C9F0000609F0000649F000043
:10E9E000689F00006C9F0000709F0000749F0000F3
:10E9F000789F00007C9F0000809F0000849F0000A3
:10EA0000889F00008C9F0000909F0000949F000052
:10EA1000989F00009C9F0000A09F0000A49F000002
:10EA2000A89F0000AC9F0000B09F0000B49F0000B2
:10EA3000B89F0000BC9F0000C09F0000C49F000062
:10EA4000C89F0000CC9F0000D09F0000D49F000012
:10EA5000D89F0000DC9F0000E09F0000E49F0000C2
:10EA6000E89F0000EC9F0000F09F0000F49F000072
:10EA7000F89F0000FC9F000000000000000102025F
:10EA80000303030304040404040404040505050546
:10EA90000505050505050505050505050606060622
:10EAA0000606060606060606060606060606060606
:10EAB00006060606060606060606060607070707F2
:10EAC00007070707070707070707070707070707D6
:10EAD00007070707070707070707070707070707C6
:10EAE00007070707070707070707070707070707B6
:10EAF00007070707070707070707070708080808A2
:10EB00000808080808080808080808080808080885
:10EB10000808080808080808080808080808080875
:10EB20000808080808080808080808080808080865
:10EB30000808080808080808080808080808080855
:10EB40000808080808080808080808080808080845
:10EB50000808080808080808080808080808080835
:10EB60000808080808080808080808080808080825
:0CEB700008080808080808080808080839
:10EB7C000000000001020304010203040607080957
:08EB8C0000A24A04020406087D
:00000001FF
