:020000040800F2
:10000000B1AA010000000000000000000000000094
:1000100000000000000000000000000000000000E0
:1000200000000000000000000000000000000000D0
:1000300000000000000000000000000000000000C0
:1000400000000000000000000000000000000000B0
:1000500000000000000000000000000000000000A0
:100060000000000000000000000000000000000090
:100070000000000000000000000000000000000080
:100080000000000000000000000000000000000070
:100090000000000000000000000000000000000060
:1000A0000000000000000000000000000000000050
:1000B0000000000000000000000000000000000040
:1000C0000000000000000000000000000000000030
:1000D0000000000000000000000000000000000020
:1000E0002EC5000800000000000000000000000015
:1000F0000000000000000000000000000000000000
:1001000000000000000000000000000000000000EF
:1001100000000000000000000000000000000000DF
:1001200000000000C2CC0008000000000000000039
:1001300000000000000000000000000000000000BF
:1001400000000000000000000000000000000000AF
:100150000000000000000000000000007370043088
:10016000170500001305C5FF8545F605637BB5003F
:1001700089816378B500170500001305C5002E9529
:1001800002859302002073A0027D970200009382F3
:1001900062E773907230977200009382620A7390E4
:1001A000C27E73E0C07E977200009382A2017390BA
:1001B0005230970100189381E16A1751001813011A
:1001C00061E417F500001305E50397050018938512
:1001D00065E317060018130666E963FAC500832273
:1001E000050023A0550011059105E3EAC5FE17059A
:1001F00000181305A5E7974500189385A5106377A8
:10020000B500232005001105E36DB5FE73F0023241
:1002100017F50000130525DBEFE05057EFE0105E07
:1002200001458145EF60905E6FE0F05601A073E0FC
:0C0230000232828073F0023282800000F3
:100240000A50726F6772616D20686173206578690A
:10025000746564207769746820636F64653A000090
:10026000307800006E6D690A0000000074726170E1
:100270000A000000F6B3000854B40008B8B400083F
:100280001CB5000880B50008B8B300087AB30008B0
:1002900044BA000850BB0008E4BB00081ABC0008C0
:1002A00050BC00088ABC0008F8BC0008CEB90008A1
:1002B0008CB9000836CA0008E6CA000836CA000829
:1002C00034CB000866CB0008CACB000836CA000849
:1002D00036CA000836CA000836CA000800CC000832
:1002E00018CC000836CA00083CCA00083ACA000800
:1002F00016D000080AD0000804D0000810D000086A
:10030000D0CF0008FECF0008F8CF0008B2CF000819
:10031000ACCF0008CACF0008C4CF0008BECF000889
:10032000B8CF0008DCCF0008D6CF0008F2CF000815
:10033000A6CF00089CCF000894CF00088ECF0008FD
:1003400088CF000882CF00087CCF000876CF000855
:10035000C4D90008DEE50008D2E50008CAE50008B7
:1003600076E50008D2D10008C8D100085CE5000895
:1003700044E50008D4E90008C4D90008C4D900083D
:10038000C4D9000884D900084AD9000832D9000825
:1003900016D90008F8D80008E2D80008C6D8000826
:1003A000A0D8000880D800080AD1000850D800085A
:1003B000D4E9000832D8000802D80008D6D70008CF
:1003C000A4D700087AD700084CD7000822D7000825
:1003D000F4D60008D8D60008BCD600089ED600087F
:1003E00080D6000860D60008D4E9000842D600088C
:1003F0001AD60008F2D50008CAD500089CD5000816
:10040000A2E10008D4E9000876E100080EE1000846
:10041000F8E0000850E100083AE1000854D1000873
:1004200054D1000854D10008AED10008AED1000864
:1004300028E50008B2E000087EE000084AE0000875
:100440000CE000084CE8000810E80008FEE3000893
:10045000DAE30008D4E90008C4D900088EE40008F3
:10046000CEE4000862E2000832E30008D4E90008A4
:10047000EEE20008C2E200088EE20008D4E90008BB
:1004800096E30008D4E90008D4E90008D4E900089C
:10049000D4E900086AE300081EE20008D4E9000875
:1004A000D2E1000814D300086CDD0008D4E900088C
:1004B00032DD000838D1000838D1000838D10008F2
:1004C00066D20008D4E9000860D5000864E9000895
:1004D0002CE90008D4E9000896E9000820D10008BA
:1004E00020D1000820D10008E0DF0008D4E900088E
:1004F000A6DF0008FAE400085AE40008D4E900087E
:1005000020E40008EED00008EED00008EED000088D
:10051000AED40008D4E9000874D40008EED0000876
:1005200038DA0008D4E9000882D3000860D3000854
:1005300052D4000830D40008FCD30008D4E90008E5
:10054000BCD30008E0D20008A6D20008D4E9000815
:10055000F0DC0008D0DC0008B0DC000890DC00080B
:100560005EDC0008D4E9000820DC0008EEDB0008AF
:10057000B6DB0008D4E9000878DB000854DB00088B
:1005800030DB00080CDB0008D8DA0008D4E90008EA
:1005900098DA0008B6DE000886DE0008D4E9000814
:1005A00046DE000818DE0008ECDD0008BEDD0008AD
:1005B000AEDD00080AD10008D4E900080AD100081D
:1005C00040DF00087ADA0008D4E90008D6D0000835
:1005D000D6D00008D6D00008D4E90008D6D000084C
:1005E000FADE0008D4E90008AED00008AED000085A
:1005F000AED00008D4E90008AED00008F0E800084A
:10060000D4E90008C4E8000880D1000880D10008BF
:10061000D4E9000880D10008FAE50008D4E9000810
:100620007ADF00085EDF00084CD20008D4E9000839
:1006300032D20008D6E70008D4E90008AAE700088B
:100640008EE7000872E70008D4E9000856E70008C2
:100650006CD100086CD100089AD100087AE6000835
:100660005AE60008FCE60008DAE6000836E600086C
:10067000D4E90008C4D90008C4D90008C4D90008C6
:10068000C4D900084AD3000840E7000834D3000862
:10069000DCD40008F2D4000806D5000888E8000879
:1006A000A8E80008DADE0008D8D60008BCD60008A2
:1006B0006CD100089AD10008D4E90008C4D9000818
:1006C0002CDF000864DA00081ED200089AE6000851
:1006D00020D5000894D20008BAE4000818DF00080A
:1006E000E6E000086CD800089ADD000864E1000824
:1006F000D4E90008CCD90008E2D900081EE70008B8
:100700006C696E6B626F793A0000000004000000B3
:10071000080000000C0000001000000014000000A1
:10072000180000001C000000200000002400000051
:10073000280000002C000000300000003400000001
:10074000380000003C0000004000000044000000B1
:10075000480000004C000000500000005400000061
:10076000580000005C000000600000006400000011
:10077000680000006C0000007000000074000000C1
:10078000780000007C000000800000008400000071
:10079000880000008C000000900000009400000021
:1007A000980000009C000000A0000000A4000000D1
:1007B000A8000000AC000000B0000000B400000081
:1007C000B8000000BC000000C0000000C400000031
:1007D000C8000000CC000000D0000000D4000000E1
:1007E000D8000000DC000000E0000000E400000091
:1007F000E8000000EC000000F0000000F400000041
:10080000F8000000FC0000000001000004010000EE
:10081000080100000C01000010010000140100009C
:10082000180100001C01000020010000240100004C
:10083000280100002C0100003001000034010000FC
:10084000380100003C0100004001000044010000AC
:10085000480100004C01000050010000540100005C
:10086000580100005C01000060010000640100000C
:10087000680100006C0100007001000074010000BC
:10088000780100007C01000080010000840100006C
:10089000880100008C01000090010000940100001C
:1008A000980100009C010000A0010000A4010000CC
:1008B000A8010000AC010000B0010000B40100007C
:1008C000B8010000BC010000C0010000C40100002C
:1008D000C8010000CC010000D0010000D4010000DC
:1008E000D8010000DC010000E0010000E40100008C
:1008F000E8010000EC010000F0010000F40100003C
:10090000F8010000FC0100000002000004020000E9
:10091000080200000C020000100200001402000097
:10092000180200001C020000200200002402000047
:10093000280200002C0200003002000034020000F7
:10094000380200003C0200004002000044020000A7
:10095000480200004C020000500200005402000057
:10096000580200005C020000600200006402000007
:10097000680200006C0200007002000074020000B7
:10098000780200007C020000800200008402000067
:10099000880200008C020000900200009402000017
:1009A000980200009C020000A0020000A4020000C7
:1009B000A8020000AC020000B0020000B402000077
:1009C000B8020000BC020000C0020000C402000027
:1009D000C8020000CC020000D0020000D4020000D7
:1009E000D8020000DC020000E0020000E402000087
:1009F000E8020000EC020000F0020000F402000037
:100A0000F8020000FC0200000003000004030000E4
:100A1000080300000C030000100300001403000092
:100A2000180300001C030000200300002403000042
:100A3000280300002C0300003003000034030000F2
:100A4000380300003C0300004003000044030000A2
:100A5000480300004C030000500300005403000052
:100A6000580300005C030000600300006403000002
:100A7000680300006C0300007003000074030000B2
:100A8000780300007C030000800300008403000062
:100A9000880300008C030000900300009403000012
:100AA000980300009C030000A0030000A4030000C2
:100AB000A8030000AC030000B0030000B403000072
:100AC000B8030000BC030000C0030000C403000022
:100AD000C8030000CC030000D0030000D4030000D2
:100AE000D8030000DC030000E0030000E403000082
:100AF000E8030000EC030000F0030000F403000032
:100B0000F8030000FC0300000004000004040000DF
:100B1000080400000C04000010040000140400008D
:100B2000180400001C04000020040000240400003D
:100B3000280400002C0400003004000034040000ED
:100B4000380400003C04000040040000440400009D
:100B5000480400004C04000050040000540400004D
:100B6000580400005C0400006004000064040000FD
:100B7000680400006C0400007004000074040000AD
:100B8000780400007C04000080040000840400005D
:100B9000880400008C04000090040000940400000D
:100BA000980400009C040000A0040000A4040000BD
:100BB000A8040000AC040000B0040000B40400006D
:100BC000B8040000BC040000C0040000C40400001D
:100BD000C8040000CC040000D0040000D4040000CD
:100BE000D8040000DC040000E0040000E40400007D
:100BF000E8040000EC040000F0040000F40400002D
:100C0000F8040000FC0400000005000004050000DA
:100C1000080500000C050000100500001405000088
:100C2000180500001C050000200500002405000038
:100C3000280500002C0500003005000034050000E8
:100C4000380500003C050000400500004405000098
:100C5000480500004C050000500500005405000048
:100C6000580500005C0500006005000064050000F8
:100C7000680500006C0500007005000074050000A8
:100C8000780500007C050000800500008405000058
:100C9000880500008C050000900500009405000008
:100CA000980500009C050000A0050000A4050000B8
:100CB000A8050000AC050000B0050000B405000068
:100CC000B8050000BC050000C0050000C405000018
:100CD000C8050000CC050000D0050000D4050000C8
:100CE000D8050000DC050000E0050000E405000078
:100CF000E8050000EC050000F0050000F405000028
:100D0000F8050000FC0500000006000004060000D5
:100D1000080600000C060000100600001406000083
:100D2000180600001C060000200600002406000033
:100D3000280600002C0600003006000034060000E3
:100D4000380600003C060000400600004406000093
:100D5000480600004C060000500600005406000043
:100D6000580600005C0600006006000064060000F3
:100D7000680600006C0600007006000074060000A3
:100D8000780600007C060000800600008406000053
:100D9000880600008C060000900600009406000003
:100DA000980600009C060000A0060000A4060000B3
:100DB000A8060000AC060000B0060000B406000063
:100DC000B8060000BC060000C0060000C406000013
:100DD000C8060000CC060000D0060000D4060000C3
:100DE000D8060000DC060000E0060000E406000073
:100DF000E8060000EC060000F0060000F406000023
:100E0000F8060000FC0600000007000004070000D0
:100E1000080700000C07000010070000140700007E
:100E2000180700001C07000020070000240700002E
:100E3000280700002C0700003007000034070000DE
:100E4000380700003C07000040070000440700008E
:100E5000480700004C07000050070000540700003E
:100E6000580700005C0700006007000064070000EE
:100E7000680700006C07000070070000740700009E
:100E8000780700007C07000080070000840700004E
:100E9000880700008C0700009007000094070000FE
:100EA000980700009C070000A0070000A4070000AE
:100EB000A8070000AC070000B0070000B40700005E
:100EC000B8070000BC070000C0070000C40700000E
:100ED000C8070000CC070000D0070000D4070000BE
:100EE000D8070000DC070000E0070000E40700006E
:100EF000E8070000EC070000F0070000F40700001E
:100F0000F8070000FC0700000008000004080000CB
:100F1000080800000C080000100800001408000079
:100F2000180800001C080000200800002408000029
:100F3000280800002C0800003008000034080000D9
:100F4000380800003C080000400800004408000089
:100F5000480800004C080000500800005408000039
:100F6000580800005C0800006008000064080000E9
:100F7000680800006C080000700800007408000099
:100F8000780800007C080000800800008408000049
:100F9000880800008C0800009008000094080000F9
:100FA000980800009C080000A0080000A4080000A9
:100FB000A8080000AC080000B0080000B408000059
:100FC000B8080000BC080000C0080000C408000009
:100FD000C8080000CC080000D0080000D4080000B9
:100FE000D8080000DC080000E0080000E408000069
:100FF000E8080000EC080000F0080000F408000019
:10100000F8080000FC0800000009000004090000C6
:10101000080900000C090000100900001409000074
:10102000180900001C090000200900002409000024
:10103000280900002C0900003009000034090000D4
:10104000380900003C090000400900004409000084
:10105000480900004C090000500900005409000034
:10106000580900005C0900006009000064090000E4
:10107000680900006C090000700900007409000094
:10108000780900007C090000800900008409000044
:10109000880900008C0900009009000094090000F4
:1010A000980900009C090000A0090000A4090000A4
:1010B000A8090000AC090000B0090000B409000054
:1010C000B8090000BC090000C0090000C409000004
:1010D000C8090000CC090000D0090000D4090000B4
:1010E000D8090000DC090000E0090000E409000064
:1010F000E8090000EC090000F0090000F409000014
:10110000F8090000FC090000000A0000040A0000C1
:10111000080A00000C0A0000100A0000140A00006F
:10112000180A00001C0A0000200A0000240A00001F
:10113000280A00002C0A0000300A0000340A0000CF
:10114000380A00003C0A0000400A0000440A00007F
:10115000480A00004C0A0000500A0000540A00002F
:10116000580A00005C0A0000600A0000640A0000DF
:10117000680A00006C0A0000700A0000740A00008F
:10118000780A00007C0A0000800A0000840A00003F
:10119000880A00008C0A0000900A0000940A0000EF
:1011A000980A00009C0A0000A00A0000A40A00009F
:1011B000A80A0000AC0A0000B00A0000B40A00004F
:1011C000B80A0000BC0A0000C00A0000C40A0000FF
:1011D000C80A0000CC0A0000D00A0000D40A0000AF
:1011E000D80A0000DC0A0000E00A0000E40A00005F
:1011F000E80A0000EC0A0000F00A0000F40A00000F
:10120000F80A0000FC0A0000000B0000040B0000BC
:10121000080B00000C0B0000100B0000140B00006A
:10122000180B00001C0B0000200B0000240B00001A
:10123000280B00002C0B0000300B0000340B0000CA
:10124000380B00003C0B0000400B0000440B00007A
:10125000480B00004C0B0000500B0000540B00002A
:10126000580B00005C0B0000600B0000640B0000DA
:10127000680B00006C0B0000700B0000740B00008A
:10128000780B00007C0B0000800B0000840B00003A
:10129000880B00008C0B0000900B0000940B0000EA
:1012A000980B00009C0B0000A00B0000A40B00009A
:1012B000A80B0000AC0B0000B00B0000B40B00004A
:1012C000B80B0000BC0B0000C00B0000C40B0000FA
:1012D000C80B0000CC0B0000D00B0000D40B0000AA
:1012E000D80B0000DC0B0000E00B0000E40B00005A
:1012F000E80B0000EC0B0000F00B0000F40B00000A
:10130000F80B0000FC0B0000000C0000040C0000B7
:10131000080C00000C0C0000100C0000140C000065
:10132000180C00001C0C0000200C0000240C000015
:10133000280C00002C0C0000300C0000340C0000C5
:10134000380C00003C0C0000400C0000440C000075
:10135000480C00004C0C0000500C0000540C000025
:10136000580C00005C0C0000600C0000640C0000D5
:10137000680C00006C0C0000700C0000740C000085
:10138000780C00007C0C0000800C0000840C000035
:10139000880C00008C0C0000900C0000940C0000E5
:1013A000980C00009C0C0000A00C0000A40C000095
:1013B000A80C0000AC0C0000B00C0000B40C000045
:1013C000B80C0000BC0C0000C00C0000C40C0000F5
:1013D000C80C0000CC0C0000D00C0000D40C0000A5
:1013E000D80C0000DC0C0000E00C0000E40C000055
:1013F000E80C0000EC0C0000F00C0000F40C000005
:10140000F80C0000FC0C0000000D0000040D0000B2
:10141000080D00000C0D0000100D0000140D000060
:10142000180D00001C0D0000200D0000240D000010
:10143000280D00002C0D0000300D0000340D0000C0
:10144000380D00003C0D0000400D0000440D000070
:10145000480D00004C0D0000500D0000540D000020
:10146000580D00005C0D0000600D0000640D0000D0
:10147000680D00006C0D0000700D0000740D000080
:10148000780D00007C0D0000800D0000840D000030
:10149000880D00008C0D0000900D0000940D0000E0
:1014A000980D00009C0D0000A00D0000A40D000090
:1014B000A80D0000AC0D0000B00D0000B40D000040
:1014C000B80D0000BC0D0000C00D0000C40D0000F0
:1014D000C80D0000CC0D0000D00D0000D40D0000A0
:1014E000D80D0000DC0D0000E00D0000E40D000050
:1014F000E80D0000EC0D0000F00D0000F40D000000
:10150000F80D0000FC0D0000000E0000040E0000AD
:10151000080E00000C0E0000100E0000140E00005B
:10152000180E00001C0E0000200E0000240E00000B
:10153000280E00002C0E0000300E0000340E0000BB
:10154000380E00003C0E0000400E0000440E00006B
:10155000480E00004C0E0000500E0000540E00001B
:10156000580E00005C0E0000600E0000640E0000CB
:10157000680E00006C0E0000700E0000740E00007B
:10158000780E00007C0E0000800E0000840E00002B
:10159000880E00008C0E0000900E0000940E0000DB
:1015A000980E00009C0E0000A00E0000A40E00008B
:1015B000A80E0000AC0E0000B00E0000B40E00003B
:1015C000B80E0000BC0E0000C00E0000C40E0000EB
:1015D000C80E0000CC0E0000D00E0000D40E00009B
:1015E000D80E0000DC0E0000E00E0000E40E00004B
:1015F000E80E0000EC0E0000F00E0000F40E0000FB
:10160000F80E0000FC0E0000000F0000040F0000A8
:10161000080F00000C0F0000100F0000140F000056
:10162000180F00001C0F0000200F0000240F000006
:10163000280F00002C0F0000300F0000340F0000B6
:10164000380F00003C0F0000400F0000440F000066
:10165000480F00004C0F0000500F0000540F000016
:10166000580F00005C0F0000600F0000640F0000C6
:10167000680F00006C0F0000700F0000740F000076
:10168000780F00007C0F0000800F0000840F000026
:10169000880F00008C0F0000900F0000940F0000D6
:1016A000980F00009C0F0000A00F0000A40F000086
:1016B000A80F0000AC0F0000B00F0000B40F000036
:1016C000B80F0000BC0F0000C00F0000C40F0000E6
:1016D000C80F0000CC0F0000D00F0000D40F000096
:1016E000D80F0000DC0F0000E00F0000E40F000046
:1016F000E80F0000EC0F0000F00F0000F40F0000F6
:10170000F80F0000FC0F00000010000004100000A3
:10171000081000000C100000101000001410000051
:10172000181000001C100000201000002410000001
:10173000281000002C1000003010000034100000B1
:10174000381000003C100000401000004410000061
:10175000481000004C100000501000005410000011
:10176000581000005C1000006010000064100000C1
:10177000681000006C100000701000007410000071
:10178000781000007C100000801000008410000021
:10179000881000008C1000009010000094100000D1
:1017A000981000009C100000A0100000A410000081
:1017B000A8100000AC100000B0100000B410000031
:1017C000B8100000BC100000C0100000C4100000E1
:1017D000C8100000CC100000D0100000D410000091
:1017E000D8100000DC100000E0100000E410000041
:1017F000E8100000EC100000F0100000F4100000F1
:10180000F8100000FC10000000110000041100009E
:10181000081100000C11000010110000141100004C
:10182000181100001C1100002011000024110000FC
:10183000281100002C1100003011000034110000AC
:10184000381100003C11000040110000441100005C
:10185000481100004C11000050110000541100000C
:10186000581100005C1100006011000064110000BC
:10187000681100006C11000070110000741100006C
:10188000781100007C11000080110000841100001C
:10189000881100008C1100009011000094110000CC
:1018A000981100009C110000A0110000A41100007C
:1018B000A8110000AC110000B0110000B41100002C
:1018C000B8110000BC110000C0110000C4110000DC
:1018D000C8110000CC110000D0110000D41100008C
:1018E000D8110000DC110000E0110000E41100003C
:1018F000E8110000EC110000F0110000F4110000EC
:10190000F8110000FC110000001200000412000099
:10191000081200000C120000101200001412000047
:10192000181200001C1200002012000024120000F7
:10193000281200002C1200003012000034120000A7
:10194000381200003C120000401200004412000057
:10195000481200004C120000501200005412000007
:10196000581200005C1200006012000064120000B7
:10197000681200006C120000701200007412000067
:10198000781200007C120000801200008412000017
:10199000881200008C1200009012000094120000C7
:1019A000981200009C120000A0120000A412000077
:1019B000A8120000AC120000B0120000B412000027
:1019C000B8120000BC120000C0120000C4120000D7
:1019D000C8120000CC120000D0120000D412000087
:1019E000D8120000DC120000E0120000E412000037
:1019F000E8120000EC120000F0120000F4120000E7
:101A0000F8120000FC120000001300000413000094
:101A1000081300000C130000101300001413000042
:101A2000181300001C1300002013000024130000F2
:101A3000281300002C1300003013000034130000A2
:101A4000381300003C130000401300004413000052
:101A5000481300004C130000501300005413000002
:101A6000581300005C1300006013000064130000B2
:101A7000681300006C130000701300007413000062
:101A8000781300007C130000801300008413000012
:101A9000881300008C1300009013000094130000C2
:101AA000981300009C130000A0130000A413000072
:101AB000A8130000AC130000B0130000B413000022
:101AC000B8130000BC130000C0130000C4130000D2
:101AD000C8130000CC130000D0130000D413000082
:101AE000D8130000DC130000E0130000E413000032
:101AF000E8130000EC130000F0130000F4130000E2
:101B0000F8130000FC13000000140000041400008F
:101B1000081400000C14000010140000141400003D
:101B2000181400001C1400002014000024140000ED
:101B3000281400002C14000030140000341400009D
:101B4000381400003C14000040140000441400004D
:101B5000481400004C1400005014000054140000FD
:101B6000581400005C1400006014000064140000AD
:101B7000681400006C14000070140000741400005D
:101B8000781400007C14000080140000841400000D
:101B9000881400008C1400009014000094140000BD
:101BA000981400009C140000A0140000A41400006D
:101BB000A8140000AC140000B0140000B41400001D
:101BC000B8140000BC140000C0140000C4140000CD
:101BD000C8140000CC140000D0140000D41400007D
:101BE000D8140000DC140000E0140000E41400002D
:101BF000E8140000EC140000F0140000F4140000DD
:101C0000F8140000FC14000000150000041500008A
:101C1000081500000C150000101500001415000038
:101C2000181500001C1500002015000024150000E8
:101C3000281500002C150000301500003415000098
:101C4000381500003C150000401500004415000048
:101C5000481500004C1500005015000054150000F8
:101C6000581500005C1500006015000064150000A8
:101C7000681500006C150000701500007415000058
:101C8000781500007C150000801500008415000008
:101C9000881500008C1500009015000094150000B8
:101CA000981500009C150000A0150000A415000068
:101CB000A8150000AC150000B0150000B415000018
:101CC000B8150000BC150000C0150000C4150000C8
:101CD000C8150000CC150000D0150000D415000078
:101CE000D8150000DC150000E0150000E415000028
:101CF000E8150000EC150000F0150000F4150000D8
:101D0000F8150000FC150000001600000416000085
:101D1000081600000C160000101600001416000033
:101D2000181600001C1600002016000024160000E3
:101D3000281600002C160000301600003416000093
:101D4000381600003C160000401600004416000043
:101D5000481600004C1600005016000054160000F3
:101D6000581600005C1600006016000064160000A3
:101D7000681600006C160000701600007416000053
:101D8000781600007C160000801600008416000003
:101D9000881600008C1600009016000094160000B3
:101DA000981600009C160000A0160000A416000063
:101DB000A8160000AC160000B0160000B416000013
:101DC000B8160000BC160000C0160000C4160000C3
:101DD000C8160000CC160000D0160000D416000073
:101DE000D8160000DC160000E0160000E416000023
:101DF000E8160000EC160000F0160000F4160000D3
:101E0000F8160000FC160000001700000417000080
:101E1000081700000C17000010170000141700002E
:101E2000181700001C1700002017000024170000DE
:101E3000281700002C17000030170000341700008E
:101E4000381700003C17000040170000441700003E
:101E5000481700004C1700005017000054170000EE
:101E6000581700005C17000060170000641700009E
:101E7000681700006C17000070170000741700004E
:101E8000781700007C1700008017000084170000FE
:101E9000881700008C1700009017000094170000AE
:101EA000981700009C170000A0170000A41700005E
:101EB000A8170000AC170000B0170000B41700000E
:101EC000B8170000BC170000C0170000C4170000BE
:101ED000C8170000CC170000D0170000D41700006E
:101EE000D8170000DC170000E0170000E41700001E
:101EF000E8170000EC170000F0170000F4170000CE
:101F0000F8170000FC17000000180000041800007B
:101F1000081800000C180000101800001418000029
:101F2000181800001C1800002018000024180000D9
:101F3000281800002C180000301800003418000089
:101F4000381800003C180000401800004418000039
:101F5000481800004C1800005018000054180000E9
:101F6000581800005C180000601800006418000099
:101F7000681800006C180000701800007418000049
:101F8000781800007C1800008018000084180000F9
:101F9000881800008C1800009018000094180000A9
:101FA000981800009C180000A0180000A418000059
:101FB000A8180000AC180000B0180000B418000009
:101FC000B8180000BC180000C0180000C4180000B9
:101FD000C8180000CC180000D0180000D418000069
:101FE000D8180000DC180000E0180000E418000019
:101FF000E8180000EC180000F0180000F4180000C9
:10200000F8180000FC180000001900000419000076
:10201000081900000C190000101900001419000024
:10202000181900001C1900002019000024190000D4
:10203000281900002C190000301900003419000084
:10204000381900003C190000401900004419000034
:10205000481900004C1900005019000054190000E4
:10206000581900005C190000601900006419000094
:10207000681900006C190000701900007419000044
:10208000781900007C1900008019000084190000F4
:10209000881900008C1900009019000094190000A4
:1020A000981900009C190000A0190000A419000054
:1020B000A8190000AC190000B0190000B419000004
:1020C000B8190000BC190000C0190000C4190000B4
:1020D000C8190000CC190000D0190000D419000064
:1020E000D8190000DC190000E0190000E419000014
:1020F000E8190000EC190000F0190000F4190000C4
:10210000F8190000FC190000001A0000041A000071
:10211000081A00000C1A0000101A0000141A00001F
:10212000181A00001C1A0000201A0000241A0000CF
:10213000281A00002C1A0000301A0000341A00007F
:10214000381A00003C1A0000401A0000441A00002F
:10215000481A00004C1A0000501A0000541A0000DF
:10216000581A00005C1A0000601A0000641A00008F
:10217000681A00006C1A0000701A0000741A00003F
:10218000781A00007C1A0000801A0000841A0000EF
:10219000881A00008C1A0000901A0000941A00009F
:1021A000981A00009C1A0000A01A0000A41A00004F
:1021B000A81A0000AC1A0000B01A0000B41A0000FF
:1021C000B81A0000BC1A0000C01A0000C41A0000AF
:1021D000C81A0000CC1A0000D01A0000D41A00005F
:1021E000D81A0000DC1A0000E01A0000E41A00000F
:1021F000E81A0000EC1A0000F01A0000F41A0000BF
:10220000F81A0000FC1A0000001B0000041B00006C
:10221000081B00000C1B0000101B0000141B00001A
:10222000181B00001C1B0000201B0000241B0000CA
:10223000281B00002C1B0000301B0000341B00007A
:10224000381B00003C1B0000401B0000441B00002A
:10225000481B00004C1B0000501B0000541B0000DA
:10226000581B00005C1B0000601B0000641B00008A
:10227000681B00006C1B0000701B0000741B00003A
:10228000781B00007C1B0000801B0000841B0000EA
:10229000881B00008C1B0000901B0000941B00009A
:1022A000981B00009C1B0000A01B0000A41B00004A
:1022B000A81B0000AC1B0000B01B0000B41B0000FA
:1022C000B81B0000BC1B0000C01B0000C41B0000AA
:1022D000C81B0000CC1B0000D01B0000D41B00005A
:1022E000D81B0000DC1B0000E01B0000E41B00000A
:1022F000E81B0000EC1B0000F01B0000F41B0000BA
:10230000F81B0000FC1B0000001C0000041C000067
:10231000081C00000C1C0000101C0000141C000015
:10232000181C00001C1C0000201C0000241C0000C5
:10233000281C00002C1C0000301C0000341C000075
:10234000381C00003C1C0000401C0000441C000025
:10235000481C00004C1C0000501C0000541C0000D5
:10236000581C00005C1C0000601C0000641C000085
:10237000681C00006C1C0000701C0000741C000035
:10238000781C00007C1C0000801C0000841C0000E5
:10239000881C00008C1C0000901C0000941C000095
:1023A000981C00009C1C0000A01C0000A41C000045
:1023B000A81C0000AC1C0000B01C0000B41C0000F5
:1023C000B81C0000BC1C0000C01C0000C41C0000A5
:1023D000C81C0000CC1C0000D01C0000D41C000055
:1023E000D81C0000DC1C0000E01C0000E41C000005
:1023F000E81C0000EC1C0000F01C0000F41C0000B5
:10240000F81C0000FC1C0000001D0000041D000062
:10241000081D00000C1D0000101D0000141D000010
:10242000181D00001C1D0000201D0000241D0000C0
:10243000281D00002C1D0000301D0000341D000070
:10244000381D00003C1D0000401D0000441D000020
:10245000481D00004C1D0000501D0000541D0000D0
:10246000581D00005C1D0000601D0000641D000080
:10247000681D00006C1D0000701D0000741D000030
:10248000781D00007C1D0000801D0000841D0000E0
:10249000881D00008C1D0000901D0000941D000090
:1024A000981D00009C1D0000A01D0000A41D000040
:1024B000A81D0000AC1D0000B01D0000B41D0000F0
:1024C000B81D0000BC1D0000C01D0000C41D0000A0
:1024D000C81D0000CC1D0000D01D0000D41D000050
:1024E000D81D0000DC1D0000E01D0000E41D000000
:1024F000E81D0000EC1D0000F01D0000F41D0000B0
:10250000F81D0000FC1D0000001E0000041E00005D
:10251000081E00000C1E0000101E0000141E00000B
:10252000181E00001C1E0000201E0000241E0000BB
:10253000281E00002C1E0000301E0000341E00006B
:10254000381E00003C1E0000401E0000441E00001B
:10255000481E00004C1E0000501E0000541E0000CB
:10256000581E00005C1E0000601E0000641E00007B
:10257000681E00006C1E0000701E0000741E00002B
:10258000781E00007C1E0000801E0000841E0000DB
:10259000881E00008C1E0000901E0000941E00008B
:1025A000981E00009C1E0000A01E0000A41E00003B
:1025B000A81E0000AC1E0000B01E0000B41E0000EB
:1025C000B81E0000BC1E0000C01E0000C41E00009B
:1025D000C81E0000CC1E0000D01E0000D41E00004B
:1025E000D81E0000DC1E0000E01E0000E41E0000FB
:1025F000E81E0000EC1E0000F01E0000F41E0000AB
:10260000F81E0000FC1E0000001F0000041F000058
:10261000081F00000C1F0000101F0000141F000006
:10262000181F00001C1F0000201F0000241F0000B6
:10263000281F00002C1F0000301F0000341F000066
:10264000381F00003C1F0000401F0000441F000016
:10265000481F00004C1F0000501F0000541F0000C6
:10266000581F00005C1F0000601F0000641F000076
:10267000681F00006C1F0000701F0000741F000026
:10268000781F00007C1F0000801F0000841F0000D6
:10269000881F00008C1F0000901F0000941F000086
:1026A000981F00009C1F0000A01F0000A41F000036
:1026B000A81F0000AC1F0000B01F0000B41F0000E6
:1026C000B81F0000BC1F0000C01F0000C41F000096
:1026D000C81F0000CC1F0000D01F0000D41F000046
:1026E000D81F0000DC1F0000E01F0000E41F0000F6
:1026F000E81F0000EC1F0000F01F0000F41F0000A6
:10270000F81F0000FC1F0000002000000420000053
:10271000082000000C200000102000001420000001
:10272000182000001C2000002020000024200000B1
:10273000282000002C200000302000003420000061
:10274000382000003C200000402000004420000011
:10275000482000004C2000005020000054200000C1
:10276000582000005C200000602000006420000071
:10277000682000006C200000702000007420000021
:10278000782000007C2000008020000084200000D1
:10279000882000008C200000902000009420000081
:1027A000982000009C200000A0200000A420000031
:1027B000A8200000AC200000B0200000B4200000E1
:1027C000B8200000BC200000C0200000C420000091
:1027D000C8200000CC200000D0200000D420000041
:1027E000D8200000DC200000E0200000E4200000F1
:1027F000E8200000EC200000F0200000F4200000A1
:10280000F8200000FC20000000210000042100004E
:10281000082100000C2100001021000014210000FC
:10282000182100001C2100002021000024210000AC
:10283000282100002C21000030210000342100005C
:10284000382100003C21000040210000442100000C
:10285000482100004C2100005021000054210000BC
:10286000582100005C21000060210000642100006C
:10287000682100006C21000070210000742100001C
:10288000782100007C2100008021000084210000CC
:10289000882100008C21000090210000942100007C
:1028A000982100009C210000A0210000A42100002C
:1028B000A8210000AC210000B0210000B4210000DC
:1028C000B8210000BC210000C0210000C42100008C
:1028D000C8210000CC210000D0210000D42100003C
:1028E000D8210000DC210000E0210000E4210000EC
:1028F000E8210000EC210000F0210000F42100009C
:10290000F8210000FC210000002200000422000049
:10291000082200000C2200001022000014220000F7
:10292000182200001C2200002022000024220000A7
:10293000282200002C220000302200003422000057
:10294000382200003C220000402200004422000007
:10295000482200004C2200005022000054220000B7
:10296000582200005C220000602200006422000067
:10297000682200006C220000702200007422000017
:10298000782200007C2200008022000084220000C7
:10299000882200008C220000902200009422000077
:1029A000982200009C220000A0220000A422000027
:1029B000A8220000AC220000B0220000B4220000D7
:1029C000B8220000BC220000C0220000C422000087
:1029D000C8220000CC220000D0220000D422000037
:1029E000D8220000DC220000E0220000E4220000E7
:1029F000E8220000EC220000F0220000F422000097
:102A0000F8220000FC220000002300000423000044
:102A1000082300000C2300001023000014230000F2
:102A2000182300001C2300002023000024230000A2
:102A3000282300002C230000302300003423000052
:102A4000382300003C230000402300004423000002
:102A5000482300004C2300005023000054230000B2
:102A6000582300005C230000602300006423000062
:102A7000682300006C230000702300007423000012
:102A8000782300007C2300008023000084230000C2
:102A9000882300008C230000902300009423000072
:102AA000982300009C230000A0230000A423000022
:102AB000A8230000AC230000B0230000B4230000D2
:102AC000B8230000BC230000C0230000C423000082
:102AD000C8230000CC230000D0230000D423000032
:102AE000D8230000DC230000E0230000E4230000E2
:102AF000E8230000EC230000F0230000F423000092
:102B0000F8230000FC23000000240000042400003F
:102B1000082400000C2400001024000014240000ED
:102B2000182400001C24000020240000242400009D
:102B3000282400002C24000030240000342400004D
:102B4000382400003C2400004024000044240000FD
:102B5000482400004C2400005024000054240000AD
:102B6000582400005C24000060240000642400005D
:102B7000682400006C24000070240000742400000D
:102B8000782400007C2400008024000084240000BD
:102B9000882400008C24000090240000942400006D
:102BA000982400009C240000A0240000A42400001D
:102BB000A8240000AC240000B0240000B4240000CD
:102BC000B8240000BC240000C0240000C42400007D
:102BD000C8240000CC240000D0240000D42400002D
:102BE000D8240000DC240000E0240000E4240000DD
:102BF000E8240000EC240000F0240000F42400008D
:102C0000F8240000FC24000000250000042500003A
:102C1000082500000C2500001025000014250000E8
:102C2000182500001C250000202500002425000098
:102C3000282500002C250000302500003425000048
:102C4000382500003C2500004025000044250000F8
:102C5000482500004C2500005025000054250000A8
:102C6000582500005C250000602500006425000058
:102C7000682500006C250000702500007425000008
:102C8000782500007C2500008025000084250000B8
:102C9000882500008C250000902500009425000068
:102CA000982500009C250000A0250000A425000018
:102CB000A8250000AC250000B0250000B4250000C8
:102CC000B8250000BC250000C0250000C425000078
:102CD000C8250000CC250000D0250000D425000028
:102CE000D8250000DC250000E0250000E4250000D8
:102CF000E8250000EC250000F0250000F425000088
:102D0000F8250000FC250000002600000426000035
:102D1000082600000C2600001026000014260000E3
:102D2000182600001C260000202600002426000093
:102D3000282600002C260000302600003426000043
:102D4000382600003C2600004026000044260000F3
:102D5000482600004C2600005026000054260000A3
:102D6000582600005C260000602600006426000053
:102D7000682600006C260000702600007426000003
:102D8000782600007C2600008026000084260000B3
:102D9000882600008C260000902600009426000063
:102DA000982600009C260000A0260000A426000013
:102DB000A8260000AC260000B0260000B4260000C3
:102DC000B8260000BC260000C0260000C426000073
:102DD000C8260000CC260000D0260000D426000023
:102DE000D8260000DC260000E0260000E4260000D3
:102DF000E8260000EC260000F0260000F426000083
:102E0000F8260000FC260000002700000427000030
:102E1000082700000C2700001027000014270000DE
:102E2000182700001C27000020270000242700008E
:102E3000282700002C27000030270000342700003E
:102E4000382700003C2700004027000044270000EE
:102E5000482700004C27000050270000542700009E
:102E6000582700005C27000060270000642700004E
:102E7000682700006C2700007027000074270000FE
:102E8000782700007C2700008027000084270000AE
:102E9000882700008C27000090270000942700005E
:102EA000982700009C270000A0270000A42700000E
:102EB000A8270000AC270000B0270000B4270000BE
:102EC000B8270000BC270000C0270000C42700006E
:102ED000C8270000CC270000D0270000D42700001E
:102EE000D8270000DC270000E0270000E4270000CE
:102EF000E8270000EC270000F0270000F42700007E
:102F0000F8270000FC27000000280000042800002B
:102F1000082800000C2800001028000014280000D9
:102F2000182800001C280000202800002428000089
:102F3000282800002C280000302800003428000039
:102F4000382800003C2800004028000044280000E9
:102F5000482800004C280000502800005428000099
:102F6000582800005C280000602800006428000049
:102F7000682800006C2800007028000074280000F9
:102F8000782800007C2800008028000084280000A9
:102F9000882800008C280000902800009428000059
:102FA000982800009C280000A0280000A428000009
:102FB000A8280000AC280000B0280000B4280000B9
:102FC000B8280000BC280000C0280000C428000069
:102FD000C8280000CC280000D0280000D428000019
:102FE000D8280000DC280000E0280000E4280000C9
:102FF000E8280000EC280000F0280000F428000079
:10300000F8280000FC280000002900000429000026
:10301000082900000C2900001029000014290000D4
:10302000182900001C290000202900002429000084
:10303000282900002C290000302900003429000034
:10304000382900003C2900004029000044290000E4
:10305000482900004C290000502900005429000094
:10306000582900005C290000602900006429000044
:10307000682900006C2900007029000074290000F4
:10308000782900007C2900008029000084290000A4
:10309000882900008C290000902900009429000054
:1030A000982900009C290000A0290000A429000004
:1030B000A8290000AC290000B0290000B4290000B4
:1030C000B8290000BC290000C0290000C429000064
:1030D000C8290000CC290000D0290000D429000014
:1030E000D8290000DC290000E0290000E4290000C4
:1030F000E8290000EC290000F0290000F429000074
:10310000F8290000FC290000002A0000042A000021
:10311000082A00000C2A0000102A0000142A0000CF
:10312000182A00001C2A0000202A0000242A00007F
:10313000282A00002C2A0000302A0000342A00002F
:10314000382A00003C2A0000402A0000442A0000DF
:10315000482A00004C2A0000502A0000542A00008F
:10316000582A00005C2A0000602A0000642A00003F
:10317000682A00006C2A0000702A0000742A0000EF
:10318000782A00007C2A0000802A0000842A00009F
:10319000882A00008C2A0000902A0000942A00004F
:1031A000982A00009C2A0000A02A0000A42A0000FF
:1031B000A82A0000AC2A0000B02A0000B42A0000AF
:1031C000B82A0000BC2A0000C02A0000C42A00005F
:1031D000C82A0000CC2A0000D02A0000D42A00000F
:1031E000D82A0000DC2A0000E02A0000E42A0000BF
:1031F000E82A0000EC2A0000F02A0000F42A00006F
:10320000F82A0000FC2A0000002B0000042B00001C
:10321000082B00000C2B0000102B0000142B0000CA
:10322000182B00001C2B0000202B0000242B00007A
:10323000282B00002C2B0000302B0000342B00002A
:10324000382B00003C2B0000402B0000442B0000DA
:10325000482B00004C2B0000502B0000542B00008A
:10326000582B00005C2B0000602B0000642B00003A
:10327000682B00006C2B0000702B0000742B0000EA
:10328000782B00007C2B0000802B0000842B00009A
:10329000882B00008C2B0000902B0000942B00004A
:1032A000982B00009C2B0000A02B0000A42B0000FA
:1032B000A82B0000AC2B0000B02B0000B42B0000AA
:1032C000B82B0000BC2B0000C02B0000C42B00005A
:1032D000C82B0000CC2B0000D02B0000D42B00000A
:1032E000D82B0000DC2B0000E02B0000E42B0000BA
:1032F000E82B0000EC2B0000F02B0000F42B00006A
:10330000F82B0000FC2B0000002C0000042C000017
:10331000082C00000C2C0000102C0000142C0000C5
:10332000182C00001C2C0000202C0000242C000075
:10333000282C00002C2C0000302C0000342C000025
:10334000382C00003C2C0000402C0000442C0000D5
:10335000482C00004C2C0000502C0000542C000085
:10336000582C00005C2C0000602C0000642C000035
:10337000682C00006C2C0000702C0000742C0000E5
:10338000782C00007C2C0000802C0000842C000095
:10339000882C00008C2C0000902C0000942C000045
:1033A000982C00009C2C0000A02C0000A42C0000F5
:1033B000A82C0000AC2C0000B02C0000B42C0000A5
:1033C000B82C0000BC2C0000C02C0000C42C000055
:1033D000C82C0000CC2C0000D02C0000D42C000005
:1033E000D82C0000DC2C0000E02C0000E42C0000B5
:1033F000E82C0000EC2C0000F02C0000F42C000065
:10340000F82C0000FC2C0000002D0000042D000012
:10341000082D00000C2D0000102D0000142D0000C0
:10342000182D00001C2D0000202D0000242D000070
:10343000282D00002C2D0000302D0000342D000020
:10344000382D00003C2D0000402D0000442D0000D0
:10345000482D00004C2D0000502D0000542D000080
:10346000582D00005C2D0000602D0000642D000030
:10347000682D00006C2D0000702D0000742D0000E0
:10348000782D00007C2D0000802D0000842D000090
:10349000882D00008C2D0000902D0000942D000040
:1034A000982D00009C2D0000A02D0000A42D0000F0
:1034B000A82D0000AC2D0000B02D0000B42D0000A0
:1034C000B82D0000BC2D0000C02D0000C42D000050
:1034D000C82D0000CC2D0000D02D0000D42D000000
:1034E000D82D0000DC2D0000E02D0000E42D0000B0
:1034F000E82D0000EC2D0000F02D0000F42D000060
:10350000F82D0000FC2D0000002E0000042E00000D
:10351000082E00000C2E0000102E0000142E0000BB
:10352000182E00001C2E0000202E0000242E00006B
:10353000282E00002C2E0000302E0000342E00001B
:10354000382E00003C2E0000402E0000442E0000CB
:10355000482E00004C2E0000502E0000542E00007B
:10356000582E00005C2E0000602E0000642E00002B
:10357000682E00006C2E0000702E0000742E0000DB
:10358000782E00007C2E0000802E0000842E00008B
:10359000882E00008C2E0000902E0000942E00003B
:1035A000982E00009C2E0000A02E0000A42E0000EB
:1035B000A82E0000AC2E0000B02E0000B42E00009B
:1035C000B82E0000BC2E0000C02E0000C42E00004B
:1035D000C82E0000CC2E0000D02E0000D42E0000FB
:1035E000D82E0000DC2E0000E02E0000E42E0000AB
:1035F000E82E0000EC2E0000F02E0000F42E00005B
:10360000F82E0000FC2E0000002F0000042F000008
:10361000082F00000C2F0000102F0000142F0000B6
:10362000182F00001C2F0000202F0000242F000066
:10363000282F00002C2F0000302F0000342F000016
:10364000382F00003C2F0000402F0000442F0000C6
:10365000482F00004C2F0000502F0000542F000076
:10366000582F00005C2F0000602F0000642F000026
:10367000682F00006C2F0000702F0000742F0000D6
:10368000782F00007C2F0000802F0000842F000086
:10369000882F00008C2F0000902F0000942F000036
:1036A000982F00009C2F0000A02F0000A42F0000E6
:1036B000A82F0000AC2F0000B02F0000B42F000096
:1036C000B82F0000BC2F0000C02F0000C42F000046
:1036D000C82F0000CC2F0000D02F0000D42F0000F6
:1036E000D82F0000DC2F0000E02F0000E42F0000A6
:1036F000E82F0000EC2F0000F02F0000F42F000056
:10370000F82F0000FC2F0000003000000430000003
:10371000083000000C3000001030000014300000B1
:10372000183000001C300000203000002430000061
:10373000283000002C300000303000003430000011
:10374000383000003C3000004030000044300000C1
:10375000483000004C300000503000005430000071
:10376000583000005C300000603000006430000021
:10377000683000006C3000007030000074300000D1
:10378000783000007C300000803000008430000081
:10379000883000008C300000903000009430000031
:1037A000983000009C300000A0300000A4300000E1
:1037B000A8300000AC300000B0300000B430000091
:1037C000B8300000BC300000C0300000C430000041
:1037D000C8300000CC300000D0300000D4300000F1
:1037E000D8300000DC300000E0300000E4300000A1
:1037F000E8300000EC300000F0300000F430000051
:10380000F8300000FC3000000031000004310000FE
:10381000083100000C3100001031000014310000AC
:10382000183100001C31000020310000243100005C
:10383000283100002C31000030310000343100000C
:10384000383100003C3100004031000044310000BC
:10385000483100004C31000050310000543100006C
:10386000583100005C31000060310000643100001C
:10387000683100006C3100007031000074310000CC
:10388000783100007C31000080310000843100007C
:10389000883100008C31000090310000943100002C
:1038A000983100009C310000A0310000A4310000DC
:1038B000A8310000AC310000B0310000B43100008C
:1038C000B8310000BC310000C0310000C43100003C
:1038D000C8310000CC310000D0310000D4310000EC
:1038E000D8310000DC310000E0310000E43100009C
:1038F000E8310000EC310000F0310000F43100004C
:10390000F8310000FC3100000032000004320000F9
:10391000083200000C3200001032000014320000A7
:10392000183200001C320000203200002432000057
:10393000283200002C320000303200003432000007
:10394000383200003C3200004032000044320000B7
:10395000483200004C320000503200005432000067
:10396000583200005C320000603200006432000017
:10397000683200006C3200007032000074320000C7
:10398000783200007C320000803200008432000077
:10399000883200008C320000903200009432000027
:1039A000983200009C320000A0320000A4320000D7
:1039B000A8320000AC320000B0320000B432000087
:1039C000B8320000BC320000C0320000C432000037
:1039D000C8320000CC320000D0320000D4320000E7
:1039E000D8320000DC320000E0320000E432000097
:1039F000E8320000EC320000F0320000F432000047
:103A0000F8320000FC3200000033000004330000F4
:103A1000083300000C3300001033000014330000A2
:103A2000183300001C330000203300002433000052
:103A3000283300002C330000303300003433000002
:103A4000383300003C3300004033000044330000B2
:103A5000483300004C330000503300005433000062
:103A6000583300005C330000603300006433000012
:103A7000683300006C3300007033000074330000C2
:103A8000783300007C330000803300008433000072
:103A9000883300008C330000903300009433000022
:103AA000983300009C330000A0330000A4330000D2
:103AB000A8330000AC330000B0330000B433000082
:103AC000B8330000BC330000C0330000C433000032
:103AD000C8330000CC330000D0330000D4330000E2
:103AE000D8330000DC330000E0330000E433000092
:103AF000E8330000EC330000F0330000F433000042
:103B0000F8330000FC3300000034000004340000EF
:103B1000083400000C34000010340000143400009D
:103B2000183400001C34000020340000243400004D
:103B3000283400002C3400003034000034340000FD
:103B4000383400003C3400004034000044340000AD
:103B5000483400004C34000050340000543400005D
:103B6000583400005C34000060340000643400000D
:103B7000683400006C3400007034000074340000BD
:103B8000783400007C34000080340000843400006D
:103B9000883400008C34000090340000943400001D
:103BA000983400009C340000A0340000A4340000CD
:103BB000A8340000AC340000B0340000B43400007D
:103BC000B8340000BC340000C0340000C43400002D
:103BD000C8340000CC340000D0340000D4340000DD
:103BE000D8340000DC340000E0340000E43400008D
:103BF000E8340000EC340000F0340000F43400003D
:103C0000F8340000FC3400000035000004350000EA
:103C1000083500000C350000103500001435000098
:103C2000183500001C350000203500002435000048
:103C3000283500002C3500003035000034350000F8
:103C4000383500003C3500004035000044350000A8
:103C5000483500004C350000503500005435000058
:103C6000583500005C350000603500006435000008
:103C7000683500006C3500007035000074350000B8
:103C8000783500007C350000803500008435000068
:103C9000883500008C350000903500009435000018
:103CA000983500009C350000A0350000A4350000C8
:103CB000A8350000AC350000B0350000B435000078
:103CC000B8350000BC350000C0350000C435000028
:103CD000C8350000CC350000D0350000D4350000D8
:103CE000D8350000DC350000E0350000E435000088
:103CF000E8350000EC350000F0350000F435000038
:103D0000F8350000FC3500000036000004360000E5
:103D1000083600000C360000103600001436000093
:103D2000183600001C360000203600002436000043
:103D3000283600002C3600003036000034360000F3
:103D4000383600003C3600004036000044360000A3
:103D5000483600004C360000503600005436000053
:103D6000583600005C360000603600006436000003
:103D7000683600006C3600007036000074360000B3
:103D8000783600007C360000803600008436000063
:103D9000883600008C360000903600009436000013
:103DA000983600009C360000A0360000A4360000C3
:103DB000A8360000AC360000B0360000B436000073
:103DC000B8360000BC360000C0360000C436000023
:103DD000C8360000CC360000D0360000D4360000D3
:103DE000D8360000DC360000E0360000E436000083
:103DF000E8360000EC360000F0360000F436000033
:103E0000F8360000FC3600000037000004370000E0
:103E1000083700000C37000010370000143700008E
:103E2000183700001C37000020370000243700003E
:103E3000283700002C3700003037000034370000EE
:103E4000383700003C37000040370000443700009E
:103E5000483700004C37000050370000543700004E
:103E6000583700005C3700006037000064370000FE
:103E7000683700006C3700007037000074370000AE
:103E8000783700007C37000080370000843700005E
:103E9000883700008C37000090370000943700000E
:103EA000983700009C370000A0370000A4370000BE
:103EB000A8370000AC370000B0370000B43700006E
:103EC000B8370000BC370000C0370000C43700001E
:103ED000C8370000CC370000D0370000D4370000CE
:103EE000D8370000DC370000E0370000E43700007E
:103EF000E8370000EC370000F0370000F43700002E
:103F0000F8370000FC3700000038000004380000DB
:103F1000083800000C380000103800001438000089
:103F2000183800001C380000203800002438000039
:103F3000283800002C3800003038000034380000E9
:103F4000383800003C380000403800004438000099
:103F5000483800004C380000503800005438000049
:103F6000583800005C3800006038000064380000F9
:103F7000683800006C3800007038000074380000A9
:103F8000783800007C380000803800008438000059
:103F9000883800008C380000903800009438000009
:103FA000983800009C380000A0380000A4380000B9
:103FB000A8380000AC380000B0380000B438000069
:103FC000B8380000BC380000C0380000C438000019
:103FD000C8380000CC380000D0380000D4380000C9
:103FE000D8380000DC380000E0380000E438000079
:103FF000E8380000EC380000F0380000F438000029
:10400000F8380000FC3800000039000004390000D6
:10401000083900000C390000103900001439000084
:10402000183900001C390000203900002439000034
:10403000283900002C3900003039000034390000E4
:10404000383900003C390000403900004439000094
:10405000483900004C390000503900005439000044
:10406000583900005C3900006039000064390000F4
:10407000683900006C3900007039000074390000A4
:10408000783900007C390000803900008439000054
:10409000883900008C390000903900009439000004
:1040A000983900009C390000A0390000A4390000B4
:1040B000A8390000AC390000B0390000B439000064
:1040C000B8390000BC390000C0390000C439000014
:1040D000C8390000CC390000D0390000D4390000C4
:1040E000D8390000DC390000E0390000E439000074
:1040F000E8390000EC390000F0390000F439000024
:10410000F8390000FC390000003A0000043A0000D1
:10411000083A00000C3A0000103A0000143A00007F
:10412000183A00001C3A0000203A0000243A00002F
:10413000283A00002C3A0000303A0000343A0000DF
:10414000383A00003C3A0000403A0000443A00008F
:10415000483A00004C3A0000503A0000543A00003F
:10416000583A00005C3A0000603A0000643A0000EF
:10417000683A00006C3A0000703A0000743A00009F
:10418000783A00007C3A0000803A0000843A00004F
:10419000883A00008C3A0000903A0000943A0000FF
:1041A000983A00009C3A0000A03A0000A43A0000AF
:1041B000A83A0000AC3A0000B03A0000B43A00005F
:1041C000B83A0000BC3A0000C03A0000C43A00000F
:1041D000C83A0000CC3A0000D03A0000D43A0000BF
:1041E000D83A0000DC3A0000E03A0000E43A00006F
:1041F000E83A0000EC3A0000F03A0000F43A00001F
:10420000F83A0000FC3A0000003B0000043B0000CC
:10421000083B00000C3B0000103B0000143B00007A
:10422000183B00001C3B0000203B0000243B00002A
:10423000283B00002C3B0000303B0000343B0000DA
:10424000383B00003C3B0000403B0000443B00008A
:10425000483B00004C3B0000503B0000543B00003A
:10426000583B00005C3B0000603B0000643B0000EA
:10427000683B00006C3B0000703B0000743B00009A
:10428000783B00007C3B0000803B0000843B00004A
:10429000883B00008C3B0000903B0000943B0000FA
:1042A000983B00009C3B0000A03B0000A43B0000AA
:1042B000A83B0000AC3B0000B03B0000B43B00005A
:1042C000B83B0000BC3B0000C03B0000C43B00000A
:1042D000C83B0000CC3B0000D03B0000D43B0000BA
:1042E000D83B0000DC3B0000E03B0000E43B00006A
:1042F000E83B0000EC3B0000F03B0000F43B00001A
:10430000F83B0000FC3B0000003C0000043C0000C7
:10431000083C00000C3C0000103C0000143C000075
:10432000183C00001C3C0000203C0000243C000025
:10433000283C00002C3C0000303C0000343C0000D5
:10434000383C00003C3C0000403C0000443C000085
:10435000483C00004C3C0000503C0000543C000035
:10436000583C00005C3C0000603C0000643C0000E5
:10437000683C00006C3C0000703C0000743C000095
:10438000783C00007C3C0000803C0000843C000045
:10439000883C00008C3C0000903C0000943C0000F5
:1043A000983C00009C3C0000A03C0000A43C0000A5
:1043B000A83C0000AC3C0000B03C0000B43C000055
:1043C000B83C0000BC3C0000C03C0000C43C000005
:1043D000C83C0000CC3C0000D03C0000D43C0000B5
:1043E000D83C0000DC3C0000E03C0000E43C000065
:1043F000E83C0000EC3C0000F03C0000F43C000015
:10440000F83C0000FC3C0000003D0000043D0000C2
:10441000083D00000C3D0000103D0000143D000070
:10442000183D00001C3D0000203D0000243D000020
:10443000283D00002C3D0000303D0000343D0000D0
:10444000383D00003C3D0000403D0000443D000080
:10445000483D00004C3D0000503D0000543D000030
:10446000583D00005C3D0000603D0000643D0000E0
:10447000683D00006C3D0000703D0000743D000090
:10448000783D00007C3D0000803D0000843D000040
:10449000883D00008C3D0000903D0000943D0000F0
:1044A000983D00009C3D0000A03D0000A43D0000A0
:1044B000A83D0000AC3D0000B03D0000B43D000050
:1044C000B83D0000BC3D0000C03D0000C43D000000
:1044D000C83D0000CC3D0000D03D0000D43D0000B0
:1044E000D83D0000DC3D0000E03D0000E43D000060
:1044F000E83D0000EC3D0000F03D0000F43D000010
:10450000F83D0000FC3D0000003E0000043E0000BD
:10451000083E00000C3E0000103E0000143E00006B
:10452000183E00001C3E0000203E0000243E00001B
:10453000283E00002C3E0000303E0000343E0000CB
:10454000383E00003C3E0000403E0000443E00007B
:10455000483E00004C3E0000503E0000543E00002B
:10456000583E00005C3E0000603E0000643E0000DB
:10457000683E00006C3E0000703E0000743E00008B
:10458000783E00007C3E0000803E0000843E00003B
:10459000883E00008C3E0000903E0000943E0000EB
:1045A000983E00009C3E0000A03E0000A43E00009B
:1045B000A83E0000AC3E0000B03E0000B43E00004B
:1045C000B83E0000BC3E0000C03E0000C43E0000FB
:1045D000C83E0000CC3E0000D03E0000D43E0000AB
:1045E000D83E0000DC3E0000E03E0000E43E00005B
:1045F000E83E0000EC3E0000F03E0000F43E00000B
:10460000F83E0000FC3E0000003F0000043F0000B8
:10461000083F00000C3F0000103F0000143F000066
:10462000183F00001C3F0000203F0000243F000016
:10463000283F00002C3F0000303F0000343F0000C6
:10464000383F00003C3F0000403F0000443F000076
:10465000483F00004C3F0000503F0000543F000026
:10466000583F00005C3F0000603F0000643F0000D6
:10467000683F00006C3F0000703F0000743F000086
:10468000783F00007C3F0000803F0000843F000036
:10469000883F00008C3F0000903F0000943F0000E6
:1046A000983F00009C3F0000A03F0000A43F000096
:1046B000A83F0000AC3F0000B03F0000B43F000046
:1046C000B83F0000BC3F0000C03F0000C43F0000F6
:1046D000C83F0000CC3F0000D03F0000D43F0000A6
:1046E000D83F0000DC3F0000E03F0000E43F000056
:1046F000E83F0000EC3F0000F03F0000F43F000006
:10470000F83F0000FC3F00000040000004400000B3
:10471000084000000C400000104000001440000061
:10472000184000001C400000204000002440000011
:10473000284000002C4000003040000034400000C1
:10474000384000003C400000404000004440000071
:10475000484000004C400000504000005440000021
:10476000584000005C4000006040000064400000D1
:10477000684000006C400000704000007440000081
:10478000784000007C400000804000008440000031
:10479000884000008C4000009040000094400000E1
:1047A000984000009C400000A0400000A440000091
:1047B000A8400000AC400000B0400000B440000041
:1047C000B8400000BC400000C0400000C4400000F1
:1047D000C8400000CC400000D0400000D4400000A1
:1047E000D8400000DC400000E0400000E440000051
:1047F000E8400000EC400000F0400000F440000001
:10480000F8400000FC4000000041000004410000AE
:10481000084100000C41000010410000144100005C
:10482000184100001C41000020410000244100000C
:10483000284100002C4100003041000034410000BC
:10484000384100003C41000040410000444100006C
:10485000484100004C41000050410000544100001C
:10486000584100005C4100006041000064410000CC
:10487000684100006C41000070410000744100007C
:10488000784100007C41000080410000844100002C
:10489000884100008C4100009041000094410000DC
:1048A000984100009C410000A0410000A44100008C
:1048B000A8410000AC410000B0410000B44100003C
:1048C000B8410000BC410000C0410000C4410000EC
:1048D000C8410000CC410000D0410000D44100009C
:1048E000D8410000DC410000E0410000E44100004C
:1048F000E8410000EC410000F0410000F4410000FC
:10490000F8410000FC4100000042000004420000A9
:10491000084200000C420000104200001442000057
:10492000184200001C420000204200002442000007
:10493000284200002C4200003042000034420000B7
:10494000384200003C420000404200004442000067
:10495000484200004C420000504200005442000017
:10496000584200005C4200006042000064420000C7
:10497000684200006C420000704200007442000077
:10498000784200007C420000804200008442000027
:10499000884200008C4200009042000094420000D7
:1049A000984200009C420000A0420000A442000087
:1049B000A8420000AC420000B0420000B442000037
:1049C000B8420000BC420000C0420000C4420000E7
:1049D000C8420000CC420000D0420000D442000097
:1049E000D8420000DC420000E0420000E442000047
:1049F000E8420000EC420000F0420000F4420000F7
:104A0000F8420000FC4200000043000004430000A4
:104A1000084300000C430000104300001443000052
:104A2000184300001C430000204300002443000002
:104A3000284300002C4300003043000034430000B2
:104A4000384300003C430000404300004443000062
:104A5000484300004C430000504300005443000012
:104A6000584300005C4300006043000064430000C2
:104A7000684300006C430000704300007443000072
:104A8000784300007C430000804300008443000022
:104A9000884300008C4300009043000094430000D2
:104AA000984300009C430000A0430000A443000082
:104AB000A8430000AC430000B0430000B443000032
:104AC000B8430000BC430000C0430000C4430000E2
:104AD000C8430000CC430000D0430000D443000092
:104AE000D8430000DC430000E0430000E443000042
:104AF000E8430000EC430000F0430000F4430000F2
:104B0000F8430000FC43000000440000044400009F
:104B1000084400000C44000010440000144400004D
:104B2000184400001C4400002044000024440000FD
:104B3000284400002C4400003044000034440000AD
:104B4000384400003C44000040440000444400005D
:104B5000484400004C44000050440000544400000D
:104B6000584400005C4400006044000064440000BD
:104B7000684400006C44000070440000744400006D
:104B8000784400007C44000080440000844400001D
:104B9000884400008C4400009044000094440000CD
:104BA000984400009C440000A0440000A44400007D
:104BB000A8440000AC440000B0440000B44400002D
:104BC000B8440000BC440000C0440000C4440000DD
:104BD000C8440000CC440000D0440000D44400008D
:104BE000D8440000DC440000E0440000E44400003D
:104BF000E8440000EC440000F0440000F4440000ED
:104C0000F8440000FC44000000450000044500009A
:104C1000084500000C450000104500001445000048
:104C2000184500001C4500002045000024450000F8
:104C3000284500002C4500003045000034450000A8
:104C4000384500003C450000404500004445000058
:104C5000484500004C450000504500005445000008
:104C6000584500005C4500006045000064450000B8
:104C7000684500006C450000704500007445000068
:104C8000784500007C450000804500008445000018
:104C9000884500008C4500009045000094450000C8
:104CA000984500009C450000A0450000A445000078
:104CB000A8450000AC450000B0450000B445000028
:104CC000B8450000BC450000C0450000C4450000D8
:104CD000C8450000CC450000D0450000D445000088
:104CE000D8450000DC450000E0450000E445000038
:104CF000E8450000EC450000F0450000F4450000E8
:104D0000F8450000FC450000004600000446000095
:104D1000084600000C460000104600001446000043
:104D2000184600001C4600002046000024460000F3
:104D3000284600002C4600003046000034460000A3
:104D4000384600003C460000404600004446000053
:104D5000484600004C460000504600005446000003
:104D6000584600005C4600006046000064460000B3
:104D7000684600006C460000704600007446000063
:104D8000784600007C460000804600008446000013
:104D9000884600008C4600009046000094460000C3
:104DA000984600009C460000A0460000A446000073
:104DB000A8460000AC460000B0460000B446000023
:104DC000B8460000BC460000C0460000C4460000D3
:104DD000C8460000CC460000D0460000D446000083
:104DE000D8460000DC460000E0460000E446000033
:104DF000E8460000EC460000F0460000F4460000E3
:104E0000F8460000FC460000004700000447000090
:104E1000084700000C47000010470000144700003E
:104E2000184700001C4700002047000024470000EE
:104E3000284700002C47000030470000344700009E
:104E4000384700003C47000040470000444700004E
:104E5000484700004C4700005047000054470000FE
:104E6000584700005C4700006047000064470000AE
:104E7000684700006C47000070470000744700005E
:104E8000784700007C47000080470000844700000E
:104E9000884700008C4700009047000094470000BE
:104EA000984700009C470000A0470000A44700006E
:104EB000A8470000AC470000B0470000B44700001E
:104EC000B8470000BC470000C0470000C4470000CE
:104ED000C8470000CC470000D0470000D44700007E
:104EE000D8470000DC470000E0470000E44700002E
:104EF000E8470000EC470000F0470000F4470000DE
:104F0000F8470000FC47000000480000044800008B
:104F1000084800000C480000104800001448000039
:104F2000184800001C4800002048000024480000E9
:104F3000284800002C480000304800003448000099
:104F4000384800003C480000404800004448000049
:104F5000484800004C4800005048000054480000F9
:104F6000584800005C4800006048000064480000A9
:104F7000684800006C480000704800007448000059
:104F8000784800007C480000804800008448000009
:104F9000884800008C4800009048000094480000B9
:104FA000984800009C480000A0480000A448000069
:104FB000A8480000AC480000B0480000B448000019
:104FC000B8480000BC480000C0480000C4480000C9
:104FD000C8480000CC480000D0480000D448000079
:104FE000D8480000DC480000E0480000E448000029
:104FF000E8480000EC480000F0480000F4480000D9
:10500000F8480000FC480000004900000449000086
:10501000084900000C490000104900001449000034
:10502000184900001C4900002049000024490000E4
:10503000284900002C490000304900003449000094
:10504000384900003C490000404900004449000044
:10505000484900004C4900005049000054490000F4
:10506000584900005C4900006049000064490000A4
:10507000684900006C490000704900007449000054
:10508000784900007C490000804900008449000004
:10509000884900008C4900009049000094490000B4
:1050A000984900009C490000A0490000A449000064
:1050B000A8490000AC490000B0490000B449000014
:1050C000B8490000BC490000C0490000C4490000C4
:1050D000C8490000CC490000D0490000D449000074
:1050E000D8490000DC490000E0490000E449000024
:1050F000E8490000EC490000F0490000F4490000D4
:10510000F8490000FC490000004A0000044A000081
:10511000084A00000C4A0000104A0000144A00002F
:10512000184A00001C4A0000204A0000244A0000DF
:10513000284A00002C4A0000304A0000344A00008F
:10514000384A00003C4A0000404A0000444A00003F
:10515000484A00004C4A0000504A0000544A0000EF
:10516000584A00005C4A0000604A0000644A00009F
:10517000684A00006C4A0000704A0000744A00004F
:10518000784A00007C4A0000804A0000844A0000FF
:10519000884A00008C4A0000904A0000944A0000AF
:1051A000984A00009C4A0000A04A0000A44A00005F
:1051B000A84A0000AC4A0000B04A0000B44A00000F
:1051C000B84A0000BC4A0000C04A0000C44A0000BF
:1051D000C84A0000CC4A0000D04A0000D44A00006F
:1051E000D84A0000DC4A0000E04A0000E44A00001F
:1051F000E84A0000EC4A0000F04A0000F44A0000CF
:10520000F84A0000FC4A0000004B0000044B00007C
:10521000084B00000C4B0000104B0000144B00002A
:10522000184B00001C4B0000204B0000244B0000DA
:10523000284B00002C4B0000304B0000344B00008A
:10524000384B00003C4B0000404B0000444B00003A
:10525000484B00004C4B0000504B0000544B0000EA
:10526000584B00005C4B0000604B0000644B00009A
:10527000684B00006C4B0000704B0000744B00004A
:10528000784B00007C4B0000804B0000844B0000FA
:10529000884B00008C4B0000904B0000944B0000AA
:1052A000984B00009C4B0000A04B0000A44B00005A
:1052B000A84B0000AC4B0000B04B0000B44B00000A
:1052C000B84B0000BC4B0000C04B0000C44B0000BA
:1052D000C84B0000CC4B0000D04B0000D44B00006A
:1052E000D84B0000DC4B0000E04B0000E44B00001A
:1052F000E84B0000EC4B0000F04B0000F44B0000CA
:10530000F84B0000FC4B0000004C0000044C000077
:10531000084C00000C4C0000104C0000144C000025
:10532000184C00001C4C0000204C0000244C0000D5
:10533000284C00002C4C0000304C0000344C000085
:10534000384C00003C4C0000404C0000444C000035
:10535000484C00004C4C0000504C0000544C0000E5
:10536000584C00005C4C0000604C0000644C000095
:10537000684C00006C4C0000704C0000744C000045
:10538000784C00007C4C0000804C0000844C0000F5
:10539000884C00008C4C0000904C0000944C0000A5
:1053A000984C00009C4C0000A04C0000A44C000055
:1053B000A84C0000AC4C0000B04C0000B44C000005
:1053C000B84C0000BC4C0000C04C0000C44C0000B5
:1053D000C84C0000CC4C0000D04C0000D44C000065
:1053E000D84C0000DC4C0000E04C0000E44C000015
:1053F000E84C0000EC4C0000F04C0000F44C0000C5
:10540000F84C0000FC4C0000004D0000044D000072
:10541000084D00000C4D0000104D0000144D000020
:10542000184D00001C4D0000204D0000244D0000D0
:10543000284D00002C4D0000304D0000344D000080
:10544000384D00003C4D0000404D0000444D000030
:10545000484D00004C4D0000504D0000544D0000E0
:10546000584D00005C4D0000604D0000644D000090
:10547000684D00006C4D0000704D0000744D000040
:10548000784D00007C4D0000804D0000844D0000F0
:10549000884D00008C4D0000904D0000944D0000A0
:1054A000984D00009C4D0000A04D0000A44D000050
:1054B000A84D0000AC4D0000B04D0000B44D000000
:1054C000B84D0000BC4D0000C04D0000C44D0000B0
:1054D000C84D0000CC4D0000D04D0000D44D000060
:1054E000D84D0000DC4D0000E04D0000E44D000010
:1054F000E84D0000EC4D0000F04D0000F44D0000C0
:10550000F84D0000FC4D0000004E0000044E00006D
:10551000084E00000C4E0000104E0000144E00001B
:10552000184E00001C4E0000204E0000244E0000CB
:10553000284E00002C4E0000304E0000344E00007B
:10554000384E00003C4E0000404E0000444E00002B
:10555000484E00004C4E0000504E0000544E0000DB
:10556000584E00005C4E0000604E0000644E00008B
:10557000684E00006C4E0000704E0000744E00003B
:10558000784E00007C4E0000804E0000844E0000EB
:10559000884E00008C4E0000904E0000944E00009B
:1055A000984E00009C4E0000A04E0000A44E00004B
:1055B000A84E0000AC4E0000B04E0000B44E0000FB
:1055C000B84E0000BC4E0000C04E0000C44E0000AB
:1055D000C84E0000CC4E0000D04E0000D44E00005B
:1055E000D84E0000DC4E0000E04E0000E44E00000B
:1055F000E84E0000EC4E0000F04E0000F44E0000BB
:10560000F84E0000FC4E0000004F0000044F000068
:10561000084F00000C4F0000104F0000144F000016
:10562000184F00001C4F0000204F0000244F0000C6
:10563000284F00002C4F0000304F0000344F000076
:10564000384F00003C4F0000404F0000444F000026
:10565000484F00004C4F0000504F0000544F0000D6
:10566000584F00005C4F0000604F0000644F000086
:10567000684F00006C4F0000704F0000744F000036
:10568000784F00007C4F0000804F0000844F0000E6
:10569000884F00008C4F0000904F0000944F000096
:1056A000984F00009C4F0000A04F0000A44F000046
:1056B000A84F0000AC4F0000B04F0000B44F0000F6
:1056C000B84F0000BC4F0000C04F0000C44F0000A6
:1056D000C84F0000CC4F0000D04F0000D44F000056
:1056E000D84F0000DC4F0000E04F0000E44F000006
:1056F000E84F0000EC4F0000F04F0000F44F0000B6
:10570000F84F0000FC4F0000005000000450000063
:10571000085000000C500000105000001450000011
:10572000185000001C5000002050000024500000C1
:10573000285000002C500000305000003450000071
:10574000385000003C500000405000004450000021
:10575000485000004C5000005050000054500000D1
:10576000585000005C500000605000006450000081
:10577000685000006C500000705000007450000031
:10578000785000007C5000008050000084500000E1
:10579000885000008C500000905000009450000091
:1057A000985000009C500000A0500000A450000041
:1057B000A8500000AC500000B0500000B4500000F1
:1057C000B8500000BC500000C0500000C4500000A1
:1057D000C8500000CC500000D0500000D450000051
:1057E000D8500000DC500000E0500000E450000001
:1057F000E8500000EC500000F0500000F4500000B1
:10580000F8500000FC50000000510000045100005E
:10581000085100000C51000010510000145100000C
:10582000185100001C5100002051000024510000BC
:10583000285100002C51000030510000345100006C
:10584000385100003C51000040510000445100001C
:10585000485100004C5100005051000054510000CC
:10586000585100005C51000060510000645100007C
:10587000685100006C51000070510000745100002C
:10588000785100007C5100008051000084510000DC
:10589000885100008C51000090510000945100008C
:1058A000985100009C510000A0510000A45100003C
:1058B000A8510000AC510000B0510000B4510000EC
:1058C000B8510000BC510000C0510000C45100009C
:1058D000C8510000CC510000D0510000D45100004C
:1058E000D8510000DC510000E0510000E4510000FC
:1058F000E8510000EC510000F0510000F4510000AC
:10590000F8510000FC510000005200000452000059
:10591000085200000C520000105200001452000007
:10592000185200001C5200002052000024520000B7
:10593000285200002C520000305200003452000067
:10594000385200003C520000405200004452000017
:10595000485200004C5200005052000054520000C7
:10596000585200005C520000605200006452000077
:10597000685200006C520000705200007452000027
:10598000785200007C5200008052000084520000D7
:10599000885200008C520000905200009452000087
:1059A000985200009C520000A0520000A452000037
:1059B000A8520000AC520000B0520000B4520000E7
:1059C000B8520000BC520000C0520000C452000097
:1059D000C8520000CC520000D0520000D452000047
:1059E000D8520000DC520000E0520000E4520000F7
:1059F000E8520000EC520000F0520000F4520000A7
:105A0000F8520000FC520000005300000453000054
:105A1000085300000C530000105300001453000002
:105A2000185300001C5300002053000024530000B2
:105A3000285300002C530000305300003453000062
:105A4000385300003C530000405300004453000012
:105A5000485300004C5300005053000054530000C2
:105A6000585300005C530000605300006453000072
:105A7000685300006C530000705300007453000022
:105A8000785300007C5300008053000084530000D2
:105A9000885300008C530000905300009453000082
:105AA000985300009C530000A0530000A453000032
:105AB000A8530000AC530000B0530000B4530000E2
:105AC000B8530000BC530000C0530000C453000092
:105AD000C8530000CC530000D0530000D453000042
:105AE000D8530000DC530000E0530000E4530000F2
:105AF000E8530000EC530000F0530000F4530000A2
:105B0000F8530000FC53000000540000045400004F
:105B1000085400000C5400001054000014540000FD
:105B2000185400001C5400002054000024540000AD
:105B3000285400002C54000030540000345400005D
:105B4000385400003C54000040540000445400000D
:105B5000485400004C5400005054000054540000BD
:105B6000585400005C54000060540000645400006D
:105B7000685400006C54000070540000745400001D
:105B8000785400007C5400008054000084540000CD
:105B9000885400008C54000090540000945400007D
:105BA000985400009C540000A0540000A45400002D
:105BB000A8540000AC540000B0540000B4540000DD
:105BC000B8540000BC540000C0540000C45400008D
:105BD000C8540000CC540000D0540000D45400003D
:105BE000D8540000DC540000E0540000E4540000ED
:105BF000E8540000EC540000F0540000F45400009D
:105C0000F8540000FC54000000550000045500004A
:105C1000085500000C5500001055000014550000F8
:105C2000185500001C5500002055000024550000A8
:105C3000285500002C550000305500003455000058
:105C4000385500003C550000405500004455000008
:105C5000485500004C5500005055000054550000B8
:105C6000585500005C550000605500006455000068
:105C7000685500006C550000705500007455000018
:105C8000785500007C5500008055000084550000C8
:105C9000885500008C550000905500009455000078
:105CA000985500009C550000A0550000A455000028
:105CB000A8550000AC550000B0550000B4550000D8
:105CC000B8550000BC550000C0550000C455000088
:105CD000C8550000CC550000D0550000D455000038
:105CE000D8550000DC550000E0550000E4550000E8
:105CF000E8550000EC550000F0550000F455000098
:105D0000F8550000FC550000005600000456000045
:105D1000085600000C5600001056000014560000F3
:105D2000185600001C5600002056000024560000A3
:105D3000285600002C560000305600003456000053
:105D4000385600003C560000405600004456000003
:105D5000485600004C5600005056000054560000B3
:105D6000585600005C560000605600006456000063
:105D7000685600006C560000705600007456000013
:105D8000785600007C5600008056000084560000C3
:105D9000885600008C560000905600009456000073
:105DA000985600009C560000A0560000A456000023
:105DB000A8560000AC560000B0560000B4560000D3
:105DC000B8560000BC560000C0560000C456000083
:105DD000C8560000CC560000D0560000D456000033
:105DE000D8560000DC560000E0560000E4560000E3
:105DF000E8560000EC560000F0560000F456000093
:105E0000F8560000FC560000005700000457000040
:105E1000085700000C5700001057000014570000EE
:105E2000185700001C57000020570000245700009E
:105E3000285700002C57000030570000345700004E
:105E4000385700003C5700004057000044570000FE
:105E5000485700004C5700005057000054570000AE
:105E6000585700005C57000060570000645700005E
:105E7000685700006C57000070570000745700000E
:105E8000785700007C5700008057000084570000BE
:105E9000885700008C57000090570000945700006E
:105EA000985700009C570000A0570000A45700001E
:105EB000A8570000AC570000B0570000B4570000CE
:105EC000B8570000BC570000C0570000C45700007E
:105ED000C8570000CC570000D0570000D45700002E
:105EE000D8570000DC570000E0570000E4570000DE
:105EF000E8570000EC570000F0570000F45700008E
:105F0000F8570000FC57000000580000045800003B
:105F1000085800000C5800001058000014580000E9
:105F2000185800001C580000205800002458000099
:105F3000285800002C580000305800003458000049
:105F4000385800003C5800004058000044580000F9
:105F5000485800004C5800005058000054580000A9
:105F6000585800005C580000605800006458000059
:105F7000685800006C580000705800007458000009
:105F8000785800007C5800008058000084580000B9
:105F9000885800008C580000905800009458000069
:105FA000985800009C580000A0580000A458000019
:105FB000A8580000AC580000B0580000B4580000C9
:105FC000B8580000BC580000C0580000C458000079
:105FD000C8580000CC580000D0580000D458000029
:105FE000D8580000DC580000E0580000E4580000D9
:105FF000E8580000EC580000F0580000F458000089
:10600000F8580000FC580000005900000459000036
:10601000085900000C5900001059000014590000E4
:10602000185900001C590000205900002459000094
:10603000285900002C590000305900003459000044
:10604000385900003C5900004059000044590000F4
:10605000485900004C5900005059000054590000A4
:10606000585900005C590000605900006459000054
:10607000685900006C590000705900007459000004
:10608000785900007C5900008059000084590000B4
:10609000885900008C590000905900009459000064
:1060A000985900009C590000A0590000A459000014
:1060B000A8590000AC590000B0590000B4590000C4
:1060C000B8590000BC590000C0590000C459000074
:1060D000C8590000CC590000D0590000D459000024
:1060E000D8590000DC590000E0590000E4590000D4
:1060F000E8590000EC590000F0590000F459000084
:10610000F8590000FC590000005A0000045A000031
:10611000085A00000C5A0000105A0000145A0000DF
:10612000185A00001C5A0000205A0000245A00008F
:10613000285A00002C5A0000305A0000345A00003F
:10614000385A00003C5A0000405A0000445A0000EF
:10615000485A00004C5A0000505A0000545A00009F
:10616000585A00005C5A0000605A0000645A00004F
:10617000685A00006C5A0000705A0000745A0000FF
:10618000785A00007C5A0000805A0000845A0000AF
:10619000885A00008C5A0000905A0000945A00005F
:1061A000985A00009C5A0000A05A0000A45A00000F
:1061B000A85A0000AC5A0000B05A0000B45A0000BF
:1061C000B85A0000BC5A0000C05A0000C45A00006F
:1061D000C85A0000CC5A0000D05A0000D45A00001F
:1061E000D85A0000DC5A0000E05A0000E45A0000CF
:1061F000E85A0000EC5A0000F05A0000F45A00007F
:10620000F85A0000FC5A0000005B0000045B00002C
:10621000085B00000C5B0000105B0000145B0000DA
:10622000185B00001C5B0000205B0000245B00008A
:10623000285B00002C5B0000305B0000345B00003A
:10624000385B00003C5B0000405B0000445B0000EA
:10625000485B00004C5B0000505B0000545B00009A
:10626000585B00005C5B0000605B0000645B00004A
:10627000685B00006C5B0000705B0000745B0000FA
:10628000785B00007C5B0000805B0000845B0000AA
:10629000885B00008C5B0000905B0000945B00005A
:1062A000985B00009C5B0000A05B0000A45B00000A
:1062B000A85B0000AC5B0000B05B0000B45B0000BA
:1062C000B85B0000BC5B0000C05B0000C45B00006A
:1062D000C85B0000CC5B0000D05B0000D45B00001A
:1062E000D85B0000DC5B0000E05B0000E45B0000CA
:1062F000E85B0000EC5B0000F05B0000F45B00007A
:10630000F85B0000FC5B0000005C0000045C000027
:10631000085C00000C5C0000105C0000145C0000D5
:10632000185C00001C5C0000205C0000245C000085
:10633000285C00002C5C0000305C0000345C000035
:10634000385C00003C5C0000405C0000445C0000E5
:10635000485C00004C5C0000505C0000545C000095
:10636000585C00005C5C0000605C0000645C000045
:10637000685C00006C5C0000705C0000745C0000F5
:10638000785C00007C5C0000805C0000845C0000A5
:10639000885C00008C5C0000905C0000945C000055
:1063A000985C00009C5C0000A05C0000A45C000005
:1063B000A85C0000AC5C0000B05C0000B45C0000B5
:1063C000B85C0000BC5C0000C05C0000C45C000065
:1063D000C85C0000CC5C0000D05C0000D45C000015
:1063E000D85C0000DC5C0000E05C0000E45C0000C5
:1063F000E85C0000EC5C0000F05C0000F45C000075
:10640000F85C0000FC5C0000005D0000045D000022
:10641000085D00000C5D0000105D0000145D0000D0
:10642000185D00001C5D0000205D0000245D000080
:10643000285D00002C5D0000305D0000345D000030
:10644000385D00003C5D0000405D0000445D0000E0
:10645000485D00004C5D0000505D0000545D000090
:10646000585D00005C5D0000605D0000645D000040
:10647000685D00006C5D0000705D0000745D0000F0
:10648000785D00007C5D0000805D0000845D0000A0
:10649000885D00008C5D0000905D0000945D000050
:1064A000985D00009C5D0000A05D0000A45D000000
:1064B000A85D0000AC5D0000B05D0000B45D0000B0
:1064C000B85D0000BC5D0000C05D0000C45D000060
:1064D000C85D0000CC5D0000D05D0000D45D000010
:1064E000D85D0000DC5D0000E05D0000E45D0000C0
:1064F000E85D0000EC5D0000F05D0000F45D000070
:10650000F85D0000FC5D0000005E0000045E00001D
:10651000085E00000C5E0000105E0000145E0000CB
:10652000185E00001C5E0000205E0000245E00007B
:10653000285E00002C5E0000305E0000345E00002B
:10654000385E00003C5E0000405E0000445E0000DB
:10655000485E00004C5E0000505E0000545E00008B
:10656000585E00005C5E0000605E0000645E00003B
:10657000685E00006C5E0000705E0000745E0000EB
:10658000785E00007C5E0000805E0000845E00009B
:10659000885E00008C5E0000905E0000945E00004B
:1065A000985E00009C5E0000A05E0000A45E0000FB
:1065B000A85E0000AC5E0000B05E0000B45E0000AB
:1065C000B85E0000BC5E0000C05E0000C45E00005B
:1065D000C85E0000CC5E0000D05E0000D45E00000B
:1065E000D85E0000DC5E0000E05E0000E45E0000BB
:1065F000E85E0000EC5E0000F05E0000F45E00006B
:10660000F85E0000FC5E0000005F0000045F000018
:10661000085F00000C5F0000105F0000145F0000C6
:10662000185F00001C5F0000205F0000245F000076
:10663000285F00002C5F0000305F0000345F000026
:10664000385F00003C5F0000405F0000445F0000D6
:10665000485F00004C5F0000505F0000545F000086
:10666000585F00005C5F0000605F0000645F000036
:10667000685F00006C5F0000705F0000745F0000E6
:10668000785F00007C5F0000805F0000845F000096
:10669000885F00008C5F0000905F0000945F000046
:1066A000985F00009C5F0000A05F0000A45F0000F6
:1066B000A85F0000AC5F0000B05F0000B45F0000A6
:1066C000B85F0000BC5F0000C05F0000C45F000056
:1066D000C85F0000CC5F0000D05F0000D45F000006
:1066E000D85F0000DC5F0000E05F0000E45F0000B6
:1066F000E85F0000EC5F0000F05F0000F45F000066
:10670000F85F0000FC5F0000006000000460000013
:10671000086000000C6000001060000014600000C1
:10672000186000001C600000206000002460000071
:10673000286000002C600000306000003460000021
:10674000386000003C6000004060000044600000D1
:10675000486000004C600000506000005460000081
:10676000586000005C600000606000006460000031
:10677000686000006C6000007060000074600000E1
:10678000786000007C600000806000008460000091
:10679000886000008C600000906000009460000041
:1067A000986000009C600000A0600000A4600000F1
:1067B000A8600000AC600000B0600000B4600000A1
:1067C000B8600000BC600000C0600000C460000051
:1067D000C8600000CC600000D0600000D460000001
:1067E000D8600000DC600000E0600000E4600000B1
:1067F000E8600000EC600000F0600000F460000061
:10680000F8600000FC60000000610000046100000E
:10681000086100000C6100001061000014610000BC
:10682000186100001C61000020610000246100006C
:10683000286100002C61000030610000346100001C
:10684000386100003C6100004061000044610000CC
:10685000486100004C61000050610000546100007C
:10686000586100005C61000060610000646100002C
:10687000686100006C6100007061000074610000DC
:10688000786100007C61000080610000846100008C
:10689000886100008C61000090610000946100003C
:1068A000986100009C610000A0610000A4610000EC
:1068B000A8610000AC610000B0610000B46100009C
:1068C000B8610000BC610000C0610000C46100004C
:1068D000C8610000CC610000D0610000D4610000FC
:1068E000D8610000DC610000E0610000E4610000AC
:1068F000E8610000EC610000F0610000F46100005C
:10690000F8610000FC610000006200000462000009
:10691000086200000C6200001062000014620000B7
:10692000186200001C620000206200002462000067
:10693000286200002C620000306200003462000017
:10694000386200003C6200004062000044620000C7
:10695000486200004C620000506200005462000077
:10696000586200005C620000606200006462000027
:10697000686200006C6200007062000074620000D7
:10698000786200007C620000806200008462000087
:10699000886200008C620000906200009462000037
:1069A000986200009C620000A0620000A4620000E7
:1069B000A8620000AC620000B0620000B462000097
:1069C000B8620000BC620000C0620000C462000047
:1069D000C8620000CC620000D0620000D4620000F7
:1069E000D8620000DC620000E0620000E4620000A7
:1069F000E8620000EC620000F0620000F462000057
:106A0000F8620000FC620000006300000463000004
:106A1000086300000C6300001063000014630000B2
:106A2000186300001C630000206300002463000062
:106A3000286300002C630000306300003463000012
:106A4000386300003C6300004063000044630000C2
:106A5000486300004C630000506300005463000072
:106A6000586300005C630000606300006463000022
:106A7000686300006C6300007063000074630000D2
:106A8000786300007C630000806300008463000082
:106A9000886300008C630000906300009463000032
:106AA000986300009C630000A0630000A4630000E2
:106AB000A8630000AC630000B0630000B463000092
:106AC000B8630000BC630000C0630000C463000042
:106AD000C8630000CC630000D0630000D4630000F2
:106AE000D8630000DC630000E0630000E4630000A2
:106AF000E8630000EC630000F0630000F463000052
:106B0000F8630000FC6300000064000004640000FF
:106B1000086400000C6400001064000014640000AD
:106B2000186400001C64000020640000246400005D
:106B3000286400002C64000030640000346400000D
:106B4000386400003C6400004064000044640000BD
:106B5000486400004C64000050640000546400006D
:106B6000586400005C64000060640000646400001D
:106B7000686400006C6400007064000074640000CD
:106B8000786400007C64000080640000846400007D
:106B9000886400008C64000090640000946400002D
:106BA000986400009C640000A0640000A4640000DD
:106BB000A8640000AC640000B0640000B46400008D
:106BC000B8640000BC640000C0640000C46400003D
:106BD000C8640000CC640000D0640000D4640000ED
:106BE000D8640000DC640000E0640000E46400009D
:106BF000E8640000EC640000F0640000F46400004D
:106C0000F8640000FC6400000065000004650000FA
:106C1000086500000C6500001065000014650000A8
:106C2000186500001C650000206500002465000058
:106C3000286500002C650000306500003465000008
:106C4000386500003C6500004065000044650000B8
:106C5000486500004C650000506500005465000068
:106C6000586500005C650000606500006465000018
:106C7000686500006C6500007065000074650000C8
:106C8000786500007C650000806500008465000078
:106C9000886500008C650000906500009465000028
:106CA000986500009C650000A0650000A4650000D8
:106CB000A8650000AC650000B0650000B465000088
:106CC000B8650000BC650000C0650000C465000038
:106CD000C8650000CC650000D0650000D4650000E8
:106CE000D8650000DC650000E0650000E465000098
:106CF000E8650000EC650000F0650000F465000048
:106D0000F8650000FC6500000066000004660000F5
:106D1000086600000C6600001066000014660000A3
:106D2000186600001C660000206600002466000053
:106D3000286600002C660000306600003466000003
:106D4000386600003C6600004066000044660000B3
:106D5000486600004C660000506600005466000063
:106D6000586600005C660000606600006466000013
:106D7000686600006C6600007066000074660000C3
:106D8000786600007C660000806600008466000073
:106D9000886600008C660000906600009466000023
:106DA000986600009C660000A0660000A4660000D3
:106DB000A8660000AC660000B0660000B466000083
:106DC000B8660000BC660000C0660000C466000033
:106DD000C8660000CC660000D0660000D4660000E3
:106DE000D8660000DC660000E0660000E466000093
:106DF000E8660000EC660000F0660000F466000043
:106E0000F8660000FC6600000067000004670000F0
:106E1000086700000C67000010670000146700009E
:106E2000186700001C67000020670000246700004E
:106E3000286700002C6700003067000034670000FE
:106E4000386700003C6700004067000044670000AE
:106E5000486700004C67000050670000546700005E
:106E6000586700005C67000060670000646700000E
:106E7000686700006C6700007067000074670000BE
:106E8000786700007C67000080670000846700006E
:106E9000886700008C67000090670000946700001E
:106EA000986700009C670000A0670000A4670000CE
:106EB000A8670000AC670000B0670000B46700007E
:106EC000B8670000BC670000C0670000C46700002E
:106ED000C8670000CC670000D0670000D4670000DE
:106EE000D8670000DC670000E0670000E46700008E
:106EF000E8670000EC670000F0670000F46700003E
:106F0000F8670000FC6700000000000000010202BA
:106F10000303030304040404040404040505050531
:106F2000050505050505050505050505060606060D
:106F300006060606060606060606060606060606F1
:106F400006060606060606060606060607070707DD
:106F500007070707070707070707070707070707C1
:106F600007070707070707070707070707070707B1
:106F700007070707070707070707070707070707A1
:106F8000070707070707070707070707080808088D
:106F90000808080808080808080808080808080871
:106FA0000808080808080808080808080808080861
:106FB0000808080808080808080808080808080851
:106FC0000808080808080808080808080808080841
:106FD0000808080808080808080808080808080831
:106FE0000808080808080808080808080808080821
:106FF0000808080808080808080808080808080811
:10700000080808080808080808080808411106C602
:10701000AD2D0D454925EF50D047EF70F02FF5BF4E
:107020003707000893070724032F072483AE470080
:1070300003AE870003A3C70083A8070103A8470185
:10704000944F03D7C70183C7E7017971794622D4EA
:107050008A852A84094506D67AC076C272C41AC6C1
:1070600046C842CA36CC231EE100230FF100EF7060
:10707000D07FA28509457920B7050008054693858C
:1070800005270945EF70707E01A0411122C43744E5
:10709000014026C29375F50FAA841305048006C625
:1070A00013040480EF00F06F9D452285EF00F0711E
:1070B00065DDB2402244268592444101828001115F
:1070C0004EC606CE22CC26CA4AC8B28919CE2E8414
:1070D0003389C500A9440345040005047D3783476F
:1070E000F4FF638C9700E31824FFF24062444E855E
:1070F000D2444249B2490561828035457937E31C63
:1071000024FDE5B7797156CAAE8AB705000809466D
:107110009385052622D426D24AD04ECE52CC06D60E
:107120002A8A7144EF707074BD492549F15439A819
:1071300093978601E187711405469305F100528506
:10714000A307F100EF707072630E9402B397890089
:10715000B3F75701B3D7870093F7F70F9386070369
:1071600013877703E376F9FC93178701E18771149E
:1071700005469305F1005285A307F100EF70F06E0C
:10718000E31694FCB250225492540259F249624AD6
:10719000D24A45618280000000000000000000002B
:1071A00000000000000000000000000000000000DF
:1071B00000000000000000000000000000000000CF
:1071C0005D7106C012C216C41AC61EC82ACA2ECCC9
:1071D00032CE36D03AD23ED442D646D872DA76DCB7
:1071E0007ADEFEC0F322103496C0F322003096C23D
:1071F000F322407C96C4732520348A85E920864298
:1072000073901234964273900230A6427390427C7F
:1072100082401242A2423243C2435245E245724684
:1072200082561257A2573258C258525EE25E725FBF
:10723000864F616173002030000000005D7106C060
:1072400012C216C41AC61EC82ACA2ECC32CE36D0D6
:107250003AD23ED442D646D872DA76DC7ADEFEC026
:1072600073D0E87E7350F97E73D0B97EF390D07EF0
:1072700073700430B6427390427CA642739012340D
:1072800096427390223482401242A2423243C24359
:107290005245E245724682561257A2573258C2589A
:1072A000525EE25E725F864F616173002030B70507
:1072B00000084111154693854526054506C6EF7021
:1072C000D05A0545B13B4111856722C406C6FD175A
:1072D0002A84630CF500B705000815469385C5267A
:1072E0000545EF7090582285253BD137EDB7411108
:1072F00006C6EF007053130570053928F528B24013
:1073000041016F80DFF28280B70700D1D843884304
:10731000CC43E39DE5FE8280370700D223000700BF
:107320001205B71700D2A30507003E9563F7A70023
:1073300023A00700C107E3EDA7FE8280B71700D2A4
:1073400085070A053E9585472300F50082803707AB
:1073500000D2834707000605798993F7170E5D8DE4
:107360002300A7008280B70700D203C70700914718
:1073700005833D8BBA8663F3E7009146B71700D2C9
:107380008D070A053E958347050013F6F60F214742
:10739000B397D70093F7F70F118FB3D7D740B395B3
:1073A000E500CD8F93F7F70F2300F5008280B70734
:1073B00000D203C7070005839377C70085EFB71690
:1073C00000D20A058D06AA9683C7060021463D8B8A
:1073D0003307E640B3D7E7401395450093F7F70F1F
:1073E0001375F50FB397E700C98F93F7F70F238055
:1073F000F600828001458280F327503093F707FC26
:1074000093E737007390573082804111B7270140CE
:1074100006C693870740630BF500B7370140938793
:107420000780630DF500B240410182801305903062
:10743000A526B2401305903041019DAE1305A03042
:10744000A12EB2401305A03041019DA6B7270140EF
:1074500003A74740B706F1FFFD16758F23A2E7404B
:1074600003A74740598D23A2A740828093F70510B8
:107470000DC699EF93F7054089C75C4193E7074034
:107480005CC1898985CD1C4593E727001CC5828096
:107490005C4193E707105CC1F1BF89C75C4193F77A
:1074A000F7EF5CC193F7054089C75C4193F7F7BFDD
:1074B0005CC1898981C51C45F59B1CC582801C4522
:1074C00099C5056713070780D98F1CC582807D7712
:1074D0001307F77FF98F1CC582801C45858B89E7D0
:1074E0001C4593E717001CC582801C4513078500C7
:1074F00093E787001CC51C43A18BF5FF1C4593E750
:1075000047001CC51C43918BF5FF8280854763852E
:10751000F50289476391F5021C5D3707D0FF7D179F
:10752000F98F1CDD1C5D7D16520637073000798E01
:107530005D8E10DD828082805C55370710FF7D17DD
:10754000F98F5CD55C557D1652063707F000798EB1
:107550005D8E50D58280954763E2B70493972500EE
:10756000BE955859FD47B397B70093C7F7FFF98FFA
:10757000B315B600DD8D4CD9A54763E6C704931754
:1075800016003E9618499D47B397C70093C7F7FF6B
:10759000F98F3396C6005D8E10C98280AD4763E7D0
:1075A000B704E91593972500BE951859FD47B39781
:1075B000B70093C7F7FFF98FB315B600DD8D0CD96F
:1075C000A547E3FEC7FAC54763E1C702591613177B
:1075D00016004C453A969D47B397C70093C7F7FFEF
:1075E000ED8F3396C6005D8E50C58280BD47E3E5C2
:1075F000B7F8D11593972500BE955855FD47B39719
:10760000B70093C7F7FFF98FB315B600DD8D4CD5E2
:10761000A5B78547638FF5008947639BF5001C4537
:1076200065777D17F98F1CC51C455D8E10C582805E
:1076300082801C453707F2FF7D17F98F1CC51C455A
:107640005D8E10C5828093F715000DC281EB89898C
:1076500089CD1C452167D98F1CC582801C45370701
:1076600010008989D98F1CC5EDF5828099C71C450A
:107670003707F0FF7D17F98F1CC58989FDD51C459B
:1076800061777D17F98F1CC58280F3670430828093
:10769000F377043082801375F50F55B9411106C692
:1076A00022C426C24AC02A84B2842E894139CA859E
:1076B0002285553922852244B2400249A68592444A
:1076C0004101F5B193F7050193F8F50099C3B3E8CB
:1076D000C8008147854E3D4E930F8002930280047F
:1076E0002143139627003397FE003318CE00758F81
:1076F0001348F8FF3396C80001CF032F05003378F5
:10770000E80133660601638FF5056389550410C1EE
:107710008507E39867FC854E3D4E930F80029302E8
:10772000800441431397270001173396FE00331856
:10773000EE00758E1348F8FF3397E80001CE032F53
:1077400045003378E80133670701638FF5016389EA
:10775000550058C18507E39767FC828018C945BF6B
:1077600010C9C5BF58C965B750C9E5B708456D8D83
:107770003335A000828048456D8D3335A00082806E
:10778000B7170240135765003E9714438547B397D8
:10779000A700D58F1CC38280B7170240135765001E
:1077A0003E9714438547B397A700D58F1CC38280AB
:1077B000B7170240135765003E9714438547B397A8
:1077C000A70093C7F7FFF58F1CC38280B71702404D
:1077D000DC433747FFEF7D179546F98F6300D502ED
:1077E00063EBA6000D476364A7003A05C98F3717FE
:1077F00002405CC382801D47E31BE5FE31773A05FA
:10780000798D5D8DB7070010C98F371702405CC3B3
:107810008280B707030437070809011193871720EF
:10782000130767703ECC3EC23EC602C802CA3ACEBB
:1078300002C002C4B7160240D842B7177A00094600
:1078400009830D8B93870720630DC7043717024008
:1078500050435443584311820C103D8A2E960346E0
:1078600006FFA1822D839D8A1D8B2E97AE9605481B
:1078700033D6C70083C506FE034787FE6301050BA9
:1078800011CD8946B357B600630AD5007515133577
:107890001500B357E6003305A040E98F3E8505612A
:1078A0008280D8421316F700635F0606D856131677
:1078B000F70063580602D856DC56454693564700F3
:1078C000A183BD8BBD8A1387270085066313C7007C
:1078D0005147B7177A0093870720B3D7D702B387EA
:1078E000E702371702405857B71602403D8B05078D
:1078F000B3D7E702D842D4424983139626003D8B82
:1079000063410604BD466300D7040907631ED7021E
:10791000139717003E9706078583BA9705BFB2876E
:107920003E8505618280B7160240D842D442B7171F
:107930003D00498313962600938707903D8BE353C0
:1079400006FC136707010507B307F70201B74111EA
:10795000B717004006C6138707C06307E5046371C5
:10796000A702138707406309E5043737014013076F
:1079700007C0630BE5046301F506B2404101828054
:1079800037070040930607406300D50693870780BA
:107990006304F506E313E5FE13050040F53BB24032
:1079A00013050040410129B513053040F533B240BD
:1079B000130530404101EDBB13055040F13BB2408F
:1079C000130550404101EDB31305B030F133B2401F
:1079D0001305B0304101E9BB13054040753BB2408F
:1079E000130540404101E9B3130510407533B2401F
:1079F0001305104041016DBB13052040713BB2409F
:107A00001305204041016DB383D7050003D745001E
:107A10001376F5BF1CD5B7370140938707C0418B5C
:107A20006306F504FD779387F73FE98FB7060040BB
:107A3000638ED7021C41B7160040BD9B1CC11C4180
:107A40005D8F18C19C455CD5630DD600184183D766
:107A5000C5001377F7CF18C1184193F70730D98FB6
:107A60001CC15C4993E717005CC98280144183D72D
:107A700025003718004093F6F6F814C1144193F727
:107A80000706D58F1CC11C415D8F18C19C455CD574
:107A9000E30906FD184183D7C500B73601401377C7
:107AA000F7CF18C1104193F70730138706C0D18F65
:107AB0001CC1E318E5FA83C7E50023A8F6C25C49B8
:107AC00093E717005CC982801C4193E717001CC133
:107AD00082801C41F99B1CC182801C4193E70708EE
:107AE0001CC182802310050023110500231205000C
:107AF0002313050023140500231505008280854704
:107B00006385F50CD9C589476387F5048D47639371
:107B1000F5041C517D777D17F98F1CD18357060022
:107B20001851F976B207D98F1CD11851FD16835719
:107B30004600758F18D11451B20737370140D58FE1
:107B40001CD1930707C0630AF51E5C4D93F7F7CF6E
:107B50005CCD828082801451035706008357460013
:107B600093F6F6EF14D114512207A207558F18D1BE
:107B7000145137370140930507C093F6F6DF14D14F
:107B80001451D58F1CD16301B5145C4DF19B5CCDB4
:107B900082801C518356060003574600F99B1CD176
:107BA00003280502B7370140938507C0B3E60601F5
:107BB00014D11451F59A14D11451558F18D163076B
:107BC000B50A1C4DF19B1CCD828014510357060051
:107BD00083574600BD9A14D1145112079207558F4E
:107BE00018D1145137370140930507C093F6F6FDBD
:107BF00014D11451D58F1CD16307B5001C4D93F7D8
:107C0000F7CF1CCD82800C51835626008357660027
:107C100093F5F5FB0CD10C5192069207CD8E14D141
:107C20000C518356860093F5F5F70CD10C518A065A
:107C3000CD8F1CD1832547C08357A60093F5F5BF90
:107C40002322B7C0032647C08A07D18E2322D7C07C
:107C5000832647C07D761306F67FF18E2322D7C098
:107C6000832647C0D58F2322F7C049BF1851035838
:107C70002600835566006D9B18D183280502835624
:107C800086000357A600336818012320050310510E
:107C90005D9A10D11051D18D0CD103A647C0137637
:107CA000F6EF23A2C7C003A647C0D18E23A2D7C038
:107CB00083A647C093F6F6DF23A2D7C083A647C0AA
:107CC000558F23A2E7C0F5BD0C5183572600FD76E2
:107CD00093F5F5BF0CD10C51A2079388F67FCD8F99
:107CE0001CD1032805029385F6FF83576600B376FF
:107CF000180114D103280502A20783568600B3E7B2
:107D000007011CD1832747C09206FD8D2322B7C0EF
:107D1000832547C08357A6007976CD8E2322D7C00E
:107D2000832647C07D169207F18E2322D7C0832673
:107D300047C0D58F2322F7C089BD832747C0F1767E
:107D4000FD16F58F2322F7C083578600832647C090
:107D50009A07D58F2322F7C0CDBB85476384F502F0
:107D6000A1C58947638AF5028D47639CF5005C4D88
:107D700065777D17F98F5CCD5C4D22065D8E50CD09
:107D8000828082801C4D65777D17F98F1CCD1C4D3C
:107D900022065D8E10CD82805C4D93F7F7F85CCDA6
:107DA0005C4D5D8E50CD82801C4D93F7F7F81CCD55
:107DB0001C4D5D8E10CD82808547638CF50091CD82
:107DC0008947638AF5008D476394F50030C182804E
:107DD000828010DD828050DD828050D9828085478C
:107DE0006385F502A9C58947638CF5028D47639DBC
:107DF000F5005C4D7D771307F77FF98F5CCD5C4D07
:107E000022065D8E50CD828082801C4D7D771307C7
:107E1000F77FF98F1CCD1C4D22065D8E10CD828020
:107E20005C4DDD9B5CCD5C4D5D8E50CD82801C4DEC
:107E3000DD9B1CCD1C4D5D8E10CD82805C45DD8DA3
:107E40004CC5828093C5F5FF0CC982804111B7579C
:107E5000004006C6138707C06306E5046372A702E5
:107E6000630BF504B747014093870780631FF50450
:107E70001305E0301532B2401305E03041010DBA70
:107E800037470040130707406304E50493870780E2
:107E9000631DF502130520410132B2401305204154
:107EA000410139B213053041EFF01F8FB240130585
:107EB00030414101F5B813054041EFF0FF8DB2406C
:107EC0001305404141016FF0BF8EB24041018280F5
:107ED00013051041EFF05F8CB240130510414101D2
:107EE0006FF01F8D41113757004022C426C206C6CD
:107EF000930707C02A84AE846308F50463FBA702D6
:107F00006304E50437470140130707800145631503
:107F1000E4000D45EFF0FF8F93D71400AA97B3D775
:107F20009702B2409244C207C1831CC4224441015B
:107F30008280B7460040938606406307D50013074A
:107F400007800145E31AE4FC0945EFF09F8CE9B78F
:107F50005C4593F7F79F5CC55C45DD8D4CC5828021
:107F60005C457D777D17F98F5CC55C45DD8D4CC523
:107F700082801C4975777D17F98F1CC91C49DD8DDE
:107F80000CC982805C450967D98F5CC582805C45DD
:107F9000DD9BDD8D4CC582805C45ED9BDD8D4CC548
:107FA000828093F5F51F4CC1828048411375F51FFF
:107FB00082805C4993F7F7EFDD8D4CC982805C4984
:107FC00093F7F7DFDD8D4CC9828093D7650093F777
:107FD000F73F3E9508413355B5000589828093D718
:107FE000650093F7F73F3E9518418547B397B70073
:107FF000D98F1CC1828013D765001377F73F93D7C1
:1080000065012A97AA971043944313D70501854722
:108010003397E700758F19C73395B700718D3335E6
:10802000A000828001458280B71702409843B706BE
:10803000FFE0B1061367170098C3D8433706F7EA85
:108040007D16758FD8C39843B706F7FEFD16758F5A
:1080500098C39843B706FCFFFD16758F98C3D843A5
:10806000B70601DFFD16758FD8C323A60702944318
:108070003707FF00C165F18E94C398C79843938674
:10808000F5FF371602404D8F98C311A099C61C42C8
:10809000FD161397E700E35B07FEB717024098430E
:1080A0009316E70063D0060AD8433706C4DF7D166F
:1080B000D8C3D843B7160240D8C3D8431367074084
:1080C000D8C3D843718FD8C3D84337062920518FDE
:1080D000D8C3D8573D76718FD8D7D8574166130685
:1080E00016F1518FD8D7984337060004518F98C3A3
:1080F0009C4213974700E35D07FE9C423706001041
:1081000037170240D18F9CC21C4393962700E3DDB2
:1081100006FE144337060001B7170240D18E14C380
:10812000984393166700E3DD06FED843B716024076
:10813000719BD8C3D84313672700D8C3DC42A18BF7
:10814000F5DF828001A09387418F9843BD669386B7
:1081500006A6050763C4E60098C3828023A0070033
:1081600082809387F188138E018F83C6070003579F
:108170000E0003C80700B748002013834198938876
:10818000081B03260300B6981305F7FFB706002067
:1081900005089385062B1378F80F9306E7FF83C82D
:1081A00008004205B30EB700418123800701C206D3
:1081B0002380CE002E95935E86007517C18203C87A
:1081C0000700AE962300D501418293952800231025
:1081D000EE00A38001982380C6002320B3005147FE
:1081E000630307018280238007008280411122C43B
:1081F00037440140AA851305048006C61304048091
:108200004D339D452285D1336DDDB240224441017D
:10821000828013172500B747002037450020938739
:10822000070B130505EBBA973A95944308410D46A1
:10823000930580046FF00FC937470020B74700202F
:108240000A05130707EB9387070B2A97AA9718438A
:108250009C435CCB828003C5319837470020B747E9
:10826000002093162500130707EB9387070B3306AF
:10827000D700BE9694421042411122C406C6138410
:10828000219814CA834604008A063697B697184385
:108290009C431CCB5537034504002244B2404101A6
:1082A00061BF411122C4138431980345040006C6FE
:1082B000613783C6219837470020B747002013074E
:1082C00007EB8A069387070B3306D700BE969442C6
:1082D0001042B24014CA8346040022448A063697EC
:1082E000B69718439C431CCB4101828001114EC6B6
:1082F0009389219883C7090022CC26CA37440020DD
:10830000B74400201304040B938404EB8A0733075B
:10831000F400A697144388434AC80D46C14506CECB
:1083200013893198EFF00FBA834709000D46C14514
:108330008A073307F400A69714438843EFF08FB8F9
:1083400083C709008A073387F400A29718439C4328
:108350001CCB834709008A073E94BE949C4018407A
:1083600098CBD53D6244F240D2444249B2490561BE
:108370000DBF01114EC69389319803C5090056C23D
:1083800022CC26CA4AC852C45AC006CE938A219823
:10839000493583C70A00B7440020374900208A07BF
:1083A000938404EB1309090B3387F400CA9718432D
:1083B0009C431384818F1CCB616B054A23200400EE
:1083C000130BFB6939A01C40138717006361FB0284
:1083D00018C083C709008A073307F900A6970C4322
:1083E0008843EFF0AFB81375F50FE30E45FD03C5F5
:1083F0000A00993583C709006244F2408A073E9912
:10840000BE948326090088404249D244B249224A98
:10841000924A024B0D46C14505616FF0AFAA0111AA
:108420004AC84EC652C456C2B74900203749002038
:1084300022CC26CA06CEAA842144938A31989389F5
:1084400009EB1309090B138A219825A0F53303457D
:108450000A007D148604931725003387F900CA9714
:1084600018439C431374F40F93F4F40F1CCBE933BB
:1084700005C093978401E18703C50A00E3D807FC90
:108480000A05B387A9004A959C43184198CBC1B708
:108490006244F240D2444249B249224A924A0561BA
:1084A000C9BD011126CAAA8403C501984AC84EC68F
:1084B00052C456C2374A0020B749002022CC06CE0B
:1084C00021449D3B938AC18A130A0AEB9389090BC5
:1084D000138991981DA80A05B307AA004E959C43DD
:1084E000184198CB034509007D148604B1338347B6
:1084F00009001374F40F93F4F40F8A073307FA009A
:10850000CE9718439C431CCB11C893978401E187F5
:1085100003C50A00E3C107FC0533E9B7F240624432
:10852000D2444249B249224A924A0561828083C7B5
:10853000019801114EC652C4B7490020374A0020A5
:108540008A07130A0AEB9389090B3307FA00CE97BF
:1085500018439C4322CC26CA4AC856C206CEAA84D7
:108560001CCB2144938AC18A138991981DA80A05BE
:10857000B307AA004E959C43184198CB03450900C8
:108580007D1486045539834709001374F40F93F45E
:10859000F40F8A073307FA00CE9718439C431CCB8D
:1085A00011C893978401E18703C50A00E3C107FC62
:1085B0006131E9B7F2406244D2444249B249224AA9
:1085C000924A05618280411106C622C42A84613123
:1085D00013058007A935014599352285893522443F
:1085E000B24041017DB9411106C609331305E00AC5
:1085F000D93F0145C93F4145F93713050004E1372B
:1086000013051008C9371305F00C753F1305100A40
:108610005D3F1305800C453F1305600A6D37130558
:10862000800A55371305F003793F1305300D613F7C
:108630000145513F1305500D793713050008613787
:108640001305900D49371305100FB53F1305A00D05
:108650009D3F49458D3F1305B00DB5371305000407
:108660009D371305000285370945B13F1305D00832
:10867000993F5145893F1305400AB1371305600AF8
:108680009937B2401305F00A410135BF411106C6C2
:1086900022C42A84C9361305800751331305000408
:1086A000BD3B2285AD3B2244B2404101DDBE0111FC
:1086B00052C44AC84EC656C2138A3193B7490020E5
:1086C0003749002022CC26CA06CE03470A00AA84D6
:1086D0002144938A5193938909EB1309090B1DA037
:1086E000A13E03470A007D14860493172700B38632
:1086F000F900CA9794429C431374F40F93F4F40F57
:108700009CCA15C03A850D3E93978401E18703C545
:108710000A00E3D707FC0A05B387A9004A959C43E2
:10872000184198CB7DBFF2406244D2444249B249DD
:10873000224A924A0561828083C7419337470020CD
:10874000130707EB93962700B74700209387070B83
:108750003697B69718439C43411122C406C62A8413
:108760001CCB2181A9371375F40F2244B24041017B
:108770003DBF011122CC1384419352C42A8A034580
:10878000040006CE26CA4AC8B6842E894EC6B289CF
:10879000EFF09FAA1305A002193F5285713F4E8545
:1087A000613F03450400EFF03FA91305B002013714
:1087B0004A8559372685493703450400EFF0DFA77E
:1087C0006244F240D2444249B249224A1305C002EF
:1087D0000561F1BD011126CA52C4138A41899384EF
:1087E00001899C4003260A004AC8FD177D1693960E
:1087F000070142062A89C1824182814501454EC650
:1088000006CE22CCBD3783270A0081496356F00289
:108810009C400144635AF0004A85393F05049C405E
:1088200042044180E34AF4FE850983270A00C20915
:1088300093D90901E3CEF9FCF2406244D2444249A3
:10884000B249224A0561828083C7219489EF634C33
:10885000050083A741896358F50063C6050083A717
:10886000018963C3F5008280131605019396050103
:108870004182C18241113285B68506C6DD3DB240D6
:1088800003D5019441014DBD83C7E19389EF634C4A
:10889000050083A741896358F50063C6050083A7D7
:1088A000018963C3F50082801316050193960501C3
:1088B0004182C18241113285B68506C65D3DB24016
:1088C00003D5C19341018DBD011152C4138A719327
:1088D00083470A0022CC26CA37440020B744002030
:1088E0001304040B938404EB8A073307F400A69760
:1088F000144388434EC60D46C14506CE4AC89389E7
:108900009193EFE03FDC83C709000D46C1458A071C
:108910003307F400A6971443884313898193EFE04B
:108920007FDA834709000D46C1458A073307F40003
:10893000A69788431443EFE0FFD883470A00F2402C
:10894000224A8A073387F400A29718439C431CCB22
:1089500083C70900B2498A073E94BE949C401840E0
:108960006244D24498CB03450900424905616FF047
:10897000BF8C011156C2938A919322CC2A8403C5DD
:108980000A0052C426CA4AC84EC606CE138A81932C
:10899000EFF09F8A03450A0037490020B7440020C2
:1089A00093172500130909EB9384040B3307F9008F
:1089B000A69718439C4391491CCBEFF0FF87931770
:1089C0008401E18703C50A0063CB070EEFF0DF8661
:1089D00003450A00FD190604931725003307F90023
:1089E000A69718439C4393F9F90F1374F40F1CCB0B
:1089F000EFF09F84E39509FC03C50A009149EFF06D
:108A0000BF8303450A00FD1993F9F90F9317250059
:108A10003307F900A69718439C431CCBEFF0DF8186
:108A2000E39109FE914993178401E18703C50A0088
:108A300063CF0706EFF05F8003450A00FD190604C7
:108A4000931725003307F900A69718439C4393F921
:108A5000F90F1374F40F1CCBEFF00FFEE39509FC34
:108A600003C50A001144EFF02FFD03450A007D14F1
:108A70001374F40F931725003307F900A6971843D2
:108A80009C431CCBEFF04FFB6DF083C70A00F24014
:108A900062448A07BE943E99832709009840424960
:108AA000D24498CBB249224A924A056182800A0593
:108AB000B307A90026959C43184198CBB5BF0A057A
:108AC000B307A90026959C43184198CB11B7011113
:108AD00056C2938A919383C70A0026CA4AC8B744EC
:108AE0000020374900208A07130909EB9384040BFF
:108AF0003307F900A69718439C4322CC4EC652C4B4
:108B000006CEAA891CCB1544138A819303450A001B
:108B10007D141374F40F931725003307F900A697FB
:108B200018439C431CCBEFF02FF16DF003C50A00F6
:108B3000EFF08FF003450A00931725003307F90083
:108B4000A69718439C431CCBEFF00FEF03C50A0018
:108B5000EFF08FEE03450A0093172500BE943E996F
:108B600083270900984098CBEFF00FED6244F24064
:108B7000D2444249224A924A4E85B2490561D5BB48
:108B8000011156C2938A919383C70A0026CA4AC824
:108B9000B7440020374900208A07130909EB938462
:108BA000040B3307F900A69718439C4322CC4EC60A
:108BB00052C406CEAA891CCB1544138A819303455F
:108BC0000A007D141374F40F931725003307F9007E
:108BD000A69718439C431CCBEFF00FE66DF003C53E
:108BE0000A00EFF06FE503450A00931725003307ED
:108BF000F900A69718439C431CCBEFF0EFE383C723
:108C00000A008A073307F900A69718439C431CCB38
:108C100003450A0093172500BE943E998327090057
:108C2000984098CBEFF04FE16244F240D244424981
:108C3000224A924A4E85B249056125BB0505620567
:108C40006185B747002006059387C71FAA978398B9
:108C50000700635B1007B74700209387071FAA9799
:108C600083D60700370700201307072B138316004E
:108C7000B307670003C80700B307D70083C707001F
:108C8000374600201306461E22083295C297035627
:108C9000050013950701634A05021395070185072F
:108CA0004185C2072A96C1833A961395070123008E
:108CB000B60041850146814563471503BA96238076
:108CC000B6001A972300C70082804175C98F3E966F
:108CD0008507C207C1833A962300B60093F5F70FC4
:108CE00013D68700E1BF1356850093F5F70F13766F
:108CF000F60FE9B77D579387418A98C3D8C323A25B
:108D0000018CA3810194A382018E238D0192238D76
:108D10000186A38D0192A38D018623880192238E63
:108D200001868546A389D186238CE186A38C0186A2
:108D300023840190A38E018A238F018A238B018CC7
:108D40002389018E23AA018E828083C78194B1CBAF
:108D50001387C1941C4383A60195A9071CC363C252
:108D6000D704411122C41384919403460400958FC3
:108D700006C61CC303C5818C15C637470020B747FC
:108D800000200A059387070B130707EB2A973E95E8
:108D90001C43184123000400B240224498CB4101F7
:108DA00082808280EFF04FC985472300F400B240F3
:108DB00022444101828083C70193D9C7138741951B
:108DC0008347070083C6018D850793F7F70F2300BC
:108DD000F70063EBD706411126C29384119322C496
:108DE00003840400930740064AC03364F402838777
:108DF000819706C62300070003899197238084008A
:108E00006350F40639E083C7218603C58189DDE715
:108E1000EFF08FC283C7318603C59189C9E3EFF0B4
:108E2000AFC1635B200583C7418603C5A189F9E70C
:108E3000EFF08FC083C7518603C5B189D9EFEFF03A
:108E4000AFBF0384040021A082806359240305047A
:108E500023808400B240224492440249410182802E
:108E600003C58189EFF04FBD03C59189EFF0CFBCF9
:108E70006356240169FC45BF0384040003C5A1892E
:108E80000504EFF06FBB03C5B189EFF0EFBAB24054
:108E90002380840022449244024941018280374762
:108EA0000020B74700200A059387070B130707EB3D
:108EB0002A973E951C43184198CBA5B73747002009
:108EC000B74700200A059387070B130707EB2A977C
:108ED0003E951C43184198CB35BF37470020B74714
:108EE00000200A059387070B130707EB2A973E9587
:108EF0001C4318410384040098CB91BF37470020DE
:108F0000B74700200A059387070B130707EB2A973B
:108F10003E951C43184198CB31BF83C73194DDC7C0
:108F2000011126CA4EC6938441949C409389418C7A
:108F30004AC803A9090022CC85071384418A06CEBA
:108F4000B30624019CC01307A00F03C50600638766
:108F5000E7021307F00F630CE50037470020130703
:108F6000471C0A093A9903270900638EE706F24075
:108F70006244D2444249B249056182809307F00FAE
:108F80006317F50423A004000509A1476309F90448
:108F900023A029014A94834704001307F00FE388B4
:108FA000E7FCB7460020374700208A071307070B66
:108FB000938606EBBE96BA979C439842F240624471
:108FC0001CCBD2444249B249056182808280EFF0D5
:108FD000AFA6050923A00400A147E31BF9FA23A0CB
:108FE0000900014945BF6244F240D2444249B249B6
:108FF00005616FF06FA4411122C41384518E834721
:10900000040006C626C24AC0ADCB9387C18E9443E6
:109010000D671307078B1386863E6376C706938416
:10902000618E03D904007977130777B3BA9694C396
:109030009377190003C5818EB1CF37470020B7471A
:1090400000200A059387070B130707EB2A973E9525
:109050001C43184198CB1387918E834707001359FF
:10906000190023902401850793F7F70F2300F700D9
:109070002D476394E70023000400B2402244924449
:10908000024941018280B240224490C39244024985
:1090900041018280EFF04F9A7DBF83C7A187D9C776
:1090A000411122C41384B1878347040006C695CFBB
:1090B0001387C187834707009306800C850793F7C2
:1090C000F70F2300F70063F2F6029386918783C7B8
:1090D000060023000700850793F7F70F2389018611
:1090E0002380F60011476361F70A83C7118737476A
:1090F00000201307070B93962700B747002093879C
:1091000007EB3697B6970C438843EFE02FE693873B
:10911000318703C707001375F50F2380A700854724
:109120006307F700B24022444101828082807DF9CA
:109130009387218783C507009386C187138615000F
:109140001376F60F03C80600A38C01862380060061
:109150002300E4002380C700E376B7FC1387418730
:109160001443BD45858263F50501B7050080CD8EAA
:1091700014C393062002E317D6FA0357270023806F
:109180000700238CE18679BF7D57230004002380EC
:109190000600238CE18679B7397152D4138A819005
:1091A00083070A0006DE22DC26DA4AD84ED656D2DB
:1091B0005AD05ECE62CC66CA6AC86EC66354F00CE2
:1091C000B74A002037490020B7440020B7490020A3
:1091D000374C0020B74B0020B74C0020014D814D8B
:1091E000938A8A201309090B938404EB9389092637
:1091F000054B130C4C21938B8B24938C0C2209A8C8
:1092000083070A00050D137DFD0FEA8D635CFD06E3
:10921000B387BA0183C707003384B9018A073307CC
:10922000F900A6970C438843EFE04FD4834704002E
:109230001375F50F33E7A7002DC7F9D3E31265FDCA
:10924000B307BC0183C707008A073307F900A69755
:1092500088430C43EFE08FD1B387BB0183C707007E
:109260001375F50F6389670799E363016509CE9D5F
:1092700023800D0083070A00050D137DFD0FEA8D85
:10928000E348FDF8F2506254D2544259B259225A7E
:10929000925A025BF24B624CD24C424DB24D21616C
:1092A0008280B747002093874721EE9783C7070046
:1092B0008A073E99BE94832509008840EFE00FCBD2
:1092C000B747002093878724BE9D85472380AD0044
:1092D0002300F40045BF41FD93972D00E697984386
:1092E000CE9D23800D00050798C369B793972D0085
:1092F000E6979843CE9D23800D007D1798C39DBFB0
:109300006349050E83A7C1846355F50E63C3050E3B
:1093100003A7418463DFE50C83C6118581C6FD1771
:109320003385A74083C7218581C77D17B305B74023
:1093300083C7018581C7AA872E85BE8583A88184BE
:1093400085476389F80A6356100B83DFC18503A341
:10935000418503CE9190370800201308082B93D73E
:10936000F801C6978587B307F040B38EA700014F79
:109370003385B70085421316050141820D8233867D
:10938000CF0293178501E18793D5F74113D7D50114
:10939000B385E7009D89998DB395B200E205420639
:1093A000E185418293C3F5FF8146769611A84D8FE2
:1093B0001377F70FC2972380E700850663F716033C
:1093C000B307D600C207C1839A973307F800030793
:1093D0000700E31E0EFC33F7E3001377F70FC29785
:1093E0002380E7008506E3ED16FD050F0505E36420
:1093F0001FF9828083DFC18593970501C1838D8327
:10940000B387FF021397850161879356F741F58271
:1094100003A3418536971D8BAA97C207158F37087E
:109420000020C18303CE91909A971308082B33979D
:10943000E800B306F8006207618783860600631BB5
:109440000E001347F7FF758F1377F70FC29723802E
:10945000E70031B7558F1377F70FCDBF83A701848E
:1094600063C70700B337F000A384F19051BD828039
:10947000B707002083A7C70963C70700B337F00009
:10948000A384F190B5BD82800547634E050483A790
:10949000C18405476359F50463C7050483A7418464
:1094A00063D3F50403A7C18593970501C1838D8319
:1094B000B387E70203A64185E205E185370700206F
:1094C00093D6F5411307072BF582B695AA97C207E5
:1094D000C183B297BA9703C707009D89958DB3558D
:1094E000B74013F715003A8582805971139705012B
:1094F0004183D6CAB70AFF00B3FA55019305270086
:1095000086D6A2D4A6D2CAD0CECED2CCDAC8DEC6F7
:10951000E2C4E6C2EAC06EDE3AD42EC89307470022
:1095200063800A1803A7C198BA972E9703CC070047
:1095300083470700135C3C003ED093970601C18728
:109540003ED2825702CEC1C74247B7070020938759
:10955000072B3ECABA9732D62A8A3ECCB257035955
:10956000C101925D81443304F900A2574204418451
:10957000A5073EC463050C04A2473307F9006387BF
:109580000A0A83A6C1983697834C070063060A0A25
:109590008546630FDA0C8946630CDA0463840A0893
:1095A00003A7C198C2473E970347070085043A992D
:1095B000C2044209C18013590901E39F84FBF247A9
:1095C000025785073ECE93F7F70FE3E9E7F88149A5
:1095D000B65026544E8596540659F649664AD64AE0
:1095E000464BB64B264C964C064DF25D656182802B
:1095F00093868D00C206C18693F91C00EE852285F4
:109600006386090036C64935B24679F193871D0055
:10961000939D070193DD0D4193DC1C00E39EDDFC6F
:10962000E3900AF8E24703C7070049B7D2473E97DD
:10963000834C0700E31E0AF493898D00C20993D975
:10964000094131A883A6C186829693871D00939D08
:10965000070193DD0D4193DC1C00E381B9F593F61E
:109660001C00EE852285F9FE83A681868296F1BFD5
:1096700093898D00C20993D9094193F61C00EE85A8
:10968000228581C683A68186829693871D00939D3D
:10969000070193DD0D4193DC1C00E390B9FFFDBD94
:1096A000370700201307072BBA9703CC0700C247E0
:1096B000135C3C003E97834707003ED0BDBD03D8F6
:1096C0000186B70800204111130518001307580040
:1096D0009307980042054207C2079388082B4181EF
:1096E0004183C18306C646954697C6978342350097
:1096F000834F370003CF3700834E250003462700F2
:1097000083C6270083451500A202A20F034E17004F
:10971000220F03C317007E96FA96969E4698034F33
:10972000050093188600139586000346070083C63C
:109730000700A20E834F080033071E01B307A300E2
:10974000F695A2052207A207B6972E9F3297BE86EE
:109750003A8623ACF19523A6E190FA857E8523A86D
:10976000F19023AEE195EFF05FD8B240B70700204B
:1097700023A4A706410182801D716AD8138DC19868
:1097800083270D00C205C181A2CC5EDEAE9786CED6
:10979000A6CACAC8CEC6D2C4D6C2DAC062DC66DAED
:1097A0006ED603CC37002ACA03C5270003C9470079
:1097B000220C2A9C420C9377790032CE3ACC368424
:1097C000135C0C01935B3900F1EF630D090CD24778
:1097D00002C8635AF00AE2473E99938795003EC655
:1097E000F2474247E24D014AB389E700C20993D9E3
:1097F0000901638E0B0603270D00B24793848D0089
:109800004E97C2043E97C180834C07001DA003A75A
:10981000C18693DC1C00029793871D0013970701F4
:109820004183931D070193DD0D4163D92D036387A8
:10983000E40213F71C00EE85228571FB03A78186E5
:1098400093DC1C00029793871D0013970701418347
:10985000931D070193DD0D41E3CB2DFD050AE29930
:10986000C209137AFA0F93D90901E3964BF9C2475B
:1098700052470504938D170093F7FD0F42043EC82D
:109880004184E3CFE7F4F6406644D6444649B649FE
:10989000264A964A064BF25B625CD25C425DB25D40
:1098A00025618280850B93FBFB0F15B703D70186DB
:1098B000B70700209387072BB386E70003CE060087
:1098C00013158E01618563570500136E0EF0131595
:1098D0008E01618593061700C206C182BE9693056C
:1098E000570083CE3600C20503C32600C18113088A
:1098F0007700BE95420883C81600A20E03C6150065
:10990000135808013E98769303CF0500834E180044
:109910009315830003C30600C695834608002206FC
:10992000A2057A9613988E009A95420623A6C191B5
:10993000418223ACB194C29623AEC1941398060120
:10994000635508004178B3E60601250742074183C5
:109950003E97034817008347070013178800BA97FC
:1099600023A8D19013970701635407004177D98F3B
:1099700013970701C2064187C18623AAF190EDBB68
:10998000131725009387419CBA971D7183AE07007A
:10999000A2CC370400201304042B86CEA6CACAC862
:1099A000CEC6D2C4D6C2DAC05EDE62DC66DA6AD85F
:1099B0006ED6B307D40103CE0700630D0E2893873C
:1099C00001A0BA9794439385019B938781A2BA958E
:1099D000BA9741667D1683AF07008441F18E1388E4
:1099E0001600F18CB302D40033F6CF00B3070401A4
:1099F0009388C19983CD0200930F3600930226000D
:109A000093031600138341A1BA989385C1A3138FC2
:109A1000819D83C70700330BF401B30A54003A93C6
:109A2000BA953A9F83A8080016CA1ECCB302C40098
:109A3000A293032F0F00034B0B0083CA0A0083C3BA
:109A40000300032303008C4183C20200A207A298F3
:109A5000EE97138A34001389240093891400B30C01
:109A600024017ACE7EC82293330D4401330C340195
:109A7000B30B9400B30FB400229F5AC056C21EC449
:109A800016C683C308009398070183CD0C000343D7
:109A90000300034D0D00034C0C0083CC0B0083CA64
:109AA0000F00034B0F0063D50800C178B3E717011F
:109AB0009388C19E4697035F07009392070193D254
:109AC0000241229F834F1F0083480F00A20FFE9880
:109AD00013970801635507004177B3E8E800374F53
:109AE0000020130F4F25931F1500B30BFF0103D761
:109AF0000B00639003184697420741872390EB00C1
:109B0000A2962380560093D7820022982300F80063
:109B1000A2958967238055019387F77063DCE7126C
:109B2000F9779387078F7E9F3E972310EF00631F7F
:109B3000030482471247A207BA972247A207BA979F
:109B40003247A207BA97635AF0166247FD1722966A
:109B50002300F600229793D687002300D7005247B0
:109B600093D6070122972300D700424793D6870157
:109B700022972300D700631B0B00B38252021567A4
:109B8000130707E2B3C2E20263C15716220DEA9D32
:109B9000A20D6E9C9387818B220CAA9705472A8B76
:109BA000E29C03C507006306EE12374C0020B74B5A
:109BB00000200A05130C0CEB938B0B0BB307AC00C6
:109BC0005E959C431841FD1C98CB938A018BA2940F
:109BD000DA9A2380940193D78C00A29903C70A00D4
:109BE0002380F90013D60C01229983C6618D2300CE
:109BF000C90093172700529493DC8C013306FC00B4
:109C000023009401DE9708428C439DE20CC93A85FB
:109C10006644F640D6444649B649264A964A064B1B
:109C2000F25B625CD25C425DB25D25616FE0CFE0C9
:109C3000EFD07FB41377F50F9307F00F03C50A0039
:109C4000E308F7FC0A052A9CAA9B83270C0003A7BC
:109C50000B0098CBF6406644D6444649B649264A9E
:109C6000964A064BF25B625CD25C425DB25D256156
:109C7000828063810A04C20893D8084163C3120535
:109C8000C207C183814A631E0300630C0B00854831
:109C900063D95800FD17C207C1839392070193D27D
:109CA0000241BA97139707014187B307FF01239039
:109CB000E700B9B5C207C183F9B776942300040061
:109CC00051BF8507C207C1839392070193D2024116
:109CD0005DBF374C0020B74B0020EFE0EFD5850C7F
:109CE000130C0CEB938B0B0BCDB5F24723800500C7
:109CF0000547A2972380E70051BD411126C29384F6
:109D0000D18B8387040006C622C4635DF000014442
:109D10002285EFF0FFC60504838704006204618496
:109D2000E348F4FEB2402244924441018280411152
:109D300006C6EFF04F88EFF04FB6EFF0EFC583C7E0
:109D4000E18B91C35D3F83C7218F89C7B240410139
:109D50006FE06FBFB24041018280411106C622C44C
:109D6000EFF0AF9BEFE07FFEEFF0EFA81387A1933A
:109D7000834707002544850793F7F70F6368F400CE
:109D80002300F700B24022444101828023000700F3
:109D9000793F1387B19383470700850793F7F70F40
:109DA000E370F4FE23000700B240224441018280A8
:109DB000011122CC26CA4AC84EC606CEAA891384EF
:109DC0004190EFD06FD4B7143D0008C03709002090
:109DD00093840490EFD04FD3032709061C403357D8
:109DE00097021D8D3355E502E36635FFF24062446C
:109DF000D2444249B2490561828079714ECE52CC3B
:109E000056CA5AC85EC6374A0020B749002022D435
:109E100026D24AD006D62A8921448144938B118ABE
:109E2000130A0AEB9389090B938A018A138B218AFF
:109E30009DA00A05B307AA004E959C43184198CBF4
:109E40001545BD3703C50A00858013591900EFE099
:109E5000AFBE1545B13F83470B008A073387F90032
:109E6000D2970C438843EFD07F9083C70A00937644
:109E7000F50F13E604F88A073307FA001545CE9765
:109E800099C29374F60F18439C437D141374F40F16
:109E90001CCB393F09C89377190003C50B00D1FBD0
:109EA000EFE08FB971BFB250225426850259925407
:109EB000F249624AD24A424BB24B45618280635DAD
:109EC000A004011122CC26CAB7143D004AC84EC6D0
:109ED00052C406CE2A8A13844190B7090020938485
:109EE00004902549EFD04FC208C0EFD0EFC103A7BF
:109EF00009061C40335797021D8D3355E502E37662
:109F0000A9FE7D1AE3100AFEF2406244D24442499F
:109F1000B249224A056182808280411106C622C46C
:109F200026C24AC02A89EFD0AFF64A85EFE0CFB00B
:109F300061457137614561376145513737440020CC
:109F4000B744002093172900130404EB9384040BF7
:109F5000BE943E941C409840114598CB8D374A855D
:109F6000EFE02FAB6545A13F944008400D46C14549
:109F7000EFD04FF52244B2409244024941016FD0E4
:109F8000CFF0011122CC26CA37440020B74400206C
:109F90000A059384040B130404EB4AC84EC652C44A
:109FA00006CEA149014AAA942A94054913151A001C
:109FB000137AF50F8C400840EFD04FFB1375F50F67
:109FC00075D91545EFF0BFEF8C400840EFD00FFA80
:109FD0001375F50F630125039387F9FF93F9F70FC5
:109FE000E39609FCF24062445285D2444249B249A8
:109FF000224A05618280136A1A008C400840EFD023
:10A00000EFF61375F50FE30A25FFF9B7797106D658
:10A0100022D426D22A84AE844AD04ECE52CC56CAFE
:10A020005AC85EC6B74A0020EFD08FE637490020F5
:10A0300093172400938A0AEB1309090B3387FA005C
:10A04000CA9718439C4305458A041CCBEFF03FE7B1
:10A0500022853164EFE04F9E13040435330A9900E2
:10A06000B3899A0011A019C883250A0003A5090025
:10A070007D14EFD0AFEF1375F50F75D5EFD0CFA8E6
:10A08000938941902699156AD694B71A3D0023A06A
:10A09000A9000144054BB70B0020938A0A90130ACC
:10A0A0000AE239A8EFD04FA683A70B0603A4090044
:10A0B000B3D75703330485403354F402636B8A00EB
:10A0C000832509008840EFD06FEA1375F50FE30B85
:10A0D00065FDEFD08FDB131544002A9406041305A9
:10A0E000800C3355A402B250225492540259F249C2
:10A0F000624AD24A424BB24B4561828003D7018605
:10A10000B70700209386072B93071700C20741115A
:10A11000C18306C63697B6970347070083C7070073
:10A120003A85BE8523ACE19423AEF194EFF01FEEA7
:10A13000B240B707002023A4A70641018280011185
:10A1400022CC26CA4AC84EC652C456C206CEAA8AD5
:10A150002E89374A0020EFD0AFD3B749002093971C
:10A160002A00130A0AEB9389090BA1441384818DF9
:10A170003E9ABE99DDA85685EFE00F8C2545EFF09D
:10A180001FD483270A0003A70900FD1493F4F40FDA
:10A1900098CB1C401359190085071CC01C4085072B
:10A1A0001CC01C4085071CC01C4085071CC01C40EF
:10A1B00085071CC01C4085071CC01C4085071CC0AF
:10A1C0001C4085071CC01C4085071CC01C4085071F
:10A1D0001CC01C4085071CC01C4085071CC01C40BF
:10A1E00085071CC01C4085071CC01C4085071CC07F
:10A1F0001C4085071CC01C4085071CC01C408507EF
:10A200001CC01C4085071CC01C4085071CC01C408E
:10A2100085071CC01C4085071CC01C4085071CC04E
:10A220001C4085071CC01C4085071CC01C408507BE
:10A230001CC01C4085071CC01C4085071CC01C405E
:10A2400085071CC01C4085071CC01C4085071CC01E
:10A250001C4085071CC01C4085071CC01C4085078E
:10A260001CC01C4085071CC0A1CC5685EFD0DFFC6C
:10A27000184093771900050718C01840050718C043
:10A280001840050718C01840050718C018400507F2
:10A2900018C01840050718C01840050718C0184016
:10A2A000050718C01840050718C01840050718C052
:10A2B000E38307EC83270A0003A7090098CB7DBD41
:10A2C0006244F240D2444249B249224A924A05616C
:10A2D0006FD0AFBB011122CC26CA4AC84EC652C4A9
:10A2E00056C206CEAA8AB7490020EFD06FBA3749C6
:10A2F000002093972A00938909EB1309090BA144C5
:10A30000014A1384818DBE993E995685EFD0DFF2C4
:10A310001C4003A709008326090085071CC01C40B8
:10A320005685135A1A0085071CC01C4085071CC09F
:10A330001C4085071CC01C4085071CC01C408507AD
:10A340001CC01C4085071CC01C4085071CC01C404D
:10A3500085071CC01C4085071CC014CBEFD07FEBC9
:10A360000545EFF0DFB58325090003A50900EFD00F
:10A37000EFBF1377F50F854715456316F700136A8E
:10A380000AF8137AFA0FEFF09FB38326090003A5AA
:10A3900009000D46C145EFD0EFB2FD14054593F419
:10A3A000F40FEFF0DFB1B5F0EFD02FAEF240624422
:10A3B0005285D2444249B249224A924A056182807A
:10A3C000635EA004011122CC26CAB7143D004AC81E
:10A3D0004EC652C406CE2A8A13844190B709002083
:10A3E000938404901309703EEFC01FF208C0EFC0C1
:10A3F000BFF103A709061C40335797021D8D335543
:10A40000E502E376A9FE7D1AE3100AFEF2406244FB
:10A41000D2444249B249224A05618280828003D6F1
:10A420000186B70500209385052B93071600C20708
:10A43000C183AE9703C8370083C6270013055600B3
:10A4400003C71700420522082E964181C2962E9519
:10A45000A20683C5070003460600B307D70083485A
:10A460000500A207AE9723ACC19423A6F1901397E1
:10A47000180023AE1195136707602384C18E2393C0
:10A48000E18EA384018E23A6018E05471545A38284
:10A49000E18E6FF0FFF2011152C4138A9198834745
:10A4A0000A0022CC26CA37440020B74400201304F7
:10A4B000040B938404EB8A073307F400A697144334
:10A4C00088434EC60D46C14506CE4AC89389C18A07
:10A4D000EFD04F9F83C709000D46C1458A07330758
:10A4E000F400A6971443884313890198EFD08F9DF9
:10A4F00083C7A1850D46C1458A073307F400A69797
:10A5000014438843EFD00F9C834709000D46C14593
:10A510008A073307F400A69714438843EFD08F9A35
:10A5200083470A008A073E94BE949C4018401384D7
:10A53000C18D98CB03C50900EFD01FD0034509009A
:10A54000EFD09FCF2945EFF0BFE78347040081CFCD
:10A5500005476389E70EF2406244D2444249B2495A
:10A56000224A056182801305E00AEFD09FF301457E
:10A57000EFD03FF34145EFD0DFF213050004EFD0F9
:10A580005FF213051008EFD0DFF11305F00CEFD0E8
:10A590005FF11305100AEFD0DFF01305800CEFD048
:10A5A0005FF01305600AEFD0DFEF1305800AEFD0EC
:10A5B0005FEF1305F003EFD0DFEE1305300DEFD0A2
:10A5C0005FEE0145EFD0FFED1305500DEFD07FEDAD
:10A5D00013050008EFD0FFEC1305900DEFD07FECD2
:10A5E0001305100FEFD0FFEB1305A00DEFD07FEB9D
:10A5F0004945EFD01FEB1305B00DEFD09FEA1305CF
:10A600000004EFD01FEA13050002EFD09FE90945CF
:10A61000EFD03FE91305D008EFD0BFE85145EFD0A8
:10A620005FE81305400AEFD0DFE71305600AEFD0BB
:10A630005FE71305F00AEFD0DFE683470400054724
:10A64000E39BE7F01305F00AEFD0BFE51305000424
:10A65000EFD03FE51305000AEFD0BFE41305600A11
:10A66000EFD03FE41305400AEFD0BFE31305200A03
:10A67000EFD03FE31305800CEFD0BFE21305F002EB
:10A68000EFD03FE213055002EFD0BFE113051008F1
:10A69000EFD03FE16244F240D2444249B249224AFB
:10A6A0001305500205616FD0DFDF411122C423AAD8
:10A6B000A1881384419323A8B188B7970008034564
:10A6C00004009387878423A6F186B79700089387B1
:10A6D000878806C626C24AC023A4F186EFD0DFB51C
:10A6E00013056003EFD0BFFC834704003749002007
:10A6F000B7440020130909EB9384040B8A0733073E
:10A70000F900A69718439C4301451CCBEFD03FFAB4
:10A7100003450400EFD05FB21305A003EFD03FF96B
:10A720008347040015458A073307F900A6971843A5
:10A730009C431CCBEFD0BFF703450400EFD0DFAF45
:10A740001305200BEFD0BFF68347040031458A077D
:10A750003307F900A69718439C431CCBEFD03FF575
:10A760008347040031458A073307F900A697184349
:10A770009C431CCBEFD0BFF38347040001458A07FD
:10A780003307F900A69718439C431CCBEFD03FF248
:10A7900083470400130530038A073307F900A6979F
:10A7A00018439C431CCBEFD09FF083470400130554
:10A7B00030038A073307F900A69718439C431CCB44
:10A7C000EFD0FFEE03450400EFD01FA71305700B79
:10A7D000EFD0FFED83470400130550038A073307CA
:10A7E000F900A69718439C431CCBEFD05FEC0345C0
:10A7F0000400EFD07FA41305B00BEFD05FEB8347CD
:10A80000040065458A073307F900A69718439C435F
:10A810001CCBEFD0DFE903450400EFD0FFA1130507
:10A82000000CEFD0DFE8834704001305C0028A075D
:10A830003307F900A69718439C431CCBEFD03FE7A2
:10A8400003450400EFD05F9F1305200CEFD03FE6D7
:10A850008347040005458A073307F900A697184384
:10A860009C431CCBEFD0BFE403450400EFD0DF9C3A
:10A870001305300CEFD0BFE38347040049458A0736
:10A880003307F900A69718439C431CCBEFD03FE257
:10A8900003450400EFD05F9A1305400CEFD03FE171
:10A8A00083470400130500028A073307F900A697BF
:10A8B00018439C431CCBEFD09FDF03450400EFD02F
:10A8C000BF971305600CEFD09FDE834704003D4522
:10A8D0008A073307F900A69718439C431CCBEFD097
:10A8E0001FDD03450400EFD03F951305000DEFD0A9
:10A8F0001FDC834704001305400A8A073307F90069
:10A90000A69718439C431CCBEFD07FDA8347040003
:10A910001305100A8A073307F900A69718439C43CA
:10A920001CCBEFD0DFD803450400EFD0FF90130518
:10A93000000EEFD0DFD7834704001305000D8A0710
:10A940003307F900A69718439C431CCBEFD03FD6A2
:10A950008347040011458A073307F900A697184377
:10A960009C431CCBEFD0BFD48347040035458A07F6
:10A970003307F900A69718439C431CCBEFD03FD375
:10A980008347040045458A073307F900A697184313
:10A990009C431CCBEFD0BFD1834704004D458A07B1
:10A9A0003307F900A69718439C431CCBEFD03FD048
:10A9B000834704001305B0028A073307F900A697FE
:10A9C00018439C431CCBEFD09FCE83470400130554
:10A9D000F0038A073307F900A69718439C431CCB62
:10A9E000EFD0FFCC83470400130540058A073307E7
:10A9F000F900A69718439C431CCBEFD05FCB83474D
:10AA000004001305C0048A073307F900A69718430A
:10AA10009C431CCBEFD0BFC98347040061458A0724
:10AA20003307F900A69718439C431CCBEFD03FC8CF
:10AA30008347040035458A073307F900A697184372
:10AA40009C431CCBEFD0BFC6834704002D458A072B
:10AA50003307F900A69718439C431CCBEFD03FC5A2
:10AA6000834704007D458A073307F900A6971843FA
:10AA70009C431CCBEFD0BFC38347040013053002B7
:10AA80008A073307F900A69718439C431CCBEFD0E5
:10AA90001FC203450400EFD02FFA1305100EEFD0AC
:10AAA0001FC1834704001305000D8A073307F9000F
:10AAB000A69718439C431CCBEFD07FBF834704006D
:10AAC00011458A073307F900A69718439C431CCB0E
:10AAD000EFD0FFBD8347040031458A073307F900F3
:10AAE000A69718439C431CCBEFD07FBC8347040040
:10AAF00045458A073307F900A69718439C431CCBAA
:10AB0000EFD0FFBA834704004D458A073307F900A9
:10AB1000A69718439C431CCBEFD07FB98347040012
:10AB20001305C0028A073307F900A69718439C4310
:10AB30001CCBEFD0DFB7834704001305F0038A076F
:10AB40003307F900A69718439C431CCBEFD03FB6C0
:10AB500083470400130540048A073307F900A697CA
:10AB600018439C431CCBEFD09FB4834704001305CC
:10AB700010058A073307F900A69718439C431CCB9E
:10AB8000EFD0FFB2834704001305F0028A073307B2
:10AB9000F900A69718439C431CCBEFD05FB18347C5
:10ABA00004007D458A073307F900A69718439C43A4
:10ABB0001CCBEFD0DFAF834704007D458A07330706
:10ABC000F900A69718439C431CCBEFD05FAE834798
:10ABD0000400130500028A073307F900A6971843FB
:10ABE0009C431CCBEFD0BFAC83470400130530025D
:10ABF0008A07BE943E9983270900984098CBEFD0EE
:10AC00001FAB03450400EFD02FE313051002EFD074
:10AC10001FAA03450400EFD02FE24545EFD03FA91E
:10AC20002945EFF0EFF903450400EFD0EFE02244AF
:10AC3000B240924402491305900241016FD03FA7F0
:10AC4000411106C6EFD05FC82945EFF06FF7130535
:10AC50000003EFD0DFE72945EFF08FF6130500037F
:10AC6000EFD0FFE62945EFF0AFF53145EFD03FE6F5
:10AC70002945EFF0EFF40545EFD07FE52945EFF0EA
:10AC80002FF41945EFD0BFE413054006EFF04FF362
:10AC900013054003EFD0BFE32945EFF06FF2130532
:10ACA0006003EFD0DFE2B240294541016FF04FF180
:10ACB000011106CE22CC26CA4AC84EC652C456C27C
:10ACC0002A8A5AC0EFC0DF9C5285EFD0EFD63744B6
:10ACD0000020B74400204945931A2A00130404EBCE
:10ACE0009384040BEFF0CFED33095401B389540181
:10ACF0008327090003A709000D45054B98CBEFF00A
:10AD00000F9C5285EFD0EFD083A5090003250900E1
:10AD1000EFC0DFA51375F50FE30865FFB389540194
:10AD20003309540183A5090003250900EFC01FA4BE
:10AD30001375F50F65D9D694569405498C40084093
:10AD4000EFC0DFA21375F50FE30A25FF5285EFF080
:10AD50004FA3131985005285EFF0AFA22A995285AF
:10AD6000EFF02FA222092A995285EFF08FA1220934
:10AD70002A995285EFF0EFA0EFC03F910840944030
:10AD80000D46C145EFC01F94F24062444A85D2444B
:10AD90004249B249224A924A024B0561828083D7D6
:10ADA00001863707002041111307072B06C6BA9703
:10ADB00083C707003E8523ACF194EFF07FEFB240EC
:10ADC000B707002023A4A7064101828023A201988F
:10ADD000239001862399018C239A018C2394018866
:10ADE000239501882396018823A0018823A2018846
:10ADF00011671307F7BF2398E18E37070020230C54
:10AE0000070637070020230007083707002023190B
:10AE1000070637070020231D070637070020232ACF
:10AE2000070637070020232E0706370700202308D0
:10AE3000070837070020230C0708370700202314D2
:10AE400007083707002023190708370700202326A3
:10AE5000070837070020232A070837070020232484
:10AE6000070623AE0196370700202326070637077B
:10AE7000002023220708A380019823AE0188B7078A
:10AE800000202389019211679387072B130707C0BE
:10AE90003E97238007008507E39DE7FEB707002064
:10AEA0002388070623870188A3870188828083A7D8
:10AEB000C1983E958346350003472500834715001A
:10AEC000A2063697220703450500BA97A2073E95CA
:10AED000828085476302F51663040518011106CECA
:10AEE00022CC26CA4AC84EC652C456C289476308F5
:10AEF000F50A8D476319F51203D70186370900203B
:10AF00001309092BB307E90083C6170083C707009D
:10AF1000A206B6979396070163D40600C176D58F33
:10AF200093062700C206C182CA9603C6160083C6CE
:10AF300006002206B29623A6F190139606016354EA
:10AF400006004176D18E1107420741830386F18BBB
:10AF50003A9903470900938707FB13840191B2963E
:10AF600013F5F70F9384819514C098C0EFD06FD379
:10AF700008403D89EFD0EFD20345040011811365ED
:10AF80000501EFD00FD2624403C50400F240D24461
:10AF90004249B249224A924A05616FD04FD983D7BC
:10AFA0000186370900201309092BCA9703C6370009
:10AFB00083C6270003C717002206B296A20603C65F
:10AFC0000700B307D700A207B29793840708C2040B
:10AFD00023ACF194C1809309000B138AF18B930A7F
:10AFE000800B4E85EFD0EFCB03450A00138404F8A5
:10AFF0004204EFD00FCB41454180EFD08FCAB30759
:10B00000890003C50700050442044180EFD02FD218
:10B01000E39784FE850993840408C20493F9F90F29
:10B02000C180E39059FDF2406244D2444249B249A2
:10B03000224A924A0561828083D701863707002021
:10B040001307072BBA9783C70700139787016187F8
:10B050006342070823A6F190A38FE18A6FF0AFC384
:10B0600083D70186370700201307072B13851700A6
:10B070009385270013863700938647004205BA97C9
:10B080004181C2054206C20603C80700C1823A9543
:10B09000C1814182BA953A960345050036978347A8
:10B0A000070083C505008346060023AC019523AE47
:10B0B000A19423A0B19623A2D19623A4F196238E26
:10B0C000018DA384A1982386B18A238DD184238006
:10B0D000F198828093E707F01397870161879DBFFE
:10B0E00085476305F50E55C989476317F50A0111B0
:10B0F00083D701864AC8370900201309092B26CABD
:10B100004EC652C456C2CA9706CE22CC03C63700DA
:10B1100083C6270003C717002206B296A20603C6FD
:10B120000700B307D700A207B29793840708C204A9
:10B1300023ACF194C1809309000B138A0187930A11
:10B14000800B4E85EFD02FC803450A00138404F806
:10B150004204EFD04FC741454180EFD0CFC6B3077F
:10B16000890003C50700050442044180EFD00FD2D7
:10B17000E39784FE850993840408C20493F9F90FC8
:10B18000C180E39059FDF2406244D2444249B24941
:10B19000224A924A05618280828003D70186B707DE
:10B1A00000209386072B93071700C2073697C183A9
:10B1B00003470700B69783C7070023ACE19423AE8B
:10B1C000F1942381E198A381F198828083D701864D
:10B1D000370700201307072BBA9783C70700139779
:10B1E000870161876348070023A6F1902388E186E1
:10B1F0006FD06FBF93E707F013978701618723A68E
:10B20000F1902388E1866FD00FBE8547630DF5105E
:10B2100079C589476314F50C011183D701864AC8A3
:10B22000370900201309092B26CA4EC652C4CA97F3
:10B2300006CE22CC03C6370083C6270003C71700FB
:10B240002206B296A20603C60700B307D700A207DC
:10B25000C16993848195B297138A09FC9CC08119B6
:10B26000138509FA1375F50F1384093EEFD03F8655
:10B270004204130500084180EFD07F859C40A297CF
:10B28000CA9703C50700130404FC42044180EFD0B1
:10B290003F8FE31544FF13840940420441809C40E2
:10B2A000A297CA9703C50700130404FC4204418017
:10B2B000EFD01F8DE31534FF8509050AC209420A44
:10B2C00093D90901135A0A01E39C09F8F240624438
:10B2D000D2444249B249224A05618280828083D6A3
:10B2E0000186B70700201386072B13871600938764
:10B2F00026004207B2964183C20783C606003297F2
:10B30000C18303470700B29783C7070023ACD194DA
:10B3100023AEE19423A0F196A38BD192A38CE1926A
:10B32000238CF192828083D7018637070020130790
:10B33000072BBA9783C70700139787016187634874
:10B34000070023A6F1902380E18C6FF07F8F93E7B5
:10B3500007F013978701618723A6F1902380E18C82
:10B360006FF01F8E994763E8A704B707000893871B
:10B3700047270A053E951C41828703D70186B706F9
:10B3800000209386062B3306D70083471600090753
:10B390000346060042074183A2073697B297034748
:10B3A0000700C207C18323ACF19423AEE194238F3D
:10B3B000E192239EF192828003D70186B706002096
:10B3C0009386062B3306D7008347160009070346EA
:10B3D000060042074183A2073697B297034707004A
:10B3E000C207C18323ACF19423AEE1942381E1949D
:10B3F0002390F194828083D70186370700201307BA
:10B40000072B938517001386270093863700C20504
:10B41000BA97C1814206C20603C50700C182BA9528
:10B4200041823A9683C505003697834707008346D5
:10B43000060023ACA19423AEB19423A0D19623A2FD
:10B44000F196A38AA192A389B192238BD192238AE8
:10B45000F192828003D70186B70700209386072BDD
:10B4600093074700C207C1833697B6970345370055
:10B4700083C537008348270003C827002205A2059B
:10B4800083C6170003461700AA982E9803450700A5
:10B4900083C50700A2082208B387060133071601F7
:10B4A0002207A2072A97AE973A8523A6E190BE8588
:10B4B00023A8F1906FF06F9F03D70186B707002094
:10B4C0009386072B93074700C207C1833697B69729
:10B4D0000345370083C537008348270003C827008A
:10B4E0002205A20583C6170003461700AA982E98C6
:10B4F0000345070083C50700A2082208B387060199
:10B50000330716012207A2072A97AE973A8523A68A
:10B51000E190BE8523A8F1906FD00FB303D70186C9
:10B52000B70700209386072B93074700C207C18304
:10B530003697B6970345370083C537008348270001
:10B5400003C827002205A20583C61700034617007B
:10B55000AA982E980345070083C50700A208220871
:10B56000B3870601330716012207A2072A97AE9771
:10B570003A8523A6E190BE8523A8F1906FD0CFB085
:10B5800003D70186B70700209387072B3E97834791
:10B59000170003470700A207BA97C207C1833E8579
:10B5A00023ACF1946FD00FA38547630AF50029C53A
:10B5B00089476315F500238401948280828083D7B4
:10B5C0000186370700201307072BBA9703C63700F9
:10B5D00083C6270003C717002206B296A20603C639
:10B5E0000700B307D700A207B29723A6F19023A8BC
:10B5F000F1942384A194828083D7018637070020A9
:10B600001307072BBA9783C7070023ACF194238451
:10B6100001942384F18C828059C985476318F50809
:10B6200083D70186370700201307072B13881700DD
:10B6300013852700938537001386470093865700AC
:10B640004208BA97135808014205C2054206C206CD
:10B6500083C80700C1823A984181C18141823A95ED
:10B66000BA953A9603480800369783470700034582
:10B67000050083C5050023AC11958346060023AE63
:10B68000019523A0A19623A2B19623A4D19623A627
:10B69000F196238C1197A38C01972381A186A38116
:10B6A000B1862382D186A382F1868280828083D76D
:10B6B0000186370700201307072BB388E70003C371
:10B6C000380003C628001388470013855700938568
:10B6D00067009D0783C61800220342084205C20581
:10B6E000C2071A96135808014181C181C1833A9853
:10B6F0003A95BA95BA97220683C808000343080012
:10B700000348050003C5050083C50700B387C600CD
:10B71000A207C69723A6F19023AC619423AE0195AE
:10B7200023A0A19623A2B19605472388F18CD14688
:10B730002388E192238CD1969306C003A38CD196E3
:10B7400023810186A381E18623820186A382E1868B
:10B75000238C6188A38C0189238DA188A38DB18856
:10B76000828039CD8547631CF50403D60186B70571
:10B7700000209385052B93071600C207C183AE975F
:10B7800003C7370083C627002E960345060093158E
:10B79000870003C71700AE9603C60700A206B74787
:10B7A000002036979387471C93162500B6972207EB
:10B7B000329723ACA19423A6E19098C38280828023
:10B7C00083D60186B70700201387072B93871600BF
:10B7D000C207BA96C18383C60600BA9703C707009B
:10B7E0009387418AB69723ACD19423AEE194054662
:10B7F000A381C1942380E700828085476301F50619
:10B8000029C18947631EF50283D7018637070020C7
:10B810001307072B4111BA9706C603C50700131774
:10B8200085016187AA876344070623ACF194EFE0A2
:10B830007FAAB240B707002023A4A7064101828057
:10B84000828083D70186370700201307072BBA971A
:10B8500083C707003E8523ACF1946FE00FEC03D75C
:10B860000186B70700209386072B93071700C207AE
:10B87000C1833697B6970347070083C707003A8509
:10B8800023ACE194BE8523AEF1946FE05F8B9367A8
:10B8900005F013F5F70F51BF31C18547631FF5025E
:10B8A00083D70186370700201307072BBA9783C673
:10B8B000070093978601E18763C9070A139727005A
:10B8C000B747002093870722BA97984323A6D190C1
:10B8D000B707002023A4E7068280828083D60186F2
:10B8E000138881901387160083070800370600200D
:10B8F00042071306062B4183B29632973746002043
:10B9000003430700130606221397270003CE060001
:10B910003A963747002037450020B7450020B74604
:10B9200000201307872485483E97130585209385BB
:10B930004521938606263E95BE95BE96938E1700AA
:10B9400023ACC195230017013707002023AE619473
:10B950002300C501238065002320060023801601F3
:10B960002300D8012324F706828093E606F09397FC
:10B970008601E187A1B7A14763EAA704B7070008DA
:10B98000938707290A053E951C41828783D6018645
:10B99000370700209307072B3387F600034607007D
:10B9A0008396818523ACC1946352D00203A741855D
:10B9B000FD16C2063E97C18293071700BE9611A0DE
:10B9C00085072300C7003E87E39CD7FE828003D70C
:10B9D0000186B70700209386072B93074700C2070D
:10B9E0004111C18306C63697B6970345370083C514
:10B9F00037008348270003C827000346170083C683
:10BA000017002205A205AA982E980345070083C5B2
:10BA10000700A2082208B387060133071601220790
:10BA2000A207AE972A97BE853A8523A6E19023A860
:10BA3000F190EFD07FA5B240B707002023A4A7065E
:10BA40004101828003D70186B70700209387072B27
:10BA50003386E7008346160003450600A2063695A6
:10BA60009316050163D40600C176558D9305270012
:10BA700013066700C2059306A700C1814206BE9562
:10BA80004182C2063E9683C33500C182BE96034FF3
:10BA9000360003CE250083CE360003432600390747
:10BAA00003C8150083C82600A2034207220F834261
:10BAB000160041831E9EBA97A20E83CF16007A937A
:10BAC000220E03CF0500F69883C31700834E0600AD
:10BAD00022033306C8019395880083C8060083C7F4
:10BAE0000700B386620022063387BF00A2067A965B
:10BAF00023A6A190939583002207F69623AEC194C6
:10BB0000469723AAD190AE9723ACE1909395070175
:10BB100063D40500C175CD8F9395070123AEF190D5
:10BB2000239CA18423AAC18423A6D18423A2E184D7
:10BB3000C18523AEB184B79700089387C74523A674
:10BB4000F186B79700089387074723A4F186828080
:10BB500083D60186B70700209387072B138716002B
:10BB60003386E70003460600B385D70083C505008A
:10BB700022062E969315060163D40500C1754D8EDD
:10BB8000890642074183C2063E97C182B6970343A6
:10BB9000370083C837000348270003C52700220366
:10BBA00083451700A20883C617001A9846950343D9
:10BBB0000700220883C80700220533870501B387E1
:10BBC000A60022071A97A20723ACC194C69723AEFA
:10BBD000E19423A0F1962388C184A388E18423897A
:10BBE000F184828083D70186370700201307072B53
:10BBF000BA9703C6370083C6270003C7170022067B
:10BC0000B296A20603C60700B307D700A207B297F1
:10BC100023A6F19023A4F184828083D7018637077D
:10BC200000201307072BBA9703C6370083C62700E7
:10BC300003C717002206B296A20603C60700B30781
:10BC4000D700A207B29723A6F19023A0F1848280A7
:10BC500083D70186370700201307072BBA9703C63F
:10BC6000370083C6270003C717002206B296A20634
:10BC700003C60700B307D700A207B29723A6F19027
:10BC800037070020232EF708828003D70186B707E5
:10BC900000209386072B93074700C207C183B697FE
:10BCA00003C83700369783C627008348370003460A
:10BCB0002700220883C51700C29603451700A20873
:10BCC0000348070013978600BA954696220683C755
:10BCD000070003A7018432952205A205BE9542956F
:10BCE00023A6A19023A8B190E34207CE3337E0000A
:10BCF000A384E1906FD0CFE003D70186B70700207F
:10BD00009386072B93074700C207C1833697B697E0
:10BD10008348370003C837000346270083C627003F
:10BD200003451700220883C51700A208C29646964D
:10BD300022060348070013978600BA953295370705
:10BD4000002083C707002205A2050327C70979B78A
:10BD500085476306F5026304052689476310F502EB
:10BD600083D70186370700201307072BBA9783C7AD
:10BD7000070023ACF194238BF18C8280828083D7DF
:10BD800001863707002079711307072BB306F700E8
:10BD900022D626D44AD24ED052CE56CC5ACA5EC8EB
:10BDA00062C666C46AC26EC003CE060093168E01D8
:10BDB000E18663C706249388470093868701C208FB
:10BDC00093D80801C206BA9813888700C182BA9630
:10BDD00003CA38001385C70013864701420883C38E
:10BDE000360083CD280093850701135808014205CA
:10BDF00042063A9803CB26004181C20541823A951A
:10BE00003A968349380083CA1800220AC181BA953C
:10BE10000349350003443600034D2800D29DA20398
:10BE200003C3160083C43500834C2500834B2600D2
:10BE30001E9B83C3060093968D008342180003CC9B
:10BE40002500B69AA2099386C70193870702834FFC
:10BE500015004E9D03CA080022092204C206C2072B
:10BE600003CF1500834E1600CA9CA29B834908008D
:10BE700003440600A20493188D0013168B00C182A0
:10BE8000C183BA96BA97269C0349050013988C0083
:10BE900096981A9613938A001A9A83C4050013156C
:10BEA0008C007E98A20823ACC195C69923AE41951B
:10BEB00093958B007A952208429923A03197F695A5
:10BEC0002205AA9423A22197A2052E9423A4919639
:10BED0002206B29323A6819603C3360023A8719647
:10BEE00003C8260083C8370003C5270083C5160092
:10BEF00003C617009382D18B2203A2080387020096
:10BF00001A98469503CB07002208220583CA06002B
:10BF10002A96B386050193172700931B1700220664
:10BF200005071388C1A32380E200329BA2063E9836
:10BF3000B69A1386C19E23208800938F81A2325423
:10BF4000138F019B938E419C138341A19388C199C8
:10BF50001385819D938501A0B7460020BE9F3E9F1B
:10BF6000BE9E3E93BE983E95BE9593864625B2975B
:10BF700023AA519723A06701DE96054723AA61995A
:10BF800023204F0123A03E012320230123A098005A
:10BF900023A05501A25412598259724AE24A524BC7
:10BFA000C24B324CA24C23A0CF012320750023901A
:10BFB0000600238FE18A124D824D4561828083D62F
:10BFC0000186370700201306072B13871600420748
:10BFD00041838385D18B3297B29603C60600834690
:10BFE00007001387818B9387018B2E97AE9723AC25
:10BFF000C19423AED1942300C7002380D700828050
:10C00000136E0EF04DBB05CD85476319F50283D73E
:10C0100001863707002041111307072B06C6BA9780
:10C0200083C707003E8523ACF194EFD01FDDB240FB
:10C03000B707002023A4A70641018280828083D60F
:10C040000186B70700201386072B138716009387F6
:10C0500026004207B2964183C20783C60600329784
:10C06000C18303470700B29783C7070023ACD1946D
:10C0700023AEE19423A0F196A380D18A2380E18AA4
:10C080002381F18A82802DCD8547631AF50603D876
:10C090000186B70800209388082B13071800930720
:10C0A000580042074183C2074697C183C697034E93
:10C0B000370003C337000345270083C52700220E3E
:10C0C00003461700220383C61700469872959A9577
:10C0D0002205034307000348080083C80700A205A0
:10C0E0003307A600B387B60022071A97A20723AC2E
:10C0F0000195C69723A8E19023AAF19082808280BF
:10C1000083D70186370700201307072BBA9703C789
:10C11000070023ACE194828025C585476311F506AD
:10C1200003D70186B70700209386072B93074700A4
:10C13000C2073697C183B6978348370003C83700D4
:10C140000345270083C52700A208034617002208DD
:10C1500083C617004695C29583480700220503C889
:10C160000700A2053307A600B387B600220746974B
:10C17000A207C29723A6E19023A8F1908280828033
:10C1800083D70186370700201307072BBA9783C789
:10C19000070023ACF194A389F18E05472389E18E32
:10C1A0008280411122C41384C18C184006C626C265
:10C1B0004AC09307F07C054563F8E700B24022448B
:10C1C00092440249410182801389C18F832409006E
:10C1D000EFB08F93138701903385A44014439317D6
:10C1E0008500A1830145E3FBF6FCB707002083A788
:10C1F00007068566938606FAB3D6D7021C40032647
:10C200000900B240A9071CC022449244939726001B
:10C21000B6978607B306F6002320D9001CC302494F
:10C2200041018280411126C201468545AA84130539
:10C23000800306C622C4EFB06FC613052060EFB0BE
:10C240002FD41305E060EFB0AFD3371401401305CE
:10C250000480930600200D46E145EFB0AFC693067B
:10C2600000400D46914513050480EFB0AFC537443B
:10C27000014013050480EFB07FBDA685130504803F
:10C28000EFB05FC6130504808145EFB07FCD130585
:10C2900004808145EFB0FFCD130504808145EFB0E8
:10C2A0003FCB130504808145EFB0BFD01305048058
:10C2B0008145EFB0DFD0130504809145EFB0DFCDAD
:10C2C000A14513050480EFB09FCC13050480EFB0A7
:10C2D0007FCB130504802244B24092449305503032
:10C2E00041016FB0DFCF85476305F51229C189474A
:10C2F000631EF50203D70186B70700209387072B3B
:10C30000B386E70083C60600139686016186634004
:10C310000616050742074183BA9703C5070023A6FF
:10C32000D19023AEA194630006168280828003D749
:10C330000186B70700209387072BB386E70083C6E3
:10C340000600139686016186368E634D06109305AE
:10C350001700C205C181BE9503C8350083C82500FA
:10C36000130657004206220803C5150041823E9677
:10C37000C298A20803C8050003431600B3051501BF
:10C3800003450600A2052E981316830023A6C1912B
:10C390002A9623AE01959315060163D40500C17555
:10C3A0004D8E1D0742074183BA9703C5370083C5E9
:10C3B000270003C717002205AA95A20583C8070016
:10C3C000B307B700A2078506BE98E206E186938709
:10C3D000018E1393160037450020BE96B745002006
:10C3E000374700201305451E9385C51F1307071FF8
:10C3F00023AAC1901A959A951A9723AC1191854753
:10C40000231005012390C500231017012380F60097
:10C41000828003D70186B70700209387072BB38656
:10C42000E70083C6060093958601E18563C705048E
:10C43000050742074183BA9703C6370003C72700A1
:10C4400003C517002206329783C7070022073A95D3
:10C4500022053E9523A6D19023A8A190E39705EC51
:10C460006FF05FDC13EE06F09376FE0FCDB593E62A
:10C4700006F013968601618669BD93E606F09395F2
:10C480008601E18575B76FB07FD6411106C6EFC052
:10C490007F86B74700209387C71FB7460020938643
:10C4A000061F1387018E1386A70023900700239091
:10C4B000060023000700890789060507E397C7FEE2
:10C4C000716513050520EFF0FFD5EFE03F9003A75E
:10C4D000C198938781982388019823800700834619
:10C4E00007000D476385E600B240410182803707AF
:10C4F0000020832607060567130707FAB3D6E6026E
:10C5000085452380B7001387C18F104323A6018C74
:10C51000B2403715004093972600B6978607B306BA
:10C52000F60023A0F19014C341016FB0EFD941117F
:10C5300022C4B705050037440140938555301305E3
:10C54000048006C6EFB03FAB09E5B240224441018A
:10C55000828013050480EFB05FA52244B24093753A
:10C56000F50F014541016FC06FED4111130590605A
:10C5700006C6EFB0EFA013050070EFB06FA0B24099
:10C580000D4541016FB08FA4411122C437240140F1
:10C590001305044006C6EFA05FE70145EFA01FEBBF
:10C5A0001305044001468945EFA05FEC01461305E1
:10C5B000044093050010EFA07FEB13050440814574
:10C5C000EFA0FFEF1305044005468545EFA01FF4DB
:10C5D00013050440370606008545EFB08F830546F6
:10C5E000854513050440EFB00F8613050440EFA006
:10C5F000DFEE0545EFD0DFDC130504402244B240F6
:10C6000041016FA09FEE79713705004006D6EFB06B
:10C610000FB495470C083EC8370500409307700CCF
:10C620003ECC231A0100231E0100230F0100EFB0AE
:10C63000AFBD4800EFB00FCB894750002314F10085
:10C6400085458547370500402312F100EFB02FCB19
:10C6500013064006854537050040EFB0EFF5130699
:10C660000007854537050040EFB02FEF3705004044
:10C6700001468545EFB0AFF637050040EFB0EFC596
:10C68000B2504561828001111305006006CE22CCB4
:10C6900026CA4AC84EC6EFB0AF8EB7060140D84290
:10C6A000B70700F9FD177D8F370600048567518FA6
:10C6B000374400201304040BD8C21388078089492B
:10C6C0001149A144C14393020002930F0004130FC8
:10C6D0000008930E00101303002093080040096522
:10C6E000916585402166232234012324240144C41A
:10C6F00023287400232A5400232CF401232EE40160
:10C700002320D403232264022324140323260403B6
:10C710001CD848D80CDC232234052324240564C407
:10C7200023287404232A5404232CF405232EE4051F
:10C730002320D40723226406232414072326040776
:10C740003CD868D82320140050DC232014042CDCAF
:10C75000371E014037470020B74600202322340906
:10C76000232424092326940823287408232A540800
:10C77000232CF409232EE4092320D40B2322640A5A
:10C780002324140B2326040B2328F40A232AA40AA7
:10C79000232CB40A2322340D2324240D2326940CA5
:10C7A0002328740C232A540C232CF40D232EE40D7F
:10C7B0002320D40F2322640E2324140F2326040FD6
:10C7C0002328F40E232AA40E232CB40E70DC23207D
:10C7D0001408232EC40A2320140C930407EB138996
:10C7E00006FB232EC40E938606FB130707EB814737
:10C7F000BD457D451303F00293090E40930350603D
:10C800009302F003930E406093080EC0130830604B
:10C81000930F0E80130F206001A82320170123A07F
:10C82000060185071107910613F6F70F63FBF50064
:10C83000E375C5FE636CC3002320C70123A0D601A6
:10C84000CDB72320F70123A0E601E1BF2320370164
:10C8500023A07600E31756FC9389041003250900F2
:10C8600091041109EFA0DFF1144003A5C4FF0D46A8
:10C8700093058004EFA01FE5184083A7C4FF1104AF
:10C8800098CBE39D34FDEFF05FCEEFF0FFCFEFF0FC
:10C890009FD76244F240D2444249B2493705004032
:10C8A00005616FB06FA299E16FB0BF9613172500B5
:10C8B000B7470020374500209387070B130505EB8A
:10C8C000BA973A95944308410D46C1456FA09FDF42
:10C8D0009357850093F7F70F05479376F50F638A13
:10C8E000E70295CF11476395E7021375F50F3747B8
:10C8F0000020B74700200A051307070B938707EBB3
:10C900002A973E95144308410D4681456FA09FDB51
:10C91000828093F5F50F89E936856FB0FF9193F525
:10C92000F50F36856FF03FF81375F50F3747002088
:10C93000B74700200A059387070B130707EB2A97D1
:10C940003E951C43184198CB8280411122C4372464
:10C9500001402A86954613050440814506C6EFA08E
:10C960009FBF0545EFD0DFA58327C444B2402244D2
:10C9700013D5F7410D893E9509854101828041110A
:10C980009357850006C693F7F70F0947638BE700B7
:10C990001147638CE7060547638FE702B240410108
:10C9A00082801375F50F37470020B7470020938723
:10C9B00007EB0A051307070B2A973E950C4308411E
:10C9C000EFA0DFDAB2401375F50FB707002023A4FC
:10C9D000A706410182801375F50F37470020B7473E
:10C9E0000020938707EB0A051307070B2A973E954C
:10C9F0000C430841EFA03FD8B2401375F50FB707BD
:10CA0000002023A4A706410182801375F50FEFF0E3
:10CA1000DFF3B240B707002023A4A70641018280BC
:10CA2000B94763EAA700B70700089387472B0A05B1
:10CA30003E951C41828723840198828083D701869A
:10CA4000370600201306062B938647001387A7009E
:10CA5000C206B38EC700C1824207B29683C23E00AF
:10CA60004183A107329783CF360003CE2E00C20741
:10CA7000034F370003C32600C183B29783482700C2
:10CA8000A20203C81E00A20F03C61700169E03C50C
:10CA90001600220F834517007E9383C2070083CFC1
:10CAA0000E00220EFA98220303CF06007298931705
:10CAB0008600A208B306650013168800834E07009F
:10CAC0007E9633871501A2069697FA96C20723AC85
:10CAD000C194C183220723AED194769723A0F19607
:10CAE00023A2E196828083D70186B7050020938533
:10CAF000052B3386B70003453600834626000347DF
:10CB0000160022059107AA96C207A206C183034612
:10CB100006003697AE9783C6070093178700B29733
:10CB200023A6F19023AED1944547E398E7F02389FB
:10CB3000D192828083D70186370700201307072B05
:10CB4000BA9703C6370083C6270003C7170022061B
:10CB5000B296A20603C60700B307D700A207B29792
:10CB600023A6F190828003D70186B7070020938621
:10CB7000072B93074700C207C1833697B697034533
:10CB8000370083C537008348270003C827002205E4
:10CB9000A20583C6170003461700AA982E980345DE
:10CBA000070083C50700A2082208B38706013307E0
:10CBB00016012207A2072A97AE973A8523ACE19483
:10CBC000BE8523AEF1946FF0BFD083D701863707BF
:10CBD00000201307072BBA9703C6370083C6270028
:10CBE00003C717002206B296A20603C60700B307C2
:10CBF000D700A207B2973E8523ACF1946FF03FD8DF
:10CC000083D70186370700201307072BBA9703C77E
:10CC1000070023ACE194828083D701863707002088
:10CC20001307072BBA9783C707003E8523ACF194FF
:10CC30006FD0EFA80111014685451305900406CE7B
:10CC4000EFA0DFA513054070EFA09FB3371500409C
:10CC5000EFA0FFCF930780438A85371500403EC47D
:10CC600002C0231201002316010023070100EFA0D8
:10CC7000BFD937150040EFA05FE637150040854566
:10CC8000EFB0CF9B37150040EFA0BFE4F240056145
:10CC90008280411106C6EFA05F9FEFF0DF9EEFF0AC
:10CCA0007FF9B70700089387877023A6F19823A020
:10CCB000019023AE018EB24023A2019041016FF09A
:10CCC000CFFC411185453715004006C6EFB08F9760
:10CCD000B24041016FD06F88374700200A05130723
:10CCE00007EB2A97B747002018439387070BAA97AB
:10CCF000944313080701130547019387818D61470A
:10CD000059A09043050690C39043050690C39043F5
:10CD1000050690C39043050690C39043050690C353
:10CD200014C19043050690C39043050690C39043F9
:10CD3000050690C39043050690C39043050690C333
:10CD40009043050690C39043050690C390430506A3
:10CD500090C39043050690C39043050690C390434B
:10CD60007D171377F70F050690C3904386050506D8
:10CD700090C39043050690C39043050690C390432B
:10CD8000050690C335C72320D80013968500E35AC3
:10CD900006F69043050690C39043050690C3904362
:10CDA000050690C39043050690C39043050690C3C3
:10CDB0009043050690C39043050690C39043050633
:10CDC00090C39043050690C39043050690C39043DB
:10CDD000050690C39043050690C39043050690C393
:10CDE0009043050690C39043050690C314C185BFC8
:10CDF0008280011106CE22CC26CA4AC84EC6B28411
:10CE000036892E84AA89EFA0BF8893958400A295C5
:10CE1000A2054E85CA95EFF03FECEFA01F87624454
:10CE2000F240D2444249B249294505616FD02F8969
:10CE300083D70186370700201307072B9385170038
:10CE40001386270093863700C205BA97C181420630
:10CE5000C206BA9503C30700C18241823A9683C8CD
:10CE600005003697834707000348060023AC61940A
:10CE700023AE119523A00197BE864286C6851A85EA
:10CE800023A2F1966FF0FFF601114AC82E894EC613
:10CE900052C406CE22CC26CAAA89328AEFA04FFFFE
:10CEA000630D0902B704002001449384042B330767
:10CEB00044012697834617008347070083452700D0
:10CEC00013978600BA970D04A2074204BE954E85BB
:10CED0004184EFF07FE0E34C24FDEFA00FFB6244C0
:10CEE000F240D2444249B249224A294505616FC005
:10CEF0001FFD03D50186370800201308082B1307F0
:10CF0000350042079306150041834297C2068348C5
:10CF10003700C182C2960346270083C716008345A7
:10CF2000170003C30600A208B30616014295034684
:10CF30000700A20603480500A2073387D5009A9789
:10CF40002207C207C183329723AC0195BE8523AE69
:10CF5000F1943A86428523A0E1966FF0FFF2DD4717
:10CF600063EBA70A37070008931725001307072F5D
:10CF7000BA979C4382872E856FF00F9A2E856FF0AB
:10CF80008F902E856FF02F882E856FE07FDC2E85A9
:10CF90006FF06FB585476383F50882808547E39E10
:10CFA000F5FE6FC0CFF12E856FE0FF9CFDF56FD0D1
:10CFB0000FC72E856FE0EFFAEDF16FD05FDE2E85A3
:10CFC0006FE0BF83F9F96FF0DFF2E1F96FF05FE630
:10CFD0002E856FE02FB9F1F16FD04F92B9C185471F
:10CFE0006390F50403C78187B707002023A4E706F1
:10CFF00082802E856FE05F8A2E856FE0EFE12E85BF
:10D000006FE08FDA2E856FE0AF8D2E856FD07FECCD
:10D010002E856FE08F9F2384019882806FC01F89C7
:10D02000828083D70186370700201307072BBA9722
:10D0300083C70700854623ACF194238DD186A3884E
:10D04000F18682809357850099CB1307700C637328
:10D05000F70082809375F50F3E856FF05FF01375D2
:10D06000F50F6FF0FF9B01114AC81389419803A681
:10D07000C1984EC68329090026CA91479384C18965
:10D080009CC0B306360122CC804206CE1307B00EF8
:10D090009377F40F6374F7006F10D013370700080D
:10D0A0008A0713070735BA979C4321808287B70701
:10D0B000002093878706984383A6C197138449006D
:10D0C000158F98C323208900F2406244D24442491C
:10D0D000B24905618280B70700209387870698438D
:10D0E00083A6C19713844900369798C3E1BFB70759
:10D0F000002003A78706B70700209387072B3E94DD
:10D100002300E4001384490075BFB707002093870C
:10D1100087069843138449003307E04098C35DB7FE
:10D12000B70700209387072B3E940347040013841E
:10D13000490023AEE19679B7B70700209387072B04
:10D140003E9403470400B70700201384490023A43A
:10D15000E7068DBF37070020130787061C43B3D7A8
:10D160008740858B1CC313844900A9BFB7070020E3
:10D170009387870603C707001384490098C399B7AC
:10D18000B707002093878706984383A6C197138427
:10D1900049003307D70298C335B7B70700209387F4
:10D1A000870603D707001384490098C321BF3707B8
:10D1B0000020130787061C43B3D7874093F7F70F68
:10D1C0001CC313844900FDBDEFA02FCC0547A380ED
:10D1D000E1989385018F83D7050037070020130757
:10D1E000072B138617009386270042064182C2064A
:10D1F0003A96C1828D07BA9603460600C207C183DC
:10D2000083C606003E970344070022063387C60004
:10D2100022072390F5003A9423A0040065B5B707D0
:10D220000020938787069843138449002A0798C3F0
:10D2300051BDB707002093878706984383A6C197FF
:10D24000138449003347D70298C3ADBDB707002008
:10D2500093878706984383A6C19713844900334771
:10D26000D70298C385B513170401B7070020938729
:10D27000072B41833E97834717000347070013841A
:10D280004900A207BA97C207C183370700202324A9
:10D29000F7060DBDB707002003A7870613844900D2
:10D2A00023AEE19605B583D7018637070020130723
:10D2B000072BA297C207C183BA9703C7170083C77A
:10D2C00007002207BA9713970701635407004177B5
:10D2D000D98F370700202324F70613844900DDB3D4
:10D2E00083D70186370700201307072BA297C207B1
:10D2F000C183BA9783C70700139787016187635477
:10D30000070093E707F0370700202324F70613846C
:10D3100049004DBB3707002083A7C19783268706A6
:10D32000370700201307072BBA972380D7001384F1
:10D33000490049BB03874600B707002013848900D2
:10D3400023A4E706A1479CC0B5BB03D74600B70797
:10D3500000201384890023A4E706A1479CC09DB345
:10D3600083D70186370700201307072BA297BA97A8
:10D3700003C70700B70700201384490023A4E7066A
:10D3800091B3B707002003A78706B70600209317BD
:10D3900004019386062BC183B697935587001356D5
:10D3A0000701935687012380E700A380B7002381FC
:10D3B000C700A381D7001384490029B383D701860E
:10D3C000370700201307072BA297C207C183BA971C
:10D3D00003C6370083C6270003C717002206B2968C
:10D3E000A20603C60700B307D700A207B297370704
:10D3F00000202324F70613844900E9B183D701866E
:10D40000370700201307072BA297C207C183BA97DB
:10D4100003C7170083C607001384490093178700CA
:10D42000B697C207C183370700202324F70659B9EE
:10D4300083D70186370700201307072BA297BA97D7
:10D4400003C70700B70700201384490023A4E70699
:10D4500095B983D70186370700201307072BA297BA
:10D46000BA9703C70700B70700201384490023A415
:10D47000E70689B9B707002003A78706B70600208B
:10D48000931704019386062BC183B69793558700A3
:10D4900013560701935687012380E700A380B70046
:10D4A0002381C700A381D7001384490021B9B7079E
:10D4B000002003A68706B706002093170401131760
:10D4C0000601C18341839386062BB697218323806F
:10D4D000C700A380E70013844900EDB60397460018
:10D4E000B70700201384890023A4E706A1479CC046
:10D4F000D1BED842B70700201384890023A4E706D1
:10D50000A1479CC0C1B6B707002093878706984300
:10D5100083A6C1971384490033A7E60098C35DB67C
:10D520003704002013048406084003A6C19713574C
:10D53000F541938781921358F641935565012A0767
:10D5400090C323A20701C2862A05D98DEF108066F9
:10D550009387019208C088C3CCC3138449009DB649
:10D5600093170401370700201307072BC183BA97CD
:10D5700003C6370083C6270003C717002206B296EA
:10D58000A20603C60700B307D700A207B297370762
:10D5900000202324F706138449002DB63707002006
:10D5A0001307870683A6C1971C4337060020232252
:10D5B000D608B397D70093F7F70FB706002023A636
:10D5C000F6061CC313844900F5BCB70700209387F7
:10D5D000870683A6C1979843370600202322D608E2
:10D5E000358FB706002023A6E60698C313844900AA
:10D5F000D1BCB70700209387870683A6C1979843BD
:10D60000370600202322D608558FB706002023A610
:10D61000E60698C31384490075B4B70700209387C2
:10D62000870683A6C1979843370600202322D60891
:10D63000758FB706002023A6E60698C31384490019
:10D6400051B4B7070020938787069843B706002098
:10D65000138449001347F7FF23A6E60698C39DB439
:10D66000B7070020938787069843C166FD16358F5C
:10D67000B706002023A6E60698C31384490099B490
:10D68000B7070020938787069843B70600201384C6
:10D6900049001347F70F23A6E60698C325B4B7073A
:10D6A0000020938787069843B7060020138449001B
:10D6B0001347170023A6E60698C329B437070020AE
:10D6C000130787061C4383A6C19713844900958FCF
:10D6D000B337F0001CC3FDB23707002013078706DD
:10D6E0001C4383A6C19713844900958F93B71700F5
:10D6F0001CC3C9BA370700201307870683A6C19742
:10D700001C43370600202322D608B3B7F60093C780
:10D710001700B706002023A6F6061CC31384490091
:10D7200055B2B70700209387870683A6C197984311
:10D73000370600202322D6083337D700B70600204B
:10D7400023A6E60698C313844900ADBA3707002024
:10D750001307870683A6C1971C43370600202322A0
:10D76000D608B3B7D70093C71700B706002023A683
:10D77000F6061CC313844900B1B2B7070020938793
:10D78000870683A6C1979843370600202322D60830
:10D7900033B7E600B706002023A6E60698C3138435
:10D7A00049000DB2B70700209387870683C6C1974B
:10D7B00003C70700370600202322D6083377D70295
:10D7C000370600201384490093168701E18623263B
:10D7D000E60694C3C5B8B70700209387870683C6BB
:10D7E000C19703C70700370600202322D608335706
:10D7F000D702B70600201384490023A6E60698C383
:10D80000D1B0B70700209387870683C6C19703C7A7
:10D810000700370600202322D6083307D702370631
:10D820000020138449009376F70F2326E60694C35D
:10D8300051B837070020130787061C4383A6C197FA
:10D8400013844900958F93F7F70F1CC36FF09F87E0
:10D85000B707002093878706984313844900E35352
:10D8600007863307E04098C36FF0DF8503874600E3
:10D870001384890023AEE196A1479CC06FF09F847A
:10D88000B707002093878706984383A6C197138420
:10D890004900558FE3080782054798C36FF09F82C0
:10D8A000B70700209387870698431384490019E33C
:10D8B0006F10001303A7C19719E36F10601205479B
:10D8C00098C36FF03F80B70700209387870698437F
:10D8D0001384490019C36F10C011054798C36FF036
:10D8E0006FFEB70700209387870698433A9480C35A
:10D8F000138449006FF00FFD83A7C19737070020FD
:10D9000013078706B307F402144313844900B6973C
:10D910001CC36FF02FFBDC4203D701861384890000
:10D92000BA97370700202324F706A1479CC06FF061
:10D930006FF903C74600B70700201384890023A4AA
:10D94000E706A1479CC06FF0EFF79386018F83D75E
:10D95000060003D60186370700209305072B13879F
:10D96000F7FF42073385B70041832300C5002E9798
:10D970002182F9172300C7002390F6001384490081
:10D980006FF04FF41386018F83570600370700208E
:10D990001307072B93861700C2068907C182C207A7
:10D9A000C183BA9683C606003E9783450700139746
:10D9B00086002310F6002E972390E18613844900F9
:10D9C0006FF04FF0138449006FF0CFEFB7070020DE
:10D9D00093878706984313844900298798C36FF07B
:10D9E0006FEE37070020130787068357070003A849
:10D9F0004600A14694C01CC31DC81385C1973E961E
:10DA00001441834706006394D7006F106007814775
:10DA100011A83307F60003470700BE856314D7003B
:10DA20006F1020068507C207C183E3E487FE23A0A9
:10DA3000040042846FF00FE9B70700208396870641
:10DA400037070020931704011307072BC183BA97E8
:10DA500013D786002380D700A380E70013844900F2
:10DA60006FF04FE60547A380E198EF901FC29C40FE
:10DA7000032409003E946FF0EFE4370700201307FA
:10DA800087061C4383A6C19713844900B697C20733
:10DA9000C1831CC36FF00FE383D7018637070020D3
:10DAA00003278706A297C207B70600209386062B96
:10DAB000C183B69793558700135607019356870184
:10DAC0002380E700A380B7002381C700A381D7008C
:10DAD000138449006FF00FDF3707002083D70186DA
:10DAE00003268706B7060020A297C2071317060170
:10DAF000C18341839386062BB69721832380C70079
:10DB0000A380E700138449006FF0CFDB83D7018641
:10DB1000370700208326870637070020A2971307C0
:10DB2000072BBA972380D700138449006FF08FD951
:10DB300083D7018637070020832687063707002012
:10DB4000A2971307072BBA972380D70013844900A5
:10DB50006FF04FD783D701863707002083268706CB
:10DB600037070020A2971307072BBA972380D70007
:10DB7000138449006FF00FD583D701863707002043
:10DB80001307072BA297C207C183BA9703C63700B2
:10DB900083C6270003C717002206B296A20603C653
:10DBA0000700B307D700A207B29723AEF1961384FC
:10DBB00049006FF02FD183D7018637070020130764
:10DBC000072BA297C207C183BA9703C7170083C761
:10DBD00007002207BA97139707016354070041779C
:10DBE000D98F23AEF196138449006FF0AFCD83D760
:10DBF0000186370700201307072BA297C207C183AE
:10DC0000BA9783C70700139787016187635407009A
:10DC100093E707F023AEF196138449006FF08FCAA3
:10DC200083D70186370700201307072BA297C20767
:10DC3000C183BA9703C6370083C6270003C71700FE
:10DC40002206B296A20603C60700B307D700A207B2
:10DC5000B29723AEF196138449006FF0AFC683D715
:10DC60000186370700201307072BA297C207C1833D
:10DC7000BA9703C7170083C6070013844900931798
:10DC80008700B697C207C18323AEF1966FF08FC3AA
:10DC900083D70186370700201307072BA297BA976F
:10DCA00003C707001384490023AEE1966FF08FC1CC
:10DCB00083D70186370700201307072BA297BA974F
:10DCC00003C707001384490023AEE1966FF08FBFAE
:10DCD00083D70186370700201307072BA297BA972F
:10DCE00003C707001384490023AEE1966FF08FBD90
:10DCF00083D70186370700201307072BA297C20797
:10DD0000C183BA9703C6370083C6270003C717002D
:10DD10002206B296A20603C60700B307D700A207E1
:10DD2000B297370700202324F706138449006FF0C9
:10DD30006FB9B707002003A7870683D7C197B70637
:10DD400000209386062BB69793558700135607013C
:10DD5000935687012380E700A380B7002381C70083
:10DD6000A381D700138449006FF0CFB5B707002017
:10DD700003A6870683D7C197B706002013170601AD
:10DD800041839386062BB69721832380C700A38007
:10DD9000E700138449006FF0EFB203974600138445
:10DDA000890023AEE196A1479CC06FF0AFB1B707E1
:10DDB000002023A48706138449006FF0AFB0131727
:10DDC0000401B70700209387072B41833E978346C2
:10DDD0002700834717000344070013978600BA976C
:10DDE000A2073E9423A004006FF0CFAD83D7018635
:10DDF00083D6018FA297C207370700201307072B8E
:10DE0000C183BA9713D786002380D700A380E70089
:10DE1000138449006FF00FAB83D7018637070020CA
:10DE20001307072BA297C207C183BA9703C717002E
:10DE300083C607001384490093178700B697239879
:10DE4000F18E6FF02FA883D70186370700200327B4
:10DE50008706A297C207B70600209386062BC183C8
:10DE6000B697935587001356070193568701238071
:10DE7000E700A380B7002381C700A381D7001384E4
:10DE800049006FF02FA483D701863707002083163F
:10DE90008706A297C207370700201307072BC18305
:10DEA000BA9713D786002380D700A380E700138496
:10DEB00049006FF02FA183D7018637070020832602
:10DEC000870637070020A2971307072BBA972380EE
:10DED000D700138449006FF0EF9E37070020130727
:10DEE00087061C4383A6C19713844900B3A7F60095
:10DEF00093C717001CC36FF0EF9C37070020130770
:10DF000087061C4383A6C19713844900958FC207D7
:10DF1000C1831CC36FF00F9B03D746001384890095
:10DF200023AEE196A1479CC06FF0CF99A3800198E2
:10DF3000EF900FF69C40032409003E946FF08F98F9
:10DF400037070020130787061C4383A6C197138455
:10DF50004900B69793F7F70F1CC36FF0AF96B7075A
:10DF6000002093878706984383A6C19713844900AE
:10DF70003347D70298C36FF0EF94B7070020938719
:10DF8000870683A6C1979843370600202322D60828
:10DF90003357D702B70600201384490023A6E606AC
:10DFA00098C36FF02F9293170401370700201307CF
:10DFB000072BC183BA9703C6370083C6270003C760
:10DFC00017002206B296A20603C60700B307D700C1
:10DFD000A207B29723AEF196138449006FF08F8E9B
:10DFE00013170401B70700209387072B41833E973F
:10DFF000834717000347070013844900A207BA9715
:10E00000C207C18323AEF1966FF0CF8B3707002094
:10E010001307870603A6C1970C439307F00FC16649
:10E02000B3978700FD16B58F33148600B70600201E
:10E03000ED8FC18F23A2C608B706002023A6F606DF
:10E040001CC3138449006FF0EF87B7070020938744
:10E050008706944303A6C19705473314870033E727
:10E06000860009E61344F4FF3377D400B706002096
:10E0700023A6E60698C3138449006FF0AF8483A6F5
:10E08000C197B70700209387870605473317870096
:10E090009043E39D06161347F7FF718F42074183B4
:10E0A000B706002023A6E60698C3138449006FF044
:10E0B0006F8183A6C197B70700209387870605471E
:10E0C000331787009043E39A06121347F7FF718FC7
:10E0D0001377F70FB706002023A6E60698C313842C
:10E0E00049006FE03FFED8421384890023AEE196D9
:10E0F000A1479CC06FE01FFDB707002003A787065C
:10E100008547E305F718138449006FE0BFFBB707A5
:10E1100000209387870683A6C1979843370600207F
:10E120002322D6083357D700B706002023A6E606D9
:10E1300098C3138449006FE0FFF8B7070020938766
:10E1400087069843E319070C23A004006FE09FF7AC
:10E15000B707002083A78706E386070A13844900D0
:10E160006FE05FF6D8421384890023AEE196A147A1
:10E170009CC06FE03FF5B70700209387870683A612
:10E18000C1979843370600202322D6083317D700BB
:10E19000B706002023A6E60698C3138449006FE063
:10E1A0007FF2370700201307870683A6C1971C4319
:10E1B000370600202322D608B397D700C207C183B1
:10E1C000B706002023A6F6061CC3138449006FE09F
:10E1D0007FEF03A5C197B707FF0013844900E98FBC
:10E1E000E391070493170501370700201307072B56
:10E1F000C183BA9703C6370083C6270003C7170039
:10E200002206B296A20603C60700B307D700A207EC
:10E21000B297370700202324F7066FE0BFEA83A7F1
:10E22000C197B706FF001384490013970701418384
:10E23000F58F93061700E39B0700370600201306AF
:10E24000062BB29683C70600329703470700A20742
:10E25000BA97C207C183370700202324F7066FE06F
:10E260007FE61387218D83560700B707002003A69A
:10E270008706B70700209387072BB697850623806C
:10E28000C7002310D700138449006FE0BFE3138752
:10E29000218DB70700208356070003968706B7072E
:10E2A00000209387072BB697935586008906238015
:10E2B000C700A380B7002310D700138449006FE084
:10E2C0007FE01387218D83560700B707002003A640
:10E2D0008706B70700209387072BB697850623800C
:10E2E000C7002310D700138449006FE0BFDD1387F8
:10E2F000218DB707002003A6870683560700B707BE
:10E3000000209387072BB6971358860013550601F4
:10E310009355860191062380C700A38007012381BE
:10E32000A700A381B7002310D700138449006FE032
:10E330007FD9B707002083A587061387218D8356D1
:10E340000700B70700201396050141829387072B2A
:10E35000B697218289062380B700A380C7002310C7
:10E36000D700138449006FE0FFD583A7C197370713
:10E37000FF00138449007D8F631F076A3707002061
:10E380001307072BBA9703C70700B707002023A47A
:10E39000E7066FE03FD31387218DB707002003A660
:10E3A000870683560700B70700209387072BB69789
:10E3B0001358860013550601935586019106238054
:10E3C000C700A38007012381A700A381B700231002
:10E3D000D700138449006FE0FFCEB7070020938772
:10E3E00087069843138449009316070163C4060007
:10E3F0006FE05FCDC176558F98C36FE0BFCCB70794
:10E400000020938787069843138449009376070872
:10E4100099E26FE03FCB136707F098C36FE09FCAA4
:10E4200093170401370700201307072BC183BA97FE
:10E4300003C6370083C6270003C717002206B2961B
:10E44000A20603C60700B307D700A207B29723AE00
:10E45000F196138449006FE0FFC693170401370754
:10E4600000201307072BC183BA9703C7170083C780
:10E4700007002207BA9713970701635407004177F3
:10E48000D98F23AEF196138449006FE0BFC3138781
:10E49000218D83560700B707002003A68706B7071C
:10E4A00000209387072BB69785062380C70023108B
:10E4B000D700138449006FE0FFC003C746001384F0
:10E4C000890023AEE196A1479CC06FE0BFBF1387D0
:10E4D000218D83560700B707002003A68706B707DC
:10E4E00000209387072BB69785062380C70023104B
:10E4F000D700138449006FE0FFBC9317040137076E
:10E5000000201307072BC183BA9783C7070013970F
:10E51000870161876354070093E707F023AEF19604
:10E52000138449006FE01FBA3707002013078706DE
:10E530001C43B3D78740C207C1831CC3138449005F
:10E540006FE05FB89387018603D7070033048740E5
:10E5500023908700138449006FE0DFB683D70186DC
:10E56000A297C207C183239AF18C2399F18C13845B
:10E5700049006FE03FB59385018F83D705003707CA
:10E5800000209306072B1386F7FF03D5418D420623
:10E590001387E7FF3388D7009109418242072300A0
:10E5A0003801369613D88900418336972300060137
:10E5B00093D90901F5172390A186230037012390F1
:10E5C000F50023A004006FE0FFAF23A004006FE07C
:10E5D0007FAF23908186138449006FE0BFAE03D7DD
:10E5E000418DC8422390E186EFE0DFA503240900B6
:10E5F000A1479CC021046FE0FFACB70600209386C2
:10E6000086069C4203A6C19741677D17798EF98FD4
:10E61000B3D7C702B705002023A2C5081384490059
:10E62000139607014186718F370600202326F606D0
:10E6300098C26FE03FA9B7070020938787069843E9
:10E64000138449009316070163C406006FE09FA777
:10E65000C176558F98C36FE0FFA6370700201307D8
:10E6600087061C431384490093F6070893F7F70FB6
:10E67000639E063E1CC36FE0FFA43707002013070C
:10E6800087061C431384490093F6070893F7F70F96
:10E69000639C06341CC36FE0FFA2370700201307FA
:10E6A000870683A5C1971C43138581923396B702D1
:10E6B00013D8F5410CC193860192232205011384DE
:10E6C0004900B387B702931566012986D0C2A98392
:10E6D000CD8F9CC21CC36FE0FF9EB70700209387BD
:10E6E00087069843138449009376070899E26FE000
:10E6F0007F9D136707F098C36FE0DF9CB70700208A
:10E7000093878706984313844900931607011316CD
:10E710000701C1826341063694C36FE0BF9A370791
:10E7200000201307870683A6C197835707008A0630
:10E73000B6971CC33E96004223A004006FE09F984A
:10E74000D842B70700201384890023A4E706A14715
:10E750009CC06FE03F97B7070020938787069843D8
:10E7600083A6C197138449003367D70298C36FE02B
:10E770007F95B707002093878706984383A6C197A4
:10E78000138449003367D70298C36FE0BF93B7077C
:10E79000002093878706984383A6C1971384490076
:10E7A0003367D70298C36FE0FF91B70700209387C4
:10E7B000870683A6C1979843370600202322D608F0
:10E7C0003377D702B70600201384490023A6E60654
:10E7D00098C36FE03F8F37070020130787061C435D
:10E7E00083A6C19741667D16F18EF18FB3F7D702EC
:10E7F000370600202322D60837060020138449005C
:10E8000093960701C1862326F60614C36FE09F8BFB
:10E810003707002083A6C19713078706C1671043F7
:10E82000FD17B397870093C7F7FF33948600F18FE6
:10E8300037060020C18F2322D608B706002023A662
:10E84000F6061CC3138449006FE0DF8737070020FA
:10E850001307870683A6C19710439307F00FB3975A
:10E86000870093C7F7FF33948600F18F37060020A7
:10E87000C18F2322D608B706002023A6F6061CC3A4
:10E88000138449006FE01F843707002013078706B1
:10E890001C4383A6C19713844900B3A7D70093C72D
:10E8A00017001CC36FE01F82B707002093878706FD
:10E8B000984383A6C197138449003327D70098C390
:10E8C0006FE05F80B70700209387870683A6C19714
:10E8D0009843370600202322D6083307D702B7060D
:10E8E00000201384490023A6E60698C36FE08FFD3D
:10E8F000B7060020938686069C4203A6C19741670F
:10E900007D17798EF98FB387C702B705002023A240
:10E91000C50813844900139607014186718F370695
:10E9200000202326F60698C26FE0CFF99317040162
:10E93000370700201307072BC183BA9703C71700B7
:10E9400083C707002207BA9713970701635407008C
:10E950004177D98F370700202324F7061384490015
:10E960006FE04FF693170401370700201307072BBA
:10E97000C183BA9783C707001397870161876354E0
:10E98000070093E707F0370700202324F7061384D6
:10E9900049006FE02FF39317040137070020130796
:10E9A000072BC183BA9703C6370083C6270003C766
:10E9B00017002206B296A20603C60700B307D700C7
:10E9C000A207B297370700202324F70613844900D3
:10E9D0006FE04FEF23840198138449006FE08FEEBE
:10E9E00023A007006FE00FEE93E707F01CC36FE072
:10E9F0006FED23A007006FE0EFEC1377F70F518F57
:10EA00006FF04FED23A004006FE0CFEB420741838E
:10EA1000518F6FF0EFE87D1798C3138449006FE0C2
:10EA20006FEA42054181EFC08FC8B707002023A4D9
:10EA3000A7066FE02FE9C207C1833E960347060091
:10EA4000B707002023A4E7066FE0CFE7B29683C79D
:10EA50000600329703470700A207BA97C207C1838F
:10EA6000370700202324F7066FE0CFE593E707F090
:10EA70001CC36FE02FE54177D98E94C36FE08FE41C
:10EA800081450CC1138489006FE0CFE323A004000B
:10EA90006FE04FE383C72193411106C622C481C7AB
:10EAA00083C7119885E3370400201304042BEFE09B
:10EAB0008FDB83474400E5DF23020400B240224499
:10EAC00041018280B7070020238807069387E188E9
:10EAD00003C6070083C60700374700201307071B3C
:10EAE000850693F6F60F2380D70083C6070032977A
:10EAF00045462300C7005147630DD70003C7F1887F
:10EB000083C7070093F7F70FE38FE7F8EF906FE500
:10EB100059BF23800700DDB783C7819891E38280C6
:10EB2000411106C622C426C2EFD0AFE73DCD83C750
:10EB30002193B5C79384C18F8040EF80EFFC93870A
:10EB400001903305A440984322052181637FA704E7
:10EB5000B70500201387052B03463700834627009F
:10EB6000034717002206B296A20603C6052B369766
:10EB7000220732971306400601C713160701418288
:10EB800037070020032707068566938606FA335762
:10EB9000D70294403307C702BA9698C394C0224460
:10EBA000B240924441016FF0FFEEB24022449244E1
:10EBB00041018280014863C6050E63DB060033060F
:10EBC000C040B337C000B306D0401348F8FF9D8E55
:10EBD000B6873283AA8EAE886391061863FCC50C93
:10EBE00041676361E61EB70700016365F636935619
:10EBF0008601E1471787FFFF1307873136970347E1
:10EC00000700BA97130700021D8F19CBB395E500D3
:10EC1000B357F5003313E600B3E8B700B31EE500C1
:10EC200013560301B3D7C80293160301C18213D749
:10EC30000E01B3F5C8023385F602C205B3E8E5005C
:10EC400063FAA8009A981387F7FF63E4680063E902
:10EC5000A832BA87B388A840B3D5C802C20E93DEE3
:10EC60000E01B3F8C802B386B602C208B3E8D801F1
:10EC700063FBD8009A981387F5FF63E56800F915E0
:10EC800063E3D800BA85139507014D8D814563096B
:10EC900008003305A040B337A000B305B0409D8DF8
:10ECA00082803305A040B337A000B305B0409D8DEE
:10ECB0007D5821B701E605433353D3024167636AA8
:10ECC000E30EB7070001636BF32893568301E14716
:10ECD0001787FFFF1307C723369703470700BA9725
:10ECE000130700021D8F65EB93180301B38665407F
:10ECF000135F030193D80801854513D70E01B3D7DD
:10ED0000E603B3F6E60333861703C206558F637A2C
:10ED1000C7001A979386F7FF636467006365C72689
:10ED2000B687118FB356E703C20E93DE0E01337719
:10ED3000E703B388160342073367D701637B1701E4
:10ED40001A971386F6FF63656700F9166363170168
:10ED5000B28613950701558D1DBF63E1D504C167C8
:10ED600063E1F604B707000163E2F61E93D886015B
:10ED700061479787FFFF9387A719C69703C30700CB
:10ED8000930700023A93B3876740E9EB63ECB61C44
:10ED90003335C500134515008145D5BD8145014575
:10EDA000FDB59307F00F63F2D71C93D88600214777
:10EDB000C9B71307F00F9A86E37C67F09356830078
:10EDC000A14739B71307F00FB286E375C7E2935630
:10EDD0008600A14705B53313E30033D6F500135F72
:10EDE0000301335EE603B396E500B357F500DD8E0D
:10EDF0009318030193D80801B31EE50093D50601CB
:10EE0000B377E6033387C803C207CD8F63FBE70000
:10EE10009A971306FEFF63E3671663F1E716791E00
:10EE20009A97998F33D6E703139706014183B3F777
:10EE3000E7033385C80293960701D98E63FBA600CA
:10EE40009A969307F6FF63E7661263F5A6127916A2
:10EE50009A9693150E01898ED18D45B5335766006C
:10EE6000B396F600D98EB3D8650013DF0601B3DE82
:10EE7000E803139E060133536500135E0E01B3953C
:10EE8000F500B365B30013D705013316F600B3F8E8
:10EE9000E8033303DE03C20833E7E800637B67005F
:10EEA00036979388FEFF6369D70C6377670CF91E6A
:10EEB0003697330767403353E703C205C181337781
:10EEC000E703B3086E024207D98D63FB1501B695BF
:10EED0001307F3FF63EED50863FC15097913B695A4
:10EEE000C20E416FB3EE6E001307FFFFB3F6EE00E4
:10EEF00013D30E01718F4182338EE602B385154123
:10EF0000B386C60293580E013307E302BA96C6963B
:10EF10003306C30263F3E6007A9613D306011A960A
:10EF200063E2C5026385C500768581458DB341677F
:10EF30007D17F98EC206337EEE00B317F500F29608
:10EF4000E3F4D7FE1385FEFF814591B393D8060104
:10EF5000414705B593560601C14769B99356030168
:10EF6000C147BDB3814505451DB3B688014711B5FD
:10EF70003A83BDB73E86F1BDC68E25BF328E55B5EC
:10EF8000F9179A98C1B9F9171A9761BBAA858146F2
:10EF90000146014539AA411122C406C6970700005F
:10EFA0009387A7192A8499C3814571229707000086
:10EFB0009387072588431C5591C382972285EF804C
:10EFC0002F864111970700009387C72322C4170497
:10EFD0000000130424231D8C26C206C60984BE84A7
:10EFE00019E42244B240924441016F80CFB17D14B4
:10EFF00093172400A6979C438297DDB7411197078A
:10F0000000009387272022C4170400001304841FE4
:10F010001D8C26C24AC006C6098481443E89639875
:10F020008402EF80CFAC970700009387A71D1704D9
:10F0300000001304241D1D8C098481443E89639FB4
:10F040008400B24022449244024941018280939755
:10F050002400CA979C4385048297D1B793972400D4
:10F06000CA979C4385048297D9BF9717FF17938748
:10F07000A7FFB2862E86AA85884309A0411122C423
:10F080002A842E85B28536869757FF1723A8072630
:10F0900006C6EF80CF82FD576319F5009757FF171B
:10F0A0009387C7259C4391C31CC0B24022444101B1
:10F0B0008280938781999C432A8E9DE31757FF177F
:10F0C0001307071B23ACE1981715FFF7130585F30A
:10F0D000BA8719C51C411755FF17232FF520BA878A
:10F0E000D8437D487D556347E804630E0E0203A8AC
:10F0F00087086301080493182700C29823A0C8005A
:10F100000323081005463316E6003363C3002320AB
:10F11000681023A0D80889466317DE0083264810AC
:10F12000558E2322C810930617000A07D4C3BA9736
:10F130008CC701458280797152CC56CA5AC85EC6C6
:10F1400006D622D426D24AD04ECE62C42A8B2E8A2C
:10F15000938A8199854B03A40A0011C844408329EE
:10F1600084081389F4FF8A04A294635E0900B250F4
:10F17000225492540259F249624AD24A424BB24B4B
:10F18000224C45618280630E0A00639509007D1957
:10F19000F114E1BF93172900CE9783A70708E398DE
:10F1A00047FF5840DC407D176318270323222401C2
:10F1B000F9DF032C44006388090083A60910339704
:10F1C0002B01F98E89EE8297584083A70A00E31439
:10F1D00087F9E30EF4FA41B723A20400D1BF9316D6
:10F1E0002900CE968C4283A64910758F01E75A8577
:0AF1F0008297D9BF2E858297C1BF18
:04F1FC0000000020EF
:10F2000000000000000000000000000000000000FE
:10F2100000000000000000000000000000000000EE
:10F2200000000000000000000000000000000000DE
:10F2300000000000000000000000000000000000CE
:10F2400000000000000000000000000000000000BE
:10F2500000000000000000000000000000000000AE
:08F2600000F36F06000000201E
:040000050800015C92
:00000001FF
