:020000040800F2
:10000000084C002045010008CD0D00081909000822
:10001000E90B00088D0500083D1E000800000000E7
:100020000000000000000000000000009113000824
:100030002D070008000000000D0F0008F51600084D
:100040005F0100085F0100085F0100085F01000810
:100050005F0100085F0100085F0100085F01000800
:100060005F0100085F0100085F0100085F010008F0
:100070005F0100085F0100085F0100085F010008E0
:100080005F0100085F0100085F0100085F010008D0
:100090005F0100085F0100085F0100085F010008C0
:1000A0005F0100085F0100085F0100085F010008B0
:1000B000C11800085F0100085F0100085F01000827
:1000C0005F0100085F0100085F0100085F01000890
:1000D0005F010008991B0008D11B0008091C0008DB
:1000E0005F0100085F0100085F0100085F01000870
:1000F0005F0100085F0100085F0100085F01000860
:100100005F0100085F0100085F0100085F0100084F
:100110005F0100085F0100085F0100085F0100083F
:100120005F0100085F0100085F0100085F0100082F
:10013000DFF80CD000F07AF800480047A12A000848
:10014000084C00200648804706480047FEE7FEE7C7
:10015000FEE7FEE7FEE7FEE7FEE7FEE7FEE7FEE777
:10016000D9170008310100082DE9F0410024061BD1
:10017000254671F1000605DA01240027D0EB0700BF
:1001800067EB0101161E73F1000605DA0027D2EBBA
:100190000702012567EB030300F017F886460E46B9
:1001A00017469C46AC4204D00025D0EB050E65EB0B
:1001B000010624B10020D2EB000760EB030C70466F
:1001C00031463A466346BDE8F0812DE9F05F0546C9
:1001D000002092469B4688460646814640241BE006
:1001E000284641464746224600F041F853465A46C3
:1001F000C01A914110D311461846224600F028F843
:100200002D1A67EB01084F4622460120002100F01D
:100210001FF817EB00094E41201EA4F10104DFDC9A
:10022000484631462A464346BDE8F09F064C074DF6
:1002300006E0E06840F0010394E8070098471034B6
:10024000AC42F6D3FFF778FF30F6000850F600080E
:10025000202A04DB203A00FA02F100207047914086
:10026000C2F1200320FA03F3194390407047202A7B
:1002700004DB203A21FA02F00021704721FA02F350
:10028000D040C2F12002914008431946704730B572
:100290008C1810F8012B12F00F0301D110F8013B5C
:1002A000120906D110F8012B03E010F8015B01F8E8
:1002B000015B5B1EF9D101E001F8013B521EFBD14D
:1002C000A142E6D3002030BD0029816802D041F070
:1002D000010101E021F00101816070470D4910B575
:1002E000884202D1012144150AE00B49884202D11B
:1002F0000121041504E0094988420AD10121CC03F7
:10030000204600F01DFE2046BDE81040002100F010
:1003100017BE10BD0024014000280140003C0140F0
:10032000014600208968490700D501207047C06C4C
:1003300080B270470246002012680A4200D00120B5
:100340007047014600208968090700D501207047E1
:1003500010B542680E4B0C791A400B6842EA042231
:100360001343436083680B4A1340D1E9024222439E
:100370004C7943EA44031A438260C26A097C22F43E
:100380007002491EC9B242EA0151C16210BD0000AB
:10039000FFFEF0FFFDF7F1FF70B5072409290AD928
:1003A000C568A1F10A0606EB4606B440A543B34072
:1003B0001D43C56007E0056901EB4106B440A54354
:1003C000B3401D4305611F23072A09D2446B521E07
:1003D00002EB820293409C4391400C43446370BD06
:1003E0000D2A09D2046BD21F02EB820293409C4378
:1003F00091400C43046370BDC46A0D3A02EB820263
:1004000093409C4391400C43C46270BD10B50446B8
:1004100000F00EF82046FFF794FF0028FAD120469E
:1004200000F015F82046FFF77BFF0028FAD110BD39
:10043000816841F00801816070470029816802D01D
:1004400041F4A00101E021F4A001816070478168BE
:1004500041F004018160704778B54A4D014605F5C9
:100460008074B5F84A00A4F1800609292BD2DFE890
:1004700001F0052B43484D526272820000F0E2FB0E
:10048000A06135F84A0F801C80B200F01FFCB067F5
:100490002888801D80B200F0E5FB206228880A30A1
:1004A00080B200F0DFFB606228880E3080B200F07E
:1004B000C9FBA06200B20090D4E90823208BB16F81
:1004C00000B203F047F878BD00F0BCFB46F8740FAB
:1004D00035F84A0F401C80B200F0F8FB70602888A5
:1004E000801C80B200F0BEFBB060C2B231793078BF
:1004F000BDE8784003F024B800F0B4FBA06170625E
:1005000078BD00F0AFFBA061B06278BD00F0AAFB3F
:10051000A061F06278BD00F0A5FBA061B5F84A00CB
:10052000001D80B200F09EFB0146E061A069BDE8BD
:10053000784003F05BB800F095FBA061B5F84A0085
:10054000001D80B200F08EFB0146E061A069BDE8AD
:10055000784003F015B800F085FBA061B5F84A00BB
:10056000001D80B200F07EFB0146E061A06903F04F
:1005700017F8A86678BD0449085C7067BDE8784044
:1005800002F0CABF00000020CE020020FEE70000FB
:1005900010B50F4C0100B4F84A000CD0012909D164
:1005A00000F070FB04F5807188610A4940B251F88F
:1005B0002000A06610BD0849054B0A5C8033401C32
:1005C00080B25A67095C1046996703F08BF8F0E730
:1005D00000000020C8010020CE02002010B5002835
:1005E0000AD1064C0649B4F84A00085C04F18001BF
:1005F000486703F0DDF8A06610BD00000000002091
:10060000CE02002010B5124C03001249B4F84A0083
:1006100004F180020BD0012B0FD0022B06D100F089
:1006200031FB5067C0B203F022F9A06610BD085C30
:100630005067BDE8104003F04BB90B5C401C80B222
:100640005367095C9167BDE81040184603F063B931
:1006500000000020CE02002002F0A2BF182852D2D3
:10066000DFE800F0510C0F1215181B1E2124272A59
:100670002D303336393C3F4245484B4E084600F05A
:10068000FBBC084600F04AB9084600F0F9BD084630
:1006900000F07ABD084600F09DBF084600F04EBB52
:1006A000084600F0F3BE084600F050BE084602F0CF
:1006B0005BB9084602F034B90846FFF7A3BF084605
:1006C000FFF78CBF084600F055BA084603F036BE67
:1006D0000846FFF75DBF0846FFF7BEBE084600F0BC
:1006E000B9B8084600F0E2B8084601F053BB084626
:1006F00000F094BF084600F0C5BB084600F0E4BB1C
:10070000084602F053B90249002081F848007047BA
:10071000000000200146000AC9B203D0C82804D254
:10072000FFF79CBF084600F0E7BF70477047000026
:100730000149C96E085C704700000020F0B5CA7816
:10074000002502F00F03D20601D58A7813430A78F8
:100750004FF00F0E12F0FF0F4FF001021CD0046893
:100760000F8802FA05F63740B74211D14FEA850CDF
:100770000EFA0CF724EA070703FA0CF43C43CF788F
:10078000282F02D0482F02D002E0466100E0066127
:100790006D1C082DE4D304600C88FF2C1ED944681E
:1007A0005FF0000606F1080702FA07F50F882F40F0
:1007B000AF420FD14FEA860C0EFA0CF7BC4303FA96
:1007C0000CF73C43CF78282F00D14561CF78482FD4
:1007D00000D10561761C082EE4D34460F0BD000012
:1007E000F0B5144C002801DAE36900E06368420DBB
:1007F000120185B2C0F301579540C0F30346032FA1
:1008000005D0C2020AD50322B240934307E023F089
:100810007062636823F07063636002E0AB4343F08F
:10082000706201B12A43002801DAE261F0BD626022
:10083000F0BD0000000001400246002092680A421C
:1008400000D00120704702460020D2680A4200D042
:100850000120704770B5012823D1124C1249114D67
:1008600034F84A0F8035095C401C80B2696700F09B
:100870002DFAA8672088401D80B200F0F3F905F139
:100880008006B0612088093080B200F0EBF9F06199
:10089000034695F87400B269A96F03F06BF8C4F8C9
:1008A0001E0070BD00000020CE020020F8B5012817
:1008B0002CD1174C34F84A0F00F0E4F9154DA8611B
:1008C0002088401C80B200F001FAA5F18006706714
:1008D0002088401D80B200F0DFF9B0672088C01D7D
:1008E00080B200F0AFF9E8612088093080B200F0F2
:1008F000A9F9286200B20090B6F87800716F82B250
:10090000A88B03B2287E40B203F0CAF8F8BD0000FD
:100910000000002000010020FEE700002DE9F04764
:10092000254D0100A5F18002244EB2F84A004FF097
:1009300000042BD0012934D0022925D1914600F0A2
:10094000C5F9686785B200274FEA060804F1B000D0
:10095000C0B202F084FA99F8460002F080FA102042
:1009600002F07DFA641CE4B25FF0000618F805009E
:1009700002F086FA6D1C761CF6B2ADB2802EF5D36D
:100980007F1CFFB2082FE1D3BDE8F087325C401C2A
:1009900080B26A67315CA967BDE8F047104602F093
:1009A0005CBA00F06FF904498031886182F8460032
:1009B000BDE8F04702F0F8B980000020CE02002028
:1009C00010B50446002301220848FFF7E5FC012189
:1009D0002046FFF732FD02212046FFF7ABFC00283E
:1009E000F9D02046BDE81040FFF7A1BC002401402B
:1009F000084A61B11021D170074931F810101180F7
:100A00000549623151F820000249FFF797BE48219D
:100A1000F1E7000030010020E24600200449044ACA
:100A2000623231F8101052F82000FFF705BF0000C5
:100A3000E2460020F0B587B00121042000F074FAEE
:100A40000121082000F070FA0121102000F06CFA5A
:100A50000121202000F068FA0121402000F064FA12
:100A60000121802000F060FA0121080200F05CFA08
:100A7000274C03202E4DA0704820E07025480090A0
:100A80002548019025480290254803902548049068
:100A90002548059025480121069000204FF6FF7259
:100AA0006B4605F1620600BF25F8101012EA4101FD
:100AB00000D10121070953F8277046F82070401C27
:100AC000C0B23028F0D30027114935F81700208034
:100AD00056F82700FFF732FE7F1CFFB2302FF3D30A
:100AE0000121084600F020FA01211248FFF778FEA4
:100AF0001148FFF7F3FB01F08BFF00214FF47A70F0
:100B000000F092FEC8210D4800F068FF07B0F0BD6C
:100B10003001002000080140000C0140001001409D
:100B20000014014000180140001C01400020014059
:100B3000E24600200002300000240140002C014069
:100B40000449044A623231F8101052F82000FFF7CD
:100B50007ABE0000E2460020054A02F1620332F844
:100B6000102053F8200009B10261704742617047BC
:100B7000E2460020084928B1012802D191F82D0051
:100B800088667047B1F84A000449085C0249803120
:100B9000486702F0EBBF000000000020CE020020FA
:100BA00010B503F05DFA00F0A3FF03F0BDFC01F007
:100BB00091F90C48002180F8491080F84810C26E65
:100BC0001278032A0CD1012280F8482000F58070A9
:100BD000C1620A2000F066FFBDE8104003F0F2BBDE
:100BE00010BD000000000020FEE7000000200449C6
:100BF00002464FF488430A54401C9842FBD3704786
:100C0000CE02002005494FF6FF73C96E0A18085C32
:100C1000527803EA0222104480B27047000000209C
:100C2000074910B5CA6E1118105CCB788C784978DA
:100C300004EB032301EB032100EB012010BD0000B6
:100C40000000002005490A18085C527800EB0220D9
:100C5000010401D50249084370470000CE0200207C
:100C60000000FFFF064A10B51118105CCB788C7895
:100C7000497804EB032301EB032100EB012010BDB5
:100C8000CE0200200349085C010601D560F0FF0098
:100C900070470000CE02002005494FF6FF730A1886
:100CA000085C527803EA0222104480B270470000C8
:100CB000CE020020044A1118105C8B78497801EBB1
:100CC000032100EB01207047CE020020064A10B538
:100CD0001118105CCB788C78497804EB032301EB76
:100CE000032100EB012010BDCE020020024A115466
:100CF0001044090A41707047CE020020044A115482
:100D0000090A0244080A51709070000AD0707047B6
:100D1000CE020020024A11541044090A4170704763
:100D2000CE020020044A1154090A0244080A5170F4
:100D30009070000AD0707047CE020020FCB5214FA1
:100D4000010007F58076204CB7F84A00A6F180052F
:100D50001ED001291BD1411C275C89B26F67615CE1
:100D6000821C92B2A967A25CEA67C31C9BB2051DF4
:100D7000E35CADB23360401D655D80B27560205CA0
:100D8000B060CDE9005049B278B203F0E3F9FCBDA0
:100D9000FFF768FFB061B7F84A70391D89B27A1D54
:100DA000615C92B26967BB1DA25C9BB2AA67E35CFF
:100DB000FF1DEB67BDB2645D3460009403F066F91B
:100DC000FCBD000000000020CE02002070470000A3
:100DD00070B50F23C47801780122F4B1144C246853
:100DE000457804F4E064C4F5E064240AC4F1040620
:100DF000E3408478B5401C402C4301F1E0212301FD
:100E000081F80034007800F01F018A40400980001A
:100E100000F1E020C0F8002170BD01F01F00824009
:100E20004809800000F1E020C0F8802170BD00007A
:100E30000CED00E0024908430249086070470000D9
:100E40000000FA050CED00E010B50D4C0121607BAF
:100E5000FFF7CEFD0121A07BFFF7CAFD0121E07B5A
:100E6000FFF7C6FD0121607BFFF776FE0121A07B25
:100E7000FFF772FEE07BBDE810400021FFF76CBE7B
:100E80000000002070B50E4C0E4D04F18003B4F844
:100E90004A2038B1012804D1A85C586702F0DCFE72
:100EA000A06670BDA85C511C89B25867921C695C31
:100EB00092B29967AA5CDA67BDE8704002F0C4BEDE
:100EC00000000020CE02002030B50E4C0E4B04F185
:100ED0008002B4F84A1090B101280FD1585C491C27
:100EE000506788B2FFF7BEFE04F58075E861B4F87C
:100EF0004A00401D80B2FFF7B5FE286230BD585C45
:100F0000506730BD00000020CE0200207047000076
:100F1000044A0029D16901D0014300E08143D16135
:100F20007047000000100240044A0029916901D076
:100F3000014300E0814391617047000000100240CE
:100F4000044A0029D16801D0014300E08143D16007
:100F5000704700000010024030B51F494A6812F087
:100F60000C031E4A03D0042B01D0082B21D00260B1
:100F70004A680F231A4C03EA1212A35C0268DA4093
:100F800042604B68072505EA1323E35C22FA03F36A
:100F900083604B6805EAD323E35CDA40C2604968AA
:100FA000032303EA9131231F595CB2FBF1F1016184
:100FB00030BD4A684B6802F470124FF0020413F41B
:100FC000803F04EB924202D04B689B0301D5054B56
:100FD00000E0024B5A43CAE70010024000127A00B8
:100FE0006401002000093D0010B5C1B2C0F3072024
:100FF000094C012808D002280AD0042803D1084649
:1010000003F0F8F9A06610BD0846FFF799FDF9E76F
:101010000846FFF703FDF5E700000020C2B2C0F369
:10102000072048B101280BD003280DD004280BD18C
:10103000C9B2104603F0CAB9C9B21046FFF7D8BC0E
:10104000C9B21046FFF788BD704700000348816EA3
:101050000A0402D5024A114381667047000000204D
:101060000000FFFF0349886E020602D560F0FF0012
:1010700088667047000000202DE9F843404D0027A6
:1010800005F18004A4F5807301003E4EB3F84A00D8
:101090002ED0012944D002294BD003293ED1FFF79D
:1010A000D1FDA06133F84A0F801C80B2FFF7CAFD62
:1010B00013F9051C0844E0611888001D80B2305CFB
:1010C0006867207EB030C0B201F02AFE207F00F0B9
:1010D0000F0001F025FE207FC0F3031040F0100048
:1010E00001F01EFE95F87400BDE8F84301F03ABE29
:1010F000375C411C89B2821C6F67715C92B2C31C61
:10110000A967B25C9BB2EA67001DF35C80B2236002
:10111000305C60600090384601F0F6FDBDE8F88371
:10112000FFF7B0FDA06183F84500BDE8F84301F08A
:1011300049BD9946FFF7CAFD686784B20025B046ED
:1011400007F1B000C0B201F0EBFD99F8450001F0E5
:10115000E7FD102001F0E4FD7F1CFFB25FF0000608
:1011600018F8040001F0FEFD641C761CF6B2A4B26F
:10117000802EF5D36D1CEDB2082DE1D3CEE7000033
:1011800080000020CE020020F0B53B4E01463B4FD0
:1011900006F18005B6F84A0005F18004072969D2F6
:1011A000DFE801F004172737474E5B003E5C411C27
:1011B00089B2821C6E67795C92B2A967C01CBA5C66
:1011C00080B2EA673B5C30462360BDE8F04002F045
:1011D00005B8FFF747FDA061B6F84A00001D80B2D0
:1011E000FFF740FD0146E061A069BDE8F04001F075
:1011F00059BEFFF737FDA061B6F84A00001D80B266
:10120000FFF730FD0146E061A069BDE8F04001F064
:10121000B7BFFFF727FDA061B6F84A00001D80B2F6
:10122000FFF720FD0146E061A069BDE8F04001F054
:1012300089BFFFF731FD6867BDE8F04001F016BFD8
:10124000FFF72AFD6867B6F84A10891C89B2795CF5
:10125000A967BDE8F04001F0B9BFFFF71DFD686761
:10126000B6F84A10891C89B2795CA967BDE8F040DC
:1012700001F0A4BFF0BD000000000020CE0200205D
:101280002DE9F0472E4A01002E4FB2F84A004FF4E4
:1012900070754FF0800902F1800438D0012945D0E3
:1012A000022932D1FFF712FD0026B8466067484692
:1012B00001F0D8FF802001F0D5FF0027606F4119B1
:1012C00018F8010002F014F8403D7F1CFFB2ADB2E7
:1012D000102FF3D305F58465ADB20027606F411977
:1012E00018F8010002F004F8403D7F1CFFB2ADB2D7
:1012F000102FF3D3761C05F2E13509F10100F6B2A7
:10130000ADB200F0FF09202ED1D3BDE8F0873B5CE1
:10131000411C89B26367801C795C80B2A1673A5C2A
:10132000E267BDE8F047184601F094BFFFF7AAFC5A
:101330000549886182F84700BDE8F04701F058BFD1
:1013400000000020CE0200200001002070B500281F
:1013500019D10D4D0D4E0C4C35F84A0F8034315CCF
:10136000401C80B26167FFF77DFC04F18001886159
:101370002888401D80B2315CA16794F87400BDE8F4
:10138000704002F09FBC70BD00000020CE02002023
:101390007047000070B53C4D04460021A87BFFF764
:1013A000DBFB01F05FFB0121E87BFFF7D5FB01F0E0
:1013B00059FB0021E87BFFF7CFFB01F053FB002630
:1013C00004F08001A87BFFF7C7FB6006040E012133
:1013D000E87BFFF7C1FB01F045FB0021E87BFFF74D
:1013E000BBFB01F03FFB761CF6B2042EE8D30021D4
:1013F000A87BFFF7B1FB01F035FB00260121E87B5C
:10140000FFF7AAFB01F02EFB0021E87BFFF7A4FB0E
:1014100001F028FB761CF6B2042EEFD35FF0000635
:1014200004F08001A87BFFF797FB6006040E012102
:10143000E87BFFF791FB01F015FB0021E87BFFF74C
:101440008BFB01F00FFB761CF6B2042EE8D30021D3
:10145000A87BFFF781FB01F005FB00240121E87B5D
:10146000FFF77AFB01F0FEFA0021E87BFFF774FB3F
:1014700001F0F8FA641CE4B2042CEFD3A87BBDE8B9
:1014800070400121FFF768BB0000002010B5104933
:10149000104B01F18004B1F84A104A1C78B10128C0
:1014A0000CD1585C606790B2FFF7DCFB04F180015F
:1014B000094A886194F8741042F8210010BD585C04
:1014C00091B26067595CA167BDE8104002F07EBE32
:1014D00000000020CE020020940100200CB5002165
:1014E000264801910091026842F4803202604FF474
:1014F000A063026802F400320092019A521C019229
:10150000009A12B9019A9A42F3D10268920333D534
:10151000012100911A490A6842F010020A600A6823
:1015200022F003020A600A6842F002020A6041687F
:10153000416041684160416841F4806141604168B7
:1015400021F47C114160416841F4E8114160016877
:1015500041F08071016001688901FCD5416821F08A
:1015600003014160416841F0020141604168C1F3FB
:1015700081010229FAD10CBD00910CBD001002407E
:101580000020024000B5024607E000BF00F096FAD6
:1015900000F074FA0A28FBD3521E002AF6DC00BDC4
:1015A00000B5024600F08AFA00F068FA9042FBD3D8
:1015B00000BD000000B502464FF47A7307E000BF9B
:1015C00000F07CFA00F05AFA9842FBD3521E002A2F
:1015D000F6DC00BD0E4900B50200B1F84A0006D0A5
:1015E000012A0DD0022A01D10020C87400BD09498A
:1015F000085C0749803148675DF804EB02F03CBEA7
:10160000FFF730FB044988615DF804EB02F058BE37
:1016100000000020CE0200200001002070B5324CF6
:1016200002003249B4F84A0085B004F1800609D0BE
:10163000012A13D0022A03D1085C706784F83600AF
:1016400005B070BD0A5C401C80B27267095CB1676E
:1016500005B01046BDE8704002F0ACBBFFF712FBCE
:10166000706734F84A0F001D80B2FFF72FFBB06798
:101670002088083080B2FFF729FBF06720880C3003
:1016800080B2FFF723FB1A4D28602088103080B20B
:10169000FFF71CFB68602088143080B2FFF716FB50
:1016A000A8602088183080B2FFF710FBE86020881F
:1016B0001C3080B2FFF70AFB28612088203080B2FE
:1016C000FFF704FB05F1080168610EC9CDE903309D
:1016D000CDE901126868009074362B6896E807001F
:1016E00002F032FBACE7000000000020CE02002038
:1016F00000010020704700002DE9F041344E014602
:10170000A6F58075334FB5F84A0005F180040F291E
:1017100059D2DFE801F0580858171B2B5858585871
:10172000323B58411500FFF79DFAB061B5F84A10F9
:10173000091D89B21128795CA16701D185F8401093
:10174000BDE8F081FFF7C2FAB061F9E7FFF7BEFA32
:101750006067B5F84A00001D80B2FFF7B7FA01468E
:10176000A067606FBDE8F041FFF758BCFFF7AEFA25
:101770006067BDE8F041FFF737BC385C0021606767
:1017800001E0491CC9B28142FBD3D9E7385C6067EC
:10179000BDE8F041FFF7F6BEFFF798FA606735F84D
:1017A0004A0F001D80B2FFF791FAA0672888083021
:1017B00080B2FFF771FAE06728880A3080B2FFF73D
:1017C00085FA3060BCE7002085F84800B8E70000E3
:1017D00000010020CE0200200F4810B5016841F042
:1017E0000101016041680D4A1140416001680C4AE5
:1017F00011400160016821F480210160416821F4F9
:10180000FE0141604FF41F018160FFF767FE05494B
:101810004FF00060086010BD001002400000FFF8AB
:10182000FFFFF6FE08ED00E030B50C46054601214D
:1018300089B0C802FFF778FB01210420FFF774FB91
:101840004FF48070ADF81C0018208DF81F000320A5
:101850008DF81E0007A91848FEF770FFADF8145068
:10186000ADF810400024154DADF81640ADF812400B
:1018700004A9284600F0B4F87020ADF8000001205B
:10188000ADF80200ADF80640ADF8084069462846BC
:1018900000F05EF80121284600F03AF808212846B9
:1018A00000F096F80121284600F01BF80121284697
:1018B00000F024F809B030BD00080140002C0140C0
:1018C00010B501218C07204600F02DF8002807D024
:1018D0000121204600F00FF8BDE8104002F048BC9E
:1018E00010BD0029018802D041F0800101E021F003
:1018F000800101807047C943018270470029018837
:1019000002D041F0010101E021F0010101807047A6
:10191000002930F8441F02D041F4004101E0C1F336
:101920000E010180704702460020138A92890B4203
:1019300002EA010202D0002A00D001207047002AEA
:10194000828901D00A4300E08A4382817047000007
:1019500030B5028C22F001020284028C8388048B51
:1019600022F0020224F073050C882C430D891543E4
:101970004A882A43114DA8420BD0114DA84208D0E5
:10198000104DA84205D0104DA84202D00F4DA842DC
:101990000DD122F008054A8923F440732A4322F02E
:1019A00004058A882A438D891D43CB892B43838074
:1019B0000483C9888186028430BD0000002C014068
:1019C0000034014000400140004401400048014013
:1019D000028B22F008020A43028370478186704717
:1019E00030B502881B4B1C4C98420DD0A0420BD046
:1019F000B0F1804F08D0194DA84205D0184DA8422B
:101A000002D0184DA84203D122F070054A882A431B
:101A1000154DA84206D0154DA84203D022F44075BA
:101A2000CA882A4302808A8882850A880285984269
:101A30000AD0A04208D00E4A904205D00D4A9042EA
:101A400002D00D4A904201D1097A0186012181829A
:101A500030BD0000002C0140003401400004004073
:101A600000080040000C004000100040001400403E
:101A700000400140004401400048014000B502F030
:101A8000DEFC0349496C401A4821B0FBF1F000BD6F
:101A90008000002002480021C16301644164704756
:101AA00080000020034948430349C8630A6C10447E
:101AB00008647047401901008000002000B502F062
:101AC000BEFC0149486400BD8000002000B502F062
:101AD000B1FC06490A6CC96B101A20F07F4088429D
:101AE00001D9012000BD002000BD000080000020C1
:101AF00010B5084A0020084B014602F10A0400BF55
:101B000022F8101024F810101954401CC0B20528F7
:101B1000F6D310BD7E0100203801002070B5401CB6
:101B2000114C43B20E4634F9130000281BDD04F1BA
:101B30000A0535F81300FFF785F8A4F10A0100B291
:101B400031F8131004F5A8720244401C8E5401B2FF
:101B500034F91300884200DC002135F81300BDE899
:101B60007040FFF7C3B870BD7E01002010B5401C67
:101B7000074C40B224F8101004F10A0121F810209B
:101B80000A31044A21F810300121115410BD00001F
:101B9000740100203801002070B50C4C40F2255132
:101BA000204600F061F801280ED12546204600F0BD
:101BB000E9F8C4B24021284600F042F82146BDE8C9
:101BC00070400120FFF7AABF70BD0000003801403F
:101BD00070B50C4C40F22551204600F045F8012824
:101BE0000ED12546204600F0CDF8C4B2402128464B
:101BF00000F026F82146BDE870400220FFF78EBFB6
:101C000070BD00000044004070B50C4C40F22551FE
:101C1000204600F029F801280ED12546204600F084
:101C2000B1F8C4B24021284600F00AF82146BDE8C8
:101C300070400320FFF772BF70BD000000480040F5
:101C4000C943018070470029818902D041F40051C5
:101C500001E021F400518181704702460020128882
:101C60000A4200D00120704730B501F01F02012464
:101C70000025C1F3421304FA02F2012B0FD0022B0C
:101C80000FD0838A4FEA11210088134204FA01F42D
:101C900000EA040001D000B10125284630BD838947
:101CA000F0E7038AEEE710B5C1F3421301F01F0419
:101CB0000121A140012B07D0022B07D01430002AAC
:101CC000026805D00A4304E00C30F8E71030F6E76C
:101CD0008A43026010BD000030B50446008A85B01A
:101CE0000D464CF6FF710840E98801432182A18925
:101CF0004EF6F3100140A8882A8910436A890A43E6
:101D00001043A081A08A4FF6FF410840A9890143F2
:101D1000A1826846FFF720F91948844201D103984F
:101D200000E00298A189090400EBC00101EB00105A
:101D3000296801D5490000E08900B0FBF1F0642278
:101D4000B0FBF2F109010B096FF018056B4300EBD2
:101D50008300A3891D044FF0320306D503EBC000B6
:101D6000B0FBF2F000F0070005E003EB0010B0FB61
:101D7000F2F000F00F000843208105B030BD0000F4
:101D8000003801408088C0F308007047C1F30801A3
:101D90008180704770B5274C010004F58075B4F858
:101DA0004A0004F1800612D0012930D002293FD127
:101DB000FEF768FFA861B4F84A101F4A491C89B2AF
:101DC00040B2515CB167BDE8704002F069BBFEF7FC
:101DD00059FFA86134F84A0F401C80B2FEF776FF25
:101DE000B0672088401D80B2FEF72CFF2862208853
:101DF000C01D80B2FEF736FF03466862288CB16FC3
:101E000002B2287EBDE8704040B2FFF7AFBEFEF7D9
:101E100039FFA861B4F84A00401C80B2FEF722FFE7
:101E20000146E861287EBDE8704040B202F00CBB7C
:101E300070BD000000000020CE020020FEE7000080
:101E40000949084A91F84330D05491F84300401CA6
:101E500081F8430091F84300142802D1002081F852
:101E600043007047CE46002000000020174810B500
:101E700090F8441090F84320914226D000F180045D
:101E8000134BB0F85E10226D5A54491E89B2120AE3
:101E90005A54491E89B2120A5A54491EA0F85E10BB
:101EA000002180F8411003F5884290F84430D25C5C
:101EB0009200226590F84420521C80F8442090F84B
:101EC0004420142A01D180F8441010BD00000020E5
:101ED000CE02002030B518480024A0F1800504652A
:101EE000A5F84A40A5F85A40A5F85C40A5F854402A
:101EF000A5F85640A5F85840846444F2FF31C46404
:101F0000A5F85E1005F83C4F6C70AC84EC84446519
:101F10008465AC70EC702C856C85C4650466EC62DD
:101F200044668466C4666C7104672C71FEF75EFEBD
:101F3000AC71EC712C7230BD800000202DE9F04FA7
:101F40001B4C89B00420A4F180052067EE6E276D3C
:101F50002B46DFF86090F059B3F85C100791B3F8A6
:101F60005E1000F0FF0C8E46491E89B206910EF1FC
:101F7000010189B20591996E000A0AB202924A42A1
:101F80000192B3F85A204FEA81289346521CCDF8AB
:101F9000108092B24FEAE1780092CDF80C80B3F84D
:101FA0004A301FFA81FACAB2BCF1EC0F04D204E045
:101FB00080000020CE020020F2E35FEA8C08F844A3
:101FC000D8F80680C744000044090000B0030000B0
:101FD000C003000000080000D2030000FE03000060
:101FE000F6030000C6030000CE0300003E09000017
:101FF00044090000440900004409000022040000D4
:102000003C04000060040000CC040000D404000084
:10201000DC040000160600001A060000220600007C
:102020002A0600002E0600003E0900004C060000B3
:1020300064060000BC060000100700005407000002
:102040006E0700008207000096070000AA07000044
:10205000B2070000140800001C080000240800005B
:102060003E0900002A0800002E0800003408000085
:102070003A0800004A080000560800003E09000027
:102080006208000042080000080800000E08000076
:10209000320900006A0800006A0800006A080000AF
:1020A0007208000072080000780800007E08000036
:1020B00096080000B0080000C0080000E00800001A
:1020C000D408000028050000300500003E0900008B
:1020D000440900000C0900000C0900000C09000074
:1020E000F40800003E090000FE0800000C09000092
:1020F000140900003E090000240900003E09000008
:102100003E0900003E0900003E090000E004000016
:10211000EE0400003E090000FE0400000E05000071
:10212000120500003E09000020050000EC0500003B
:10213000EC050000EC050000700500003E09000001
:102140007A050000840500008E0500003E090000AD
:1021500098050000F4050000F4050000F4050000F7
:10216000AA0500003E090000B6050000C0050000F9
:10217000CC0500003E090000D6050000E005000087
:10218000E0050000E0050000E60500003E09000053
:1021900044050000E0050000520500003E09000073
:1021A0005E0500006605000066050000660500008B
:1021B0006E0500003E090000780500008205000061
:1021C0008C0500003E09000096050000A0050000F7
:1021D000A0050000A0050000A80500003E090000C1
:1021E000B4050000BE050000CA0500003E0900005D
:1021F000D40500004C0500004C0500004C05000013
:102200003C0500003E090000420500004C050000AE
:10221000500500003E0900005C050000AE0400000F
:10222000BC040000C4040000340600002A060000BC
:102230003E0900002A0600003806000040060000A3
:102240003E0900004806000048060000480600005D
:102250003E09000048060000540600003E09000048
:102260005C0600005C0600005C0600003E09000001
:102270005C060000740600003E09000086060000AF
:102280008E0600008E0600003E0900008E0600004B
:10229000CC0600003E090000DE060000E806000053
:1022A000E80600003E090000E806000024070000E0
:1022B0003E0900003A0700004807000048070000F8
:1022C0003E09000048070000020600000206000068
:1022D000060600000C0600000C06000010060000B8
:1022E00028050000300500003E09000044090000F8
:1022F000440900004409000044090000660400008D
:1023000080040000700400007804000080040000D5
:10231000660700007A0700008E070000A207000091
:10232000AA070000B207000002060000060600002F
:102330003E090000440900004C040000560400005F
:10234000FA05000094060000F0060000E207000015
:10235000860400008C040000A8040000980400001B
:10236000A0040000A80400003E090000FE050000D3
:10237000C0070000F60700000798A5F84A00F0190A
:102380004068FEF7C7F969E0A5F84A00BEE21844C4
:10239000A5F85C008FE2181AF6E7079925F84A1F9E
:1023A0003F1D09F80E7006993A0A09F80120491EE6
:1023B00089B2120A09F80120491EA98204E262B614
:1023C000012085F84100059819F80020401C80B2D2
:1023D00019F80030401C80B2A5F85E0019F8000022
:1023E00003EB022200EB0220EEE1059819F8002031
:1023F000401C80B2A5F85E0019F8000000EB022036
:10240000C2E700BF09F80E3006981A0A09F8002042
:10241000401E34E0002085F8410072B676E20120CB
:1024200085F8410062B671E2F019007902E0F01916
:10243000808880B2A86611E0F019007940B2F9E70F
:10244000F019808800B2F5E7F0194068F2E7F0195A
:10245000007902E0F019808880B260660820B5E15A
:10246000F019007940B2F8E7F019808800B2F4E77B
:10247000F0194068F1E7184480B2FEF70DFCA5F8AA
:102480005E0043E2184480B271462AE080B2FEF753
:1024900011FC99E1F01940681844CBE7626E02FB29
:1024A0000010ABE00844A9E0606E10F47F0F6FD01D
:1024B00080B2305CA2E0606E10F47F0F3CD080B23E
:1024C000FEF7A0FB9AE0606E10F47F0F39D080B267
:1024D000FEF7A6FB92E0616E11E089B2B4F86400E9
:1024E00066E0FEF717FC11E2B4F864000EE000BFEE
:1024F000FEF7B8FD0AE200BFFEF7A8FD06E209F804
:10250000012003E289B2184452E0184480B2FEF779
:1025100009FCFBE11918F2E7184480B20299FEF7B2
:10252000E5FBF3E1184480B2FEF7E8FBEEE1191891
:1025300019F8010062E0184480B2FEF7ADFB5DE0DF
:10254000184480B2FEF7C2FB58E0184480B2FEF790
:1025500099FB53E0184480B2FEF774FB4EE0184438
:1025600080B2FEF77FFB49E0191819F8010003E07B
:10257000184480B2FEF790FB6066C7E1184480B251
:10258000FEF7A4FBF8E7184480B2FEF77BFBF3E705
:1025900010E0184480B2FEF755FBEDE7184480B216
:1025A000FEF760FBE8E700BF09F80020AEE189B262
:1025B00080B296E719F8000020E000BF19F800008B
:1025C000DAE704981AE0881218E0AA669EE1C5F8D6
:1025D00068A09BE1AA668BE7C5F868A08CE7A1B369
:1025E000D0E099B3606E80BBCCE0606E01432CD12B
:1025F000C8E0019802E00029FBDB87E1A86685E1DD
:1026000094F86400084443E0B4F86400084448E0E7
:10261000606E47E794F86400081A39E0B4F8640083
:10262000081A3EE0606E081AE8E700BF94F86400FC
:102630004243C4E91A20D0B2E0E700BFB4F8641006
:1026400089B20AFB01F0E1662AE099E09AE0606E47
:10265000E06641430EE1606E414352E1606EAF4B74
:10266000A1FB007C039AC617C3E9160602FB00C053
:1026700001FB0601B80A40EA81508912C3E914013E
:10268000BCE700BF94F86400E066B2FBF0F0A0661F
:10269000C0B2B3E7B4F8641089B2BAFBF1F0E166F6
:1026A000A06680B2AAE7606EE066B1FBF0F0BAE027
:1026B000606E91FBF0F0A1E7984E626E8F0DD3171C
:1026C000C6E91623039847EA80210498FDF74CFDDC
:1026D000C6E9140192E700BF94F86400E066B2FB1B
:1026E000F0F100FB1120A06640B287E7B4F8641057
:1026F00089B2BAFBF1F201FB12A0C4E91A0100B2DF
:102700007CE7606EE066B1FBF0F200FB12108AE03D
:10271000606E91FBF0F200FB12106FE7A166606E35
:10272000E066814201D901207DE000207BE0606EFF
:10273000814225DC26E0A166606EE0668142F4D32A
:10274000F1E7606E81421BDA1CE0A166606EE06614
:102750008142EAD2E7E7606E814211DB12E0A166B6
:10276000606EE0668142E0D8DDE7606E814207DDA1
:1027700008E0606E814203D004E0606E814201D0C7
:1027800001203BE7002039E7F1195346D1F804C096
:10279000082121670027C5F868A03946626E08E065
:1027A000B1E05D18755D954201D16166AEE0491CEE
:1027B00089B28142F5D38FBBC4F850C005E0616E89
:1027C0000AEB8100A86630582065002020679DE054
:1027D0000129F9D09AE00029F6D097E081F00100B4
:1027E00021E000BF81F0FF001DE000BF4FF6FF7049
:1027F00009E0C84317E0606EE06638E0606EE066AE
:1028000029E0606EE066414034E0606EE066C14001
:1028100030E0606EE0668140C8B204E076E0606E51
:10282000E066814088B2A066E8E6606EE0668140BE
:1028300020E0014101F00100E0E60141C8B2DDE61F
:10284000014188B2DAE601228240A166D0B2636E0D
:1028500080F0FF020BB101430CE011400AE00122BD
:10286000824092B24FF6FF7382EA030007E0014014
:1028700000E01143A16644E001228240D043A166FA
:10288000636E002BF5D1F2E7626EE2668240FF23B1
:1028900083404FF6FF7043401940EAE7626EE266FC
:1028A00082404FF6FF7303E0626EE2668240FF23D0
:1028B00083409943DDE7A5F85A0027E089B25846DE
:1028C000FEF728FA0EE05846FEF72CFA11E02880B1
:1028D0001CE000BF09F80B200098ECE7584602996D
:1028E000FEF704FA35F85A0F801CF0E75846FEF759
:1028F00005FA35F85A0F001DE9E700293FF45EADEF
:10290000491EA96602E0002085F84800216F206D6D
:102910000844206509B0BDE8F08F000000010020E8
:1029200030B500281BD10E4D0E490D4C35F84A0F1D
:102930008034095C401C44F8741F80B2FEF7ACF987
:1029400060602888C01C80B2FEF7C0F90246A06013
:10295000A08881B22078BDE8304001F02DBB30BDA9
:1029600000000020CE02002030B4002818D10D480D
:102970000D4C0C4DB0F84A308035591CE05C89B2E2
:102980009A1C6867615C92B2A967DB1CA25C9BB26F
:10299000EA67E35C05F18004236030BC01F02ABBE8
:1029A00030BC704700000020CE02002030B50E4D34
:1029B0000100B5F84A000ED001290BD1FEF752F9FB
:1029C00005F58074A061B5F84A00001D80B2FEF7DD
:1029D00049F9E06130BD0549085C03498031486729
:1029E000BDE8304001F020BB00000020CE020020F6
:1029F00002E008C8121F08C1002AFAD170477047C8
:102A0000002001E001C1121F002AFBD17047000025
:102A100010B5012186B04802FEF786FA00214FF476
:102A20006020CDE902018DF8041001200C4C0091CA
:102A30008DF805108DF8100069462046FDF788FCDA
:102A40000023012219462046FDF7A6FC012120465D
:102A5000FDF73AFC2046FDF7D9FC06B010BD00009A
:102A60000024014000204FF4FA71401C00B288425B
:102A7000FBDB7047094B00B5D86AB0F5FA6F01D39C
:102A8000012000BDFFF722F828B10A20FFF70AF85D
:102A9000D86A0A30D862002000BD00000001002082
:102AA00001F096FD01F074FDFCE7000010B50B4C41
:102AB00001212078FDF79CFF01216078FDF798FF48
:102AC00001212078FEF748F801216078FEF744F8EC
:102AD00000F01EF8BDE8104000F008B8000000202B
:102AE000014A1070517070470000002010B5074C6B
:102AF00000216078FEF730F801212078FEF72CF8ED
:102B00006078BDE810400121FEF726B800000020E3
:102B100010B5094C01216078FEF71EF801212078DC
:102B2000FEF71AF800216078FEF716F82078BDE865
:102B300010400021FEF710B80000002070B5104CC6
:102B400000216078FDF754FF01212078FEF704F89A
:102B500000200C4D206701E0401C20676078FDF7E5
:102B60005DFF012802D1206FA842F5D30021207813
:102B7000FDF7F2FF6078BDE870400121FDF738BF36
:102B800000000020A086010070B50D4E054600240F
:102B900005F080017078FDF7DFFF6806050E012162
:102BA0003078FDF7D9FF00213078FDF7D5FF641CA0
:102BB000E4B2082CECD3BDE87040FFF7BFBF0000C3
:102BC0000000002010B54F4C0121E078FDF710FF08
:102BD00001212079FDF70CFF01216079FDF708FF45
:102BE0000121A079FDF704FF0121E078FDF7B4FF92
:102BF00000212079FDF7B0FF0021A079FDF7ACFF9F
:102C00000A20FEF7D7FCA078002853D1AE2000F0B0
:102C100087F8002000F084F8102000F081F84020B0
:102C200000F07EF8812000F07BF8CF2000F078F8EB
:102C3000A12000F075F8C82000F072F8A62000F07E
:102C40006FF8A82000F06CF83F2000F069F8D3205E
:102C500000F066F8002000F063F8D52000F060F87E
:102C6000802000F05DF8D92000F05AF8F12000F043
:102C700057F8DA2000F054F8122000F051F8DB2069
:102C800000F04EF8402000F04BF8202000F048F80B
:102C9000022000F045F88D2000F042F8142000F0EA
:102CA0003FF8A42000F03CF8A62000F039F8AF204F
:102CB00000F036F8A078012822D1AF2000F030F8DB
:102CC000402000F02DF8A02000F02AF8A62000F007
:102CD00027F8A42000F024F8A22000F021F8C82052
:102CE00000F01EF82F2000F01BF8252000F018F847
:102CF000812000F015F8BDE81040252000F010B844
:102D000010BD00000000002030B5044C039DA070F1
:102D1000E17022716371A57130BD000000000020D8
:102D200070B50F4C06460021A079FDF715FF002570
:102D3000300601D4002100E001212079FDF70CFFCD
:102D40000021E078FDF708FF7006060E0121E0780B
:102D5000FDF702FF6D1CEDB2082DE9D370BD000038
:102D60000000002070B50F4C06460121A079FDF748
:102D7000F3FE0025300601D4002100E00121207976
:102D8000FDF7EAFE0021E078FDF7E6FE7006060E8C
:102D90000121E078FDF7E0FE6D1CEDB2082DE9D3CE
:102DA00070BD00000000002010B5FFF77FFEAE20D0
:102DB00000F055F8002000F052F8102000F04FF815
:102DC000402000F04CF8812000F049F8CF2000F0BE
:102DD00046F8A12000F043F8C82000F040F8A620F3
:102DE00000F03DF8A82000F03AF83F2000F037F856
:102DF000D32000F034F8002000F031F8D52000F0A6
:102E00002EF8802000F02BF8D92000F028F8F120CF
:102E100000F025F8DA2000F022F8122000F01FF868
:102E2000DB2000F01CF8402000F019F8202000F012
:102E300016F8022000F013F88D2000F010F814208E
:102E400000F00DF8A42000F00AF8A62000F007F822
:102E5000BDE81040AF2000F002B8FFF741BE10B54A
:102E60000446FFF755FE7820FFF78EFE0020FFF79F
:102E70008BFE2046FFF788FEBDE81040FFF736BE08
:102E800010B50446FFF744FE7820FFF77DFE402092
:102E9000FFF77AFE2046FFF777FEBDE81040FFF708
:102EA00025BE0000614A00B55F4B1363604B53635E
:102EB000803AC2E91D01362000F01CF9002000F024
:102EC0000BF93A2000F016F9052000F005F9B220C0
:102ED00000F010F90C2000F0FFF80C2000F0FCF8D6
:102EE000002000F0F9F8332000F0F6F8332000F06D
:102EF000F3F8B72000F0FEF8352000F0EDF8BB2025
:102F000000F0F8F8192000F0E7F8C02000F0F2F81F
:102F10002C2000F0E1F8C22000F0ECF8012000F0D5
:102F2000DBF8C32000F0E6F8122000F0D5F8C4204A
:102F300000F0E0F8202000F0CFF8C62000F0DAF82A
:102F40000F2000F0C9F8D02000F0D4F8A42000F041
:102F5000C3F8A12000F0C0F8E02000F0CBF8D020AA
:102F600000F0BAF8042000F0B7F80D2000F0B4F833
:102F7000112000F0B1F8132000F0AEF82B2000F083
:102F8000ABF83F2000F0A8F8542000F0A5F84C2042
:102F900000F0A2F8182000F09FF80D2000F09CF837
:102FA0000B2000F099F81F2000F096F8232000F085
:102FB00093F8E12000F09EF8D02000F08DF8042076
:102FC00000F08AF80C2000F087F8112000F084F857
:102FD000132000F081F82C2000F07EF83F2000F054
:102FE0007BF8442000F078F8512000F075F82F208D
:102FF00000F072F81F2000F06FF81F2000F06CF84E
:10300000202000F069F8232000F066F8212000F06D
:1030100071F8112000F06EF80A20FEF7CBFA292093
:103020005DF804EB00F066B88131000880000020F4
:1030300045310008F0B504461D4616460F462A20C5
:1030400000F058F8204600F035F8304600F032F82D
:103050002B2000F04FF8384600F02CF8284600F0FE
:1030600029F8BDE8F0402C2000F044B8F0B5104C31
:1030700007460021B4F87800401E83B2B4F874000B
:10308000401E82B20846FFF7D5FF00260BE0002560
:1030900004E0384600F00EF86D1CADB2A06F85421A
:1030A000F7DB761CB6B2606F8642F0DBF0BD000045
:1030B0000000002010B5044606480121007BFDF702
:1030C0004BFD200A00F024F8E0B2BDE8104000F00B
:1030D0001FB800000000002010B50446044801217C
:1030E000007BFDF739FD2046BDE8104000F010B828
:1030F0000000002010B5044604480021007BFDF7C5
:103100002BFD2046BDE8104000F002B80000002072
:1031100070B50B4E054600240021B07AFDF71CFD6A
:1031200005F08001707AFDF717FD0121B07AFDF7F7
:1031300013FD6806641C050EE4B2082CECD370BDC8
:103140000000002010B50D4C227A002A15D100286D
:1031500013DB626F904210DA00290EDBA26F9142FE
:103160000BDA8BB282B289B280B2FFF763FFB4F898
:103170004E00BDE81040FFF79DBF10BD00000020CD
:1031800010B50D4CE279002A15D1002813DB626FCF
:10319000904210DA00290EDBA26F91420BDA8BB25B
:1031A00082B289B280B2FFF745FFB4F84C00BDE8A7
:1031B0001040FFF77FBF10BD00000020024A1172CF
:1031C000A2F84E007047000000000020024AD171B2
:1031D000A2F84C00704700000000002010B5034C1E
:1031E0006072A172E272237310BD00000000002023
:1031F00010B5FDF729FE0A20FEF7DCF9302000F0BB
:1032000031F80A20FEF7D6F9302000F02BF80A201A
:10321000FEF7D0F90C2000F025F80A20FEF7CAF9D5
:10322000012000F01FF80A20FEF7C4F9062000F084
:1032300019F86420FEF7BEF9342000F013F80A20D4
:10324000FEF7B8F9362000F00DF8BDE810400A206E
:10325000FEF7B0B9024B58739973DA7370470000E8
:103260000000002070B5214C06460121A07BFDF72F
:1032700073FCFFF7F7FB00250121E07BFDF76CFCF9
:10328000FFF7F0FB0021E07BFDF766FCFFF7EAFBB0
:103290006D1CEDB2052DEFD30021A07BFDF75CFC8A
:1032A000FFF7E0FB0121E07BFDF756FCFFF7DAFBBF
:1032B0000021E07BFDF750FCFFF7D4FB0021A07B51
:1032C000FDF74AFCFFF7CEFB0121E07BFDF744FC54
:1032D000FFF7C8FB0021E07BFDF73EFCFFF7C2FBD8
:1032E0003046BDE87040FEF755B8000000000020F1
:1032F00070B5204C06460121A07BFDF72DFC002572
:103300000121E07BFDF728FCFFF7ACFB0021E07B0F
:10331000FDF722FCFFF7A6FB6D1CEDB2052DEFD3E8
:103320000021A07BFDF718FCFFF79CFB0121E07B4F
:10333000FDF712FCFFF796FB0021E07BFDF70CFC8C
:10334000FFF790FB0121A07BFDF706FCFFF78AFB4E
:103350000121E07BFDF700FCFFF784FB0021E07B0F
:10336000FDF7FAFBFFF77EFB3046BDE87040FEF745
:1033700011B80000000000207CB5012144F20400D7
:10338000FDF7D2FD4FF40070ADF8000003248DF876
:1033900002401820174D8DF8030069462846FDF7B6
:1033A000CDF92815ADF8000004208DF8030069461A
:1033B0002846FDF7C3F9104D012240F22551284659
:1033C000FEF771FC01212846FEF73DFC4FF4E0605A
:1033D000FDF730FD25208DF804008DF80540022012
:1033E0008DF8060001208DF8070001A8FDF7F0FC1C
:1033F0007CBD000000080140003801407CB501217F
:103400000846FDF791FD01210420FDF78DFD012106
:103410004804FDF77DFD0424ADF8004003208DF83D
:1034200002001820164D8DF8030069462846FDF766
:1034300085F90820ADF800008DF80340694628465C
:10344000FDF77CF90F4C012240F225512046FEF792
:103450002AFC01212046FEF7F6FB4FF4E060FDF761
:10346000E9FC26208DF8040000208DF805008DF879
:10347000060001208DF8070001A8FDF7A9FC7CBD1E
:1034800000080140004400407CB501210846FDF7DA
:103490004BFD01210820FDF747FD01218804FDF7C0
:1034A00037FD4FF48060ADF8000003248DF8024032
:1034B0001820174D8DF8030069462846FDF73EF9A0
:1034C000E814ADF8000004208DF803006946284692
:1034D000FDF734F90F4D012240F225512846FEF741
:1034E000E2FB01212846FEF7AEFB4FF4E060FDF75A
:1034F000A1FC27208DF804008DF8054002208DF8EE
:10350000060001208DF8070001A8FDF761FC7CBDD5
:10351000000C01400048004030B5074A0021074C2C
:103520005369803AB2F9522003E05D18491C605596
:1035300009B29142F9DB30BD80000020CE020020AC
:10354000034B83F8320003F8301F5A7070470000B5
:103550000000002030B5074D039CA5F8520005F18E
:103560008000C0E905140449016304494163C0E9CE
:10357000072330BD00000020ED350008813500082C
:10358000064AD36A803A002B07DB00D101E04FF0F6
:10359000010382F8333000F05DB8704780000020EE
:1035A00010B500281CDB0F4AD369984218DA0029AD
:1035B00016DB136A994213DA4BB2DC1703EB54742F
:1035C00024F007041B1B9469C1F3CC0101FB040028
:1035D000516980B208440449085CD840C00700D053
:1035E000012010BD80000020CE020020064A936A10
:1035F000803A002B07DB00D101E04FF0010382F895
:10360000333000F027B870478000002070B5C1F358
:10361000CC020E4B49B2CE179C6901EB567602FBE9
:1036200004005A6980B213180848094C803826F003
:10363000070690F83350E25C0120891B884015B1E1
:103640001043C2B200E08243E25470BD800000200B
:10365000CE0200202DE9F0430D4604003ED4204E5A
:10366000F26994423ADA002D38DB316A8D4235DA5C
:10367000A6F1800090F830300BB1141B641E90F856
:1036800031200AB14D1B6D1E90F8320010B120465A
:103690002C460546706A012803D129462046FFF7CB
:1036A000B5FF706A012819DB00EBD070A5EB60084C
:1036B000A4EB600900250EE04C46002705E04146DA
:1036C0002046FFF7A3FF641C7F1C706A8742F6D375
:1036D00008F101086D1C706A8542EDD3BDE8F083E6
:1036E0008000002010B50C4A03460A4C12F92F0F37
:1036F000235404F10A0319540A33002143F820101B
:103700002833012119540A3319540A331954411C1E
:10371000117010BDB4010020000000202DE9F04719
:10372000DFF88480002408F13C0606F10A09A6F1BE
:10373000320AA6F10A051D4F30E01B480A38005D29
:10374000FDF76CF9295D51EA000203D021B301288D
:1037500009D021E018F80400FDF760F93055012088
:103760002855BDE8F08718F80400FDF757F909F867
:103770000400315D012901D029B10BE050B95AF89C
:103780002410491C04E0012804D15AF82410491ED1
:103790004AF8241000202855641CE4B297F92F0041
:1037A0008442CADBDDE70000BE01002000000020EB
:1037B00070B5054672B60021FDF7CEF91220FDF76F
:1037C000F9FE01212846FDF7C7F90320FDF7DAFECF
:1037D00000212846FDF70CF92846FDF71FF90128BE
:1037E000FAD02846FDF71AF90028FAD02846FDF746
:1037F00015F90128FAD0284600F019F804022846E5
:1038000000F015F820440402284600F010F8204487
:103810000402284600F00BF80444284600F007F89C
:1038200062B601212846FDF7E3F8204670BD70B569
:103830000024064625466006040E3046FDF7EEF8E5
:103840000028FAD00520FDF79DFE3046FDF7E6F88A
:10385000012806D144F001043046FDF7DFF80128C5
:10386000FAD06D1CEDB2082DE5D3204670BD70B5C1
:103870000646002472B6254600213046FDF76CF955
:1038800000F058FE00F056FE01213046FDF764F9C5
:1038900000213046FDF7ACF864080120FDF772FE08
:1038A0003046FDF7BBF8012801D144F08004052023
:1038B000FDF768FE01213046FDF79AF80120FDF77B
:1038C00061FE6D1C6DB2082DD6DB62B6204670BD60
:1038D00010B5044672B60021FDF73EF91820FDF739
:1038E00051FE1820FDF74EFE1820FDF74BFE01217A
:1038F0002046FDF731F90420FDF744FE0021204663
:10390000FDF776F81920FDF73DFE01212046FDF771
:103910006FF862B610BD70B50D46064672B600244B
:1039200000213046FDF718F900F004FE00F002FE19
:1039300005F001013046FDF70FF96D080920FDF78C
:1039400021FE01213046FDF707F900F0F3FD00F0FC
:10395000F1FD00F0EFFD00F0EDFD00F0EBFD00F0FB
:10396000E9FD00F0E7FD641C64B2082CD8DB62B608
:1039700070BD00002DE9FF4F85B011F47F0F01D01D
:10398000012300E0002300200390434801938EB2FE
:10399000C06E002B02D000EB060101E03F4931442C
:1039A00009794FEAD10B11B2009100D13B48304464
:1039B000807802904FF0000067E00898D14605B289
:1039C0004FF0000057E000BF019806EB090110B16D
:1039D0003148C06E00E031480844447A059820B16F
:1039E000012816D0022825D037E00027E0072A4A10
:1039F0000098294602F1800201D0126B00E0526B60
:103A000090476D1C7F1C6408FFB22DB2082FEDD3C8
:103A100023E00027E00705D01F4A2946803200989E
:103A2000526B90476D1C7F1C6408FFB22DB2082FAB
:103A3000F0D312E00027E00708D029460098FCF7F1
:103A40000BFE18B1012009B0BDE8F08F6D1C7F1C82
:103A50006408FFB22DB2082FEDD3019810B10E48C3
:103A6000C06E00E00D483044807848441FFA80F969
:103A700008F1010080B280465845A5D30098401C4B
:103A800000B200900AF10100C0B202998246884259
:103A900093D30398D7E7000000000020CE02002057
:103AA0002DE9FF4F1FFA81F883B008F10200FCF7FF
:103AB0003FFE024608F10300FCF73AFE02EB00204D
:103AC00080B202902848C16E01EB08000079019095
:103AD000410702D108B1C00802E0012101EBD0008A
:103AE0000090002038E00599002601EB0B001FFA3A
:103AF00080F9109C26E000BF1B4808EB0901002557
:103B0000C06E08441099477A019801EB000AF80743
:103B1000154A0698214602F1800201D0126B00E09E
:103B2000526B9047641C7F0824B2A24503DD6D1CD4
:103B3000EDB2082DEBD30299761C09EB01001FFAB8
:103B400080F9F6B200988642D6D30698401C00B29F
:103B500006900BF10100C0B2834603988345C2DB97
:103B600007B0BDE8F08F00000000002002490122EC
:103B700001F8272F487070470000002005480021F9
:103B8000012200F8271F8170C1700271FF2282712B
:103B9000C17170470000002070B52A4C94F82700CE
:103BA00000281CD094F829000025C8B194F82A00F8
:103BB000401CC0B284F82A00C82811D984F82C50BF
:103BC00084F82A5094F82E00401CC0B284F82E00CD
:103BD000052805D304F8295FFF206571207170BDA9
:103BE00014F8280FFCF71AFF14F8031F04F82B0928
:103BF0000129F4D10028F2D184F82E5094F82A201B
:103C000084F82A50012084F8290094F82C00401CE4
:103C1000C1B284F82C100129E1D00229DFD0094873
:103C2000803003695B080361102A02D343F000422D
:103C300002612229D3D104F82C5F0069000C607066
:103C400070BD000000000020024B03F8370F5970D0
:103C50009A707047000000202DE9F0410025184CB3
:103C600007462E46F80728D05FF0010194F8370088
:103C7000FCF772FF0520FDF793FC7F08002194F804
:103C80003800FCF769FF0520FDF78AFC6D0894F801
:103C90003900FCF7C3FE08B145F08005012194F816
:103CA0003800FCF759FF0520FDF77AFC761CF6B2C8
:103CB000082ED7D32846BDE8F0810021D6E70000C2
:103CC00000000020094A02F8240F4FF6FF7000EAB6
:103CD000410040F4C060054990850020803190701B
:103CE000C860012050700520FDF764BC0000002072
:103CF00010B5144C94F82500002822D004F180015E
:103D000042F6B102C86800F57A70C860904218D3D4
:103D1000801AC86094F8500000F0010114F8240FD4
:103D2000FCF71AFF34F82C0F400824F82A092078F1
:103D3000401CC0B204F826090B2802D1002084F8E8
:103D4000250010BD000000202DE9F04708AC184DFB
:103D500094E8C016DFF8548015F9354F48F8240070
:103D600008F1140040F82410143040F824201430D6
:103D700040F82430143000F1140140F82460283059
:103D800041F8247040F8249014303C3140F824A0CD
:103D900041F824C01431002021F81400641C05F8F7
:103DA000014901202870BDE8F087000010020020C2
:103DB00000000020044BA3F23D1292F935209854E4
:103DC000581D8154704700003D0100200348002128
:103DD00080F8351000F8341F817070470000002013
:103DE00070B5084D95F8340000280AD0002404E08E
:103DF000204600F009F8641C64B295F9350084424D
:103E0000F6DB70BD000000202DE9F84F044667483E
:103E100050F824109630415C5FEA01097ED0A0F191
:103E20008201054651F82410465CAA3830F8240077
:103E300080B2FCF717FF83465C48283830F824002E
:103E400080B2FCF70FFF00905848283050F824004B
:103E500015F800A055483C3050F8240015F80080B3
:103E60005248503050F824002F5C5048643030F8ED
:103E7000240080B2FCF7E6FE03B24C48783030F8FC
:103E8000240080B2FCF7DEFE5FEA0A01DFF81CA125
:103E900000B20AF18C0A15D0B8F1000F06D08342A7
:103EA00002DA5B1C1BB201E04FF0000826B91FB11B
:103EB000012B01DD5B1E1BB23AF8141019442AF8DD
:103EC000141004E03AF8142010442AF8140037487B
:103ED0001946643030F8240080B2FCF707FF3348FD
:103EE00042F210723C3050F8240005F800803AF994
:103EF000140090424CDB801A2AF814000EBB009884
:103F0000002840DD461E29483146283830F8240074
:103F100080B2FCF7F3FEA7B95B4300E038E044F65B
:103F2000206093FBF0F086420BDA204A00213C32FD
:103F3000012052F82420A9541C49503151F8241072
:103F400068541B48B9F1010F005D23D00121FCF733
:103F500003FEABF101011548143830F8240080B29B
:103F6000FCF7CCFE1348124D90F836006D1D00286A
:103F7000285D15D0FCF7E4FDC043C1B2285DBDE863
:103F8000F84FFCF7E9BD0949002051F824106854A6
:103F9000BDE8F88F0021FCF7DFFD0BF10101DAE746
:103FA0000121FCF7D9FD285D0021E8E73802002057
:103FB0003D010020000000202DE9F04117460E468B
:103FC000804672B600240A4D09E0381941198B78F1
:103FD0004A78295C404600F017F8E41C24B2B44249
:103FE000F3DB62B60A20BDE8F041FDF7CBBA000072
:103FF000CE02002000B572B600F006F862B60A20C4
:104000005DF804EBFDF7BEBA01EB022103EB0121E1
:1040100000F098BA0349002081F83B0080318863A2
:104020007047000000000020024901F83A0F01200B
:104030004870704700000020084890F83B000028B6
:104040000AD006494EF660228031886B401C886396
:10405000904201DD002088637047000000000020CE
:1040600010B5094B002403F8104F5C709C7100F0F0
:10407000B7F85C75FFF782FDDC77FFF7A7FEBDE8B8
:104080001040FFF7C7BF00000000002070B50A4CC9
:10409000049E14252076012004F8160FE5703C25B7
:1040A000257100256571A071E57120726172A2729F
:1040B000E372267370BD00000000002030B5244C70
:1040C000A07D002843D0E07D401CC0B2E075217E79
:1040D00088423CD30020E07594F91500642190FBE0
:1040E000F1F201FB1201617559B10025184894F9EC
:1040F0001920C07F914206DB0021FCF72DFD002135
:1041000006E00125F2E73DB1E17EFCF725FD217FC8
:1041100094F82000FCF720FD94F9150094F91A108A
:10412000884206DB002194F82100FCF715FD0021F0
:1041300006E04DB1617F94F82100FCF70DFDA17FF1
:1041400094F82200FCF708FD607D401C607530BDCE
:104150000000002070B5054CDDE904566076A176BC
:10416000E27623776577A67770BD00000000002017
:1041700070B500F022F8094C207C401CC0B22074BD
:104180000A280AD30025257400F00AF8607C401C38
:10419000C0B260740A2800D3657470BD00000020AE
:1041A00010B5FFF78BFFFFF7F7FCFFF7B7FAFFF744
:1041B00017FEBDE81040FFF73FBF00B500F024F840
:1041C00000F062F85DF804EBFFF792BD034B0122AB
:1041D00083F8232003F24712115470470000002097
:1041E0000849FF20087048708870C87008714871CD
:1041F0008871C871C73900208860803981F8230030
:10420000704700004701002030B5194890F823009E
:1042100000282BD0164C803404F1C7056168491C76
:104220006160FA290AD0A268A85CFF281ED0114B51
:1042300053F822208A4219D1002113E0A068285C9B
:10424000FF2802D00021FCF787FC00216160A068F4
:10425000401CA060082800D1A160A068285CFF284D
:1042600004D00121BDE83040FCF776BC30BD000031
:10427000000000209401002002490022CA74087541
:10428000704700000000002010B50C4CE07C0028B6
:1042900011D0E06F04F180010A30E06709688842BC
:1042A00009DB401AE067A17C207DFCF755FCA07C6F
:1042B00010B10020A07410BD0120FBE70000002019
:1042C0000249086001208039C874704780000020CE
:1042D0002DE9F04100240E460746254672B601211D
:1042E000FCF73AFC0120FDF74DF900213846FCF7B8
:1042F00033FC4CF2503702E06D1CBD4204DA30460C
:10430000FCF78CFB0028F7D0FDF7D8FB44F62065BE
:1043100005E000BFFDF7B2FB0446A84204D83046D2
:10432000FCF77CFB0128F5D062B604EB04104000DA
:10433000C821B0FBF1F0BDE8F081000010B5002805
:104340000ED1084C084A04F18003B4F84A10505CBE
:10435000491C89B25867515C9967FFF7B9FFA0669D
:1043600010BD000000000020CE0200201FB510206C
:10437000ADF8020040F2CF20ADF804000020ADF807
:10438000000001210846FCF7C3FD4FF08044694658
:104390002046FDF725FB012211462046FDF7CFFA06
:1043A00001212046FDF7A7FA1C208DF80C00012002
:1043B0008DF80F0003A8FCF70BFD00212046FDF748
:1043C0009DFA1FBD01218807FDF798BA074931F80A
:1043D000102007490A8003228A700022CA7003490C
:1043E000623151F820000249FCF7A8B9E2460020EA
:1043F0003001002010B5A0F11001012901D80838C2
:1044000004E0A0F12001052901D81638C0B2014608
:104410000348FCF7D5FAC11700EB9170801010BD6E
:104420000024014002490148C86670472C46000834
:10443000000000204FF0E0208069C04370474FF03B
:10444000E0208069C04370471FB500910021ADF89E
:104450000410ADF80610ADF80810ADF80C100C21E2
:10446000ADF80A1001280AD002280DD0032805D182
:10447000FFF70AF869460748FDF72EFC1FBDFEF757
:104480007BFF69460448F7E7FEF7B8FF6946034833
:10449000F2E70000004800400038014000440040BE
:1044A00010B501280ED0022817D0032809D1104CCE
:1044B0002046FDF76BFC40212046FDF7CEFB00288F
:1044C000F9D010BD0B4C2046FDF760FC4021204682
:1044D000FDF7C3FB0028F9D010BD074C2046FDF7BF
:1044E00055FC40212046FDF7B8FB0028F9D010BD4F
:1044F00000480040003801400044004010B5FCF77F
:1045000099FAFFF733FF4FF0E02005494161054A72
:10451000F02182F8141D002181610721016110BD85
:10452000FEFFFF000FE000E04FF4E1310120FFF754
:104530008BBF00000248416B491C4163704700007B
:104540000001002070B5114E0B460446002206F112
:10455000620500BF55F8241036F8120008611802F1
:1045600007D455F8241036F812004861FFF7E2FF2F
:1045700006E0FFF7DFFF55F8241036F81200486117
:10458000521C5B0052B2182AE4DB70BDE2460020E8
:1045900010B50E4C94F84800002816D0FEF76AFAC1
:1045A000002812D094F8400058B1FDF78FFA002887
:1045B0000BD00020FCF756FB00B9642080B2FDF759
:1045C00071FABDE8104000F00FB810BD00000020E7
:1045D00010B562B6FFF792FFFFF724FFFDF75AFA16
:1045E000BDE81040FCF7DCBA0C4810B590F840105C
:1045F00051B190F8411039B1002180F842101120DA
:10460000FDF71EFCFDF732FC054C00BFFDF796FCE4
:1046100020790028FAD00020207110BD0000002071
:10462000CE0200206C696E6B626F793A0000000068
:1046300004000000080000000C0000001000000052
:1046400014000000180000001C0000002000000002
:1046500024000000280000002C00000030000000B2
:1046600034000000380000003C0000004000000062
:1046700044000000480000004C0000005000000012
:1046800054000000580000005C00000060000000C2
:1046900064000000680000006C0000007000000072
:1046A00074000000780000007C0000008000000022
:1046B00084000000880000008C00000090000000D2
:1046C00094000000980000009C000000A000000082
:1046D000A4000000A8000000AC000000B000000032
:1046E000B4000000B8000000BC000000C0000000E2
:1046F000C4000000C8000000CC000000D000000092
:10470000D4000000D8000000DC000000E000000041
:10471000E4000000E8000000EC000000F0000000F1
:10472000F4000000F8000000FC00000000010000A0
:1047300004010000080100000C010000100100004D
:1047400014010000180100001C01000020010000FD
:1047500024010000280100002C01000030010000AD
:1047600034010000380100003C010000400100005D
:1047700044010000480100004C010000500100000D
:1047800054010000580100005C01000060010000BD
:1047900064010000680100006C010000700100006D
:1047A00074010000780100007C010000800100001D
:1047B00084010000880100008C01000090010000CD
:1047C00094010000980100009C010000A00100007D
:1047D000A4010000A8010000AC010000B00100002D
:1047E000B4010000B8010000BC010000C0010000DD
:1047F000C4010000C8010000CC010000D00100008D
:10480000D4010000D8010000DC010000E00100003C
:10481000E4010000E8010000EC010000F0010000EC
:10482000F4010000F8010000FC010000000200009B
:1048300004020000080200000C0200001002000048
:1048400014020000180200001C02000020020000F8
:1048500024020000280200002C02000030020000A8
:1048600034020000380200003C0200004002000058
:1048700044020000480200004C0200005002000008
:1048800054020000580200005C02000060020000B8
:1048900064020000680200006C0200007002000068
:1048A00074020000780200007C0200008002000018
:1048B00084020000880200008C02000090020000C8
:1048C00094020000980200009C020000A002000078
:1048D000A4020000A8020000AC020000B002000028
:1048E000B4020000B8020000BC020000C0020000D8
:1048F000C4020000C8020000CC020000D002000088
:10490000D4020000D8020000DC020000E002000037
:10491000E4020000E8020000EC020000F0020000E7
:10492000F4020000F8020000FC0200000003000096
:1049300004030000080300000C0300001003000043
:1049400014030000180300001C03000020030000F3
:1049500024030000280300002C03000030030000A3
:1049600034030000380300003C0300004003000053
:1049700044030000480300004C0300005003000003
:1049800054030000580300005C03000060030000B3
:1049900064030000680300006C0300007003000063
:1049A00074030000780300007C0300008003000013
:1049B00084030000880300008C03000090030000C3
:1049C00094030000980300009C030000A003000073
:1049D000A4030000A8030000AC030000B003000023
:1049E000B4030000B8030000BC030000C0030000D3
:1049F000C4030000C8030000CC030000D003000083
:104A0000D4030000D8030000DC030000E003000032
:104A1000E4030000E8030000EC030000F0030000E2
:104A2000F4030000F8030000FC0300000004000091
:104A300004040000080400000C040000100400003E
:104A400014040000180400001C04000020040000EE
:104A500024040000280400002C040000300400009E
:104A600034040000380400003C040000400400004E
:104A700044040000480400004C04000050040000FE
:104A800054040000580400005C04000060040000AE
:104A900064040000680400006C040000700400005E
:104AA00074040000780400007C040000800400000E
:104AB00084040000880400008C04000090040000BE
:104AC00094040000980400009C040000A00400006E
:104AD000A4040000A8040000AC040000B00400001E
:104AE000B4040000B8040000BC040000C0040000CE
:104AF000C4040000C8040000CC040000D00400007E
:104B0000D4040000D8040000DC040000E00400002D
:104B1000E4040000E8040000EC040000F0040000DD
:104B2000F4040000F8040000FC040000000500008C
:104B300004050000080500000C0500001005000039
:104B400014050000180500001C05000020050000E9
:104B500024050000280500002C0500003005000099
:104B600034050000380500003C0500004005000049
:104B700044050000480500004C05000050050000F9
:104B800054050000580500005C05000060050000A9
:104B900064050000680500006C0500007005000059
:104BA00074050000780500007C0500008005000009
:104BB00084050000880500008C05000090050000B9
:104BC00094050000980500009C050000A005000069
:104BD000A4050000A8050000AC050000B005000019
:104BE000B4050000B8050000BC050000C0050000C9
:104BF000C4050000C8050000CC050000D005000079
:104C0000D4050000D8050000DC050000E005000028
:104C1000E4050000E8050000EC050000F0050000D8
:104C2000F4050000F8050000FC0500000006000087
:104C300004060000080600000C0600001006000034
:104C400014060000180600001C06000020060000E4
:104C500024060000280600002C0600003006000094
:104C600034060000380600003C0600004006000044
:104C700044060000480600004C06000050060000F4
:104C800054060000580600005C06000060060000A4
:104C900064060000680600006C0600007006000054
:104CA00074060000780600007C0600008006000004
:104CB00084060000880600008C06000090060000B4
:104CC00094060000980600009C060000A006000064
:104CD000A4060000A8060000AC060000B006000014
:104CE000B4060000B8060000BC060000C0060000C4
:104CF000C4060000C8060000CC060000D006000074
:104D0000D4060000D8060000DC060000E006000023
:104D1000E4060000E8060000EC060000F0060000D3
:104D2000F4060000F8060000FC0600000007000082
:104D300004070000080700000C070000100700002F
:104D400014070000180700001C07000020070000DF
:104D500024070000280700002C070000300700008F
:104D600034070000380700003C070000400700003F
:104D700044070000480700004C07000050070000EF
:104D800054070000580700005C070000600700009F
:104D900064070000680700006C070000700700004F
:104DA00074070000780700007C07000080070000FF
:104DB00084070000880700008C07000090070000AF
:104DC00094070000980700009C070000A00700005F
:104DD000A4070000A8070000AC070000B00700000F
:104DE000B4070000B8070000BC070000C0070000BF
:104DF000C4070000C8070000CC070000D00700006F
:104E0000D4070000D8070000DC070000E00700001E
:104E1000E4070000E8070000EC070000F0070000CE
:104E2000F4070000F8070000FC070000000800007D
:104E300004080000080800000C080000100800002A
:104E400014080000180800001C08000020080000DA
:104E500024080000280800002C080000300800008A
:104E600034080000380800003C080000400800003A
:104E700044080000480800004C08000050080000EA
:104E800054080000580800005C080000600800009A
:104E900064080000680800006C080000700800004A
:104EA00074080000780800007C08000080080000FA
:104EB00084080000880800008C08000090080000AA
:104EC00094080000980800009C080000A00800005A
:104ED000A4080000A8080000AC080000B00800000A
:104EE000B4080000B8080000BC080000C0080000BA
:104EF000C4080000C8080000CC080000D00800006A
:104F0000D4080000D8080000DC080000E008000019
:104F1000E4080000E8080000EC080000F0080000C9
:104F2000F4080000F8080000FC0800000009000078
:104F300004090000080900000C0900001009000025
:104F400014090000180900001C09000020090000D5
:104F500024090000280900002C0900003009000085
:104F600034090000380900003C0900004009000035
:104F700044090000480900004C09000050090000E5
:104F800054090000580900005C0900006009000095
:104F900064090000680900006C0900007009000045
:104FA00074090000780900007C09000080090000F5
:104FB00084090000880900008C09000090090000A5
:104FC00094090000980900009C090000A009000055
:104FD000A4090000A8090000AC090000B009000005
:104FE000B4090000B8090000BC090000C0090000B5
:104FF000C4090000C8090000CC090000D009000065
:10500000D4090000D8090000DC090000E009000014
:10501000E4090000E8090000EC090000F0090000C4
:10502000F4090000F8090000FC090000000A000073
:10503000040A0000080A00000C0A0000100A000020
:10504000140A0000180A00001C0A0000200A0000D0
:10505000240A0000280A00002C0A0000300A000080
:10506000340A0000380A00003C0A0000400A000030
:10507000440A0000480A00004C0A0000500A0000E0
:10508000540A0000580A00005C0A0000600A000090
:10509000640A0000680A00006C0A0000700A000040
:1050A000740A0000780A00007C0A0000800A0000F0
:1050B000840A0000880A00008C0A0000900A0000A0
:1050C000940A0000980A00009C0A0000A00A000050
:1050D000A40A0000A80A0000AC0A0000B00A000000
:1050E000B40A0000B80A0000BC0A0000C00A0000B0
:1050F000C40A0000C80A0000CC0A0000D00A000060
:10510000D40A0000D80A0000DC0A0000E00A00000F
:10511000E40A0000E80A0000EC0A0000F00A0000BF
:10512000F40A0000F80A0000FC0A0000000B00006E
:10513000040B0000080B00000C0B0000100B00001B
:10514000140B0000180B00001C0B0000200B0000CB
:10515000240B0000280B00002C0B0000300B00007B
:10516000340B0000380B00003C0B0000400B00002B
:10517000440B0000480B00004C0B0000500B0000DB
:10518000540B0000580B00005C0B0000600B00008B
:10519000640B0000680B00006C0B0000700B00003B
:1051A000740B0000780B00007C0B0000800B0000EB
:1051B000840B0000880B00008C0B0000900B00009B
:1051C000940B0000980B00009C0B0000A00B00004B
:1051D000A40B0000A80B0000AC0B0000B00B0000FB
:1051E000B40B0000B80B0000BC0B0000C00B0000AB
:1051F000C40B0000C80B0000CC0B0000D00B00005B
:10520000D40B0000D80B0000DC0B0000E00B00000A
:10521000E40B0000E80B0000EC0B0000F00B0000BA
:10522000F40B0000F80B0000FC0B0000000C000069
:10523000040C0000080C00000C0C0000100C000016
:10524000140C0000180C00001C0C0000200C0000C6
:10525000240C0000280C00002C0C0000300C000076
:10526000340C0000380C00003C0C0000400C000026
:10527000440C0000480C00004C0C0000500C0000D6
:10528000540C0000580C00005C0C0000600C000086
:10529000640C0000680C00006C0C0000700C000036
:1052A000740C0000780C00007C0C0000800C0000E6
:1052B000840C0000880C00008C0C0000900C000096
:1052C000940C0000980C00009C0C0000A00C000046
:1052D000A40C0000A80C0000AC0C0000B00C0000F6
:1052E000B40C0000B80C0000BC0C0000C00C0000A6
:1052F000C40C0000C80C0000CC0C0000D00C000056
:10530000D40C0000D80C0000DC0C0000E00C000005
:10531000E40C0000E80C0000EC0C0000F00C0000B5
:10532000F40C0000F80C0000FC0C0000000D000064
:10533000040D0000080D00000C0D0000100D000011
:10534000140D0000180D00001C0D0000200D0000C1
:10535000240D0000280D00002C0D0000300D000071
:10536000340D0000380D00003C0D0000400D000021
:10537000440D0000480D00004C0D0000500D0000D1
:10538000540D0000580D00005C0D0000600D000081
:10539000640D0000680D00006C0D0000700D000031
:1053A000740D0000780D00007C0D0000800D0000E1
:1053B000840D0000880D00008C0D0000900D000091
:1053C000940D0000980D00009C0D0000A00D000041
:1053D000A40D0000A80D0000AC0D0000B00D0000F1
:1053E000B40D0000B80D0000BC0D0000C00D0000A1
:1053F000C40D0000C80D0000CC0D0000D00D000051
:10540000D40D0000D80D0000DC0D0000E00D000000
:10541000E40D0000E80D0000EC0D0000F00D0000B0
:10542000F40D0000F80D0000FC0D0000000E00005F
:10543000040E0000080E00000C0E0000100E00000C
:10544000140E0000180E00001C0E0000200E0000BC
:10545000240E0000280E00002C0E0000300E00006C
:10546000340E0000380E00003C0E0000400E00001C
:10547000440E0000480E00004C0E0000500E0000CC
:10548000540E0000580E00005C0E0000600E00007C
:10549000640E0000680E00006C0E0000700E00002C
:1054A000740E0000780E00007C0E0000800E0000DC
:1054B000840E0000880E00008C0E0000900E00008C
:1054C000940E0000980E00009C0E0000A00E00003C
:1054D000A40E0000A80E0000AC0E0000B00E0000EC
:1054E000B40E0000B80E0000BC0E0000C00E00009C
:1054F000C40E0000C80E0000CC0E0000D00E00004C
:10550000D40E0000D80E0000DC0E0000E00E0000FB
:10551000E40E0000E80E0000EC0E0000F00E0000AB
:10552000F40E0000F80E0000FC0E0000000F00005A
:10553000040F0000080F00000C0F0000100F000007
:10554000140F0000180F00001C0F0000200F0000B7
:10555000240F0000280F00002C0F0000300F000067
:10556000340F0000380F00003C0F0000400F000017
:10557000440F0000480F00004C0F0000500F0000C7
:10558000540F0000580F00005C0F0000600F000077
:10559000640F0000680F00006C0F0000700F000027
:1055A000740F0000780F00007C0F0000800F0000D7
:1055B000840F0000880F00008C0F0000900F000087
:1055C000940F0000980F00009C0F0000A00F000037
:1055D000A40F0000A80F0000AC0F0000B00F0000E7
:1055E000B40F0000B80F0000BC0F0000C00F000097
:1055F000C40F0000C80F0000CC0F0000D00F000047
:10560000D40F0000D80F0000DC0F0000E00F0000F6
:10561000E40F0000E80F0000EC0F0000F00F0000A6
:10562000F40F0000F80F0000FC0F00000010000055
:1056300004100000081000000C1000001010000002
:1056400014100000181000001C10000020100000B2
:1056500024100000281000002C1000003010000062
:1056600034100000381000003C1000004010000012
:1056700044100000481000004C10000050100000C2
:1056800054100000581000005C1000006010000072
:1056900064100000681000006C1000007010000022
:1056A00074100000781000007C10000080100000D2
:1056B00084100000881000008C1000009010000082
:1056C00094100000981000009C100000A010000032
:1056D000A4100000A8100000AC100000B0100000E2
:1056E000B4100000B8100000BC100000C010000092
:1056F000C4100000C8100000CC100000D010000042
:10570000D4100000D8100000DC100000E0100000F1
:10571000E4100000E8100000EC100000F0100000A1
:10572000F4100000F8100000FC1000000011000050
:1057300004110000081100000C11000010110000FD
:1057400014110000181100001C11000020110000AD
:1057500024110000281100002C110000301100005D
:1057600034110000381100003C110000401100000D
:1057700044110000481100004C11000050110000BD
:1057800054110000581100005C110000601100006D
:1057900064110000681100006C110000701100001D
:1057A00074110000781100007C11000080110000CD
:1057B00084110000881100008C110000901100007D
:1057C00094110000981100009C110000A01100002D
:1057D000A4110000A8110000AC110000B0110000DD
:1057E000B4110000B8110000BC110000C01100008D
:1057F000C4110000C8110000CC110000D01100003D
:10580000D4110000D8110000DC110000E0110000EC
:10581000E4110000E8110000EC110000F01100009C
:10582000F4110000F8110000FC110000001200004B
:1058300004120000081200000C12000010120000F8
:1058400014120000181200001C12000020120000A8
:1058500024120000281200002C1200003012000058
:1058600034120000381200003C1200004012000008
:1058700044120000481200004C12000050120000B8
:1058800054120000581200005C1200006012000068
:1058900064120000681200006C1200007012000018
:1058A00074120000781200007C12000080120000C8
:1058B00084120000881200008C1200009012000078
:1058C00094120000981200009C120000A012000028
:1058D000A4120000A8120000AC120000B0120000D8
:1058E000B4120000B8120000BC120000C012000088
:1058F000C4120000C8120000CC120000D012000038
:10590000D4120000D8120000DC120000E0120000E7
:10591000E4120000E8120000EC120000F012000097
:10592000F4120000F8120000FC1200000013000046
:1059300004130000081300000C13000010130000F3
:1059400014130000181300001C13000020130000A3
:1059500024130000281300002C1300003013000053
:1059600034130000381300003C1300004013000003
:1059700044130000481300004C13000050130000B3
:1059800054130000581300005C1300006013000063
:1059900064130000681300006C1300007013000013
:1059A00074130000781300007C13000080130000C3
:1059B00084130000881300008C1300009013000073
:1059C00094130000981300009C130000A013000023
:1059D000A4130000A8130000AC130000B0130000D3
:1059E000B4130000B8130000BC130000C013000083
:1059F000C4130000C8130000CC130000D013000033
:105A0000D4130000D8130000DC130000E0130000E2
:105A1000E4130000E8130000EC130000F013000092
:105A2000F4130000F8130000FC1300000014000041
:105A300004140000081400000C14000010140000EE
:105A400014140000181400001C140000201400009E
:105A500024140000281400002C140000301400004E
:105A600034140000381400003C14000040140000FE
:105A700044140000481400004C14000050140000AE
:105A800054140000581400005C140000601400005E
:105A900064140000681400006C140000701400000E
:105AA00074140000781400007C14000080140000BE
:105AB00084140000881400008C140000901400006E
:105AC00094140000981400009C140000A01400001E
:105AD000A4140000A8140000AC140000B0140000CE
:105AE000B4140000B8140000BC140000C01400007E
:105AF000C4140000C8140000CC140000D01400002E
:105B0000D4140000D8140000DC140000E0140000DD
:105B1000E4140000E8140000EC140000F01400008D
:105B2000F4140000F8140000FC140000001500003C
:105B300004150000081500000C15000010150000E9
:105B400014150000181500001C1500002015000099
:105B500024150000281500002C1500003015000049
:105B600034150000381500003C15000040150000F9
:105B700044150000481500004C15000050150000A9
:105B800054150000581500005C1500006015000059
:105B900064150000681500006C1500007015000009
:105BA00074150000781500007C15000080150000B9
:105BB00084150000881500008C1500009015000069
:105BC00094150000981500009C150000A015000019
:105BD000A4150000A8150000AC150000B0150000C9
:105BE000B4150000B8150000BC150000C015000079
:105BF000C4150000C8150000CC150000D015000029
:105C0000D4150000D8150000DC150000E0150000D8
:105C1000E4150000E8150000EC150000F015000088
:105C2000F4150000F8150000FC1500000016000037
:105C300004160000081600000C16000010160000E4
:105C400014160000181600001C1600002016000094
:105C500024160000281600002C1600003016000044
:105C600034160000381600003C16000040160000F4
:105C700044160000481600004C16000050160000A4
:105C800054160000581600005C1600006016000054
:105C900064160000681600006C1600007016000004
:105CA00074160000781600007C16000080160000B4
:105CB00084160000881600008C1600009016000064
:105CC00094160000981600009C160000A016000014
:105CD000A4160000A8160000AC160000B0160000C4
:105CE000B4160000B8160000BC160000C016000074
:105CF000C4160000C8160000CC160000D016000024
:105D0000D4160000D8160000DC160000E0160000D3
:105D1000E4160000E8160000EC160000F016000083
:105D2000F4160000F8160000FC1600000017000032
:105D300004170000081700000C17000010170000DF
:105D400014170000181700001C170000201700008F
:105D500024170000281700002C170000301700003F
:105D600034170000381700003C17000040170000EF
:105D700044170000481700004C170000501700009F
:105D800054170000581700005C170000601700004F
:105D900064170000681700006C17000070170000FF
:105DA00074170000781700007C17000080170000AF
:105DB00084170000881700008C170000901700005F
:105DC00094170000981700009C170000A01700000F
:105DD000A4170000A8170000AC170000B0170000BF
:105DE000B4170000B8170000BC170000C01700006F
:105DF000C4170000C8170000CC170000D01700001F
:105E0000D4170000D8170000DC170000E0170000CE
:105E1000E4170000E8170000EC170000F01700007E
:105E2000F4170000F8170000FC170000001800002D
:105E300004180000081800000C18000010180000DA
:105E400014180000181800001C180000201800008A
:105E500024180000281800002C180000301800003A
:105E600034180000381800003C18000040180000EA
:105E700044180000481800004C180000501800009A
:105E800054180000581800005C180000601800004A
:105E900064180000681800006C18000070180000FA
:105EA00074180000781800007C18000080180000AA
:105EB00084180000881800008C180000901800005A
:105EC00094180000981800009C180000A01800000A
:105ED000A4180000A8180000AC180000B0180000BA
:105EE000B4180000B8180000BC180000C01800006A
:105EF000C4180000C8180000CC180000D01800001A
:105F0000D4180000D8180000DC180000E0180000C9
:105F1000E4180000E8180000EC180000F018000079
:105F2000F4180000F8180000FC1800000019000028
:105F300004190000081900000C19000010190000D5
:105F400014190000181900001C1900002019000085
:105F500024190000281900002C1900003019000035
:105F600034190000381900003C19000040190000E5
:105F700044190000481900004C1900005019000095
:105F800054190000581900005C1900006019000045
:105F900064190000681900006C19000070190000F5
:105FA00074190000781900007C19000080190000A5
:105FB00084190000881900008C1900009019000055
:105FC00094190000981900009C190000A019000005
:105FD000A4190000A8190000AC190000B0190000B5
:105FE000B4190000B8190000BC190000C019000065
:105FF000C4190000C8190000CC190000D019000015
:10600000D4190000D8190000DC190000E0190000C4
:10601000E4190000E8190000EC190000F019000074
:10602000F4190000F8190000FC190000001A000023
:10603000041A0000081A00000C1A0000101A0000D0
:10604000141A0000181A00001C1A0000201A000080
:10605000241A0000281A00002C1A0000301A000030
:10606000341A0000381A00003C1A0000401A0000E0
:10607000441A0000481A00004C1A0000501A000090
:10608000541A0000581A00005C1A0000601A000040
:10609000641A0000681A00006C1A0000701A0000F0
:1060A000741A0000781A00007C1A0000801A0000A0
:1060B000841A0000881A00008C1A0000901A000050
:1060C000941A0000981A00009C1A0000A01A000000
:1060D000A41A0000A81A0000AC1A0000B01A0000B0
:1060E000B41A0000B81A0000BC1A0000C01A000060
:1060F000C41A0000C81A0000CC1A0000D01A000010
:10610000D41A0000D81A0000DC1A0000E01A0000BF
:10611000E41A0000E81A0000EC1A0000F01A00006F
:10612000F41A0000F81A0000FC1A0000001B00001E
:10613000041B0000081B00000C1B0000101B0000CB
:10614000141B0000181B00001C1B0000201B00007B
:10615000241B0000281B00002C1B0000301B00002B
:10616000341B0000381B00003C1B0000401B0000DB
:10617000441B0000481B00004C1B0000501B00008B
:10618000541B0000581B00005C1B0000601B00003B
:10619000641B0000681B00006C1B0000701B0000EB
:1061A000741B0000781B00007C1B0000801B00009B
:1061B000841B0000881B00008C1B0000901B00004B
:1061C000941B0000981B00009C1B0000A01B0000FB
:1061D000A41B0000A81B0000AC1B0000B01B0000AB
:1061E000B41B0000B81B0000BC1B0000C01B00005B
:1061F000C41B0000C81B0000CC1B0000D01B00000B
:10620000D41B0000D81B0000DC1B0000E01B0000BA
:10621000E41B0000E81B0000EC1B0000F01B00006A
:10622000F41B0000F81B0000FC1B0000001C000019
:10623000041C0000081C00000C1C0000101C0000C6
:10624000141C0000181C00001C1C0000201C000076
:10625000241C0000281C00002C1C0000301C000026
:10626000341C0000381C00003C1C0000401C0000D6
:10627000441C0000481C00004C1C0000501C000086
:10628000541C0000581C00005C1C0000601C000036
:10629000641C0000681C00006C1C0000701C0000E6
:1062A000741C0000781C00007C1C0000801C000096
:1062B000841C0000881C00008C1C0000901C000046
:1062C000941C0000981C00009C1C0000A01C0000F6
:1062D000A41C0000A81C0000AC1C0000B01C0000A6
:1062E000B41C0000B81C0000BC1C0000C01C000056
:1062F000C41C0000C81C0000CC1C0000D01C000006
:10630000D41C0000D81C0000DC1C0000E01C0000B5
:10631000E41C0000E81C0000EC1C0000F01C000065
:10632000F41C0000F81C0000FC1C0000001D000014
:10633000041D0000081D00000C1D0000101D0000C1
:10634000141D0000181D00001C1D0000201D000071
:10635000241D0000281D00002C1D0000301D000021
:10636000341D0000381D00003C1D0000401D0000D1
:10637000441D0000481D00004C1D0000501D000081
:10638000541D0000581D00005C1D0000601D000031
:10639000641D0000681D00006C1D0000701D0000E1
:1063A000741D0000781D00007C1D0000801D000091
:1063B000841D0000881D00008C1D0000901D000041
:1063C000941D0000981D00009C1D0000A01D0000F1
:1063D000A41D0000A81D0000AC1D0000B01D0000A1
:1063E000B41D0000B81D0000BC1D0000C01D000051
:1063F000C41D0000C81D0000CC1D0000D01D000001
:10640000D41D0000D81D0000DC1D0000E01D0000B0
:10641000E41D0000E81D0000EC1D0000F01D000060
:10642000F41D0000F81D0000FC1D0000001E00000F
:10643000041E0000081E00000C1E0000101E0000BC
:10644000141E0000181E00001C1E0000201E00006C
:10645000241E0000281E00002C1E0000301E00001C
:10646000341E0000381E00003C1E0000401E0000CC
:10647000441E0000481E00004C1E0000501E00007C
:10648000541E0000581E00005C1E0000601E00002C
:10649000641E0000681E00006C1E0000701E0000DC
:1064A000741E0000781E00007C1E0000801E00008C
:1064B000841E0000881E00008C1E0000901E00003C
:1064C000941E0000981E00009C1E0000A01E0000EC
:1064D000A41E0000A81E0000AC1E0000B01E00009C
:1064E000B41E0000B81E0000BC1E0000C01E00004C
:1064F000C41E0000C81E0000CC1E0000D01E0000FC
:10650000D41E0000D81E0000DC1E0000E01E0000AB
:10651000E41E0000E81E0000EC1E0000F01E00005B
:10652000F41E0000F81E0000FC1E0000001F00000A
:10653000041F0000081F00000C1F0000101F0000B7
:10654000141F0000181F00001C1F0000201F000067
:10655000241F0000281F00002C1F0000301F000017
:10656000341F0000381F00003C1F0000401F0000C7
:10657000441F0000481F00004C1F0000501F000077
:10658000541F0000581F00005C1F0000601F000027
:10659000641F0000681F00006C1F0000701F0000D7
:1065A000741F0000781F00007C1F0000801F000087
:1065B000841F0000881F00008C1F0000901F000037
:1065C000941F0000981F00009C1F0000A01F0000E7
:1065D000A41F0000A81F0000AC1F0000B01F000097
:1065E000B41F0000B81F0000BC1F0000C01F000047
:1065F000C41F0000C81F0000CC1F0000D01F0000F7
:10660000D41F0000D81F0000DC1F0000E01F0000A6
:10661000E41F0000E81F0000EC1F0000F01F000056
:10662000F41F0000F81F0000FC1F00000020000005
:1066300004200000082000000C20000010200000B2
:1066400014200000182000001C2000002020000062
:1066500024200000282000002C2000003020000012
:1066600034200000382000003C20000040200000C2
:1066700044200000482000004C2000005020000072
:1066800054200000582000005C2000006020000022
:1066900064200000682000006C20000070200000D2
:1066A00074200000782000007C2000008020000082
:1066B00084200000882000008C2000009020000032
:1066C00094200000982000009C200000A0200000E2
:1066D000A4200000A8200000AC200000B020000092
:1066E000B4200000B8200000BC200000C020000042
:1066F000C4200000C8200000CC200000D0200000F2
:10670000D4200000D8200000DC200000E0200000A1
:10671000E4200000E8200000EC200000F020000051
:10672000F4200000F8200000FC2000000021000000
:1067300004210000082100000C21000010210000AD
:1067400014210000182100001C210000202100005D
:1067500024210000282100002C210000302100000D
:1067600034210000382100003C21000040210000BD
:1067700044210000482100004C210000502100006D
:1067800054210000582100005C210000602100001D
:1067900064210000682100006C21000070210000CD
:1067A00074210000782100007C210000802100007D
:1067B00084210000882100008C210000902100002D
:1067C00094210000982100009C210000A0210000DD
:1067D000A4210000A8210000AC210000B02100008D
:1067E000B4210000B8210000BC210000C02100003D
:1067F000C4210000C8210000CC210000D0210000ED
:10680000D4210000D8210000DC210000E02100009C
:10681000E4210000E8210000EC210000F02100004C
:10682000F4210000F8210000FC21000000220000FB
:1068300004220000082200000C22000010220000A8
:1068400014220000182200001C2200002022000058
:1068500024220000282200002C2200003022000008
:1068600034220000382200003C22000040220000B8
:1068700044220000482200004C2200005022000068
:1068800054220000582200005C2200006022000018
:1068900064220000682200006C22000070220000C8
:1068A00074220000782200007C2200008022000078
:1068B00084220000882200008C2200009022000028
:1068C00094220000982200009C220000A0220000D8
:1068D000A4220000A8220000AC220000B022000088
:1068E000B4220000B8220000BC220000C022000038
:1068F000C4220000C8220000CC220000D0220000E8
:10690000D4220000D8220000DC220000E022000097
:10691000E4220000E8220000EC220000F022000047
:10692000F4220000F8220000FC22000000230000F6
:1069300004230000082300000C23000010230000A3
:1069400014230000182300001C2300002023000053
:1069500024230000282300002C2300003023000003
:1069600034230000382300003C23000040230000B3
:1069700044230000482300004C2300005023000063
:1069800054230000582300005C2300006023000013
:1069900064230000682300006C23000070230000C3
:1069A00074230000782300007C2300008023000073
:1069B00084230000882300008C2300009023000023
:1069C00094230000982300009C230000A0230000D3
:1069D000A4230000A8230000AC230000B023000083
:1069E000B4230000B8230000BC230000C023000033
:1069F000C4230000C8230000CC230000D0230000E3
:106A0000D4230000D8230000DC230000E023000092
:106A1000E4230000E8230000EC230000F023000042
:106A2000F4230000F8230000FC23000000240000F1
:106A300004240000082400000C240000102400009E
:106A400014240000182400001C240000202400004E
:106A500024240000282400002C24000030240000FE
:106A600034240000382400003C24000040240000AE
:106A700044240000482400004C240000502400005E
:106A800054240000582400005C240000602400000E
:106A900064240000682400006C24000070240000BE
:106AA00074240000782400007C240000802400006E
:106AB00084240000882400008C240000902400001E
:106AC00094240000982400009C240000A0240000CE
:106AD000A4240000A8240000AC240000B02400007E
:106AE000B4240000B8240000BC240000C02400002E
:106AF000C4240000C8240000CC240000D0240000DE
:106B0000D4240000D8240000DC240000E02400008D
:106B1000E4240000E8240000EC240000F02400003D
:106B2000F4240000F8240000FC24000000250000EC
:106B300004250000082500000C2500001025000099
:106B400014250000182500001C2500002025000049
:106B500024250000282500002C25000030250000F9
:106B600034250000382500003C25000040250000A9
:106B700044250000482500004C2500005025000059
:106B800054250000582500005C2500006025000009
:106B900064250000682500006C25000070250000B9
:106BA00074250000782500007C2500008025000069
:106BB00084250000882500008C2500009025000019
:106BC00094250000982500009C250000A0250000C9
:106BD000A4250000A8250000AC250000B025000079
:106BE000B4250000B8250000BC250000C025000029
:106BF000C4250000C8250000CC250000D0250000D9
:106C0000D4250000D8250000DC250000E025000088
:106C1000E4250000E8250000EC250000F025000038
:106C2000F4250000F8250000FC25000000260000E7
:106C300004260000082600000C2600001026000094
:106C400014260000182600001C2600002026000044
:106C500024260000282600002C26000030260000F4
:106C600034260000382600003C26000040260000A4
:106C700044260000482600004C2600005026000054
:106C800054260000582600005C2600006026000004
:106C900064260000682600006C26000070260000B4
:106CA00074260000782600007C2600008026000064
:106CB00084260000882600008C2600009026000014
:106CC00094260000982600009C260000A0260000C4
:106CD000A4260000A8260000AC260000B026000074
:106CE000B4260000B8260000BC260000C026000024
:106CF000C4260000C8260000CC260000D0260000D4
:106D0000D4260000D8260000DC260000E026000083
:106D1000E4260000E8260000EC260000F026000033
:106D2000F4260000F8260000FC26000000270000E2
:106D300004270000082700000C270000102700008F
:106D400014270000182700001C270000202700003F
:106D500024270000282700002C27000030270000EF
:106D600034270000382700003C270000402700009F
:106D700044270000482700004C270000502700004F
:106D800054270000582700005C27000060270000FF
:106D900064270000682700006C27000070270000AF
:106DA00074270000782700007C270000802700005F
:106DB00084270000882700008C270000902700000F
:106DC00094270000982700009C270000A0270000BF
:106DD000A4270000A8270000AC270000B02700006F
:106DE000B4270000B8270000BC270000C02700001F
:106DF000C4270000C8270000CC270000D0270000CF
:106E0000D4270000D8270000DC270000E02700007E
:106E1000E4270000E8270000EC270000F02700002E
:106E2000F4270000F8270000FC27000000280000DD
:106E300004280000082800000C280000102800008A
:106E400014280000182800001C280000202800003A
:106E500024280000282800002C28000030280000EA
:106E600034280000382800003C280000402800009A
:106E700044280000482800004C280000502800004A
:106E800054280000582800005C28000060280000FA
:106E900064280000682800006C28000070280000AA
:106EA00074280000782800007C280000802800005A
:106EB00084280000882800008C280000902800000A
:106EC00094280000982800009C280000A0280000BA
:106ED000A4280000A8280000AC280000B02800006A
:106EE000B4280000B8280000BC280000C02800001A
:106EF000C4280000C8280000CC280000D0280000CA
:106F0000D4280000D8280000DC280000E028000079
:106F1000E4280000E8280000EC280000F028000029
:106F2000F4280000F8280000FC28000000290000D8
:106F300004290000082900000C2900001029000085
:106F400014290000182900001C2900002029000035
:106F500024290000282900002C29000030290000E5
:106F600034290000382900003C2900004029000095
:106F700044290000482900004C2900005029000045
:106F800054290000582900005C29000060290000F5
:106F900064290000682900006C29000070290000A5
:106FA00074290000782900007C2900008029000055
:106FB00084290000882900008C2900009029000005
:106FC00094290000982900009C290000A0290000B5
:106FD000A4290000A8290000AC290000B029000065
:106FE000B4290000B8290000BC290000C029000015
:106FF000C4290000C8290000CC290000D0290000C5
:10700000D4290000D8290000DC290000E029000074
:10701000E4290000E8290000EC290000F029000024
:10702000F4290000F8290000FC290000002A0000D3
:10703000042A0000082A00000C2A0000102A000080
:10704000142A0000182A00001C2A0000202A000030
:10705000242A0000282A00002C2A0000302A0000E0
:10706000342A0000382A00003C2A0000402A000090
:10707000442A0000482A00004C2A0000502A000040
:10708000542A0000582A00005C2A0000602A0000F0
:10709000642A0000682A00006C2A0000702A0000A0
:1070A000742A0000782A00007C2A0000802A000050
:1070B000842A0000882A00008C2A0000902A000000
:1070C000942A0000982A00009C2A0000A02A0000B0
:1070D000A42A0000A82A0000AC2A0000B02A000060
:1070E000B42A0000B82A0000BC2A0000C02A000010
:1070F000C42A0000C82A0000CC2A0000D02A0000C0
:10710000D42A0000D82A0000DC2A0000E02A00006F
:10711000E42A0000E82A0000EC2A0000F02A00001F
:10712000F42A0000F82A0000FC2A0000002B0000CE
:10713000042B0000082B00000C2B0000102B00007B
:10714000142B0000182B00001C2B0000202B00002B
:10715000242B0000282B00002C2B0000302B0000DB
:10716000342B0000382B00003C2B0000402B00008B
:10717000442B0000482B00004C2B0000502B00003B
:10718000542B0000582B00005C2B0000602B0000EB
:10719000642B0000682B00006C2B0000702B00009B
:1071A000742B0000782B00007C2B0000802B00004B
:1071B000842B0000882B00008C2B0000902B0000FB
:1071C000942B0000982B00009C2B0000A02B0000AB
:1071D000A42B0000A82B0000AC2B0000B02B00005B
:1071E000B42B0000B82B0000BC2B0000C02B00000B
:1071F000C42B0000C82B0000CC2B0000D02B0000BB
:10720000D42B0000D82B0000DC2B0000E02B00006A
:10721000E42B0000E82B0000EC2B0000F02B00001A
:10722000F42B0000F82B0000FC2B0000002C0000C9
:10723000042C0000082C00000C2C0000102C000076
:10724000142C0000182C00001C2C0000202C000026
:10725000242C0000282C00002C2C0000302C0000D6
:10726000342C0000382C00003C2C0000402C000086
:10727000442C0000482C00004C2C0000502C000036
:10728000542C0000582C00005C2C0000602C0000E6
:10729000642C0000682C00006C2C0000702C000096
:1072A000742C0000782C00007C2C0000802C000046
:1072B000842C0000882C00008C2C0000902C0000F6
:1072C000942C0000982C00009C2C0000A02C0000A6
:1072D000A42C0000A82C0000AC2C0000B02C000056
:1072E000B42C0000B82C0000BC2C0000C02C000006
:1072F000C42C0000C82C0000CC2C0000D02C0000B6
:10730000D42C0000D82C0000DC2C0000E02C000065
:10731000E42C0000E82C0000EC2C0000F02C000015
:10732000F42C0000F82C0000FC2C0000002D0000C4
:10733000042D0000082D00000C2D0000102D000071
:10734000142D0000182D00001C2D0000202D000021
:10735000242D0000282D00002C2D0000302D0000D1
:10736000342D0000382D00003C2D0000402D000081
:10737000442D0000482D00004C2D0000502D000031
:10738000542D0000582D00005C2D0000602D0000E1
:10739000642D0000682D00006C2D0000702D000091
:1073A000742D0000782D00007C2D0000802D000041
:1073B000842D0000882D00008C2D0000902D0000F1
:1073C000942D0000982D00009C2D0000A02D0000A1
:1073D000A42D0000A82D0000AC2D0000B02D000051
:1073E000B42D0000B82D0000BC2D0000C02D000001
:1073F000C42D0000C82D0000CC2D0000D02D0000B1
:10740000D42D0000D82D0000DC2D0000E02D000060
:10741000E42D0000E82D0000EC2D0000F02D000010
:10742000F42D0000F82D0000FC2D0000002E0000BF
:10743000042E0000082E00000C2E0000102E00006C
:10744000142E0000182E00001C2E0000202E00001C
:10745000242E0000282E00002C2E0000302E0000CC
:10746000342E0000382E00003C2E0000402E00007C
:10747000442E0000482E00004C2E0000502E00002C
:10748000542E0000582E00005C2E0000602E0000DC
:10749000642E0000682E00006C2E0000702E00008C
:1074A000742E0000782E00007C2E0000802E00003C
:1074B000842E0000882E00008C2E0000902E0000EC
:1074C000942E0000982E00009C2E0000A02E00009C
:1074D000A42E0000A82E0000AC2E0000B02E00004C
:1074E000B42E0000B82E0000BC2E0000C02E0000FC
:1074F000C42E0000C82E0000CC2E0000D02E0000AC
:10750000D42E0000D82E0000DC2E0000E02E00005B
:10751000E42E0000E82E0000EC2E0000F02E00000B
:10752000F42E0000F82E0000FC2E0000002F0000BA
:10753000042F0000082F00000C2F0000102F000067
:10754000142F0000182F00001C2F0000202F000017
:10755000242F0000282F00002C2F0000302F0000C7
:10756000342F0000382F00003C2F0000402F000077
:10757000442F0000482F00004C2F0000502F000027
:10758000542F0000582F00005C2F0000602F0000D7
:10759000642F0000682F00006C2F0000702F000087
:1075A000742F0000782F00007C2F0000802F000037
:1075B000842F0000882F00008C2F0000902F0000E7
:1075C000942F0000982F00009C2F0000A02F000097
:1075D000A42F0000A82F0000AC2F0000B02F000047
:1075E000B42F0000B82F0000BC2F0000C02F0000F7
:1075F000C42F0000C82F0000CC2F0000D02F0000A7
:10760000D42F0000D82F0000DC2F0000E02F000056
:10761000E42F0000E82F0000EC2F0000F02F000006
:10762000F42F0000F82F0000FC2F000000300000B5
:1076300004300000083000000C3000001030000062
:1076400014300000183000001C3000002030000012
:1076500024300000283000002C30000030300000C2
:1076600034300000383000003C3000004030000072
:1076700044300000483000004C3000005030000022
:1076800054300000583000005C30000060300000D2
:1076900064300000683000006C3000007030000082
:1076A00074300000783000007C3000008030000032
:1076B00084300000883000008C30000090300000E2
:1076C00094300000983000009C300000A030000092
:1076D000A4300000A8300000AC300000B030000042
:1076E000B4300000B8300000BC300000C0300000F2
:1076F000C4300000C8300000CC300000D0300000A2
:10770000D4300000D8300000DC300000E030000051
:10771000E4300000E8300000EC300000F030000001
:10772000F4300000F8300000FC30000000310000B0
:1077300004310000083100000C310000103100005D
:1077400014310000183100001C310000203100000D
:1077500024310000283100002C31000030310000BD
:1077600034310000383100003C310000403100006D
:1077700044310000483100004C310000503100001D
:1077800054310000583100005C31000060310000CD
:1077900064310000683100006C310000703100007D
:1077A00074310000783100007C310000803100002D
:1077B00084310000883100008C31000090310000DD
:1077C00094310000983100009C310000A03100008D
:1077D000A4310000A8310000AC310000B03100003D
:1077E000B4310000B8310000BC310000C0310000ED
:1077F000C4310000C8310000CC310000D03100009D
:10780000D4310000D8310000DC310000E03100004C
:10781000E4310000E8310000EC310000F0310000FC
:10782000F4310000F8310000FC31000000320000AB
:1078300004320000083200000C3200001032000058
:1078400014320000183200001C3200002032000008
:1078500024320000283200002C32000030320000B8
:1078600034320000383200003C3200004032000068
:1078700044320000483200004C3200005032000018
:1078800054320000583200005C32000060320000C8
:1078900064320000683200006C3200007032000078
:1078A00074320000783200007C3200008032000028
:1078B00084320000883200008C32000090320000D8
:1078C00094320000983200009C320000A032000088
:1078D000A4320000A8320000AC320000B032000038
:1078E000B4320000B8320000BC320000C0320000E8
:1078F000C4320000C8320000CC320000D032000098
:10790000D4320000D8320000DC320000E032000047
:10791000E4320000E8320000EC320000F0320000F7
:10792000F4320000F8320000FC32000000330000A6
:1079300004330000083300000C3300001033000053
:1079400014330000183300001C3300002033000003
:1079500024330000283300002C33000030330000B3
:1079600034330000383300003C3300004033000063
:1079700044330000483300004C3300005033000013
:1079800054330000583300005C33000060330000C3
:1079900064330000683300006C3300007033000073
:1079A00074330000783300007C3300008033000023
:1079B00084330000883300008C33000090330000D3
:1079C00094330000983300009C330000A033000083
:1079D000A4330000A8330000AC330000B033000033
:1079E000B4330000B8330000BC330000C0330000E3
:1079F000C4330000C8330000CC330000D033000093
:107A0000D4330000D8330000DC330000E033000042
:107A1000E4330000E8330000EC330000F0330000F2
:107A2000F4330000F8330000FC33000000340000A1
:107A300004340000083400000C340000103400004E
:107A400014340000183400001C34000020340000FE
:107A500024340000283400002C34000030340000AE
:107A600034340000383400003C340000403400005E
:107A700044340000483400004C340000503400000E
:107A800054340000583400005C34000060340000BE
:107A900064340000683400006C340000703400006E
:107AA00074340000783400007C340000803400001E
:107AB00084340000883400008C34000090340000CE
:107AC00094340000983400009C340000A03400007E
:107AD000A4340000A8340000AC340000B03400002E
:107AE000B4340000B8340000BC340000C0340000DE
:107AF000C4340000C8340000CC340000D03400008E
:107B0000D4340000D8340000DC340000E03400003D
:107B1000E4340000E8340000EC340000F0340000ED
:107B2000F4340000F8340000FC340000003500009C
:107B300004350000083500000C3500001035000049
:107B400014350000183500001C35000020350000F9
:107B500024350000283500002C35000030350000A9
:107B600034350000383500003C3500004035000059
:107B700044350000483500004C3500005035000009
:107B800054350000583500005C35000060350000B9
:107B900064350000683500006C3500007035000069
:107BA00074350000783500007C3500008035000019
:107BB00084350000883500008C35000090350000C9
:107BC00094350000983500009C350000A035000079
:107BD000A4350000A8350000AC350000B035000029
:107BE000B4350000B8350000BC350000C0350000D9
:107BF000C4350000C8350000CC350000D035000089
:107C0000D4350000D8350000DC350000E035000038
:107C1000E4350000E8350000EC350000F0350000E8
:107C2000F4350000F8350000FC3500000036000097
:107C300004360000083600000C3600001036000044
:107C400014360000183600001C36000020360000F4
:107C500024360000283600002C36000030360000A4
:107C600034360000383600003C3600004036000054
:107C700044360000483600004C3600005036000004
:107C800054360000583600005C36000060360000B4
:107C900064360000683600006C3600007036000064
:107CA00074360000783600007C3600008036000014
:107CB00084360000883600008C36000090360000C4
:107CC00094360000983600009C360000A036000074
:107CD000A4360000A8360000AC360000B036000024
:107CE000B4360000B8360000BC360000C0360000D4
:107CF000C4360000C8360000CC360000D036000084
:107D0000D4360000D8360000DC360000E036000033
:107D1000E4360000E8360000EC360000F0360000E3
:107D2000F4360000F8360000FC3600000037000092
:107D300004370000083700000C370000103700003F
:107D400014370000183700001C37000020370000EF
:107D500024370000283700002C370000303700009F
:107D600034370000383700003C370000403700004F
:107D700044370000483700004C37000050370000FF
:107D800054370000583700005C37000060370000AF
:107D900064370000683700006C370000703700005F
:107DA00074370000783700007C370000803700000F
:107DB00084370000883700008C37000090370000BF
:107DC00094370000983700009C370000A03700006F
:107DD000A4370000A8370000AC370000B03700001F
:107DE000B4370000B8370000BC370000C0370000CF
:107DF000C4370000C8370000CC370000D03700007F
:107E0000D4370000D8370000DC370000E03700002E
:107E1000E4370000E8370000EC370000F0370000DE
:107E2000F4370000F8370000FC370000003800008D
:107E300004380000083800000C380000103800003A
:107E400014380000183800001C38000020380000EA
:107E500024380000283800002C380000303800009A
:107E600034380000383800003C380000403800004A
:107E700044380000483800004C38000050380000FA
:107E800054380000583800005C38000060380000AA
:107E900064380000683800006C380000703800005A
:107EA00074380000783800007C380000803800000A
:107EB00084380000883800008C38000090380000BA
:107EC00094380000983800009C380000A03800006A
:107ED000A4380000A8380000AC380000B03800001A
:107EE000B4380000B8380000BC380000C0380000CA
:107EF000C4380000C8380000CC380000D03800007A
:107F0000D4380000D8380000DC380000E038000029
:107F1000E4380000E8380000EC380000F0380000D9
:107F2000F4380000F8380000FC3800000039000088
:107F300004390000083900000C3900001039000035
:107F400014390000183900001C39000020390000E5
:107F500024390000283900002C3900003039000095
:107F600034390000383900003C3900004039000045
:107F700044390000483900004C39000050390000F5
:107F800054390000583900005C39000060390000A5
:107F900064390000683900006C3900007039000055
:107FA00074390000783900007C3900008039000005
:107FB00084390000883900008C39000090390000B5
:107FC00094390000983900009C390000A039000065
:107FD000A4390000A8390000AC390000B039000015
:107FE000B4390000B8390000BC390000C0390000C5
:107FF000C4390000C8390000CC390000D039000075
:10800000D4390000D8390000DC390000E039000024
:10801000E4390000E8390000EC390000F0390000D4
:10802000F4390000F8390000FC390000003A000083
:10803000043A0000083A00000C3A0000103A000030
:10804000143A0000183A00001C3A0000203A0000E0
:10805000243A0000283A00002C3A0000303A000090
:10806000343A0000383A00003C3A0000403A000040
:10807000443A0000483A00004C3A0000503A0000F0
:10808000543A0000583A00005C3A0000603A0000A0
:10809000643A0000683A00006C3A0000703A000050
:1080A000743A0000783A00007C3A0000803A000000
:1080B000843A0000883A00008C3A0000903A0000B0
:1080C000943A0000983A00009C3A0000A03A000060
:1080D000A43A0000A83A0000AC3A0000B03A000010
:1080E000B43A0000B83A0000BC3A0000C03A0000C0
:1080F000C43A0000C83A0000CC3A0000D03A000070
:10810000D43A0000D83A0000DC3A0000E03A00001F
:10811000E43A0000E83A0000EC3A0000F03A0000CF
:10812000F43A0000F83A0000FC3A0000003B00007E
:10813000043B0000083B00000C3B0000103B00002B
:10814000143B0000183B00001C3B0000203B0000DB
:10815000243B0000283B00002C3B0000303B00008B
:10816000343B0000383B00003C3B0000403B00003B
:10817000443B0000483B00004C3B0000503B0000EB
:10818000543B0000583B00005C3B0000603B00009B
:10819000643B0000683B00006C3B0000703B00004B
:1081A000743B0000783B00007C3B0000803B0000FB
:1081B000843B0000883B00008C3B0000903B0000AB
:1081C000943B0000983B00009C3B0000A03B00005B
:1081D000A43B0000A83B0000AC3B0000B03B00000B
:1081E000B43B0000B83B0000BC3B0000C03B0000BB
:1081F000C43B0000C83B0000CC3B0000D03B00006B
:10820000D43B0000D83B0000DC3B0000E03B00001A
:10821000E43B0000E83B0000EC3B0000F03B0000CA
:10822000F43B0000F83B0000FC3B0000003C000079
:10823000043C0000083C00000C3C0000103C000026
:10824000143C0000183C00001C3C0000203C0000D6
:10825000243C0000283C00002C3C0000303C000086
:10826000343C0000383C00003C3C0000403C000036
:10827000443C0000483C00004C3C0000503C0000E6
:10828000543C0000583C00005C3C0000603C000096
:10829000643C0000683C00006C3C0000703C000046
:1082A000743C0000783C00007C3C0000803C0000F6
:1082B000843C0000883C00008C3C0000903C0000A6
:1082C000943C0000983C00009C3C0000A03C000056
:1082D000A43C0000A83C0000AC3C0000B03C000006
:1082E000B43C0000B83C0000BC3C0000C03C0000B6
:1082F000C43C0000C83C0000CC3C0000D03C000066
:10830000D43C0000D83C0000DC3C0000E03C000015
:10831000E43C0000E83C0000EC3C0000F03C0000C5
:10832000F43C0000F83C0000FC3C0000003D000074
:10833000043D0000083D00000C3D0000103D000021
:10834000143D0000183D00001C3D0000203D0000D1
:10835000243D0000283D00002C3D0000303D000081
:10836000343D0000383D00003C3D0000403D000031
:10837000443D0000483D00004C3D0000503D0000E1
:10838000543D0000583D00005C3D0000603D000091
:10839000643D0000683D00006C3D0000703D000041
:1083A000743D0000783D00007C3D0000803D0000F1
:1083B000843D0000883D00008C3D0000903D0000A1
:1083C000943D0000983D00009C3D0000A03D000051
:1083D000A43D0000A83D0000AC3D0000B03D000001
:1083E000B43D0000B83D0000BC3D0000C03D0000B1
:1083F000C43D0000C83D0000CC3D0000D03D000061
:10840000D43D0000D83D0000DC3D0000E03D000010
:10841000E43D0000E83D0000EC3D0000F03D0000C0
:10842000F43D0000F83D0000FC3D0000003E00006F
:10843000043E0000083E00000C3E0000103E00001C
:10844000143E0000183E00001C3E0000203E0000CC
:10845000243E0000283E00002C3E0000303E00007C
:10846000343E0000383E00003C3E0000403E00002C
:10847000443E0000483E00004C3E0000503E0000DC
:10848000543E0000583E00005C3E0000603E00008C
:10849000643E0000683E00006C3E0000703E00003C
:1084A000743E0000783E00007C3E0000803E0000EC
:1084B000843E0000883E00008C3E0000903E00009C
:1084C000943E0000983E00009C3E0000A03E00004C
:1084D000A43E0000A83E0000AC3E0000B03E0000FC
:1084E000B43E0000B83E0000BC3E0000C03E0000AC
:1084F000C43E0000C83E0000CC3E0000D03E00005C
:10850000D43E0000D83E0000DC3E0000E03E00000B
:10851000E43E0000E83E0000EC3E0000F03E0000BB
:10852000F43E0000F83E0000FC3E0000003F00006A
:10853000043F0000083F00000C3F0000103F000017
:10854000143F0000183F00001C3F0000203F0000C7
:10855000243F0000283F00002C3F0000303F000077
:10856000343F0000383F00003C3F0000403F000027
:10857000443F0000483F00004C3F0000503F0000D7
:10858000543F0000583F00005C3F0000603F000087
:10859000643F0000683F00006C3F0000703F000037
:1085A000743F0000783F00007C3F0000803F0000E7
:1085B000843F0000883F00008C3F0000903F000097
:1085C000943F0000983F00009C3F0000A03F000047
:1085D000A43F0000A83F0000AC3F0000B03F0000F7
:1085E000B43F0000B83F0000BC3F0000C03F0000A7
:1085F000C43F0000C83F0000CC3F0000D03F000057
:10860000D43F0000D83F0000DC3F0000E03F000006
:10861000E43F0000E83F0000EC3F0000F03F0000B6
:10862000F43F0000F83F0000FC3F00000040000065
:1086300004400000084000000C4000001040000012
:1086400014400000184000001C40000020400000C2
:1086500024400000284000002C4000003040000072
:1086600034400000384000003C4000004040000022
:1086700044400000484000004C40000050400000D2
:1086800054400000584000005C4000006040000082
:1086900064400000684000006C4000007040000032
:1086A00074400000784000007C40000080400000E2
:1086B00084400000884000008C4000009040000092
:1086C00094400000984000009C400000A040000042
:1086D000A4400000A8400000AC400000B0400000F2
:1086E000B4400000B8400000BC400000C0400000A2
:1086F000C4400000C8400000CC400000D040000052
:10870000D4400000D8400000DC400000E040000001
:10871000E4400000E8400000EC400000F0400000B1
:10872000F4400000F8400000FC4000000041000060
:1087300004410000084100000C410000104100000D
:1087400014410000184100001C41000020410000BD
:1087500024410000284100002C410000304100006D
:1087600034410000384100003C410000404100001D
:1087700044410000484100004C41000050410000CD
:1087800054410000584100005C410000604100007D
:1087900064410000684100006C410000704100002D
:1087A00074410000784100007C41000080410000DD
:1087B00084410000884100008C410000904100008D
:1087C00094410000984100009C410000A04100003D
:1087D000A4410000A8410000AC410000B0410000ED
:1087E000B4410000B8410000BC410000C04100009D
:1087F000C4410000C8410000CC410000D04100004D
:10880000D4410000D8410000DC410000E0410000FC
:10881000E4410000E8410000EC410000F0410000AC
:10882000F4410000F8410000FC410000004200005B
:1088300004420000084200000C4200001042000008
:1088400014420000184200001C42000020420000B8
:1088500024420000284200002C4200003042000068
:1088600034420000384200003C4200004042000018
:1088700044420000484200004C42000050420000C8
:1088800054420000584200005C4200006042000078
:1088900064420000684200006C4200007042000028
:1088A00074420000784200007C42000080420000D8
:1088B00084420000884200008C4200009042000088
:1088C00094420000984200009C420000A042000038
:1088D000A4420000A8420000AC420000B0420000E8
:1088E000B4420000B8420000BC420000C042000098
:1088F000C4420000C8420000CC420000D042000048
:10890000D4420000D8420000DC420000E0420000F7
:10891000E4420000E8420000EC420000F0420000A7
:10892000F4420000F8420000FC4200000043000056
:1089300004430000084300000C4300001043000003
:1089400014430000184300001C43000020430000B3
:1089500024430000284300002C4300003043000063
:1089600034430000384300003C4300004043000013
:1089700044430000484300004C43000050430000C3
:1089800054430000584300005C4300006043000073
:1089900064430000684300006C4300007043000023
:1089A00074430000784300007C43000080430000D3
:1089B00084430000884300008C4300009043000083
:1089C00094430000984300009C430000A043000033
:1089D000A4430000A8430000AC430000B0430000E3
:1089E000B4430000B8430000BC430000C043000093
:1089F000C4430000C8430000CC430000D043000043
:108A0000D4430000D8430000DC430000E0430000F2
:108A1000E4430000E8430000EC430000F0430000A2
:108A2000F4430000F8430000FC4300000044000051
:108A300004440000084400000C44000010440000FE
:108A400014440000184400001C44000020440000AE
:108A500024440000284400002C440000304400005E
:108A600034440000384400003C440000404400000E
:108A700044440000484400004C44000050440000BE
:108A800054440000584400005C440000604400006E
:108A900064440000684400006C440000704400001E
:108AA00074440000784400007C44000080440000CE
:108AB00084440000884400008C440000904400007E
:108AC00094440000984400009C440000A04400002E
:108AD000A4440000A8440000AC440000B0440000DE
:108AE000B4440000B8440000BC440000C04400008E
:108AF000C4440000C8440000CC440000D04400003E
:108B0000D4440000D8440000DC440000E0440000ED
:108B1000E4440000E8440000EC440000F04400009D
:108B2000F4440000F8440000FC440000004500004C
:108B300004450000084500000C45000010450000F9
:108B400014450000184500001C45000020450000A9
:108B500024450000284500002C4500003045000059
:108B600034450000384500003C4500004045000009
:108B700044450000484500004C45000050450000B9
:108B800054450000584500005C4500006045000069
:108B900064450000684500006C4500007045000019
:108BA00074450000784500007C45000080450000C9
:108BB00084450000884500008C4500009045000079
:108BC00094450000984500009C450000A045000029
:108BD000A4450000A8450000AC450000B0450000D9
:108BE000B4450000B8450000BC450000C045000089
:108BF000C4450000C8450000CC450000D045000039
:108C0000D4450000D8450000DC450000E0450000E8
:108C1000E4450000E8450000EC450000F045000098
:108C2000F4450000F8450000FC4500000046000047
:108C300004460000084600000C46000010460000F4
:108C400014460000184600001C46000020460000A4
:108C500024460000284600002C4600003046000054
:108C600034460000384600003C4600004046000004
:108C700044460000484600004C46000050460000B4
:108C800054460000584600005C4600006046000064
:108C900064460000684600006C4600007046000014
:108CA00074460000784600007C46000080460000C4
:108CB00084460000884600008C4600009046000074
:108CC00094460000984600009C460000A046000024
:108CD000A4460000A8460000AC460000B0460000D4
:108CE000B4460000B8460000BC460000C046000084
:108CF000C4460000C8460000CC460000D046000034
:108D0000D4460000D8460000DC460000E0460000E3
:108D1000E4460000E8460000EC460000F046000093
:108D2000F4460000F8460000FC4600000047000042
:108D300004470000084700000C47000010470000EF
:108D400014470000184700001C470000204700009F
:108D500024470000284700002C470000304700004F
:108D600034470000384700003C47000040470000FF
:108D700044470000484700004C47000050470000AF
:108D800054470000584700005C470000604700005F
:108D900064470000684700006C470000704700000F
:108DA00074470000784700007C47000080470000BF
:108DB00084470000884700008C470000904700006F
:108DC00094470000984700009C470000A04700001F
:108DD000A4470000A8470000AC470000B0470000CF
:108DE000B4470000B8470000BC470000C04700007F
:108DF000C4470000C8470000CC470000D04700002F
:108E0000D4470000D8470000DC470000E0470000DE
:108E1000E4470000E8470000EC470000F04700008E
:108E2000F4470000F8470000FC470000004800003D
:108E300004480000084800000C48000010480000EA
:108E400014480000184800001C480000204800009A
:108E500024480000284800002C480000304800004A
:108E600034480000384800003C48000040480000FA
:108E700044480000484800004C48000050480000AA
:108E800054480000584800005C480000604800005A
:108E900064480000684800006C480000704800000A
:108EA00074480000784800007C48000080480000BA
:108EB00084480000884800008C480000904800006A
:108EC00094480000984800009C480000A04800001A
:108ED000A4480000A8480000AC480000B0480000CA
:108EE000B4480000B8480000BC480000C04800007A
:108EF000C4480000C8480000CC480000D04800002A
:108F0000D4480000D8480000DC480000E0480000D9
:108F1000E4480000E8480000EC480000F048000089
:108F2000F4480000F8480000FC4800000049000038
:108F300004490000084900000C49000010490000E5
:108F400014490000184900001C4900002049000095
:108F500024490000284900002C4900003049000045
:108F600034490000384900003C49000040490000F5
:108F700044490000484900004C49000050490000A5
:108F800054490000584900005C4900006049000055
:108F900064490000684900006C4900007049000005
:108FA00074490000784900007C49000080490000B5
:108FB00084490000884900008C4900009049000065
:108FC00094490000984900009C490000A049000015
:108FD000A4490000A8490000AC490000B0490000C5
:108FE000B4490000B8490000BC490000C049000075
:108FF000C4490000C8490000CC490000D049000025
:10900000D4490000D8490000DC490000E0490000D4
:10901000E4490000E8490000EC490000F049000084
:10902000F4490000F8490000FC490000004A000033
:10903000044A0000084A00000C4A0000104A0000E0
:10904000144A0000184A00001C4A0000204A000090
:10905000244A0000284A00002C4A0000304A000040
:10906000344A0000384A00003C4A0000404A0000F0
:10907000444A0000484A00004C4A0000504A0000A0
:10908000544A0000584A00005C4A0000604A000050
:10909000644A0000684A00006C4A0000704A000000
:1090A000744A0000784A00007C4A0000804A0000B0
:1090B000844A0000884A00008C4A0000904A000060
:1090C000944A0000984A00009C4A0000A04A000010
:1090D000A44A0000A84A0000AC4A0000B04A0000C0
:1090E000B44A0000B84A0000BC4A0000C04A000070
:1090F000C44A0000C84A0000CC4A0000D04A000020
:10910000D44A0000D84A0000DC4A0000E04A0000CF
:10911000E44A0000E84A0000EC4A0000F04A00007F
:10912000F44A0000F84A0000FC4A0000004B00002E
:10913000044B0000084B00000C4B0000104B0000DB
:10914000144B0000184B00001C4B0000204B00008B
:10915000244B0000284B00002C4B0000304B00003B
:10916000344B0000384B00003C4B0000404B0000EB
:10917000444B0000484B00004C4B0000504B00009B
:10918000544B0000584B00005C4B0000604B00004B
:10919000644B0000684B00006C4B0000704B0000FB
:1091A000744B0000784B00007C4B0000804B0000AB
:1091B000844B0000884B00008C4B0000904B00005B
:1091C000944B0000984B00009C4B0000A04B00000B
:1091D000A44B0000A84B0000AC4B0000B04B0000BB
:1091E000B44B0000B84B0000BC4B0000C04B00006B
:1091F000C44B0000C84B0000CC4B0000D04B00001B
:10920000D44B0000D84B0000DC4B0000E04B0000CA
:10921000E44B0000E84B0000EC4B0000F04B00007A
:10922000F44B0000F84B0000FC4B0000004C000029
:10923000044C0000084C00000C4C0000104C0000D6
:10924000144C0000184C00001C4C0000204C000086
:10925000244C0000284C00002C4C0000304C000036
:10926000344C0000384C00003C4C0000404C0000E6
:10927000444C0000484C00004C4C0000504C000096
:10928000544C0000584C00005C4C0000604C000046
:10929000644C0000684C00006C4C0000704C0000F6
:1092A000744C0000784C00007C4C0000804C0000A6
:1092B000844C0000884C00008C4C0000904C000056
:1092C000944C0000984C00009C4C0000A04C000006
:1092D000A44C0000A84C0000AC4C0000B04C0000B6
:1092E000B44C0000B84C0000BC4C0000C04C000066
:1092F000C44C0000C84C0000CC4C0000D04C000016
:10930000D44C0000D84C0000DC4C0000E04C0000C5
:10931000E44C0000E84C0000EC4C0000F04C000075
:10932000F44C0000F84C0000FC4C0000004D000024
:10933000044D0000084D00000C4D0000104D0000D1
:10934000144D0000184D00001C4D0000204D000081
:10935000244D0000284D00002C4D0000304D000031
:10936000344D0000384D00003C4D0000404D0000E1
:10937000444D0000484D00004C4D0000504D000091
:10938000544D0000584D00005C4D0000604D000041
:10939000644D0000684D00006C4D0000704D0000F1
:1093A000744D0000784D00007C4D0000804D0000A1
:1093B000844D0000884D00008C4D0000904D000051
:1093C000944D0000984D00009C4D0000A04D000001
:1093D000A44D0000A84D0000AC4D0000B04D0000B1
:1093E000B44D0000B84D0000BC4D0000C04D000061
:1093F000C44D0000C84D0000CC4D0000D04D000011
:10940000D44D0000D84D0000DC4D0000E04D0000C0
:10941000E44D0000E84D0000EC4D0000F04D000070
:10942000F44D0000F84D0000FC4D0000004E00001F
:10943000044E0000084E00000C4E0000104E0000CC
:10944000144E0000184E00001C4E0000204E00007C
:10945000244E0000284E00002C4E0000304E00002C
:10946000344E0000384E00003C4E0000404E0000DC
:10947000444E0000484E00004C4E0000504E00008C
:10948000544E0000584E00005C4E0000604E00003C
:10949000644E0000684E00006C4E0000704E0000EC
:1094A000744E0000784E00007C4E0000804E00009C
:1094B000844E0000884E00008C4E0000904E00004C
:1094C000944E0000984E00009C4E0000A04E0000FC
:1094D000A44E0000A84E0000AC4E0000B04E0000AC
:1094E000B44E0000B84E0000BC4E0000C04E00005C
:1094F000C44E0000C84E0000CC4E0000D04E00000C
:10950000D44E0000D84E0000DC4E0000E04E0000BB
:10951000E44E0000E84E0000EC4E0000F04E00006B
:10952000F44E0000F84E0000FC4E0000004F00001A
:10953000044F0000084F00000C4F0000104F0000C7
:10954000144F0000184F00001C4F0000204F000077
:10955000244F0000284F00002C4F0000304F000027
:10956000344F0000384F00003C4F0000404F0000D7
:10957000444F0000484F00004C4F0000504F000087
:10958000544F0000584F00005C4F0000604F000037
:10959000644F0000684F00006C4F0000704F0000E7
:1095A000744F0000784F00007C4F0000804F000097
:1095B000844F0000884F00008C4F0000904F000047
:1095C000944F0000984F00009C4F0000A04F0000F7
:1095D000A44F0000A84F0000AC4F0000B04F0000A7
:1095E000B44F0000B84F0000BC4F0000C04F000057
:1095F000C44F0000C84F0000CC4F0000D04F000007
:10960000D44F0000D84F0000DC4F0000E04F0000B6
:10961000E44F0000E84F0000EC4F0000F04F000066
:10962000F44F0000F84F0000FC4F00000050000015
:1096300004500000085000000C50000010500000C2
:1096400014500000185000001C5000002050000072
:1096500024500000285000002C5000003050000022
:1096600034500000385000003C50000040500000D2
:1096700044500000485000004C5000005050000082
:1096800054500000585000005C5000006050000032
:1096900064500000685000006C50000070500000E2
:1096A00074500000785000007C5000008050000092
:1096B00084500000885000008C5000009050000042
:1096C00094500000985000009C500000A0500000F2
:1096D000A4500000A8500000AC500000B0500000A2
:1096E000B4500000B8500000BC500000C050000052
:1096F000C4500000C8500000CC500000D050000002
:10970000D4500000D8500000DC500000E0500000B1
:10971000E4500000E8500000EC500000F050000061
:10972000F4500000F8500000FC5000000051000010
:1097300004510000085100000C51000010510000BD
:1097400014510000185100001C510000205100006D
:1097500024510000285100002C510000305100001D
:1097600034510000385100003C51000040510000CD
:1097700044510000485100004C510000505100007D
:1097800054510000585100005C510000605100002D
:1097900064510000685100006C51000070510000DD
:1097A00074510000785100007C510000805100008D
:1097B00084510000885100008C510000905100003D
:1097C00094510000985100009C510000A0510000ED
:1097D000A4510000A8510000AC510000B05100009D
:1097E000B4510000B8510000BC510000C05100004D
:1097F000C4510000C8510000CC510000D0510000FD
:10980000D4510000D8510000DC510000E0510000AC
:10981000E4510000E8510000EC510000F05100005C
:10982000F4510000F8510000FC510000005200000B
:1098300004520000085200000C52000010520000B8
:1098400014520000185200001C5200002052000068
:1098500024520000285200002C5200003052000018
:1098600034520000385200003C52000040520000C8
:1098700044520000485200004C5200005052000078
:1098800054520000585200005C5200006052000028
:1098900064520000685200006C52000070520000D8
:1098A00074520000785200007C5200008052000088
:1098B00084520000885200008C5200009052000038
:1098C00094520000985200009C520000A0520000E8
:1098D000A4520000A8520000AC520000B052000098
:1098E000B4520000B8520000BC520000C052000048
:1098F000C4520000C8520000CC520000D0520000F8
:10990000D4520000D8520000DC520000E0520000A7
:10991000E4520000E8520000EC520000F052000057
:10992000F4520000F8520000FC5200000053000006
:1099300004530000085300000C53000010530000B3
:1099400014530000185300001C5300002053000063
:1099500024530000285300002C5300003053000013
:1099600034530000385300003C53000040530000C3
:1099700044530000485300004C5300005053000073
:1099800054530000585300005C5300006053000023
:1099900064530000685300006C53000070530000D3
:1099A00074530000785300007C5300008053000083
:1099B00084530000885300008C5300009053000033
:1099C00094530000985300009C530000A0530000E3
:1099D000A4530000A8530000AC530000B053000093
:1099E000B4530000B8530000BC530000C053000043
:1099F000C4530000C8530000CC530000D0530000F3
:109A0000D4530000D8530000DC530000E0530000A2
:109A1000E4530000E8530000EC530000F053000052
:109A2000F4530000F8530000FC5300000054000001
:109A300004540000085400000C54000010540000AE
:109A400014540000185400001C540000205400005E
:109A500024540000285400002C540000305400000E
:109A600034540000385400003C54000040540000BE
:109A700044540000485400004C540000505400006E
:109A800054540000585400005C540000605400001E
:109A900064540000685400006C54000070540000CE
:109AA00074540000785400007C540000805400007E
:109AB00084540000885400008C540000905400002E
:109AC00094540000985400009C540000A0540000DE
:109AD000A4540000A8540000AC540000B05400008E
:109AE000B4540000B8540000BC540000C05400003E
:109AF000C4540000C8540000CC540000D0540000EE
:109B0000D4540000D8540000DC540000E05400009D
:109B1000E4540000E8540000EC540000F05400004D
:109B2000F4540000F8540000FC54000000550000FC
:109B300004550000085500000C55000010550000A9
:109B400014550000185500001C5500002055000059
:109B500024550000285500002C5500003055000009
:109B600034550000385500003C55000040550000B9
:109B700044550000485500004C5500005055000069
:109B800054550000585500005C5500006055000019
:109B900064550000685500006C55000070550000C9
:109BA00074550000785500007C5500008055000079
:109BB00084550000885500008C5500009055000029
:109BC00094550000985500009C550000A0550000D9
:109BD000A4550000A8550000AC550000B055000089
:109BE000B4550000B8550000BC550000C055000039
:109BF000C4550000C8550000CC550000D0550000E9
:109C0000D4550000D8550000DC550000E055000098
:109C1000E4550000E8550000EC550000F055000048
:109C2000F4550000F8550000FC55000000560000F7
:109C300004560000085600000C56000010560000A4
:109C400014560000185600001C5600002056000054
:109C500024560000285600002C5600003056000004
:109C600034560000385600003C56000040560000B4
:109C700044560000485600004C5600005056000064
:109C800054560000585600005C5600006056000014
:109C900064560000685600006C56000070560000C4
:109CA00074560000785600007C5600008056000074
:109CB00084560000885600008C5600009056000024
:109CC00094560000985600009C560000A0560000D4
:109CD000A4560000A8560000AC560000B056000084
:109CE000B4560000B8560000BC560000C056000034
:109CF000C4560000C8560000CC560000D0560000E4
:109D0000D4560000D8560000DC560000E056000093
:109D1000E4560000E8560000EC560000F056000043
:109D2000F4560000F8560000FC56000000570000F2
:109D300004570000085700000C570000105700009F
:109D400014570000185700001C570000205700004F
:109D500024570000285700002C57000030570000FF
:109D600034570000385700003C57000040570000AF
:109D700044570000485700004C570000505700005F
:109D800054570000585700005C570000605700000F
:109D900064570000685700006C57000070570000BF
:109DA00074570000785700007C570000805700006F
:109DB00084570000885700008C570000905700001F
:109DC00094570000985700009C570000A0570000CF
:109DD000A4570000A8570000AC570000B05700007F
:109DE000B4570000B8570000BC570000C05700002F
:109DF000C4570000C8570000CC570000D0570000DF
:109E0000D4570000D8570000DC570000E05700008E
:109E1000E4570000E8570000EC570000F05700003E
:109E2000F4570000F8570000FC57000000580000ED
:109E300004580000085800000C580000105800009A
:109E400014580000185800001C580000205800004A
:109E500024580000285800002C58000030580000FA
:109E600034580000385800003C58000040580000AA
:109E700044580000485800004C580000505800005A
:109E800054580000585800005C580000605800000A
:109E900064580000685800006C58000070580000BA
:109EA00074580000785800007C580000805800006A
:109EB00084580000885800008C580000905800001A
:109EC00094580000985800009C580000A0580000CA
:109ED000A4580000A8580000AC580000B05800007A
:109EE000B4580000B8580000BC580000C05800002A
:109EF000C4580000C8580000CC580000D0580000DA
:109F0000D4580000D8580000DC580000E058000089
:109F1000E4580000E8580000EC580000F058000039
:109F2000F4580000F8580000FC58000000590000E8
:109F300004590000085900000C5900001059000095
:109F400014590000185900001C5900002059000045
:109F500024590000285900002C59000030590000F5
:109F600034590000385900003C59000040590000A5
:109F700044590000485900004C5900005059000055
:109F800054590000585900005C5900006059000005
:109F900064590000685900006C59000070590000B5
:109FA00074590000785900007C5900008059000065
:109FB00084590000885900008C5900009059000015
:109FC00094590000985900009C590000A0590000C5
:109FD000A4590000A8590000AC590000B059000075
:109FE000B4590000B8590000BC590000C059000025
:109FF000C4590000C8590000CC590000D0590000D5
:10A00000D4590000D8590000DC590000E059000084
:10A01000E4590000E8590000EC590000F059000034
:10A02000F4590000F8590000FC590000005A0000E3
:10A03000045A0000085A00000C5A0000105A000090
:10A04000145A0000185A00001C5A0000205A000040
:10A05000245A0000285A00002C5A0000305A0000F0
:10A06000345A0000385A00003C5A0000405A0000A0
:10A07000445A0000485A00004C5A0000505A000050
:10A08000545A0000585A00005C5A0000605A000000
:10A09000645A0000685A00006C5A0000705A0000B0
:10A0A000745A0000785A00007C5A0000805A000060
:10A0B000845A0000885A00008C5A0000905A000010
:10A0C000945A0000985A00009C5A0000A05A0000C0
:10A0D000A45A0000A85A0000AC5A0000B05A000070
:10A0E000B45A0000B85A0000BC5A0000C05A000020
:10A0F000C45A0000C85A0000CC5A0000D05A0000D0
:10A10000D45A0000D85A0000DC5A0000E05A00007F
:10A11000E45A0000E85A0000EC5A0000F05A00002F
:10A12000F45A0000F85A0000FC5A0000005B0000DE
:10A13000045B0000085B00000C5B0000105B00008B
:10A14000145B0000185B00001C5B0000205B00003B
:10A15000245B0000285B00002C5B0000305B0000EB
:10A16000345B0000385B00003C5B0000405B00009B
:10A17000445B0000485B00004C5B0000505B00004B
:10A18000545B0000585B00005C5B0000605B0000FB
:10A19000645B0000685B00006C5B0000705B0000AB
:10A1A000745B0000785B00007C5B0000805B00005B
:10A1B000845B0000885B00008C5B0000905B00000B
:10A1C000945B0000985B00009C5B0000A05B0000BB
:10A1D000A45B0000A85B0000AC5B0000B05B00006B
:10A1E000B45B0000B85B0000BC5B0000C05B00001B
:10A1F000C45B0000C85B0000CC5B0000D05B0000CB
:10A20000D45B0000D85B0000DC5B0000E05B00007A
:10A21000E45B0000E85B0000EC5B0000F05B00002A
:10A22000F45B0000F85B0000FC5B0000005C0000D9
:10A23000045C0000085C00000C5C0000105C000086
:10A24000145C0000185C00001C5C0000205C000036
:10A25000245C0000285C00002C5C0000305C0000E6
:10A26000345C0000385C00003C5C0000405C000096
:10A27000445C0000485C00004C5C0000505C000046
:10A28000545C0000585C00005C5C0000605C0000F6
:10A29000645C0000685C00006C5C0000705C0000A6
:10A2A000745C0000785C00007C5C0000805C000056
:10A2B000845C0000885C00008C5C0000905C000006
:10A2C000945C0000985C00009C5C0000A05C0000B6
:10A2D000A45C0000A85C0000AC5C0000B05C000066
:10A2E000B45C0000B85C0000BC5C0000C05C000016
:10A2F000C45C0000C85C0000CC5C0000D05C0000C6
:10A30000D45C0000D85C0000DC5C0000E05C000075
:10A31000E45C0000E85C0000EC5C0000F05C000025
:10A32000F45C0000F85C0000FC5C0000005D0000D4
:10A33000045D0000085D00000C5D0000105D000081
:10A34000145D0000185D00001C5D0000205D000031
:10A35000245D0000285D00002C5D0000305D0000E1
:10A36000345D0000385D00003C5D0000405D000091
:10A37000445D0000485D00004C5D0000505D000041
:10A38000545D0000585D00005C5D0000605D0000F1
:10A39000645D0000685D00006C5D0000705D0000A1
:10A3A000745D0000785D00007C5D0000805D000051
:10A3B000845D0000885D00008C5D0000905D000001
:10A3C000945D0000985D00009C5D0000A05D0000B1
:10A3D000A45D0000A85D0000AC5D0000B05D000061
:10A3E000B45D0000B85D0000BC5D0000C05D000011
:10A3F000C45D0000C85D0000CC5D0000D05D0000C1
:10A40000D45D0000D85D0000DC5D0000E05D000070
:10A41000E45D0000E85D0000EC5D0000F05D000020
:10A42000F45D0000F85D0000FC5D0000005E0000CF
:10A43000045E0000085E00000C5E0000105E00007C
:10A44000145E0000185E00001C5E0000205E00002C
:10A45000245E0000285E00002C5E0000305E0000DC
:10A46000345E0000385E00003C5E0000405E00008C
:10A47000445E0000485E00004C5E0000505E00003C
:10A48000545E0000585E00005C5E0000605E0000EC
:10A49000645E0000685E00006C5E0000705E00009C
:10A4A000745E0000785E00007C5E0000805E00004C
:10A4B000845E0000885E00008C5E0000905E0000FC
:10A4C000945E0000985E00009C5E0000A05E0000AC
:10A4D000A45E0000A85E0000AC5E0000B05E00005C
:10A4E000B45E0000B85E0000BC5E0000C05E00000C
:10A4F000C45E0000C85E0000CC5E0000D05E0000BC
:10A50000D45E0000D85E0000DC5E0000E05E00006B
:10A51000E45E0000E85E0000EC5E0000F05E00001B
:10A52000F45E0000F85E0000FC5E0000005F0000CA
:10A53000045F0000085F00000C5F0000105F000077
:10A54000145F0000185F00001C5F0000205F000027
:10A55000245F0000285F00002C5F0000305F0000D7
:10A56000345F0000385F00003C5F0000405F000087
:10A57000445F0000485F00004C5F0000505F000037
:10A58000545F0000585F00005C5F0000605F0000E7
:10A59000645F0000685F00006C5F0000705F000097
:10A5A000745F0000785F00007C5F0000805F000047
:10A5B000845F0000885F00008C5F0000905F0000F7
:10A5C000945F0000985F00009C5F0000A05F0000A7
:10A5D000A45F0000A85F0000AC5F0000B05F000057
:10A5E000B45F0000B85F0000BC5F0000C05F000007
:10A5F000C45F0000C85F0000CC5F0000D05F0000B7
:10A60000D45F0000D85F0000DC5F0000E05F000066
:10A61000E45F0000E85F0000EC5F0000F05F000016
:10A62000F45F0000F85F0000FC5F000000600000C5
:10A6300004600000086000000C6000001060000072
:10A6400014600000186000001C6000002060000022
:10A6500024600000286000002C60000030600000D2
:10A6600034600000386000003C6000004060000082
:10A6700044600000486000004C6000005060000032
:10A6800054600000586000005C60000060600000E2
:10A6900064600000686000006C6000007060000092
:10A6A00074600000786000007C6000008060000042
:10A6B00084600000886000008C60000090600000F2
:10A6C00094600000986000009C600000A0600000A2
:10A6D000A4600000A8600000AC600000B060000052
:10A6E000B4600000B8600000BC600000C060000002
:10A6F000C4600000C8600000CC600000D0600000B2
:10A70000D4600000D8600000DC600000E060000061
:10A71000E4600000E8600000EC600000F060000011
:10A72000F4600000F8600000FC60000000610000C0
:10A7300004610000086100000C610000106100006D
:10A7400014610000186100001C610000206100001D
:10A7500024610000286100002C61000030610000CD
:10A7600034610000386100003C610000406100007D
:10A7700044610000486100004C610000506100002D
:10A7800054610000586100005C61000060610000DD
:10A7900064610000686100006C610000706100008D
:10A7A00074610000786100007C610000806100003D
:10A7B00084610000886100008C61000090610000ED
:10A7C00094610000986100009C610000A06100009D
:10A7D000A4610000A8610000AC610000B06100004D
:10A7E000B4610000B8610000BC610000C0610000FD
:10A7F000C4610000C8610000CC610000D0610000AD
:10A80000D4610000D8610000DC610000E06100005C
:10A81000E4610000E8610000EC610000F06100000C
:10A82000F4610000F8610000FC61000000620000BB
:10A8300004620000086200000C6200001062000068
:10A8400014620000186200001C6200002062000018
:10A8500024620000286200002C62000030620000C8
:10A8600034620000386200003C6200004062000078
:10A8700044620000486200004C6200005062000028
:10A8800054620000586200005C62000060620000D8
:10A8900064620000686200006C6200007062000088
:10A8A00074620000786200007C6200008062000038
:10A8B00084620000886200008C62000090620000E8
:10A8C00094620000986200009C620000A062000098
:10A8D000A4620000A8620000AC620000B062000048
:10A8E000B4620000B8620000BC620000C0620000F8
:10A8F000C4620000C8620000CC620000D0620000A8
:10A90000D4620000D8620000DC620000E062000057
:10A91000E4620000E8620000EC620000F062000007
:10A92000F4620000F8620000FC62000000630000B6
:10A9300004630000086300000C6300001063000063
:10A9400014630000186300001C6300002063000013
:10A9500024630000286300002C63000030630000C3
:10A9600034630000386300003C6300004063000073
:10A9700044630000486300004C6300005063000023
:10A9800054630000586300005C63000060630000D3
:10A9900064630000686300006C6300007063000083
:10A9A00074630000786300007C6300008063000033
:10A9B00084630000886300008C63000090630000E3
:10A9C00094630000986300009C630000A063000093
:10A9D000A4630000A8630000AC630000B063000043
:10A9E000B4630000B8630000BC630000C0630000F3
:10A9F000C4630000C8630000CC630000D0630000A3
:10AA0000D4630000D8630000DC630000E063000052
:10AA1000E4630000E8630000EC630000F063000002
:10AA2000F4630000F8630000FC63000000640000B1
:10AA300004640000086400000C640000106400005E
:10AA400014640000186400001C640000206400000E
:10AA500024640000286400002C64000030640000BE
:10AA600034640000386400003C640000406400006E
:10AA700044640000486400004C640000506400001E
:10AA800054640000586400005C64000060640000CE
:10AA900064640000686400006C640000706400007E
:10AAA00074640000786400007C640000806400002E
:10AAB00084640000886400008C64000090640000DE
:10AAC00094640000986400009C640000A06400008E
:10AAD000A4640000A8640000AC640000B06400003E
:10AAE000B4640000B8640000BC640000C0640000EE
:10AAF000C4640000C8640000CC640000D06400009E
:10AB0000D4640000D8640000DC640000E06400004D
:10AB1000E4640000E8640000EC640000F0640000FD
:10AB2000F4640000F8640000FC64000000650000AC
:10AB300004650000086500000C6500001065000059
:10AB400014650000186500001C6500002065000009
:10AB500024650000286500002C65000030650000B9
:10AB600034650000386500003C6500004065000069
:10AB700044650000486500004C6500005065000019
:10AB800054650000586500005C65000060650000C9
:10AB900064650000686500006C6500007065000079
:10ABA00074650000786500007C6500008065000029
:10ABB00084650000886500008C65000090650000D9
:10ABC00094650000986500009C650000A065000089
:10ABD000A4650000A8650000AC650000B065000039
:10ABE000B4650000B8650000BC650000C0650000E9
:10ABF000C4650000C8650000CC650000D065000099
:10AC0000D4650000D8650000DC650000E065000048
:10AC1000E4650000E8650000EC650000F0650000F8
:10AC2000F4650000F8650000FC65000000660000A7
:10AC300004660000086600000C6600001066000054
:10AC400014660000186600001C6600002066000004
:10AC500024660000286600002C66000030660000B4
:10AC600034660000386600003C6600004066000064
:10AC700044660000486600004C6600005066000014
:10AC800054660000586600005C66000060660000C4
:10AC900064660000686600006C6600007066000074
:10ACA00074660000786600007C6600008066000024
:10ACB00084660000886600008C66000090660000D4
:10ACC00094660000986600009C660000A066000084
:10ACD000A4660000A8660000AC660000B066000034
:10ACE000B4660000B8660000BC660000C0660000E4
:10ACF000C4660000C8660000CC660000D066000094
:10AD0000D4660000D8660000DC660000E066000043
:10AD1000E4660000E8660000EC660000F0660000F3
:10AD2000F4660000F8660000FC66000000670000A2
:10AD300004670000086700000C670000106700004F
:10AD400014670000186700001C67000020670000FF
:10AD500024670000286700002C67000030670000AF
:10AD600034670000386700003C670000406700005F
:10AD700044670000486700004C670000506700000F
:10AD800054670000586700005C67000060670000BF
:10AD900064670000686700006C670000706700006F
:10ADA00074670000786700007C670000806700001F
:10ADB00084670000886700008C67000090670000CF
:10ADC00094670000986700009C670000A06700007F
:10ADD000A4670000A8670000AC670000B06700002F
:10ADE000B4670000B8670000BC670000C0670000DF
:10ADF000C4670000C8670000CC670000D06700008F
:10AE0000D4670000D8670000DC670000E06700003E
:10AE1000E4670000E8670000EC670000F0670000EE
:10AE2000F4670000F8670000FC670000006800009D
:10AE300004680000086800000C680000106800004A
:10AE400014680000186800001C68000020680000FA
:10AE500024680000286800002C68000030680000AA
:10AE600034680000386800003C680000406800005A
:10AE700044680000486800004C680000506800000A
:10AE800054680000586800005C68000060680000BA
:10AE900064680000686800006C680000706800006A
:10AEA00074680000786800007C680000806800001A
:10AEB00084680000886800008C68000090680000CA
:10AEC00094680000986800009C680000A06800007A
:10AED000A4680000A8680000AC680000B06800002A
:10AEE000B4680000B8680000BC680000C0680000DA
:10AEF000C4680000C8680000CC680000D06800008A
:10AF0000D4680000D8680000DC680000E068000039
:10AF1000E4680000E8680000EC680000F0680000E9
:10AF2000F4680000F8680000FC6800000069000098
:10AF300004690000086900000C6900001069000045
:10AF400014690000186900001C69000020690000F5
:10AF500024690000286900002C69000030690000A5
:10AF600034690000386900003C6900004069000055
:10AF700044690000486900004C6900005069000005
:10AF800054690000586900005C69000060690000B5
:10AF900064690000686900006C6900007069000065
:10AFA00074690000786900007C6900008069000015
:10AFB00084690000886900008C69000090690000C5
:10AFC00094690000986900009C690000A069000075
:10AFD000A4690000A8690000AC690000B069000025
:10AFE000B4690000B8690000BC690000C0690000D5
:10AFF000C4690000C8690000CC690000D069000085
:10B00000D4690000D8690000DC690000E069000034
:10B01000E4690000E8690000EC690000F0690000E4
:10B02000F4690000F8690000FC690000006A000093
:10B03000046A0000086A00000C6A0000106A000040
:10B04000146A0000186A00001C6A0000206A0000F0
:10B05000246A0000286A00002C6A0000306A0000A0
:10B06000346A0000386A00003C6A0000406A000050
:10B07000446A0000486A00004C6A0000506A000000
:10B08000546A0000586A00005C6A0000606A0000B0
:10B09000646A0000686A00006C6A0000706A000060
:10B0A000746A0000786A00007C6A0000806A000010
:10B0B000846A0000886A00008C6A0000906A0000C0
:10B0C000946A0000986A00009C6A0000A06A000070
:10B0D000A46A0000A86A0000AC6A0000B06A000020
:10B0E000B46A0000B86A0000BC6A0000C06A0000D0
:10B0F000C46A0000C86A0000CC6A0000D06A000080
:10B10000D46A0000D86A0000DC6A0000E06A00002F
:10B11000E46A0000E86A0000EC6A0000F06A0000DF
:10B12000F46A0000F86A0000FC6A0000006B00008E
:10B13000046B0000086B00000C6B0000106B00003B
:10B14000146B0000186B00001C6B0000206B0000EB
:10B15000246B0000286B00002C6B0000306B00009B
:10B16000346B0000386B00003C6B0000406B00004B
:10B17000446B0000486B00004C6B0000506B0000FB
:10B18000546B0000586B00005C6B0000606B0000AB
:10B19000646B0000686B00006C6B0000706B00005B
:10B1A000746B0000786B00007C6B0000806B00000B
:10B1B000846B0000886B00008C6B0000906B0000BB
:10B1C000946B0000986B00009C6B0000A06B00006B
:10B1D000A46B0000A86B0000AC6B0000B06B00001B
:10B1E000B46B0000B86B0000BC6B0000C06B0000CB
:10B1F000C46B0000C86B0000CC6B0000D06B00007B
:10B20000D46B0000D86B0000DC6B0000E06B00002A
:10B21000E46B0000E86B0000EC6B0000F06B0000DA
:10B22000F46B0000F86B0000FC6B0000006C000089
:10B23000046C0000086C00000C6C0000106C000036
:10B24000146C0000186C00001C6C0000206C0000E6
:10B25000246C0000286C00002C6C0000306C000096
:10B26000346C0000386C00003C6C0000406C000046
:10B27000446C0000486C00004C6C0000506C0000F6
:10B28000546C0000586C00005C6C0000606C0000A6
:10B29000646C0000686C00006C6C0000706C000056
:10B2A000746C0000786C00007C6C0000806C000006
:10B2B000846C0000886C00008C6C0000906C0000B6
:10B2C000946C0000986C00009C6C0000A06C000066
:10B2D000A46C0000A86C0000AC6C0000B06C000016
:10B2E000B46C0000B86C0000BC6C0000C06C0000C6
:10B2F000C46C0000C86C0000CC6C0000D06C000076
:10B30000D46C0000D86C0000DC6C0000E06C000025
:10B31000E46C0000E86C0000EC6C0000F06C0000D5
:10B32000F46C0000F86C0000FC6C0000006D000084
:10B33000046D0000086D00000C6D0000106D000031
:10B34000146D0000186D00001C6D0000206D0000E1
:10B35000246D0000286D00002C6D0000306D000091
:10B36000346D0000386D00003C6D0000406D000041
:10B37000446D0000486D00004C6D0000506D0000F1
:10B38000546D0000586D00005C6D0000606D0000A1
:10B39000646D0000686D00006C6D0000706D000051
:10B3A000746D0000786D00007C6D0000806D000001
:10B3B000846D0000886D00008C6D0000906D0000B1
:10B3C000946D0000986D00009C6D0000A06D000061
:10B3D000A46D0000A86D0000AC6D0000B06D000011
:10B3E000B46D0000B86D0000BC6D0000C06D0000C1
:10B3F000C46D0000C86D0000CC6D0000D06D000071
:10B40000D46D0000D86D0000DC6D0000E06D000020
:10B41000E46D0000E86D0000EC6D0000F06D0000D0
:10B42000F46D0000F86D0000FC6D0000006E00007F
:10B43000046E0000086E00000C6E0000106E00002C
:10B44000146E0000186E00001C6E0000206E0000DC
:10B45000246E0000286E00002C6E0000306E00008C
:10B46000346E0000386E00003C6E0000406E00003C
:10B47000446E0000486E00004C6E0000506E0000EC
:10B48000546E0000586E00005C6E0000606E00009C
:10B49000646E0000686E00006C6E0000706E00004C
:10B4A000746E0000786E00007C6E0000806E0000FC
:10B4B000846E0000886E00008C6E0000906E0000AC
:10B4C000946E0000986E00009C6E0000A06E00005C
:10B4D000A46E0000A86E0000AC6E0000B06E00000C
:10B4E000B46E0000B86E0000BC6E0000C06E0000BC
:10B4F000C46E0000C86E0000CC6E0000D06E00006C
:10B50000D46E0000D86E0000DC6E0000E06E00001B
:10B51000E46E0000E86E0000EC6E0000F06E0000CB
:10B52000F46E0000F86E0000FC6E0000006F00007A
:10B53000046F0000086F00000C6F0000106F000027
:10B54000146F0000186F00001C6F0000206F0000D7
:10B55000246F0000286F00002C6F0000306F000087
:10B56000346F0000386F00003C6F0000406F000037
:10B57000446F0000486F00004C6F0000506F0000E7
:10B58000546F0000586F00005C6F0000606F000097
:10B59000646F0000686F00006C6F0000706F000047
:10B5A000746F0000786F00007C6F0000806F0000F7
:10B5B000846F0000886F00008C6F0000906F0000A7
:10B5C000946F0000986F00009C6F0000A06F000057
:10B5D000A46F0000A86F0000AC6F0000B06F000007
:10B5E000B46F0000B86F0000BC6F0000C06F0000B7
:10B5F000C46F0000C86F0000CC6F0000D06F000067
:10B60000D46F0000D86F0000DC6F0000E06F000016
:10B61000E46F0000E86F0000EC6F0000F06F0000C6
:10B62000F46F0000F86F0000FC6F00000070000075
:10B6300004700000087000000C7000001070000022
:10B6400014700000187000001C70000020700000D2
:10B6500024700000287000002C7000003070000082
:10B6600034700000387000003C7000004070000032
:10B6700044700000487000004C70000050700000E2
:10B6800054700000587000005C7000006070000092
:10B6900064700000687000006C7000007070000042
:10B6A00074700000787000007C70000080700000F2
:10B6B00084700000887000008C70000090700000A2
:10B6C00094700000987000009C700000A070000052
:10B6D000A4700000A8700000AC700000B070000002
:10B6E000B4700000B8700000BC700000C0700000B2
:10B6F000C4700000C8700000CC700000D070000062
:10B70000D4700000D8700000DC700000E070000011
:10B71000E4700000E8700000EC700000F0700000C1
:10B72000F4700000F8700000FC7000000071000070
:10B7300004710000087100000C710000107100001D
:10B7400014710000187100001C71000020710000CD
:10B7500024710000287100002C710000307100007D
:10B7600034710000387100003C710000407100002D
:10B7700044710000487100004C71000050710000DD
:10B7800054710000587100005C710000607100008D
:10B7900064710000687100006C710000707100003D
:10B7A00074710000787100007C71000080710000ED
:10B7B00084710000887100008C710000907100009D
:10B7C00094710000987100009C710000A07100004D
:10B7D000A4710000A8710000AC710000B0710000FD
:10B7E000B4710000B8710000BC710000C0710000AD
:10B7F000C4710000C8710000CC710000D07100005D
:10B80000D4710000D8710000DC710000E07100000C
:10B81000E4710000E8710000EC710000F0710000BC
:10B82000F4710000F8710000FC710000007200006B
:10B8300004720000087200000C7200001072000018
:10B8400014720000187200001C72000020720000C8
:10B8500024720000287200002C7200003072000078
:10B8600034720000387200003C7200004072000028
:10B8700044720000487200004C72000050720000D8
:10B8800054720000587200005C7200006072000088
:10B8900064720000687200006C7200007072000038
:10B8A00074720000787200007C72000080720000E8
:10B8B00084720000887200008C7200009072000098
:10B8C00094720000987200009C720000A072000048
:10B8D000A4720000A8720000AC720000B0720000F8
:10B8E000B4720000B8720000BC720000C0720000A8
:10B8F000C4720000C8720000CC720000D072000058
:10B90000D4720000D8720000DC720000E072000007
:10B91000E4720000E8720000EC720000F0720000B7
:10B92000F4720000F8720000FC7200000073000066
:10B9300004730000087300000C7300001073000013
:10B9400014730000187300001C73000020730000C3
:10B9500024730000287300002C7300003073000073
:10B9600034730000387300003C7300004073000023
:10B9700044730000487300004C73000050730000D3
:10B9800054730000587300005C7300006073000083
:10B9900064730000687300006C7300007073000033
:10B9A00074730000787300007C73000080730000E3
:10B9B00084730000887300008C7300009073000093
:10B9C00094730000987300009C730000A073000043
:10B9D000A4730000A8730000AC730000B0730000F3
:10B9E000B4730000B8730000BC730000C0730000A3
:10B9F000C4730000C8730000CC730000D073000053
:10BA0000D4730000D8730000DC730000E073000002
:10BA1000E4730000E8730000EC730000F0730000B2
:10BA2000F4730000F8730000FC7300000074000061
:10BA300004740000087400000C740000107400000E
:10BA400014740000187400001C74000020740000BE
:10BA500024740000287400002C740000307400006E
:10BA600034740000387400003C740000407400001E
:10BA700044740000487400004C74000050740000CE
:10BA800054740000587400005C740000607400007E
:10BA900064740000687400006C740000707400002E
:10BAA00074740000787400007C74000080740000DE
:10BAB00084740000887400008C740000907400008E
:10BAC00094740000987400009C740000A07400003E
:10BAD000A4740000A8740000AC740000B0740000EE
:10BAE000B4740000B8740000BC740000C07400009E
:10BAF000C4740000C8740000CC740000D07400004E
:10BB0000D4740000D8740000DC740000E0740000FD
:10BB1000E4740000E8740000EC740000F0740000AD
:10BB2000F4740000F8740000FC740000007500005C
:10BB300004750000087500000C7500001075000009
:10BB400014750000187500001C75000020750000B9
:10BB500024750000287500002C7500003075000069
:10BB600034750000387500003C7500004075000019
:10BB700044750000487500004C75000050750000C9
:10BB800054750000587500005C7500006075000079
:10BB900064750000687500006C7500007075000029
:10BBA00074750000787500007C75000080750000D9
:10BBB00084750000887500008C7500009075000089
:10BBC00094750000987500009C750000A075000039
:10BBD000A4750000A8750000AC750000B0750000E9
:10BBE000B4750000B8750000BC750000C075000099
:10BBF000C4750000C8750000CC750000D075000049
:10BC0000D4750000D8750000DC750000E0750000F8
:10BC1000E4750000E8750000EC750000F0750000A8
:10BC2000F4750000F8750000FC7500000076000057
:10BC300004760000087600000C7600001076000004
:10BC400014760000187600001C76000020760000B4
:10BC500024760000287600002C7600003076000064
:10BC600034760000387600003C7600004076000014
:10BC700044760000487600004C76000050760000C4
:10BC800054760000587600005C7600006076000074
:10BC900064760000687600006C7600007076000024
:10BCA00074760000787600007C76000080760000D4
:10BCB00084760000887600008C7600009076000084
:10BCC00094760000987600009C760000A076000034
:10BCD000A4760000A8760000AC760000B0760000E4
:10BCE000B4760000B8760000BC760000C076000094
:10BCF000C4760000C8760000CC760000D076000044
:10BD0000D4760000D8760000DC760000E0760000F3
:10BD1000E4760000E8760000EC760000F0760000A3
:10BD2000F4760000F8760000FC7600000077000052
:10BD300004770000087700000C77000010770000FF
:10BD400014770000187700001C77000020770000AF
:10BD500024770000287700002C770000307700005F
:10BD600034770000387700003C770000407700000F
:10BD700044770000487700004C77000050770000BF
:10BD800054770000587700005C770000607700006F
:10BD900064770000687700006C770000707700001F
:10BDA00074770000787700007C77000080770000CF
:10BDB00084770000887700008C770000907700007F
:10BDC00094770000987700009C770000A07700002F
:10BDD000A4770000A8770000AC770000B0770000DF
:10BDE000B4770000B8770000BC770000C07700008F
:10BDF000C4770000C8770000CC770000D07700003F
:10BE0000D4770000D8770000DC770000E0770000EE
:10BE1000E4770000E8770000EC770000F07700009E
:10BE2000F4770000F8770000FC770000007800004D
:10BE300004780000087800000C78000010780000FA
:10BE400014780000187800001C78000020780000AA
:10BE500024780000287800002C780000307800005A
:10BE600034780000387800003C780000407800000A
:10BE700044780000487800004C78000050780000BA
:10BE800054780000587800005C780000607800006A
:10BE900064780000687800006C780000707800001A
:10BEA00074780000787800007C78000080780000CA
:10BEB00084780000887800008C780000907800007A
:10BEC00094780000987800009C780000A07800002A
:10BED000A4780000A8780000AC780000B0780000DA
:10BEE000B4780000B8780000BC780000C07800008A
:10BEF000C4780000C8780000CC780000D07800003A
:10BF0000D4780000D8780000DC780000E0780000E9
:10BF1000E4780000E8780000EC780000F078000099
:10BF2000F4780000F8780000FC7800000079000048
:10BF300004790000087900000C79000010790000F5
:10BF400014790000187900001C79000020790000A5
:10BF500024790000287900002C7900003079000055
:10BF600034790000387900003C7900004079000005
:10BF700044790000487900004C79000050790000B5
:10BF800054790000587900005C7900006079000065
:10BF900064790000687900006C7900007079000015
:10BFA00074790000787900007C79000080790000C5
:10BFB00084790000887900008C7900009079000075
:10BFC00094790000987900009C790000A079000025
:10BFD000A4790000A8790000AC790000B0790000D5
:10BFE000B4790000B8790000BC790000C079000085
:10BFF000C4790000C8790000CC790000D079000035
:10C00000D4790000D8790000DC790000E0790000E4
:10C01000E4790000E8790000EC790000F079000094
:10C02000F4790000F8790000FC790000007A000043
:10C03000047A0000087A00000C7A0000107A0000F0
:10C04000147A0000187A00001C7A0000207A0000A0
:10C05000247A0000287A00002C7A0000307A000050
:10C06000347A0000387A00003C7A0000407A000000
:10C07000447A0000487A00004C7A0000507A0000B0
:10C08000547A0000587A00005C7A0000607A000060
:10C09000647A0000687A00006C7A0000707A000010
:10C0A000747A0000787A00007C7A0000807A0000C0
:10C0B000847A0000887A00008C7A0000907A000070
:10C0C000947A0000987A00009C7A0000A07A000020
:10C0D000A47A0000A87A0000AC7A0000B07A0000D0
:10C0E000B47A0000B87A0000BC7A0000C07A000080
:10C0F000C47A0000C87A0000CC7A0000D07A000030
:10C10000D47A0000D87A0000DC7A0000E07A0000DF
:10C11000E47A0000E87A0000EC7A0000F07A00008F
:10C12000F47A0000F87A0000FC7A0000007B00003E
:10C13000047B0000087B00000C7B0000107B0000EB
:10C14000147B0000187B00001C7B0000207B00009B
:10C15000247B0000287B00002C7B0000307B00004B
:10C16000347B0000387B00003C7B0000407B0000FB
:10C17000447B0000487B00004C7B0000507B0000AB
:10C18000547B0000587B00005C7B0000607B00005B
:10C19000647B0000687B00006C7B0000707B00000B
:10C1A000747B0000787B00007C7B0000807B0000BB
:10C1B000847B0000887B00008C7B0000907B00006B
:10C1C000947B0000987B00009C7B0000A07B00001B
:10C1D000A47B0000A87B0000AC7B0000B07B0000CB
:10C1E000B47B0000B87B0000BC7B0000C07B00007B
:10C1F000C47B0000C87B0000CC7B0000D07B00002B
:10C20000D47B0000D87B0000DC7B0000E07B0000DA
:10C21000E47B0000E87B0000EC7B0000F07B00008A
:10C22000F47B0000F87B0000FC7B0000007C000039
:10C23000047C0000087C00000C7C0000107C0000E6
:10C24000147C0000187C00001C7C0000207C000096
:10C25000247C0000287C00002C7C0000307C000046
:10C26000347C0000387C00003C7C0000407C0000F6
:10C27000447C0000487C00004C7C0000507C0000A6
:10C28000547C0000587C00005C7C0000607C000056
:10C29000647C0000687C00006C7C0000707C000006
:10C2A000747C0000787C00007C7C0000807C0000B6
:10C2B000847C0000887C00008C7C0000907C000066
:10C2C000947C0000987C00009C7C0000A07C000016
:10C2D000A47C0000A87C0000AC7C0000B07C0000C6
:10C2E000B47C0000B87C0000BC7C0000C07C000076
:10C2F000C47C0000C87C0000CC7C0000D07C000026
:10C30000D47C0000D87C0000DC7C0000E07C0000D5
:10C31000E47C0000E87C0000EC7C0000F07C000085
:10C32000F47C0000F87C0000FC7C0000007D000034
:10C33000047D0000087D00000C7D0000107D0000E1
:10C34000147D0000187D00001C7D0000207D000091
:10C35000247D0000287D00002C7D0000307D000041
:10C36000347D0000387D00003C7D0000407D0000F1
:10C37000447D0000487D00004C7D0000507D0000A1
:10C38000547D0000587D00005C7D0000607D000051
:10C39000647D0000687D00006C7D0000707D000001
:10C3A000747D0000787D00007C7D0000807D0000B1
:10C3B000847D0000887D00008C7D0000907D000061
:10C3C000947D0000987D00009C7D0000A07D000011
:10C3D000A47D0000A87D0000AC7D0000B07D0000C1
:10C3E000B47D0000B87D0000BC7D0000C07D000071
:10C3F000C47D0000C87D0000CC7D0000D07D000021
:10C40000D47D0000D87D0000DC7D0000E07D0000D0
:10C41000E47D0000E87D0000EC7D0000F07D000080
:10C42000F47D0000F87D0000FC7D0000007E00002F
:10C43000047E0000087E00000C7E0000107E0000DC
:10C44000147E0000187E00001C7E0000207E00008C
:10C45000247E0000287E00002C7E0000307E00003C
:10C46000347E0000387E00003C7E0000407E0000EC
:10C47000447E0000487E00004C7E0000507E00009C
:10C48000547E0000587E00005C7E0000607E00004C
:10C49000647E0000687E00006C7E0000707E0000FC
:10C4A000747E0000787E00007C7E0000807E0000AC
:10C4B000847E0000887E00008C7E0000907E00005C
:10C4C000947E0000987E00009C7E0000A07E00000C
:10C4D000A47E0000A87E0000AC7E0000B07E0000BC
:10C4E000B47E0000B87E0000BC7E0000C07E00006C
:10C4F000C47E0000C87E0000CC7E0000D07E00001C
:10C50000D47E0000D87E0000DC7E0000E07E0000CB
:10C51000E47E0000E87E0000EC7E0000F07E00007B
:10C52000F47E0000F87E0000FC7E0000007F00002A
:10C53000047F0000087F00000C7F0000107F0000D7
:10C54000147F0000187F00001C7F0000207F000087
:10C55000247F0000287F00002C7F0000307F000037
:10C56000347F0000387F00003C7F0000407F0000E7
:10C57000447F0000487F00004C7F0000507F000097
:10C58000547F0000587F00005C7F0000607F000047
:10C59000647F0000687F00006C7F0000707F0000F7
:10C5A000747F0000787F00007C7F0000807F0000A7
:10C5B000847F0000887F00008C7F0000907F000057
:10C5C000947F0000987F00009C7F0000A07F000007
:10C5D000A47F0000A87F0000AC7F0000B07F0000B7
:10C5E000B47F0000B87F0000BC7F0000C07F000067
:10C5F000C47F0000C87F0000CC7F0000D07F000017
:10C60000D47F0000D87F0000DC7F0000E07F0000C6
:10C61000E47F0000E87F0000EC7F0000F07F000076
:10C62000F47F0000F87F0000FC7F00000080000025
:10C6300004800000088000000C80000010800000D2
:10C6400014800000188000001C8000002080000082
:10C6500024800000288000002C8000003080000032
:10C6600034800000388000003C80000040800000E2
:10C6700044800000488000004C8000005080000092
:10C6800054800000588000005C8000006080000042
:10C6900064800000688000006C80000070800000F2
:10C6A00074800000788000007C80000080800000A2
:10C6B00084800000888000008C8000009080000052
:10C6C00094800000988000009C800000A080000002
:10C6D000A4800000A8800000AC800000B0800000B2
:10C6E000B4800000B8800000BC800000C080000062
:10C6F000C4800000C8800000CC800000D080000012
:10C70000D4800000D8800000DC800000E0800000C1
:10C71000E4800000E8800000EC800000F080000071
:10C72000F4800000F8800000FC8000000081000020
:10C7300004810000088100000C81000010810000CD
:10C7400014810000188100001C810000208100007D
:10C7500024810000288100002C810000308100002D
:10C7600034810000388100003C81000040810000DD
:10C7700044810000488100004C810000508100008D
:10C7800054810000588100005C810000608100003D
:10C7900064810000688100006C81000070810000ED
:10C7A00074810000788100007C810000808100009D
:10C7B00084810000888100008C810000908100004D
:10C7C00094810000988100009C810000A0810000FD
:10C7D000A4810000A8810000AC810000B0810000AD
:10C7E000B4810000B8810000BC810000C08100005D
:10C7F000C4810000C8810000CC810000D08100000D
:10C80000D4810000D8810000DC810000E0810000BC
:10C81000E4810000E8810000EC810000F08100006C
:10C82000F4810000F8810000FC810000008200001B
:10C8300004820000088200000C82000010820000C8
:10C8400014820000188200001C8200002082000078
:10C8500024820000288200002C8200003082000028
:10C8600034820000388200003C82000040820000D8
:10C8700044820000488200004C8200005082000088
:10C8800054820000588200005C8200006082000038
:10C8900064820000688200006C82000070820000E8
:10C8A00074820000788200007C8200008082000098
:10C8B00084820000888200008C8200009082000048
:10C8C00094820000988200009C820000A0820000F8
:10C8D000A4820000A8820000AC820000B0820000A8
:10C8E000B4820000B8820000BC820000C082000058
:10C8F000C4820000C8820000CC820000D082000008
:10C90000D4820000D8820000DC820000E0820000B7
:10C91000E4820000E8820000EC820000F082000067
:10C92000F4820000F8820000FC8200000083000016
:10C9300004830000088300000C83000010830000C3
:10C9400014830000188300001C8300002083000073
:10C9500024830000288300002C8300003083000023
:10C9600034830000388300003C83000040830000D3
:10C9700044830000488300004C8300005083000083
:10C9800054830000588300005C8300006083000033
:10C9900064830000688300006C83000070830000E3
:10C9A00074830000788300007C8300008083000093
:10C9B00084830000888300008C8300009083000043
:10C9C00094830000988300009C830000A0830000F3
:10C9D000A4830000A8830000AC830000B0830000A3
:10C9E000B4830000B8830000BC830000C083000053
:10C9F000C4830000C8830000CC830000D083000003
:10CA0000D4830000D8830000DC830000E0830000B2
:10CA1000E4830000E8830000EC830000F083000062
:10CA2000F4830000F8830000FC8300000084000011
:10CA300004840000088400000C84000010840000BE
:10CA400014840000188400001C840000208400006E
:10CA500024840000288400002C840000308400001E
:10CA600034840000388400003C84000040840000CE
:10CA700044840000488400004C840000508400007E
:10CA800054840000588400005C840000608400002E
:10CA900064840000688400006C84000070840000DE
:10CAA00074840000788400007C840000808400008E
:10CAB00084840000888400008C840000908400003E
:10CAC00094840000988400009C840000A0840000EE
:10CAD000A4840000A8840000AC840000B08400009E
:10CAE000B4840000B8840000BC840000C08400004E
:10CAF000C4840000C8840000CC840000D0840000FE
:10CB0000D4840000D8840000DC840000E0840000AD
:10CB1000E4840000E8840000EC840000F08400005D
:10CB2000F4840000F8840000FC840000008500000C
:10CB300004850000088500000C85000010850000B9
:10CB400014850000188500001C8500002085000069
:10CB500024850000288500002C8500003085000019
:10CB600034850000388500003C85000040850000C9
:10CB700044850000488500004C8500005085000079
:10CB800054850000588500005C8500006085000029
:10CB900064850000688500006C85000070850000D9
:10CBA00074850000788500007C8500008085000089
:10CBB00084850000888500008C8500009085000039
:10CBC00094850000988500009C850000A0850000E9
:10CBD000A4850000A8850000AC850000B085000099
:10CBE000B4850000B8850000BC850000C085000049
:10CBF000C4850000C8850000CC850000D0850000F9
:10CC0000D4850000D8850000DC850000E0850000A8
:10CC1000E4850000E8850000EC850000F085000058
:10CC2000F4850000F8850000FC8500000086000007
:10CC300004860000088600000C86000010860000B4
:10CC400014860000188600001C8600002086000064
:10CC500024860000288600002C8600003086000014
:10CC600034860000388600003C86000040860000C4
:10CC700044860000488600004C8600005086000074
:10CC800054860000588600005C8600006086000024
:10CC900064860000688600006C86000070860000D4
:10CCA00074860000788600007C8600008086000084
:10CCB00084860000888600008C8600009086000034
:10CCC00094860000988600009C860000A0860000E4
:10CCD000A4860000A8860000AC860000B086000094
:10CCE000B4860000B8860000BC860000C086000044
:10CCF000C4860000C8860000CC860000D0860000F4
:10CD0000D4860000D8860000DC860000E0860000A3
:10CD1000E4860000E8860000EC860000F086000053
:10CD2000F4860000F8860000FC8600000087000002
:10CD300004870000088700000C87000010870000AF
:10CD400014870000188700001C870000208700005F
:10CD500024870000288700002C870000308700000F
:10CD600034870000388700003C87000040870000BF
:10CD700044870000488700004C870000508700006F
:10CD800054870000588700005C870000608700001F
:10CD900064870000688700006C87000070870000CF
:10CDA00074870000788700007C870000808700007F
:10CDB00084870000888700008C870000908700002F
:10CDC00094870000988700009C870000A0870000DF
:10CDD000A4870000A8870000AC870000B08700008F
:10CDE000B4870000B8870000BC870000C08700003F
:10CDF000C4870000C8870000CC870000D0870000EF
:10CE0000D4870000D8870000DC870000E08700009E
:10CE1000E4870000E8870000EC870000F08700004E
:10CE2000F4870000F8870000FC87000000880000FD
:10CE300004880000088800000C88000010880000AA
:10CE400014880000188800001C880000208800005A
:10CE500024880000288800002C880000308800000A
:10CE600034880000388800003C88000040880000BA
:10CE700044880000488800004C880000508800006A
:10CE800054880000588800005C880000608800001A
:10CE900064880000688800006C88000070880000CA
:10CEA00074880000788800007C880000808800007A
:10CEB00084880000888800008C880000908800002A
:10CEC00094880000988800009C880000A0880000DA
:10CED000A4880000A8880000AC880000B08800008A
:10CEE000B4880000B8880000BC880000C08800003A
:10CEF000C4880000C8880000CC880000D0880000EA
:10CF0000D4880000D8880000DC880000E088000099
:10CF1000E4880000E8880000EC880000F088000049
:10CF2000F4880000F8880000FC88000000890000F8
:10CF300004890000088900000C89000010890000A5
:10CF400014890000188900001C8900002089000055
:10CF500024890000288900002C8900003089000005
:10CF600034890000388900003C89000040890000B5
:10CF700044890000488900004C8900005089000065
:10CF800054890000588900005C8900006089000015
:10CF900064890000688900006C89000070890000C5
:10CFA00074890000788900007C8900008089000075
:10CFB00084890000888900008C8900009089000025
:10CFC00094890000988900009C890000A0890000D5
:10CFD000A4890000A8890000AC890000B089000085
:10CFE000B4890000B8890000BC890000C089000035
:10CFF000C4890000C8890000CC890000D0890000E5
:10D00000D4890000D8890000DC890000E089000094
:10D01000E4890000E8890000EC890000F089000044
:10D02000F4890000F8890000FC890000008A0000F3
:10D03000048A0000088A00000C8A0000108A0000A0
:10D04000148A0000188A00001C8A0000208A000050
:10D05000248A0000288A00002C8A0000308A000000
:10D06000348A0000388A00003C8A0000408A0000B0
:10D07000448A0000488A00004C8A0000508A000060
:10D08000548A0000588A00005C8A0000608A000010
:10D09000648A0000688A00006C8A0000708A0000C0
:10D0A000748A0000788A00007C8A0000808A000070
:10D0B000848A0000888A00008C8A0000908A000020
:10D0C000948A0000988A00009C8A0000A08A0000D0
:10D0D000A48A0000A88A0000AC8A0000B08A000080
:10D0E000B48A0000B88A0000BC8A0000C08A000030
:10D0F000C48A0000C88A0000CC8A0000D08A0000E0
:10D10000D48A0000D88A0000DC8A0000E08A00008F
:10D11000E48A0000E88A0000EC8A0000F08A00003F
:10D12000F48A0000F88A0000FC8A0000008B0000EE
:10D13000048B0000088B00000C8B0000108B00009B
:10D14000148B0000188B00001C8B0000208B00004B
:10D15000248B0000288B00002C8B0000308B0000FB
:10D16000348B0000388B00003C8B0000408B0000AB
:10D17000448B0000488B00004C8B0000508B00005B
:10D18000548B0000588B00005C8B0000608B00000B
:10D19000648B0000688B00006C8B0000708B0000BB
:10D1A000748B0000788B00007C8B0000808B00006B
:10D1B000848B0000888B00008C8B0000908B00001B
:10D1C000948B0000988B00009C8B0000A08B0000CB
:10D1D000A48B0000A88B0000AC8B0000B08B00007B
:10D1E000B48B0000B88B0000BC8B0000C08B00002B
:10D1F000C48B0000C88B0000CC8B0000D08B0000DB
:10D20000D48B0000D88B0000DC8B0000E08B00008A
:10D21000E48B0000E88B0000EC8B0000F08B00003A
:10D22000F48B0000F88B0000FC8B0000008C0000E9
:10D23000048C0000088C00000C8C0000108C000096
:10D24000148C0000188C00001C8C0000208C000046
:10D25000248C0000288C00002C8C0000308C0000F6
:10D26000348C0000388C00003C8C0000408C0000A6
:10D27000448C0000488C00004C8C0000508C000056
:10D28000548C0000588C00005C8C0000608C000006
:10D29000648C0000688C00006C8C0000708C0000B6
:10D2A000748C0000788C00007C8C0000808C000066
:10D2B000848C0000888C00008C8C0000908C000016
:10D2C000948C0000988C00009C8C0000A08C0000C6
:10D2D000A48C0000A88C0000AC8C0000B08C000076
:10D2E000B48C0000B88C0000BC8C0000C08C000026
:10D2F000C48C0000C88C0000CC8C0000D08C0000D6
:10D30000D48C0000D88C0000DC8C0000E08C000085
:10D31000E48C0000E88C0000EC8C0000F08C000035
:10D32000F48C0000F88C0000FC8C0000008D0000E4
:10D33000048D0000088D00000C8D0000108D000091
:10D34000148D0000188D00001C8D0000208D000041
:10D35000248D0000288D00002C8D0000308D0000F1
:10D36000348D0000388D00003C8D0000408D0000A1
:10D37000448D0000488D00004C8D0000508D000051
:10D38000548D0000588D00005C8D0000608D000001
:10D39000648D0000688D00006C8D0000708D0000B1
:10D3A000748D0000788D00007C8D0000808D000061
:10D3B000848D0000888D00008C8D0000908D000011
:10D3C000948D0000988D00009C8D0000A08D0000C1
:10D3D000A48D0000A88D0000AC8D0000B08D000071
:10D3E000B48D0000B88D0000BC8D0000C08D000021
:10D3F000C48D0000C88D0000CC8D0000D08D0000D1
:10D40000D48D0000D88D0000DC8D0000E08D000080
:10D41000E48D0000E88D0000EC8D0000F08D000030
:10D42000F48D0000F88D0000FC8D0000008E0000DF
:10D43000048E0000088E00000C8E0000108E00008C
:10D44000148E0000188E00001C8E0000208E00003C
:10D45000248E0000288E00002C8E0000308E0000EC
:10D46000348E0000388E00003C8E0000408E00009C
:10D47000448E0000488E00004C8E0000508E00004C
:10D48000548E0000588E00005C8E0000608E0000FC
:10D49000648E0000688E00006C8E0000708E0000AC
:10D4A000748E0000788E00007C8E0000808E00005C
:10D4B000848E0000888E00008C8E0000908E00000C
:10D4C000948E0000988E00009C8E0000A08E0000BC
:10D4D000A48E0000A88E0000AC8E0000B08E00006C
:10D4E000B48E0000B88E0000BC8E0000C08E00001C
:10D4F000C48E0000C88E0000CC8E0000D08E0000CC
:10D50000D48E0000D88E0000DC8E0000E08E00007B
:10D51000E48E0000E88E0000EC8E0000F08E00002B
:10D52000F48E0000F88E0000FC8E0000008F0000DA
:10D53000048F0000088F00000C8F0000108F000087
:10D54000148F0000188F00001C8F0000208F000037
:10D55000248F0000288F00002C8F0000308F0000E7
:10D56000348F0000388F00003C8F0000408F000097
:10D57000448F0000488F00004C8F0000508F000047
:10D58000548F0000588F00005C8F0000608F0000F7
:10D59000648F0000688F00006C8F0000708F0000A7
:10D5A000748F0000788F00007C8F0000808F000057
:10D5B000848F0000888F00008C8F0000908F000007
:10D5C000948F0000988F00009C8F0000A08F0000B7
:10D5D000A48F0000A88F0000AC8F0000B08F000067
:10D5E000B48F0000B88F0000BC8F0000C08F000017
:10D5F000C48F0000C88F0000CC8F0000D08F0000C7
:10D60000D48F0000D88F0000DC8F0000E08F000076
:10D61000E48F0000E88F0000EC8F0000F08F000026
:10D62000F48F0000F88F0000FC8F000000900000D5
:10D6300004900000089000000C9000001090000082
:10D6400014900000189000001C9000002090000032
:10D6500024900000289000002C90000030900000E2
:10D6600034900000389000003C9000004090000092
:10D6700044900000489000004C9000005090000042
:10D6800054900000589000005C90000060900000F2
:10D6900064900000689000006C90000070900000A2
:10D6A00074900000789000007C9000008090000052
:10D6B00084900000889000008C9000009090000002
:10D6C00094900000989000009C900000A0900000B2
:10D6D000A4900000A8900000AC900000B090000062
:10D6E000B4900000B8900000BC900000C090000012
:10D6F000C4900000C8900000CC900000D0900000C2
:10D70000D4900000D8900000DC900000E090000071
:10D71000E4900000E8900000EC900000F090000021
:10D72000F4900000F8900000FC90000000910000D0
:10D7300004910000089100000C910000109100007D
:10D7400014910000189100001C910000209100002D
:10D7500024910000289100002C91000030910000DD
:10D7600034910000389100003C910000409100008D
:10D7700044910000489100004C910000509100003D
:10D7800054910000589100005C91000060910000ED
:10D7900064910000689100006C910000709100009D
:10D7A00074910000789100007C910000809100004D
:10D7B00084910000889100008C91000090910000FD
:10D7C00094910000989100009C910000A0910000AD
:10D7D000A4910000A8910000AC910000B09100005D
:10D7E000B4910000B8910000BC910000C09100000D
:10D7F000C4910000C8910000CC910000D0910000BD
:10D80000D4910000D8910000DC910000E09100006C
:10D81000E4910000E8910000EC910000F09100001C
:10D82000F4910000F8910000FC91000000920000CB
:10D8300004920000089200000C9200001092000078
:10D8400014920000189200001C9200002092000028
:10D8500024920000289200002C92000030920000D8
:10D8600034920000389200003C9200004092000088
:10D8700044920000489200004C9200005092000038
:10D8800054920000589200005C92000060920000E8
:10D8900064920000689200006C9200007092000098
:10D8A00074920000789200007C9200008092000048
:10D8B00084920000889200008C92000090920000F8
:10D8C00094920000989200009C920000A0920000A8
:10D8D000A4920000A8920000AC920000B092000058
:10D8E000B4920000B8920000BC920000C092000008
:10D8F000C4920000C8920000CC920000D0920000B8
:10D90000D4920000D8920000DC920000E092000067
:10D91000E4920000E8920000EC920000F092000017
:10D92000F4920000F8920000FC92000000930000C6
:10D9300004930000089300000C9300001093000073
:10D9400014930000189300001C9300002093000023
:10D9500024930000289300002C93000030930000D3
:10D9600034930000389300003C9300004093000083
:10D9700044930000489300004C9300005093000033
:10D9800054930000589300005C93000060930000E3
:10D9900064930000689300006C9300007093000093
:10D9A00074930000789300007C9300008093000043
:10D9B00084930000889300008C93000090930000F3
:10D9C00094930000989300009C930000A0930000A3
:10D9D000A4930000A8930000AC930000B093000053
:10D9E000B4930000B8930000BC930000C093000003
:10D9F000C4930000C8930000CC930000D0930000B3
:10DA0000D4930000D8930000DC930000E093000062
:10DA1000E4930000E8930000EC930000F093000012
:10DA2000F4930000F8930000FC93000000940000C1
:10DA300004940000089400000C940000109400006E
:10DA400014940000189400001C940000209400001E
:10DA500024940000289400002C94000030940000CE
:10DA600034940000389400003C940000409400007E
:10DA700044940000489400004C940000509400002E
:10DA800054940000589400005C94000060940000DE
:10DA900064940000689400006C940000709400008E
:10DAA00074940000789400007C940000809400003E
:10DAB00084940000889400008C94000090940000EE
:10DAC00094940000989400009C940000A09400009E
:10DAD000A4940000A8940000AC940000B09400004E
:10DAE000B4940000B8940000BC940000C0940000FE
:10DAF000C4940000C8940000CC940000D0940000AE
:10DB0000D4940000D8940000DC940000E09400005D
:10DB1000E4940000E8940000EC940000F09400000D
:10DB2000F4940000F8940000FC94000000950000BC
:10DB300004950000089500000C9500001095000069
:10DB400014950000189500001C9500002095000019
:10DB500024950000289500002C95000030950000C9
:10DB600034950000389500003C9500004095000079
:10DB700044950000489500004C9500005095000029
:10DB800054950000589500005C95000060950000D9
:10DB900064950000689500006C9500007095000089
:10DBA00074950000789500007C9500008095000039
:10DBB00084950000889500008C95000090950000E9
:10DBC00094950000989500009C950000A095000099
:10DBD000A4950000A8950000AC950000B095000049
:10DBE000B4950000B8950000BC950000C0950000F9
:10DBF000C4950000C8950000CC950000D0950000A9
:10DC0000D4950000D8950000DC950000E095000058
:10DC1000E4950000E8950000EC950000F095000008
:10DC2000F4950000F8950000FC95000000960000B7
:10DC300004960000089600000C9600001096000064
:10DC400014960000189600001C9600002096000014
:10DC500024960000289600002C96000030960000C4
:10DC600034960000389600003C9600004096000074
:10DC700044960000489600004C9600005096000024
:10DC800054960000589600005C96000060960000D4
:10DC900064960000689600006C9600007096000084
:10DCA00074960000789600007C9600008096000034
:10DCB00084960000889600008C96000090960000E4
:10DCC00094960000989600009C960000A096000094
:10DCD000A4960000A8960000AC960000B096000044
:10DCE000B4960000B8960000BC960000C0960000F4
:10DCF000C4960000C8960000CC960000D0960000A4
:10DD0000D4960000D8960000DC960000E096000053
:10DD1000E4960000E8960000EC960000F096000003
:10DD2000F4960000F8960000FC96000000970000B2
:10DD300004970000089700000C970000109700005F
:10DD400014970000189700001C970000209700000F
:10DD500024970000289700002C97000030970000BF
:10DD600034970000389700003C970000409700006F
:10DD700044970000489700004C970000509700001F
:10DD800054970000589700005C97000060970000CF
:10DD900064970000689700006C970000709700007F
:10DDA00074970000789700007C970000809700002F
:10DDB00084970000889700008C97000090970000DF
:10DDC00094970000989700009C970000A09700008F
:10DDD000A4970000A8970000AC970000B09700003F
:10DDE000B4970000B8970000BC970000C0970000EF
:10DDF000C4970000C8970000CC970000D09700009F
:10DE0000D4970000D8970000DC970000E09700004E
:10DE1000E4970000E8970000EC970000F0970000FE
:10DE2000F4970000F8970000FC97000000980000AD
:10DE300004980000089800000C980000109800005A
:10DE400014980000189800001C980000209800000A
:10DE500024980000289800002C98000030980000BA
:10DE600034980000389800003C980000409800006A
:10DE700044980000489800004C980000509800001A
:10DE800054980000589800005C98000060980000CA
:10DE900064980000689800006C980000709800007A
:10DEA00074980000789800007C980000809800002A
:10DEB00084980000889800008C98000090980000DA
:10DEC00094980000989800009C980000A09800008A
:10DED000A4980000A8980000AC980000B09800003A
:10DEE000B4980000B8980000BC980000C0980000EA
:10DEF000C4980000C8980000CC980000D09800009A
:10DF0000D4980000D8980000DC980000E098000049
:10DF1000E4980000E8980000EC980000F0980000F9
:10DF2000F4980000F8980000FC98000000990000A8
:10DF300004990000089900000C9900001099000055
:10DF400014990000189900001C9900002099000005
:10DF500024990000289900002C99000030990000B5
:10DF600034990000389900003C9900004099000065
:10DF700044990000489900004C9900005099000015
:10DF800054990000589900005C99000060990000C5
:10DF900064990000689900006C9900007099000075
:10DFA00074990000789900007C9900008099000025
:10DFB00084990000889900008C99000090990000D5
:10DFC00094990000989900009C990000A099000085
:10DFD000A4990000A8990000AC990000B099000035
:10DFE000B4990000B8990000BC990000C0990000E5
:10DFF000C4990000C8990000CC990000D099000095
:10E00000D4990000D8990000DC990000E099000044
:10E01000E4990000E8990000EC990000F0990000F4
:10E02000F4990000F8990000FC990000009A0000A3
:10E03000049A0000089A00000C9A0000109A000050
:10E04000149A0000189A00001C9A0000209A000000
:10E05000249A0000289A00002C9A0000309A0000B0
:10E06000349A0000389A00003C9A0000409A000060
:10E07000449A0000489A00004C9A0000509A000010
:10E08000549A0000589A00005C9A0000609A0000C0
:10E09000649A0000689A00006C9A0000709A000070
:10E0A000749A0000789A00007C9A0000809A000020
:10E0B000849A0000889A00008C9A0000909A0000D0
:10E0C000949A0000989A00009C9A0000A09A000080
:10E0D000A49A0000A89A0000AC9A0000B09A000030
:10E0E000B49A0000B89A0000BC9A0000C09A0000E0
:10E0F000C49A0000C89A0000CC9A0000D09A000090
:10E10000D49A0000D89A0000DC9A0000E09A00003F
:10E11000E49A0000E89A0000EC9A0000F09A0000EF
:10E12000F49A0000F89A0000FC9A0000009B00009E
:10E13000049B0000089B00000C9B0000109B00004B
:10E14000149B0000189B00001C9B0000209B0000FB
:10E15000249B0000289B00002C9B0000309B0000AB
:10E16000349B0000389B00003C9B0000409B00005B
:10E17000449B0000489B00004C9B0000509B00000B
:10E18000549B0000589B00005C9B0000609B0000BB
:10E19000649B0000689B00006C9B0000709B00006B
:10E1A000749B0000789B00007C9B0000809B00001B
:10E1B000849B0000889B00008C9B0000909B0000CB
:10E1C000949B0000989B00009C9B0000A09B00007B
:10E1D000A49B0000A89B0000AC9B0000B09B00002B
:10E1E000B49B0000B89B0000BC9B0000C09B0000DB
:10E1F000C49B0000C89B0000CC9B0000D09B00008B
:10E20000D49B0000D89B0000DC9B0000E09B00003A
:10E21000E49B0000E89B0000EC9B0000F09B0000EA
:10E22000F49B0000F89B0000FC9B0000009C000099
:10E23000049C0000089C00000C9C0000109C000046
:10E24000149C0000189C00001C9C0000209C0000F6
:10E25000249C0000289C00002C9C0000309C0000A6
:10E26000349C0000389C00003C9C0000409C000056
:10E27000449C0000489C00004C9C0000509C000006
:10E28000549C0000589C00005C9C0000609C0000B6
:10E29000649C0000689C00006C9C0000709C000066
:10E2A000749C0000789C00007C9C0000809C000016
:10E2B000849C0000889C00008C9C0000909C0000C6
:10E2C000949C0000989C00009C9C0000A09C000076
:10E2D000A49C0000A89C0000AC9C0000B09C000026
:10E2E000B49C0000B89C0000BC9C0000C09C0000D6
:10E2F000C49C0000C89C0000CC9C0000D09C000086
:10E30000D49C0000D89C0000DC9C0000E09C000035
:10E31000E49C0000E89C0000EC9C0000F09C0000E5
:10E32000F49C0000F89C0000FC9C0000009D000094
:10E33000049D0000089D00000C9D0000109D000041
:10E34000149D0000189D00001C9D0000209D0000F1
:10E35000249D0000289D00002C9D0000309D0000A1
:10E36000349D0000389D00003C9D0000409D000051
:10E37000449D0000489D00004C9D0000509D000001
:10E38000549D0000589D00005C9D0000609D0000B1
:10E39000649D0000689D00006C9D0000709D000061
:10E3A000749D0000789D00007C9D0000809D000011
:10E3B000849D0000889D00008C9D0000909D0000C1
:10E3C000949D0000989D00009C9D0000A09D000071
:10E3D000A49D0000A89D0000AC9D0000B09D000021
:10E3E000B49D0000B89D0000BC9D0000C09D0000D1
:10E3F000C49D0000C89D0000CC9D0000D09D000081
:10E40000D49D0000D89D0000DC9D0000E09D000030
:10E41000E49D0000E89D0000EC9D0000F09D0000E0
:10E42000F49D0000F89D0000FC9D0000009E00008F
:10E43000049E0000089E00000C9E0000109E00003C
:10E44000149E0000189E00001C9E0000209E0000EC
:10E45000249E0000289E00002C9E0000309E00009C
:10E46000349E0000389E00003C9E0000409E00004C
:10E47000449E0000489E00004C9E0000509E0000FC
:10E48000549E0000589E00005C9E0000609E0000AC
:10E49000649E0000689E00006C9E0000709E00005C
:10E4A000749E0000789E00007C9E0000809E00000C
:10E4B000849E0000889E00008C9E0000909E0000BC
:10E4C000949E0000989E00009C9E0000A09E00006C
:10E4D000A49E0000A89E0000AC9E0000B09E00001C
:10E4E000B49E0000B89E0000BC9E0000C09E0000CC
:10E4F000C49E0000C89E0000CC9E0000D09E00007C
:10E50000D49E0000D89E0000DC9E0000E09E00002B
:10E51000E49E0000E89E0000EC9E0000F09E0000DB
:10E52000F49E0000F89E0000FC9E0000009F00008A
:10E53000049F0000089F00000C9F0000109F000037
:10E54000149F0000189F00001C9F0000209F0000E7
:10E55000249F0000289F00002C9F0000309F000097
:10E56000349F0000389F00003C9F0000409F000047
:10E57000449F0000489F00004C9F0000509F0000F7
:10E58000549F0000589F00005C9F0000609F0000A7
:10E59000649F0000689F00006C9F0000709F000057
:10E5A000749F0000789F00007C9F0000809F000007
:10E5B000849F0000889F00008C9F0000909F0000B7
:10E5C000949F0000989F00009C9F0000A09F000067
:10E5D000A49F0000A89F0000AC9F0000B09F000017
:10E5E000B49F0000B89F0000BC9F0000C09F0000C7
:10E5F000C49F0000C89F0000CC9F0000D09F000077
:10E60000D49F0000D89F0000DC9F0000E09F000026
:10E61000E49F0000E89F0000EC9F0000F09F0000D6
:10E62000F49F0000F89F0000FC9F000000A0000085
:10E6300004A0000008A000000CA0000010A0000032
:10E6400014A0000018A000001CA0000020A00000E2
:10E6500024A0000028A000002CA0000030A0000092
:10E6600034A0000038A000003CA0000040A0000042
:10E6700044A0000048A000004CA0000050A00000F2
:10E6800054A0000058A000005CA0000060A00000A2
:10E6900064A0000068A000006CA0000070A0000052
:10E6A00074A0000078A000007CA0000080A0000002
:10E6B00084A0000088A000008CA0000090A00000B2
:10E6C00094A0000098A000009CA00000A0A0000062
:10E6D000A4A00000A8A00000ACA00000B0A0000012
:10E6E000B4A00000B8A00000BCA00000C0A00000C2
:10E6F000C4A00000C8A00000CCA00000D0A0000072
:10E70000D4A00000D8A00000DCA00000E0A0000021
:10E71000E4A00000E8A00000ECA00000F0A00000D1
:10E72000F4A00000F8A00000FCA0000000A1000080
:10E7300004A1000008A100000CA1000010A100002D
:10E7400014A1000018A100001CA1000020A10000DD
:10E7500024A1000028A100002CA1000030A100008D
:10E7600034A1000038A100003CA1000040A100003D
:10E7700044A1000048A100004CA1000050A10000ED
:10E7800054A1000058A100005CA1000060A100009D
:10E7900064A1000068A100006CA1000070A100004D
:10E7A00074A1000078A100007CA1000080A10000FD
:10E7B00084A1000088A100008CA1000090A10000AD
:10E7C00094A1000098A100009CA10000A0A100005D
:10E7D000A4A10000A8A10000ACA10000B0A100000D
:10E7E000B4A10000B8A10000BCA10000C0A10000BD
:10E7F000C4A10000C8A10000CCA10000D0A100006D
:10E80000D4A10000D8A10000DCA10000E0A100001C
:10E81000E4A10000E8A10000ECA10000F0A10000CC
:10E82000F4A10000F8A10000FCA1000000A200007B
:10E8300004A2000008A200000CA2000010A2000028
:10E8400014A2000018A200001CA2000020A20000D8
:10E8500024A2000028A200002CA2000030A2000088
:10E8600034A2000038A200003CA2000040A2000038
:10E8700044A2000048A200004CA2000050A20000E8
:10E8800054A2000058A200005CA2000060A2000098
:10E8900064A2000068A200006CA2000070A2000048
:10E8A00074A2000078A200007CA2000080A20000F8
:10E8B00084A2000088A200008CA2000090A20000A8
:10E8C00094A2000098A200009CA20000A0A2000058
:10E8D000A4A20000A8A20000ACA20000B0A2000008
:10E8E000B4A20000B8A20000BCA20000C0A20000B8
:10E8F000C4A20000C8A20000CCA20000D0A2000068
:10E90000D4A20000D8A20000DCA20000E0A2000017
:10E91000E4A20000E8A20000ECA20000F0A20000C7
:10E92000F4A20000F8A20000FCA2000000A3000076
:10E9300004A3000008A300000CA3000010A3000023
:10E9400014A3000018A300001CA3000020A30000D3
:10E9500024A3000028A300002CA3000030A3000083
:10E9600034A3000038A300003CA3000040A3000033
:10E9700044A3000048A300004CA3000050A30000E3
:10E9800054A3000058A300005CA3000060A3000093
:10E9900064A3000068A300006CA3000070A3000043
:10E9A00074A3000078A300007CA3000080A30000F3
:10E9B00084A3000088A300008CA3000090A30000A3
:10E9C00094A3000098A300009CA30000A0A3000053
:10E9D000A4A30000A8A30000ACA30000B0A3000003
:10E9E000B4A30000B8A30000BCA30000C0A30000B3
:10E9F000C4A30000C8A30000CCA30000D0A3000063
:10EA0000D4A30000D8A30000DCA30000E0A3000012
:10EA1000E4A30000E8A30000ECA30000F0A30000C2
:10EA2000F4A30000F8A30000FCA3000000A4000071
:10EA300004A4000008A400000CA4000010A400001E
:10EA400014A4000018A400001CA4000020A40000CE
:10EA500024A4000028A400002CA4000030A400007E
:10EA600034A4000038A400003CA4000040A400002E
:10EA700044A4000048A400004CA4000050A40000DE
:10EA800054A4000058A400005CA4000060A400008E
:10EA900064A4000068A400006CA4000070A400003E
:10EAA00074A4000078A400007CA4000080A40000EE
:10EAB00084A4000088A400008CA4000090A400009E
:10EAC00094A4000098A400009CA40000A0A400004E
:10EAD000A4A40000A8A40000ACA40000B0A40000FE
:10EAE000B4A40000B8A40000BCA40000C0A40000AE
:10EAF000C4A40000C8A40000CCA40000D0A400005E
:10EB0000D4A40000D8A40000DCA40000E0A400000D
:10EB1000E4A40000E8A40000ECA40000F0A40000BD
:10EB2000F4A40000F8A40000FCA4000000A500006C
:10EB300004A5000008A500000CA5000010A5000019
:10EB400014A5000018A500001CA5000020A50000C9
:10EB500024A5000028A500002CA5000030A5000079
:10EB600034A5000038A500003CA5000040A5000029
:10EB700044A5000048A500004CA5000050A50000D9
:10EB800054A5000058A500005CA5000060A5000089
:10EB900064A5000068A500006CA5000070A5000039
:10EBA00074A5000078A500007CA5000080A50000E9
:10EBB00084A5000088A500008CA5000090A5000099
:10EBC00094A5000098A500009CA50000A0A5000049
:10EBD000A4A50000A8A50000ACA50000B0A50000F9
:10EBE000B4A50000B8A50000BCA50000C0A50000A9
:10EBF000C4A50000C8A50000CCA50000D0A5000059
:10EC0000D4A50000D8A50000DCA50000E0A5000008
:10EC1000E4A50000E8A50000ECA50000F0A50000B8
:10EC2000F4A50000F8A50000FCA5000000A6000067
:10EC300004A6000008A600000CA6000010A6000014
:10EC400014A6000018A600001CA6000020A60000C4
:10EC500024A6000028A600002CA6000030A6000074
:10EC600034A6000038A600003CA6000040A6000024
:10EC700044A6000048A600004CA6000050A60000D4
:10EC800054A6000058A600005CA6000060A6000084
:10EC900064A6000068A600006CA6000070A6000034
:10ECA00074A6000078A600007CA6000080A60000E4
:10ECB00084A6000088A600008CA6000090A6000094
:10ECC00094A6000098A600009CA60000A0A6000044
:10ECD000A4A60000A8A60000ACA60000B0A60000F4
:10ECE000B4A60000B8A60000BCA60000C0A60000A4
:10ECF000C4A60000C8A60000CCA60000D0A6000054
:10ED0000D4A60000D8A60000DCA60000E0A6000003
:10ED1000E4A60000E8A60000ECA60000F0A60000B3
:10ED2000F4A60000F8A60000FCA6000000A7000062
:10ED300004A7000008A700000CA7000010A700000F
:10ED400014A7000018A700001CA7000020A70000BF
:10ED500024A7000028A700002CA7000030A700006F
:10ED600034A7000038A700003CA7000040A700001F
:10ED700044A7000048A700004CA7000050A70000CF
:10ED800054A7000058A700005CA7000060A700007F
:10ED900064A7000068A700006CA7000070A700002F
:10EDA00074A7000078A700007CA7000080A70000DF
:10EDB00084A7000088A700008CA7000090A700008F
:10EDC00094A7000098A700009CA70000A0A700003F
:10EDD000A4A70000A8A70000ACA70000B0A70000EF
:10EDE000B4A70000B8A70000BCA70000C0A700009F
:10EDF000C4A70000C8A70000CCA70000D0A700004F
:10EE0000D4A70000D8A70000DCA70000E0A70000FE
:10EE1000E4A70000E8A70000ECA70000F0A70000AE
:10EE2000F4A70000F8A70000FCA7000000A800005D
:10EE300004A8000008A800000CA8000010A800000A
:10EE400014A8000018A800001CA8000020A80000BA
:10EE500024A8000028A800002CA8000030A800006A
:10EE600034A8000038A800003CA8000040A800001A
:10EE700044A8000048A800004CA8000050A80000CA
:10EE800054A8000058A800005CA8000060A800007A
:10EE900064A8000068A800006CA8000070A800002A
:10EEA00074A8000078A800007CA8000080A80000DA
:10EEB00084A8000088A800008CA8000090A800008A
:10EEC00094A8000098A800009CA80000A0A800003A
:10EED000A4A80000A8A80000ACA80000B0A80000EA
:10EEE000B4A80000B8A80000BCA80000C0A800009A
:10EEF000C4A80000C8A80000CCA80000D0A800004A
:10EF0000D4A80000D8A80000DCA80000E0A80000F9
:10EF1000E4A80000E8A80000ECA80000F0A80000A9
:10EF2000F4A80000F8A80000FCA8000000A9000058
:10EF300004A9000008A900000CA9000010A9000005
:10EF400014A9000018A900001CA9000020A90000B5
:10EF500024A9000028A900002CA9000030A9000065
:10EF600034A9000038A900003CA9000040A9000015
:10EF700044A9000048A900004CA9000050A90000C5
:10EF800054A9000058A900005CA9000060A9000075
:10EF900064A9000068A900006CA9000070A9000025
:10EFA00074A9000078A900007CA9000080A90000D5
:10EFB00084A9000088A900008CA9000090A9000085
:10EFC00094A9000098A900009CA90000A0A9000035
:10EFD000A4A90000A8A90000ACA90000B0A90000E5
:10EFE000B4A90000B8A90000BCA90000C0A9000095
:10EFF000C4A90000C8A90000CCA90000D0A9000045
:10F00000D4A90000D8A90000DCA90000E0A90000F4
:10F01000E4A90000E8A90000ECA90000F0A90000A4
:10F02000F4A90000F8A90000FCA9000000AA000053
:10F0300004AA000008AA00000CAA000010AA000000
:10F0400014AA000018AA00001CAA000020AA0000B0
:10F0500024AA000028AA00002CAA000030AA000060
:10F0600034AA000038AA00003CAA000040AA000010
:10F0700044AA000048AA00004CAA000050AA0000C0
:10F0800054AA000058AA00005CAA000060AA000070
:10F0900064AA000068AA00006CAA000070AA000020
:10F0A00074AA000078AA00007CAA000080AA0000D0
:10F0B00084AA000088AA00008CAA000090AA000080
:10F0C00094AA000098AA00009CAA0000A0AA000030
:10F0D000A4AA0000A8AA0000ACAA0000B0AA0000E0
:10F0E000B4AA0000B8AA0000BCAA0000C0AA000090
:10F0F000C4AA0000C8AA0000CCAA0000D0AA000040
:10F10000D4AA0000D8AA0000DCAA0000E0AA0000EF
:10F11000E4AA0000E8AA0000ECAA0000F0AA00009F
:10F12000F4AA0000F8AA0000FCAA000000AB00004E
:10F1300004AB000008AB00000CAB000010AB0000FB
:10F1400014AB000018AB00001CAB000020AB0000AB
:10F1500024AB000028AB00002CAB000030AB00005B
:10F1600034AB000038AB00003CAB000040AB00000B
:10F1700044AB000048AB00004CAB000050AB0000BB
:10F1800054AB000058AB00005CAB000060AB00006B
:10F1900064AB000068AB00006CAB000070AB00001B
:10F1A00074AB000078AB00007CAB000080AB0000CB
:10F1B00084AB000088AB00008CAB000090AB00007B
:10F1C00094AB000098AB00009CAB0000A0AB00002B
:10F1D000A4AB0000A8AB0000ACAB0000B0AB0000DB
:10F1E000B4AB0000B8AB0000BCAB0000C0AB00008B
:10F1F000C4AB0000C8AB0000CCAB0000D0AB00003B
:10F20000D4AB0000D8AB0000DCAB0000E0AB0000EA
:10F21000E4AB0000E8AB0000ECAB0000F0AB00009A
:10F22000F4AB0000F8AB0000FCAB000000AC000049
:10F2300004AC000008AC00000CAC000010AC0000F6
:10F2400014AC000018AC00001CAC000020AC0000A6
:10F2500024AC000028AC00002CAC000030AC000056
:10F2600034AC000038AC00003CAC000040AC000006
:10F2700044AC000048AC00004CAC000050AC0000B6
:10F2800054AC000058AC00005CAC000060AC000066
:10F2900064AC000068AC00006CAC000070AC000016
:10F2A00074AC000078AC00007CAC000080AC0000C6
:10F2B00084AC000088AC00008CAC000090AC000076
:10F2C00094AC000098AC00009CAC0000A0AC000026
:10F2D000A4AC0000A8AC0000ACAC0000B0AC0000D6
:10F2E000B4AC0000B8AC0000BCAC0000C0AC000086
:10F2F000C4AC0000C8AC0000CCAC0000D0AC000036
:10F30000D4AC0000D8AC0000DCAC0000E0AC0000E5
:10F31000E4AC0000E8AC0000ECAC0000F0AC000095
:10F32000F4AC0000F8AC0000FCAC000000AD000044
:10F3300004AD000008AD00000CAD000010AD0000F1
:10F3400014AD000018AD00001CAD000020AD0000A1
:10F3500024AD000028AD00002CAD000030AD000051
:10F3600034AD000038AD00003CAD000040AD000001
:10F3700044AD000048AD00004CAD000050AD0000B1
:10F3800054AD000058AD00005CAD000060AD000061
:10F3900064AD000068AD00006CAD000070AD000011
:10F3A00074AD000078AD00007CAD000080AD0000C1
:10F3B00084AD000088AD00008CAD000090AD000071
:10F3C00094AD000098AD00009CAD0000A0AD000021
:10F3D000A4AD0000A8AD0000ACAD0000B0AD0000D1
:10F3E000B4AD0000B8AD0000BCAD0000C0AD000081
:10F3F000C4AD0000C8AD0000CCAD0000D0AD000031
:10F40000D4AD0000D8AD0000DCAD0000E0AD0000E0
:10F41000E4AD0000E8AD0000ECAD0000F0AD000090
:10F42000F4AD0000F8AD0000FCAD000000AE00003F
:10F4300004AE000008AE00000CAE000010AE0000EC
:10F4400014AE000018AE00001CAE000020AE00009C
:10F4500024AE000028AE00002CAE000030AE00004C
:10F4600034AE000038AE00003CAE000040AE0000FC
:10F4700044AE000048AE00004CAE000050AE0000AC
:10F4800054AE000058AE00005CAE000060AE00005C
:10F4900064AE000068AE00006CAE000070AE00000C
:10F4A00074AE000078AE00007CAE000080AE0000BC
:10F4B00084AE000088AE00008CAE000090AE00006C
:10F4C00094AE000098AE00009CAE0000A0AE00001C
:10F4D000A4AE0000A8AE0000ACAE0000B0AE0000CC
:10F4E000B4AE0000B8AE0000BCAE0000C0AE00007C
:10F4F000C4AE0000C8AE0000CCAE0000D0AE00002C
:10F50000D4AE0000D8AE0000DCAE0000E0AE0000DB
:10F51000E4AE0000E8AE0000ECAE0000F0AE00008B
:10F52000F4AE0000F8AE0000FCAE000000AF00003A
:10F5300004AF000008AF00000CAF000010AF0000E7
:10F5400014AF000018AF00001CAF000020AF000097
:10F5500024AF000028AF00002CAF000030AF000047
:10F5600034AF000038AF00003CAF000040AF0000F7
:10F5700044AF000048AF00004CAF000050AF0000A7
:10F5800054AF000058AF00005CAF000060AF000057
:10F5900064AF000068AF00006CAF000070AF000007
:10F5A00074AF000078AF00007CAF000080AF0000B7
:10F5B00084AF000088AF00008CAF000090AF000067
:10F5C00094AF000098AF00009CAF0000A0AF000017
:10F5D000A4AF0000A8AF0000ACAF0000B0AF0000C7
:10F5E000B4AF0000B8AF0000BCAF0000C0AF000077
:10F5F000C4AF0000C8AF0000CCAF0000D0AF000027
:10F60000D4AF0000D8AF0000DCAF0000E0AF0000D6
:10F61000E4AF0000E8AF0000ECAF0000F0AF000086
:10F62000F4AF0000F8AF0000FCAF000000000000E5
:10F6300050F6000800000020740100008E0200084F
:10F6400068F6000874010020944A0000002A0008AF
:10F6500001FF016355020406081D010203040102B3
:08F6600003040607080900007D
:0400000508000131BD
:00000001FF
