:020000020000FC
:040000000C9440001C
:0E008000F1E0E0E0A0E0F13021F4E03011F416
:0E008E000C944C00A1930C944300CFEFCDBF17
:0E009C00C8E0CEBFC0E0D1E00C945400259A1D
:0E00AA002D9A44EF51E060E070E048835983E6
:0E00B8006A837B83FE013496DF014881598103
:0E00C6006A817B814D935D936D937D93EF0175
:0E00D4000E94880024972D9844EF51E060E0D0
:0E00E20070E0488359836A837B83FE01349665
:0E00F000DF01488159816A817B814D935D93C8
:1000FE006D937D93EF010E94880024970C94550018
:0E010E000895488159816A817B814C835D830D
:0E011C006E837F834C815D816E817F81CA017D
:0E012A00DB01882341F4992331F4AA2321F448
:0E013800BB2311F40C94C9000197A040B04005
:0E014600AC01BD014C835D836E837F8340E975
:0E01540051E04887598748855985CA0188239C
:0E01620021F4992311F40C94C7000197AC010D
:0E0170004887598741E04A874A85442311F4A5
:10017E000C94C5004A954A870C94BC000C94AD00B3
:0E018E000C949000089505E0759567955795BF
:0E019C0047950A95D1F7089505E0B595A7950A
:0E01AA00979587950A95D1F708950AE09595E7
:0E01B800879577956795579547950A95C1F7F6
:0E01C60008950AE0B595A795979587950A9537
:0E01D40041F708950AE0440F551F661F771F7C
:0E01E2000A95D1F70895EE24FF240AE0440F99
:0E01F000551F661F771FEE1CFF1C0A95C1F7F6
:0E01FE000895EF3F11F4009503950895EF3F2B
:0E020C0029F400951095039509F413950895B3
:0E021A00EF3F59F4009510952095309503950F
:0E02280029F4139519F4239509F433950895DC
:0E023600EF3F11F4409543950895EF3F29F4F2
:0E02440040955095439509F453950895EF3F6A
:0E02520059F44095509560957095439529F4A8
:0E026000539519F4639509F47395089540952C
:0E026E005095439509F4539508954095509589
:0E027C00439509F4539508954095509560956B
:0E028A007095439529F4539519F4639509F482
:0E0298007395089580959095A095B0958395E7
:0E02A60029F4939519F4A39509F4B3950895DE
:0E02B40047FF0C946001E09540954395089536
:0E02C20087FF0C946701E09580958395089561
:0E02D00057FF0C947101E095409550954395B1
:0E02DE0009F45395089597FF0C947B01E09569
:0E02EC0080959095839509F49395089577FF7A
:0E02FA000C948B01E0954095509560957095A1
:0E030800439529F4539519F4639509F4739500
:0E0316000895B7FF0C949B01E095809590959B
:0E032400A095B095839529F4939519F4A395AF
:0E03320009F4B3950895489F8001499F100D6E
:0E034000589F100D0895EE27489F8001222738
:0E034E003327499F100D211D3E1F4A9F200D91
:0E035C00311D4B9F300D589F100D211D3E1F6F
:0E036A00599F200D311D5A9F300D689F200DA8
:0E037800311D699F300D789F300D0895EE27DE
:10038600EE24FF24FF2777FF0C94CC010E94420144
:0E039600F095B7FF0C94D2010E944E01F09535
:0E03A400489F800122273327499F100D211DFD
:0E03B2003E1FEE1EFE1E4A9F200D311DEE1E48
:0E03C000FE1E4B9F300DE11CFE1E589F100DBF
:0E03CE00211D3E1FEE1EFE1E599F200D311DEB
:0E03DC00EE1EFE1E5A9F300DE11CFE1E5B9FA2
:0E03EA00E00CF11C689F200D311DEE1EFE1E62
:0E03F800699F300DE11CFE1E6A9FE00CF11C97
:0E0406006B9FF00C789F300DE11CFE1E799F5D
:0E041400E00CF11C7A9FF00CA801B901C701A1
:0E0422000E94DA00F7FF0C9419020E944201BA
:0E043000F0950895F8E000270894441F001F7F
:0E043E00081B10F4080F4A95FA95B9F70895B7
:0E044C00F0E1002711270894441F551F001FE0
:0E045A00111F081B190B30F4080F191F4A95CB
:0E0468004F3F09F45A95FA9581F70895F0E296
:0E04760000271127222733270894441F551F03
:0E048400661F771F001F111F221F331F081B4A
:0E049200190B2A0B3B0B28F4080F191F2A1F09
:0E04A0003B1F4A95FA9559F70895DD24F0E3C5
:0E04AE000027112722273327CC240894441F4F
:0E04BC00551F661F771FEE1CFF1C001F111F2F
:0E04CA00221F331FCC1C081B190B2A0B3B0BE7
:0E04D800CD0830F4080F191F2A1F3B1FCD1C42
:0E04E6004A95FA9531F70895E89F8001E99F45
:0C04F400100DF89F100D400F511F0895CF
:00000001FF
